{
  "_format": "hh-sol-artifact-1",
  "contractName": "IncrementalMerkleTreeMock",
  "sourceName": "contracts/data/IncrementalMerkleTreeMock.sol",
  "abi": [
    {
      "inputs": [
        {
          "internalType": "uint256",
          "name": "index",
          "type": "uint256"
        }
      ],
      "name": "at",
      "outputs": [
        {
          "internalType": "bytes32",
          "name": "",
          "type": "bytes32"
        }
      ],
      "stateMutability": "view",
      "type": "function"
    },
    {
      "inputs": [],
      "name": "height",
      "outputs": [
        {
          "internalType": "uint256",
          "name": "",
          "type": "uint256"
        }
      ],
      "stateMutability": "view",
      "type": "function"
    },
    {
      "inputs": [],
      "name": "pop",
      "outputs": [],
      "stateMutability": "nonpayable",
      "type": "function"
    },
    {
      "inputs": [
        {
          "internalType": "bytes32",
          "name": "hash",
          "type": "bytes32"
        }
      ],
      "name": "push",
      "outputs": [],
      "stateMutability": "nonpayable",
      "type": "function"
    },
    {
      "inputs": [],
      "name": "root",
      "outputs": [
        {
          "internalType": "bytes32",
          "name": "",
          "type": "bytes32"
        }
      ],
      "stateMutability": "view",
      "type": "function"
    },
    {
      "inputs": [
        {
          "internalType": "uint256",
          "name": "index",
          "type": "uint256"
        },
        {
          "internalType": "bytes32",
          "name": "hash",
          "type": "bytes32"
        }
      ],
      "name": "set",
      "outputs": [],
      "stateMutability": "nonpayable",
      "type": "function"
    },
    {
      "inputs": [],
      "name": "size",
      "outputs": [
        {
          "internalType": "uint256",
          "name": "",
          "type": "uint256"
        }
      ],
      "stateMutability": "view",
      "type": "function"
    }
  ],
  "bytecode": "0x608060405234801561000f575f80fd5b506105e08061001d5f395ff3fe608060405234801561000f575f80fd5b506004361061007a575f3560e01c8063a4ece52c11610058578063a4ece52c146100b0578063b298e36b146100b8578063e0886f90146100cb578063ebf0c717146100de575f80fd5b80630ef267431461007e57806364c4ef1a14610093578063949d225d146100a8575b5f80fd5b5f545b60405190815260200160405180910390f35b6100a66100a13660046104e4565b6100eb565b005b6100816100fa565b6100a6610104565b6100a66100c6366004610504565b61010f565b6100816100d9366004610504565b61011c565b61008161012d565b905090565b6100f65f8383610137565b5050565b5f6100e65f610153565b61010d5f61018a565b565b6101195f826102c3565b50565b5f6101278183610374565b92915050565b5f6100e65f6103b3565b61014e835f846001610147845490565b0385610407565b505050565b5f8061015d835490565b111561018557815f015f815481106101775761017761051b565b5f9182526020909120015490505b919050565b5f610193825490565b90505f60016101a184610153565b6101ab9190610543565b90506001821b60021c81036101f557816101c481610556565b925050825f018054806101d9576101d961056b565b600190038181905f5260205f20015f6101f291906104b6565b90555b5f815b8382108015610224575080855f0183815481106102175761021761051b565b5f91825260209091200154115b1561028b57845f01828154811061023d5761023d61051b565b905f5260205f20018054806102545761025461056b565b600190038181905f5260205f20015f9055905581806102729061057f565b9250600190506102828282610597565b901c90506101f8565b82156102bc576102bc61029f600185610543565b6102b46102ad600187610543565b8890610374565b879190610137565b5050505050565b5f6102cc835490565b90505f6102d884610153565b9050600180831b901c81036102fa578354600190810185555f85905291909101905b5f815b838210801561032a575080865f01838154811061031c5761031c61051b565b5f9182526020909120015411155b1561036157855f0182815481106103435761034361051b565b5f91825260208220018054600190810182559152918201911c6102fd565b61036c868487610137565b505050505050565b5f825f015f815481106103895761038961051b565b905f5260205f200182815481106103a2576103a261051b565b905f5260205f200154905092915050565b5f806103bd835490565b9050801561040157825f0160018203815481106103dc576103dc61051b565b905f5260205f20015f815481106103f5576103f561051b565b905f5260205f20015491505b50919050565b5f85858154811061041a5761041a61051b565b905f5260205f20019050818185815481106104375761043761051b565b5f9182526020909120015582850361044f57506102bc565b8360011660010361047a57805f526001840360205f200154805f52508160205260405f2091506104a2565b80546001850110156104a257805f526001840160205f200154825f52806020525060405f2091505b61036c8686600101600187901c8686610407565b5080545f8255905f5260205f209081019061011991905b808211156104e0575f81556001016104cd565b5090565b5f80604083850312156104f5575f80fd5b50508035926020909101359150565b5f60208284031215610514575f80fd5b5035919050565b634e487b7160e01b5f52603260045260245ffd5b634e487b7160e01b5f52601160045260245ffd5b818103818111156101275761012761052f565b5f816105645761056461052f565b505f190190565b634e487b7160e01b5f52603160045260245ffd5b5f600182016105905761059061052f565b5060010190565b808201808211156101275761012761052f56fea2646970667358221220506135c27a59e5f14e79f69d695ce96755ff7a386844328480173506331a95c464736f6c63430008140033",
  "linkReferences": {},
  "deployedLinkReferences": {}
}