{
  "_format": "hh-sol-artifact-1",
  "contractName": "BinaryHeapBytes32Mock",
  "sourceName": "contracts/data/BinaryHeapBytes32Mock.sol",
  "abi": [
    {
      "inputs": [
        {
          "internalType": "bytes32",
          "name": "value",
          "type": "bytes32"
        }
      ],
      "name": "add",
      "outputs": [
        {
          "internalType": "bool",
          "name": "",
          "type": "bool"
        }
      ],
      "stateMutability": "nonpayable",
      "type": "function"
    },
    {
      "inputs": [
        {
          "internalType": "uint256",
          "name": "index",
          "type": "uint256"
        }
      ],
      "name": "at",
      "outputs": [
        {
          "internalType": "bytes32",
          "name": "",
          "type": "bytes32"
        }
      ],
      "stateMutability": "view",
      "type": "function"
    },
    {
      "inputs": [
        {
          "internalType": "bytes32",
          "name": "value",
          "type": "bytes32"
        }
      ],
      "name": "contains",
      "outputs": [
        {
          "internalType": "bool",
          "name": "",
          "type": "bool"
        }
      ],
      "stateMutability": "view",
      "type": "function"
    },
    {
      "inputs": [
        {
          "internalType": "bytes32",
          "name": "value",
          "type": "bytes32"
        }
      ],
      "name": "indexOf",
      "outputs": [
        {
          "internalType": "uint256",
          "name": "",
          "type": "uint256"
        }
      ],
      "stateMutability": "view",
      "type": "function"
    },
    {
      "inputs": [],
      "name": "length",
      "outputs": [
        {
          "internalType": "uint256",
          "name": "",
          "type": "uint256"
        }
      ],
      "stateMutability": "view",
      "type": "function"
    },
    {
      "inputs": [
        {
          "internalType": "bytes32",
          "name": "value",
          "type": "bytes32"
        }
      ],
      "name": "remove",
      "outputs": [
        {
          "internalType": "bool",
          "name": "",
          "type": "bool"
        }
      ],
      "stateMutability": "nonpayable",
      "type": "function"
    },
    {
      "inputs": [],
      "name": "root",
      "outputs": [
        {
          "internalType": "bytes32",
          "name": "",
          "type": "bytes32"
        }
      ],
      "stateMutability": "view",
      "type": "function"
    },
    {
      "inputs": [],
      "name": "toArray",
      "outputs": [
        {
          "internalType": "bytes32[]",
          "name": "",
          "type": "bytes32[]"
        }
      ],
      "stateMutability": "view",
      "type": "function"
    }
  ],
  "bytecode": "0x608060405234801561000f575f80fd5b506105ae8061001d5f395ff3fe608060405234801561000f575f80fd5b5060043610610085575f3560e01c8063908ff30311610058578063908ff303146100ed57806395bc267314610102578063e0886f9014610115578063ebf0c71714610128575f80fd5b80631d1a696d146100895780631f7b6d32146100b1578063446bffba146100c75780636f4ce56a146100da575b5f80fd5b61009c6100973660046104f6565b610130565b60405190151581526020015b60405180910390f35b6100b9610141565b6040519081526020016100a8565b61009c6100d53660046104f6565b610150565b6100b96100e83660046104f6565b61015b565b6100f5610166565b6040516100a8919061050d565b61009c6101103660046104f6565b610171565b6100b96101233660046104f6565b61017c565b6100b9610187565b5f61013b8183610191565b92915050565b5f61014b5f6101ab565b905090565b5f61013b81836101b4565b5f61013b81836101bf565b606061014b5f6101d7565b5f61013b818361022d565b5f61013b8183610238565b5f61014b5f610243565b5f81815260018301602052604081205415155b9392505050565b5f61013b825490565b5f6101a4838361024d565b5f8181526001830160205260408120545f19016101a4565b805460408051602080840282018101909252828152606092909184919083018282801561022157602002820191905f5260205f20905b81548152602001906001019080831161020d575b50505050509050919050565b5f6101a48383610299565b5f6101a48383610323565b5f61013b82610349565b5f81815260018301602052604081205461013b5782546001810184555f848152602090200182905582545f83815260018501602052604090205561029083610354565b50600192915050565b5f8181526001830160205260408120541561013b575f8281526001840160205260408120545f190190506102d8848260016102d2885490565b03610382565b83548490806102e9576102e9610550565b5f828152602080822083015f19908101839055909201909255848252600186019052604081205561031984610354565b5060019392505050565b5f825f01828154811061033857610338610564565b905f5260205f200154905092915050565b5f61013b825f610323565b5f61035d825490565b9050600281045b801561037d575f190161037883838361042e565b610364565b505050565b825483905f9082908590811061039a5761039a610564565b905f5260205f20015490505f8284815481106103b8576103b8610564565b905f5260205f200154905080828487815481106103d7576103d7610564565b905f5260205f20015f8688815481106103f2576103f2610564565b5f918252602080832090910194909455939091555082825260019097019096526040808720805493885290872080549290975255909355505050565b8083600182811b8117908101858210801561047c575082828154811061045657610456610564565b905f5260205f20015483858154811061047157610471610564565b905f5260205f200154105b15610485578193505b85811080156104c757508281815481106104a1576104a1610564565b905f5260205f2001548385815481106104bc576104bc610564565b905f5260205f200154105b156104d0578093505b50508282146104ef576104e4858484610382565b6104ef85858461042e565b5050505050565b5f60208284031215610506575f80fd5b5035919050565b602080825282518282018190525f9190848201906040850190845b8181101561054457835183529284019291840191600101610528565b50909695505050505050565b634e487b7160e01b5f52603160045260245ffd5b634e487b7160e01b5f52603260045260245ffdfea2646970667358221220fa1bcfb2e3866ba7472f2a502c3d48195255d5f41f2b98b4719515e82ff5461664736f6c63430008140033",
  "linkReferences": {},
  "deployedLinkReferences": {}
}