{
  "_format": "hh-sol-artifact-1",
  "contractName": "EIP712Mock",
  "sourceName": "contracts/cryptography/EIP712Mock.sol",
  "abi": [
    {
      "inputs": [
        {
          "internalType": "bytes32",
          "name": "nameHash",
          "type": "bytes32"
        },
        {
          "internalType": "bytes32",
          "name": "versionHash",
          "type": "bytes32"
        }
      ],
      "name": "calculateDomainSeparator",
      "outputs": [
        {
          "internalType": "bytes32",
          "name": "",
          "type": "bytes32"
        }
      ],
      "stateMutability": "view",
      "type": "function"
    }
  ],
  "bytecode": "0x608060405234801561000f575f80fd5b5060f18061001c5f395ff3fe6080604052348015600e575f80fd5b50600436106026575f3560e01c80638ec98aff14602a575b5f80fd5b60396035366004609c565b604b565b60405190815260200160405180910390f35b5f60958383604080517f8b73c3c69bb8fe3d512ecc4cf759cc79239f7b179b0ffacaa9a75d522b39400f8152602081019390935282015246606082015230608082015260a0902090565b9392505050565b5f806040838503121560ac575f80fd5b5050803592602090910135915056fea26469706673582212206acc38bb6473913f364d46b64f0e843ccff82ce75888c719d76312763ccc78c864736f6c63430008140033",
  "linkReferences": {},
  "deployedLinkReferences": {}
}