{
  "_format": "hh-sol-artifact-1",
  "contractName": "EnumerableMapUintToAddressMock",
  "sourceName": "contracts/data/EnumerableMapUintToAddressMock.sol",
  "abi": [
    {
      "inputs": [],
      "name": "EnumerableMap__IndexOutOfBounds",
      "type": "error"
    },
    {
      "inputs": [],
      "name": "EnumerableMap__NonExistentKey",
      "type": "error"
    },
    {
      "inputs": [
        {
          "internalType": "uint256",
          "name": "index",
          "type": "uint256"
        }
      ],
      "name": "at",
      "outputs": [
        {
          "internalType": "uint256",
          "name": "",
          "type": "uint256"
        },
        {
          "internalType": "address",
          "name": "",
          "type": "address"
        }
      ],
      "stateMutability": "view",
      "type": "function"
    },
    {
      "inputs": [
        {
          "internalType": "uint256",
          "name": "key",
          "type": "uint256"
        }
      ],
      "name": "contains",
      "outputs": [
        {
          "internalType": "bool",
          "name": "",
          "type": "bool"
        }
      ],
      "stateMutability": "view",
      "type": "function"
    },
    {
      "inputs": [
        {
          "internalType": "uint256",
          "name": "key",
          "type": "uint256"
        }
      ],
      "name": "get",
      "outputs": [
        {
          "internalType": "address",
          "name": "",
          "type": "address"
        }
      ],
      "stateMutability": "view",
      "type": "function"
    },
    {
      "inputs": [],
      "name": "keys",
      "outputs": [
        {
          "internalType": "uint256[]",
          "name": "keysOut",
          "type": "uint256[]"
        }
      ],
      "stateMutability": "view",
      "type": "function"
    },
    {
      "inputs": [],
      "name": "length",
      "outputs": [
        {
          "internalType": "uint256",
          "name": "",
          "type": "uint256"
        }
      ],
      "stateMutability": "view",
      "type": "function"
    },
    {
      "inputs": [
        {
          "internalType": "uint256",
          "name": "key",
          "type": "uint256"
        }
      ],
      "name": "remove",
      "outputs": [
        {
          "internalType": "bool",
          "name": "",
          "type": "bool"
        }
      ],
      "stateMutability": "nonpayable",
      "type": "function"
    },
    {
      "inputs": [
        {
          "internalType": "uint256",
          "name": "key",
          "type": "uint256"
        },
        {
          "internalType": "address",
          "name": "value",
          "type": "address"
        }
      ],
      "name": "set",
      "outputs": [
        {
          "internalType": "bool",
          "name": "",
          "type": "bool"
        }
      ],
      "stateMutability": "nonpayable",
      "type": "function"
    },
    {
      "inputs": [],
      "name": "toArray",
      "outputs": [
        {
          "internalType": "uint256[]",
          "name": "keysOut",
          "type": "uint256[]"
        },
        {
          "internalType": "address[]",
          "name": "valuesOut",
          "type": "address[]"
        }
      ],
      "stateMutability": "view",
      "type": "function"
    },
    {
      "inputs": [],
      "name": "values",
      "outputs": [
        {
          "internalType": "address[]",
          "name": "valuesOut",
          "type": "address[]"
        }
      ],
      "stateMutability": "view",
      "type": "function"
    }
  ],
  "bytecode": "0x608060405234801561000f575f80fd5b5061090d8061001d5f395ff3fe608060405234801561000f575f80fd5b506004361061009f575f3560e01c8063908ff30311610072578063971217b711610058578063971217b71461014a578063c34052e01461015f578063e0886f9014610172575f80fd5b8063908ff303146101095780639507d39a1461011f575f80fd5b80631f7b6d32146100a35780632f30c6f6146100be578063307540f6146100e15780634cc82215146100f6575b5f80fd5b6100ab6101a2565b6040519081526020015b60405180910390f35b6100d16100cc36600461078a565b6101b1565b60405190151581526020016100b5565b6100e96101c6565b6040516100b591906107fc565b6100d161010436600461080e565b6101d1565b6101116101dc565b6040516100b592919061085c565b61013261012d36600461080e565b6101f1565b6040516001600160a01b0390911681526020016100b5565b6101526101fc565b6040516100b59190610889565b6100d161016d36600461080e565b610207565b61018561018036600461080e565b610212565b604080519283526001600160a01b039091166020830152016100b5565b5f6101ac5f610227565b905090565b5f6101bd818484610230565b90505b92915050565b60606101ac5f61024f565b5f6101c081836102f4565b6060806101e85f6102ff565b90939092509050565b5f6101c0818361043b565b60606101ac5f610446565b5f6101c081836104f2565b5f8061021e8184610509565b91509150915091565b5f6101c0825490565b5f61024584846001600160a01b038516610524565b90505b9392505050565b80546060908067ffffffffffffffff81111561026d5761026d61089b565b604051908082528060200260200182016040528015610296578160200160208202803683370190505b5091505f5b818110156102ed5783548490829081106102b7576102b76108af565b905f5260205f2090600202015f01545f1c8382815181106102da576102da6108af565b602090810291909101015260010161029b565b5050919050565b5f6101bd83836105bd565b805460609081908067ffffffffffffffff81111561031f5761031f61089b565b604051908082528060200260200182016040528015610348578160200160208202803683370190505b5092508067ffffffffffffffff8111156103645761036461089b565b60405190808252806020026020018201604052801561038d578160200160208202803683370190505b5091505f5b818110156104345784548590829081106103ae576103ae6108af565b905f5260205f2090600202015f01545f1c8482815181106103d1576103d16108af565b602090810291909101015284548590829081106103f0576103f06108af565b905f5260205f209060020201600101545f1c838281518110610414576104146108af565b6001600160a01b0390921660209283029190910190910152600101610392565b5050915091565b5f6101bd838361069b565b80546060908067ffffffffffffffff8111156104645761046461089b565b60405190808252806020026020018201604052801561048d578160200160208202803683370190505b5091505f5b818110156102ed5783548490829081106104ae576104ae6108af565b905f5260205f209060020201600101545f1c8382815181106104d2576104d26108af565b6001600160a01b0390921660209283029190910190910152600101610492565b5f81815260018301602052604081205415156101bd565b5f8080806105178686610714565b9097909650945050505050565b5f82815260018401602052604081205480820361058957505060408051808201825283815260208082018481528654600181810189555f8981528481209551600290930290950191825591519082015586548684528188019092529290912055610248565b82855f0160018303815481106105a1576105a16108af565b905f5260205f209060020201600101819055505f915050610248565b5f81815260018301602052604081205480156106925783545f9085905f1981019081106105ec576105ec6108af565b905f5260205f209060020201905080855f016001840381548110610612576106126108af565b5f918252602080832084546002909302019182556001938401549184019190915592548152908601909152604090208190558354849080610655576106556108c3565b5f828152602080822060025f1990940193840201828155600190810183905592909355858152868201909252604082209190915591506101c09050565b5f9150506101c0565b5f8181526001830160205260408120548082036106e4576040517ff551fb1400000000000000000000000000000000000000000000000000000000815260040160405180910390fd5b835f0160018203815481106106fb576106fb6108af565b905f5260205f2090600202016001015491505092915050565b81545f9081908310610752576040517f117ec13800000000000000000000000000000000000000000000000000000000815260040160405180910390fd5b5f845f018481548110610767576107676108af565b905f5260205f2090600202019050805f0154816001015492509250509250929050565b5f806040838503121561079b575f80fd5b8235915060208301356001600160a01b03811681146107b8575f80fd5b809150509250929050565b5f8151808452602080850194508084015f5b838110156107f1578151875295820195908201906001016107d5565b509495945050505050565b602081525f6101bd60208301846107c3565b5f6020828403121561081e575f80fd5b5035919050565b5f8151808452602080850194508084015f5b838110156107f15781516001600160a01b031687529582019590820190600101610837565b604081525f61086e60408301856107c3565b82810360208401526108808185610825565b95945050505050565b602081525f6101bd6020830184610825565b634e487b7160e01b5f52604160045260245ffd5b634e487b7160e01b5f52603260045260245ffd5b634e487b7160e01b5f52603160045260245ffdfea2646970667358221220ddb9b5f4a2bb3cb8993b2681c3fee8a6bc1bd273089be7fc2db580b9bc122aaf64736f6c63430008140033",
  "linkReferences": {},
  "deployedLinkReferences": {}
}