{
  "_format": "hh-sol-artifact-1",
  "contractName": "BilateralTrade",
  "sourceName": "contracts/trade/bilateral/BilateralTrade.sol",
  "abi": [
    {
      "inputs": [
        {
          "internalType": "contract IRegister",
          "name": "_register",
          "type": "address"
        },
        {
          "internalType": "address",
          "name": "_buyer",
          "type": "address"
        },
        {
          "internalType": "address",
          "name": "_forwarder",
          "type": "address"
        }
      ],
      "stateMutability": "nonpayable",
      "type": "constructor"
    },
    {
      "inputs": [],
      "name": "ReentrancyGuardReentrantCall",
      "type": "error"
    },
    {
      "anonymous": false,
      "inputs": [
        {
          "indexed": true,
          "internalType": "address",
          "name": "seller",
          "type": "address"
        },
        {
          "indexed": true,
          "internalType": "address",
          "name": "buyer",
          "type": "address"
        },
        {
          "indexed": true,
          "internalType": "enum ITrade.Status",
          "name": "status",
          "type": "uint8"
        },
        {
          "indexed": false,
          "internalType": "uint256",
          "name": "quantity",
          "type": "uint256"
        }
      ],
      "name": "NotifyTrade",
      "type": "event"
    },
    {
      "inputs": [],
      "name": "approve",
      "outputs": [
        {
          "internalType": "enum ITrade.Status",
          "name": "",
          "type": "uint8"
        }
      ],
      "stateMutability": "nonpayable",
      "type": "function"
    },
    {
      "inputs": [],
      "name": "buyerAccount",
      "outputs": [
        {
          "internalType": "address",
          "name": "",
          "type": "address"
        }
      ],
      "stateMutability": "view",
      "type": "function"
    },
    {
      "inputs": [],
      "name": "details",
      "outputs": [
        {
          "internalType": "uint256",
          "name": "quantity",
          "type": "uint256"
        },
        {
          "internalType": "address",
          "name": "buyer",
          "type": "address"
        },
        {
          "internalType": "uint256",
          "name": "tradeDate",
          "type": "uint256"
        },
        {
          "internalType": "uint256",
          "name": "valueDate",
          "type": "uint256"
        },
        {
          "internalType": "uint256",
          "name": "price",
          "type": "uint256"
        }
      ],
      "stateMutability": "view",
      "type": "function"
    },
    {
      "inputs": [],
      "name": "executeTransfer",
      "outputs": [
        {
          "internalType": "bool",
          "name": "",
          "type": "bool"
        }
      ],
      "stateMutability": "nonpayable",
      "type": "function"
    },
    {
      "inputs": [],
      "name": "getDetails",
      "outputs": [
        {
          "components": [
            {
              "internalType": "uint256",
              "name": "quantity",
              "type": "uint256"
            },
            {
              "internalType": "address",
              "name": "buyer",
              "type": "address"
            },
            {
              "internalType": "uint256",
              "name": "tradeDate",
              "type": "uint256"
            },
            {
              "internalType": "uint256",
              "name": "valueDate",
              "type": "uint256"
            },
            {
              "internalType": "uint256",
              "name": "price",
              "type": "uint256"
            }
          ],
          "internalType": "struct ITrade.TradeDetail",
          "name": "",
          "type": "tuple"
        }
      ],
      "stateMutability": "view",
      "type": "function"
    },
    {
      "inputs": [
        {
          "internalType": "address",
          "name": "forwarder",
          "type": "address"
        }
      ],
      "name": "isTrustedForwarder",
      "outputs": [
        {
          "internalType": "bool",
          "name": "",
          "type": "bool"
        }
      ],
      "stateMutability": "view",
      "type": "function"
    },
    {
      "inputs": [],
      "name": "paymentID",
      "outputs": [
        {
          "internalType": "bytes8",
          "name": "",
          "type": "bytes8"
        }
      ],
      "stateMutability": "view",
      "type": "function"
    },
    {
      "inputs": [],
      "name": "register",
      "outputs": [
        {
          "internalType": "contract IRegister",
          "name": "",
          "type": "address"
        }
      ],
      "stateMutability": "view",
      "type": "function"
    },
    {
      "inputs": [],
      "name": "reject",
      "outputs": [],
      "stateMutability": "nonpayable",
      "type": "function"
    },
    {
      "inputs": [],
      "name": "sellerAccount",
      "outputs": [
        {
          "internalType": "address",
          "name": "",
          "type": "address"
        }
      ],
      "stateMutability": "view",
      "type": "function"
    },
    {
      "inputs": [
        {
          "components": [
            {
              "internalType": "uint256",
              "name": "quantity",
              "type": "uint256"
            },
            {
              "internalType": "address",
              "name": "buyer",
              "type": "address"
            },
            {
              "internalType": "uint256",
              "name": "tradeDate",
              "type": "uint256"
            },
            {
              "internalType": "uint256",
              "name": "valueDate",
              "type": "uint256"
            },
            {
              "internalType": "uint256",
              "name": "price",
              "type": "uint256"
            }
          ],
          "internalType": "struct ITrade.TradeDetail",
          "name": "_details",
          "type": "tuple"
        }
      ],
      "name": "setDetails",
      "outputs": [],
      "stateMutability": "nonpayable",
      "type": "function"
    },
    {
      "inputs": [],
      "name": "status",
      "outputs": [
        {
          "internalType": "enum ITrade.Status",
          "name": "",
          "type": "uint8"
        }
      ],
      "stateMutability": "view",
      "type": "function"
    },
    {
      "inputs": [],
      "name": "trustedForwarder",
      "outputs": [
        {
          "internalType": "address",
          "name": "",
          "type": "address"
        }
      ],
      "stateMutability": "view",
      "type": "function"
    }
  ],
  "bytecode": "0x60a060405234801562000010575f80fd5b50604051620013f6380380620013f68339810160408190526200003391620003a4565b6001600160a01b0380821660805260015f55831663c41251a16200005662000334565b6040516001600160e01b031960e084901b1681526001600160a01b039091166004820152602401602060405180830381865afa15801562000099573d5f803e3d5ffd5b505050506040513d601f19601f82011682018060405250810190620000bf9190620003f5565b806200014857506001600160a01b03831663a55234b8620000df62000334565b6040516001600160e01b031960e084901b1681526001600160a01b039091166004820152602401602060405180830381865afa15801562000122573d5f803e3d5ffd5b505050506040513d601f19601f82011682018060405250810190620001489190620003f5565b6200019a5760405162461bcd60e51b815260206004820152601f60248201527f53656e646572206d75737420626520612076616c696420696e766573746f720060448201526064015b60405180910390fd5b60405163c41251a160e01b81526001600160a01b03838116600483015284169063c41251a190602401602060405180830381865afa158015620001df573d5f803e3d5ffd5b505050506040513d601f19601f82011682018060405250810190620002059190620003f5565b620002535760405162461bcd60e51b815260206004820152601e60248201527f4275796572206d75737420626520612076616c696420696e766573746f720000604482015260640162000191565b600180546001600160a01b0319166001600160a01b0385161790556200027862000334565b600280546001600160a01b03199081166001600160a01b0393841617909155600480549091169184169190911790556001805460ff60a01b191690819055600160a01b900460ff166005811115620002d457620002d46200041d565b6001600160a01b038316620002e862000334565b6001600160a01b03167fb04efa95c2e317d8afba4237350a971f1ce59ef6fbbf2eb3f1a7e3f3f106a8f45f6040516200032391815260200190565b60405180910390a450505062000431565b5f620003403362000366565b80156200034e575060143610155b1562000361575060131936013560601c90565b503390565b5f6200037160805190565b6001600160a01b0316826001600160a01b0316149050919050565b6001600160a01b0381168114620003a1575f80fd5b50565b5f805f60608486031215620003b7575f80fd5b8351620003c4816200038c565b6020850151909350620003d7816200038c565b6040850151909250620003ea816200038c565b809150509250925092565b5f6020828403121562000406575f80fd5b8151801515811462000416575f80fd5b9392505050565b634e487b7160e01b5f52602160045260245ffd5b608051610f9e620004585f395f81816101c80152818161020a0152610dc60152610f9e5ff3fe608060405234801561000f575f80fd5b50600436106100da575f3560e01c8063565974d311610088578063835d2d2e11610063578063835d2d2e1461022e578063b787cfe614610236578063d84ffb4114610249578063fbbf93a01461027c575f80fd5b8063565974d314610165578063572b6c05146101b85780637da0a87714610208575f80fd5b8063200d2ed2116100b8578063200d2ed214610136578063489147d71461014a5780634dc415de1461015b575f80fd5b806310547851146100de57806312424e3f1461010e5780631aa3a00814610123575b5f80fd5b6002546100f1906001600160a01b031681565b6040516001600160a01b0390911681526020015b60405180910390f35b6101166102ce565b6040516101059190610e69565b6001546100f1906001600160a01b031681565b60015461011690600160a01b900460ff1681565b6004546001600160a01b03166100f1565b610163610574565b005b60035460045460055460065460075461018894936001600160a01b031692919085565b604080519586526001600160a01b039094166020860152928401919091526060830152608082015260a001610105565b6101f86101c6366004610eaa565b7f00000000000000000000000000000000000000000000000000000000000000006001600160a01b0390811691161490565b6040519015158152602001610105565b7f00000000000000000000000000000000000000000000000000000000000000006100f1565b6101f86107af565b610163610244366004610eca565b610a6a565b6040517fffffffffffffffff0000000000000000000000000000000000000000000000003060c01b168152602001610105565b610284610d4f565b60405161010591905f60a082019050825182526001600160a01b03602084015116602083015260408301516040830152606083015160608301526080830151608083015292915050565b6002545f906001600160a01b03166102e4610dc3565b6001600160a01b031614801561031657505f600154600160a01b900460ff16600581111561031457610314610e55565b145b156104a15760035461036f5760405162461bcd60e51b815260206004820152601460248201527f7175616e74697479206e6f7420646566696e656400000000000000000000000060448201526064015b60405180910390fd5b6005546103be5760405162461bcd60e51b815260206004820152601660248201527f74726164652064617465206e6f7420646566696e6564000000000000000000006044820152606401610366565b60065461040d5760405162461bcd60e51b815260206004820152601660248201527f76616c75652064617465206e6f7420646566696e6564000000000000000000006044820152606401610366565b60018054819060ff60a01b1916600160a01b825b0217905550600154600160a01b900460ff16600581111561044457610444610e55565b6004546002546003546040519081526001600160a01b0392831692909116907fb04efa95c2e317d8afba4237350a971f1ce59ef6fbbf2eb3f1a7e3f3f106a8f49060200160405180910390a450600154600160a01b900460ff1690565b6004546001600160a01b03166104b5610dc3565b6001600160a01b03161480156104e7575060018054600160a01b900460ff1660058111156104e5576104e5610e55565b145b1561050657600180546003919060ff60a01b1916600160a01b83610421565b60405162461bcd60e51b815260206004820152603360248201527f7468652074726164652063616e6e6f7420626520617070726f76656420696e2060448201527f746869732063757272656e7420737461747573000000000000000000000000006064820152608401610366565b6002600154600160a01b900460ff16600581111561059457610594610e55565b036105e15760405162461bcd60e51b815260206004820152601660248201527f547261646520616c72656164792072656a6563746564000000000000000000006044820152606401610366565b6002546001600160a01b03166105f5610dc3565b6001600160a01b031614801561062957506004600154600160a01b900460ff16600581111561062657610626610e55565b14155b156106b557600180546002919060ff60a01b1916600160a01b835b0217905550600154600160a01b900460ff16600581111561066757610667610e55565b6004546002546003546040519081526001600160a01b0392831692909116907fb04efa95c2e317d8afba4237350a971f1ce59ef6fbbf2eb3f1a7e3f3f106a8f49060200160405180910390a4565b6004546001600160a01b03166106c9610dc3565b6001600160a01b0316148015610722575060018054600160a01b900460ff1660058111156106f9576106f9610e55565b148061072257506003600154600160a01b900460ff16600581111561072057610720610e55565b145b1561074157600180546002919060ff60a01b1916600160a01b83610644565b60405162461bcd60e51b815260206004820152603360248201527f7468652074726164652063616e6e6f742062652072656a656374656420696e2060448201527f746869732063757272656e7420737461747573000000000000000000000000006064820152608401610366565b5f6107b8610e14565b6002546001600160a01b03166107cc610dc3565b6001600160a01b0316146108485760405162461bcd60e51b815260206004820152603560248201527f4f6e6c79207468652073656c6c65722063616e20636f6e6669726d207468652060448201527f7061796d656e74206f6e207468697320747261646500000000000000000000006064820152608401610366565b6003600154600160a01b900460ff16600581111561086857610868610e55565b146108db5760405162461bcd60e51b815260206004820152602e60248201527f546865207472616465206d75737420626520616363657074656420627920746860448201527f65206275796572206265666f72650000000000000000000000000000000000006064820152608401610366565b600180547404000000000000000000000000000000000000000060ff60a01b19821617909155600254600480546003546040517f23b872dd0000000000000000000000000000000000000000000000000000000081526001600160a01b0394851693810193909352908316602483015260448201525f9291909116906323b872dd906064016020604051808303815f875af115801561097c573d5f803e3d5ffd5b505050506040513d601f19601f820116820180604052508101906109a09190610f49565b9050806109ef5760405162461bcd60e51b815260206004820152601760248201527f746865207472616e7366657220686173206661696c65640000000000000000006044820152606401610366565b600154600160a01b900460ff166005811115610a0d57610a0d610e55565b6004546002546003546040519081526001600160a01b0392831692909116907fb04efa95c2e317d8afba4237350a971f1ce59ef6fbbf2eb3f1a7e3f3f106a8f49060200160405180910390a46001915050610a6760015f55565b90565b6002546001600160a01b0316610a7e610dc3565b6001600160a01b031614610afa5760405162461bcd60e51b815260206004820152602560248201527f4f6e6c79207468652073656c6c65722063616e2075706461746520746869732060448201527f74726164650000000000000000000000000000000000000000000000000000006064820152608401610366565b5f600154600160a01b900460ff166005811115610b1957610b19610e55565b14610b8c5760405162461bcd60e51b815260206004820152603660248201527f43616e6e6f74206368616e6765207468652074726164652064657461696c732060448201527f756e6c65737320696e20647261667420737461747573000000000000000000006064820152608401610366565b60015460208201516040517fc41251a10000000000000000000000000000000000000000000000000000000081526001600160a01b03918216600482015291169063c41251a190602401602060405180830381865afa158015610bf1573d5f803e3d5ffd5b505050506040513d601f19601f82011682018060405250810190610c159190610f49565b610c875760405162461bcd60e51b815260206004820152603760248201527f4275796572206d75737420626520612076616c696420696e766573746f72206560448201527f76656e206f6e206368616e67696e672064657461696c730000000000000000006064820152608401610366565b80516003556020810151600480547fffffffffffffffffffffffff0000000000000000000000000000000000000000166001600160a01b039092169190911790556040810151600590815560608201516006556080820151600755600154600160a01b900460ff1690811115610cff57610cff610e55565b60208281015160025484516040519081526001600160a01b039283169392909116917fb04efa95c2e317d8afba4237350a971f1ce59ef6fbbf2eb3f1a7e3f3f106a8f4910160405180910390a450565b610d856040518060a001604052805f81526020015f6001600160a01b031681526020015f81526020015f81526020015f81525090565b506040805160a08101825260035481526004546001600160a01b03166020820152600554918101919091526006546060820152600754608082015290565b5f7f00000000000000000000000000000000000000000000000000000000000000006001600160a01b031633148015610dfd575060143610155b15610e0f575060131936013560601c90565b503390565b60025f5403610e4f576040517f3ee5aeb500000000000000000000000000000000000000000000000000000000815260040160405180910390fd5b60025f55565b634e487b7160e01b5f52602160045260245ffd5b6020810160068310610e8957634e487b7160e01b5f52602160045260245ffd5b91905290565b80356001600160a01b0381168114610ea5575f80fd5b919050565b5f60208284031215610eba575f80fd5b610ec382610e8f565b9392505050565b5f60a08284031215610eda575f80fd5b60405160a0810181811067ffffffffffffffff82111715610f0957634e487b7160e01b5f52604160045260245ffd5b60405282358152610f1c60208401610e8f565b60208201526040830135604082015260608301356060820152608083013560808201528091505092915050565b5f60208284031215610f59575f80fd5b81518015158114610ec3575f80fdfea2646970667358221220b801cf8a4f5d9a9ce88c1e62f741a68c02e9114d60d61b44041e14f27f65241564736f6c63430008140033",
  "linkReferences": {},
  "deployedLinkReferences": {}
}