{
  "_format": "hh-sol-artifact-1",
  "contractName": "Coupon",
  "sourceName": "contracts/register/coupon/Coupon.sol",
  "abi": [
    {
      "inputs": [],
      "name": "ERC20Base__ApproveFromZeroAddress",
      "type": "error"
    },
    {
      "inputs": [],
      "name": "ERC20Base__ApproveToZeroAddress",
      "type": "error"
    },
    {
      "inputs": [],
      "name": "ERC20Base__BurnExceedsBalance",
      "type": "error"
    },
    {
      "inputs": [],
      "name": "ERC20Base__BurnFromZeroAddress",
      "type": "error"
    },
    {
      "inputs": [],
      "name": "ERC20Base__InsufficientAllowance",
      "type": "error"
    },
    {
      "inputs": [],
      "name": "ERC20Base__MintToZeroAddress",
      "type": "error"
    },
    {
      "inputs": [],
      "name": "ERC20Base__TransferExceedsBalance",
      "type": "error"
    },
    {
      "inputs": [],
      "name": "ERC20Base__TransferFromZeroAddress",
      "type": "error"
    },
    {
      "inputs": [],
      "name": "ERC20Base__TransferToZeroAddress",
      "type": "error"
    },
    {
      "inputs": [],
      "name": "ERC20Snapshot__SnapshotIdDoesNotExists",
      "type": "error"
    },
    {
      "inputs": [],
      "name": "ERC20Snapshot__SnapshotIdIsZero",
      "type": "error"
    },
    {
      "inputs": [],
      "name": "EnumerableSet__IndexOutOfBounds",
      "type": "error"
    },
    {
      "inputs": [],
      "name": "ReentrancyGuard__ReentrantCall",
      "type": "error"
    },
    {
      "inputs": [],
      "name": "UintUtils__InsufficientHexLength",
      "type": "error"
    },
    {
      "anonymous": false,
      "inputs": [
        {
          "indexed": true,
          "internalType": "address",
          "name": "_addressForNewAdmin",
          "type": "address"
        }
      ],
      "name": "AdminChanged",
      "type": "event"
    },
    {
      "anonymous": false,
      "inputs": [
        {
          "indexed": true,
          "internalType": "address",
          "name": "owner",
          "type": "address"
        },
        {
          "indexed": true,
          "internalType": "address",
          "name": "spender",
          "type": "address"
        },
        {
          "indexed": false,
          "internalType": "uint256",
          "name": "value",
          "type": "uint256"
        }
      ],
      "name": "Approval",
      "type": "event"
    },
    {
      "anonymous": false,
      "inputs": [
        {
          "indexed": true,
          "internalType": "uint256",
          "name": "couponDate",
          "type": "uint256"
        },
        {
          "indexed": true,
          "internalType": "enum ICouponInternal.CouponStatus",
          "name": "status",
          "type": "uint8"
        }
      ],
      "name": "CouponChanged",
      "type": "event"
    },
    {
      "anonymous": false,
      "inputs": [
        {
          "indexed": true,
          "internalType": "uint256",
          "name": "couponDate",
          "type": "uint256"
        },
        {
          "indexed": true,
          "internalType": "address",
          "name": "investor",
          "type": "address"
        },
        {
          "indexed": false,
          "internalType": "enum ICouponInternal.PaymentStatus",
          "name": "status",
          "type": "uint8"
        },
        {
          "indexed": false,
          "internalType": "enum ICouponInternal.PaymentStatus",
          "name": "previousStatus",
          "type": "uint8"
        }
      ],
      "name": "CouponPaymentStatusChanged",
      "type": "event"
    },
    {
      "anonymous": false,
      "inputs": [
        {
          "indexed": false,
          "internalType": "bytes32",
          "name": "contractHash",
          "type": "bytes32"
        }
      ],
      "name": "DisableContract",
      "type": "event"
    },
    {
      "anonymous": false,
      "inputs": [
        {
          "indexed": false,
          "internalType": "address",
          "name": "investor",
          "type": "address"
        }
      ],
      "name": "DisableInvestor",
      "type": "event"
    },
    {
      "anonymous": false,
      "inputs": [
        {
          "indexed": false,
          "internalType": "bytes32",
          "name": "contractHash",
          "type": "bytes32"
        }
      ],
      "name": "EnableContract",
      "type": "event"
    },
    {
      "anonymous": false,
      "inputs": [
        {
          "indexed": false,
          "internalType": "address",
          "name": "investor",
          "type": "address"
        }
      ],
      "name": "EnableInvestor",
      "type": "event"
    },
    {
      "anonymous": false,
      "inputs": [
        {
          "indexed": false,
          "internalType": "uint64",
          "name": "version",
          "type": "uint64"
        }
      ],
      "name": "Initialized",
      "type": "event"
    },
    {
      "anonymous": false,
      "inputs": [
        {
          "indexed": true,
          "internalType": "address",
          "name": "creator",
          "type": "address"
        },
        {
          "indexed": false,
          "internalType": "string",
          "name": "name",
          "type": "string"
        },
        {
          "indexed": false,
          "internalType": "string",
          "name": "isin",
          "type": "string"
        }
      ],
      "name": "NewBondDrafted",
      "type": "event"
    },
    {
      "anonymous": false,
      "inputs": [
        {
          "indexed": true,
          "internalType": "address",
          "name": "sender",
          "type": "address"
        },
        {
          "indexed": true,
          "internalType": "address",
          "name": "target",
          "type": "address"
        },
        {
          "indexed": false,
          "internalType": "string",
          "name": "message",
          "type": "string"
        }
      ],
      "name": "PublicMessage",
      "type": "event"
    },
    {
      "anonymous": false,
      "inputs": [
        {
          "indexed": true,
          "internalType": "address",
          "name": "emiter",
          "type": "address"
        },
        {
          "indexed": false,
          "internalType": "string",
          "name": "name",
          "type": "string"
        },
        {
          "indexed": false,
          "internalType": "string",
          "name": "isin",
          "type": "string"
        },
        {
          "indexed": false,
          "internalType": "enum IRegisterMetadataInternal.Status",
          "name": "status",
          "type": "uint8"
        }
      ],
      "name": "RegisterStatusChanged",
      "type": "event"
    },
    {
      "anonymous": false,
      "inputs": [
        {
          "indexed": true,
          "internalType": "bytes32",
          "name": "role",
          "type": "bytes32"
        },
        {
          "indexed": true,
          "internalType": "bytes32",
          "name": "previousAdminRole",
          "type": "bytes32"
        },
        {
          "indexed": true,
          "internalType": "bytes32",
          "name": "newAdminRole",
          "type": "bytes32"
        }
      ],
      "name": "RoleAdminChanged",
      "type": "event"
    },
    {
      "anonymous": false,
      "inputs": [
        {
          "indexed": true,
          "internalType": "bytes32",
          "name": "role",
          "type": "bytes32"
        },
        {
          "indexed": true,
          "internalType": "address",
          "name": "account",
          "type": "address"
        },
        {
          "indexed": true,
          "internalType": "address",
          "name": "sender",
          "type": "address"
        }
      ],
      "name": "RoleGranted",
      "type": "event"
    },
    {
      "anonymous": false,
      "inputs": [
        {
          "indexed": true,
          "internalType": "bytes32",
          "name": "role",
          "type": "bytes32"
        },
        {
          "indexed": true,
          "internalType": "address",
          "name": "account",
          "type": "address"
        },
        {
          "indexed": true,
          "internalType": "address",
          "name": "sender",
          "type": "address"
        }
      ],
      "name": "RoleRevoked",
      "type": "event"
    },
    {
      "anonymous": false,
      "inputs": [
        {
          "indexed": false,
          "internalType": "uint256",
          "name": "id",
          "type": "uint256"
        }
      ],
      "name": "Snapshot",
      "type": "event"
    },
    {
      "anonymous": false,
      "inputs": [
        {
          "indexed": true,
          "internalType": "uint256",
          "name": "couponDate",
          "type": "uint256"
        },
        {
          "indexed": true,
          "internalType": "uint256",
          "name": "currentTimestamp",
          "type": "uint256"
        },
        {
          "indexed": true,
          "internalType": "uint256",
          "name": "nextTimestamp",
          "type": "uint256"
        }
      ],
      "name": "SnapshotTimestampChange",
      "type": "event"
    },
    {
      "anonymous": false,
      "inputs": [
        {
          "indexed": true,
          "internalType": "address",
          "name": "from",
          "type": "address"
        },
        {
          "indexed": true,
          "internalType": "address",
          "name": "to",
          "type": "address"
        },
        {
          "indexed": false,
          "internalType": "uint256",
          "name": "value",
          "type": "uint256"
        }
      ],
      "name": "Transfer",
      "type": "event"
    },
    {
      "anonymous": false,
      "inputs": [
        {
          "indexed": true,
          "internalType": "address",
          "name": "toBeAdded",
          "type": "address"
        }
      ],
      "name": "WalletAddedToWhitelist",
      "type": "event"
    },
    {
      "anonymous": false,
      "inputs": [
        {
          "indexed": true,
          "internalType": "address",
          "name": "toBeDeleted",
          "type": "address"
        }
      ],
      "name": "WalletDeletedFromWhitelist",
      "type": "event"
    },
    {
      "inputs": [],
      "name": "BND_ROLE",
      "outputs": [
        {
          "internalType": "bytes32",
          "name": "",
          "type": "bytes32"
        }
      ],
      "stateMutability": "view",
      "type": "function"
    },
    {
      "inputs": [],
      "name": "CAK_ROLE",
      "outputs": [
        {
          "internalType": "bytes32",
          "name": "",
          "type": "bytes32"
        }
      ],
      "stateMutability": "view",
      "type": "function"
    },
    {
      "inputs": [],
      "name": "CST_ROLE",
      "outputs": [
        {
          "internalType": "bytes32",
          "name": "",
          "type": "bytes32"
        }
      ],
      "stateMutability": "view",
      "type": "function"
    },
    {
      "inputs": [],
      "name": "PAY_ROLE",
      "outputs": [
        {
          "internalType": "bytes32",
          "name": "",
          "type": "bytes32"
        }
      ],
      "stateMutability": "view",
      "type": "function"
    },
    {
      "inputs": [
        {
          "internalType": "uint256",
          "name": "_couponDate",
          "type": "uint256"
        }
      ],
      "name": "_totalSupplyAtCoupon",
      "outputs": [
        {
          "internalType": "uint256",
          "name": "",
          "type": "uint256"
        }
      ],
      "stateMutability": "view",
      "type": "function"
    },
    {
      "inputs": [
        {
          "internalType": "address",
          "name": "holder",
          "type": "address"
        },
        {
          "internalType": "address",
          "name": "spender",
          "type": "address"
        }
      ],
      "name": "allowance",
      "outputs": [
        {
          "internalType": "uint256",
          "name": "",
          "type": "uint256"
        }
      ],
      "stateMutability": "view",
      "type": "function"
    },
    {
      "inputs": [
        {
          "internalType": "address",
          "name": "spender",
          "type": "address"
        },
        {
          "internalType": "uint256",
          "name": "amount",
          "type": "uint256"
        }
      ],
      "name": "approve",
      "outputs": [
        {
          "internalType": "bool",
          "name": "",
          "type": "bool"
        }
      ],
      "stateMutability": "nonpayable",
      "type": "function"
    },
    {
      "inputs": [
        {
          "internalType": "address",
          "name": "account",
          "type": "address"
        }
      ],
      "name": "balanceOf",
      "outputs": [
        {
          "internalType": "uint256",
          "name": "",
          "type": "uint256"
        }
      ],
      "stateMutability": "view",
      "type": "function"
    },
    {
      "inputs": [
        {
          "internalType": "address",
          "name": "account",
          "type": "address"
        },
        {
          "internalType": "uint256",
          "name": "snapshotId",
          "type": "uint256"
        }
      ],
      "name": "balanceOfAt",
      "outputs": [
        {
          "internalType": "uint256",
          "name": "",
          "type": "uint256"
        }
      ],
      "stateMutability": "view",
      "type": "function"
    },
    {
      "inputs": [],
      "name": "couponDate",
      "outputs": [
        {
          "internalType": "uint256",
          "name": "",
          "type": "uint256"
        }
      ],
      "stateMutability": "view",
      "type": "function"
    },
    {
      "inputs": [],
      "name": "cutOfTime",
      "outputs": [
        {
          "internalType": "uint256",
          "name": "",
          "type": "uint256"
        }
      ],
      "stateMutability": "view",
      "type": "function"
    },
    {
      "inputs": [],
      "name": "decimals",
      "outputs": [
        {
          "internalType": "uint8",
          "name": "",
          "type": "uint8"
        }
      ],
      "stateMutability": "view",
      "type": "function"
    },
    {
      "inputs": [
        {
          "internalType": "address",
          "name": "_investor",
          "type": "address"
        }
      ],
      "name": "getInvestorPayments",
      "outputs": [
        {
          "internalType": "enum ICouponInternal.PaymentStatus",
          "name": "",
          "type": "uint8"
        }
      ],
      "stateMutability": "view",
      "type": "function"
    },
    {
      "inputs": [
        {
          "internalType": "address",
          "name": "_investor",
          "type": "address"
        }
      ],
      "name": "getPaymentAmountForInvestor",
      "outputs": [
        {
          "internalType": "uint256",
          "name": "paymentAmount",
          "type": "uint256"
        }
      ],
      "stateMutability": "view",
      "type": "function"
    },
    {
      "inputs": [
        {
          "internalType": "bytes32",
          "name": "role",
          "type": "bytes32"
        }
      ],
      "name": "getRoleAdmin",
      "outputs": [
        {
          "internalType": "bytes32",
          "name": "",
          "type": "bytes32"
        }
      ],
      "stateMutability": "view",
      "type": "function"
    },
    {
      "inputs": [
        {
          "internalType": "bytes32",
          "name": "role",
          "type": "bytes32"
        },
        {
          "internalType": "uint256",
          "name": "index",
          "type": "uint256"
        }
      ],
      "name": "getRoleMember",
      "outputs": [
        {
          "internalType": "address",
          "name": "",
          "type": "address"
        }
      ],
      "stateMutability": "view",
      "type": "function"
    },
    {
      "inputs": [
        {
          "internalType": "bytes32",
          "name": "role",
          "type": "bytes32"
        }
      ],
      "name": "getRoleMemberCount",
      "outputs": [
        {
          "internalType": "uint256",
          "name": "",
          "type": "uint256"
        }
      ],
      "stateMutability": "view",
      "type": "function"
    },
    {
      "inputs": [],
      "name": "getTotalPaymentAmount",
      "outputs": [
        {
          "internalType": "uint256",
          "name": "paymentAmount",
          "type": "uint256"
        }
      ],
      "stateMutability": "view",
      "type": "function"
    },
    {
      "inputs": [
        {
          "internalType": "bytes32",
          "name": "role",
          "type": "bytes32"
        },
        {
          "internalType": "address",
          "name": "account",
          "type": "address"
        }
      ],
      "name": "grantRole",
      "outputs": [],
      "stateMutability": "nonpayable",
      "type": "function"
    },
    {
      "inputs": [
        {
          "internalType": "bytes32",
          "name": "role",
          "type": "bytes32"
        },
        {
          "internalType": "address",
          "name": "account",
          "type": "address"
        }
      ],
      "name": "hasRole",
      "outputs": [
        {
          "internalType": "bool",
          "name": "",
          "type": "bool"
        }
      ],
      "stateMutability": "view",
      "type": "function"
    },
    {
      "inputs": [
        {
          "internalType": "address",
          "name": "forwarder",
          "type": "address"
        }
      ],
      "name": "isTrustedForwarder",
      "outputs": [
        {
          "internalType": "bool",
          "name": "",
          "type": "bool"
        }
      ],
      "stateMutability": "view",
      "type": "function"
    },
    {
      "inputs": [],
      "name": "name",
      "outputs": [
        {
          "internalType": "string",
          "name": "",
          "type": "string"
        }
      ],
      "stateMutability": "view",
      "type": "function"
    },
    {
      "inputs": [],
      "name": "nbDays",
      "outputs": [
        {
          "internalType": "uint256",
          "name": "",
          "type": "uint256"
        }
      ],
      "stateMutability": "view",
      "type": "function"
    },
    {
      "inputs": [],
      "name": "payingAgent",
      "outputs": [
        {
          "internalType": "address",
          "name": "",
          "type": "address"
        }
      ],
      "stateMutability": "view",
      "type": "function"
    },
    {
      "inputs": [
        {
          "internalType": "address",
          "name": "_investor",
          "type": "address"
        }
      ],
      "name": "paymentIdForInvest",
      "outputs": [
        {
          "internalType": "bytes8",
          "name": "",
          "type": "bytes8"
        }
      ],
      "stateMutability": "view",
      "type": "function"
    },
    {
      "inputs": [],
      "name": "recordDate",
      "outputs": [
        {
          "internalType": "uint256",
          "name": "",
          "type": "uint256"
        }
      ],
      "stateMutability": "view",
      "type": "function"
    },
    {
      "inputs": [],
      "name": "rejectCoupon",
      "outputs": [],
      "stateMutability": "nonpayable",
      "type": "function"
    },
    {
      "inputs": [
        {
          "internalType": "bytes32",
          "name": "role",
          "type": "bytes32"
        }
      ],
      "name": "renounceRole",
      "outputs": [],
      "stateMutability": "nonpayable",
      "type": "function"
    },
    {
      "inputs": [
        {
          "internalType": "bytes32",
          "name": "role",
          "type": "bytes32"
        },
        {
          "internalType": "address",
          "name": "account",
          "type": "address"
        }
      ],
      "name": "revokeRole",
      "outputs": [],
      "stateMutability": "nonpayable",
      "type": "function"
    },
    {
      "inputs": [
        {
          "internalType": "uint256",
          "name": "recordDate_",
          "type": "uint256"
        },
        {
          "internalType": "uint256",
          "name": "cutOfTime_",
          "type": "uint256"
        }
      ],
      "name": "setCutOffTime",
      "outputs": [],
      "stateMutability": "nonpayable",
      "type": "function"
    },
    {
      "inputs": [],
      "name": "setDateAsCurrentCoupon",
      "outputs": [],
      "stateMutability": "nonpayable",
      "type": "function"
    },
    {
      "inputs": [
        {
          "internalType": "uint256",
          "name": "nbDays_",
          "type": "uint256"
        }
      ],
      "name": "setNbDays",
      "outputs": [],
      "stateMutability": "nonpayable",
      "type": "function"
    },
    {
      "inputs": [],
      "name": "symbol",
      "outputs": [
        {
          "internalType": "string",
          "name": "",
          "type": "string"
        }
      ],
      "stateMutability": "view",
      "type": "function"
    },
    {
      "inputs": [
        {
          "internalType": "address",
          "name": "_investor",
          "type": "address"
        }
      ],
      "name": "toggleCouponPayment",
      "outputs": [],
      "stateMutability": "nonpayable",
      "type": "function"
    },
    {
      "inputs": [],
      "name": "totalSupply",
      "outputs": [
        {
          "internalType": "uint256",
          "name": "",
          "type": "uint256"
        }
      ],
      "stateMutability": "view",
      "type": "function"
    },
    {
      "inputs": [
        {
          "internalType": "uint256",
          "name": "snapshotId",
          "type": "uint256"
        }
      ],
      "name": "totalSupplyAt",
      "outputs": [
        {
          "internalType": "uint256",
          "name": "",
          "type": "uint256"
        }
      ],
      "stateMutability": "view",
      "type": "function"
    },
    {
      "inputs": [
        {
          "internalType": "address",
          "name": "recipient",
          "type": "address"
        },
        {
          "internalType": "uint256",
          "name": "amount",
          "type": "uint256"
        }
      ],
      "name": "transfer",
      "outputs": [
        {
          "internalType": "bool",
          "name": "",
          "type": "bool"
        }
      ],
      "stateMutability": "nonpayable",
      "type": "function"
    },
    {
      "inputs": [
        {
          "internalType": "address",
          "name": "holder",
          "type": "address"
        },
        {
          "internalType": "address",
          "name": "recipient",
          "type": "address"
        },
        {
          "internalType": "uint256",
          "name": "amount",
          "type": "uint256"
        }
      ],
      "name": "transferFrom",
      "outputs": [
        {
          "internalType": "bool",
          "name": "",
          "type": "bool"
        }
      ],
      "stateMutability": "nonpayable",
      "type": "function"
    },
    {
      "inputs": [],
      "name": "trustedForwarder",
      "outputs": [
        {
          "internalType": "address",
          "name": "",
          "type": "address"
        }
      ],
      "stateMutability": "view",
      "type": "function"
    }
  ],
  "bytecode": "0x608060405234801561000f575f80fd5b50613c868061001d5f395ff3fe608060405234801561000f575f80fd5b506004361061029d575f3560e01c806370a0823111610171578063a9059cbb116100d2578063d927a60611610088578063f4bcf2091161006e578063f4bcf209146105be578063f68a3ab4146105c6578063fd3b4442146105d9575f80fd5b8063d927a6061461058b578063dd62ed3e146105ab575f80fd5b8063ca15c873116100b8578063ca15c87314610552578063d547741f14610565578063d64c058714610578575f80fd5b8063a9059cbb14610537578063c4fa96b01461054a575f80fd5b80638bb9c5bf1161012757806391d148541161010d57806391d148541461050957806395d89b411461051c578063981b24d014610524575f80fd5b80638bb9c5bf146104e35780639010d07c146104f6575f80fd5b80637da0a877116101575780637da0a877146104a457806386d49f77146104b45780638865f1e2146104bc575f80fd5b806370a082311461047e5780637c61002414610491575f80fd5b8063313ce5671161021b578063532e91cc116101d15780635e4795a9116101b75780635e4795a9146104435780636969a06f1461046357806369fb125e1461046b575f80fd5b8063532e91cc146103ec578063572b6c0514610430575f80fd5b80633e0abded116102015780633e0abded146103be5780634ee2cd7e146103d157806350cc4532146103e4575f80fd5b8063313ce567146103895780633bf2a9f414610397575f80fd5b806323b872dd11610270578063248a9ca311610256578063248a9ca31461033a5780632682ac911461034d5780632f2ff15d14610374575f80fd5b806323b872dd1461031f57806323bfa0f014610332575f80fd5b806306fdde03146102a1578063095ea7b3146102bf57806318160ddd146102e25780631c67a363146102f8575b5f80fd5b6102a96105e1565b6040516102b69190613814565b60405180910390f35b6102d26102cd366004613861565b6105f0565b60405190151581526020016102b6565b6102ea61060c565b6040519081526020016102b6565b6102ea7f6ba6f588bcdc2df8426603a466c98ab15e79f7fb7f37b53581ce39c1d01b724981565b6102d261032d366004613889565b610635565b6102ea61064b565b6102ea6103483660046138c2565b610654565b6102ea7ff698af62c65280e4949bceec64b760f3b7738217cbc536cdfc4c9463676b05c281565b6103876103823660046138d9565b610689565b005b6040515f81526020016102b6565b6102ea7fd7aa2ddfa4e381128202bf365b7e0a176f2fca6cdf2f23c2b0a6f4393769589081565b6102ea6103cc3660046138c2565b6106d1565b6102ea6103df366004613861565b61073e565b6102ea610749565b6103ff6103fa366004613903565b610772565b6040517fffffffffffffffff00000000000000000000000000000000000000000000000090911681526020016102b6565b6102d261043e366004613903565b6107c0565b61044b6107d6565b6040516001600160a01b0390911681526020016102b6565b610387610808565b6102ea610479366004613903565b610812565b6102ea61048c366004613903565b61081c565b61038761049f3660046138c2565b610858565b5f546001600160a01b031661044b565b6102ea610864565b6102ea7fa75205b8583660bdad375c0ccde11af17668d76a408a9a5e739251b0f7c5987081565b6103876104f13660046138c2565b61086d565b61044b61050436600461391c565b610876565b6102d26105173660046138d9565b610881565b6102a961088c565b6102ea6105323660046138c2565b610896565b6102d2610545366004613861565b6108a0565b6102ea6108b3565b6102ea6105603660046138c2565b6108c9565b6103876105733660046138d9565b6108d3565b610387610586366004613903565b610916565b61059e610599366004613903565b61091f565b6040516102b69190613964565b6102ea6105b9366004613972565b61095e565b6103876109a9565b6103876105d436600461391c565b6109b1565b6102ea6109bf565b60606105eb6109e8565b905090565b5f6106036105fc610abb565b8484610ac4565b90505b92915050565b5f6105eb7fbbbdc1476a0878f2ef9a893c81f5b6f6ea1b3acaf18ff47ccb69cd4267d50c885490565b5f610641848484610bca565b90505b9392505050565b5f6105eb611055565b5f8181527f2e59e4c2e927cdddbb64e181e0668d9a0fa70dd88f94d999cd87d5496a20da626020526040812060020154610606565b5f8281527f2e59e4c2e927cdddbb64e181e0668d9a0fa70dd88f94d999cd87d5496a20da6260205260409020600201546106c281611123565b6106cc8383611134565b505050565b5f8181527f82e3548f398f9e7cce2049e6d440fc95dbd73177a40ca0c3ab538364268d38136020819052604082205480156107175761070f816112eb565b949350505050565b7fbbbdc1476a0878f2ef9a893c81f5b6f6ea1b3acaf18ff47ccb69cd4267d50c885461070f565b5f6106038383611348565b5f6105eb7f327590220344b9989a7d63651c5a6426042f376a5d2b3449b461828bd719ca725490565b5f610606826040516bffffffffffffffffffffffff1930606090811b8216602084015283901b1660348201525f90604801604051602081830303815290604052805190602001209050919050565b5f80546001600160a01b03838116911614610606565b5f6105eb7f327590220344b9989a7d63651c5a6426042f376a5d2b3449b461828bd719ca74546001600160a01b031690565b6108106113dd565b565b5f6106068261168f565b6001600160a01b0381165f9081527fbbbdc1476a0878f2ef9a893c81f5b6f6ea1b3acaf18ff47ccb69cd4267d50c866020526040812054610606565b61086181611743565b50565b5f6105eb61188c565b610861816118a7565b5f61060383836118b8565b5f61060383836118ee565b60606105eb611924565b5f610606826112eb565b5f6106036108ac610abb565b8484611975565b5f6105eb5f80516020613c318339815191525490565b5f61060682611b0b565b5f8281527f2e59e4c2e927cdddbb64e181e0668d9a0fa70dd88f94d999cd87d5496a20da62602052604090206002015461090c81611123565b6106cc8383611b40565b61086181611cea565b6001600160a01b0381165f9081527f327590220344b9989a7d63651c5a6426042f376a5d2b3449b461828bd719ca77602052604081205460ff16610606565b6001600160a01b038083165f9081527fbbbdc1476a0878f2ef9a893c81f5b6f6ea1b3acaf18ff47ccb69cd4267d50c8760209081526040808320938516835292905290812054610603565b6108106122af565b6109bb8282612393565b5050565b5f6105eb7f327590220344b9989a7d63651c5a6426042f376a5d2b3449b461828bd719ca735490565b7f92772e537111f1c0e21a798208f79a3cb145ed385207d668c0a82bb719db43b780546060917f92772e537111f1c0e21a798208f79a3cb145ed385207d668c0a82bb719db43b691610a399061399a565b80601f0160208091040260200160405190810160405280929190818152602001828054610a659061399a565b8015610ab05780601f10610a8757610100808354040283529160200191610ab0565b820191905f5260205f20905b815481529060010190602001808311610a9357829003601f168201915b505050505091505090565b5f6105eb612506565b5f6001600160a01b038416610b05576040517f5a68b7ab00000000000000000000000000000000000000000000000000000000815260040160405180910390fd5b6001600160a01b038316610b45576040517fc524160000000000000000000000000000000000000000000000000000000000815260040160405180910390fd5b6001600160a01b038481165f8181527fbbbdc1476a0878f2ef9a893c81f5b6f6ea1b3acaf18ff47ccb69cd4267d50c876020908152604080832094881680845294825291829020869055815186815291517f8c5be1e5ebec7d5bd14f71427d1e84f3dd0314c0f7b2291e5b200ac8c7c3b9259281900390910190a35060019392505050565b5f7f92772e537111f1c0e21a798208f79a3cb145ed385207d668c0a82bb719db43b6610c1d7fa75205b8583660bdad375c0ccde11af17668d76a408a9a5e739251b0f7c59870610c18610abb565b6118ee565b15610c3857610c2d858585611975565b506001915050610644565b610c48610c43610abb565b61250f565b610c995760405162461bcd60e51b815260206004820181905260248201527f5468697320636f6e7472616374206973206e6f742077686974656c697374656460448201526064015b60405180910390fd5b6004815460ff166004811115610cb157610cb161393c565b03610d245760405162461bcd60e51b815260206004820152603360248201527f4e6f207472616e736665722063616e20626520646f6e65207768656e2074686560448201527f2072656769737465722069732046726f7a656e000000000000000000000000006064820152608401610c90565b6001815460ff166004811115610d3c57610d3c61393c565b148015610d6e5750610d6e7ff698af62c65280e4949bceec64b760f3b7738217cbc536cdfc4c9463676b05c2856118ee565b8015610d895750600c8101546001600160a01b038681169116145b15610eea578054600260ff19909116811782557f92772e537111f1c0e21a798208f79a3cb145ed385207d668c0a82bb719db43c4805460018181019092557f85557345690608b4957b188f871bab8ded927f8a43545ebad43d0b58c8dda445810180546001600160a01b0389167fffffffffffffffffffffffff000000000000000000000000000000000000000091821681179092555f8281527f92772e537111f1c0e21a798208f79a3cb145ed385207d668c0a82bb719db43c36020526040902093840192909255825493830180549092169091557fffffffffffffffffffffff0000000000000000000000000000000000000000009092169091179055610e90610abb565b81546040516001600160a01b0392909216917fda2010acfda7a262372331cb3b57e3f648f63eb009a423a2b5602cfa4f9bff5191610edd916001860191600287019160ff90911690613a71565b60405180910390a261104a565b610f31846001600160a01b03165f9081527f92772e537111f1c0e21a798208f79a3cb145ed385207d668c0a82bb719db43c36020526040902054600160a01b900460ff1690565b1515600114610f825760405162461bcd60e51b815260206004820152601b60248201527f546865207265636569766572206973206e6f7420616c6c6f77656400000000006044820152606401610c90565b610fc9856001600160a01b03165f9081527f92772e537111f1c0e21a798208f79a3cb145ed385207d668c0a82bb719db43c36020526040902054600160a01b900460ff1690565b151560011480610ffe5750610ffe7ff698af62c65280e4949bceec64b760f3b7738217cbc536cdfc4c9463676b05c2866118ee565b61104a5760405162461bcd60e51b815260206004820152601960248201527f5468652073656e646572206973206e6f7420616c6c6f776564000000000000006044820152606401610c90565b610c2d858585611975565b5f5f80516020613c318339815191528161108d7f92772e537111f1c0e21a798208f79a3cb145ed385207d668c0a82bb719db43bb5490565b90505f6110b87f92772e537111f1c0e21a798208f79a3cb145ed385207d668c0a82bb719db43bc5490565b90505f6110e37fbbbdc1476a0878f2ef9a893c81f5b6f6ea1b3acaf18ff47ccb69cd4267d50c885490565b90505f61016885600101548484876110fb9190613aca565b6111059190613aca565b61110f9190613aca565b6111199190613af5565b9695505050505050565b6108618161112f610abb565b612554565b816111925760405162461bcd60e51b8152602060048201526024808201527f5573652066756e6374696f6e206368616e676541646d696e526f6c6520696e736044820152631d19585960e21b6064820152608401610c90565b6112e1565b7fa75205b8583660bdad375c0ccde11af17668d76a408a9a5e739251b0f7c598708203611269576111e57fa75205b8583660bdad375c0ccde11af17668d76a408a9a5e739251b0f7c59870610c18610abb565b806111f757506111f75f610c18610abb565b61118d5760405162461bcd60e51b815260206004820152602e60248201527f43616c6c6572206d7573742062652043414b206f722041444d494e20746f207360448201527f657420616e6f746865722043414b0000000000000000000000000000000000006064820152608401610c90565b6112957fa75205b8583660bdad375c0ccde11af17668d76a408a9a5e739251b0f7c59870610c18610abb565b6112e15760405162461bcd60e51b815260206004820181905260248201527f43616c6c6572206d7573742062652043414b20746f20736574206120726f6c656044820152606401610c90565b6109bb82826125b6565b5f8080611318847fcd7a55ef023eb5931cc022a9bdc64cb5b46c3a6e53bcaa84915eea6084f1c7b5612639565b9150915081610644577fbbbdc1476a0878f2ef9a893c81f5b6f6ea1b3acaf18ff47ccb69cd4267d50c885461070f565b5f808061138d847fcd7a55ef023eb5931cc022a9bdc64cb5b46c3a6e53bcaa84915eea6084f1c7b46001600160a01b0388165f90815260209190915260409020612639565b91509150816113d2576001600160a01b0385165f9081527fbbbdc1476a0878f2ef9a893c81f5b6f6ea1b3acaf18ff47ccb69cd4267d50c8660205260409020546113d4565b805b95945050505050565b7f85e1ca0cb738650ceae09b8e7a40cba718d04131dd54b748289da0a916d2f32154600203611438576040517fbb6b8f9a00000000000000000000000000000000000000000000000000000000815260040160405180910390fd5b61146160027f85e1ca0cb738650ceae09b8e7a40cba718d04131dd54b748289da0a916d2f32155565b5f80516020613c3183398151915261147f61147a610abb565b612742565b6114dd5760405162461bcd60e51b815260206004820152602960248201527f53656e646572206d757374206265206120506179696e672063616c63756c61746044820152681a5bdb881859d95b9d60ba1b6064820152608401610c90565b7f327590220344b9989a7d63651c5a6426042f376a5d2b3449b461828bd719ca76545f80516020613c31833981519152905f9060ff1660048111156115245761152461393c565b146115a55760405162461bcd60e51b8152602060048201526044602482018190527f54686520636f75706f6e20646174652063616e206265206d6f64696669656420908201527f6f6e6c792069662074686520636f6e74726163742073746174757320697320446064820152631c98599d60e21b608482015260a401610c90565b80546115b09061276d565b6115fc5760405162461bcd60e51b815260206004820152601f60248201527f7468697320636f75706f6e4461746520646f6573206e6f7420657869737473006044820152606401610c90565b80546003820154600283015461161b929161161691613b08565b6127cb565b6116236128dc565b600582015560068101805460ff1916600190811790915581546040517fb18131f8b63e9a9d8f9d4165c9d5ccbba7fdac5803f7f45b42f97aa65486b827905f90a3505061081060017f85e1ca0cb738650ceae09b8e7a40cba718d04131dd54b748289da0a916d2f32155565b5f5f80516020613c31833981519152816116c77f92772e537111f1c0e21a798208f79a3cb145ed385207d668c0a82bb719db43bb5490565b90505f6116f27f92772e537111f1c0e21a798208f79a3cb145ed385207d668c0a82bb719db43bc5490565b90505f61170286855f0154612904565b90505f610168856001015484848761171a9190613aca565b6117249190613aca565b61172e9190613aca565b6117389190613af5565b979650505050505050565b5f80516020613c3183398151915261175c61147a610abb565b6117ba5760405162461bcd60e51b815260206004820152602960248201527f53656e646572206d757374206265206120506179696e672063616c63756c61746044820152681a5bdb881859d95b9d60ba1b6064820152608401610c90565b7f327590220344b9989a7d63651c5a6426042f376a5d2b3449b461828bd719ca76545f80516020613c31833981519152905f9060ff1660048111156118015761180161393c565b146118825760405162461bcd60e51b8152602060048201526044602482018190527f54686520636f75706f6e20646174652063616e206265206d6f64696669656420908201527f6f6e6c792069662074686520636f6e74726163742073746174757320697320446064820152631c98599d60e21b608482015260a401610c90565b6001019190915550565b5f805f80516020613c318339815191525b6001015492915050565b610861816118b3610abb565b611b40565b5f8281527f2e59e4c2e927cdddbb64e181e0668d9a0fa70dd88f94d999cd87d5496a20da62602052604081206106039083612988565b5f8281527f2e59e4c2e927cdddbb64e181e0668d9a0fa70dd88f94d999cd87d5496a20da62602052604081206106039083612993565b7f92772e537111f1c0e21a798208f79a3cb145ed385207d668c0a82bb719db43b880546060917f92772e537111f1c0e21a798208f79a3cb145ed385207d668c0a82bb719db43b691610a399061399a565b5f6001600160a01b0384166119b6576040517f68551d5f00000000000000000000000000000000000000000000000000000000815260040160405180910390fd5b6001600160a01b0383166119f6576040517f8289914400000000000000000000000000000000000000000000000000000000815260040160405180910390fd5b611a018484846129b4565b6001600160a01b0384165f9081527fbbbdc1476a0878f2ef9a893c81f5b6f6ea1b3acaf18ff47ccb69cd4267d50c86602081905260409091205480841115611a75576040517f7183160b00000000000000000000000000000000000000000000000000000000815260040160405180910390fd5b6001600160a01b038087165f90815260208490526040808220878503905591871681529081208054869290611aab908490613b08565b92505081905550846001600160a01b0316866001600160a01b03167fddf252ad1be2c89b69c2b068fc378daa952ba7f163c4a11628f55a4df523b3ef86604051611af791815260200190565b60405180910390a350600195945050505050565b5f8181527f2e59e4c2e927cdddbb64e181e0668d9a0fa70dd88f94d999cd87d5496a20da626020526040812061060690612b4d565b81611b995760405162461bcd60e51b8152602060048201526024808201527f5573652066756e6374696f6e206368616e676541646d696e526f6c6520696e736044820152631d19585960e21b6064820152608401610c90565b7fa75205b8583660bdad375c0ccde11af17668d76a408a9a5e739251b0f7c598708203611c4257611bcc5f610c18610abb565b611c3d5760405162461bcd60e51b8152602060048201526024808201527f43616c6c6572206d7573742062652041444d494e20746f2072656d6f7665206160448201527f2043414b000000000000000000000000000000000000000000000000000000006064820152608401610c90565b611ce0565b611c6e7fa75205b8583660bdad375c0ccde11af17668d76a408a9a5e739251b0f7c59870610c18610abb565b611ce05760405162461bcd60e51b815260206004820152602360248201527f43616c6c6572206d7573742062652043414b20746f2072656d6f76652061207260448201527f6f6c6500000000000000000000000000000000000000000000000000000000006064820152608401610c90565b6109bb8282612b56565b5f80516020613c31833981519152611d3f826001600160a01b03165f9081527f92772e537111f1c0e21a798208f79a3cb145ed385207d668c0a82bb719db43c36020526040902054600160a01b900460ff1690565b611d8b5760405162461bcd60e51b815260206004820152601c60248201527f5468697320696e766573746f72206973206e6f7420616c6c6f776564000000006044820152606401610c90565b6001600682015460ff166004811115611da657611da661393c565b14611e195760405162461bcd60e51b815260206004820152602860248201527f54686520737461747573206f662074686520636f75706f6e2073686f756c642060448201527f62652052656164790000000000000000000000000000000000000000000000006064820152608401610c90565b6001600160a01b0382165f90815260078201602052604090205460ff16611e46611e41610abb565b612bd9565b15611ff2576001600160a01b0383165f90815260078301602052604081205460ff166002811115611e7957611e7961393c565b03611f275781600501544211611ef75760405162461bcd60e51b815260206004820152602560248201527f74686520636f75706f6e20637574206f662074696d6520686173206e6f74207060448201527f61737365640000000000000000000000000000000000000000000000000000006064820152608401610c90565b6001600160a01b0383165f908152600783016020526040902080546001919060ff191682805b021790555061224c565b60016001600160a01b0384165f90815260078401602052604090205460ff166002811115611f5757611f5761393c565b03611f82576001600160a01b0383165f9081526007830160205260409020805460ff1916905561224c565b6040805162461bcd60e51b81526020600482015260248101919091527f54686520737461747573206f66207468697320696e766573746f72277320706160448201527f796d656e742073686f756c642062652050616964206f7220546f4265506169646064820152608401610c90565b612002611ffd610abb565b612c04565b156121de5761200f610abb565b6001600160a01b031661205b846001600160a01b039081165f9081527f92772e537111f1c0e21a798208f79a3cb145ed385207d668c0a82bb719db43c360205260409020600201541690565b6001600160a01b0316146120d75760405162461bcd60e51b815260206004820152602660248201527f596f7520617265206e6f7420637573746f6469616e206f66207468697320696e60448201527f766573746f7200000000000000000000000000000000000000000000000000006064820152608401610c90565b60016001600160a01b0384165f90815260078401602052604090205460ff1660028111156121075761210761393c565b03612137576001600160a01b0383165f908152600783016020526040902080546002919060ff1916600183611f1d565b60026001600160a01b0384165f90815260078401602052604090205460ff1660028111156121675761216761393c565b03612196576001600160a01b0383165f908152600783016020526040902080546001919060ff19168280611f1d565b60405162461bcd60e51b815260206004820152601d60248201527f496e76616c696420436f75706f6e207061796d656e74207374617475730000006044820152606401610c90565b60405162461bcd60e51b815260206004820152603260248201527f73656e646572206d7573742062652043656e7472616c204163636f756e74204b60448201527f6565706572206f7220437573746f6469616e00000000000000000000000000006064820152608401610c90565b81546001600160a01b0384165f818152600785016020526040908190205490519192917fba5ea04ebdbac6720edd436c98aa49dd7714b93ac90ec8aed4ddb03f673bdeb8916122a29160ff909116908690613b1b565b60405180910390a3505050565b5f80516020613c318339815191526122c861147a610abb565b6123265760405162461bcd60e51b815260206004820152602960248201527f53656e646572206d757374206265206120506179696e672063616c63756c61746044820152681a5bdb881859d95b9d60ba1b6064820152608401610c90565b7f327590220344b9989a7d63651c5a6426042f376a5d2b3449b461828bd719ca768054600260ff1990911681179091555f80516020613c318339815191529081546040517fb18131f8b63e9a9d8f9d4165c9d5ccbba7fdac5803f7f45b42f97aa65486b827905f90a35050565b5f80516020613c318339815191526123ac61147a610abb565b61240a5760405162461bcd60e51b815260206004820152602960248201527f53656e646572206d757374206265206120506179696e672063616c63756c61746044820152681a5bdb881859d95b9d60ba1b6064820152608401610c90565b7f327590220344b9989a7d63651c5a6426042f376a5d2b3449b461828bd719ca76545f80516020613c31833981519152905f9060ff1660048111156124515761245161393c565b146124d25760405162461bcd60e51b8152602060048201526044602482018190527f54686520636f75706f6e20646174652063616e206265206d6f64696669656420908201527f6f6e6c792069662074686520636f6e74726163742073746174757320697320446064820152631c98599d60e21b608482015260a401610c90565b6124df6201518085613b36565b6124e99085613b49565b60028201556124fb6201518084613b36565b600390910155505050565b5f6105eb612c2f565b5f7fad23b20a8d3b04b57ac5eefbd00cb491b7ef4801d0b23a5da6c241252ca912ce8161253b84612c61565b5f90815260209290925250604090205460ff1692915050565b61255e82826118ee565b6109bb57612574816001600160a01b0316612c91565b61257f836020612ca3565b604051602001612590929190613b5c565b60408051601f198184030181529082905262461bcd60e51b8252610c9091600401613814565b5f8281527f2e59e4c2e927cdddbb64e181e0668d9a0fa70dd88f94d999cd87d5496a20da62602052604090206125ec9082612e4e565b506125f5610abb565b6001600160a01b0316816001600160a01b0316837f2f8788117e7eff1d82e926ec794901d17c78024a50270940304540a733656f0d60405160405180910390a45050565b5f80835f03612674576040517f6e6ae24700000000000000000000000000000000000000000000000000000000815260040160405180910390fd5b7fcd7a55ef023eb5931cc022a9bdc64cb5b46c3a6e53bcaa84915eea6084f1c7b7547fcd7a55ef023eb5931cc022a9bdc64cb5b46c3a6e53bcaa84915eea6084f1c7b4908511156126f1576040517f3609372a00000000000000000000000000000000000000000000000000000000815260040160405180910390fd5b5f6126fc8587612e62565b85549091508103612714575f8093509350505061273b565b600185600101828154811061272b5761272b613bdc565b905f5260205f2001549350935050505b9250929050565b5f6106067fd7aa2ddfa4e381128202bf365b7e0a176f2fca6cdf2f23c2b0a6f43937695890836118ee565b5f7f92772e537111f1c0e21a798208f79a3cb145ed385207d668c0a82bb719db43b68161279984612f04565b91505080156127ac575060019392505050565b60098201548490036127c2575060019392505050565b505f9392505050565b6127d6610c43610abb565b6128225760405162461bcd60e51b815260206004820181905260248201527f5468697320636f6e7472616374206973206e6f742077686974656c69737465646044820152606401610c90565b8161283082620d2f00613b08565b116128c95760405162461bcd60e51b815260206004820152604160248201527f496e636f6e73697374656e74207265636f72642064617465206d6f726520746860448201527f616e2031302064617973206265666f726520736574746c656d656e742064617460648201527f6500000000000000000000000000000000000000000000000000000000000000608482015260a401610c90565b6109bb82826128d785612fb9565b613074565b5f807f82e3548f398f9e7cce2049e6d440fc95dbd73177a40ca0c3ab538364268d381361189d565b5f8181527f82e3548f398f9e7cce2049e6d440fc95dbd73177a40ca0c3ab538364268d381360208190526040822054801561294c576129438582611348565b92505050610606565b6001600160a01b0385165f9081527fbbbdc1476a0878f2ef9a893c81f5b6f6ea1b3acaf18ff47ccb69cd4267d50c866020526040902054612943565b5f6106038383613302565b6001600160a01b0381165f9081526001830160205260408120541515610603565b7f82e3548f398f9e7cce2049e6d440fc95dbd73177a40ca0c3ab538364268d3817547f82e3548f398f9e7cce2049e6d440fc95dbd73177a40ca0c3ab538364268d38139060ff1615612a115760048101805460ff19169055612b33565b5f816001015411612ab05760405162461bcd60e51b815260206004820152604f60248201527f746865207265676973746572206973206c6f636b65642062656361757365206e60448201527f6f20636f75706f6e206973207072657061726564206f7220746865206d61747560648201527f7269747920697320726561636865640000000000000000000000000000000000608482015260a401610c90565b80600101544210612b33575f816002015411612b335760405162461bcd60e51b8152602060048201526024808201527f746865206d61747572697479206375742d6f66662074696d652068617320706160448201527f73736564000000000000000000000000000000000000000000000000000000006064820152608401610c90565b612b3b613363565b50612b47848484613479565b50505050565b5f610606825490565b5f8281527f2e59e4c2e927cdddbb64e181e0668d9a0fa70dd88f94d999cd87d5496a20da6260205260409020612b8c90826134c1565b50612b95610abb565b6001600160a01b0316816001600160a01b0316837ff6391f5c32d9c69d2a47ea670b442974b53935d1edc7fd64eb21e047a839171b60405160405180910390a45050565b5f6106067fa75205b8583660bdad375c0ccde11af17668d76a408a9a5e739251b0f7c59870836118ee565b5f6106067f6ba6f588bcdc2df8426603a466c98ab15e79f7fb7f37b53581ce39c1d01b7249836118ee565b5f80546001600160a01b031633148015612c4a575060143610155b15612c5c575060131936013560601c90565b503390565b60408051603f833b908101601f191682019092528181525f91808360208401863c50805160209091012092915050565b60606106066001600160a01b03831660145b60605f612cb1836002613aca565b612cbc906002613b08565b67ffffffffffffffff811115612cd457612cd4613bf0565b6040519080825280601f01601f191660200182016040528015612cfe576020820181803683370190505b5090507f3000000000000000000000000000000000000000000000000000000000000000815f81518110612d3457612d34613bdc565b60200101906001600160f81b03191690815f1a9053507f780000000000000000000000000000000000000000000000000000000000000081600181518110612d7e57612d7e613bdc565b60200101906001600160f81b03191690815f1a905350600160028402015b6001811115612e15577f303132333435363738396162636465660000000000000000000000000000000085600f1660108110612dda57612dda613bdc565b1a60f81b828281518110612df057612df0613bdc565b60200101906001600160f81b03191690815f1a90535060049490941c935f1901612d9c565b508315610603576040517fc913478500000000000000000000000000000000000000000000000000000000815260040160405180910390fd5b5f610603836001600160a01b0384166134d5565b81545f908103612e7357505f610606565b82545f905b80821015612ec4575f81831682841860011c01905084868281548110612ea057612ea0613bdc565b905f5260205f2001541115612eb757809150612ebe565b8060010192505b50612e78565b5f82118015612eef575083856001840381548110612ee457612ee4613bdc565b905f5260205f200154145b612ef957816113d4565b505f19019392505050565b5f807f92772e537111f1c0e21a798208f79a3cb145ed385207d668c0a82bb719db43b6815b600a820154811015612fab5784826001016009018281548110612f4e57612f4e613bdc565b905f5260205f20015403612f6757946001945092505050565b84826001016009018281548110612f8057612f80613bdc565b905f5260205f2001541115612f9957945f945092505050565b80612fa381613c04565b915050612f29565b50600a0154935f9350915050565b5f7f92772e537111f1c0e21a798208f79a3cb145ed385207d668c0a82bb719db43b6815b600a8201548110156127c2578382600101600901828154811061300257613002613bdc565b905f5260205f2001540361306257600a820154613020826001613b08565b101561305757600a8201613035826001613b08565b8154811061304557613045613bdc565b905f5260205f20015492505050919050565b506009015492915050565b8061306c81613c04565b915050612fdd565b5f61307f835f613516565b9050838111156130f75760405162461bcd60e51b815260206004820152603360248201527f746865207265636f726420646174652063616e6e6f742062652061667465722060448201527f74686520736574746c656d656e742064617465000000000000000000000000006064820152608401610c90565b81158061310357508382115b6131755760405162461bcd60e51b815260206004820152603c60248201527f696e76616c6964206e6578742064617465207768656e2073657474696e67207460448201527f68652063757272656e7420736e617073686f74206461746574696d65000000006064820152608401610c90565b7f82e3548f398f9e7cce2049e6d440fc95dbd73177a40ca0c3ab538364268d38135f6131a18682613516565b90508380156131b7576131b48187613516565b90505b5f82815260208490526040902054156132385760405162461bcd60e51b815260206004820152602860248201527f44617465206f6620636f75706f6e206f72206d6174757269747920616c72656160448201527f64792074616b656e0000000000000000000000000000000000000000000000006064820152608401610c90565b8542106132ad5760405162461bcd60e51b815260206004820152603d60248201527f796f75206861766520746f20646566696e652061206e657720706572696f642060448201527f656e64696e67206166746572207468652063757272656e742074696d650000006064820152608401610c90565b6132b5613363565b506001830186905560038301829055600283018190556040518190879084907f4d1d74d5cbfc13e02ef05af3a30d8721e87a00d20bc3dc42198917139944def3905f90a450505050505050565b81545f90821061333e576040517fe637bf3b00000000000000000000000000000000000000000000000000000000815260040160405180910390fd5b825f01828154811061335257613352613bdc565b905f5260205f200154905092915050565b7f82e3548f398f9e7cce2049e6d440fc95dbd73177a40ca0c3ab538364268d3814545f907f82e3548f398f9e7cce2049e6d440fc95dbd73177a40ca0c3ab538364268d381390158015906133c7575060038101545f90815260208290526040902054155b80156133d7575080600101544210155b15613472575f6133e561354c565b60038301545f908152602084905260409020819055600283015490915061340c575f61341e565b61341e82600201548360010154613516565b6001830181905561342f905f613516565b6003830181905560028301546001840154604051919290917f4d1d74d5cbfc13e02ef05af3a30d8721e87a00d20bc3dc42198917139944def3905f90a492915050565b5f91505090565b6001600160a01b03831661349857613490826135e1565b6106cc613651565b6001600160a01b0382166134af57613490836135e1565b6134b8826135e1565b6106cc836135e1565b5f610603836001600160a01b03841661369d565b5f81815260018301602052604081205461060657508154600180820184555f8481526020808220909301849055845493815293810190915260409092205590565b5f806135256201518085613b36565b90506135318185613b49565b91506135406201518084613b36565b905061070f8183613b08565b7fcd7a55ef023eb5931cc022a9bdc64cb5b46c3a6e53bcaa84915eea6084f1c7b780545f917fcd7a55ef023eb5931cc022a9bdc64cb5b46c3a6e53bcaa84915eea6084f1c7b491908361359e83613c04565b909155505060038101546040518181527f8030e83b04d87bef53480e26263266d6ca66863aa8506aca6f2559d18aa1cb679060200160405180910390a192915050565b6001600160a01b0381165f9081527fcd7a55ef023eb5931cc022a9bdc64cb5b46c3a6e53bcaa84915eea6084f1c7b4602090815260408083207fbbbdc1476a0878f2ef9a893c81f5b6f6ea1b3acaf18ff47ccb69cd4267d50c86909252909120546108619190613755565b613755565b6108107fcd7a55ef023eb5931cc022a9bdc64cb5b46c3a6e53bcaa84915eea6084f1c7b561364c7fbbbdc1476a0878f2ef9a893c81f5b6f6ea1b3acaf18ff47ccb69cd4267d50c885490565b5f818152600183016020526040812054801561374e5783545f9085905f1981019081106136cc576136cc613bdc565b905f5260205f200154905080855f0160018403815481106136ef576136ef613bdc565b5f91825260208083209091019290925591825260018601905260409020819055835484908061372057613720613c1c565b600190038181905f5260205f20015f90559055836001015f8481526020019081526020015f205f9055600191505b5092915050565b7fcd7a55ef023eb5931cc022a9bdc64cb5b46c3a6e53bcaa84915eea6084f1c7b75480613781846137b4565b10156106cc578254600180820185555f858152602080822090930193909355938401805494850181558252902090910155565b80545f90156137eb57815482906137cd90600190613b49565b815481106137dd576137dd613bdc565b905f5260205f200154610606565b5f92915050565b5f5b8381101561380c5781810151838201526020016137f4565b50505f910152565b602081525f82518060208401526138328160408501602087016137f2565b601f01601f19169190910160400192915050565b80356001600160a01b038116811461385c575f80fd5b919050565b5f8060408385031215613872575f80fd5b61387b83613846565b946020939093013593505050565b5f805f6060848603121561389b575f80fd5b6138a484613846565b92506138b260208501613846565b9150604084013590509250925092565b5f602082840312156138d2575f80fd5b5035919050565b5f80604083850312156138ea575f80fd5b823591506138fa60208401613846565b90509250929050565b5f60208284031215613913575f80fd5b61060382613846565b5f806040838503121561392d575f80fd5b50508035926020909101359150565b634e487b7160e01b5f52602160045260245ffd5b600381106139605761396061393c565b9052565b602081016106068284613950565b5f8060408385031215613983575f80fd5b61398c83613846565b91506138fa60208401613846565b600181811c908216806139ae57607f821691505b6020821081036139cc57634e487b7160e01b5f52602260045260245ffd5b50919050565b80545f90600181811c90808316806139eb57607f831692505b60208084108203613a0a57634e487b7160e01b5f52602260045260245ffd5b83885260208801828015613a255760018114613a3b57613a64565b60ff198716825285151560051b82019750613a64565b5f898152602090205f5b87811015613a5e57815484820152908601908401613a45565b83019850505b5050505050505092915050565b606081525f613a8360608301866139d2565b8281036020840152613a9581866139d2565b91505060058310613aa857613aa861393c565b826040830152949350505050565b634e487b7160e01b5f52601160045260245ffd5b808202811582820484141761060657610606613ab6565b634e487b7160e01b5f52601260045260245ffd5b5f82613b0357613b03613ae1565b500490565b8082018082111561060657610606613ab6565b60408101613b298285613950565b6106446020830184613950565b5f82613b4457613b44613ae1565b500690565b8181038181111561060657610606613ab6565b7f416363657373436f6e74726f6c3a206163636f756e742000000000000000000081525f8351613b938160178501602088016137f2565b7f206973206d697373696e6720726f6c65200000000000000000000000000000006017918401918201528351613bd08160288401602088016137f2565b01602801949350505050565b634e487b7160e01b5f52603260045260245ffd5b634e487b7160e01b5f52604160045260245ffd5b5f60018201613c1557613c15613ab6565b5060010190565b634e487b7160e01b5f52603160045260245ffdfe327590220344b9989a7d63651c5a6426042f376a5d2b3449b461828bd719ca70a2646970667358221220f38f2de2dbe1ffcb76e49e6d36d598de22aca2c42a6c3f17798e6054a638c32e64736f6c63430008140033",
  "linkReferences": {},
  "deployedLinkReferences": {}
}