{
  "_format": "hh-sol-artifact-1",
  "contractName": "DelegateInvestorManagement",
  "sourceName": "contracts/register/delegateInvestors/DelegateInvestorManagement.sol",
  "abi": [
    {
      "inputs": [],
      "name": "EnumerableSet__IndexOutOfBounds",
      "type": "error"
    },
    {
      "inputs": [],
      "name": "UintUtils__InsufficientHexLength",
      "type": "error"
    },
    {
      "anonymous": false,
      "inputs": [
        {
          "indexed": true,
          "internalType": "address",
          "name": "_addressForNewAdmin",
          "type": "address"
        }
      ],
      "name": "AdminChanged",
      "type": "event"
    },
    {
      "anonymous": false,
      "inputs": [
        {
          "indexed": true,
          "internalType": "address",
          "name": "custodian",
          "type": "address"
        },
        {
          "indexed": true,
          "internalType": "address",
          "name": "delegate",
          "type": "address"
        }
      ],
      "name": "CustodianDelegateSet",
      "type": "event"
    },
    {
      "anonymous": false,
      "inputs": [
        {
          "indexed": true,
          "internalType": "address",
          "name": "custodian",
          "type": "address"
        },
        {
          "indexed": true,
          "internalType": "address",
          "name": "delegate",
          "type": "address"
        }
      ],
      "name": "CustodianDelegateUnset",
      "type": "event"
    },
    {
      "anonymous": false,
      "inputs": [
        {
          "indexed": false,
          "internalType": "address",
          "name": "investor",
          "type": "address"
        }
      ],
      "name": "DisableInvestor",
      "type": "event"
    },
    {
      "anonymous": false,
      "inputs": [
        {
          "indexed": false,
          "internalType": "address",
          "name": "investor",
          "type": "address"
        }
      ],
      "name": "EnableInvestor",
      "type": "event"
    },
    {
      "anonymous": false,
      "inputs": [
        {
          "indexed": false,
          "internalType": "uint64",
          "name": "version",
          "type": "uint64"
        }
      ],
      "name": "Initialized",
      "type": "event"
    },
    {
      "anonymous": false,
      "inputs": [
        {
          "indexed": true,
          "internalType": "bytes32",
          "name": "role",
          "type": "bytes32"
        },
        {
          "indexed": true,
          "internalType": "bytes32",
          "name": "previousAdminRole",
          "type": "bytes32"
        },
        {
          "indexed": true,
          "internalType": "bytes32",
          "name": "newAdminRole",
          "type": "bytes32"
        }
      ],
      "name": "RoleAdminChanged",
      "type": "event"
    },
    {
      "anonymous": false,
      "inputs": [
        {
          "indexed": true,
          "internalType": "bytes32",
          "name": "role",
          "type": "bytes32"
        },
        {
          "indexed": true,
          "internalType": "address",
          "name": "account",
          "type": "address"
        },
        {
          "indexed": true,
          "internalType": "address",
          "name": "sender",
          "type": "address"
        }
      ],
      "name": "RoleGranted",
      "type": "event"
    },
    {
      "anonymous": false,
      "inputs": [
        {
          "indexed": true,
          "internalType": "bytes32",
          "name": "role",
          "type": "bytes32"
        },
        {
          "indexed": true,
          "internalType": "address",
          "name": "account",
          "type": "address"
        },
        {
          "indexed": true,
          "internalType": "address",
          "name": "sender",
          "type": "address"
        }
      ],
      "name": "RoleRevoked",
      "type": "event"
    },
    {
      "anonymous": false,
      "inputs": [
        {
          "indexed": true,
          "internalType": "address",
          "name": "toBeAdded",
          "type": "address"
        }
      ],
      "name": "WalletAddedToWhitelist",
      "type": "event"
    },
    {
      "anonymous": false,
      "inputs": [
        {
          "indexed": true,
          "internalType": "address",
          "name": "toBeDeleted",
          "type": "address"
        }
      ],
      "name": "WalletDeletedFromWhitelist",
      "type": "event"
    },
    {
      "inputs": [],
      "name": "BND_ROLE",
      "outputs": [
        {
          "internalType": "bytes32",
          "name": "",
          "type": "bytes32"
        }
      ],
      "stateMutability": "view",
      "type": "function"
    },
    {
      "inputs": [],
      "name": "CAK_ROLE",
      "outputs": [
        {
          "internalType": "bytes32",
          "name": "",
          "type": "bytes32"
        }
      ],
      "stateMutability": "view",
      "type": "function"
    },
    {
      "inputs": [],
      "name": "CST_ROLE",
      "outputs": [
        {
          "internalType": "bytes32",
          "name": "",
          "type": "bytes32"
        }
      ],
      "stateMutability": "view",
      "type": "function"
    },
    {
      "inputs": [],
      "name": "PAY_ROLE",
      "outputs": [
        {
          "internalType": "bytes32",
          "name": "",
          "type": "bytes32"
        }
      ],
      "stateMutability": "view",
      "type": "function"
    },
    {
      "inputs": [
        {
          "internalType": "address",
          "name": "investor_",
          "type": "address"
        },
        {
          "internalType": "address",
          "name": "delegator_",
          "type": "address"
        }
      ],
      "name": "delegateDisableInvestorFromWhitelist",
      "outputs": [],
      "stateMutability": "nonpayable",
      "type": "function"
    },
    {
      "inputs": [
        {
          "internalType": "address",
          "name": "investor_",
          "type": "address"
        },
        {
          "internalType": "address",
          "name": "delegator",
          "type": "address"
        }
      ],
      "name": "delegateEnableInvestorToWhitelist",
      "outputs": [],
      "stateMutability": "nonpayable",
      "type": "function"
    },
    {
      "inputs": [
        {
          "internalType": "address",
          "name": "custodian",
          "type": "address"
        }
      ],
      "name": "getCustodianDelegate",
      "outputs": [
        {
          "internalType": "address",
          "name": "",
          "type": "address"
        }
      ],
      "stateMutability": "view",
      "type": "function"
    },
    {
      "inputs": [
        {
          "internalType": "bytes32",
          "name": "role",
          "type": "bytes32"
        }
      ],
      "name": "getRoleAdmin",
      "outputs": [
        {
          "internalType": "bytes32",
          "name": "",
          "type": "bytes32"
        }
      ],
      "stateMutability": "view",
      "type": "function"
    },
    {
      "inputs": [
        {
          "internalType": "bytes32",
          "name": "role",
          "type": "bytes32"
        },
        {
          "internalType": "uint256",
          "name": "index",
          "type": "uint256"
        }
      ],
      "name": "getRoleMember",
      "outputs": [
        {
          "internalType": "address",
          "name": "",
          "type": "address"
        }
      ],
      "stateMutability": "view",
      "type": "function"
    },
    {
      "inputs": [
        {
          "internalType": "bytes32",
          "name": "role",
          "type": "bytes32"
        }
      ],
      "name": "getRoleMemberCount",
      "outputs": [
        {
          "internalType": "uint256",
          "name": "",
          "type": "uint256"
        }
      ],
      "stateMutability": "view",
      "type": "function"
    },
    {
      "inputs": [
        {
          "internalType": "bytes32",
          "name": "role",
          "type": "bytes32"
        },
        {
          "internalType": "address",
          "name": "account",
          "type": "address"
        }
      ],
      "name": "grantRole",
      "outputs": [],
      "stateMutability": "nonpayable",
      "type": "function"
    },
    {
      "inputs": [
        {
          "internalType": "bytes32",
          "name": "role",
          "type": "bytes32"
        },
        {
          "internalType": "address",
          "name": "account",
          "type": "address"
        }
      ],
      "name": "hasRole",
      "outputs": [
        {
          "internalType": "bool",
          "name": "",
          "type": "bool"
        }
      ],
      "stateMutability": "view",
      "type": "function"
    },
    {
      "inputs": [
        {
          "internalType": "address",
          "name": "custodian",
          "type": "address"
        },
        {
          "internalType": "address",
          "name": "delegate",
          "type": "address"
        }
      ],
      "name": "isCustodianDelegate",
      "outputs": [
        {
          "internalType": "bool",
          "name": "",
          "type": "bool"
        }
      ],
      "stateMutability": "view",
      "type": "function"
    },
    {
      "inputs": [
        {
          "internalType": "bytes32",
          "name": "role",
          "type": "bytes32"
        }
      ],
      "name": "renounceRole",
      "outputs": [],
      "stateMutability": "nonpayable",
      "type": "function"
    },
    {
      "inputs": [
        {
          "internalType": "bytes32",
          "name": "role",
          "type": "bytes32"
        },
        {
          "internalType": "address",
          "name": "account",
          "type": "address"
        }
      ],
      "name": "revokeRole",
      "outputs": [],
      "stateMutability": "nonpayable",
      "type": "function"
    },
    {
      "inputs": [
        {
          "internalType": "address",
          "name": "delegate",
          "type": "address"
        }
      ],
      "name": "setCustodianDelegate",
      "outputs": [],
      "stateMutability": "nonpayable",
      "type": "function"
    },
    {
      "inputs": [],
      "name": "unsetCustodianDelegate",
      "outputs": [],
      "stateMutability": "nonpayable",
      "type": "function"
    }
  ],
  "bytecode": "0x608060405234801561000f575f80fd5b506117078061001d5f395ff3fe608060405234801561000f575f80fd5b5060043610610115575f3560e01c80638865f1e2116100ad578063915fe4021161007d578063ca15c87311610063578063ca15c873146102a5578063d23a6506146102b8578063d547741f146102cb575f80fd5b8063915fe4021461026f57806391d1485414610292575f80fd5b80638865f1e2146101f75780638bb9c5bf1461021e5780638d6eefdc146102315780639010d07c1461025c575f80fd5b80633bf2a9f4116100e85780633bf2a9f4146101a25780633e455b0c146101c95780633ef7431e146101d1578063553a0dda146101e4575f80fd5b80631c67a36314610119578063248a9ca3146101535780632682ac91146101665780632f2ff15d1461018d575b5f80fd5b6101407f6ba6f588bcdc2df8426603a466c98ab15e79f7fb7f37b53581ce39c1d01b724981565b6040519081526020015b60405180910390f35b6101406101613660046114c6565b6102de565b6101407ff698af62c65280e4949bceec64b760f3b7738217cbc536cdfc4c9463676b05c281565b6101a061019b3660046114f8565b610315565b005b6101407fd7aa2ddfa4e381128202bf365b7e0a176f2fca6cdf2f23c2b0a6f4393769589081565b6101a061035d565b6101a06101df366004611522565b610367565b6101a06101f236600461154a565b610375565b6101407fa75205b8583660bdad375c0ccde11af17668d76a408a9a5e739251b0f7c5987081565b6101a061022c3660046114c6565b610381565b61024461023f36600461154a565b61038a565b6040516001600160a01b03909116815260200161014a565b61024461026a366004611563565b6103ca565b61028261027d366004611522565b6103dc565b604051901515815260200161014a565b6102826102a03660046114f8565b6103e7565b6101406102b33660046114c6565b6103f2565b6101a06102c6366004611522565b6103fc565b6101a06102d93660046114f8565b610406565b5f8181527f2e59e4c2e927cdddbb64e181e0668d9a0fa70dd88f94d999cd87d5496a20da6260205260408120600201545b92915050565b5f8281527f2e59e4c2e927cdddbb64e181e0668d9a0fa70dd88f94d999cd87d5496a20da62602052604090206002015461034e81610449565b6103588383610453565b505050565b610365610609565b565b6103718282610706565b5050565b61037e816108c1565b50565b61037e81610a07565b6001600160a01b038082165f9081527f9c8b1bb18b77aa515dae54351b4b599fd5f69f8c0ae7864936230dda1203203d602052604081205490911661030f565b5f6103d58383610a11565b9392505050565b5f6103d58383610a47565b5f6103d58383610abe565b5f61030f82610af4565b6103718282610b29565b5f8281527f2e59e4c2e927cdddbb64e181e0668d9a0fa70dd88f94d999cd87d5496a20da62602052604090206002015461043f81610449565b6103588383610beb565b61037e8133610d91565b816104b65760405162461bcd60e51b8152602060048201526024808201527f5573652066756e6374696f6e206368616e676541646d696e526f6c6520696e736044820152631d19585960e21b60648201526084015b60405180910390fd5b6105ff565b7fa75205b8583660bdad375c0ccde11af17668d76a408a9a5e739251b0f7c598708203610589576105077fa75205b8583660bdad375c0ccde11af17668d76a408a9a5e739251b0f7c5987033610abe565b8061051757506105175f33610abe565b6104b15760405162461bcd60e51b815260206004820152602e60248201527f43616c6c6572206d7573742062652043414b206f722041444d494e20746f207360448201527f657420616e6f746865722043414b00000000000000000000000000000000000060648201526084016104a8565b6105b37fa75205b8583660bdad375c0ccde11af17668d76a408a9a5e739251b0f7c5987033610abe565b6105ff5760405162461bcd60e51b815260206004820181905260248201527f43616c6c6572206d7573742062652043414b20746f20736574206120726f6c6560448201526064016104a8565b6103718282610df3565b6106337f6ba6f588bcdc2df8426603a466c98ab15e79f7fb7f37b53581ce39c1d01b724933610abe565b61067f5760405162461bcd60e51b815260206004820152601260248201527f43616c6c6572206d75737420626520435354000000000000000000000000000060448201526064016104a8565b335f8181527f9c8b1bb18b77aa515dae54351b4b599fd5f69f8c0ae7864936230dda1203203d60208190526040808320805473ffffffffffffffffffffffffffffffffffffffff198116909155905191936001600160a01b039091169283927f90ad994142faa1a2061b8fca77150f8fc3020fdf972c7770439c8d8190117d299190a35050565b6001600160a01b03821661075c5760405162461bcd60e51b815260206004820152601f60248201527f696e766573746f7220616464726573732063616e6e6f74206265207a65726f0060448201526064016104a8565b7f332cf6b129284e49df93f4be38bb1959bb5fa7d7d0ce3d4ad668f566f35f6fd46107878233610a47565b6107df5760405162461bcd60e51b815260206004820152602360248201527f43616c6c6572206d757374206265206120637573746f6469616e2064656c656760448201526261746560e81b60648201526084016104a8565b6001600160a01b038381165f9081526001830160205260409020600201548116908316146108645760405162461bcd60e51b815260206004820152602c60248201527f6f6e6c792074686520637573746f6469616e2063616e20646973616c6c6f772060448201526b3a34329034b73b32b9ba37b960a11b60648201526084016104a8565b6001600160a01b0383165f818152600183016020908152604091829020805460ff60a01b1916905590519182527ffeae65559f65b7c3f804001ac3371fbb83cf05e8344bc2b66588084bfe9250a8910160405180910390a1505050565b6108eb7f6ba6f588bcdc2df8426603a466c98ab15e79f7fb7f37b53581ce39c1d01b724933610abe565b6109375760405162461bcd60e51b815260206004820152601260248201527f43616c6c6572206d75737420626520435354000000000000000000000000000060448201526064016104a8565b335f9081527f9c8b1bb18b77aa515dae54351b4b599fd5f69f8c0ae7864936230dda1203203d6020819052604090912080546001600160a01b0384811673ffffffffffffffffffffffffffffffffffffffff198316179092551680156109cd576040516001600160a01b0382169033907f90ad994142faa1a2061b8fca77150f8fc3020fdf972c7770439c8d8190117d29905f90a35b6040516001600160a01b0384169033907f43648a621d1cc17faea187f8b9ea6b331d7b76fba650357583786ccac3d1629d905f90a3505050565b61037e8133610beb565b5f8281527f2e59e4c2e927cdddbb64e181e0668d9a0fa70dd88f94d999cd87d5496a20da62602052604081206103d59083610e65565b5f610a727f6ba6f588bcdc2df8426603a466c98ab15e79f7fb7f37b53581ce39c1d01b724984610abe565b610a7d57505f61030f565b506001600160a01b039182165f9081527f9c8b1bb18b77aa515dae54351b4b599fd5f69f8c0ae7864936230dda1203203d6020526040902054821691161490565b5f8281527f2e59e4c2e927cdddbb64e181e0668d9a0fa70dd88f94d999cd87d5496a20da62602052604081206103d59083610e70565b5f8181527f2e59e4c2e927cdddbb64e181e0668d9a0fa70dd88f94d999cd87d5496a20da626020526040812061030f90610e91565b6001600160a01b038216610b7f5760405162461bcd60e51b815260206004820152601f60248201527f696e766573746f7220616464726573732063616e6e6f74206265207a65726f0060448201526064016104a8565b610b898133610a47565b610be15760405162461bcd60e51b815260206004820152602360248201527f43616c6c6572206d757374206265206120637573746f6469616e2064656c656760448201526261746560e81b60648201526084016104a8565b6103718282610e9a565b81610c445760405162461bcd60e51b8152602060048201526024808201527f5573652066756e6374696f6e206368616e676541646d696e526f6c6520696e736044820152631d19585960e21b60648201526084016104a8565b7fa75205b8583660bdad375c0ccde11af17668d76a408a9a5e739251b0f7c598708203610ceb57610c755f33610abe565b610ce65760405162461bcd60e51b8152602060048201526024808201527f43616c6c6572206d7573742062652041444d494e20746f2072656d6f7665206160448201527f2043414b0000000000000000000000000000000000000000000000000000000060648201526084016104a8565b610d87565b610d157fa75205b8583660bdad375c0ccde11af17668d76a408a9a5e739251b0f7c5987033610abe565b610d875760405162461bcd60e51b815260206004820152602360248201527f43616c6c6572206d7573742062652043414b20746f2072656d6f76652061207260448201527f6f6c65000000000000000000000000000000000000000000000000000000000060648201526084016104a8565b6103718282611115565b610d9b8282610abe565b61037157610db1816001600160a01b0316611187565b610dbc836020611199565b604051602001610dcd9291906115a5565b60408051601f198184030181529082905262461bcd60e51b82526104a891600401611625565b5f8281527f2e59e4c2e927cdddbb64e181e0668d9a0fa70dd88f94d999cd87d5496a20da6260205260409020610e299082611344565b5060405133906001600160a01b0383169084907f2f8788117e7eff1d82e926ec794901d17c78024a50270940304540a733656f0d905f90a45050565b5f6103d58383611358565b6001600160a01b0381165f90815260018301602052604081205415156103d5565b5f61030f825490565b7f332cf6b129284e49df93f4be38bb1959bb5fa7d7d0ce3d4ad668f566f35f6fd4610f02836001600160a01b03165f9081527f332cf6b129284e49df93f4be38bb1959bb5fa7d7d0ce3d4ad668f566f35f6fd56020526040902054600160a01b900460ff1690565b15610f0c57505050565b6001600160a01b038381165f90815260018301602052604090206002015416158015611023577f332cf6b129284e49df93f4be38bb1959bb5fa7d7d0ce3d4ad668f566f35f6fd4805460018082019092557f3b5a704516de56a4fa30eb29b0bf899a47de4e07d715ffde30cee9d593da44168101805473ffffffffffffffffffffffffffffffffffffffff199081166001600160a01b038981169182179093555f8181527f332cf6b129284e49df93f4be38bb1959bb5fa7d7d0ce3d4ad668f566f35f6fd5602052604090209485019390935583546002850180549092169288169290921790557fffffffffffffffffffffff0000000000000000000000000000000000000000001617600160a01b1790556110d3565b6001600160a01b038481165f9081526001840160205260409020600201548116908416146110a85760405162461bcd60e51b815260206004820152602c60248201527f6f6e6c792074686520637573746f6469616e2063616e20646973616c6c6f772060448201526b3a34329034b73b32b9ba37b960a11b60648201526084016104a8565b6001600160a01b0384165f9081526001830160205260409020805460ff60a01b1916600160a01b1790555b6040516001600160a01b03851681527ff96a35a7272aecca4e6ac04b9ecbc33e3c2655f1fa104a4604d8f50370e6beb39060200160405180910390a150505050565b5f8281527f2e59e4c2e927cdddbb64e181e0668d9a0fa70dd88f94d999cd87d5496a20da626020526040902061114b90826113b9565b5060405133906001600160a01b0383169084907ff6391f5c32d9c69d2a47ea670b442974b53935d1edc7fd64eb21e047a839171b905f90a45050565b606061030f6001600160a01b03831660145b60605f6111a783600261166b565b6111b2906002611682565b67ffffffffffffffff8111156111ca576111ca611695565b6040519080825280601f01601f1916602001820160405280156111f4576020820181803683370190505b5090507f3000000000000000000000000000000000000000000000000000000000000000815f8151811061122a5761122a6116a9565b60200101906001600160f81b03191690815f1a9053507f780000000000000000000000000000000000000000000000000000000000000081600181518110611274576112746116a9565b60200101906001600160f81b03191690815f1a905350600160028402015b600181111561130b577f303132333435363738396162636465660000000000000000000000000000000085600f16601081106112d0576112d06116a9565b1a60f81b8282815181106112e6576112e66116a9565b60200101906001600160f81b03191690815f1a90535060049490941c935f1901611292565b5083156103d5576040517fc913478500000000000000000000000000000000000000000000000000000000815260040160405180910390fd5b5f6103d5836001600160a01b0384166113cd565b81545f908210611394576040517fe637bf3b00000000000000000000000000000000000000000000000000000000815260040160405180910390fd5b825f0182815481106113a8576113a86116a9565b905f5260205f200154905092915050565b5f6103d5836001600160a01b03841661140e565b5f81815260018301602052604081205461030f57508154600180820184555f8481526020808220909301849055845493815293810190915260409092205590565b5f81815260018301602052604081205480156114bf5783545f9085905f19810190811061143d5761143d6116a9565b905f5260205f200154905080855f016001840381548110611460576114606116a9565b5f918252602080832090910192909255918252600186019052604090208190558354849080611491576114916116bd565b600190038181905f5260205f20015f90559055836001015f8481526020019081526020015f205f9055600191505b5092915050565b5f602082840312156114d6575f80fd5b5035919050565b80356001600160a01b03811681146114f3575f80fd5b919050565b5f8060408385031215611509575f80fd5b82359150611519602084016114dd565b90509250929050565b5f8060408385031215611533575f80fd5b61153c836114dd565b9150611519602084016114dd565b5f6020828403121561155a575f80fd5b6103d5826114dd565b5f8060408385031215611574575f80fd5b50508035926020909101359150565b5f5b8381101561159d578181015183820152602001611585565b50505f910152565b7f416363657373436f6e74726f6c3a206163636f756e742000000000000000000081525f83516115dc816017850160208801611583565b7f206973206d697373696e6720726f6c65200000000000000000000000000000006017918401918201528351611619816028840160208801611583565b01602801949350505050565b602081525f8251806020840152611643816040850160208701611583565b601f01601f19169190910160400192915050565b634e487b7160e01b5f52601160045260245ffd5b808202811582820484141761030f5761030f611657565b8082018082111561030f5761030f611657565b634e487b7160e01b5f52604160045260245ffd5b634e487b7160e01b5f52603260045260245ffd5b634e487b7160e01b5f52603160045260245ffdfea2646970667358221220964097c8bbc35a410764bc7cbeb0647c161c8e973e896debfff6a05cdeff117964736f6c63430008140033",
  "linkReferences": {},
  "deployedLinkReferences": {}
}