{"contracts/trade/issuance/PrimaryIssuance.sol":{"PrimaryIssuance":{"abi":[{"inputs":[],"name":"ERC20Base__ApproveFromZeroAddress","type":"error"},{"inputs":[],"name":"ERC20Base__ApproveToZeroAddress","type":"error"},{"inputs":[],"name":"ERC20Base__BurnExceedsBalance","type":"error"},{"inputs":[],"name":"ERC20Base__BurnFromZeroAddress","type":"error"},{"inputs":[],"name":"ERC20Base__InsufficientAllowance","type":"error"},{"inputs":[],"name":"ERC20Base__MintToZeroAddress","type":"error"},{"inputs":[],"name":"ERC20Base__TransferExceedsBalance","type":"error"},{"inputs":[],"name":"ERC20Base__TransferFromZeroAddress","type":"error"},{"inputs":[],"name":"ERC20Base__TransferToZeroAddress","type":"error"},{"inputs":[],"name":"ERC20Snapshot__SnapshotIdDoesNotExists","type":"error"},{"inputs":[],"name":"ERC20Snapshot__SnapshotIdIsZero","type":"error"},{"inputs":[],"name":"EnumerableSet__IndexOutOfBounds","type":"error"},{"inputs":[],"name":"ReentrancyGuard__ReentrantCall","type":"error"},{"inputs":[],"name":"UintUtils__InsufficientHexLength","type":"error"},{"anonymous":false,"inputs":[{"indexed":true,"internalType":"address","name":"_addressForNewAdmin","type":"address"}],"name":"AdminChanged","type":"event"},{"anonymous":false,"inputs":[{"indexed":true,"internalType":"address","name":"owner","type":"address"},{"indexed":true,"internalType":"address","name":"spender","type":"address"},{"indexed":false,"internalType":"uint256","name":"value","type":"uint256"}],"name":"Approval","type":"event"},{"anonymous":false,"inputs":[{"indexed":false,"internalType":"bytes32","name":"contractHash","type":"bytes32"}],"name":"DisableContract","type":"event"},{"anonymous":false,"inputs":[{"indexed":false,"internalType":"address","name":"investor","type":"address"}],"name":"DisableInvestor","type":"event"},{"anonymous":false,"inputs":[{"indexed":false,"internalType":"bytes32","name":"contractHash","type":"bytes32"}],"name":"EnableContract","type":"event"},{"anonymous":false,"inputs":[{"indexed":false,"internalType":"address","name":"investor","type":"address"}],"name":"EnableInvestor","type":"event"},{"anonymous":false,"inputs":[{"indexed":false,"internalType":"uint64","name":"version","type":"uint64"}],"name":"Initialized","type":"event"},{"anonymous":false,"inputs":[{"indexed":true,"internalType":"address","name":"creator","type":"address"},{"indexed":false,"internalType":"string","name":"name","type":"string"},{"indexed":false,"internalType":"string","name":"isin","type":"string"}],"name":"NewBondDrafted","type":"event"},{"anonymous":false,"inputs":[{"indexed":true,"internalType":"address","name":"seller","type":"address"},{"indexed":true,"internalType":"address","name":"buyer","type":"address"},{"indexed":true,"internalType":"enum ITradeInternal.TradeStatus","name":"status","type":"uint8"},{"indexed":false,"internalType":"uint256","name":"quantity","type":"uint256"}],"name":"NotifyTrade","type":"event"},{"anonymous":false,"inputs":[{"indexed":false,"internalType":"address","name":"contractAddress","type":"address"}],"name":"PrimaryIssuanceCreated","type":"event"},{"anonymous":false,"inputs":[{"indexed":true,"internalType":"address","name":"sender","type":"address"},{"indexed":true,"internalType":"address","name":"target","type":"address"},{"indexed":false,"internalType":"string","name":"message","type":"string"}],"name":"PublicMessage","type":"event"},{"anonymous":false,"inputs":[{"indexed":true,"internalType":"address","name":"emiter","type":"address"},{"indexed":false,"internalType":"string","name":"name","type":"string"},{"indexed":false,"internalType":"string","name":"isin","type":"string"},{"indexed":false,"internalType":"enum IRegisterMetadataInternal.Status","name":"status","type":"uint8"}],"name":"RegisterStatusChanged","type":"event"},{"anonymous":false,"inputs":[{"indexed":true,"internalType":"bytes32","name":"role","type":"bytes32"},{"indexed":true,"internalType":"bytes32","name":"previousAdminRole","type":"bytes32"},{"indexed":true,"internalType":"bytes32","name":"newAdminRole","type":"bytes32"}],"name":"RoleAdminChanged","type":"event"},{"anonymous":false,"inputs":[{"indexed":true,"internalType":"bytes32","name":"role","type":"bytes32"},{"indexed":true,"internalType":"address","name":"account","type":"address"},{"indexed":true,"internalType":"address","name":"sender","type":"address"}],"name":"RoleGranted","type":"event"},{"anonymous":false,"inputs":[{"indexed":true,"internalType":"bytes32","name":"role","type":"bytes32"},{"indexed":true,"internalType":"address","name":"account","type":"address"},{"indexed":true,"internalType":"address","name":"sender","type":"address"}],"name":"RoleRevoked","type":"event"},{"anonymous":false,"inputs":[{"indexed":false,"internalType":"uint256","name":"id","type":"uint256"}],"name":"Snapshot","type":"event"},{"anonymous":false,"inputs":[{"indexed":true,"internalType":"uint256","name":"couponDate","type":"uint256"},{"indexed":true,"internalType":"uint256","name":"currentTimestamp","type":"uint256"},{"indexed":true,"internalType":"uint256","name":"nextTimestamp","type":"uint256"}],"name":"SnapshotTimestampChange","type":"event"},{"anonymous":false,"inputs":[{"indexed":true,"internalType":"address","name":"from","type":"address"},{"indexed":true,"internalType":"address","name":"to","type":"address"},{"indexed":false,"internalType":"uint256","name":"value","type":"uint256"}],"name":"Transfer","type":"event"},{"anonymous":false,"inputs":[{"indexed":true,"internalType":"address","name":"toBeAdded","type":"address"}],"name":"WalletAddedToWhitelist","type":"event"},{"anonymous":false,"inputs":[{"indexed":true,"internalType":"address","name":"toBeDeleted","type":"address"}],"name":"WalletDeletedFromWhitelist","type":"event"},{"inputs":[],"name":"BND_ROLE","outputs":[{"internalType":"bytes32","name":"","type":"bytes32"}],"stateMutability":"view","type":"function"},{"inputs":[],"name":"CAK_ROLE","outputs":[{"internalType":"bytes32","name":"","type":"bytes32"}],"stateMutability":"view","type":"function"},{"inputs":[],"name":"CST_ROLE","outputs":[{"internalType":"bytes32","name":"","type":"bytes32"}],"stateMutability":"view","type":"function"},{"inputs":[],"name":"PAY_ROLE","outputs":[{"internalType":"bytes32","name":"","type":"bytes32"}],"stateMutability":"view","type":"function"},{"inputs":[],"name":"_account","outputs":[{"internalType":"address","name":"","type":"address"}],"stateMutability":"view","type":"function"},{"inputs":[],"name":"_offerPrice","outputs":[{"internalType":"uint256","name":"","type":"uint256"}],"stateMutability":"view","type":"function"},{"inputs":[],"name":"_register","outputs":[{"internalType":"contract IRegister","name":"","type":"address"}],"stateMutability":"view","type":"function"},{"inputs":[{"internalType":"uint256","name":"_couponDate","type":"uint256"}],"name":"_totalSupplyAtCoupon","outputs":[{"internalType":"uint256","name":"","type":"uint256"}],"stateMutability":"view","type":"function"},{"inputs":[],"name":"account","outputs":[{"internalType":"address","name":"","type":"address"}],"stateMutability":"view","type":"function"},{"inputs":[{"internalType":"address","name":"holder","type":"address"},{"internalType":"address","name":"spender","type":"address"}],"name":"allowance","outputs":[{"internalType":"uint256","name":"","type":"uint256"}],"stateMutability":"view","type":"function"},{"inputs":[{"internalType":"address","name":"spender","type":"address"},{"internalType":"uint256","name":"amount","type":"uint256"}],"name":"approve","outputs":[{"internalType":"bool","name":"","type":"bool"}],"stateMutability":"nonpayable","type":"function"},{"inputs":[{"internalType":"address","name":"account","type":"address"}],"name":"balanceOf","outputs":[{"internalType":"uint256","name":"","type":"uint256"}],"stateMutability":"view","type":"function"},{"inputs":[{"internalType":"address","name":"account","type":"address"},{"internalType":"uint256","name":"snapshotId","type":"uint256"}],"name":"balanceOfAt","outputs":[{"internalType":"uint256","name":"","type":"uint256"}],"stateMutability":"view","type":"function"},{"inputs":[],"name":"buyerAccount","outputs":[{"internalType":"address","name":"","type":"address"}],"stateMutability":"view","type":"function"},{"inputs":[],"name":"decimals","outputs":[{"internalType":"uint8","name":"","type":"uint8"}],"stateMutability":"view","type":"function"},{"inputs":[],"name":"getDetails","outputs":[{"components":[{"internalType":"uint256","name":"quantity","type":"uint256"},{"internalType":"address","name":"buyer","type":"address"},{"internalType":"uint256","name":"tradeDate","type":"uint256"},{"internalType":"uint256","name":"valueDate","type":"uint256"},{"internalType":"uint256","name":"price","type":"uint256"}],"internalType":"struct ITradeInternal.TradeDetail","name":"","type":"tuple"}],"stateMutability":"view","type":"function"},{"inputs":[{"internalType":"bytes32","name":"role","type":"bytes32"}],"name":"getRoleAdmin","outputs":[{"internalType":"bytes32","name":"","type":"bytes32"}],"stateMutability":"view","type":"function"},{"inputs":[{"internalType":"bytes32","name":"role","type":"bytes32"},{"internalType":"uint256","name":"index","type":"uint256"}],"name":"getRoleMember","outputs":[{"internalType":"address","name":"","type":"address"}],"stateMutability":"view","type":"function"},{"inputs":[{"internalType":"bytes32","name":"role","type":"bytes32"}],"name":"getRoleMemberCount","outputs":[{"internalType":"uint256","name":"","type":"uint256"}],"stateMutability":"view","type":"function"},{"inputs":[{"internalType":"bytes32","name":"role","type":"bytes32"},{"internalType":"address","name":"account","type":"address"}],"name":"grantRole","outputs":[],"stateMutability":"nonpayable","type":"function"},{"inputs":[{"internalType":"bytes32","name":"role","type":"bytes32"},{"internalType":"address","name":"account","type":"address"}],"name":"hasRole","outputs":[{"internalType":"bool","name":"","type":"bool"}],"stateMutability":"view","type":"function"},{"inputs":[{"internalType":"address","name":"forwarder","type":"address"}],"name":"isTrustedForwarder","outputs":[{"internalType":"bool","name":"","type":"bool"}],"stateMutability":"view","type":"function"},{"inputs":[],"name":"name","outputs":[{"internalType":"string","name":"","type":"string"}],"stateMutability":"view","type":"function"},{"inputs":[],"name":"offerPrice","outputs":[{"internalType":"uint256","name":"","type":"uint256"}],"stateMutability":"view","type":"function"},{"inputs":[],"name":"paymentID","outputs":[{"internalType":"bytes8","name":"","type":"bytes8"}],"stateMutability":"view","type":"function"},{"inputs":[],"name":"primaryIssuanceAccount","outputs":[{"internalType":"address","name":"","type":"address"}],"stateMutability":"view","type":"function"},{"inputs":[],"name":"register","outputs":[{"internalType":"contract IRegister","name":"","type":"address"}],"stateMutability":"view","type":"function"},{"inputs":[],"name":"reject","outputs":[],"stateMutability":"nonpayable","type":"function"},{"inputs":[{"internalType":"bytes32","name":"role","type":"bytes32"}],"name":"renounceRole","outputs":[],"stateMutability":"nonpayable","type":"function"},{"inputs":[{"internalType":"bytes32","name":"role","type":"bytes32"},{"internalType":"address","name":"account","type":"address"}],"name":"revokeRole","outputs":[],"stateMutability":"nonpayable","type":"function"},{"inputs":[],"name":"sellerAccount","outputs":[{"internalType":"address","name":"","type":"address"}],"stateMutability":"view","type":"function"},{"inputs":[],"name":"status","outputs":[{"internalType":"enum ITradeInternal.TradeStatus","name":"","type":"uint8"}],"stateMutability":"view","type":"function"},{"inputs":[],"name":"symbol","outputs":[{"internalType":"string","name":"","type":"string"}],"stateMutability":"view","type":"function"},{"inputs":[],"name":"totalSupply","outputs":[{"internalType":"uint256","name":"","type":"uint256"}],"stateMutability":"view","type":"function"},{"inputs":[{"internalType":"uint256","name":"snapshotId","type":"uint256"}],"name":"totalSupplyAt","outputs":[{"internalType":"uint256","name":"","type":"uint256"}],"stateMutability":"view","type":"function"},{"inputs":[{"internalType":"address","name":"recipient","type":"address"},{"internalType":"uint256","name":"amount","type":"uint256"}],"name":"transfer","outputs":[{"internalType":"bool","name":"","type":"bool"}],"stateMutability":"nonpayable","type":"function"},{"inputs":[{"internalType":"address","name":"holder","type":"address"},{"internalType":"address","name":"recipient","type":"address"},{"internalType":"uint256","name":"amount","type":"uint256"}],"name":"transferFrom","outputs":[{"internalType":"bool","name":"","type":"bool"}],"stateMutability":"nonpayable","type":"function"},{"inputs":[],"name":"trustedForwarder","outputs":[{"internalType":"address","name":"","type":"address"}],"stateMutability":"view","type":"function"},{"inputs":[],"name":"validate","outputs":[],"stateMutability":"nonpayable","type":"function"}],"evm":{"bytecode":{"linkReferences":{},"object":"608060405234801561000f575f80fd5b50612e788061001d5f395ff3fe608060405234801561000f575f80fd5b506004361061029d575f3560e01c80634ee2cd7e116101715780639010d07c116100d2578063ca15c87311610088578063d84ffb411161006e578063d84ffb41146105a4578063dd62ed3e146105d7578063fbbf93a0146105ea575f80fd5b8063ca15c8731461057e578063d547741f14610591575f80fd5b806395d89b41116100b857806395d89b4114610550578063981b24d014610558578063a9059cbb1461056b575f80fd5b80639010d07c1461052a57806391d148541461053d575f80fd5b806370a08231116101275780638784ff181161010d5780638784ff18146104e85780638865f1e2146104f05780638bb9c5bf14610517575f80fd5b806370a08231146104c55780637da0a877146104d8575f80fd5b80635dab2420116101575780635dab2420146104875780636901f668146104bd578063696cd82c14610318575f80fd5b80634ee2cd7e14610497578063572b6c05146104aa575f80fd5b80632682ac911161021b5780633bf2a9f4116101d157806341b5ff72116101b757806341b5ff7214610460578063489147d7146104875780634dc415de1461048f575f80fd5b80633bf2a9f4146104265780633e0abded1461044d575f80fd5b8063313ce56711610201578063313ce567146103e05780633610aca1146103ee5780633bf19e291461041e575f80fd5b80632682ac91146103a45780632f2ff15d146103cb575f80fd5b80631aa3a00811610270578063200d2ed211610256578063200d2ed21461034557806323b872dd1461037e578063248a9ca314610391575f80fd5b80631aa3a008146103185780631c67a3631461031e575f80fd5b806306fdde03146102a1578063095ea7b3146102bf57806310547851146102e257806318160ddd14610302575b5f80fd5b6102a961063c565b6040516102b69190612a64565b60405180910390f35b6102d26102cd366004612ab1565b61064b565b60405190151581526020016102b6565b6102ea610667565b6040516001600160a01b0390911681526020016102b6565b61030a610699565b6040519081526020016102b6565b306102ea565b61030a7f6ba6f588bcdc2df8426603a466c98ab15e79f7fb7f37b53581ce39c1d01b724981565b7f8c1a510dd229d20456028b268298a0983b173203dde4af17997d240f180ec9e654600160a01b900460ff166040516102b69190612aed565b6102d261038c366004612b07565b6106c2565b61030a61039f366004612b40565b6106d8565b61030a7ff698af62c65280e4949bceec64b760f3b7738217cbc536cdfc4c9463676b05c281565b6103de6103d9366004612b57565b61070d565b005b6040515f81526020016102b6565b7f8c1a510dd229d20456028b268298a0983b173203dde4af17997d240f180ec9e3546001600160a01b03166102ea565b61030a610755565b61030a7fd7aa2ddfa4e381128202bf365b7e0a176f2fca6cdf2f23c2b0a6f4393769589081565b61030a61045b366004612b40565b61077e565b7f8c1a510dd229d20456028b268298a0983b173203dde4af17997d240f180ec9e55461030a565b6102ea6107eb565b6103de61081d565b61030a6104a5366004612ab1565b610827565b6102d26104b8366004612b81565b610832565b6103de610848565b61030a6104d3366004612b81565b610850565b5f546001600160a01b03166102ea565b6102ea61088c565b61030a7fa75205b8583660bdad375c0ccde11af17668d76a408a9a5e739251b0f7c5987081565b6103de610525366004612b40565b6108be565b6102ea610538366004612b9a565b6108ca565b6102d261054b366004612b57565b6108d5565b6102a96108e0565b61030a610566366004612b40565b6108ea565b6102d2610579366004612ab1565b6108f4565b61030a61058c366004612b40565b610907565b6103de61059f366004612b57565b610911565b6040517fffffffffffffffff0000000000000000000000000000000000000000000000003060c01b1681526020016102b6565b61030a6105e5366004612bba565b610954565b6105f261099f565b6040516102b691905f60a082019050825182526001600160a01b03602084015116602083015260408301516040830152606083015160608301526080830151608083015292915050565b60606106466109dd565b905090565b5f61065e610657610ab0565b8484610ab9565b90505b92915050565b5f6106467f8c1a510dd229d20456028b268298a0983b173203dde4af17997d240f180ec9e6546001600160a01b031690565b5f6106467fbbbdc1476a0878f2ef9a893c81f5b6f6ea1b3acaf18ff47ccb69cd4267d50c885490565b5f6106ce848484610bbf565b90505b9392505050565b5f8181527f2e59e4c2e927cdddbb64e181e0668d9a0fa70dd88f94d999cd87d5496a20da626020526040812060020154610661565b5f8281527f2e59e4c2e927cdddbb64e181e0668d9a0fa70dd88f94d999cd87d5496a20da6260205260409020600201546107468161104a565b610750838361105b565b505050565b5f6106467f8c1a510dd229d20456028b268298a0983b173203dde4af17997d240f180ec9e55490565b5f8181527f82e3548f398f9e7cce2049e6d440fc95dbd73177a40ca0c3ab538364268d38136020819052604082205480156107c4576107bc81611216565b949350505050565b7fbbbdc1476a0878f2ef9a893c81f5b6f6ea1b3acaf18ff47ccb69cd4267d50c88546107bc565b5f6106467f8c1a510dd229d20456028b268298a0983b173203dde4af17997d240f180ec9e3546001600160a01b031690565b610825611273565b565b5f61065e8383611418565b5f80546001600160a01b03838116911614610661565b6108256114ad565b6001600160a01b0381165f9081527fbbbdc1476a0878f2ef9a893c81f5b6f6ea1b3acaf18ff47ccb69cd4267d50c866020526040812054610661565b5f6106467f92772e537111f1c0e21a798208f79a3cb145ed385207d668c0a82bb719db43c2546001600160a01b031690565b6108c78161185b565b50565b5f61065e838361186c565b5f61065e83836118a2565b60606106466118d8565b5f61066182611216565b5f61065e610900610ab0565b8484611929565b5f61066182611abf565b5f8281527f2e59e4c2e927cdddbb64e181e0668d9a0fa70dd88f94d999cd87d5496a20da62602052604090206002015461094a8161104a565b6107508383611af4565b6001600160a01b038083165f9081527fbbbdc1476a0878f2ef9a893c81f5b6f6ea1b3acaf18ff47ccb69cd4267d50c876020908152604080832093851683529290529081205461065e565b6109d56040518060a001604052805f81526020015f6001600160a01b031681526020015f81526020015f81526020015f81525090565b610646611c9e565b7f92772e537111f1c0e21a798208f79a3cb145ed385207d668c0a82bb719db43b780546060917f92772e537111f1c0e21a798208f79a3cb145ed385207d668c0a82bb719db43b691610a2e90612be2565b80601f0160208091040260200160405190810160405280929190818152602001828054610a5a90612be2565b8015610aa55780601f10610a7c57610100808354040283529160200191610aa5565b820191905f5260205f20905b815481529060010190602001808311610a8857829003601f168201915b505050505091505090565b5f610646611dc5565b5f6001600160a01b038416610afa576040517f5a68b7ab00000000000000000000000000000000000000000000000000000000815260040160405180910390fd5b6001600160a01b038316610b3a576040517fc524160000000000000000000000000000000000000000000000000000000000815260040160405180910390fd5b6001600160a01b038481165f8181527fbbbdc1476a0878f2ef9a893c81f5b6f6ea1b3acaf18ff47ccb69cd4267d50c876020908152604080832094881680845294825291829020869055815186815291517f8c5be1e5ebec7d5bd14f71427d1e84f3dd0314c0f7b2291e5b200ac8c7c3b9259281900390910190a35060019392505050565b5f7f92772e537111f1c0e21a798208f79a3cb145ed385207d668c0a82bb719db43b6610c127fa75205b8583660bdad375c0ccde11af17668d76a408a9a5e739251b0f7c59870610c0d610ab0565b6118a2565b15610c2d57610c22858585611929565b5060019150506106d1565b610c3d610c38610ab0565b611dce565b610c8e5760405162461bcd60e51b815260206004820181905260248201527f5468697320636f6e7472616374206973206e6f742077686974656c697374656460448201526064015b60405180910390fd5b6004815460ff166004811115610ca657610ca6612ad9565b03610d195760405162461bcd60e51b815260206004820152603360248201527f4e6f207472616e736665722063616e20626520646f6e65207768656e2074686560448201527f2072656769737465722069732046726f7a656e000000000000000000000000006064820152608401610c85565b6001815460ff166004811115610d3157610d31612ad9565b148015610d635750610d637ff698af62c65280e4949bceec64b760f3b7738217cbc536cdfc4c9463676b05c2856118a2565b8015610d7e5750600c8101546001600160a01b038681169116145b15610edf578054600260ff19909116811782557f92772e537111f1c0e21a798208f79a3cb145ed385207d668c0a82bb719db43c4805460018181019092557f85557345690608b4957b188f871bab8ded927f8a43545ebad43d0b58c8dda445810180546001600160a01b0389167fffffffffffffffffffffffff000000000000000000000000000000000000000091821681179092555f8281527f92772e537111f1c0e21a798208f79a3cb145ed385207d668c0a82bb719db43c36020526040902093840192909255825493830180549092169091557fffffffffffffffffffffff0000000000000000000000000000000000000000009092169091179055610e85610ab0565b81546040516001600160a01b0392909216917fda2010acfda7a262372331cb3b57e3f648f63eb009a423a2b5602cfa4f9bff5191610ed2916001860191600287019160ff90911690612cb9565b60405180910390a261103f565b610f26846001600160a01b03165f9081527f92772e537111f1c0e21a798208f79a3cb145ed385207d668c0a82bb719db43c36020526040902054600160a01b900460ff1690565b1515600114610f775760405162461bcd60e51b815260206004820152601b60248201527f546865207265636569766572206973206e6f7420616c6c6f77656400000000006044820152606401610c85565b610fbe856001600160a01b03165f9081527f92772e537111f1c0e21a798208f79a3cb145ed385207d668c0a82bb719db43c36020526040902054600160a01b900460ff1690565b151560011480610ff35750610ff37ff698af62c65280e4949bceec64b760f3b7738217cbc536cdfc4c9463676b05c2866118a2565b61103f5760405162461bcd60e51b815260206004820152601960248201527f5468652073656e646572206973206e6f7420616c6c6f776564000000000000006044820152606401610c85565b610c22858585611929565b6108c781611056610ab0565b611e13565b816110b95760405162461bcd60e51b8152602060048201526024808201527f5573652066756e6374696f6e206368616e676541646d696e526f6c6520696e736044820152631d19585960e21b6064820152608401610c85565b611208565b7fa75205b8583660bdad375c0ccde11af17668d76a408a9a5e739251b0f7c5987082036111905761110c7fa75205b8583660bdad375c0ccde11af17668d76a408a9a5e739251b0f7c59870610c0d610ab0565b8061111e575061111e5f610c0d610ab0565b6110b45760405162461bcd60e51b815260206004820152602e60248201527f43616c6c6572206d7573742062652043414b206f722041444d494e20746f207360448201527f657420616e6f746865722043414b0000000000000000000000000000000000006064820152608401610c85565b6111bc7fa75205b8583660bdad375c0ccde11af17668d76a408a9a5e739251b0f7c59870610c0d610ab0565b6112085760405162461bcd60e51b815260206004820181905260248201527f43616c6c6572206d7573742062652043414b20746f20736574206120726f6c656044820152606401610c85565b6112128282611e75565b5050565b5f8080611243847fcd7a55ef023eb5931cc022a9bdc64cb5b46c3a6e53bcaa84915eea6084f1c7b5611ef8565b91509150816106d1577fbbbdc1476a0878f2ef9a893c81f5b6f6ea1b3acaf18ff47ccb69cd4267d50c88546107bc565b7f8c1a510dd229d20456028b268298a0983b173203dde4af17997d240f180ec9e3547f8c1a510dd229d20456028b268298a0983b173203dde4af17997d240f180ec9e2906001600160a01b03166112c8610ab0565b6001600160a01b0316146113445760405162461bcd60e51b815260206004820152602360248201527f6f6e6c79207468652062656e6566696369617279204226442063616e2072657660448201527f65727400000000000000000000000000000000000000000000000000000000006064820152608401610c85565b60048101805460ff60a01b1981167402000000000000000000000000000000000000000017918290556001600160a01b03165f9081527fbbbdc1476a0878f2ef9a893c81f5b6f6ea1b3acaf18ff47ccb69cd4267d50c8660205260409020546002830155600160a01b900460ff1660058111156113c3576113c3612ad9565b6001820154600483015460028401546040519081526001600160a01b0392831692909116907fb04efa95c2e317d8afba4237350a971f1ce59ef6fbbf2eb3f1a7e3f3f106a8f49060200160405180910390a450565b5f808061145d847fcd7a55ef023eb5931cc022a9bdc64cb5b46c3a6e53bcaa84915eea6084f1c7b46001600160a01b0388165f90815260209190915260409020611ef8565b91509150816114a2576001600160a01b0385165f9081527fbbbdc1476a0878f2ef9a893c81f5b6f6ea1b3acaf18ff47ccb69cd4267d50c8660205260409020546114a4565b805b95945050505050565b7f85e1ca0cb738650ceae09b8e7a40cba718d04131dd54b748289da0a916d2f32154600203611508576040517fbb6b8f9a00000000000000000000000000000000000000000000000000000000815260040160405180910390fd5b61153160027f85e1ca0cb738650ceae09b8e7a40cba718d04131dd54b748289da0a916d2f32155565b7f8c1a510dd229d20456028b268298a0983b173203dde4af17997d240f180ec9e261156261155d610ab0565b612001565b6115ae5760405162461bcd60e51b815260206004820152601460248201527f53656e646572206d7573742062652061204226440000000000000000000000006044820152606401610c85565b60018101546001600160a01b03166115c4610ab0565b6001600160a01b0316146116405760405162461bcd60e51b815260206004820152602860248201527f6f6e6c79207468652062656e6566696369617279204226442073686f756c642060448201527f66696e616c697a650000000000000000000000000000000000000000000000006064820152608401610c85565b60036004820154600160a01b900460ff16600581111561166257611662612ad9565b1415801561168f5750600480820154600160a01b900460ff16600581111561168c5761168c612ad9565b14155b6117015760405162461bcd60e51b815260206004820152603160248201527f546865207072696d61727920636f6e74726163742073686f756c64206265206960448201527f6e20696e697469617465642073746174650000000000000000000000000000006064820152608401610c85565b60048101546001600160a01b03165f9081527fbbbdc1476a0878f2ef9a893c81f5b6f6ea1b3acaf18ff47ccb69cd4267d50c86602052604090205460028201819055156118315760048101546001820154600283015461176e926001600160a01b03908116921690610bbf565b6117ba5760405162461bcd60e51b815260206004820152601760248201527f746865207472616e7366657220686173206661696c65640000000000000000006044820152606401610c85565b6004810180547403000000000000000000000000000000000000000060ff60a01b19821617909155600182015460028301546040519081526003926001600160a01b039283169216907fb04efa95c2e317d8afba4237350a971f1ce59ef6fbbf2eb3f1a7e3f3f106a8f49060200160405180910390a45b5061082560017f85e1ca0cb738650ceae09b8e7a40cba718d04131dd54b748289da0a916d2f32155565b6108c781611867610ab0565b611af4565b5f8281527f2e59e4c2e927cdddbb64e181e0668d9a0fa70dd88f94d999cd87d5496a20da626020526040812061065e908361202c565b5f8281527f2e59e4c2e927cdddbb64e181e0668d9a0fa70dd88f94d999cd87d5496a20da626020526040812061065e9083612037565b7f92772e537111f1c0e21a798208f79a3cb145ed385207d668c0a82bb719db43b880546060917f92772e537111f1c0e21a798208f79a3cb145ed385207d668c0a82bb719db43b691610a2e90612be2565b5f6001600160a01b03841661196a576040517f68551d5f00000000000000000000000000000000000000000000000000000000815260040160405180910390fd5b6001600160a01b0383166119aa576040517f8289914400000000000000000000000000000000000000000000000000000000815260040160405180910390fd5b6119b5848484612058565b6001600160a01b0384165f9081527fbbbdc1476a0878f2ef9a893c81f5b6f6ea1b3acaf18ff47ccb69cd4267d50c86602081905260409091205480841115611a29576040517f7183160b00000000000000000000000000000000000000000000000000000000815260040160405180910390fd5b6001600160a01b038087165f90815260208490526040808220878503905591871681529081208054869290611a5f908490612d12565b92505081905550846001600160a01b0316866001600160a01b03167fddf252ad1be2c89b69c2b068fc378daa952ba7f163c4a11628f55a4df523b3ef86604051611aab91815260200190565b60405180910390a350600195945050505050565b5f8181527f2e59e4c2e927cdddbb64e181e0668d9a0fa70dd88f94d999cd87d5496a20da6260205260408120610661906121f1565b81611b4d5760405162461bcd60e51b8152602060048201526024808201527f5573652066756e6374696f6e206368616e676541646d696e526f6c6520696e736044820152631d19585960e21b6064820152608401610c85565b7fa75205b8583660bdad375c0ccde11af17668d76a408a9a5e739251b0f7c598708203611bf657611b805f610c0d610ab0565b611bf15760405162461bcd60e51b8152602060048201526024808201527f43616c6c6572206d7573742062652041444d494e20746f2072656d6f7665206160448201527f2043414b000000000000000000000000000000000000000000000000000000006064820152608401610c85565b611c94565b611c227fa75205b8583660bdad375c0ccde11af17668d76a408a9a5e739251b0f7c59870610c0d610ab0565b611c945760405162461bcd60e51b815260206004820152602360248201527f43616c6c6572206d7573742062652043414b20746f2072656d6f76652061207260448201527f6f6c6500000000000000000000000000000000000000000000000000000000006064820152608401610c85565b61121282826121fa565b611cd46040518060a001604052805f81526020015f6001600160a01b031681526020015f81526020015f81526020015f81525090565b6040805160a0810182527f8c1a510dd229d20456028b268298a0983b173203dde4af17997d240f180ec9e45481527f8c1a510dd229d20456028b268298a0983b173203dde4af17997d240f180ec9e3546001600160a01b031660208201527f8c1a510dd229d20456028b268298a0983b173203dde4af17997d240f180ec9e2915f91908101611d817f92772e537111f1c0e21a798208f79a3cb145ed385207d668c0a82bb719db43bd5490565b8152602001611dae7f92772e537111f1c0e21a798208f79a3cb145ed385207d668c0a82bb719db43be5490565b815260200183600301548152509050809250505090565b5f61064661227d565b5f7fad23b20a8d3b04b57ac5eefbd00cb491b7ef4801d0b23a5da6c241252ca912ce81611dfa846122af565b5f90815260209290925250604090205460ff1692915050565b611e1d82826118a2565b61121257611e33816001600160a01b03166122df565b611e3e8360206122f1565b604051602001611e4f929190612d25565b60408051601f198184030181529082905262461bcd60e51b8252610c8591600401612a64565b5f8281527f2e59e4c2e927cdddbb64e181e0668d9a0fa70dd88f94d999cd87d5496a20da6260205260409020611eab908261249c565b50611eb4610ab0565b6001600160a01b0316816001600160a01b0316837f2f8788117e7eff1d82e926ec794901d17c78024a50270940304540a733656f0d60405160405180910390a45050565b5f80835f03611f33576040517f6e6ae24700000000000000000000000000000000000000000000000000000000815260040160405180910390fd5b7fcd7a55ef023eb5931cc022a9bdc64cb5b46c3a6e53bcaa84915eea6084f1c7b7547fcd7a55ef023eb5931cc022a9bdc64cb5b46c3a6e53bcaa84915eea6084f1c7b490851115611fb0576040517f3609372a00000000000000000000000000000000000000000000000000000000815260040160405180910390fd5b5f611fbb85876124b0565b85549091508103611fd3575f80935093505050611ffa565b6001856001018281548110611fea57611fea612da5565b905f5260205f2001549350935050505b9250929050565b5f6106617ff698af62c65280e4949bceec64b760f3b7738217cbc536cdfc4c9463676b05c2836118a2565b5f61065e8383612552565b6001600160a01b0381165f908152600183016020526040812054151561065e565b7f82e3548f398f9e7cce2049e6d440fc95dbd73177a40ca0c3ab538364268d3817547f82e3548f398f9e7cce2049e6d440fc95dbd73177a40ca0c3ab538364268d38139060ff16156120b55760048101805460ff191690556121d7565b5f8160010154116121545760405162461bcd60e51b815260206004820152604f60248201527f746865207265676973746572206973206c6f636b65642062656361757365206e60448201527f6f20636f75706f6e206973207072657061726564206f7220746865206d61747560648201527f7269747920697320726561636865640000000000000000000000000000000000608482015260a401610c85565b806001015442106121d7575f8160020154116121d75760405162461bcd60e51b8152602060048201526024808201527f746865206d61747572697479206375742d6f66662074696d652068617320706160448201527f73736564000000000000000000000000000000000000000000000000000000006064820152608401610c85565b6121df6125b3565b506121eb8484846126c9565b50505050565b5f610661825490565b5f8281527f2e59e4c2e927cdddbb64e181e0668d9a0fa70dd88f94d999cd87d5496a20da62602052604090206122309082612711565b50612239610ab0565b6001600160a01b0316816001600160a01b0316837ff6391f5c32d9c69d2a47ea670b442974b53935d1edc7fd64eb21e047a839171b60405160405180910390a45050565b5f80546001600160a01b031633148015612298575060143610155b156122aa575060131936013560601c90565b503390565b60408051603f833b908101601f191682019092528181525f91808360208401863c50805160209091012092915050565b60606106616001600160a01b03831660145b60605f6122ff836002612db9565b61230a906002612d12565b67ffffffffffffffff81111561232257612322612dd0565b6040519080825280601f01601f19166020018201604052801561234c576020820181803683370190505b5090507f3000000000000000000000000000000000000000000000000000000000000000815f8151811061238257612382612da5565b60200101906001600160f81b03191690815f1a9053507f7800000000000000000000000000000000000000000000000000000000000000816001815181106123cc576123cc612da5565b60200101906001600160f81b03191690815f1a905350600160028402015b6001811115612463577f303132333435363738396162636465660000000000000000000000000000000085600f166010811061242857612428612da5565b1a60f81b82828151811061243e5761243e612da5565b60200101906001600160f81b03191690815f1a90535060049490941c935f19016123ea565b50831561065e576040517fc913478500000000000000000000000000000000000000000000000000000000815260040160405180910390fd5b5f61065e836001600160a01b038416612725565b81545f9081036124c157505f610661565b82545f905b80821015612512575f81831682841860011c019050848682815481106124ee576124ee612da5565b905f5260205f20015411156125055780915061250c565b8060010192505b506124c6565b5f8211801561253d57508385600184038154811061253257612532612da5565b905f5260205f200154145b61254757816114a4565b505f19019392505050565b81545f90821061258e576040517fe637bf3b00000000000000000000000000000000000000000000000000000000815260040160405180910390fd5b825f0182815481106125a2576125a2612da5565b905f5260205f200154905092915050565b7f82e3548f398f9e7cce2049e6d440fc95dbd73177a40ca0c3ab538364268d3814545f907f82e3548f398f9e7cce2049e6d440fc95dbd73177a40ca0c3ab538364268d38139015801590612617575060038101545f90815260208290526040902054155b8015612627575080600101544210155b156126c2575f612635612766565b60038301545f908152602084905260409020819055600283015490915061265c575f61266e565b61266e826002015483600101546127fb565b6001830181905561267f905f6127fb565b6003830181905560028301546001840154604051919290917f4d1d74d5cbfc13e02ef05af3a30d8721e87a00d20bc3dc42198917139944def3905f90a492915050565b5f91505090565b6001600160a01b0383166126e8576126e082612831565b6107506128a1565b6001600160a01b0382166126ff576126e083612831565b61270882612831565b61075083612831565b5f61065e836001600160a01b0384166128ed565b5f81815260018301602052604081205461066157508154600180820184555f8481526020808220909301849055845493815293810190915260409092205590565b7fcd7a55ef023eb5931cc022a9bdc64cb5b46c3a6e53bcaa84915eea6084f1c7b780545f917fcd7a55ef023eb5931cc022a9bdc64cb5b46c3a6e53bcaa84915eea6084f1c7b49190836127b883612de4565b909155505060038101546040518181527f8030e83b04d87bef53480e26263266d6ca66863aa8506aca6f2559d18aa1cb679060200160405180910390a192915050565b5f8061280a6201518085612dfc565b90506128168185612e1b565b91506128256201518084612dfc565b90506107bc8183612d12565b6001600160a01b0381165f9081527fcd7a55ef023eb5931cc022a9bdc64cb5b46c3a6e53bcaa84915eea6084f1c7b4602090815260408083207fbbbdc1476a0878f2ef9a893c81f5b6f6ea1b3acaf18ff47ccb69cd4267d50c86909252909120546108c791906129a5565b6129a5565b6108257fcd7a55ef023eb5931cc022a9bdc64cb5b46c3a6e53bcaa84915eea6084f1c7b561289c7fbbbdc1476a0878f2ef9a893c81f5b6f6ea1b3acaf18ff47ccb69cd4267d50c885490565b5f818152600183016020526040812054801561299e5783545f9085905f19810190811061291c5761291c612da5565b905f5260205f200154905080855f01600184038154811061293f5761293f612da5565b5f91825260208083209091019290925591825260018601905260409020819055835484908061297057612970612e2e565b600190038181905f5260205f20015f90559055836001015f8481526020019081526020015f205f9055600191505b5092915050565b7fcd7a55ef023eb5931cc022a9bdc64cb5b46c3a6e53bcaa84915eea6084f1c7b754806129d184612a04565b1015610750578254600180820185555f858152602080822090930193909355938401805494850181558252902090910155565b80545f9015612a3b5781548290612a1d90600190612e1b565b81548110612a2d57612a2d612da5565b905f5260205f200154610661565b5f92915050565b5f5b83811015612a5c578181015183820152602001612a44565b50505f910152565b602081525f8251806020840152612a82816040850160208701612a42565b601f01601f19169190910160400192915050565b80356001600160a01b0381168114612aac575f80fd5b919050565b5f8060408385031215612ac2575f80fd5b612acb83612a96565b946020939093013593505050565b634e487b7160e01b5f52602160045260245ffd5b6020810160068310612b0157612b01612ad9565b91905290565b5f805f60608486031215612b19575f80fd5b612b2284612a96565b9250612b3060208501612a96565b9150604084013590509250925092565b5f60208284031215612b50575f80fd5b5035919050565b5f8060408385031215612b68575f80fd5b82359150612b7860208401612a96565b90509250929050565b5f60208284031215612b91575f80fd5b61065e82612a96565b5f8060408385031215612bab575f80fd5b50508035926020909101359150565b5f8060408385031215612bcb575f80fd5b612bd483612a96565b9150612b7860208401612a96565b600181811c90821680612bf657607f821691505b602082108103612c1457634e487b7160e01b5f52602260045260245ffd5b50919050565b80545f90600181811c9080831680612c3357607f831692505b60208084108203612c5257634e487b7160e01b5f52602260045260245ffd5b83885260208801828015612c6d5760018114612c8357612cac565b60ff198716825285151560051b82019750612cac565b5f898152602090205f5b87811015612ca657815484820152908601908401612c8d565b83019850505b5050505050505092915050565b606081525f612ccb6060830186612c1a565b8281036020840152612cdd8186612c1a565b91505060058310612cf057612cf0612ad9565b826040830152949350505050565b634e487b7160e01b5f52601160045260245ffd5b8082018082111561066157610661612cfe565b7f416363657373436f6e74726f6c3a206163636f756e742000000000000000000081525f8351612d5c816017850160208801612a42565b7f206973206d697373696e6720726f6c65200000000000000000000000000000006017918401918201528351612d99816028840160208801612a42565b01602801949350505050565b634e487b7160e01b5f52603260045260245ffd5b808202811582820484141761066157610661612cfe565b634e487b7160e01b5f52604160045260245ffd5b5f60018201612df557612df5612cfe565b5060010190565b5f82612e1657634e487b7160e01b5f52601260045260245ffd5b500690565b8181038181111561066157610661612cfe565b634e487b7160e01b5f52603160045260245ffdfea26469706673582212201be082fd9669547961ac2a425fa4c4990b86d1654daa0fb96b1fc69b202a8ded64736f6c63430008140033","opcodes":"PUSH1 0x80 PUSH1 0x40 MSTORE CALLVALUE DUP1 ISZERO PUSH2 0xF JUMPI PUSH0 DUP1 REVERT JUMPDEST POP PUSH2 0x2E78 DUP1 PUSH2 0x1D PUSH0 CODECOPY PUSH0 RETURN INVALID PUSH1 0x80 PUSH1 0x40 MSTORE CALLVALUE DUP1 ISZERO PUSH2 0xF JUMPI PUSH0 DUP1 REVERT JUMPDEST POP PUSH1 0x4 CALLDATASIZE LT PUSH2 0x29D JUMPI PUSH0 CALLDATALOAD PUSH1 0xE0 SHR DUP1 PUSH4 0x4EE2CD7E GT PUSH2 0x171 JUMPI DUP1 PUSH4 0x9010D07C GT PUSH2 0xD2 JUMPI DUP1 PUSH4 0xCA15C873 GT PUSH2 0x88 JUMPI DUP1 PUSH4 0xD84FFB41 GT PUSH2 0x6E JUMPI DUP1 PUSH4 0xD84FFB41 EQ PUSH2 0x5A4 JUMPI DUP1 PUSH4 0xDD62ED3E EQ PUSH2 0x5D7 JUMPI DUP1 PUSH4 0xFBBF93A0 EQ PUSH2 0x5EA JUMPI PUSH0 DUP1 REVERT JUMPDEST DUP1 PUSH4 0xCA15C873 EQ PUSH2 0x57E JUMPI DUP1 PUSH4 0xD547741F EQ PUSH2 0x591 JUMPI PUSH0 DUP1 REVERT JUMPDEST DUP1 PUSH4 0x95D89B41 GT PUSH2 0xB8 JUMPI DUP1 PUSH4 0x95D89B41 EQ PUSH2 0x550 JUMPI DUP1 PUSH4 0x981B24D0 EQ PUSH2 0x558 JUMPI DUP1 PUSH4 0xA9059CBB EQ PUSH2 0x56B JUMPI PUSH0 DUP1 REVERT JUMPDEST DUP1 PUSH4 0x9010D07C EQ PUSH2 0x52A JUMPI DUP1 PUSH4 0x91D14854 EQ PUSH2 0x53D JUMPI PUSH0 DUP1 REVERT JUMPDEST DUP1 PUSH4 0x70A08231 GT PUSH2 0x127 JUMPI DUP1 PUSH4 0x8784FF18 GT PUSH2 0x10D JUMPI DUP1 PUSH4 0x8784FF18 EQ PUSH2 0x4E8 JUMPI DUP1 PUSH4 0x8865F1E2 EQ PUSH2 0x4F0 JUMPI DUP1 PUSH4 0x8BB9C5BF EQ PUSH2 0x517 JUMPI PUSH0 DUP1 REVERT JUMPDEST DUP1 PUSH4 0x70A08231 EQ PUSH2 0x4C5 JUMPI DUP1 PUSH4 0x7DA0A877 EQ PUSH2 0x4D8 JUMPI PUSH0 DUP1 REVERT JUMPDEST DUP1 PUSH4 0x5DAB2420 GT PUSH2 0x157 JUMPI DUP1 PUSH4 0x5DAB2420 EQ PUSH2 0x487 JUMPI DUP1 PUSH4 0x6901F668 EQ PUSH2 0x4BD JUMPI DUP1 PUSH4 0x696CD82C EQ PUSH2 0x318 JUMPI PUSH0 DUP1 REVERT JUMPDEST DUP1 PUSH4 0x4EE2CD7E EQ PUSH2 0x497 JUMPI DUP1 PUSH4 0x572B6C05 EQ PUSH2 0x4AA JUMPI PUSH0 DUP1 REVERT JUMPDEST DUP1 PUSH4 0x2682AC91 GT PUSH2 0x21B JUMPI DUP1 PUSH4 0x3BF2A9F4 GT PUSH2 0x1D1 JUMPI DUP1 PUSH4 0x41B5FF72 GT PUSH2 0x1B7 JUMPI DUP1 PUSH4 0x41B5FF72 EQ PUSH2 0x460 JUMPI DUP1 PUSH4 0x489147D7 EQ PUSH2 0x487 JUMPI DUP1 PUSH4 0x4DC415DE EQ PUSH2 0x48F JUMPI PUSH0 DUP1 REVERT JUMPDEST DUP1 PUSH4 0x3BF2A9F4 EQ PUSH2 0x426 JUMPI DUP1 PUSH4 0x3E0ABDED EQ PUSH2 0x44D JUMPI PUSH0 DUP1 REVERT JUMPDEST DUP1 PUSH4 0x313CE567 GT PUSH2 0x201 JUMPI DUP1 PUSH4 0x313CE567 EQ PUSH2 0x3E0 JUMPI DUP1 PUSH4 0x3610ACA1 EQ PUSH2 0x3EE JUMPI DUP1 PUSH4 0x3BF19E29 EQ PUSH2 0x41E JUMPI PUSH0 DUP1 REVERT JUMPDEST DUP1 PUSH4 0x2682AC91 EQ PUSH2 0x3A4 JUMPI DUP1 PUSH4 0x2F2FF15D EQ PUSH2 0x3CB JUMPI PUSH0 DUP1 REVERT JUMPDEST DUP1 PUSH4 0x1AA3A008 GT PUSH2 0x270 JUMPI DUP1 PUSH4 0x200D2ED2 GT PUSH2 0x256 JUMPI DUP1 PUSH4 0x200D2ED2 EQ PUSH2 0x345 JUMPI DUP1 PUSH4 0x23B872DD EQ PUSH2 0x37E JUMPI DUP1 PUSH4 0x248A9CA3 EQ PUSH2 0x391 JUMPI PUSH0 DUP1 REVERT JUMPDEST DUP1 PUSH4 0x1AA3A008 EQ PUSH2 0x318 JUMPI DUP1 PUSH4 0x1C67A363 EQ PUSH2 0x31E JUMPI PUSH0 DUP1 REVERT JUMPDEST DUP1 PUSH4 0x6FDDE03 EQ PUSH2 0x2A1 JUMPI DUP1 PUSH4 0x95EA7B3 EQ PUSH2 0x2BF JUMPI DUP1 PUSH4 0x10547851 EQ PUSH2 0x2E2 JUMPI DUP1 PUSH4 0x18160DDD EQ PUSH2 0x302 JUMPI JUMPDEST PUSH0 DUP1 REVERT JUMPDEST PUSH2 0x2A9 PUSH2 0x63C JUMP JUMPDEST PUSH1 0x40 MLOAD PUSH2 0x2B6 SWAP2 SWAP1 PUSH2 0x2A64 JUMP JUMPDEST PUSH1 0x40 MLOAD DUP1 SWAP2 SUB SWAP1 RETURN JUMPDEST PUSH2 0x2D2 PUSH2 0x2CD CALLDATASIZE PUSH1 0x4 PUSH2 0x2AB1 JUMP JUMPDEST PUSH2 0x64B JUMP JUMPDEST PUSH1 0x40 MLOAD SWAP1 ISZERO ISZERO DUP2 MSTORE PUSH1 0x20 ADD PUSH2 0x2B6 JUMP JUMPDEST PUSH2 0x2EA PUSH2 0x667 JUMP JUMPDEST PUSH1 0x40 MLOAD PUSH1 0x1 PUSH1 0x1 PUSH1 0xA0 SHL SUB SWAP1 SWAP2 AND DUP2 MSTORE PUSH1 0x20 ADD PUSH2 0x2B6 JUMP JUMPDEST PUSH2 0x30A PUSH2 0x699 JUMP JUMPDEST PUSH1 0x40 MLOAD SWAP1 DUP2 MSTORE PUSH1 0x20 ADD PUSH2 0x2B6 JUMP JUMPDEST ADDRESS PUSH2 0x2EA JUMP JUMPDEST PUSH2 0x30A PUSH32 0x6BA6F588BCDC2DF8426603A466C98AB15E79F7FB7F37B53581CE39C1D01B7249 DUP2 JUMP JUMPDEST PUSH32 0x8C1A510DD229D20456028B268298A0983B173203DDE4AF17997D240F180EC9E6 SLOAD PUSH1 0x1 PUSH1 0xA0 SHL SWAP1 DIV PUSH1 0xFF AND PUSH1 0x40 MLOAD PUSH2 0x2B6 SWAP2 SWAP1 PUSH2 0x2AED JUMP JUMPDEST PUSH2 0x2D2 PUSH2 0x38C CALLDATASIZE PUSH1 0x4 PUSH2 0x2B07 JUMP JUMPDEST PUSH2 0x6C2 JUMP JUMPDEST PUSH2 0x30A PUSH2 0x39F CALLDATASIZE PUSH1 0x4 PUSH2 0x2B40 JUMP JUMPDEST PUSH2 0x6D8 JUMP JUMPDEST PUSH2 0x30A PUSH32 0xF698AF62C65280E4949BCEEC64B760F3B7738217CBC536CDFC4C9463676B05C2 DUP2 JUMP JUMPDEST PUSH2 0x3DE PUSH2 0x3D9 CALLDATASIZE PUSH1 0x4 PUSH2 0x2B57 JUMP JUMPDEST PUSH2 0x70D JUMP JUMPDEST STOP JUMPDEST PUSH1 0x40 MLOAD PUSH0 DUP2 MSTORE PUSH1 0x20 ADD PUSH2 0x2B6 JUMP JUMPDEST PUSH32 0x8C1A510DD229D20456028B268298A0983B173203DDE4AF17997D240F180EC9E3 SLOAD PUSH1 0x1 PUSH1 0x1 PUSH1 0xA0 SHL SUB AND PUSH2 0x2EA JUMP JUMPDEST PUSH2 0x30A PUSH2 0x755 JUMP JUMPDEST PUSH2 0x30A PUSH32 0xD7AA2DDFA4E381128202BF365B7E0A176F2FCA6CDF2F23C2B0A6F43937695890 DUP2 JUMP JUMPDEST PUSH2 0x30A PUSH2 0x45B CALLDATASIZE PUSH1 0x4 PUSH2 0x2B40 JUMP JUMPDEST PUSH2 0x77E JUMP JUMPDEST PUSH32 0x8C1A510DD229D20456028B268298A0983B173203DDE4AF17997D240F180EC9E5 SLOAD PUSH2 0x30A JUMP JUMPDEST PUSH2 0x2EA PUSH2 0x7EB JUMP JUMPDEST PUSH2 0x3DE PUSH2 0x81D JUMP JUMPDEST PUSH2 0x30A PUSH2 0x4A5 CALLDATASIZE PUSH1 0x4 PUSH2 0x2AB1 JUMP JUMPDEST PUSH2 0x827 JUMP JUMPDEST PUSH2 0x2D2 PUSH2 0x4B8 CALLDATASIZE PUSH1 0x4 PUSH2 0x2B81 JUMP JUMPDEST PUSH2 0x832 JUMP JUMPDEST PUSH2 0x3DE PUSH2 0x848 JUMP JUMPDEST PUSH2 0x30A PUSH2 0x4D3 CALLDATASIZE PUSH1 0x4 PUSH2 0x2B81 JUMP JUMPDEST PUSH2 0x850 JUMP JUMPDEST PUSH0 SLOAD PUSH1 0x1 PUSH1 0x1 PUSH1 0xA0 SHL SUB AND PUSH2 0x2EA JUMP JUMPDEST PUSH2 0x2EA PUSH2 0x88C JUMP JUMPDEST PUSH2 0x30A PUSH32 0xA75205B8583660BDAD375C0CCDE11AF17668D76A408A9A5E739251B0F7C59870 DUP2 JUMP JUMPDEST PUSH2 0x3DE PUSH2 0x525 CALLDATASIZE PUSH1 0x4 PUSH2 0x2B40 JUMP JUMPDEST PUSH2 0x8BE JUMP JUMPDEST PUSH2 0x2EA PUSH2 0x538 CALLDATASIZE PUSH1 0x4 PUSH2 0x2B9A JUMP JUMPDEST PUSH2 0x8CA JUMP JUMPDEST PUSH2 0x2D2 PUSH2 0x54B CALLDATASIZE PUSH1 0x4 PUSH2 0x2B57 JUMP JUMPDEST PUSH2 0x8D5 JUMP JUMPDEST PUSH2 0x2A9 PUSH2 0x8E0 JUMP JUMPDEST PUSH2 0x30A PUSH2 0x566 CALLDATASIZE PUSH1 0x4 PUSH2 0x2B40 JUMP JUMPDEST PUSH2 0x8EA JUMP JUMPDEST PUSH2 0x2D2 PUSH2 0x579 CALLDATASIZE PUSH1 0x4 PUSH2 0x2AB1 JUMP JUMPDEST PUSH2 0x8F4 JUMP JUMPDEST PUSH2 0x30A PUSH2 0x58C CALLDATASIZE PUSH1 0x4 PUSH2 0x2B40 JUMP JUMPDEST PUSH2 0x907 JUMP JUMPDEST PUSH2 0x3DE PUSH2 0x59F CALLDATASIZE PUSH1 0x4 PUSH2 0x2B57 JUMP JUMPDEST PUSH2 0x911 JUMP JUMPDEST PUSH1 0x40 MLOAD PUSH32 0xFFFFFFFFFFFFFFFF000000000000000000000000000000000000000000000000 ADDRESS PUSH1 0xC0 SHL AND DUP2 MSTORE PUSH1 0x20 ADD PUSH2 0x2B6 JUMP JUMPDEST PUSH2 0x30A PUSH2 0x5E5 CALLDATASIZE PUSH1 0x4 PUSH2 0x2BBA JUMP JUMPDEST PUSH2 0x954 JUMP JUMPDEST PUSH2 0x5F2 PUSH2 0x99F JUMP JUMPDEST PUSH1 0x40 MLOAD PUSH2 0x2B6 SWAP2 SWAP1 PUSH0 PUSH1 0xA0 DUP3 ADD SWAP1 POP DUP3 MLOAD DUP3 MSTORE PUSH1 0x1 PUSH1 0x1 PUSH1 0xA0 SHL SUB PUSH1 0x20 DUP5 ADD MLOAD AND PUSH1 0x20 DUP4 ADD MSTORE PUSH1 0x40 DUP4 ADD MLOAD PUSH1 0x40 DUP4 ADD MSTORE PUSH1 0x60 DUP4 ADD MLOAD PUSH1 0x60 DUP4 ADD MSTORE PUSH1 0x80 DUP4 ADD MLOAD PUSH1 0x80 DUP4 ADD MSTORE SWAP3 SWAP2 POP POP JUMP JUMPDEST PUSH1 0x60 PUSH2 0x646 PUSH2 0x9DD JUMP JUMPDEST SWAP1 POP SWAP1 JUMP JUMPDEST PUSH0 PUSH2 0x65E PUSH2 0x657 PUSH2 0xAB0 JUMP JUMPDEST DUP5 DUP5 PUSH2 0xAB9 JUMP JUMPDEST SWAP1 POP JUMPDEST SWAP3 SWAP2 POP POP JUMP JUMPDEST PUSH0 PUSH2 0x646 PUSH32 0x8C1A510DD229D20456028B268298A0983B173203DDE4AF17997D240F180EC9E6 SLOAD PUSH1 0x1 PUSH1 0x1 PUSH1 0xA0 SHL SUB AND SWAP1 JUMP JUMPDEST PUSH0 PUSH2 0x646 PUSH32 0xBBBDC1476A0878F2EF9A893C81F5B6F6EA1B3ACAF18FF47CCB69CD4267D50C88 SLOAD SWAP1 JUMP JUMPDEST PUSH0 PUSH2 0x6CE DUP5 DUP5 DUP5 PUSH2 0xBBF JUMP JUMPDEST SWAP1 POP JUMPDEST SWAP4 SWAP3 POP POP POP JUMP JUMPDEST PUSH0 DUP2 DUP2 MSTORE PUSH32 0x2E59E4C2E927CDDDBB64E181E0668D9A0FA70DD88F94D999CD87D5496A20DA62 PUSH1 0x20 MSTORE PUSH1 0x40 DUP2 KECCAK256 PUSH1 0x2 ADD SLOAD PUSH2 0x661 JUMP JUMPDEST PUSH0 DUP3 DUP2 MSTORE PUSH32 0x2E59E4C2E927CDDDBB64E181E0668D9A0FA70DD88F94D999CD87D5496A20DA62 PUSH1 0x20 MSTORE PUSH1 0x40 SWAP1 KECCAK256 PUSH1 0x2 ADD SLOAD PUSH2 0x746 DUP2 PUSH2 0x104A JUMP JUMPDEST PUSH2 0x750 DUP4 DUP4 PUSH2 0x105B JUMP JUMPDEST POP POP POP JUMP JUMPDEST PUSH0 PUSH2 0x646 PUSH32 0x8C1A510DD229D20456028B268298A0983B173203DDE4AF17997D240F180EC9E5 SLOAD SWAP1 JUMP JUMPDEST PUSH0 DUP2 DUP2 MSTORE PUSH32 0x82E3548F398F9E7CCE2049E6D440FC95DBD73177A40CA0C3AB538364268D3813 PUSH1 0x20 DUP2 SWAP1 MSTORE PUSH1 0x40 DUP3 KECCAK256 SLOAD DUP1 ISZERO PUSH2 0x7C4 JUMPI PUSH2 0x7BC DUP2 PUSH2 0x1216 JUMP JUMPDEST SWAP5 SWAP4 POP POP POP POP JUMP JUMPDEST PUSH32 0xBBBDC1476A0878F2EF9A893C81F5B6F6EA1B3ACAF18FF47CCB69CD4267D50C88 SLOAD PUSH2 0x7BC JUMP JUMPDEST PUSH0 PUSH2 0x646 PUSH32 0x8C1A510DD229D20456028B268298A0983B173203DDE4AF17997D240F180EC9E3 SLOAD PUSH1 0x1 PUSH1 0x1 PUSH1 0xA0 SHL SUB AND SWAP1 JUMP JUMPDEST PUSH2 0x825 PUSH2 0x1273 JUMP JUMPDEST JUMP JUMPDEST PUSH0 PUSH2 0x65E DUP4 DUP4 PUSH2 0x1418 JUMP JUMPDEST PUSH0 DUP1 SLOAD PUSH1 0x1 PUSH1 0x1 PUSH1 0xA0 SHL SUB DUP4 DUP2 AND SWAP2 AND EQ PUSH2 0x661 JUMP JUMPDEST PUSH2 0x825 PUSH2 0x14AD JUMP JUMPDEST PUSH1 0x1 PUSH1 0x1 PUSH1 0xA0 SHL SUB DUP2 AND PUSH0 SWAP1 DUP2 MSTORE PUSH32 0xBBBDC1476A0878F2EF9A893C81F5B6F6EA1B3ACAF18FF47CCB69CD4267D50C86 PUSH1 0x20 MSTORE PUSH1 0x40 DUP2 KECCAK256 SLOAD PUSH2 0x661 JUMP JUMPDEST PUSH0 PUSH2 0x646 PUSH32 0x92772E537111F1C0E21A798208F79A3CB145ED385207D668C0A82BB719DB43C2 SLOAD PUSH1 0x1 PUSH1 0x1 PUSH1 0xA0 SHL SUB AND SWAP1 JUMP JUMPDEST PUSH2 0x8C7 DUP2 PUSH2 0x185B JUMP JUMPDEST POP JUMP JUMPDEST PUSH0 PUSH2 0x65E DUP4 DUP4 PUSH2 0x186C JUMP JUMPDEST PUSH0 PUSH2 0x65E DUP4 DUP4 PUSH2 0x18A2 JUMP JUMPDEST PUSH1 0x60 PUSH2 0x646 PUSH2 0x18D8 JUMP JUMPDEST PUSH0 PUSH2 0x661 DUP3 PUSH2 0x1216 JUMP JUMPDEST PUSH0 PUSH2 0x65E PUSH2 0x900 PUSH2 0xAB0 JUMP JUMPDEST DUP5 DUP5 PUSH2 0x1929 JUMP JUMPDEST PUSH0 PUSH2 0x661 DUP3 PUSH2 0x1ABF JUMP JUMPDEST PUSH0 DUP3 DUP2 MSTORE PUSH32 0x2E59E4C2E927CDDDBB64E181E0668D9A0FA70DD88F94D999CD87D5496A20DA62 PUSH1 0x20 MSTORE PUSH1 0x40 SWAP1 KECCAK256 PUSH1 0x2 ADD SLOAD PUSH2 0x94A DUP2 PUSH2 0x104A JUMP JUMPDEST PUSH2 0x750 DUP4 DUP4 PUSH2 0x1AF4 JUMP JUMPDEST PUSH1 0x1 PUSH1 0x1 PUSH1 0xA0 SHL SUB DUP1 DUP4 AND PUSH0 SWAP1 DUP2 MSTORE PUSH32 0xBBBDC1476A0878F2EF9A893C81F5B6F6EA1B3ACAF18FF47CCB69CD4267D50C87 PUSH1 0x20 SWAP1 DUP2 MSTORE PUSH1 0x40 DUP1 DUP4 KECCAK256 SWAP4 DUP6 AND DUP4 MSTORE SWAP3 SWAP1 MSTORE SWAP1 DUP2 KECCAK256 SLOAD PUSH2 0x65E JUMP JUMPDEST PUSH2 0x9D5 PUSH1 0x40 MLOAD DUP1 PUSH1 0xA0 ADD PUSH1 0x40 MSTORE DUP1 PUSH0 DUP2 MSTORE PUSH1 0x20 ADD PUSH0 PUSH1 0x1 PUSH1 0x1 PUSH1 0xA0 SHL SUB AND DUP2 MSTORE PUSH1 0x20 ADD PUSH0 DUP2 MSTORE PUSH1 0x20 ADD PUSH0 DUP2 MSTORE PUSH1 0x20 ADD PUSH0 DUP2 MSTORE POP SWAP1 JUMP JUMPDEST PUSH2 0x646 PUSH2 0x1C9E JUMP JUMPDEST PUSH32 0x92772E537111F1C0E21A798208F79A3CB145ED385207D668C0A82BB719DB43B7 DUP1 SLOAD PUSH1 0x60 SWAP2 PUSH32 0x92772E537111F1C0E21A798208F79A3CB145ED385207D668C0A82BB719DB43B6 SWAP2 PUSH2 0xA2E SWAP1 PUSH2 0x2BE2 JUMP JUMPDEST DUP1 PUSH1 0x1F ADD PUSH1 0x20 DUP1 SWAP2 DIV MUL PUSH1 0x20 ADD PUSH1 0x40 MLOAD SWAP1 DUP2 ADD PUSH1 0x40 MSTORE DUP1 SWAP3 SWAP2 SWAP1 DUP2 DUP2 MSTORE PUSH1 0x20 ADD DUP3 DUP1 SLOAD PUSH2 0xA5A SWAP1 PUSH2 0x2BE2 JUMP JUMPDEST DUP1 ISZERO PUSH2 0xAA5 JUMPI DUP1 PUSH1 0x1F LT PUSH2 0xA7C JUMPI PUSH2 0x100 DUP1 DUP4 SLOAD DIV MUL DUP4 MSTORE SWAP2 PUSH1 0x20 ADD SWAP2 PUSH2 0xAA5 JUMP JUMPDEST DUP3 ADD SWAP2 SWAP1 PUSH0 MSTORE PUSH1 0x20 PUSH0 KECCAK256 SWAP1 JUMPDEST DUP2 SLOAD DUP2 MSTORE SWAP1 PUSH1 0x1 ADD SWAP1 PUSH1 0x20 ADD DUP1 DUP4 GT PUSH2 0xA88 JUMPI DUP3 SWAP1 SUB PUSH1 0x1F AND DUP3 ADD SWAP2 JUMPDEST POP POP POP POP POP SWAP2 POP POP SWAP1 JUMP JUMPDEST PUSH0 PUSH2 0x646 PUSH2 0x1DC5 JUMP JUMPDEST PUSH0 PUSH1 0x1 PUSH1 0x1 PUSH1 0xA0 SHL SUB DUP5 AND PUSH2 0xAFA JUMPI PUSH1 0x40 MLOAD PUSH32 0x5A68B7AB00000000000000000000000000000000000000000000000000000000 DUP2 MSTORE PUSH1 0x4 ADD PUSH1 0x40 MLOAD DUP1 SWAP2 SUB SWAP1 REVERT JUMPDEST PUSH1 0x1 PUSH1 0x1 PUSH1 0xA0 SHL SUB DUP4 AND PUSH2 0xB3A JUMPI PUSH1 0x40 MLOAD PUSH32 0xC524160000000000000000000000000000000000000000000000000000000000 DUP2 MSTORE PUSH1 0x4 ADD PUSH1 0x40 MLOAD DUP1 SWAP2 SUB SWAP1 REVERT JUMPDEST PUSH1 0x1 PUSH1 0x1 PUSH1 0xA0 SHL SUB DUP5 DUP2 AND PUSH0 DUP2 DUP2 MSTORE PUSH32 0xBBBDC1476A0878F2EF9A893C81F5B6F6EA1B3ACAF18FF47CCB69CD4267D50C87 PUSH1 0x20 SWAP1 DUP2 MSTORE PUSH1 0x40 DUP1 DUP4 KECCAK256 SWAP5 DUP9 AND DUP1 DUP5 MSTORE SWAP5 DUP3 MSTORE SWAP2 DUP3 SWAP1 KECCAK256 DUP7 SWAP1 SSTORE DUP2 MLOAD DUP7 DUP2 MSTORE SWAP2 MLOAD PUSH32 0x8C5BE1E5EBEC7D5BD14F71427D1E84F3DD0314C0F7B2291E5B200AC8C7C3B925 SWAP3 DUP2 SWAP1 SUB SWAP1 SWAP2 ADD SWAP1 LOG3 POP PUSH1 0x1 SWAP4 SWAP3 POP POP POP JUMP JUMPDEST PUSH0 PUSH32 0x92772E537111F1C0E21A798208F79A3CB145ED385207D668C0A82BB719DB43B6 PUSH2 0xC12 PUSH32 0xA75205B8583660BDAD375C0CCDE11AF17668D76A408A9A5E739251B0F7C59870 PUSH2 0xC0D PUSH2 0xAB0 JUMP JUMPDEST PUSH2 0x18A2 JUMP JUMPDEST ISZERO PUSH2 0xC2D JUMPI PUSH2 0xC22 DUP6 DUP6 DUP6 PUSH2 0x1929 JUMP JUMPDEST POP PUSH1 0x1 SWAP2 POP POP PUSH2 0x6D1 JUMP JUMPDEST PUSH2 0xC3D PUSH2 0xC38 PUSH2 0xAB0 JUMP JUMPDEST PUSH2 0x1DCE JUMP JUMPDEST PUSH2 0xC8E JUMPI PUSH1 0x40 MLOAD PUSH3 0x461BCD PUSH1 0xE5 SHL DUP2 MSTORE PUSH1 0x20 PUSH1 0x4 DUP3 ADD DUP2 SWAP1 MSTORE PUSH1 0x24 DUP3 ADD MSTORE PUSH32 0x5468697320636F6E7472616374206973206E6F742077686974656C6973746564 PUSH1 0x44 DUP3 ADD MSTORE PUSH1 0x64 ADD JUMPDEST PUSH1 0x40 MLOAD DUP1 SWAP2 SUB SWAP1 REVERT JUMPDEST PUSH1 0x4 DUP2 SLOAD PUSH1 0xFF AND PUSH1 0x4 DUP2 GT ISZERO PUSH2 0xCA6 JUMPI PUSH2 0xCA6 PUSH2 0x2AD9 JUMP JUMPDEST SUB PUSH2 0xD19 JUMPI PUSH1 0x40 MLOAD PUSH3 0x461BCD PUSH1 0xE5 SHL DUP2 MSTORE PUSH1 0x20 PUSH1 0x4 DUP3 ADD MSTORE PUSH1 0x33 PUSH1 0x24 DUP3 ADD MSTORE PUSH32 0x4E6F207472616E736665722063616E20626520646F6E65207768656E20746865 PUSH1 0x44 DUP3 ADD MSTORE PUSH32 0x2072656769737465722069732046726F7A656E00000000000000000000000000 PUSH1 0x64 DUP3 ADD MSTORE PUSH1 0x84 ADD PUSH2 0xC85 JUMP JUMPDEST PUSH1 0x1 DUP2 SLOAD PUSH1 0xFF AND PUSH1 0x4 DUP2 GT ISZERO PUSH2 0xD31 JUMPI PUSH2 0xD31 PUSH2 0x2AD9 JUMP JUMPDEST EQ DUP1 ISZERO PUSH2 0xD63 JUMPI POP PUSH2 0xD63 PUSH32 0xF698AF62C65280E4949BCEEC64B760F3B7738217CBC536CDFC4C9463676B05C2 DUP6 PUSH2 0x18A2 JUMP JUMPDEST DUP1 ISZERO PUSH2 0xD7E JUMPI POP PUSH1 0xC DUP2 ADD SLOAD PUSH1 0x1 PUSH1 0x1 PUSH1 0xA0 SHL SUB DUP7 DUP2 AND SWAP2 AND EQ JUMPDEST ISZERO PUSH2 0xEDF JUMPI DUP1 SLOAD PUSH1 0x2 PUSH1 0xFF NOT SWAP1 SWAP2 AND DUP2 OR DUP3 SSTORE PUSH32 0x92772E537111F1C0E21A798208F79A3CB145ED385207D668C0A82BB719DB43C4 DUP1 SLOAD PUSH1 0x1 DUP2 DUP2 ADD SWAP1 SWAP3 SSTORE PUSH32 0x85557345690608B4957B188F871BAB8DED927F8A43545EBAD43D0B58C8DDA445 DUP2 ADD DUP1 SLOAD PUSH1 0x1 PUSH1 0x1 PUSH1 0xA0 SHL SUB DUP10 AND PUSH32 0xFFFFFFFFFFFFFFFFFFFFFFFF0000000000000000000000000000000000000000 SWAP2 DUP3 AND DUP2 OR SWAP1 SWAP3 SSTORE PUSH0 DUP3 DUP2 MSTORE PUSH32 0x92772E537111F1C0E21A798208F79A3CB145ED385207D668C0A82BB719DB43C3 PUSH1 0x20 MSTORE PUSH1 0x40 SWAP1 KECCAK256 SWAP4 DUP5 ADD SWAP3 SWAP1 SWAP3 SSTORE DUP3 SLOAD SWAP4 DUP4 ADD DUP1 SLOAD SWAP1 SWAP3 AND SWAP1 SWAP2 SSTORE PUSH32 0xFFFFFFFFFFFFFFFFFFFFFF000000000000000000000000000000000000000000 SWAP1 SWAP3 AND SWAP1 SWAP2 OR SWAP1 SSTORE PUSH2 0xE85 PUSH2 0xAB0 JUMP JUMPDEST DUP2 SLOAD PUSH1 0x40 MLOAD PUSH1 0x1 PUSH1 0x1 PUSH1 0xA0 SHL SUB SWAP3 SWAP1 SWAP3 AND SWAP2 PUSH32 0xDA2010ACFDA7A262372331CB3B57E3F648F63EB009A423A2B5602CFA4F9BFF51 SWAP2 PUSH2 0xED2 SWAP2 PUSH1 0x1 DUP7 ADD SWAP2 PUSH1 0x2 DUP8 ADD SWAP2 PUSH1 0xFF SWAP1 SWAP2 AND SWAP1 PUSH2 0x2CB9 JUMP JUMPDEST PUSH1 0x40 MLOAD DUP1 SWAP2 SUB SWAP1 LOG2 PUSH2 0x103F JUMP JUMPDEST PUSH2 0xF26 DUP5 PUSH1 0x1 PUSH1 0x1 PUSH1 0xA0 SHL SUB AND PUSH0 SWAP1 DUP2 MSTORE PUSH32 0x92772E537111F1C0E21A798208F79A3CB145ED385207D668C0A82BB719DB43C3 PUSH1 0x20 MSTORE PUSH1 0x40 SWAP1 KECCAK256 SLOAD PUSH1 0x1 PUSH1 0xA0 SHL SWAP1 DIV PUSH1 0xFF AND SWAP1 JUMP JUMPDEST ISZERO ISZERO PUSH1 0x1 EQ PUSH2 0xF77 JUMPI PUSH1 0x40 MLOAD PUSH3 0x461BCD PUSH1 0xE5 SHL DUP2 MSTORE PUSH1 0x20 PUSH1 0x4 DUP3 ADD MSTORE PUSH1 0x1B PUSH1 0x24 DUP3 ADD MSTORE PUSH32 0x546865207265636569766572206973206E6F7420616C6C6F7765640000000000 PUSH1 0x44 DUP3 ADD MSTORE PUSH1 0x64 ADD PUSH2 0xC85 JUMP JUMPDEST PUSH2 0xFBE DUP6 PUSH1 0x1 PUSH1 0x1 PUSH1 0xA0 SHL SUB AND PUSH0 SWAP1 DUP2 MSTORE PUSH32 0x92772E537111F1C0E21A798208F79A3CB145ED385207D668C0A82BB719DB43C3 PUSH1 0x20 MSTORE PUSH1 0x40 SWAP1 KECCAK256 SLOAD PUSH1 0x1 PUSH1 0xA0 SHL SWAP1 DIV PUSH1 0xFF AND SWAP1 JUMP JUMPDEST ISZERO ISZERO PUSH1 0x1 EQ DUP1 PUSH2 0xFF3 JUMPI POP PUSH2 0xFF3 PUSH32 0xF698AF62C65280E4949BCEEC64B760F3B7738217CBC536CDFC4C9463676B05C2 DUP7 PUSH2 0x18A2 JUMP JUMPDEST PUSH2 0x103F JUMPI PUSH1 0x40 MLOAD PUSH3 0x461BCD PUSH1 0xE5 SHL DUP2 MSTORE PUSH1 0x20 PUSH1 0x4 DUP3 ADD MSTORE PUSH1 0x19 PUSH1 0x24 DUP3 ADD MSTORE PUSH32 0x5468652073656E646572206973206E6F7420616C6C6F77656400000000000000 PUSH1 0x44 DUP3 ADD MSTORE PUSH1 0x64 ADD PUSH2 0xC85 JUMP JUMPDEST PUSH2 0xC22 DUP6 DUP6 DUP6 PUSH2 0x1929 JUMP JUMPDEST PUSH2 0x8C7 DUP2 PUSH2 0x1056 PUSH2 0xAB0 JUMP JUMPDEST PUSH2 0x1E13 JUMP JUMPDEST DUP2 PUSH2 0x10B9 JUMPI PUSH1 0x40 MLOAD PUSH3 0x461BCD PUSH1 0xE5 SHL DUP2 MSTORE PUSH1 0x20 PUSH1 0x4 DUP3 ADD MSTORE PUSH1 0x24 DUP1 DUP3 ADD MSTORE PUSH32 0x5573652066756E6374696F6E206368616E676541646D696E526F6C6520696E73 PUSH1 0x44 DUP3 ADD MSTORE PUSH4 0x1D195859 PUSH1 0xE2 SHL PUSH1 0x64 DUP3 ADD MSTORE PUSH1 0x84 ADD PUSH2 0xC85 JUMP JUMPDEST PUSH2 0x1208 JUMP JUMPDEST PUSH32 0xA75205B8583660BDAD375C0CCDE11AF17668D76A408A9A5E739251B0F7C59870 DUP3 SUB PUSH2 0x1190 JUMPI PUSH2 0x110C PUSH32 0xA75205B8583660BDAD375C0CCDE11AF17668D76A408A9A5E739251B0F7C59870 PUSH2 0xC0D PUSH2 0xAB0 JUMP JUMPDEST DUP1 PUSH2 0x111E JUMPI POP PUSH2 0x111E PUSH0 PUSH2 0xC0D PUSH2 0xAB0 JUMP JUMPDEST PUSH2 0x10B4 JUMPI PUSH1 0x40 MLOAD PUSH3 0x461BCD PUSH1 0xE5 SHL DUP2 MSTORE PUSH1 0x20 PUSH1 0x4 DUP3 ADD MSTORE PUSH1 0x2E PUSH1 0x24 DUP3 ADD MSTORE PUSH32 0x43616C6C6572206D7573742062652043414B206F722041444D494E20746F2073 PUSH1 0x44 DUP3 ADD MSTORE PUSH32 0x657420616E6F746865722043414B000000000000000000000000000000000000 PUSH1 0x64 DUP3 ADD MSTORE PUSH1 0x84 ADD PUSH2 0xC85 JUMP JUMPDEST PUSH2 0x11BC PUSH32 0xA75205B8583660BDAD375C0CCDE11AF17668D76A408A9A5E739251B0F7C59870 PUSH2 0xC0D PUSH2 0xAB0 JUMP JUMPDEST PUSH2 0x1208 JUMPI PUSH1 0x40 MLOAD PUSH3 0x461BCD PUSH1 0xE5 SHL DUP2 MSTORE PUSH1 0x20 PUSH1 0x4 DUP3 ADD DUP2 SWAP1 MSTORE PUSH1 0x24 DUP3 ADD MSTORE PUSH32 0x43616C6C6572206D7573742062652043414B20746F20736574206120726F6C65 PUSH1 0x44 DUP3 ADD MSTORE PUSH1 0x64 ADD PUSH2 0xC85 JUMP JUMPDEST PUSH2 0x1212 DUP3 DUP3 PUSH2 0x1E75 JUMP JUMPDEST POP POP JUMP JUMPDEST PUSH0 DUP1 DUP1 PUSH2 0x1243 DUP5 PUSH32 0xCD7A55EF023EB5931CC022A9BDC64CB5B46C3A6E53BCAA84915EEA6084F1C7B5 PUSH2 0x1EF8 JUMP JUMPDEST SWAP2 POP SWAP2 POP DUP2 PUSH2 0x6D1 JUMPI PUSH32 0xBBBDC1476A0878F2EF9A893C81F5B6F6EA1B3ACAF18FF47CCB69CD4267D50C88 SLOAD PUSH2 0x7BC JUMP JUMPDEST PUSH32 0x8C1A510DD229D20456028B268298A0983B173203DDE4AF17997D240F180EC9E3 SLOAD PUSH32 0x8C1A510DD229D20456028B268298A0983B173203DDE4AF17997D240F180EC9E2 SWAP1 PUSH1 0x1 PUSH1 0x1 PUSH1 0xA0 SHL SUB AND PUSH2 0x12C8 PUSH2 0xAB0 JUMP JUMPDEST PUSH1 0x1 PUSH1 0x1 PUSH1 0xA0 SHL SUB AND EQ PUSH2 0x1344 JUMPI PUSH1 0x40 MLOAD PUSH3 0x461BCD PUSH1 0xE5 SHL DUP2 MSTORE PUSH1 0x20 PUSH1 0x4 DUP3 ADD MSTORE PUSH1 0x23 PUSH1 0x24 DUP3 ADD MSTORE PUSH32 0x6F6E6C79207468652062656E6566696369617279204226442063616E20726576 PUSH1 0x44 DUP3 ADD MSTORE PUSH32 0x6572740000000000000000000000000000000000000000000000000000000000 PUSH1 0x64 DUP3 ADD MSTORE PUSH1 0x84 ADD PUSH2 0xC85 JUMP JUMPDEST PUSH1 0x4 DUP2 ADD DUP1 SLOAD PUSH1 0xFF PUSH1 0xA0 SHL NOT DUP2 AND PUSH21 0x20000000000000000000000000000000000000000 OR SWAP2 DUP3 SWAP1 SSTORE PUSH1 0x1 PUSH1 0x1 PUSH1 0xA0 SHL SUB AND PUSH0 SWAP1 DUP2 MSTORE PUSH32 0xBBBDC1476A0878F2EF9A893C81F5B6F6EA1B3ACAF18FF47CCB69CD4267D50C86 PUSH1 0x20 MSTORE PUSH1 0x40 SWAP1 KECCAK256 SLOAD PUSH1 0x2 DUP4 ADD SSTORE PUSH1 0x1 PUSH1 0xA0 SHL SWAP1 DIV PUSH1 0xFF AND PUSH1 0x5 DUP2 GT ISZERO PUSH2 0x13C3 JUMPI PUSH2 0x13C3 PUSH2 0x2AD9 JUMP JUMPDEST PUSH1 0x1 DUP3 ADD SLOAD PUSH1 0x4 DUP4 ADD SLOAD PUSH1 0x2 DUP5 ADD SLOAD PUSH1 0x40 MLOAD SWAP1 DUP2 MSTORE PUSH1 0x1 PUSH1 0x1 PUSH1 0xA0 SHL SUB SWAP3 DUP4 AND SWAP3 SWAP1 SWAP2 AND SWAP1 PUSH32 0xB04EFA95C2E317D8AFBA4237350A971F1CE59EF6FBBF2EB3F1A7E3F3F106A8F4 SWAP1 PUSH1 0x20 ADD PUSH1 0x40 MLOAD DUP1 SWAP2 SUB SWAP1 LOG4 POP JUMP JUMPDEST PUSH0 DUP1 DUP1 PUSH2 0x145D DUP5 PUSH32 0xCD7A55EF023EB5931CC022A9BDC64CB5B46C3A6E53BCAA84915EEA6084F1C7B4 PUSH1 0x1 PUSH1 0x1 PUSH1 0xA0 SHL SUB DUP9 AND PUSH0 SWAP1 DUP2 MSTORE PUSH1 0x20 SWAP2 SWAP1 SWAP2 MSTORE PUSH1 0x40 SWAP1 KECCAK256 PUSH2 0x1EF8 JUMP JUMPDEST SWAP2 POP SWAP2 POP DUP2 PUSH2 0x14A2 JUMPI PUSH1 0x1 PUSH1 0x1 PUSH1 0xA0 SHL SUB DUP6 AND PUSH0 SWAP1 DUP2 MSTORE PUSH32 0xBBBDC1476A0878F2EF9A893C81F5B6F6EA1B3ACAF18FF47CCB69CD4267D50C86 PUSH1 0x20 MSTORE PUSH1 0x40 SWAP1 KECCAK256 SLOAD PUSH2 0x14A4 JUMP JUMPDEST DUP1 JUMPDEST SWAP6 SWAP5 POP POP POP POP POP JUMP JUMPDEST PUSH32 0x85E1CA0CB738650CEAE09B8E7A40CBA718D04131DD54B748289DA0A916D2F321 SLOAD PUSH1 0x2 SUB PUSH2 0x1508 JUMPI PUSH1 0x40 MLOAD PUSH32 0xBB6B8F9A00000000000000000000000000000000000000000000000000000000 DUP2 MSTORE PUSH1 0x4 ADD PUSH1 0x40 MLOAD DUP1 SWAP2 SUB SWAP1 REVERT JUMPDEST PUSH2 0x1531 PUSH1 0x2 PUSH32 0x85E1CA0CB738650CEAE09B8E7A40CBA718D04131DD54B748289DA0A916D2F321 SSTORE JUMP JUMPDEST PUSH32 0x8C1A510DD229D20456028B268298A0983B173203DDE4AF17997D240F180EC9E2 PUSH2 0x1562 PUSH2 0x155D PUSH2 0xAB0 JUMP JUMPDEST PUSH2 0x2001 JUMP JUMPDEST PUSH2 0x15AE JUMPI PUSH1 0x40 MLOAD PUSH3 0x461BCD PUSH1 0xE5 SHL DUP2 MSTORE PUSH1 0x20 PUSH1 0x4 DUP3 ADD MSTORE PUSH1 0x14 PUSH1 0x24 DUP3 ADD MSTORE PUSH32 0x53656E646572206D757374206265206120422644000000000000000000000000 PUSH1 0x44 DUP3 ADD MSTORE PUSH1 0x64 ADD PUSH2 0xC85 JUMP JUMPDEST PUSH1 0x1 DUP2 ADD SLOAD PUSH1 0x1 PUSH1 0x1 PUSH1 0xA0 SHL SUB AND PUSH2 0x15C4 PUSH2 0xAB0 JUMP JUMPDEST PUSH1 0x1 PUSH1 0x1 PUSH1 0xA0 SHL SUB AND EQ PUSH2 0x1640 JUMPI PUSH1 0x40 MLOAD PUSH3 0x461BCD PUSH1 0xE5 SHL DUP2 MSTORE PUSH1 0x20 PUSH1 0x4 DUP3 ADD MSTORE PUSH1 0x28 PUSH1 0x24 DUP3 ADD MSTORE PUSH32 0x6F6E6C79207468652062656E6566696369617279204226442073686F756C6420 PUSH1 0x44 DUP3 ADD MSTORE PUSH32 0x66696E616C697A65000000000000000000000000000000000000000000000000 PUSH1 0x64 DUP3 ADD MSTORE PUSH1 0x84 ADD PUSH2 0xC85 JUMP JUMPDEST PUSH1 0x3 PUSH1 0x4 DUP3 ADD SLOAD PUSH1 0x1 PUSH1 0xA0 SHL SWAP1 DIV PUSH1 0xFF AND PUSH1 0x5 DUP2 GT ISZERO PUSH2 0x1662 JUMPI PUSH2 0x1662 PUSH2 0x2AD9 JUMP JUMPDEST EQ ISZERO DUP1 ISZERO PUSH2 0x168F JUMPI POP PUSH1 0x4 DUP1 DUP3 ADD SLOAD PUSH1 0x1 PUSH1 0xA0 SHL SWAP1 DIV PUSH1 0xFF AND PUSH1 0x5 DUP2 GT ISZERO PUSH2 0x168C JUMPI PUSH2 0x168C PUSH2 0x2AD9 JUMP JUMPDEST EQ ISZERO JUMPDEST PUSH2 0x1701 JUMPI PUSH1 0x40 MLOAD PUSH3 0x461BCD PUSH1 0xE5 SHL DUP2 MSTORE PUSH1 0x20 PUSH1 0x4 DUP3 ADD MSTORE PUSH1 0x31 PUSH1 0x24 DUP3 ADD MSTORE PUSH32 0x546865207072696D61727920636F6E74726163742073686F756C642062652069 PUSH1 0x44 DUP3 ADD MSTORE PUSH32 0x6E20696E69746961746564207374617465000000000000000000000000000000 PUSH1 0x64 DUP3 ADD MSTORE PUSH1 0x84 ADD PUSH2 0xC85 JUMP JUMPDEST PUSH1 0x4 DUP2 ADD SLOAD PUSH1 0x1 PUSH1 0x1 PUSH1 0xA0 SHL SUB AND PUSH0 SWAP1 DUP2 MSTORE PUSH32 0xBBBDC1476A0878F2EF9A893C81F5B6F6EA1B3ACAF18FF47CCB69CD4267D50C86 PUSH1 0x20 MSTORE PUSH1 0x40 SWAP1 KECCAK256 SLOAD PUSH1 0x2 DUP3 ADD DUP2 SWAP1 SSTORE ISZERO PUSH2 0x1831 JUMPI PUSH1 0x4 DUP2 ADD SLOAD PUSH1 0x1 DUP3 ADD SLOAD PUSH1 0x2 DUP4 ADD SLOAD PUSH2 0x176E SWAP3 PUSH1 0x1 PUSH1 0x1 PUSH1 0xA0 SHL SUB SWAP1 DUP2 AND SWAP3 AND SWAP1 PUSH2 0xBBF JUMP JUMPDEST PUSH2 0x17BA JUMPI PUSH1 0x40 MLOAD PUSH3 0x461BCD PUSH1 0xE5 SHL DUP2 MSTORE PUSH1 0x20 PUSH1 0x4 DUP3 ADD MSTORE PUSH1 0x17 PUSH1 0x24 DUP3 ADD MSTORE PUSH32 0x746865207472616E7366657220686173206661696C6564000000000000000000 PUSH1 0x44 DUP3 ADD MSTORE PUSH1 0x64 ADD PUSH2 0xC85 JUMP JUMPDEST PUSH1 0x4 DUP2 ADD DUP1 SLOAD PUSH21 0x30000000000000000000000000000000000000000 PUSH1 0xFF PUSH1 0xA0 SHL NOT DUP3 AND OR SWAP1 SWAP2 SSTORE PUSH1 0x1 DUP3 ADD SLOAD PUSH1 0x2 DUP4 ADD SLOAD PUSH1 0x40 MLOAD SWAP1 DUP2 MSTORE PUSH1 0x3 SWAP3 PUSH1 0x1 PUSH1 0x1 PUSH1 0xA0 SHL SUB SWAP3 DUP4 AND SWAP3 AND SWAP1 PUSH32 0xB04EFA95C2E317D8AFBA4237350A971F1CE59EF6FBBF2EB3F1A7E3F3F106A8F4 SWAP1 PUSH1 0x20 ADD PUSH1 0x40 MLOAD DUP1 SWAP2 SUB SWAP1 LOG4 JUMPDEST POP PUSH2 0x825 PUSH1 0x1 PUSH32 0x85E1CA0CB738650CEAE09B8E7A40CBA718D04131DD54B748289DA0A916D2F321 SSTORE JUMP JUMPDEST PUSH2 0x8C7 DUP2 PUSH2 0x1867 PUSH2 0xAB0 JUMP JUMPDEST PUSH2 0x1AF4 JUMP JUMPDEST PUSH0 DUP3 DUP2 MSTORE PUSH32 0x2E59E4C2E927CDDDBB64E181E0668D9A0FA70DD88F94D999CD87D5496A20DA62 PUSH1 0x20 MSTORE PUSH1 0x40 DUP2 KECCAK256 PUSH2 0x65E SWAP1 DUP4 PUSH2 0x202C JUMP JUMPDEST PUSH0 DUP3 DUP2 MSTORE PUSH32 0x2E59E4C2E927CDDDBB64E181E0668D9A0FA70DD88F94D999CD87D5496A20DA62 PUSH1 0x20 MSTORE PUSH1 0x40 DUP2 KECCAK256 PUSH2 0x65E SWAP1 DUP4 PUSH2 0x2037 JUMP JUMPDEST PUSH32 0x92772E537111F1C0E21A798208F79A3CB145ED385207D668C0A82BB719DB43B8 DUP1 SLOAD PUSH1 0x60 SWAP2 PUSH32 0x92772E537111F1C0E21A798208F79A3CB145ED385207D668C0A82BB719DB43B6 SWAP2 PUSH2 0xA2E SWAP1 PUSH2 0x2BE2 JUMP JUMPDEST PUSH0 PUSH1 0x1 PUSH1 0x1 PUSH1 0xA0 SHL SUB DUP5 AND PUSH2 0x196A JUMPI PUSH1 0x40 MLOAD PUSH32 0x68551D5F00000000000000000000000000000000000000000000000000000000 DUP2 MSTORE PUSH1 0x4 ADD PUSH1 0x40 MLOAD DUP1 SWAP2 SUB SWAP1 REVERT JUMPDEST PUSH1 0x1 PUSH1 0x1 PUSH1 0xA0 SHL SUB DUP4 AND PUSH2 0x19AA JUMPI PUSH1 0x40 MLOAD PUSH32 0x8289914400000000000000000000000000000000000000000000000000000000 DUP2 MSTORE PUSH1 0x4 ADD PUSH1 0x40 MLOAD DUP1 SWAP2 SUB SWAP1 REVERT JUMPDEST PUSH2 0x19B5 DUP5 DUP5 DUP5 PUSH2 0x2058 JUMP JUMPDEST PUSH1 0x1 PUSH1 0x1 PUSH1 0xA0 SHL SUB DUP5 AND PUSH0 SWAP1 DUP2 MSTORE PUSH32 0xBBBDC1476A0878F2EF9A893C81F5B6F6EA1B3ACAF18FF47CCB69CD4267D50C86 PUSH1 0x20 DUP2 SWAP1 MSTORE PUSH1 0x40 SWAP1 SWAP2 KECCAK256 SLOAD DUP1 DUP5 GT ISZERO PUSH2 0x1A29 JUMPI PUSH1 0x40 MLOAD PUSH32 0x7183160B00000000000000000000000000000000000000000000000000000000 DUP2 MSTORE PUSH1 0x4 ADD PUSH1 0x40 MLOAD DUP1 SWAP2 SUB SWAP1 REVERT JUMPDEST PUSH1 0x1 PUSH1 0x1 PUSH1 0xA0 SHL SUB DUP1 DUP8 AND PUSH0 SWAP1 DUP2 MSTORE PUSH1 0x20 DUP5 SWAP1 MSTORE PUSH1 0x40 DUP1 DUP3 KECCAK256 DUP8 DUP6 SUB SWAP1 SSTORE SWAP2 DUP8 AND DUP2 MSTORE SWAP1 DUP2 KECCAK256 DUP1 SLOAD DUP7 SWAP3 SWAP1 PUSH2 0x1A5F SWAP1 DUP5 SWAP1 PUSH2 0x2D12 JUMP JUMPDEST SWAP3 POP POP DUP2 SWAP1 SSTORE POP DUP5 PUSH1 0x1 PUSH1 0x1 PUSH1 0xA0 SHL SUB AND DUP7 PUSH1 0x1 PUSH1 0x1 PUSH1 0xA0 SHL SUB AND PUSH32 0xDDF252AD1BE2C89B69C2B068FC378DAA952BA7F163C4A11628F55A4DF523B3EF DUP7 PUSH1 0x40 MLOAD PUSH2 0x1AAB SWAP2 DUP2 MSTORE PUSH1 0x20 ADD SWAP1 JUMP JUMPDEST PUSH1 0x40 MLOAD DUP1 SWAP2 SUB SWAP1 LOG3 POP PUSH1 0x1 SWAP6 SWAP5 POP POP POP POP POP JUMP JUMPDEST PUSH0 DUP2 DUP2 MSTORE PUSH32 0x2E59E4C2E927CDDDBB64E181E0668D9A0FA70DD88F94D999CD87D5496A20DA62 PUSH1 0x20 MSTORE PUSH1 0x40 DUP2 KECCAK256 PUSH2 0x661 SWAP1 PUSH2 0x21F1 JUMP JUMPDEST DUP2 PUSH2 0x1B4D JUMPI PUSH1 0x40 MLOAD PUSH3 0x461BCD PUSH1 0xE5 SHL DUP2 MSTORE PUSH1 0x20 PUSH1 0x4 DUP3 ADD MSTORE PUSH1 0x24 DUP1 DUP3 ADD MSTORE PUSH32 0x5573652066756E6374696F6E206368616E676541646D696E526F6C6520696E73 PUSH1 0x44 DUP3 ADD MSTORE PUSH4 0x1D195859 PUSH1 0xE2 SHL PUSH1 0x64 DUP3 ADD MSTORE PUSH1 0x84 ADD PUSH2 0xC85 JUMP JUMPDEST PUSH32 0xA75205B8583660BDAD375C0CCDE11AF17668D76A408A9A5E739251B0F7C59870 DUP3 SUB PUSH2 0x1BF6 JUMPI PUSH2 0x1B80 PUSH0 PUSH2 0xC0D PUSH2 0xAB0 JUMP JUMPDEST PUSH2 0x1BF1 JUMPI PUSH1 0x40 MLOAD PUSH3 0x461BCD PUSH1 0xE5 SHL DUP2 MSTORE PUSH1 0x20 PUSH1 0x4 DUP3 ADD MSTORE PUSH1 0x24 DUP1 DUP3 ADD MSTORE PUSH32 0x43616C6C6572206D7573742062652041444D494E20746F2072656D6F76652061 PUSH1 0x44 DUP3 ADD MSTORE PUSH32 0x2043414B00000000000000000000000000000000000000000000000000000000 PUSH1 0x64 DUP3 ADD MSTORE PUSH1 0x84 ADD PUSH2 0xC85 JUMP JUMPDEST PUSH2 0x1C94 JUMP JUMPDEST PUSH2 0x1C22 PUSH32 0xA75205B8583660BDAD375C0CCDE11AF17668D76A408A9A5E739251B0F7C59870 PUSH2 0xC0D PUSH2 0xAB0 JUMP JUMPDEST PUSH2 0x1C94 JUMPI PUSH1 0x40 MLOAD PUSH3 0x461BCD PUSH1 0xE5 SHL DUP2 MSTORE PUSH1 0x20 PUSH1 0x4 DUP3 ADD MSTORE PUSH1 0x23 PUSH1 0x24 DUP3 ADD MSTORE PUSH32 0x43616C6C6572206D7573742062652043414B20746F2072656D6F766520612072 PUSH1 0x44 DUP3 ADD MSTORE PUSH32 0x6F6C650000000000000000000000000000000000000000000000000000000000 PUSH1 0x64 DUP3 ADD MSTORE PUSH1 0x84 ADD PUSH2 0xC85 JUMP JUMPDEST PUSH2 0x1212 DUP3 DUP3 PUSH2 0x21FA JUMP JUMPDEST PUSH2 0x1CD4 PUSH1 0x40 MLOAD DUP1 PUSH1 0xA0 ADD PUSH1 0x40 MSTORE DUP1 PUSH0 DUP2 MSTORE PUSH1 0x20 ADD PUSH0 PUSH1 0x1 PUSH1 0x1 PUSH1 0xA0 SHL SUB AND DUP2 MSTORE PUSH1 0x20 ADD PUSH0 DUP2 MSTORE PUSH1 0x20 ADD PUSH0 DUP2 MSTORE PUSH1 0x20 ADD PUSH0 DUP2 MSTORE POP SWAP1 JUMP JUMPDEST PUSH1 0x40 DUP1 MLOAD PUSH1 0xA0 DUP2 ADD DUP3 MSTORE PUSH32 0x8C1A510DD229D20456028B268298A0983B173203DDE4AF17997D240F180EC9E4 SLOAD DUP2 MSTORE PUSH32 0x8C1A510DD229D20456028B268298A0983B173203DDE4AF17997D240F180EC9E3 SLOAD PUSH1 0x1 PUSH1 0x1 PUSH1 0xA0 SHL SUB AND PUSH1 0x20 DUP3 ADD MSTORE PUSH32 0x8C1A510DD229D20456028B268298A0983B173203DDE4AF17997D240F180EC9E2 SWAP2 PUSH0 SWAP2 SWAP1 DUP2 ADD PUSH2 0x1D81 PUSH32 0x92772E537111F1C0E21A798208F79A3CB145ED385207D668C0A82BB719DB43BD SLOAD SWAP1 JUMP JUMPDEST DUP2 MSTORE PUSH1 0x20 ADD PUSH2 0x1DAE PUSH32 0x92772E537111F1C0E21A798208F79A3CB145ED385207D668C0A82BB719DB43BE SLOAD SWAP1 JUMP JUMPDEST DUP2 MSTORE PUSH1 0x20 ADD DUP4 PUSH1 0x3 ADD SLOAD DUP2 MSTORE POP SWAP1 POP DUP1 SWAP3 POP POP POP SWAP1 JUMP JUMPDEST PUSH0 PUSH2 0x646 PUSH2 0x227D JUMP JUMPDEST PUSH0 PUSH32 0xAD23B20A8D3B04B57AC5EEFBD00CB491B7EF4801D0B23A5DA6C241252CA912CE DUP2 PUSH2 0x1DFA DUP5 PUSH2 0x22AF JUMP JUMPDEST PUSH0 SWAP1 DUP2 MSTORE PUSH1 0x20 SWAP3 SWAP1 SWAP3 MSTORE POP PUSH1 0x40 SWAP1 KECCAK256 SLOAD PUSH1 0xFF AND SWAP3 SWAP2 POP POP JUMP JUMPDEST PUSH2 0x1E1D DUP3 DUP3 PUSH2 0x18A2 JUMP JUMPDEST PUSH2 0x1212 JUMPI PUSH2 0x1E33 DUP2 PUSH1 0x1 PUSH1 0x1 PUSH1 0xA0 SHL SUB AND PUSH2 0x22DF JUMP JUMPDEST PUSH2 0x1E3E DUP4 PUSH1 0x20 PUSH2 0x22F1 JUMP JUMPDEST PUSH1 0x40 MLOAD PUSH1 0x20 ADD PUSH2 0x1E4F SWAP3 SWAP2 SWAP1 PUSH2 0x2D25 JUMP JUMPDEST PUSH1 0x40 DUP1 MLOAD PUSH1 0x1F NOT DUP2 DUP5 SUB ADD DUP2 MSTORE SWAP1 DUP3 SWAP1 MSTORE PUSH3 0x461BCD PUSH1 0xE5 SHL DUP3 MSTORE PUSH2 0xC85 SWAP2 PUSH1 0x4 ADD PUSH2 0x2A64 JUMP JUMPDEST PUSH0 DUP3 DUP2 MSTORE PUSH32 0x2E59E4C2E927CDDDBB64E181E0668D9A0FA70DD88F94D999CD87D5496A20DA62 PUSH1 0x20 MSTORE PUSH1 0x40 SWAP1 KECCAK256 PUSH2 0x1EAB SWAP1 DUP3 PUSH2 0x249C JUMP JUMPDEST POP PUSH2 0x1EB4 PUSH2 0xAB0 JUMP JUMPDEST PUSH1 0x1 PUSH1 0x1 PUSH1 0xA0 SHL SUB AND DUP2 PUSH1 0x1 PUSH1 0x1 PUSH1 0xA0 SHL SUB AND DUP4 PUSH32 0x2F8788117E7EFF1D82E926EC794901D17C78024A50270940304540A733656F0D PUSH1 0x40 MLOAD PUSH1 0x40 MLOAD DUP1 SWAP2 SUB SWAP1 LOG4 POP POP JUMP JUMPDEST PUSH0 DUP1 DUP4 PUSH0 SUB PUSH2 0x1F33 JUMPI PUSH1 0x40 MLOAD PUSH32 0x6E6AE24700000000000000000000000000000000000000000000000000000000 DUP2 MSTORE PUSH1 0x4 ADD PUSH1 0x40 MLOAD DUP1 SWAP2 SUB SWAP1 REVERT JUMPDEST PUSH32 0xCD7A55EF023EB5931CC022A9BDC64CB5B46C3A6E53BCAA84915EEA6084F1C7B7 SLOAD PUSH32 0xCD7A55EF023EB5931CC022A9BDC64CB5B46C3A6E53BCAA84915EEA6084F1C7B4 SWAP1 DUP6 GT ISZERO PUSH2 0x1FB0 JUMPI PUSH1 0x40 MLOAD PUSH32 0x3609372A00000000000000000000000000000000000000000000000000000000 DUP2 MSTORE PUSH1 0x4 ADD PUSH1 0x40 MLOAD DUP1 SWAP2 SUB SWAP1 REVERT JUMPDEST PUSH0 PUSH2 0x1FBB DUP6 DUP8 PUSH2 0x24B0 JUMP JUMPDEST DUP6 SLOAD SWAP1 SWAP2 POP DUP2 SUB PUSH2 0x1FD3 JUMPI PUSH0 DUP1 SWAP4 POP SWAP4 POP POP POP PUSH2 0x1FFA JUMP JUMPDEST PUSH1 0x1 DUP6 PUSH1 0x1 ADD DUP3 DUP2 SLOAD DUP2 LT PUSH2 0x1FEA JUMPI PUSH2 0x1FEA PUSH2 0x2DA5 JUMP JUMPDEST SWAP1 PUSH0 MSTORE PUSH1 0x20 PUSH0 KECCAK256 ADD SLOAD SWAP4 POP SWAP4 POP POP POP JUMPDEST SWAP3 POP SWAP3 SWAP1 POP JUMP JUMPDEST PUSH0 PUSH2 0x661 PUSH32 0xF698AF62C65280E4949BCEEC64B760F3B7738217CBC536CDFC4C9463676B05C2 DUP4 PUSH2 0x18A2 JUMP JUMPDEST PUSH0 PUSH2 0x65E DUP4 DUP4 PUSH2 0x2552 JUMP JUMPDEST PUSH1 0x1 PUSH1 0x1 PUSH1 0xA0 SHL SUB DUP2 AND PUSH0 SWAP1 DUP2 MSTORE PUSH1 0x1 DUP4 ADD PUSH1 0x20 MSTORE PUSH1 0x40 DUP2 KECCAK256 SLOAD ISZERO ISZERO PUSH2 0x65E JUMP JUMPDEST PUSH32 0x82E3548F398F9E7CCE2049E6D440FC95DBD73177A40CA0C3AB538364268D3817 SLOAD PUSH32 0x82E3548F398F9E7CCE2049E6D440FC95DBD73177A40CA0C3AB538364268D3813 SWAP1 PUSH1 0xFF AND ISZERO PUSH2 0x20B5 JUMPI PUSH1 0x4 DUP2 ADD DUP1 SLOAD PUSH1 0xFF NOT AND SWAP1 SSTORE PUSH2 0x21D7 JUMP JUMPDEST PUSH0 DUP2 PUSH1 0x1 ADD SLOAD GT PUSH2 0x2154 JUMPI PUSH1 0x40 MLOAD PUSH3 0x461BCD PUSH1 0xE5 SHL DUP2 MSTORE PUSH1 0x20 PUSH1 0x4 DUP3 ADD MSTORE PUSH1 0x4F PUSH1 0x24 DUP3 ADD MSTORE PUSH32 0x746865207265676973746572206973206C6F636B65642062656361757365206E PUSH1 0x44 DUP3 ADD MSTORE PUSH32 0x6F20636F75706F6E206973207072657061726564206F7220746865206D617475 PUSH1 0x64 DUP3 ADD MSTORE PUSH32 0x7269747920697320726561636865640000000000000000000000000000000000 PUSH1 0x84 DUP3 ADD MSTORE PUSH1 0xA4 ADD PUSH2 0xC85 JUMP JUMPDEST DUP1 PUSH1 0x1 ADD SLOAD TIMESTAMP LT PUSH2 0x21D7 JUMPI PUSH0 DUP2 PUSH1 0x2 ADD SLOAD GT PUSH2 0x21D7 JUMPI PUSH1 0x40 MLOAD PUSH3 0x461BCD PUSH1 0xE5 SHL DUP2 MSTORE PUSH1 0x20 PUSH1 0x4 DUP3 ADD MSTORE PUSH1 0x24 DUP1 DUP3 ADD MSTORE PUSH32 0x746865206D61747572697479206375742D6F66662074696D6520686173207061 PUSH1 0x44 DUP3 ADD MSTORE PUSH32 0x7373656400000000000000000000000000000000000000000000000000000000 PUSH1 0x64 DUP3 ADD MSTORE PUSH1 0x84 ADD PUSH2 0xC85 JUMP JUMPDEST PUSH2 0x21DF PUSH2 0x25B3 JUMP JUMPDEST POP PUSH2 0x21EB DUP5 DUP5 DUP5 PUSH2 0x26C9 JUMP JUMPDEST POP POP POP POP JUMP JUMPDEST PUSH0 PUSH2 0x661 DUP3 SLOAD SWAP1 JUMP JUMPDEST PUSH0 DUP3 DUP2 MSTORE PUSH32 0x2E59E4C2E927CDDDBB64E181E0668D9A0FA70DD88F94D999CD87D5496A20DA62 PUSH1 0x20 MSTORE PUSH1 0x40 SWAP1 KECCAK256 PUSH2 0x2230 SWAP1 DUP3 PUSH2 0x2711 JUMP JUMPDEST POP PUSH2 0x2239 PUSH2 0xAB0 JUMP JUMPDEST PUSH1 0x1 PUSH1 0x1 PUSH1 0xA0 SHL SUB AND DUP2 PUSH1 0x1 PUSH1 0x1 PUSH1 0xA0 SHL SUB AND DUP4 PUSH32 0xF6391F5C32D9C69D2A47EA670B442974B53935D1EDC7FD64EB21E047A839171B PUSH1 0x40 MLOAD PUSH1 0x40 MLOAD DUP1 SWAP2 SUB SWAP1 LOG4 POP POP JUMP JUMPDEST PUSH0 DUP1 SLOAD PUSH1 0x1 PUSH1 0x1 PUSH1 0xA0 SHL SUB AND CALLER EQ DUP1 ISZERO PUSH2 0x2298 JUMPI POP PUSH1 0x14 CALLDATASIZE LT ISZERO JUMPDEST ISZERO PUSH2 0x22AA JUMPI POP PUSH1 0x13 NOT CALLDATASIZE ADD CALLDATALOAD PUSH1 0x60 SHR SWAP1 JUMP JUMPDEST POP CALLER SWAP1 JUMP JUMPDEST PUSH1 0x40 DUP1 MLOAD PUSH1 0x3F DUP4 EXTCODESIZE SWAP1 DUP2 ADD PUSH1 0x1F NOT AND DUP3 ADD SWAP1 SWAP3 MSTORE DUP2 DUP2 MSTORE PUSH0 SWAP2 DUP1 DUP4 PUSH1 0x20 DUP5 ADD DUP7 EXTCODECOPY POP DUP1 MLOAD PUSH1 0x20 SWAP1 SWAP2 ADD KECCAK256 SWAP3 SWAP2 POP POP JUMP JUMPDEST PUSH1 0x60 PUSH2 0x661 PUSH1 0x1 PUSH1 0x1 PUSH1 0xA0 SHL SUB DUP4 AND PUSH1 0x14 JUMPDEST PUSH1 0x60 PUSH0 PUSH2 0x22FF DUP4 PUSH1 0x2 PUSH2 0x2DB9 JUMP JUMPDEST PUSH2 0x230A SWAP1 PUSH1 0x2 PUSH2 0x2D12 JUMP JUMPDEST PUSH8 0xFFFFFFFFFFFFFFFF DUP2 GT ISZERO PUSH2 0x2322 JUMPI PUSH2 0x2322 PUSH2 0x2DD0 JUMP JUMPDEST PUSH1 0x40 MLOAD SWAP1 DUP1 DUP3 MSTORE DUP1 PUSH1 0x1F ADD PUSH1 0x1F NOT AND PUSH1 0x20 ADD DUP3 ADD PUSH1 0x40 MSTORE DUP1 ISZERO PUSH2 0x234C JUMPI PUSH1 0x20 DUP3 ADD DUP2 DUP1 CALLDATASIZE DUP4 CALLDATACOPY ADD SWAP1 POP JUMPDEST POP SWAP1 POP PUSH32 0x3000000000000000000000000000000000000000000000000000000000000000 DUP2 PUSH0 DUP2 MLOAD DUP2 LT PUSH2 0x2382 JUMPI PUSH2 0x2382 PUSH2 0x2DA5 JUMP JUMPDEST PUSH1 0x20 ADD ADD SWAP1 PUSH1 0x1 PUSH1 0x1 PUSH1 0xF8 SHL SUB NOT AND SWAP1 DUP2 PUSH0 BYTE SWAP1 MSTORE8 POP PUSH32 0x7800000000000000000000000000000000000000000000000000000000000000 DUP2 PUSH1 0x1 DUP2 MLOAD DUP2 LT PUSH2 0x23CC JUMPI PUSH2 0x23CC PUSH2 0x2DA5 JUMP JUMPDEST PUSH1 0x20 ADD ADD SWAP1 PUSH1 0x1 PUSH1 0x1 PUSH1 0xF8 SHL SUB NOT AND SWAP1 DUP2 PUSH0 BYTE SWAP1 MSTORE8 POP PUSH1 0x1 PUSH1 0x2 DUP5 MUL ADD JUMPDEST PUSH1 0x1 DUP2 GT ISZERO PUSH2 0x2463 JUMPI PUSH32 0x3031323334353637383961626364656600000000000000000000000000000000 DUP6 PUSH1 0xF AND PUSH1 0x10 DUP2 LT PUSH2 0x2428 JUMPI PUSH2 0x2428 PUSH2 0x2DA5 JUMP JUMPDEST BYTE PUSH1 0xF8 SHL DUP3 DUP3 DUP2 MLOAD DUP2 LT PUSH2 0x243E JUMPI PUSH2 0x243E PUSH2 0x2DA5 JUMP JUMPDEST PUSH1 0x20 ADD ADD SWAP1 PUSH1 0x1 PUSH1 0x1 PUSH1 0xF8 SHL SUB NOT AND SWAP1 DUP2 PUSH0 BYTE SWAP1 MSTORE8 POP PUSH1 0x4 SWAP5 SWAP1 SWAP5 SHR SWAP4 PUSH0 NOT ADD PUSH2 0x23EA JUMP JUMPDEST POP DUP4 ISZERO PUSH2 0x65E JUMPI PUSH1 0x40 MLOAD PUSH32 0xC913478500000000000000000000000000000000000000000000000000000000 DUP2 MSTORE PUSH1 0x4 ADD PUSH1 0x40 MLOAD DUP1 SWAP2 SUB SWAP1 REVERT JUMPDEST PUSH0 PUSH2 0x65E DUP4 PUSH1 0x1 PUSH1 0x1 PUSH1 0xA0 SHL SUB DUP5 AND PUSH2 0x2725 JUMP JUMPDEST DUP2 SLOAD PUSH0 SWAP1 DUP2 SUB PUSH2 0x24C1 JUMPI POP PUSH0 PUSH2 0x661 JUMP JUMPDEST DUP3 SLOAD PUSH0 SWAP1 JUMPDEST DUP1 DUP3 LT ISZERO PUSH2 0x2512 JUMPI PUSH0 DUP2 DUP4 AND DUP3 DUP5 XOR PUSH1 0x1 SHR ADD SWAP1 POP DUP5 DUP7 DUP3 DUP2 SLOAD DUP2 LT PUSH2 0x24EE JUMPI PUSH2 0x24EE PUSH2 0x2DA5 JUMP JUMPDEST SWAP1 PUSH0 MSTORE PUSH1 0x20 PUSH0 KECCAK256 ADD SLOAD GT ISZERO PUSH2 0x2505 JUMPI DUP1 SWAP2 POP PUSH2 0x250C JUMP JUMPDEST DUP1 PUSH1 0x1 ADD SWAP3 POP JUMPDEST POP PUSH2 0x24C6 JUMP JUMPDEST PUSH0 DUP3 GT DUP1 ISZERO PUSH2 0x253D JUMPI POP DUP4 DUP6 PUSH1 0x1 DUP5 SUB DUP2 SLOAD DUP2 LT PUSH2 0x2532 JUMPI PUSH2 0x2532 PUSH2 0x2DA5 JUMP JUMPDEST SWAP1 PUSH0 MSTORE PUSH1 0x20 PUSH0 KECCAK256 ADD SLOAD EQ JUMPDEST PUSH2 0x2547 JUMPI DUP2 PUSH2 0x14A4 JUMP JUMPDEST POP PUSH0 NOT ADD SWAP4 SWAP3 POP POP POP JUMP JUMPDEST DUP2 SLOAD PUSH0 SWAP1 DUP3 LT PUSH2 0x258E JUMPI PUSH1 0x40 MLOAD PUSH32 0xE637BF3B00000000000000000000000000000000000000000000000000000000 DUP2 MSTORE PUSH1 0x4 ADD PUSH1 0x40 MLOAD DUP1 SWAP2 SUB SWAP1 REVERT JUMPDEST DUP3 PUSH0 ADD DUP3 DUP2 SLOAD DUP2 LT PUSH2 0x25A2 JUMPI PUSH2 0x25A2 PUSH2 0x2DA5 JUMP JUMPDEST SWAP1 PUSH0 MSTORE PUSH1 0x20 PUSH0 KECCAK256 ADD SLOAD SWAP1 POP SWAP3 SWAP2 POP POP JUMP JUMPDEST PUSH32 0x82E3548F398F9E7CCE2049E6D440FC95DBD73177A40CA0C3AB538364268D3814 SLOAD PUSH0 SWAP1 PUSH32 0x82E3548F398F9E7CCE2049E6D440FC95DBD73177A40CA0C3AB538364268D3813 SWAP1 ISZERO DUP1 ISZERO SWAP1 PUSH2 0x2617 JUMPI POP PUSH1 0x3 DUP2 ADD SLOAD PUSH0 SWAP1 DUP2 MSTORE PUSH1 0x20 DUP3 SWAP1 MSTORE PUSH1 0x40 SWAP1 KECCAK256 SLOAD ISZERO JUMPDEST DUP1 ISZERO PUSH2 0x2627 JUMPI POP DUP1 PUSH1 0x1 ADD SLOAD TIMESTAMP LT ISZERO JUMPDEST ISZERO PUSH2 0x26C2 JUMPI PUSH0 PUSH2 0x2635 PUSH2 0x2766 JUMP JUMPDEST PUSH1 0x3 DUP4 ADD SLOAD PUSH0 SWAP1 DUP2 MSTORE PUSH1 0x20 DUP5 SWAP1 MSTORE PUSH1 0x40 SWAP1 KECCAK256 DUP2 SWAP1 SSTORE PUSH1 0x2 DUP4 ADD SLOAD SWAP1 SWAP2 POP PUSH2 0x265C JUMPI PUSH0 PUSH2 0x266E JUMP JUMPDEST PUSH2 0x266E DUP3 PUSH1 0x2 ADD SLOAD DUP4 PUSH1 0x1 ADD SLOAD PUSH2 0x27FB JUMP JUMPDEST PUSH1 0x1 DUP4 ADD DUP2 SWAP1 SSTORE PUSH2 0x267F SWAP1 PUSH0 PUSH2 0x27FB JUMP JUMPDEST PUSH1 0x3 DUP4 ADD DUP2 SWAP1 SSTORE PUSH1 0x2 DUP4 ADD SLOAD PUSH1 0x1 DUP5 ADD SLOAD PUSH1 0x40 MLOAD SWAP2 SWAP3 SWAP1 SWAP2 PUSH32 0x4D1D74D5CBFC13E02EF05AF3A30D8721E87A00D20BC3DC42198917139944DEF3 SWAP1 PUSH0 SWAP1 LOG4 SWAP3 SWAP2 POP POP JUMP JUMPDEST PUSH0 SWAP2 POP POP SWAP1 JUMP JUMPDEST PUSH1 0x1 PUSH1 0x1 PUSH1 0xA0 SHL SUB DUP4 AND PUSH2 0x26E8 JUMPI PUSH2 0x26E0 DUP3 PUSH2 0x2831 JUMP JUMPDEST PUSH2 0x750 PUSH2 0x28A1 JUMP JUMPDEST PUSH1 0x1 PUSH1 0x1 PUSH1 0xA0 SHL SUB DUP3 AND PUSH2 0x26FF JUMPI PUSH2 0x26E0 DUP4 PUSH2 0x2831 JUMP JUMPDEST PUSH2 0x2708 DUP3 PUSH2 0x2831 JUMP JUMPDEST PUSH2 0x750 DUP4 PUSH2 0x2831 JUMP JUMPDEST PUSH0 PUSH2 0x65E DUP4 PUSH1 0x1 PUSH1 0x1 PUSH1 0xA0 SHL SUB DUP5 AND PUSH2 0x28ED JUMP JUMPDEST PUSH0 DUP2 DUP2 MSTORE PUSH1 0x1 DUP4 ADD PUSH1 0x20 MSTORE PUSH1 0x40 DUP2 KECCAK256 SLOAD PUSH2 0x661 JUMPI POP DUP2 SLOAD PUSH1 0x1 DUP1 DUP3 ADD DUP5 SSTORE PUSH0 DUP5 DUP2 MSTORE PUSH1 0x20 DUP1 DUP3 KECCAK256 SWAP1 SWAP4 ADD DUP5 SWAP1 SSTORE DUP5 SLOAD SWAP4 DUP2 MSTORE SWAP4 DUP2 ADD SWAP1 SWAP2 MSTORE PUSH1 0x40 SWAP1 SWAP3 KECCAK256 SSTORE SWAP1 JUMP JUMPDEST PUSH32 0xCD7A55EF023EB5931CC022A9BDC64CB5B46C3A6E53BCAA84915EEA6084F1C7B7 DUP1 SLOAD PUSH0 SWAP2 PUSH32 0xCD7A55EF023EB5931CC022A9BDC64CB5B46C3A6E53BCAA84915EEA6084F1C7B4 SWAP2 SWAP1 DUP4 PUSH2 0x27B8 DUP4 PUSH2 0x2DE4 JUMP JUMPDEST SWAP1 SWAP2 SSTORE POP POP PUSH1 0x3 DUP2 ADD SLOAD PUSH1 0x40 MLOAD DUP2 DUP2 MSTORE PUSH32 0x8030E83B04D87BEF53480E26263266D6CA66863AA8506ACA6F2559D18AA1CB67 SWAP1 PUSH1 0x20 ADD PUSH1 0x40 MLOAD DUP1 SWAP2 SUB SWAP1 LOG1 SWAP3 SWAP2 POP POP JUMP JUMPDEST PUSH0 DUP1 PUSH2 0x280A PUSH3 0x15180 DUP6 PUSH2 0x2DFC JUMP JUMPDEST SWAP1 POP PUSH2 0x2816 DUP2 DUP6 PUSH2 0x2E1B JUMP JUMPDEST SWAP2 POP PUSH2 0x2825 PUSH3 0x15180 DUP5 PUSH2 0x2DFC JUMP JUMPDEST SWAP1 POP PUSH2 0x7BC DUP2 DUP4 PUSH2 0x2D12 JUMP JUMPDEST PUSH1 0x1 PUSH1 0x1 PUSH1 0xA0 SHL SUB DUP2 AND PUSH0 SWAP1 DUP2 MSTORE PUSH32 0xCD7A55EF023EB5931CC022A9BDC64CB5B46C3A6E53BCAA84915EEA6084F1C7B4 PUSH1 0x20 SWAP1 DUP2 MSTORE PUSH1 0x40 DUP1 DUP4 KECCAK256 PUSH32 0xBBBDC1476A0878F2EF9A893C81F5B6F6EA1B3ACAF18FF47CCB69CD4267D50C86 SWAP1 SWAP3 MSTORE SWAP1 SWAP2 KECCAK256 SLOAD PUSH2 0x8C7 SWAP2 SWAP1 PUSH2 0x29A5 JUMP JUMPDEST PUSH2 0x29A5 JUMP JUMPDEST PUSH2 0x825 PUSH32 0xCD7A55EF023EB5931CC022A9BDC64CB5B46C3A6E53BCAA84915EEA6084F1C7B5 PUSH2 0x289C PUSH32 0xBBBDC1476A0878F2EF9A893C81F5B6F6EA1B3ACAF18FF47CCB69CD4267D50C88 SLOAD SWAP1 JUMP JUMPDEST PUSH0 DUP2 DUP2 MSTORE PUSH1 0x1 DUP4 ADD PUSH1 0x20 MSTORE PUSH1 0x40 DUP2 KECCAK256 SLOAD DUP1 ISZERO PUSH2 0x299E JUMPI DUP4 SLOAD PUSH0 SWAP1 DUP6 SWAP1 PUSH0 NOT DUP2 ADD SWAP1 DUP2 LT PUSH2 0x291C JUMPI PUSH2 0x291C PUSH2 0x2DA5 JUMP JUMPDEST SWAP1 PUSH0 MSTORE PUSH1 0x20 PUSH0 KECCAK256 ADD SLOAD SWAP1 POP DUP1 DUP6 PUSH0 ADD PUSH1 0x1 DUP5 SUB DUP2 SLOAD DUP2 LT PUSH2 0x293F JUMPI PUSH2 0x293F PUSH2 0x2DA5 JUMP JUMPDEST PUSH0 SWAP2 DUP3 MSTORE PUSH1 0x20 DUP1 DUP4 KECCAK256 SWAP1 SWAP2 ADD SWAP3 SWAP1 SWAP3 SSTORE SWAP2 DUP3 MSTORE PUSH1 0x1 DUP7 ADD SWAP1 MSTORE PUSH1 0x40 SWAP1 KECCAK256 DUP2 SWAP1 SSTORE DUP4 SLOAD DUP5 SWAP1 DUP1 PUSH2 0x2970 JUMPI PUSH2 0x2970 PUSH2 0x2E2E JUMP JUMPDEST PUSH1 0x1 SWAP1 SUB DUP2 DUP2 SWAP1 PUSH0 MSTORE PUSH1 0x20 PUSH0 KECCAK256 ADD PUSH0 SWAP1 SSTORE SWAP1 SSTORE DUP4 PUSH1 0x1 ADD PUSH0 DUP5 DUP2 MSTORE PUSH1 0x20 ADD SWAP1 DUP2 MSTORE PUSH1 0x20 ADD PUSH0 KECCAK256 PUSH0 SWAP1 SSTORE PUSH1 0x1 SWAP2 POP JUMPDEST POP SWAP3 SWAP2 POP POP JUMP JUMPDEST PUSH32 0xCD7A55EF023EB5931CC022A9BDC64CB5B46C3A6E53BCAA84915EEA6084F1C7B7 SLOAD DUP1 PUSH2 0x29D1 DUP5 PUSH2 0x2A04 JUMP JUMPDEST LT ISZERO PUSH2 0x750 JUMPI DUP3 SLOAD PUSH1 0x1 DUP1 DUP3 ADD DUP6 SSTORE PUSH0 DUP6 DUP2 MSTORE PUSH1 0x20 DUP1 DUP3 KECCAK256 SWAP1 SWAP4 ADD SWAP4 SWAP1 SWAP4 SSTORE SWAP4 DUP5 ADD DUP1 SLOAD SWAP5 DUP6 ADD DUP2 SSTORE DUP3 MSTORE SWAP1 KECCAK256 SWAP1 SWAP2 ADD SSTORE JUMP JUMPDEST DUP1 SLOAD PUSH0 SWAP1 ISZERO PUSH2 0x2A3B JUMPI DUP2 SLOAD DUP3 SWAP1 PUSH2 0x2A1D SWAP1 PUSH1 0x1 SWAP1 PUSH2 0x2E1B JUMP JUMPDEST DUP2 SLOAD DUP2 LT PUSH2 0x2A2D JUMPI PUSH2 0x2A2D PUSH2 0x2DA5 JUMP JUMPDEST SWAP1 PUSH0 MSTORE PUSH1 0x20 PUSH0 KECCAK256 ADD SLOAD PUSH2 0x661 JUMP JUMPDEST PUSH0 SWAP3 SWAP2 POP POP JUMP JUMPDEST PUSH0 JUMPDEST DUP4 DUP2 LT ISZERO PUSH2 0x2A5C JUMPI DUP2 DUP2 ADD MLOAD DUP4 DUP3 ADD MSTORE PUSH1 0x20 ADD PUSH2 0x2A44 JUMP JUMPDEST POP POP PUSH0 SWAP2 ADD MSTORE JUMP JUMPDEST PUSH1 0x20 DUP2 MSTORE PUSH0 DUP3 MLOAD DUP1 PUSH1 0x20 DUP5 ADD MSTORE PUSH2 0x2A82 DUP2 PUSH1 0x40 DUP6 ADD PUSH1 0x20 DUP8 ADD PUSH2 0x2A42 JUMP JUMPDEST PUSH1 0x1F ADD PUSH1 0x1F NOT AND SWAP2 SWAP1 SWAP2 ADD PUSH1 0x40 ADD SWAP3 SWAP2 POP POP JUMP JUMPDEST DUP1 CALLDATALOAD PUSH1 0x1 PUSH1 0x1 PUSH1 0xA0 SHL SUB DUP2 AND DUP2 EQ PUSH2 0x2AAC JUMPI PUSH0 DUP1 REVERT JUMPDEST SWAP2 SWAP1 POP JUMP JUMPDEST PUSH0 DUP1 PUSH1 0x40 DUP4 DUP6 SUB SLT ISZERO PUSH2 0x2AC2 JUMPI PUSH0 DUP1 REVERT JUMPDEST PUSH2 0x2ACB DUP4 PUSH2 0x2A96 JUMP JUMPDEST SWAP5 PUSH1 0x20 SWAP4 SWAP1 SWAP4 ADD CALLDATALOAD SWAP4 POP POP POP JUMP JUMPDEST PUSH4 0x4E487B71 PUSH1 0xE0 SHL PUSH0 MSTORE PUSH1 0x21 PUSH1 0x4 MSTORE PUSH1 0x24 PUSH0 REVERT JUMPDEST PUSH1 0x20 DUP2 ADD PUSH1 0x6 DUP4 LT PUSH2 0x2B01 JUMPI PUSH2 0x2B01 PUSH2 0x2AD9 JUMP JUMPDEST SWAP2 SWAP1 MSTORE SWAP1 JUMP JUMPDEST PUSH0 DUP1 PUSH0 PUSH1 0x60 DUP5 DUP7 SUB SLT ISZERO PUSH2 0x2B19 JUMPI PUSH0 DUP1 REVERT JUMPDEST PUSH2 0x2B22 DUP5 PUSH2 0x2A96 JUMP JUMPDEST SWAP3 POP PUSH2 0x2B30 PUSH1 0x20 DUP6 ADD PUSH2 0x2A96 JUMP JUMPDEST SWAP2 POP PUSH1 0x40 DUP5 ADD CALLDATALOAD SWAP1 POP SWAP3 POP SWAP3 POP SWAP3 JUMP JUMPDEST PUSH0 PUSH1 0x20 DUP3 DUP5 SUB SLT ISZERO PUSH2 0x2B50 JUMPI PUSH0 DUP1 REVERT JUMPDEST POP CALLDATALOAD SWAP2 SWAP1 POP JUMP JUMPDEST PUSH0 DUP1 PUSH1 0x40 DUP4 DUP6 SUB SLT ISZERO PUSH2 0x2B68 JUMPI PUSH0 DUP1 REVERT JUMPDEST DUP3 CALLDATALOAD SWAP2 POP PUSH2 0x2B78 PUSH1 0x20 DUP5 ADD PUSH2 0x2A96 JUMP JUMPDEST SWAP1 POP SWAP3 POP SWAP3 SWAP1 POP JUMP JUMPDEST PUSH0 PUSH1 0x20 DUP3 DUP5 SUB SLT ISZERO PUSH2 0x2B91 JUMPI PUSH0 DUP1 REVERT JUMPDEST PUSH2 0x65E DUP3 PUSH2 0x2A96 JUMP JUMPDEST PUSH0 DUP1 PUSH1 0x40 DUP4 DUP6 SUB SLT ISZERO PUSH2 0x2BAB JUMPI PUSH0 DUP1 REVERT JUMPDEST POP POP DUP1 CALLDATALOAD SWAP3 PUSH1 0x20 SWAP1 SWAP2 ADD CALLDATALOAD SWAP2 POP JUMP JUMPDEST PUSH0 DUP1 PUSH1 0x40 DUP4 DUP6 SUB SLT ISZERO PUSH2 0x2BCB JUMPI PUSH0 DUP1 REVERT JUMPDEST PUSH2 0x2BD4 DUP4 PUSH2 0x2A96 JUMP JUMPDEST SWAP2 POP PUSH2 0x2B78 PUSH1 0x20 DUP5 ADD PUSH2 0x2A96 JUMP JUMPDEST PUSH1 0x1 DUP2 DUP2 SHR SWAP1 DUP3 AND DUP1 PUSH2 0x2BF6 JUMPI PUSH1 0x7F DUP3 AND SWAP2 POP JUMPDEST PUSH1 0x20 DUP3 LT DUP2 SUB PUSH2 0x2C14 JUMPI PUSH4 0x4E487B71 PUSH1 0xE0 SHL PUSH0 MSTORE PUSH1 0x22 PUSH1 0x4 MSTORE PUSH1 0x24 PUSH0 REVERT JUMPDEST POP SWAP2 SWAP1 POP JUMP JUMPDEST DUP1 SLOAD PUSH0 SWAP1 PUSH1 0x1 DUP2 DUP2 SHR SWAP1 DUP1 DUP4 AND DUP1 PUSH2 0x2C33 JUMPI PUSH1 0x7F DUP4 AND SWAP3 POP JUMPDEST PUSH1 0x20 DUP1 DUP5 LT DUP3 SUB PUSH2 0x2C52 JUMPI PUSH4 0x4E487B71 PUSH1 0xE0 SHL PUSH0 MSTORE PUSH1 0x22 PUSH1 0x4 MSTORE PUSH1 0x24 PUSH0 REVERT JUMPDEST DUP4 DUP9 MSTORE PUSH1 0x20 DUP9 ADD DUP3 DUP1 ISZERO PUSH2 0x2C6D JUMPI PUSH1 0x1 DUP2 EQ PUSH2 0x2C83 JUMPI PUSH2 0x2CAC JUMP JUMPDEST PUSH1 0xFF NOT DUP8 AND DUP3 MSTORE DUP6 ISZERO ISZERO PUSH1 0x5 SHL DUP3 ADD SWAP8 POP PUSH2 0x2CAC JUMP JUMPDEST PUSH0 DUP10 DUP2 MSTORE PUSH1 0x20 SWAP1 KECCAK256 PUSH0 JUMPDEST DUP8 DUP2 LT ISZERO PUSH2 0x2CA6 JUMPI DUP2 SLOAD DUP5 DUP3 ADD MSTORE SWAP1 DUP7 ADD SWAP1 DUP5 ADD PUSH2 0x2C8D JUMP JUMPDEST DUP4 ADD SWAP9 POP POP JUMPDEST POP POP POP POP POP POP POP SWAP3 SWAP2 POP POP JUMP JUMPDEST PUSH1 0x60 DUP2 MSTORE PUSH0 PUSH2 0x2CCB PUSH1 0x60 DUP4 ADD DUP7 PUSH2 0x2C1A JUMP JUMPDEST DUP3 DUP2 SUB PUSH1 0x20 DUP5 ADD MSTORE PUSH2 0x2CDD DUP2 DUP7 PUSH2 0x2C1A JUMP JUMPDEST SWAP2 POP POP PUSH1 0x5 DUP4 LT PUSH2 0x2CF0 JUMPI PUSH2 0x2CF0 PUSH2 0x2AD9 JUMP JUMPDEST DUP3 PUSH1 0x40 DUP4 ADD MSTORE SWAP5 SWAP4 POP POP POP POP JUMP JUMPDEST PUSH4 0x4E487B71 PUSH1 0xE0 SHL PUSH0 MSTORE PUSH1 0x11 PUSH1 0x4 MSTORE PUSH1 0x24 PUSH0 REVERT JUMPDEST DUP1 DUP3 ADD DUP1 DUP3 GT ISZERO PUSH2 0x661 JUMPI PUSH2 0x661 PUSH2 0x2CFE JUMP JUMPDEST PUSH32 0x416363657373436F6E74726F6C3A206163636F756E7420000000000000000000 DUP2 MSTORE PUSH0 DUP4 MLOAD PUSH2 0x2D5C DUP2 PUSH1 0x17 DUP6 ADD PUSH1 0x20 DUP9 ADD PUSH2 0x2A42 JUMP JUMPDEST PUSH32 0x206973206D697373696E6720726F6C6520000000000000000000000000000000 PUSH1 0x17 SWAP2 DUP5 ADD SWAP2 DUP3 ADD MSTORE DUP4 MLOAD PUSH2 0x2D99 DUP2 PUSH1 0x28 DUP5 ADD PUSH1 0x20 DUP9 ADD PUSH2 0x2A42 JUMP JUMPDEST ADD PUSH1 0x28 ADD SWAP5 SWAP4 POP POP POP POP JUMP JUMPDEST PUSH4 0x4E487B71 PUSH1 0xE0 SHL PUSH0 MSTORE PUSH1 0x32 PUSH1 0x4 MSTORE PUSH1 0x24 PUSH0 REVERT JUMPDEST DUP1 DUP3 MUL DUP2 ISZERO DUP3 DUP3 DIV DUP5 EQ OR PUSH2 0x661 JUMPI PUSH2 0x661 PUSH2 0x2CFE JUMP JUMPDEST PUSH4 0x4E487B71 PUSH1 0xE0 SHL PUSH0 MSTORE PUSH1 0x41 PUSH1 0x4 MSTORE PUSH1 0x24 PUSH0 REVERT JUMPDEST PUSH0 PUSH1 0x1 DUP3 ADD PUSH2 0x2DF5 JUMPI PUSH2 0x2DF5 PUSH2 0x2CFE JUMP JUMPDEST POP PUSH1 0x1 ADD SWAP1 JUMP JUMPDEST PUSH0 DUP3 PUSH2 0x2E16 JUMPI PUSH4 0x4E487B71 PUSH1 0xE0 SHL PUSH0 MSTORE PUSH1 0x12 PUSH1 0x4 MSTORE PUSH1 0x24 PUSH0 REVERT JUMPDEST POP MOD SWAP1 JUMP JUMPDEST DUP2 DUP2 SUB DUP2 DUP2 GT ISZERO PUSH2 0x661 JUMPI PUSH2 0x661 PUSH2 0x2CFE JUMP JUMPDEST PUSH4 0x4E487B71 PUSH1 0xE0 SHL PUSH0 MSTORE PUSH1 0x31 PUSH1 0x4 MSTORE PUSH1 0x24 PUSH0 REVERT INVALID LOG2 PUSH5 0x6970667358 0x22 SLT KECCAK256 SHL 0xE0 DUP3 REVERT SWAP7 PUSH10 0x547961AC2A425FA4C499 SIGNEXTEND DUP7 0xD1 PUSH6 0x4DAA0FB96B1F 0xC6 SWAP12 KECCAK256 0x2A DUP14 0xED PUSH5 0x736F6C6343 STOP ADDMOD EQ STOP CALLER "},"methodIdentifiers":{"BND_ROLE()":"2682ac91","CAK_ROLE()":"8865f1e2","CST_ROLE()":"1c67a363","PAY_ROLE()":"3bf2a9f4","_account()":"3610aca1","_offerPrice()":"41b5ff72","_register()":"696cd82c","_totalSupplyAtCoupon(uint256)":"3e0abded","account()":"5dab2420","allowance(address,address)":"dd62ed3e","approve(address,uint256)":"095ea7b3","balanceOf(address)":"70a08231","balanceOfAt(address,uint256)":"4ee2cd7e","buyerAccount()":"489147d7","decimals()":"313ce567","getDetails()":"fbbf93a0","getRoleAdmin(bytes32)":"248a9ca3","getRoleMember(bytes32,uint256)":"9010d07c","getRoleMemberCount(bytes32)":"ca15c873","grantRole(bytes32,address)":"2f2ff15d","hasRole(bytes32,address)":"91d14854","isTrustedForwarder(address)":"572b6c05","name()":"06fdde03","offerPrice()":"3bf19e29","paymentID()":"d84ffb41","primaryIssuanceAccount()":"8784ff18","register()":"1aa3a008","reject()":"4dc415de","renounceRole(bytes32)":"8bb9c5bf","revokeRole(bytes32,address)":"d547741f","sellerAccount()":"10547851","status()":"200d2ed2","symbol()":"95d89b41","totalSupply()":"18160ddd","totalSupplyAt(uint256)":"981b24d0","transfer(address,uint256)":"a9059cbb","transferFrom(address,address,uint256)":"23b872dd","trustedForwarder()":"7da0a877","validate()":"6901f668"}}}}}