{"contracts/register/metadata/RegisterMetadataStorage.sol":{"RegisterMetadataStorage":{"abi":[{"inputs":[],"name":"BND_ROLE","outputs":[{"internalType":"bytes32","name":"","type":"bytes32"}],"stateMutability":"view","type":"function"},{"inputs":[],"name":"CAK_ROLE","outputs":[{"internalType":"bytes32","name":"","type":"bytes32"}],"stateMutability":"view","type":"function"},{"inputs":[],"name":"CST_ROLE","outputs":[{"internalType":"bytes32","name":"","type":"bytes32"}],"stateMutability":"view","type":"function"},{"inputs":[],"name":"PAY_ROLE","outputs":[{"internalType":"bytes32","name":"","type":"bytes32"}],"stateMutability":"view","type":"function"}],"evm":{"bytecode":{"linkReferences":{},"object":"61013d610035600b8282823980515f1a60731461002957634e487b7160e01b5f525f60045260245ffd5b305f52607381538281f3fe7300000000000000000000000000000000000000003014608060405260043610610055575f3560e01c80631c67a363146100595780632682ac91146100925780633bf2a9f4146100b95780638865f1e2146100e0575b5f80fd5b6100807f6ba6f588bcdc2df8426603a466c98ab15e79f7fb7f37b53581ce39c1d01b724981565b60405190815260200160405180910390f35b6100807ff698af62c65280e4949bceec64b760f3b7738217cbc536cdfc4c9463676b05c281565b6100807fd7aa2ddfa4e381128202bf365b7e0a176f2fca6cdf2f23c2b0a6f4393769589081565b6100807fa75205b8583660bdad375c0ccde11af17668d76a408a9a5e739251b0f7c598708156fea2646970667358221220a80f5b5dac227dd1c1a77e2130d4c9ccfc9b6d2495c361add2338725226bbcae64736f6c63430008140033","opcodes":"PUSH2 0x13D PUSH2 0x35 PUSH1 0xB DUP3 DUP3 DUP3 CODECOPY DUP1 MLOAD PUSH0 BYTE PUSH1 0x73 EQ PUSH2 0x29 JUMPI PUSH4 0x4E487B71 PUSH1 0xE0 SHL PUSH0 MSTORE PUSH0 PUSH1 0x4 MSTORE PUSH1 0x24 PUSH0 REVERT JUMPDEST ADDRESS PUSH0 MSTORE PUSH1 0x73 DUP2 MSTORE8 DUP3 DUP2 RETURN INVALID PUSH20 0x0 ADDRESS EQ PUSH1 0x80 PUSH1 0x40 MSTORE PUSH1 0x4 CALLDATASIZE LT PUSH2 0x55 JUMPI PUSH0 CALLDATALOAD PUSH1 0xE0 SHR DUP1 PUSH4 0x1C67A363 EQ PUSH2 0x59 JUMPI DUP1 PUSH4 0x2682AC91 EQ PUSH2 0x92 JUMPI DUP1 PUSH4 0x3BF2A9F4 EQ PUSH2 0xB9 JUMPI DUP1 PUSH4 0x8865F1E2 EQ PUSH2 0xE0 JUMPI JUMPDEST PUSH0 DUP1 REVERT JUMPDEST PUSH2 0x80 PUSH32 0x6BA6F588BCDC2DF8426603A466C98AB15E79F7FB7F37B53581CE39C1D01B7249 DUP2 JUMP JUMPDEST PUSH1 0x40 MLOAD SWAP1 DUP2 MSTORE PUSH1 0x20 ADD PUSH1 0x40 MLOAD DUP1 SWAP2 SUB SWAP1 RETURN JUMPDEST PUSH2 0x80 PUSH32 0xF698AF62C65280E4949BCEEC64B760F3B7738217CBC536CDFC4C9463676B05C2 DUP2 JUMP JUMPDEST PUSH2 0x80 PUSH32 0xD7AA2DDFA4E381128202BF365B7E0A176F2FCA6CDF2F23C2B0A6F43937695890 DUP2 JUMP JUMPDEST PUSH2 0x80 PUSH32 0xA75205B8583660BDAD375C0CCDE11AF17668D76A408A9A5E739251B0F7C59870 DUP2 JUMP INVALID LOG2 PUSH5 0x6970667358 0x22 SLT KECCAK256 0xA8 0xF JUMPDEST 0x5D 0xAC 0x22 PUSH30 0xD1C1A77E2130D4C9CCFC9B6D2495C361ADD2338725226BBCAE64736F6C63 NUMBER STOP ADDMOD EQ STOP CALLER "},"methodIdentifiers":{"BND_ROLE()":"2682ac91","CAK_ROLE()":"8865f1e2","CST_ROLE()":"1c67a363","PAY_ROLE()":"3bf2a9f4"}}}}}