{"contracts/trade/bilateral/BilateralTrade.sol":{"BilateralTrade":{"abi":[{"anonymous":false,"inputs":[{"indexed":false,"internalType":"uint64","name":"version","type":"uint64"}],"name":"Initialized","type":"event"},{"anonymous":false,"inputs":[{"indexed":true,"internalType":"address","name":"seller","type":"address"},{"indexed":true,"internalType":"address","name":"buyer","type":"address"},{"indexed":true,"internalType":"enum ITradeInternal.TradeStatus","name":"status","type":"uint8"},{"indexed":false,"internalType":"uint256","name":"quantity","type":"uint256"}],"name":"NotifyTrade","type":"event"},{"inputs":[],"name":"approve","outputs":[{"internalType":"enum ITradeInternal.TradeStatus","name":"","type":"uint8"}],"stateMutability":"nonpayable","type":"function"},{"inputs":[],"name":"buyerAccount","outputs":[{"internalType":"address","name":"","type":"address"}],"stateMutability":"view","type":"function"},{"inputs":[],"name":"executeTransfer","outputs":[{"internalType":"bool","name":"","type":"bool"}],"stateMutability":"nonpayable","type":"function"},{"inputs":[],"name":"getDetails","outputs":[{"components":[{"internalType":"uint256","name":"quantity","type":"uint256"},{"internalType":"address","name":"buyer","type":"address"},{"internalType":"uint256","name":"tradeDate","type":"uint256"},{"internalType":"uint256","name":"valueDate","type":"uint256"},{"internalType":"uint256","name":"price","type":"uint256"}],"internalType":"struct ITradeInternal.TradeDetail","name":"","type":"tuple"}],"stateMutability":"view","type":"function"},{"inputs":[],"name":"paymentID","outputs":[{"internalType":"bytes8","name":"","type":"bytes8"}],"stateMutability":"view","type":"function"},{"inputs":[],"name":"register","outputs":[{"internalType":"contract IRegister","name":"","type":"address"}],"stateMutability":"view","type":"function"},{"inputs":[],"name":"reject","outputs":[],"stateMutability":"nonpayable","type":"function"},{"inputs":[],"name":"sellerAccount","outputs":[{"internalType":"address","name":"","type":"address"}],"stateMutability":"view","type":"function"},{"inputs":[{"components":[{"internalType":"uint256","name":"quantity","type":"uint256"},{"internalType":"address","name":"buyer","type":"address"},{"internalType":"uint256","name":"tradeDate","type":"uint256"},{"internalType":"uint256","name":"valueDate","type":"uint256"},{"internalType":"uint256","name":"price","type":"uint256"}],"internalType":"struct ITradeInternal.TradeDetail","name":"_details","type":"tuple"}],"name":"setDetails","outputs":[],"stateMutability":"nonpayable","type":"function"},{"inputs":[],"name":"status","outputs":[{"internalType":"enum ITradeInternal.TradeStatus","name":"","type":"uint8"}],"stateMutability":"view","type":"function"}],"evm":{"bytecode":{"linkReferences":{},"object":"608060405234801561000f575f80fd5b5061111c8061001d5f395ff3fe608060405234801561000f575f80fd5b50600436106100b9575f3560e01c80634dc415de11610072578063b787cfe611610058578063b787cfe61461015a578063d84ffb411461016d578063fbbf93a0146101a0575f80fd5b80634dc415de14610138578063835d2d2e14610142575f80fd5b80631aa3a008116100a25780631aa3a008146100f7578063200d2ed2146100ff578063489147d714610130575f80fd5b806310547851146100bd57806312424e3f146100e2575b5f80fd5b6100c56101f2565b6040516001600160a01b0390911681526020015b60405180910390f35b6100ea610229565b6040516100d9919061100c565b6100c5610232565b7ff2f2074d0002f5b8c57da88894c742541c5c2d74dba7285e165c2db0bb39355f54600160a01b900460ff166100ea565b6100c5610264565b610140610296565b005b61014a6102a0565b60405190151581526020016100d9565b610140610168366004611032565b6102a9565b6040517fffffffffffffffff0000000000000000000000000000000000000000000000003060c01b1681526020016100d9565b6101a86102b5565b6040516100d991905f60a082019050825182526001600160a01b03602084015116602083015260408301516040830152606083015160608301526080830151608083015292915050565b5f6102247ff2f2074d0002f5b8c57da88894c742541c5c2d74dba7285e165c2db0bb39355f546001600160a01b031690565b905090565b5f6102246102f3565b5f6102247ff2f2074d0002f5b8c57da88894c742541c5c2d74dba7285e165c2db0bb39355e546001600160a01b031690565b5f6102247ff2f2074d0002f5b8c57da88894c742541c5c2d74dba7285e165c2db0bb393561546001600160a01b031690565b61029e6105f3565b565b5f610224610887565b6102b281610b7f565b50565b6102eb6040518060a001604052805f81526020015f6001600160a01b031681526020015f81526020015f81526020015f81525090565b610224610eb7565b7ff2f2074d0002f5b8c57da88894c742541c5c2d74dba7285e165c2db0bb39355f545f907ff2f2074d0002f5b8c57da88894c742541c5c2d74dba7285e165c2db0bb39355e906001600160a01b031661034a610fc6565b6001600160a01b031614801561037e57505f6001820154600160a01b900460ff16600581111561037c5761037c610ff8565b145b1561051a5760028101546103d95760405162461bcd60e51b815260206004820152601460248201527f7175616e74697479206e6f7420646566696e656400000000000000000000000060448201526064015b60405180910390fd5b600481015461042a5760405162461bcd60e51b815260206004820152601660248201527f74726164652064617465206e6f7420646566696e65640000000000000000000060448201526064016103d0565b600581015461047b5760405162461bcd60e51b815260206004820152601660248201527f76616c75652064617465206e6f7420646566696e65640000000000000000000060448201526064016103d0565b6001818101805460ff60a01b1916600160a01b835b02179055506001810154600160a01b900460ff1660058111156104b5576104b5610ff8565b6003820154600183015460028401546040519081526001600160a01b0392831692909116907fb04efa95c2e317d8afba4237350a971f1ce59ef6fbbf2eb3f1a7e3f3f106a8f49060200160405180910390a460010154600160a01b900460ff16919050565b60038101546001600160a01b0316610530610fc6565b6001600160a01b03161480156105645750600180820154600160a01b900460ff16600581111561056257610562610ff8565b145b15610585576001810180546003919060ff60a01b1916600160a01b83610490565b60405162461bcd60e51b815260206004820152603360248201527f7468652074726164652063616e6e6f7420626520617070726f76656420696e2060448201527f746869732063757272656e74207374617475730000000000000000000000000060648201526084016103d0565b7ff2f2074d0002f5b8c57da88894c742541c5c2d74dba7285e165c2db0bb39355f547ff2f2074d0002f5b8c57da88894c742541c5c2d74dba7285e165c2db0bb39355e90600290600160a01b900460ff16600581111561065557610655610ff8565b036106a25760405162461bcd60e51b815260206004820152601660248201527f547261646520616c72656164792072656a65637465640000000000000000000060448201526064016103d0565b60018101546001600160a01b03166106b8610fc6565b6001600160a01b03161480156106ee575060046001820154600160a01b900460ff1660058111156106eb576106eb610ff8565b14155b15610785576001810180546002919060ff60a01b1916600160a01b835b02179055506001810154600160a01b900460ff16600581111561073057610730610ff8565b6003820154600183015460028401546040519081526001600160a01b0392831692909116907fb04efa95c2e317d8afba4237350a971f1ce59ef6fbbf2eb3f1a7e3f3f106a8f49060200160405180910390a450565b60038101546001600160a01b031661079b610fc6565b6001600160a01b03161480156107f85750600180820154600160a01b900460ff1660058111156107cd576107cd610ff8565b14806107f8575060036001820154600160a01b900460ff1660058111156107f6576107f6610ff8565b145b15610819576001810180546002919060ff60a01b1916600160a01b8361070b565b60405162461bcd60e51b815260206004820152603360248201527f7468652074726164652063616e6e6f742062652072656a656374656420696e2060448201527f746869732063757272656e74207374617475730000000000000000000000000060648201526084016103d0565b7ff2f2074d0002f5b8c57da88894c742541c5c2d74dba7285e165c2db0bb39355f545f907ff2f2074d0002f5b8c57da88894c742541c5c2d74dba7285e165c2db0bb39355e906001600160a01b03166108de610fc6565b6001600160a01b03161461095a5760405162461bcd60e51b815260206004820152603560248201527f4f6e6c79207468652073656c6c65722063616e20636f6e6669726d207468652060448201527f7061796d656e74206f6e2074686973207472616465000000000000000000000060648201526084016103d0565b60036001820154600160a01b900460ff16600581111561097c5761097c610ff8565b146109ef5760405162461bcd60e51b815260206004820152602e60248201527f546865207472616465206d75737420626520616363657074656420627920746860448201527f65206275796572206265666f726500000000000000000000000000000000000060648201526084016103d0565b6001810180547404000000000000000000000000000000000000000060ff60a01b198216179091558154600383015460028401546040517f23b872dd0000000000000000000000000000000000000000000000000000000081526001600160a01b039485166004820152918416602483015260448201525f92909116906323b872dd906064016020604051808303815f875af1158015610a91573d5f803e3d5ffd5b505050506040513d601f19601f82011682018060405250810190610ab591906110c0565b905080610b045760405162461bcd60e51b815260206004820152601760248201527f746865207472616e7366657220686173206661696c656400000000000000000060448201526064016103d0565b6001820154600160a01b900460ff166005811115610b2457610b24610ff8565b6003830154600184015460028501546040519081526001600160a01b0392831692909116907fb04efa95c2e317d8afba4237350a971f1ce59ef6fbbf2eb3f1a7e3f3f106a8f49060200160405180910390a460019250505090565b7ff2f2074d0002f5b8c57da88894c742541c5c2d74dba7285e165c2db0bb39355f547ff2f2074d0002f5b8c57da88894c742541c5c2d74dba7285e165c2db0bb39355e906001600160a01b0316610bd4610fc6565b6001600160a01b031614610c505760405162461bcd60e51b815260206004820152602560248201527f4f6e6c79207468652073656c6c65722063616e2075706461746520746869732060448201527f747261646500000000000000000000000000000000000000000000000000000060648201526084016103d0565b5f6001820154600160a01b900460ff166005811115610c7157610c71610ff8565b14610ce45760405162461bcd60e51b815260206004820152603660248201527f43616e6e6f74206368616e6765207468652074726164652064657461696c732060448201527f756e6c65737320696e206472616674207374617475730000000000000000000060648201526084016103d0565b805460208301516040517fc41251a10000000000000000000000000000000000000000000000000000000081526001600160a01b03918216600482015291169063c41251a190602401602060405180830381865afa158015610d48573d5f803e3d5ffd5b505050506040513d601f19601f82011682018060405250810190610d6c91906110c0565b610dde5760405162461bcd60e51b815260206004820152603760248201527f4275796572206d75737420626520612076616c696420696e766573746f72206560448201527f76656e206f6e206368616e67696e672064657461696c7300000000000000000060648201526084016103d0565b8151600282015560208201516003820180547fffffffffffffffffffffffff0000000000000000000000000000000000000000166001600160a01b03909216919091179055604082015160048201556060820151600580830191909155608083015160068301556001820154600160a01b900460ff1690811115610e6457610e64610ff8565b602083810151600184015485516040519081526001600160a01b039283169392909116917fb04efa95c2e317d8afba4237350a971f1ce59ef6fbbf2eb3f1a7e3f3f106a8f4910160405180910390a45050565b610eed6040518060a001604052805f81526020015f6001600160a01b031681526020015f81526020015f81526020015f81525090565b506040805160a0810182527ff2f2074d0002f5b8c57da88894c742541c5c2d74dba7285e165c2db0bb3935605481527ff2f2074d0002f5b8c57da88894c742541c5c2d74dba7285e165c2db0bb393561546001600160a01b031660208201527ff2f2074d0002f5b8c57da88894c742541c5c2d74dba7285e165c2db0bb39356254918101919091527ff2f2074d0002f5b8c57da88894c742541c5c2d74dba7285e165c2db0bb3935635460608201527ff2f2074d0002f5b8c57da88894c742541c5c2d74dba7285e165c2db0bb39356454608082015290565b5f80546001600160a01b031633148015610fe1575060143610155b15610ff3575060131936013560601c90565b503390565b634e487b7160e01b5f52602160045260245ffd5b602081016006831061102c57634e487b7160e01b5f52602160045260245ffd5b91905290565b5f60a08284031215611042575f80fd5b60405160a0810181811067ffffffffffffffff8211171561107157634e487b7160e01b5f52604160045260245ffd5b6040528235815260208301356001600160a01b0381168114611091575f80fd5b806020830152506040830135604082015260608301356060820152608083013560808201528091505092915050565b5f602082840312156110d0575f80fd5b815180151581146110df575f80fd5b939250505056fea264697066735822122035201b6005b4bf53771a2f09cbfc761ec5979253c14619cba2cb119fdb1b1d7964736f6c63430008140033","opcodes":"PUSH1 0x80 PUSH1 0x40 MSTORE CALLVALUE DUP1 ISZERO PUSH2 0xF JUMPI PUSH0 DUP1 REVERT JUMPDEST POP PUSH2 0x111C DUP1 PUSH2 0x1D PUSH0 CODECOPY PUSH0 RETURN INVALID PUSH1 0x80 PUSH1 0x40 MSTORE CALLVALUE DUP1 ISZERO PUSH2 0xF JUMPI PUSH0 DUP1 REVERT JUMPDEST POP PUSH1 0x4 CALLDATASIZE LT PUSH2 0xB9 JUMPI PUSH0 CALLDATALOAD PUSH1 0xE0 SHR DUP1 PUSH4 0x4DC415DE GT PUSH2 0x72 JUMPI DUP1 PUSH4 0xB787CFE6 GT PUSH2 0x58 JUMPI DUP1 PUSH4 0xB787CFE6 EQ PUSH2 0x15A JUMPI DUP1 PUSH4 0xD84FFB41 EQ PUSH2 0x16D JUMPI DUP1 PUSH4 0xFBBF93A0 EQ PUSH2 0x1A0 JUMPI PUSH0 DUP1 REVERT JUMPDEST DUP1 PUSH4 0x4DC415DE EQ PUSH2 0x138 JUMPI DUP1 PUSH4 0x835D2D2E EQ PUSH2 0x142 JUMPI PUSH0 DUP1 REVERT JUMPDEST DUP1 PUSH4 0x1AA3A008 GT PUSH2 0xA2 JUMPI DUP1 PUSH4 0x1AA3A008 EQ PUSH2 0xF7 JUMPI DUP1 PUSH4 0x200D2ED2 EQ PUSH2 0xFF JUMPI DUP1 PUSH4 0x489147D7 EQ PUSH2 0x130 JUMPI PUSH0 DUP1 REVERT JUMPDEST DUP1 PUSH4 0x10547851 EQ PUSH2 0xBD JUMPI DUP1 PUSH4 0x12424E3F EQ PUSH2 0xE2 JUMPI JUMPDEST PUSH0 DUP1 REVERT JUMPDEST PUSH2 0xC5 PUSH2 0x1F2 JUMP JUMPDEST PUSH1 0x40 MLOAD PUSH1 0x1 PUSH1 0x1 PUSH1 0xA0 SHL SUB SWAP1 SWAP2 AND DUP2 MSTORE PUSH1 0x20 ADD JUMPDEST PUSH1 0x40 MLOAD DUP1 SWAP2 SUB SWAP1 RETURN JUMPDEST PUSH2 0xEA PUSH2 0x229 JUMP JUMPDEST PUSH1 0x40 MLOAD PUSH2 0xD9 SWAP2 SWAP1 PUSH2 0x100C JUMP JUMPDEST PUSH2 0xC5 PUSH2 0x232 JUMP JUMPDEST PUSH32 0xF2F2074D0002F5B8C57DA88894C742541C5C2D74DBA7285E165C2DB0BB39355F SLOAD PUSH1 0x1 PUSH1 0xA0 SHL SWAP1 DIV PUSH1 0xFF AND PUSH2 0xEA JUMP JUMPDEST PUSH2 0xC5 PUSH2 0x264 JUMP JUMPDEST PUSH2 0x140 PUSH2 0x296 JUMP JUMPDEST STOP JUMPDEST PUSH2 0x14A PUSH2 0x2A0 JUMP JUMPDEST PUSH1 0x40 MLOAD SWAP1 ISZERO ISZERO DUP2 MSTORE PUSH1 0x20 ADD PUSH2 0xD9 JUMP JUMPDEST PUSH2 0x140 PUSH2 0x168 CALLDATASIZE PUSH1 0x4 PUSH2 0x1032 JUMP JUMPDEST PUSH2 0x2A9 JUMP JUMPDEST PUSH1 0x40 MLOAD PUSH32 0xFFFFFFFFFFFFFFFF000000000000000000000000000000000000000000000000 ADDRESS PUSH1 0xC0 SHL AND DUP2 MSTORE PUSH1 0x20 ADD PUSH2 0xD9 JUMP JUMPDEST PUSH2 0x1A8 PUSH2 0x2B5 JUMP JUMPDEST PUSH1 0x40 MLOAD PUSH2 0xD9 SWAP2 SWAP1 PUSH0 PUSH1 0xA0 DUP3 ADD SWAP1 POP DUP3 MLOAD DUP3 MSTORE PUSH1 0x1 PUSH1 0x1 PUSH1 0xA0 SHL SUB PUSH1 0x20 DUP5 ADD MLOAD AND PUSH1 0x20 DUP4 ADD MSTORE PUSH1 0x40 DUP4 ADD MLOAD PUSH1 0x40 DUP4 ADD MSTORE PUSH1 0x60 DUP4 ADD MLOAD PUSH1 0x60 DUP4 ADD MSTORE PUSH1 0x80 DUP4 ADD MLOAD PUSH1 0x80 DUP4 ADD MSTORE SWAP3 SWAP2 POP POP JUMP JUMPDEST PUSH0 PUSH2 0x224 PUSH32 0xF2F2074D0002F5B8C57DA88894C742541C5C2D74DBA7285E165C2DB0BB39355F SLOAD PUSH1 0x1 PUSH1 0x1 PUSH1 0xA0 SHL SUB AND SWAP1 JUMP JUMPDEST SWAP1 POP SWAP1 JUMP JUMPDEST PUSH0 PUSH2 0x224 PUSH2 0x2F3 JUMP JUMPDEST PUSH0 PUSH2 0x224 PUSH32 0xF2F2074D0002F5B8C57DA88894C742541C5C2D74DBA7285E165C2DB0BB39355E SLOAD PUSH1 0x1 PUSH1 0x1 PUSH1 0xA0 SHL SUB AND SWAP1 JUMP JUMPDEST PUSH0 PUSH2 0x224 PUSH32 0xF2F2074D0002F5B8C57DA88894C742541C5C2D74DBA7285E165C2DB0BB393561 SLOAD PUSH1 0x1 PUSH1 0x1 PUSH1 0xA0 SHL SUB AND SWAP1 JUMP JUMPDEST PUSH2 0x29E PUSH2 0x5F3 JUMP JUMPDEST JUMP JUMPDEST PUSH0 PUSH2 0x224 PUSH2 0x887 JUMP JUMPDEST PUSH2 0x2B2 DUP2 PUSH2 0xB7F JUMP JUMPDEST POP JUMP JUMPDEST PUSH2 0x2EB PUSH1 0x40 MLOAD DUP1 PUSH1 0xA0 ADD PUSH1 0x40 MSTORE DUP1 PUSH0 DUP2 MSTORE PUSH1 0x20 ADD PUSH0 PUSH1 0x1 PUSH1 0x1 PUSH1 0xA0 SHL SUB AND DUP2 MSTORE PUSH1 0x20 ADD PUSH0 DUP2 MSTORE PUSH1 0x20 ADD PUSH0 DUP2 MSTORE PUSH1 0x20 ADD PUSH0 DUP2 MSTORE POP SWAP1 JUMP JUMPDEST PUSH2 0x224 PUSH2 0xEB7 JUMP JUMPDEST PUSH32 0xF2F2074D0002F5B8C57DA88894C742541C5C2D74DBA7285E165C2DB0BB39355F SLOAD PUSH0 SWAP1 PUSH32 0xF2F2074D0002F5B8C57DA88894C742541C5C2D74DBA7285E165C2DB0BB39355E SWAP1 PUSH1 0x1 PUSH1 0x1 PUSH1 0xA0 SHL SUB AND PUSH2 0x34A PUSH2 0xFC6 JUMP JUMPDEST PUSH1 0x1 PUSH1 0x1 PUSH1 0xA0 SHL SUB AND EQ DUP1 ISZERO PUSH2 0x37E JUMPI POP PUSH0 PUSH1 0x1 DUP3 ADD SLOAD PUSH1 0x1 PUSH1 0xA0 SHL SWAP1 DIV PUSH1 0xFF AND PUSH1 0x5 DUP2 GT ISZERO PUSH2 0x37C JUMPI PUSH2 0x37C PUSH2 0xFF8 JUMP JUMPDEST EQ JUMPDEST ISZERO PUSH2 0x51A JUMPI PUSH1 0x2 DUP2 ADD SLOAD PUSH2 0x3D9 JUMPI PUSH1 0x40 MLOAD PUSH3 0x461BCD PUSH1 0xE5 SHL DUP2 MSTORE PUSH1 0x20 PUSH1 0x4 DUP3 ADD MSTORE PUSH1 0x14 PUSH1 0x24 DUP3 ADD MSTORE PUSH32 0x7175616E74697479206E6F7420646566696E6564000000000000000000000000 PUSH1 0x44 DUP3 ADD MSTORE PUSH1 0x64 ADD JUMPDEST PUSH1 0x40 MLOAD DUP1 SWAP2 SUB SWAP1 REVERT JUMPDEST PUSH1 0x4 DUP2 ADD SLOAD PUSH2 0x42A JUMPI PUSH1 0x40 MLOAD PUSH3 0x461BCD PUSH1 0xE5 SHL DUP2 MSTORE PUSH1 0x20 PUSH1 0x4 DUP3 ADD MSTORE PUSH1 0x16 PUSH1 0x24 DUP3 ADD MSTORE PUSH32 0x74726164652064617465206E6F7420646566696E656400000000000000000000 PUSH1 0x44 DUP3 ADD MSTORE PUSH1 0x64 ADD PUSH2 0x3D0 JUMP JUMPDEST PUSH1 0x5 DUP2 ADD SLOAD PUSH2 0x47B JUMPI PUSH1 0x40 MLOAD PUSH3 0x461BCD PUSH1 0xE5 SHL DUP2 MSTORE PUSH1 0x20 PUSH1 0x4 DUP3 ADD MSTORE PUSH1 0x16 PUSH1 0x24 DUP3 ADD MSTORE PUSH32 0x76616C75652064617465206E6F7420646566696E656400000000000000000000 PUSH1 0x44 DUP3 ADD MSTORE PUSH1 0x64 ADD PUSH2 0x3D0 JUMP JUMPDEST PUSH1 0x1 DUP2 DUP2 ADD DUP1 SLOAD PUSH1 0xFF PUSH1 0xA0 SHL NOT AND PUSH1 0x1 PUSH1 0xA0 SHL DUP4 JUMPDEST MUL OR SWAP1 SSTORE POP PUSH1 0x1 DUP2 ADD SLOAD PUSH1 0x1 PUSH1 0xA0 SHL SWAP1 DIV PUSH1 0xFF AND PUSH1 0x5 DUP2 GT ISZERO PUSH2 0x4B5 JUMPI PUSH2 0x4B5 PUSH2 0xFF8 JUMP JUMPDEST PUSH1 0x3 DUP3 ADD SLOAD PUSH1 0x1 DUP4 ADD SLOAD PUSH1 0x2 DUP5 ADD SLOAD PUSH1 0x40 MLOAD SWAP1 DUP2 MSTORE PUSH1 0x1 PUSH1 0x1 PUSH1 0xA0 SHL SUB SWAP3 DUP4 AND SWAP3 SWAP1 SWAP2 AND SWAP1 PUSH32 0xB04EFA95C2E317D8AFBA4237350A971F1CE59EF6FBBF2EB3F1A7E3F3F106A8F4 SWAP1 PUSH1 0x20 ADD PUSH1 0x40 MLOAD DUP1 SWAP2 SUB SWAP1 LOG4 PUSH1 0x1 ADD SLOAD PUSH1 0x1 PUSH1 0xA0 SHL SWAP1 DIV PUSH1 0xFF AND SWAP2 SWAP1 POP JUMP JUMPDEST PUSH1 0x3 DUP2 ADD SLOAD PUSH1 0x1 PUSH1 0x1 PUSH1 0xA0 SHL SUB AND PUSH2 0x530 PUSH2 0xFC6 JUMP JUMPDEST PUSH1 0x1 PUSH1 0x1 PUSH1 0xA0 SHL SUB AND EQ DUP1 ISZERO PUSH2 0x564 JUMPI POP PUSH1 0x1 DUP1 DUP3 ADD SLOAD PUSH1 0x1 PUSH1 0xA0 SHL SWAP1 DIV PUSH1 0xFF AND PUSH1 0x5 DUP2 GT ISZERO PUSH2 0x562 JUMPI PUSH2 0x562 PUSH2 0xFF8 JUMP JUMPDEST EQ JUMPDEST ISZERO PUSH2 0x585 JUMPI PUSH1 0x1 DUP2 ADD DUP1 SLOAD PUSH1 0x3 SWAP2 SWAP1 PUSH1 0xFF PUSH1 0xA0 SHL NOT AND PUSH1 0x1 PUSH1 0xA0 SHL DUP4 PUSH2 0x490 JUMP JUMPDEST PUSH1 0x40 MLOAD PUSH3 0x461BCD PUSH1 0xE5 SHL DUP2 MSTORE PUSH1 0x20 PUSH1 0x4 DUP3 ADD MSTORE PUSH1 0x33 PUSH1 0x24 DUP3 ADD MSTORE PUSH32 0x7468652074726164652063616E6E6F7420626520617070726F76656420696E20 PUSH1 0x44 DUP3 ADD MSTORE PUSH32 0x746869732063757272656E742073746174757300000000000000000000000000 PUSH1 0x64 DUP3 ADD MSTORE PUSH1 0x84 ADD PUSH2 0x3D0 JUMP JUMPDEST PUSH32 0xF2F2074D0002F5B8C57DA88894C742541C5C2D74DBA7285E165C2DB0BB39355F SLOAD PUSH32 0xF2F2074D0002F5B8C57DA88894C742541C5C2D74DBA7285E165C2DB0BB39355E SWAP1 PUSH1 0x2 SWAP1 PUSH1 0x1 PUSH1 0xA0 SHL SWAP1 DIV PUSH1 0xFF AND PUSH1 0x5 DUP2 GT ISZERO PUSH2 0x655 JUMPI PUSH2 0x655 PUSH2 0xFF8 JUMP JUMPDEST SUB PUSH2 0x6A2 JUMPI PUSH1 0x40 MLOAD PUSH3 0x461BCD PUSH1 0xE5 SHL DUP2 MSTORE PUSH1 0x20 PUSH1 0x4 DUP3 ADD MSTORE PUSH1 0x16 PUSH1 0x24 DUP3 ADD MSTORE PUSH32 0x547261646520616C72656164792072656A656374656400000000000000000000 PUSH1 0x44 DUP3 ADD MSTORE PUSH1 0x64 ADD PUSH2 0x3D0 JUMP JUMPDEST PUSH1 0x1 DUP2 ADD SLOAD PUSH1 0x1 PUSH1 0x1 PUSH1 0xA0 SHL SUB AND PUSH2 0x6B8 PUSH2 0xFC6 JUMP JUMPDEST PUSH1 0x1 PUSH1 0x1 PUSH1 0xA0 SHL SUB AND EQ DUP1 ISZERO PUSH2 0x6EE JUMPI POP PUSH1 0x4 PUSH1 0x1 DUP3 ADD SLOAD PUSH1 0x1 PUSH1 0xA0 SHL SWAP1 DIV PUSH1 0xFF AND PUSH1 0x5 DUP2 GT ISZERO PUSH2 0x6EB JUMPI PUSH2 0x6EB PUSH2 0xFF8 JUMP JUMPDEST EQ ISZERO JUMPDEST ISZERO PUSH2 0x785 JUMPI PUSH1 0x1 DUP2 ADD DUP1 SLOAD PUSH1 0x2 SWAP2 SWAP1 PUSH1 0xFF PUSH1 0xA0 SHL NOT AND PUSH1 0x1 PUSH1 0xA0 SHL DUP4 JUMPDEST MUL OR SWAP1 SSTORE POP PUSH1 0x1 DUP2 ADD SLOAD PUSH1 0x1 PUSH1 0xA0 SHL SWAP1 DIV PUSH1 0xFF AND PUSH1 0x5 DUP2 GT ISZERO PUSH2 0x730 JUMPI PUSH2 0x730 PUSH2 0xFF8 JUMP JUMPDEST PUSH1 0x3 DUP3 ADD SLOAD PUSH1 0x1 DUP4 ADD SLOAD PUSH1 0x2 DUP5 ADD SLOAD PUSH1 0x40 MLOAD SWAP1 DUP2 MSTORE PUSH1 0x1 PUSH1 0x1 PUSH1 0xA0 SHL SUB SWAP3 DUP4 AND SWAP3 SWAP1 SWAP2 AND SWAP1 PUSH32 0xB04EFA95C2E317D8AFBA4237350A971F1CE59EF6FBBF2EB3F1A7E3F3F106A8F4 SWAP1 PUSH1 0x20 ADD PUSH1 0x40 MLOAD DUP1 SWAP2 SUB SWAP1 LOG4 POP JUMP JUMPDEST PUSH1 0x3 DUP2 ADD SLOAD PUSH1 0x1 PUSH1 0x1 PUSH1 0xA0 SHL SUB AND PUSH2 0x79B PUSH2 0xFC6 JUMP JUMPDEST PUSH1 0x1 PUSH1 0x1 PUSH1 0xA0 SHL SUB AND EQ DUP1 ISZERO PUSH2 0x7F8 JUMPI POP PUSH1 0x1 DUP1 DUP3 ADD SLOAD PUSH1 0x1 PUSH1 0xA0 SHL SWAP1 DIV PUSH1 0xFF AND PUSH1 0x5 DUP2 GT ISZERO PUSH2 0x7CD JUMPI PUSH2 0x7CD PUSH2 0xFF8 JUMP JUMPDEST EQ DUP1 PUSH2 0x7F8 JUMPI POP PUSH1 0x3 PUSH1 0x1 DUP3 ADD SLOAD PUSH1 0x1 PUSH1 0xA0 SHL SWAP1 DIV PUSH1 0xFF AND PUSH1 0x5 DUP2 GT ISZERO PUSH2 0x7F6 JUMPI PUSH2 0x7F6 PUSH2 0xFF8 JUMP JUMPDEST EQ JUMPDEST ISZERO PUSH2 0x819 JUMPI PUSH1 0x1 DUP2 ADD DUP1 SLOAD PUSH1 0x2 SWAP2 SWAP1 PUSH1 0xFF PUSH1 0xA0 SHL NOT AND PUSH1 0x1 PUSH1 0xA0 SHL DUP4 PUSH2 0x70B JUMP JUMPDEST PUSH1 0x40 MLOAD PUSH3 0x461BCD PUSH1 0xE5 SHL DUP2 MSTORE PUSH1 0x20 PUSH1 0x4 DUP3 ADD MSTORE PUSH1 0x33 PUSH1 0x24 DUP3 ADD MSTORE PUSH32 0x7468652074726164652063616E6E6F742062652072656A656374656420696E20 PUSH1 0x44 DUP3 ADD MSTORE PUSH32 0x746869732063757272656E742073746174757300000000000000000000000000 PUSH1 0x64 DUP3 ADD MSTORE PUSH1 0x84 ADD PUSH2 0x3D0 JUMP JUMPDEST PUSH32 0xF2F2074D0002F5B8C57DA88894C742541C5C2D74DBA7285E165C2DB0BB39355F SLOAD PUSH0 SWAP1 PUSH32 0xF2F2074D0002F5B8C57DA88894C742541C5C2D74DBA7285E165C2DB0BB39355E SWAP1 PUSH1 0x1 PUSH1 0x1 PUSH1 0xA0 SHL SUB AND PUSH2 0x8DE PUSH2 0xFC6 JUMP JUMPDEST PUSH1 0x1 PUSH1 0x1 PUSH1 0xA0 SHL SUB AND EQ PUSH2 0x95A JUMPI PUSH1 0x40 MLOAD PUSH3 0x461BCD PUSH1 0xE5 SHL DUP2 MSTORE PUSH1 0x20 PUSH1 0x4 DUP3 ADD MSTORE PUSH1 0x35 PUSH1 0x24 DUP3 ADD MSTORE PUSH32 0x4F6E6C79207468652073656C6C65722063616E20636F6E6669726D2074686520 PUSH1 0x44 DUP3 ADD MSTORE PUSH32 0x7061796D656E74206F6E20746869732074726164650000000000000000000000 PUSH1 0x64 DUP3 ADD MSTORE PUSH1 0x84 ADD PUSH2 0x3D0 JUMP JUMPDEST PUSH1 0x3 PUSH1 0x1 DUP3 ADD SLOAD PUSH1 0x1 PUSH1 0xA0 SHL SWAP1 DIV PUSH1 0xFF AND PUSH1 0x5 DUP2 GT ISZERO PUSH2 0x97C JUMPI PUSH2 0x97C PUSH2 0xFF8 JUMP JUMPDEST EQ PUSH2 0x9EF JUMPI PUSH1 0x40 MLOAD PUSH3 0x461BCD PUSH1 0xE5 SHL DUP2 MSTORE PUSH1 0x20 PUSH1 0x4 DUP3 ADD MSTORE PUSH1 0x2E PUSH1 0x24 DUP3 ADD MSTORE PUSH32 0x546865207472616465206D757374206265206163636570746564206279207468 PUSH1 0x44 DUP3 ADD MSTORE PUSH32 0x65206275796572206265666F7265000000000000000000000000000000000000 PUSH1 0x64 DUP3 ADD MSTORE PUSH1 0x84 ADD PUSH2 0x3D0 JUMP JUMPDEST PUSH1 0x1 DUP2 ADD DUP1 SLOAD PUSH21 0x40000000000000000000000000000000000000000 PUSH1 0xFF PUSH1 0xA0 SHL NOT DUP3 AND OR SWAP1 SWAP2 SSTORE DUP2 SLOAD PUSH1 0x3 DUP4 ADD SLOAD PUSH1 0x2 DUP5 ADD SLOAD PUSH1 0x40 MLOAD PUSH32 0x23B872DD00000000000000000000000000000000000000000000000000000000 DUP2 MSTORE PUSH1 0x1 PUSH1 0x1 PUSH1 0xA0 SHL SUB SWAP5 DUP6 AND PUSH1 0x4 DUP3 ADD MSTORE SWAP2 DUP5 AND PUSH1 0x24 DUP4 ADD MSTORE PUSH1 0x44 DUP3 ADD MSTORE PUSH0 SWAP3 SWAP1 SWAP2 AND SWAP1 PUSH4 0x23B872DD SWAP1 PUSH1 0x64 ADD PUSH1 0x20 PUSH1 0x40 MLOAD DUP1 DUP4 SUB DUP2 PUSH0 DUP8 GAS CALL ISZERO DUP1 ISZERO PUSH2 0xA91 JUMPI RETURNDATASIZE PUSH0 DUP1 RETURNDATACOPY RETURNDATASIZE PUSH0 REVERT JUMPDEST POP POP POP POP PUSH1 0x40 MLOAD RETURNDATASIZE PUSH1 0x1F NOT PUSH1 0x1F DUP3 ADD AND DUP3 ADD DUP1 PUSH1 0x40 MSTORE POP DUP2 ADD SWAP1 PUSH2 0xAB5 SWAP2 SWAP1 PUSH2 0x10C0 JUMP JUMPDEST SWAP1 POP DUP1 PUSH2 0xB04 JUMPI PUSH1 0x40 MLOAD PUSH3 0x461BCD PUSH1 0xE5 SHL DUP2 MSTORE PUSH1 0x20 PUSH1 0x4 DUP3 ADD MSTORE PUSH1 0x17 PUSH1 0x24 DUP3 ADD MSTORE PUSH32 0x746865207472616E7366657220686173206661696C6564000000000000000000 PUSH1 0x44 DUP3 ADD MSTORE PUSH1 0x64 ADD PUSH2 0x3D0 JUMP JUMPDEST PUSH1 0x1 DUP3 ADD SLOAD PUSH1 0x1 PUSH1 0xA0 SHL SWAP1 DIV PUSH1 0xFF AND PUSH1 0x5 DUP2 GT ISZERO PUSH2 0xB24 JUMPI PUSH2 0xB24 PUSH2 0xFF8 JUMP JUMPDEST PUSH1 0x3 DUP4 ADD SLOAD PUSH1 0x1 DUP5 ADD SLOAD PUSH1 0x2 DUP6 ADD SLOAD PUSH1 0x40 MLOAD SWAP1 DUP2 MSTORE PUSH1 0x1 PUSH1 0x1 PUSH1 0xA0 SHL SUB SWAP3 DUP4 AND SWAP3 SWAP1 SWAP2 AND SWAP1 PUSH32 0xB04EFA95C2E317D8AFBA4237350A971F1CE59EF6FBBF2EB3F1A7E3F3F106A8F4 SWAP1 PUSH1 0x20 ADD PUSH1 0x40 MLOAD DUP1 SWAP2 SUB SWAP1 LOG4 PUSH1 0x1 SWAP3 POP POP POP SWAP1 JUMP JUMPDEST PUSH32 0xF2F2074D0002F5B8C57DA88894C742541C5C2D74DBA7285E165C2DB0BB39355F SLOAD PUSH32 0xF2F2074D0002F5B8C57DA88894C742541C5C2D74DBA7285E165C2DB0BB39355E SWAP1 PUSH1 0x1 PUSH1 0x1 PUSH1 0xA0 SHL SUB AND PUSH2 0xBD4 PUSH2 0xFC6 JUMP JUMPDEST PUSH1 0x1 PUSH1 0x1 PUSH1 0xA0 SHL SUB AND EQ PUSH2 0xC50 JUMPI PUSH1 0x40 MLOAD PUSH3 0x461BCD PUSH1 0xE5 SHL DUP2 MSTORE PUSH1 0x20 PUSH1 0x4 DUP3 ADD MSTORE PUSH1 0x25 PUSH1 0x24 DUP3 ADD MSTORE PUSH32 0x4F6E6C79207468652073656C6C65722063616E20757064617465207468697320 PUSH1 0x44 DUP3 ADD MSTORE PUSH32 0x7472616465000000000000000000000000000000000000000000000000000000 PUSH1 0x64 DUP3 ADD MSTORE PUSH1 0x84 ADD PUSH2 0x3D0 JUMP JUMPDEST PUSH0 PUSH1 0x1 DUP3 ADD SLOAD PUSH1 0x1 PUSH1 0xA0 SHL SWAP1 DIV PUSH1 0xFF AND PUSH1 0x5 DUP2 GT ISZERO PUSH2 0xC71 JUMPI PUSH2 0xC71 PUSH2 0xFF8 JUMP JUMPDEST EQ PUSH2 0xCE4 JUMPI PUSH1 0x40 MLOAD PUSH3 0x461BCD PUSH1 0xE5 SHL DUP2 MSTORE PUSH1 0x20 PUSH1 0x4 DUP3 ADD MSTORE PUSH1 0x36 PUSH1 0x24 DUP3 ADD MSTORE PUSH32 0x43616E6E6F74206368616E6765207468652074726164652064657461696C7320 PUSH1 0x44 DUP3 ADD MSTORE PUSH32 0x756E6C65737320696E2064726166742073746174757300000000000000000000 PUSH1 0x64 DUP3 ADD MSTORE PUSH1 0x84 ADD PUSH2 0x3D0 JUMP JUMPDEST DUP1 SLOAD PUSH1 0x20 DUP4 ADD MLOAD PUSH1 0x40 MLOAD PUSH32 0xC41251A100000000000000000000000000000000000000000000000000000000 DUP2 MSTORE PUSH1 0x1 PUSH1 0x1 PUSH1 0xA0 SHL SUB SWAP2 DUP3 AND PUSH1 0x4 DUP3 ADD MSTORE SWAP2 AND SWAP1 PUSH4 0xC41251A1 SWAP1 PUSH1 0x24 ADD PUSH1 0x20 PUSH1 0x40 MLOAD DUP1 DUP4 SUB DUP2 DUP7 GAS STATICCALL ISZERO DUP1 ISZERO PUSH2 0xD48 JUMPI RETURNDATASIZE PUSH0 DUP1 RETURNDATACOPY RETURNDATASIZE PUSH0 REVERT JUMPDEST POP POP POP POP PUSH1 0x40 MLOAD RETURNDATASIZE PUSH1 0x1F NOT PUSH1 0x1F DUP3 ADD AND DUP3 ADD DUP1 PUSH1 0x40 MSTORE POP DUP2 ADD SWAP1 PUSH2 0xD6C SWAP2 SWAP1 PUSH2 0x10C0 JUMP JUMPDEST PUSH2 0xDDE JUMPI PUSH1 0x40 MLOAD PUSH3 0x461BCD PUSH1 0xE5 SHL DUP2 MSTORE PUSH1 0x20 PUSH1 0x4 DUP3 ADD MSTORE PUSH1 0x37 PUSH1 0x24 DUP3 ADD MSTORE PUSH32 0x4275796572206D75737420626520612076616C696420696E766573746F722065 PUSH1 0x44 DUP3 ADD MSTORE PUSH32 0x76656E206F6E206368616E67696E672064657461696C73000000000000000000 PUSH1 0x64 DUP3 ADD MSTORE PUSH1 0x84 ADD PUSH2 0x3D0 JUMP JUMPDEST DUP2 MLOAD PUSH1 0x2 DUP3 ADD SSTORE PUSH1 0x20 DUP3 ADD MLOAD PUSH1 0x3 DUP3 ADD DUP1 SLOAD PUSH32 0xFFFFFFFFFFFFFFFFFFFFFFFF0000000000000000000000000000000000000000 AND PUSH1 0x1 PUSH1 0x1 PUSH1 0xA0 SHL SUB SWAP1 SWAP3 AND SWAP2 SWAP1 SWAP2 OR SWAP1 SSTORE PUSH1 0x40 DUP3 ADD MLOAD PUSH1 0x4 DUP3 ADD SSTORE PUSH1 0x60 DUP3 ADD MLOAD PUSH1 0x5 DUP1 DUP4 ADD SWAP2 SWAP1 SWAP2 SSTORE PUSH1 0x80 DUP4 ADD MLOAD PUSH1 0x6 DUP4 ADD SSTORE PUSH1 0x1 DUP3 ADD SLOAD PUSH1 0x1 PUSH1 0xA0 SHL SWAP1 DIV PUSH1 0xFF AND SWAP1 DUP2 GT ISZERO PUSH2 0xE64 JUMPI PUSH2 0xE64 PUSH2 0xFF8 JUMP JUMPDEST PUSH1 0x20 DUP4 DUP2 ADD MLOAD PUSH1 0x1 DUP5 ADD SLOAD DUP6 MLOAD PUSH1 0x40 MLOAD SWAP1 DUP2 MSTORE PUSH1 0x1 PUSH1 0x1 PUSH1 0xA0 SHL SUB SWAP3 DUP4 AND SWAP4 SWAP3 SWAP1 SWAP2 AND SWAP2 PUSH32 0xB04EFA95C2E317D8AFBA4237350A971F1CE59EF6FBBF2EB3F1A7E3F3F106A8F4 SWAP2 ADD PUSH1 0x40 MLOAD DUP1 SWAP2 SUB SWAP1 LOG4 POP POP JUMP JUMPDEST PUSH2 0xEED PUSH1 0x40 MLOAD DUP1 PUSH1 0xA0 ADD PUSH1 0x40 MSTORE DUP1 PUSH0 DUP2 MSTORE PUSH1 0x20 ADD PUSH0 PUSH1 0x1 PUSH1 0x1 PUSH1 0xA0 SHL SUB AND DUP2 MSTORE PUSH1 0x20 ADD PUSH0 DUP2 MSTORE PUSH1 0x20 ADD PUSH0 DUP2 MSTORE PUSH1 0x20 ADD PUSH0 DUP2 MSTORE POP SWAP1 JUMP JUMPDEST POP PUSH1 0x40 DUP1 MLOAD PUSH1 0xA0 DUP2 ADD DUP3 MSTORE PUSH32 0xF2F2074D0002F5B8C57DA88894C742541C5C2D74DBA7285E165C2DB0BB393560 SLOAD DUP2 MSTORE PUSH32 0xF2F2074D0002F5B8C57DA88894C742541C5C2D74DBA7285E165C2DB0BB393561 SLOAD PUSH1 0x1 PUSH1 0x1 PUSH1 0xA0 SHL SUB AND PUSH1 0x20 DUP3 ADD MSTORE PUSH32 0xF2F2074D0002F5B8C57DA88894C742541C5C2D74DBA7285E165C2DB0BB393562 SLOAD SWAP2 DUP2 ADD SWAP2 SWAP1 SWAP2 MSTORE PUSH32 0xF2F2074D0002F5B8C57DA88894C742541C5C2D74DBA7285E165C2DB0BB393563 SLOAD PUSH1 0x60 DUP3 ADD MSTORE PUSH32 0xF2F2074D0002F5B8C57DA88894C742541C5C2D74DBA7285E165C2DB0BB393564 SLOAD PUSH1 0x80 DUP3 ADD MSTORE SWAP1 JUMP JUMPDEST PUSH0 DUP1 SLOAD PUSH1 0x1 PUSH1 0x1 PUSH1 0xA0 SHL SUB AND CALLER EQ DUP1 ISZERO PUSH2 0xFE1 JUMPI POP PUSH1 0x14 CALLDATASIZE LT ISZERO JUMPDEST ISZERO PUSH2 0xFF3 JUMPI POP PUSH1 0x13 NOT CALLDATASIZE ADD CALLDATALOAD PUSH1 0x60 SHR SWAP1 JUMP JUMPDEST POP CALLER SWAP1 JUMP JUMPDEST PUSH4 0x4E487B71 PUSH1 0xE0 SHL PUSH0 MSTORE PUSH1 0x21 PUSH1 0x4 MSTORE PUSH1 0x24 PUSH0 REVERT JUMPDEST PUSH1 0x20 DUP2 ADD PUSH1 0x6 DUP4 LT PUSH2 0x102C JUMPI PUSH4 0x4E487B71 PUSH1 0xE0 SHL PUSH0 MSTORE PUSH1 0x21 PUSH1 0x4 MSTORE PUSH1 0x24 PUSH0 REVERT JUMPDEST SWAP2 SWAP1 MSTORE SWAP1 JUMP JUMPDEST PUSH0 PUSH1 0xA0 DUP3 DUP5 SUB SLT ISZERO PUSH2 0x1042 JUMPI PUSH0 DUP1 REVERT JUMPDEST PUSH1 0x40 MLOAD PUSH1 0xA0 DUP2 ADD DUP2 DUP2 LT PUSH8 0xFFFFFFFFFFFFFFFF DUP3 GT OR ISZERO PUSH2 0x1071 JUMPI PUSH4 0x4E487B71 PUSH1 0xE0 SHL PUSH0 MSTORE PUSH1 0x41 PUSH1 0x4 MSTORE PUSH1 0x24 PUSH0 REVERT JUMPDEST PUSH1 0x40 MSTORE DUP3 CALLDATALOAD DUP2 MSTORE PUSH1 0x20 DUP4 ADD CALLDATALOAD PUSH1 0x1 PUSH1 0x1 PUSH1 0xA0 SHL SUB DUP2 AND DUP2 EQ PUSH2 0x1091 JUMPI PUSH0 DUP1 REVERT JUMPDEST DUP1 PUSH1 0x20 DUP4 ADD MSTORE POP PUSH1 0x40 DUP4 ADD CALLDATALOAD PUSH1 0x40 DUP3 ADD MSTORE PUSH1 0x60 DUP4 ADD CALLDATALOAD PUSH1 0x60 DUP3 ADD MSTORE PUSH1 0x80 DUP4 ADD CALLDATALOAD PUSH1 0x80 DUP3 ADD MSTORE DUP1 SWAP2 POP POP SWAP3 SWAP2 POP POP JUMP JUMPDEST PUSH0 PUSH1 0x20 DUP3 DUP5 SUB SLT ISZERO PUSH2 0x10D0 JUMPI PUSH0 DUP1 REVERT JUMPDEST DUP2 MLOAD DUP1 ISZERO ISZERO DUP2 EQ PUSH2 0x10DF JUMPI PUSH0 DUP1 REVERT JUMPDEST SWAP4 SWAP3 POP POP POP JUMP INVALID LOG2 PUSH5 0x6970667358 0x22 SLT KECCAK256 CALLDATALOAD KECCAK256 SHL PUSH1 0x5 0xB4 0xBF MSTORE8 PUSH24 0x1A2F09CBFC761EC5979253C14619CBA2CB119FDB1B1D7964 PUSH20 0x6F6C634300081400330000000000000000000000 "},"methodIdentifiers":{"approve()":"12424e3f","buyerAccount()":"489147d7","executeTransfer()":"835d2d2e","getDetails()":"fbbf93a0","paymentID()":"d84ffb41","register()":"1aa3a008","reject()":"4dc415de","sellerAccount()":"10547851","setDetails((uint256,address,uint256,uint256,uint256))":"b787cfe6","status()":"200d2ed2"}}}}}