{
  "_format": "hh-sol-artifact-1",
  "contractName": "BinaryHeapAddressMock",
  "sourceName": "contracts/data/BinaryHeapAddressMock.sol",
  "abi": [
    {
      "inputs": [
        {
          "internalType": "address",
          "name": "value",
          "type": "address"
        }
      ],
      "name": "add",
      "outputs": [
        {
          "internalType": "bool",
          "name": "",
          "type": "bool"
        }
      ],
      "stateMutability": "nonpayable",
      "type": "function"
    },
    {
      "inputs": [
        {
          "internalType": "uint256",
          "name": "index",
          "type": "uint256"
        }
      ],
      "name": "at",
      "outputs": [
        {
          "internalType": "address",
          "name": "",
          "type": "address"
        }
      ],
      "stateMutability": "view",
      "type": "function"
    },
    {
      "inputs": [
        {
          "internalType": "address",
          "name": "value",
          "type": "address"
        }
      ],
      "name": "contains",
      "outputs": [
        {
          "internalType": "bool",
          "name": "",
          "type": "bool"
        }
      ],
      "stateMutability": "view",
      "type": "function"
    },
    {
      "inputs": [
        {
          "internalType": "address",
          "name": "value",
          "type": "address"
        }
      ],
      "name": "indexOf",
      "outputs": [
        {
          "internalType": "uint256",
          "name": "",
          "type": "uint256"
        }
      ],
      "stateMutability": "view",
      "type": "function"
    },
    {
      "inputs": [],
      "name": "length",
      "outputs": [
        {
          "internalType": "uint256",
          "name": "",
          "type": "uint256"
        }
      ],
      "stateMutability": "view",
      "type": "function"
    },
    {
      "inputs": [
        {
          "internalType": "address",
          "name": "value",
          "type": "address"
        }
      ],
      "name": "remove",
      "outputs": [
        {
          "internalType": "bool",
          "name": "",
          "type": "bool"
        }
      ],
      "stateMutability": "nonpayable",
      "type": "function"
    },
    {
      "inputs": [],
      "name": "root",
      "outputs": [
        {
          "internalType": "address",
          "name": "",
          "type": "address"
        }
      ],
      "stateMutability": "view",
      "type": "function"
    },
    {
      "inputs": [],
      "name": "toArray",
      "outputs": [
        {
          "internalType": "address[]",
          "name": "",
          "type": "address[]"
        }
      ],
      "stateMutability": "view",
      "type": "function"
    }
  ],
  "bytecode": "0x608060405234801561000f575f80fd5b5061062d8061001d5f395ff3fe608060405234801561000f575f80fd5b5060043610610085575f3560e01c8063908ff30311610058578063908ff303146100ed578063e0886f9014610102578063ebf0c7171461012d578063fd6aad2514610135575f80fd5b80630a3b0a4f146100895780631f7b6d32146100b157806329092d0e146100c75780635dbe47e8146100da575b5f80fd5b61009c610097366004610546565b610148565b60405190151581526020015b60405180910390f35b6100b9610159565b6040519081526020016100a8565b61009c6100d5366004610546565b610168565b61009c6100e8366004610546565b610173565b6100f561017e565b6040516100a8919061056c565b6101156101103660046105b8565b610189565b6040516001600160a01b0390911681526020016100a8565b610115610194565b6100b9610143366004610546565b61019e565b5f61015381836101a9565b92915050565b5f6101635f6101c4565b905090565b5f61015381836101cd565b5f61015381836101e1565b60606101635f610202565b5f6101538183610266565b5f6101635f610271565b5f610153818361027b565b5f6101bd836001600160a01b03841661029d565b9392505050565b5f610153825490565b5f6101bd836001600160a01b0384166102e9565b6001600160a01b0381165f90815260018301602052604081205415156101bd565b8054604080516020808402820181019092528281526060928492839291839183018282801561025857602002820191905f5260205f20905b81546001600160a01b0316815260019091019060200180831161023a575b505050505092505050919050565b5f6101bd8383610373565b5f61015382610399565b6001600160a01b0381165f9081526001830160205260408120545f19016101bd565b5f8181526001830160205260408120546101535782546001810184555f848152602090200182905582545f8381526001850160205260409020556102e0836103a4565b50600192915050565b5f81815260018301602052604081205415610153575f8281526001840160205260408120545f1901905061032884826001610322885490565b036103d2565b8354849080610339576103396105cf565b5f828152602080822083015f199081018390559092019092558482526001860190526040812055610369846103a4565b5060019392505050565b5f825f018281548110610388576103886105e3565b905f5260205f200154905092915050565b5f610153825f610373565b5f6103ad825490565b9050600281045b80156103cd575f19016103c883838361047e565b6103b4565b505050565b825483905f908290859081106103ea576103ea6105e3565b905f5260205f20015490505f828481548110610408576104086105e3565b905f5260205f20015490508082848781548110610427576104276105e3565b905f5260205f20015f868881548110610442576104426105e3565b5f918252602080832090910194909455939091555082825260019097019096526040808720805493885290872080549290975255909355505050565b8083600182811b811790810185821080156104cc57508282815481106104a6576104a66105e3565b905f5260205f2001548385815481106104c1576104c16105e3565b905f5260205f200154105b156104d5578193505b858110801561051757508281815481106104f1576104f16105e3565b905f5260205f20015483858154811061050c5761050c6105e3565b905f5260205f200154105b15610520578093505b505082821461053f576105348584846103d2565b61053f85858461047e565b5050505050565b5f60208284031215610556575f80fd5b81356001600160a01b03811681146101bd575f80fd5b602080825282518282018190525f9190848201906040850190845b818110156105ac5783516001600160a01b031683529284019291840191600101610587565b50909695505050505050565b5f602082840312156105c8575f80fd5b5035919050565b634e487b7160e01b5f52603160045260245ffd5b634e487b7160e01b5f52603260045260245ffdfea26469706673582212207dd61991ccde8284e1e28054a3d36e78485f6dadab80a60e4e4872516f000d8664736f6c63430008140033",
  "linkReferences": {},
  "deployedLinkReferences": {}
}