{
  "_format": "hh-sol-artifact-1",
  "contractName": "SmartContractAccessManagement",
  "sourceName": "contracts/register/access/SmartContractAccessManagement.sol",
  "abi": [
    {
      "inputs": [],
      "name": "EnumerableSet__IndexOutOfBounds",
      "type": "error"
    },
    {
      "inputs": [],
      "name": "UintUtils__InsufficientHexLength",
      "type": "error"
    },
    {
      "anonymous": false,
      "inputs": [
        {
          "indexed": true,
          "internalType": "address",
          "name": "_addressForNewAdmin",
          "type": "address"
        }
      ],
      "name": "AdminChanged",
      "type": "event"
    },
    {
      "anonymous": false,
      "inputs": [
        {
          "indexed": false,
          "internalType": "bytes32",
          "name": "contractHash",
          "type": "bytes32"
        }
      ],
      "name": "DisableContract",
      "type": "event"
    },
    {
      "anonymous": false,
      "inputs": [
        {
          "indexed": false,
          "internalType": "bytes32",
          "name": "contractHash",
          "type": "bytes32"
        }
      ],
      "name": "EnableContract",
      "type": "event"
    },
    {
      "anonymous": false,
      "inputs": [
        {
          "indexed": false,
          "internalType": "uint64",
          "name": "version",
          "type": "uint64"
        }
      ],
      "name": "Initialized",
      "type": "event"
    },
    {
      "anonymous": false,
      "inputs": [
        {
          "indexed": true,
          "internalType": "bytes32",
          "name": "role",
          "type": "bytes32"
        },
        {
          "indexed": true,
          "internalType": "bytes32",
          "name": "previousAdminRole",
          "type": "bytes32"
        },
        {
          "indexed": true,
          "internalType": "bytes32",
          "name": "newAdminRole",
          "type": "bytes32"
        }
      ],
      "name": "RoleAdminChanged",
      "type": "event"
    },
    {
      "anonymous": false,
      "inputs": [
        {
          "indexed": true,
          "internalType": "bytes32",
          "name": "role",
          "type": "bytes32"
        },
        {
          "indexed": true,
          "internalType": "address",
          "name": "account",
          "type": "address"
        },
        {
          "indexed": true,
          "internalType": "address",
          "name": "sender",
          "type": "address"
        }
      ],
      "name": "RoleGranted",
      "type": "event"
    },
    {
      "anonymous": false,
      "inputs": [
        {
          "indexed": true,
          "internalType": "bytes32",
          "name": "role",
          "type": "bytes32"
        },
        {
          "indexed": true,
          "internalType": "address",
          "name": "account",
          "type": "address"
        },
        {
          "indexed": true,
          "internalType": "address",
          "name": "sender",
          "type": "address"
        }
      ],
      "name": "RoleRevoked",
      "type": "event"
    },
    {
      "inputs": [],
      "name": "BND_ROLE",
      "outputs": [
        {
          "internalType": "bytes32",
          "name": "",
          "type": "bytes32"
        }
      ],
      "stateMutability": "view",
      "type": "function"
    },
    {
      "inputs": [],
      "name": "CAK_ROLE",
      "outputs": [
        {
          "internalType": "bytes32",
          "name": "",
          "type": "bytes32"
        }
      ],
      "stateMutability": "view",
      "type": "function"
    },
    {
      "inputs": [],
      "name": "CST_ROLE",
      "outputs": [
        {
          "internalType": "bytes32",
          "name": "",
          "type": "bytes32"
        }
      ],
      "stateMutability": "view",
      "type": "function"
    },
    {
      "inputs": [],
      "name": "PAY_ROLE",
      "outputs": [
        {
          "internalType": "bytes32",
          "name": "",
          "type": "bytes32"
        }
      ],
      "stateMutability": "view",
      "type": "function"
    },
    {
      "inputs": [
        {
          "internalType": "address",
          "name": "addr_",
          "type": "address"
        }
      ],
      "name": "atReturningHash",
      "outputs": [
        {
          "internalType": "bytes32",
          "name": "hash",
          "type": "bytes32"
        }
      ],
      "stateMutability": "view",
      "type": "function"
    },
    {
      "inputs": [
        {
          "internalType": "bytes32",
          "name": "contractHash",
          "type": "bytes32"
        }
      ],
      "name": "disableContractFromWhitelist",
      "outputs": [],
      "stateMutability": "nonpayable",
      "type": "function"
    },
    {
      "inputs": [
        {
          "internalType": "bytes32",
          "name": "contractHash",
          "type": "bytes32"
        }
      ],
      "name": "enableContractToWhitelist",
      "outputs": [],
      "stateMutability": "nonpayable",
      "type": "function"
    },
    {
      "inputs": [
        {
          "internalType": "bytes32",
          "name": "role",
          "type": "bytes32"
        }
      ],
      "name": "getRoleAdmin",
      "outputs": [
        {
          "internalType": "bytes32",
          "name": "",
          "type": "bytes32"
        }
      ],
      "stateMutability": "view",
      "type": "function"
    },
    {
      "inputs": [
        {
          "internalType": "bytes32",
          "name": "role",
          "type": "bytes32"
        },
        {
          "internalType": "uint256",
          "name": "index",
          "type": "uint256"
        }
      ],
      "name": "getRoleMember",
      "outputs": [
        {
          "internalType": "address",
          "name": "",
          "type": "address"
        }
      ],
      "stateMutability": "view",
      "type": "function"
    },
    {
      "inputs": [
        {
          "internalType": "bytes32",
          "name": "role",
          "type": "bytes32"
        }
      ],
      "name": "getRoleMemberCount",
      "outputs": [
        {
          "internalType": "uint256",
          "name": "",
          "type": "uint256"
        }
      ],
      "stateMutability": "view",
      "type": "function"
    },
    {
      "inputs": [
        {
          "internalType": "bytes32",
          "name": "role",
          "type": "bytes32"
        },
        {
          "internalType": "address",
          "name": "account",
          "type": "address"
        }
      ],
      "name": "grantRole",
      "outputs": [],
      "stateMutability": "nonpayable",
      "type": "function"
    },
    {
      "inputs": [
        {
          "internalType": "bytes32",
          "name": "role",
          "type": "bytes32"
        },
        {
          "internalType": "address",
          "name": "account",
          "type": "address"
        }
      ],
      "name": "hasRole",
      "outputs": [
        {
          "internalType": "bool",
          "name": "",
          "type": "bool"
        }
      ],
      "stateMutability": "view",
      "type": "function"
    },
    {
      "inputs": [],
      "name": "isCallerApprovedSmartContract",
      "outputs": [
        {
          "internalType": "bool",
          "name": "",
          "type": "bool"
        }
      ],
      "stateMutability": "view",
      "type": "function"
    },
    {
      "inputs": [
        {
          "internalType": "address",
          "name": "contractAddress_",
          "type": "address"
        }
      ],
      "name": "isContractAllowed",
      "outputs": [
        {
          "internalType": "bool",
          "name": "",
          "type": "bool"
        }
      ],
      "stateMutability": "view",
      "type": "function"
    },
    {
      "inputs": [
        {
          "internalType": "bytes32",
          "name": "role",
          "type": "bytes32"
        }
      ],
      "name": "renounceRole",
      "outputs": [],
      "stateMutability": "nonpayable",
      "type": "function"
    },
    {
      "inputs": [
        {
          "internalType": "bytes32",
          "name": "role",
          "type": "bytes32"
        },
        {
          "internalType": "address",
          "name": "account",
          "type": "address"
        }
      ],
      "name": "revokeRole",
      "outputs": [],
      "stateMutability": "nonpayable",
      "type": "function"
    }
  ],
  "bytecode": "0x608060405234801561000f575f80fd5b5061112a8061001d5f395ff3fe608060405234801561000f575f80fd5b50600436106100fb575f3560e01c80639010d07c11610093578063ca15c87311610063578063ca15c87314610265578063d547741f14610278578063d614284a1461028b578063d696fb0b1461029e575f80fd5b80639010d07c1461020c57806391d1485414610237578063a19621831461024a578063c2faae591461025d575f80fd5b80633bf2a9f4116100ce5780633bf2a9f4146101885780636f2ddb5f146101af5780638865f1e2146101d25780638bb9c5bf146101f9575f80fd5b80631c67a363146100ff578063248a9ca3146101395780632682ac911461014c5780632f2ff15d14610173575b5f80fd5b6101267f6ba6f588bcdc2df8426603a466c98ab15e79f7fb7f37b53581ce39c1d01b724981565b6040519081526020015b60405180910390f35b610126610147366004610f11565b6102b1565b6101267ff698af62c65280e4949bceec64b760f3b7738217cbc536cdfc4c9463676b05c281565b610186610181366004610f43565b6102e8565b005b6101267fd7aa2ddfa4e381128202bf365b7e0a176f2fca6cdf2f23c2b0a6f4393769589081565b6101c26101bd366004610f6d565b610330565b6040519015158152602001610130565b6101267fa75205b8583660bdad375c0ccde11af17668d76a408a9a5e739251b0f7c5987081565b610186610207366004610f11565b61033a565b61021f61021a366004610f86565b610346565b6040516001600160a01b039091168152602001610130565b6101c2610245366004610f43565b610358565b610126610258366004610f6d565b610363565b6101c261036d565b610126610273366004610f11565b61037b565b610186610286366004610f43565b610385565b610186610299366004610f11565b6103c8565b6101866102ac366004610f11565b6103d1565b5f8181527f2e59e4c2e927cdddbb64e181e0668d9a0fa70dd88f94d999cd87d5496a20da6260205260408120600201545b92915050565b5f8281527f2e59e4c2e927cdddbb64e181e0668d9a0fa70dd88f94d999cd87d5496a20da626020526040902060020154610321816103da565b61032b83836103e4565b505050565b5f6102e28261059e565b610343816105e3565b50565b5f61035183836105ed565b9392505050565b5f6103518383610623565b5f6102e282610659565b5f610376610689565b905090565b5f6102e2826106cd565b5f8281527f2e59e4c2e927cdddbb64e181e0668d9a0fa70dd88f94d999cd87d5496a20da6260205260409020600201546103be816103da565b61032b8383610702565b610343816108a8565b61034381610973565b6103438133610a2c565b816104475760405162461bcd60e51b8152602060048201526024808201527f5573652066756e6374696f6e206368616e676541646d696e526f6c6520696e736044820152631d19585960e21b60648201526084015b60405180910390fd5b610590565b7fa75205b8583660bdad375c0ccde11af17668d76a408a9a5e739251b0f7c59870820361051a576104987fa75205b8583660bdad375c0ccde11af17668d76a408a9a5e739251b0f7c5987033610623565b806104a857506104a85f33610623565b6104425760405162461bcd60e51b815260206004820152602e60248201527f43616c6c6572206d7573742062652043414b206f722041444d494e20746f207360448201527f657420616e6f746865722043414b0000000000000000000000000000000000006064820152608401610439565b6105447fa75205b8583660bdad375c0ccde11af17668d76a408a9a5e739251b0f7c5987033610623565b6105905760405162461bcd60e51b815260206004820181905260248201527f43616c6c6572206d7573742062652043414b20746f20736574206120726f6c656044820152606401610439565b61059a8282610a8e565b5050565b5f7f3ab46f175c5f1d1c97765e87ec0d68e6241fafc1b077d060ce0c29744cd3616d816105ca84610659565b5f90815260209290925250604090205460ff1692915050565b6103438133610702565b5f8281527f2e59e4c2e927cdddbb64e181e0668d9a0fa70dd88f94d999cd87d5496a20da62602052604081206103519083610b00565b5f8281527f2e59e4c2e927cdddbb64e181e0668d9a0fa70dd88f94d999cd87d5496a20da62602052604081206103519083610b0b565b60408051603f833b908101601f191682019092528181525f91808360208401863c50805160209091012092915050565b5f7f3ab46f175c5f1d1c97765e87ec0d68e6241fafc1b077d060ce0c29744cd3616d816106b533610659565b5f90815260209290925250604090205460ff16919050565b5f8181527f2e59e4c2e927cdddbb64e181e0668d9a0fa70dd88f94d999cd87d5496a20da62602052604081206102e290610b2c565b8161075b5760405162461bcd60e51b8152602060048201526024808201527f5573652066756e6374696f6e206368616e676541646d696e526f6c6520696e736044820152631d19585960e21b6064820152608401610439565b7fa75205b8583660bdad375c0ccde11af17668d76a408a9a5e739251b0f7c5987082036108025761078c5f33610623565b6107fd5760405162461bcd60e51b8152602060048201526024808201527f43616c6c6572206d7573742062652041444d494e20746f2072656d6f7665206160448201527f2043414b000000000000000000000000000000000000000000000000000000006064820152608401610439565b61089e565b61082c7fa75205b8583660bdad375c0ccde11af17668d76a408a9a5e739251b0f7c5987033610623565b61089e5760405162461bcd60e51b815260206004820152602360248201527f43616c6c6572206d7573742062652043414b20746f2072656d6f76652061207260448201527f6f6c6500000000000000000000000000000000000000000000000000000000006064820152608401610439565b61059a8282610b35565b7f3ab46f175c5f1d1c97765e87ec0d68e6241fafc1b077d060ce0c29744cd3616d6108d1610ba7565b61091d5760405162461bcd60e51b815260206004820152601260248201527f43616c6c6572206d7573742062652043414b00000000000000000000000000006044820152606401610439565b5f8281526020829052604090819020805460ff19166001179055517fbaf2f827de189827a9b5ea8781dbbffcad675a367dccaad8b9ada866795598d7906109679084815260200190565b60405180910390a15050565b7f3ab46f175c5f1d1c97765e87ec0d68e6241fafc1b077d060ce0c29744cd3616d61099c610ba7565b6109e85760405162461bcd60e51b815260206004820152601260248201527f43616c6c6572206d7573742062652043414b00000000000000000000000000006044820152606401610439565b5f8281526020828152604091829020805460ff1916905590518381527f2876b9bd97a638025f28a0d50cb5f3cd9e5c0b85624fb7ee15267149452c2d749101610967565b610a368282610623565b61059a57610a4c816001600160a01b0316610bd2565b610a57836020610be4565b604051602001610a68929190610fc8565b60408051601f198184030181529082905262461bcd60e51b825261043991600401611048565b5f8281527f2e59e4c2e927cdddbb64e181e0668d9a0fa70dd88f94d999cd87d5496a20da6260205260409020610ac49082610d8f565b5060405133906001600160a01b0383169084907f2f8788117e7eff1d82e926ec794901d17c78024a50270940304540a733656f0d905f90a45050565b5f6103518383610da3565b6001600160a01b0381165f9081526001830160205260408120541515610351565b5f6102e2825490565b5f8281527f2e59e4c2e927cdddbb64e181e0668d9a0fa70dd88f94d999cd87d5496a20da6260205260409020610b6b9082610e04565b5060405133906001600160a01b0383169084907ff6391f5c32d9c69d2a47ea670b442974b53935d1edc7fd64eb21e047a839171b905f90a45050565b5f6103767fa75205b8583660bdad375c0ccde11af17668d76a408a9a5e739251b0f7c5987033610623565b60606102e26001600160a01b03831660145b60605f610bf283600261108e565b610bfd9060026110a5565b67ffffffffffffffff811115610c1557610c156110b8565b6040519080825280601f01601f191660200182016040528015610c3f576020820181803683370190505b5090507f3000000000000000000000000000000000000000000000000000000000000000815f81518110610c7557610c756110cc565b60200101906001600160f81b03191690815f1a9053507f780000000000000000000000000000000000000000000000000000000000000081600181518110610cbf57610cbf6110cc565b60200101906001600160f81b03191690815f1a905350600160028402015b6001811115610d56577f303132333435363738396162636465660000000000000000000000000000000085600f1660108110610d1b57610d1b6110cc565b1a60f81b828281518110610d3157610d316110cc565b60200101906001600160f81b03191690815f1a90535060049490941c935f1901610cdd565b508315610351576040517fc913478500000000000000000000000000000000000000000000000000000000815260040160405180910390fd5b5f610351836001600160a01b038416610e18565b81545f908210610ddf576040517fe637bf3b00000000000000000000000000000000000000000000000000000000815260040160405180910390fd5b825f018281548110610df357610df36110cc565b905f5260205f200154905092915050565b5f610351836001600160a01b038416610e59565b5f8181526001830160205260408120546102e257508154600180820184555f8481526020808220909301849055845493815293810190915260409092205590565b5f8181526001830160205260408120548015610f0a5783545f9085905f198101908110610e8857610e886110cc565b905f5260205f200154905080855f016001840381548110610eab57610eab6110cc565b5f918252602080832090910192909255918252600186019052604090208190558354849080610edc57610edc6110e0565b600190038181905f5260205f20015f90559055836001015f8481526020019081526020015f205f9055600191505b5092915050565b5f60208284031215610f21575f80fd5b5035919050565b80356001600160a01b0381168114610f3e575f80fd5b919050565b5f8060408385031215610f54575f80fd5b82359150610f6460208401610f28565b90509250929050565b5f60208284031215610f7d575f80fd5b61035182610f28565b5f8060408385031215610f97575f80fd5b50508035926020909101359150565b5f5b83811015610fc0578181015183820152602001610fa8565b50505f910152565b7f416363657373436f6e74726f6c3a206163636f756e742000000000000000000081525f8351610fff816017850160208801610fa6565b7f206973206d697373696e6720726f6c6520000000000000000000000000000000601791840191820152835161103c816028840160208801610fa6565b01602801949350505050565b602081525f8251806020840152611066816040850160208701610fa6565b601f01601f19169190910160400192915050565b634e487b7160e01b5f52601160045260245ffd5b80820281158282048414176102e2576102e261107a565b808201808211156102e2576102e261107a565b634e487b7160e01b5f52604160045260245ffd5b634e487b7160e01b5f52603260045260245ffd5b634e487b7160e01b5f52603160045260245ffdfea26469706673582212206617ee619660e3af861dffdf680af1c7c775f26ff5cae34887447acae6b4748664736f6c63430008140033",
  "linkReferences": {},
  "deployedLinkReferences": {}
}