{
  "_format": "hh-sol-artifact-1",
  "contractName": "Register",
  "sourceName": "src/Register.sol",
  "abi": [
    {
      "inputs": [
        {
          "internalType": "string",
          "name": "name_",
          "type": "string"
        },
        {
          "internalType": "string",
          "name": "isin_",
          "type": "string"
        },
        {
          "internalType": "uint256",
          "name": "expectedSupply_",
          "type": "uint256"
        },
        {
          "internalType": "bytes32",
          "name": "currency_",
          "type": "bytes32"
        },
        {
          "internalType": "uint256",
          "name": "unitVal_",
          "type": "uint256"
        },
        {
          "internalType": "uint256",
          "name": "couponRate_",
          "type": "uint256"
        },
        {
          "internalType": "uint256",
          "name": "creationDate_",
          "type": "uint256"
        },
        {
          "internalType": "uint256",
          "name": "issuanceDate_",
          "type": "uint256"
        },
        {
          "internalType": "uint256",
          "name": "maturityDate_",
          "type": "uint256"
        },
        {
          "internalType": "uint256[]",
          "name": "couponDates_",
          "type": "uint256[]"
        },
        {
          "internalType": "uint256",
          "name": "cutofftime_",
          "type": "uint256"
        }
      ],
      "stateMutability": "nonpayable",
      "type": "constructor"
    },
    {
      "anonymous": false,
      "inputs": [
        {
          "indexed": true,
          "internalType": "address",
          "name": "_addressForNewAdmin",
          "type": "address"
        }
      ],
      "name": "AdminChanged",
      "type": "event"
    },
    {
      "anonymous": false,
      "inputs": [
        {
          "indexed": true,
          "internalType": "address",
          "name": "owner",
          "type": "address"
        },
        {
          "indexed": true,
          "internalType": "address",
          "name": "spender",
          "type": "address"
        },
        {
          "indexed": false,
          "internalType": "uint256",
          "name": "value",
          "type": "uint256"
        }
      ],
      "name": "Approval",
      "type": "event"
    },
    {
      "anonymous": false,
      "inputs": [
        {
          "indexed": true,
          "internalType": "bytes32",
          "name": "transactionID",
          "type": "bytes32"
        },
        {
          "indexed": true,
          "internalType": "bytes32",
          "name": "paymentID",
          "type": "bytes32"
        },
        {
          "indexed": false,
          "internalType": "enum Register.LockStatus",
          "name": "status",
          "type": "uint8"
        }
      ],
      "name": "AssetLocked",
      "type": "event"
    },
    {
      "anonymous": false,
      "inputs": [
        {
          "indexed": true,
          "internalType": "bytes32",
          "name": "transactionID",
          "type": "bytes32"
        },
        {
          "indexed": true,
          "internalType": "bytes32",
          "name": "paymentID",
          "type": "bytes32"
        },
        {
          "indexed": false,
          "internalType": "enum Register.LockStatus",
          "name": "status",
          "type": "uint8"
        }
      ],
      "name": "AssetReleased",
      "type": "event"
    },
    {
      "anonymous": false,
      "inputs": [
        {
          "indexed": false,
          "internalType": "bytes32",
          "name": "contractHash",
          "type": "bytes32"
        }
      ],
      "name": "DisableContract",
      "type": "event"
    },
    {
      "anonymous": false,
      "inputs": [
        {
          "indexed": false,
          "internalType": "address",
          "name": "investor",
          "type": "address"
        }
      ],
      "name": "DisableInvestor",
      "type": "event"
    },
    {
      "anonymous": false,
      "inputs": [
        {
          "indexed": false,
          "internalType": "bytes32",
          "name": "contractHash",
          "type": "bytes32"
        }
      ],
      "name": "EnableContract",
      "type": "event"
    },
    {
      "anonymous": false,
      "inputs": [
        {
          "indexed": false,
          "internalType": "address",
          "name": "investor",
          "type": "address"
        }
      ],
      "name": "EnableInvestor",
      "type": "event"
    },
    {
      "anonymous": false,
      "inputs": [
        {
          "indexed": true,
          "internalType": "bytes32",
          "name": "transactionID",
          "type": "bytes32"
        },
        {
          "indexed": true,
          "internalType": "bytes32",
          "name": "paymentID",
          "type": "bytes32"
        },
        {
          "indexed": false,
          "internalType": "enum Register.LockStatus",
          "name": "status",
          "type": "uint8"
        }
      ],
      "name": "LockCancelled",
      "type": "event"
    },
    {
      "anonymous": false,
      "inputs": [
        {
          "indexed": true,
          "internalType": "address",
          "name": "creator",
          "type": "address"
        },
        {
          "indexed": false,
          "internalType": "string",
          "name": "name",
          "type": "string"
        },
        {
          "indexed": false,
          "internalType": "string",
          "name": "isin",
          "type": "string"
        }
      ],
      "name": "NewBondDrafted",
      "type": "event"
    },
    {
      "anonymous": false,
      "inputs": [
        {
          "indexed": true,
          "internalType": "address",
          "name": "sender",
          "type": "address"
        },
        {
          "indexed": true,
          "internalType": "address",
          "name": "target",
          "type": "address"
        },
        {
          "indexed": false,
          "internalType": "string",
          "name": "message",
          "type": "string"
        }
      ],
      "name": "PublicMessage",
      "type": "event"
    },
    {
      "anonymous": false,
      "inputs": [
        {
          "indexed": true,
          "internalType": "address",
          "name": "emiter",
          "type": "address"
        },
        {
          "indexed": false,
          "internalType": "string",
          "name": "name",
          "type": "string"
        },
        {
          "indexed": false,
          "internalType": "string",
          "name": "isin",
          "type": "string"
        },
        {
          "indexed": false,
          "internalType": "enum IRegister.Status",
          "name": "status",
          "type": "uint8"
        }
      ],
      "name": "RegisterStatusChanged",
      "type": "event"
    },
    {
      "anonymous": false,
      "inputs": [
        {
          "indexed": true,
          "internalType": "bytes32",
          "name": "role",
          "type": "bytes32"
        },
        {
          "indexed": true,
          "internalType": "bytes32",
          "name": "previousAdminRole",
          "type": "bytes32"
        },
        {
          "indexed": true,
          "internalType": "bytes32",
          "name": "newAdminRole",
          "type": "bytes32"
        }
      ],
      "name": "RoleAdminChanged",
      "type": "event"
    },
    {
      "anonymous": false,
      "inputs": [
        {
          "indexed": true,
          "internalType": "bytes32",
          "name": "role",
          "type": "bytes32"
        },
        {
          "indexed": true,
          "internalType": "address",
          "name": "account",
          "type": "address"
        },
        {
          "indexed": true,
          "internalType": "address",
          "name": "sender",
          "type": "address"
        }
      ],
      "name": "RoleGranted",
      "type": "event"
    },
    {
      "anonymous": false,
      "inputs": [
        {
          "indexed": true,
          "internalType": "bytes32",
          "name": "role",
          "type": "bytes32"
        },
        {
          "indexed": true,
          "internalType": "address",
          "name": "account",
          "type": "address"
        },
        {
          "indexed": true,
          "internalType": "address",
          "name": "sender",
          "type": "address"
        }
      ],
      "name": "RoleRevoked",
      "type": "event"
    },
    {
      "anonymous": false,
      "inputs": [
        {
          "indexed": false,
          "internalType": "uint256",
          "name": "id",
          "type": "uint256"
        }
      ],
      "name": "Snapshot",
      "type": "event"
    },
    {
      "anonymous": false,
      "inputs": [
        {
          "indexed": true,
          "internalType": "uint256",
          "name": "couponDate",
          "type": "uint256"
        },
        {
          "indexed": true,
          "internalType": "uint256",
          "name": "currentTimestamp",
          "type": "uint256"
        },
        {
          "indexed": true,
          "internalType": "uint256",
          "name": "nextTimestamp",
          "type": "uint256"
        }
      ],
      "name": "SnapshotTimestampChange",
      "type": "event"
    },
    {
      "anonymous": false,
      "inputs": [
        {
          "indexed": true,
          "internalType": "address",
          "name": "from",
          "type": "address"
        },
        {
          "indexed": true,
          "internalType": "address",
          "name": "to",
          "type": "address"
        },
        {
          "indexed": false,
          "internalType": "uint256",
          "name": "value",
          "type": "uint256"
        }
      ],
      "name": "Transfer",
      "type": "event"
    },
    {
      "anonymous": false,
      "inputs": [
        {
          "indexed": true,
          "internalType": "address",
          "name": "toBeAdded",
          "type": "address"
        }
      ],
      "name": "WalletAddedToWhitelist",
      "type": "event"
    },
    {
      "anonymous": false,
      "inputs": [
        {
          "indexed": true,
          "internalType": "address",
          "name": "toBeDeleted",
          "type": "address"
        }
      ],
      "name": "WalletDeletedFromWhitelist",
      "type": "event"
    },
    {
      "inputs": [],
      "name": "BND_ROLE",
      "outputs": [
        {
          "internalType": "bytes32",
          "name": "",
          "type": "bytes32"
        }
      ],
      "stateMutability": "view",
      "type": "function"
    },
    {
      "inputs": [],
      "name": "CAK_ROLE",
      "outputs": [
        {
          "internalType": "bytes32",
          "name": "",
          "type": "bytes32"
        }
      ],
      "stateMutability": "view",
      "type": "function"
    },
    {
      "inputs": [],
      "name": "CST_ROLE",
      "outputs": [
        {
          "internalType": "bytes32",
          "name": "",
          "type": "bytes32"
        }
      ],
      "stateMutability": "view",
      "type": "function"
    },
    {
      "inputs": [],
      "name": "DEFAULT_ADMIN_ROLE",
      "outputs": [
        {
          "internalType": "bytes32",
          "name": "",
          "type": "bytes32"
        }
      ],
      "stateMutability": "view",
      "type": "function"
    },
    {
      "inputs": [],
      "name": "PAY_ROLE",
      "outputs": [
        {
          "internalType": "bytes32",
          "name": "",
          "type": "bytes32"
        }
      ],
      "stateMutability": "view",
      "type": "function"
    },
    {
      "inputs": [],
      "name": "_addressForNewAdmin",
      "outputs": [
        {
          "internalType": "address",
          "name": "",
          "type": "address"
        }
      ],
      "stateMutability": "view",
      "type": "function"
    },
    {
      "inputs": [
        {
          "internalType": "bytes32",
          "name": "",
          "type": "bytes32"
        }
      ],
      "name": "_contractsAllowed",
      "outputs": [
        {
          "internalType": "bool",
          "name": "",
          "type": "bool"
        }
      ],
      "stateMutability": "view",
      "type": "function"
    },
    {
      "inputs": [],
      "name": "_firstVoterForNewAdmin",
      "outputs": [
        {
          "internalType": "address",
          "name": "",
          "type": "address"
        }
      ],
      "stateMutability": "view",
      "type": "function"
    },
    {
      "inputs": [],
      "name": "_primaryIssuanceAccount",
      "outputs": [
        {
          "internalType": "address",
          "name": "",
          "type": "address"
        }
      ],
      "stateMutability": "view",
      "type": "function"
    },
    {
      "inputs": [],
      "name": "_votesForNewAdmin",
      "outputs": [
        {
          "internalType": "uint8",
          "name": "",
          "type": "uint8"
        }
      ],
      "stateMutability": "view",
      "type": "function"
    },
    {
      "inputs": [
        {
          "internalType": "uint256",
          "name": "date",
          "type": "uint256"
        }
      ],
      "name": "addCouponDate",
      "outputs": [],
      "stateMutability": "nonpayable",
      "type": "function"
    },
    {
      "inputs": [
        {
          "internalType": "address",
          "name": "owner",
          "type": "address"
        },
        {
          "internalType": "address",
          "name": "spender",
          "type": "address"
        }
      ],
      "name": "allowance",
      "outputs": [
        {
          "internalType": "uint256",
          "name": "",
          "type": "uint256"
        }
      ],
      "stateMutability": "view",
      "type": "function"
    },
    {
      "inputs": [
        {
          "internalType": "address",
          "name": "",
          "type": "address"
        }
      ],
      "name": "amountLocked",
      "outputs": [
        {
          "internalType": "uint256",
          "name": "",
          "type": "uint256"
        }
      ],
      "stateMutability": "view",
      "type": "function"
    },
    {
      "inputs": [
        {
          "internalType": "address",
          "name": "",
          "type": "address"
        },
        {
          "internalType": "uint256",
          "name": "",
          "type": "uint256"
        }
      ],
      "name": "approve",
      "outputs": [
        {
          "internalType": "bool",
          "name": "",
          "type": "bool"
        }
      ],
      "stateMutability": "nonpayable",
      "type": "function"
    },
    {
      "inputs": [
        {
          "internalType": "address",
          "name": "addr_",
          "type": "address"
        }
      ],
      "name": "atReturningHash",
      "outputs": [
        {
          "internalType": "bytes32",
          "name": "hash",
          "type": "bytes32"
        }
      ],
      "stateMutability": "view",
      "type": "function"
    },
    {
      "inputs": [
        {
          "internalType": "address",
          "name": "account",
          "type": "address"
        }
      ],
      "name": "balanceOf",
      "outputs": [
        {
          "internalType": "uint256",
          "name": "",
          "type": "uint256"
        }
      ],
      "stateMutability": "view",
      "type": "function"
    },
    {
      "inputs": [
        {
          "internalType": "address",
          "name": "account",
          "type": "address"
        },
        {
          "internalType": "uint256",
          "name": "snapshotId",
          "type": "uint256"
        }
      ],
      "name": "balanceOfAt",
      "outputs": [
        {
          "internalType": "uint256",
          "name": "",
          "type": "uint256"
        }
      ],
      "stateMutability": "view",
      "type": "function"
    },
    {
      "inputs": [
        {
          "internalType": "address",
          "name": "account",
          "type": "address"
        },
        {
          "internalType": "uint256",
          "name": "_couponDate",
          "type": "uint256"
        }
      ],
      "name": "balanceOfCoupon",
      "outputs": [
        {
          "internalType": "uint256",
          "name": "",
          "type": "uint256"
        }
      ],
      "stateMutability": "view",
      "type": "function"
    },
    {
      "inputs": [
        {
          "internalType": "uint256",
          "name": "amount_",
          "type": "uint256"
        }
      ],
      "name": "burn",
      "outputs": [],
      "stateMutability": "nonpayable",
      "type": "function"
    },
    {
      "inputs": [
        {
          "internalType": "address",
          "name": "account_",
          "type": "address"
        }
      ],
      "name": "changeAdminRole",
      "outputs": [],
      "stateMutability": "nonpayable",
      "type": "function"
    },
    {
      "inputs": [
        {
          "internalType": "uint256",
          "name": "_couponDate",
          "type": "uint256"
        }
      ],
      "name": "checkIfCouponDateExists",
      "outputs": [
        {
          "internalType": "bool",
          "name": "",
          "type": "bool"
        }
      ],
      "stateMutability": "view",
      "type": "function"
    },
    {
      "inputs": [
        {
          "internalType": "uint256",
          "name": "_maturityDate",
          "type": "uint256"
        }
      ],
      "name": "checkIfMaturityDateExists",
      "outputs": [
        {
          "internalType": "bool",
          "name": "",
          "type": "bool"
        }
      ],
      "stateMutability": "view",
      "type": "function"
    },
    {
      "inputs": [],
      "name": "currentCouponDate",
      "outputs": [
        {
          "internalType": "uint256",
          "name": "",
          "type": "uint256"
        }
      ],
      "stateMutability": "view",
      "type": "function"
    },
    {
      "inputs": [],
      "name": "currentSnapshotDatetime",
      "outputs": [
        {
          "internalType": "uint256",
          "name": "",
          "type": "uint256"
        }
      ],
      "stateMutability": "view",
      "type": "function"
    },
    {
      "inputs": [],
      "name": "decimals",
      "outputs": [
        {
          "internalType": "uint8",
          "name": "",
          "type": "uint8"
        }
      ],
      "stateMutability": "view",
      "type": "function"
    },
    {
      "inputs": [
        {
          "internalType": "address",
          "name": "",
          "type": "address"
        },
        {
          "internalType": "uint256",
          "name": "",
          "type": "uint256"
        }
      ],
      "name": "decreaseAllowance",
      "outputs": [
        {
          "internalType": "bool",
          "name": "",
          "type": "bool"
        }
      ],
      "stateMutability": "nonpayable",
      "type": "function"
    },
    {
      "inputs": [
        {
          "internalType": "uint256",
          "name": "date",
          "type": "uint256"
        }
      ],
      "name": "delCouponDate",
      "outputs": [],
      "stateMutability": "nonpayable",
      "type": "function"
    },
    {
      "inputs": [
        {
          "internalType": "bytes32",
          "name": "contractHash_",
          "type": "bytes32"
        }
      ],
      "name": "disableContractFromWhitelist",
      "outputs": [],
      "stateMutability": "nonpayable",
      "type": "function"
    },
    {
      "inputs": [
        {
          "internalType": "address",
          "name": "investor_",
          "type": "address"
        }
      ],
      "name": "disableInvestorFromWhitelist",
      "outputs": [],
      "stateMutability": "nonpayable",
      "type": "function"
    },
    {
      "inputs": [
        {
          "internalType": "bytes32",
          "name": "contractHash_",
          "type": "bytes32"
        }
      ],
      "name": "enableContractToWhitelist",
      "outputs": [],
      "stateMutability": "nonpayable",
      "type": "function"
    },
    {
      "inputs": [
        {
          "internalType": "address",
          "name": "investor_",
          "type": "address"
        }
      ],
      "name": "enableInvestorToWhitelist",
      "outputs": [],
      "stateMutability": "nonpayable",
      "type": "function"
    },
    {
      "inputs": [
        {
          "internalType": "bytes32",
          "name": "_transactionID",
          "type": "bytes32"
        },
        {
          "internalType": "bytes32",
          "name": "_secretCancel",
          "type": "bytes32"
        },
        {
          "internalType": "bytes32",
          "name": "_paymentProof",
          "type": "bytes32"
        }
      ],
      "name": "forceCancel",
      "outputs": [],
      "stateMutability": "nonpayable",
      "type": "function"
    },
    {
      "inputs": [
        {
          "internalType": "bytes32",
          "name": "_transactionID",
          "type": "bytes32"
        },
        {
          "internalType": "bytes32",
          "name": "_secretRelease",
          "type": "bytes32"
        },
        {
          "internalType": "bytes32",
          "name": "_paymentProof",
          "type": "bytes32"
        }
      ],
      "name": "forceRelease",
      "outputs": [],
      "stateMutability": "nonpayable",
      "type": "function"
    },
    {
      "inputs": [],
      "name": "getAllInvestors",
      "outputs": [
        {
          "internalType": "address[]",
          "name": "",
          "type": "address[]"
        }
      ],
      "stateMutability": "view",
      "type": "function"
    },
    {
      "inputs": [],
      "name": "getBondCouponRate",
      "outputs": [
        {
          "internalType": "uint256",
          "name": "",
          "type": "uint256"
        }
      ],
      "stateMutability": "view",
      "type": "function"
    },
    {
      "inputs": [],
      "name": "getBondData",
      "outputs": [
        {
          "components": [
            {
              "internalType": "string",
              "name": "name",
              "type": "string"
            },
            {
              "internalType": "string",
              "name": "isin",
              "type": "string"
            },
            {
              "internalType": "uint256",
              "name": "expectedSupply",
              "type": "uint256"
            },
            {
              "internalType": "bytes32",
              "name": "currency",
              "type": "bytes32"
            },
            {
              "internalType": "uint256",
              "name": "unitValue",
              "type": "uint256"
            },
            {
              "internalType": "uint256",
              "name": "couponRate",
              "type": "uint256"
            },
            {
              "internalType": "uint256",
              "name": "creationDate",
              "type": "uint256"
            },
            {
              "internalType": "uint256",
              "name": "issuanceDate",
              "type": "uint256"
            },
            {
              "internalType": "uint256",
              "name": "maturityDate",
              "type": "uint256"
            },
            {
              "internalType": "uint256[]",
              "name": "couponDates",
              "type": "uint256[]"
            },
            {
              "internalType": "uint256",
              "name": "cutOffTime",
              "type": "uint256"
            }
          ],
          "internalType": "struct IRegisterMetadata.BondData",
          "name": "",
          "type": "tuple"
        }
      ],
      "stateMutability": "view",
      "type": "function"
    },
    {
      "inputs": [],
      "name": "getBondUnitValue",
      "outputs": [
        {
          "internalType": "uint256",
          "name": "",
          "type": "uint256"
        }
      ],
      "stateMutability": "view",
      "type": "function"
    },
    {
      "inputs": [],
      "name": "getCreationDate",
      "outputs": [
        {
          "internalType": "uint256",
          "name": "",
          "type": "uint256"
        }
      ],
      "stateMutability": "view",
      "type": "function"
    },
    {
      "inputs": [
        {
          "internalType": "uint256",
          "name": "CouponDate",
          "type": "uint256"
        }
      ],
      "name": "getInvestorListAtCoupon",
      "outputs": [
        {
          "internalType": "address[]",
          "name": "",
          "type": "address[]"
        }
      ],
      "stateMutability": "view",
      "type": "function"
    },
    {
      "inputs": [],
      "name": "getIssuanceDate",
      "outputs": [
        {
          "internalType": "uint256",
          "name": "",
          "type": "uint256"
        }
      ],
      "stateMutability": "view",
      "type": "function"
    },
    {
      "inputs": [
        {
          "internalType": "bytes32",
          "name": "role",
          "type": "bytes32"
        }
      ],
      "name": "getRoleAdmin",
      "outputs": [
        {
          "internalType": "bytes32",
          "name": "",
          "type": "bytes32"
        }
      ],
      "stateMutability": "view",
      "type": "function"
    },
    {
      "inputs": [
        {
          "internalType": "bytes32",
          "name": "role",
          "type": "bytes32"
        },
        {
          "internalType": "uint256",
          "name": "index",
          "type": "uint256"
        }
      ],
      "name": "getRoleMember",
      "outputs": [
        {
          "internalType": "address",
          "name": "",
          "type": "address"
        }
      ],
      "stateMutability": "view",
      "type": "function"
    },
    {
      "inputs": [
        {
          "internalType": "bytes32",
          "name": "role",
          "type": "bytes32"
        }
      ],
      "name": "getRoleMemberCount",
      "outputs": [
        {
          "internalType": "uint256",
          "name": "",
          "type": "uint256"
        }
      ],
      "stateMutability": "view",
      "type": "function"
    },
    {
      "inputs": [
        {
          "internalType": "address",
          "name": "bndAddress_",
          "type": "address"
        }
      ],
      "name": "grantBndRole",
      "outputs": [],
      "stateMutability": "nonpayable",
      "type": "function"
    },
    {
      "inputs": [
        {
          "internalType": "address",
          "name": "cakAddress_",
          "type": "address"
        }
      ],
      "name": "grantCakRole",
      "outputs": [],
      "stateMutability": "nonpayable",
      "type": "function"
    },
    {
      "inputs": [
        {
          "internalType": "address",
          "name": "cstAddress_",
          "type": "address"
        }
      ],
      "name": "grantCstRole",
      "outputs": [],
      "stateMutability": "nonpayable",
      "type": "function"
    },
    {
      "inputs": [
        {
          "internalType": "address",
          "name": "payAddress_",
          "type": "address"
        }
      ],
      "name": "grantPayRole",
      "outputs": [],
      "stateMutability": "nonpayable",
      "type": "function"
    },
    {
      "inputs": [
        {
          "internalType": "bytes32",
          "name": "role",
          "type": "bytes32"
        },
        {
          "internalType": "address",
          "name": "account",
          "type": "address"
        }
      ],
      "name": "grantRole",
      "outputs": [],
      "stateMutability": "nonpayable",
      "type": "function"
    },
    {
      "inputs": [
        {
          "internalType": "bytes32",
          "name": "role",
          "type": "bytes32"
        },
        {
          "internalType": "address",
          "name": "account",
          "type": "address"
        }
      ],
      "name": "hasRole",
      "outputs": [
        {
          "internalType": "bool",
          "name": "",
          "type": "bool"
        }
      ],
      "stateMutability": "view",
      "type": "function"
    },
    {
      "inputs": [
        {
          "internalType": "address",
          "name": "",
          "type": "address"
        },
        {
          "internalType": "uint256",
          "name": "",
          "type": "uint256"
        }
      ],
      "name": "increaseAllowance",
      "outputs": [
        {
          "internalType": "bool",
          "name": "",
          "type": "bool"
        }
      ],
      "stateMutability": "nonpayable",
      "type": "function"
    },
    {
      "inputs": [
        {
          "internalType": "address",
          "name": "investor",
          "type": "address"
        }
      ],
      "name": "investorCustodian",
      "outputs": [
        {
          "internalType": "address",
          "name": "",
          "type": "address"
        }
      ],
      "stateMutability": "view",
      "type": "function"
    },
    {
      "inputs": [
        {
          "internalType": "address",
          "name": "investor",
          "type": "address"
        }
      ],
      "name": "investorsAllowed",
      "outputs": [
        {
          "internalType": "bool",
          "name": "",
          "type": "bool"
        }
      ],
      "stateMutability": "view",
      "type": "function"
    },
    {
      "inputs": [
        {
          "internalType": "address",
          "name": "account",
          "type": "address"
        }
      ],
      "name": "isBnD",
      "outputs": [
        {
          "internalType": "bool",
          "name": "",
          "type": "bool"
        }
      ],
      "stateMutability": "view",
      "type": "function"
    },
    {
      "inputs": [
        {
          "internalType": "address",
          "name": "account",
          "type": "address"
        }
      ],
      "name": "isCAK",
      "outputs": [
        {
          "internalType": "bool",
          "name": "",
          "type": "bool"
        }
      ],
      "stateMutability": "view",
      "type": "function"
    },
    {
      "inputs": [],
      "name": "isCallerApprovedSmartContract",
      "outputs": [
        {
          "internalType": "bool",
          "name": "",
          "type": "bool"
        }
      ],
      "stateMutability": "view",
      "type": "function"
    },
    {
      "inputs": [
        {
          "internalType": "address",
          "name": "contractAddress_",
          "type": "address"
        }
      ],
      "name": "isContractAllowed",
      "outputs": [
        {
          "internalType": "bool",
          "name": "",
          "type": "bool"
        }
      ],
      "stateMutability": "view",
      "type": "function"
    },
    {
      "inputs": [
        {
          "internalType": "address",
          "name": "account",
          "type": "address"
        }
      ],
      "name": "isCustodian",
      "outputs": [
        {
          "internalType": "bool",
          "name": "",
          "type": "bool"
        }
      ],
      "stateMutability": "view",
      "type": "function"
    },
    {
      "inputs": [
        {
          "internalType": "address",
          "name": "account",
          "type": "address"
        }
      ],
      "name": "isPay",
      "outputs": [
        {
          "internalType": "bool",
          "name": "",
          "type": "bool"
        }
      ],
      "stateMutability": "view",
      "type": "function"
    },
    {
      "inputs": [
        {
          "components": [
            {
              "internalType": "address",
              "name": "seller",
              "type": "address"
            },
            {
              "internalType": "address",
              "name": "buyer",
              "type": "address"
            },
            {
              "internalType": "uint256",
              "name": "amount",
              "type": "uint256"
            },
            {
              "internalType": "bytes32",
              "name": "transactionID",
              "type": "bytes32"
            },
            {
              "internalType": "bytes32",
              "name": "paymentID",
              "type": "bytes32"
            },
            {
              "internalType": "bytes32",
              "name": "hashlock",
              "type": "bytes32"
            },
            {
              "internalType": "bytes32",
              "name": "hashRelease",
              "type": "bytes32"
            },
            {
              "internalType": "bytes32",
              "name": "hashCancel",
              "type": "bytes32"
            },
            {
              "internalType": "uint256",
              "name": "paymentDate",
              "type": "uint256"
            },
            {
              "internalType": "uint256",
              "name": "deliveryDate",
              "type": "uint256"
            },
            {
              "components": [
                {
                  "internalType": "bytes32",
                  "name": "paymentProof",
                  "type": "bytes32"
                },
                {
                  "internalType": "bytes32",
                  "name": "secret",
                  "type": "bytes32"
                },
                {
                  "internalType": "bytes32",
                  "name": "secretRelease",
                  "type": "bytes32"
                },
                {
                  "internalType": "bytes32",
                  "name": "secretCancel",
                  "type": "bytes32"
                }
              ],
              "internalType": "struct Register.Artifact",
              "name": "artifact",
              "type": "tuple"
            },
            {
              "internalType": "enum Register.LockStatus",
              "name": "status",
              "type": "uint8"
            }
          ],
          "internalType": "struct Register.LockInfo",
          "name": "_lockInfo",
          "type": "tuple"
        }
      ],
      "name": "lockAsset",
      "outputs": [],
      "stateMutability": "nonpayable",
      "type": "function"
    },
    {
      "inputs": [],
      "name": "makeReady",
      "outputs": [],
      "stateMutability": "nonpayable",
      "type": "function"
    },
    {
      "inputs": [
        {
          "internalType": "uint256",
          "name": "amount_",
          "type": "uint256"
        }
      ],
      "name": "mint",
      "outputs": [],
      "stateMutability": "nonpayable",
      "type": "function"
    },
    {
      "inputs": [],
      "name": "name",
      "outputs": [
        {
          "internalType": "string",
          "name": "",
          "type": "string"
        }
      ],
      "stateMutability": "view",
      "type": "function"
    },
    {
      "inputs": [],
      "name": "nextSnapshotDatetime",
      "outputs": [
        {
          "internalType": "uint256",
          "name": "",
          "type": "uint256"
        }
      ],
      "stateMutability": "view",
      "type": "function"
    },
    {
      "inputs": [],
      "name": "primaryIssuanceAccount",
      "outputs": [
        {
          "internalType": "address",
          "name": "",
          "type": "address"
        }
      ],
      "stateMutability": "view",
      "type": "function"
    },
    {
      "inputs": [
        {
          "internalType": "address",
          "name": "to",
          "type": "address"
        },
        {
          "internalType": "string",
          "name": "message",
          "type": "string"
        }
      ],
      "name": "publicMessage",
      "outputs": [],
      "stateMutability": "nonpayable",
      "type": "function"
    },
    {
      "inputs": [],
      "name": "registerAdmin",
      "outputs": [
        {
          "internalType": "address",
          "name": "",
          "type": "address"
        }
      ],
      "stateMutability": "view",
      "type": "function"
    },
    {
      "inputs": [
        {
          "internalType": "bytes32",
          "name": "_transactionID",
          "type": "bytes32"
        },
        {
          "internalType": "bytes32",
          "name": "_secret",
          "type": "bytes32"
        },
        {
          "internalType": "bytes32",
          "name": "_paymentProof",
          "type": "bytes32"
        }
      ],
      "name": "release",
      "outputs": [],
      "stateMutability": "nonpayable",
      "type": "function"
    },
    {
      "inputs": [
        {
          "internalType": "bytes32",
          "name": "role",
          "type": "bytes32"
        },
        {
          "internalType": "address",
          "name": "account",
          "type": "address"
        }
      ],
      "name": "renounceRole",
      "outputs": [],
      "stateMutability": "nonpayable",
      "type": "function"
    },
    {
      "inputs": [
        {
          "internalType": "address",
          "name": "investor",
          "type": "address"
        }
      ],
      "name": "returnBalanceToPrimaryIssuanceAccount",
      "outputs": [
        {
          "internalType": "bool",
          "name": "",
          "type": "bool"
        }
      ],
      "stateMutability": "nonpayable",
      "type": "function"
    },
    {
      "inputs": [],
      "name": "revertReady",
      "outputs": [],
      "stateMutability": "nonpayable",
      "type": "function"
    },
    {
      "inputs": [
        {
          "internalType": "address",
          "name": "bndAddress_",
          "type": "address"
        }
      ],
      "name": "revokeBndRole",
      "outputs": [],
      "stateMutability": "nonpayable",
      "type": "function"
    },
    {
      "inputs": [
        {
          "internalType": "address",
          "name": "cakAddress_",
          "type": "address"
        }
      ],
      "name": "revokeCakRole",
      "outputs": [],
      "stateMutability": "nonpayable",
      "type": "function"
    },
    {
      "inputs": [
        {
          "internalType": "address",
          "name": "cstAddress_",
          "type": "address"
        }
      ],
      "name": "revokeCstRole",
      "outputs": [],
      "stateMutability": "nonpayable",
      "type": "function"
    },
    {
      "inputs": [
        {
          "internalType": "address",
          "name": "payAddress_",
          "type": "address"
        }
      ],
      "name": "revokePayRole",
      "outputs": [],
      "stateMutability": "nonpayable",
      "type": "function"
    },
    {
      "inputs": [
        {
          "internalType": "bytes32",
          "name": "role",
          "type": "bytes32"
        },
        {
          "internalType": "address",
          "name": "account",
          "type": "address"
        }
      ],
      "name": "revokeRole",
      "outputs": [],
      "stateMutability": "nonpayable",
      "type": "function"
    },
    {
      "inputs": [
        {
          "internalType": "bytes32",
          "name": "",
          "type": "bytes32"
        }
      ],
      "name": "sellerLocks",
      "outputs": [
        {
          "internalType": "address",
          "name": "seller",
          "type": "address"
        },
        {
          "internalType": "address",
          "name": "buyer",
          "type": "address"
        },
        {
          "internalType": "uint256",
          "name": "amount",
          "type": "uint256"
        },
        {
          "internalType": "bytes32",
          "name": "transactionID",
          "type": "bytes32"
        },
        {
          "internalType": "bytes32",
          "name": "paymentID",
          "type": "bytes32"
        },
        {
          "internalType": "bytes32",
          "name": "hashlock",
          "type": "bytes32"
        },
        {
          "internalType": "bytes32",
          "name": "hashRelease",
          "type": "bytes32"
        },
        {
          "internalType": "bytes32",
          "name": "hashCancel",
          "type": "bytes32"
        },
        {
          "internalType": "uint256",
          "name": "paymentDate",
          "type": "uint256"
        },
        {
          "internalType": "uint256",
          "name": "deliveryDate",
          "type": "uint256"
        },
        {
          "components": [
            {
              "internalType": "bytes32",
              "name": "paymentProof",
              "type": "bytes32"
            },
            {
              "internalType": "bytes32",
              "name": "secret",
              "type": "bytes32"
            },
            {
              "internalType": "bytes32",
              "name": "secretRelease",
              "type": "bytes32"
            },
            {
              "internalType": "bytes32",
              "name": "secretCancel",
              "type": "bytes32"
            }
          ],
          "internalType": "struct Register.Artifact",
          "name": "artifact",
          "type": "tuple"
        },
        {
          "internalType": "enum Register.LockStatus",
          "name": "status",
          "type": "uint8"
        }
      ],
      "stateMutability": "view",
      "type": "function"
    },
    {
      "inputs": [
        {
          "internalType": "string",
          "name": "name_",
          "type": "string"
        },
        {
          "internalType": "uint256",
          "name": "expectedSupply_",
          "type": "uint256"
        },
        {
          "internalType": "bytes32",
          "name": "currency_",
          "type": "bytes32"
        },
        {
          "internalType": "uint256",
          "name": "unitVal_",
          "type": "uint256"
        },
        {
          "internalType": "uint256",
          "name": "couponRate_",
          "type": "uint256"
        },
        {
          "internalType": "uint256",
          "name": "issuanceDate_",
          "type": "uint256"
        },
        {
          "internalType": "uint256",
          "name": "maturityDate_",
          "type": "uint256"
        },
        {
          "internalType": "uint256",
          "name": "cutofftime_",
          "type": "uint256"
        }
      ],
      "name": "setBondData",
      "outputs": [],
      "stateMutability": "nonpayable",
      "type": "function"
    },
    {
      "inputs": [
        {
          "internalType": "uint256",
          "name": "creationDate_",
          "type": "uint256"
        }
      ],
      "name": "setCreationDate",
      "outputs": [],
      "stateMutability": "nonpayable",
      "type": "function"
    },
    {
      "inputs": [
        {
          "internalType": "bytes32",
          "name": "currency_",
          "type": "bytes32"
        }
      ],
      "name": "setCurrency",
      "outputs": [],
      "stateMutability": "nonpayable",
      "type": "function"
    },
    {
      "inputs": [
        {
          "internalType": "uint256",
          "name": "couponDate_",
          "type": "uint256"
        },
        {
          "internalType": "uint256",
          "name": "recordDatetime_",
          "type": "uint256"
        }
      ],
      "name": "setCurrentCouponDate",
      "outputs": [],
      "stateMutability": "nonpayable",
      "type": "function"
    },
    {
      "inputs": [
        {
          "internalType": "uint256",
          "name": "expectedSupply_",
          "type": "uint256"
        }
      ],
      "name": "setExpectedSupply",
      "outputs": [],
      "stateMutability": "nonpayable",
      "type": "function"
    },
    {
      "inputs": [
        {
          "internalType": "string",
          "name": "isinSymbol_",
          "type": "string"
        }
      ],
      "name": "setIsinSymbol",
      "outputs": [],
      "stateMutability": "nonpayable",
      "type": "function"
    },
    {
      "inputs": [
        {
          "internalType": "uint256",
          "name": "issuanceDate_",
          "type": "uint256"
        }
      ],
      "name": "setIssuanceDate",
      "outputs": [],
      "stateMutability": "nonpayable",
      "type": "function"
    },
    {
      "inputs": [
        {
          "internalType": "string",
          "name": "name_",
          "type": "string"
        }
      ],
      "name": "setName",
      "outputs": [],
      "stateMutability": "nonpayable",
      "type": "function"
    },
    {
      "inputs": [],
      "name": "status",
      "outputs": [
        {
          "internalType": "enum IRegister.Status",
          "name": "",
          "type": "uint8"
        }
      ],
      "stateMutability": "view",
      "type": "function"
    },
    {
      "inputs": [
        {
          "internalType": "bytes4",
          "name": "interfaceId",
          "type": "bytes4"
        }
      ],
      "name": "supportsInterface",
      "outputs": [
        {
          "internalType": "bool",
          "name": "",
          "type": "bool"
        }
      ],
      "stateMutability": "view",
      "type": "function"
    },
    {
      "inputs": [],
      "name": "symbol",
      "outputs": [
        {
          "internalType": "string",
          "name": "",
          "type": "string"
        }
      ],
      "stateMutability": "view",
      "type": "function"
    },
    {
      "inputs": [],
      "name": "toggleFrozen",
      "outputs": [],
      "stateMutability": "nonpayable",
      "type": "function"
    },
    {
      "inputs": [],
      "name": "totalSupply",
      "outputs": [
        {
          "internalType": "uint256",
          "name": "",
          "type": "uint256"
        }
      ],
      "stateMutability": "view",
      "type": "function"
    },
    {
      "inputs": [
        {
          "internalType": "uint256",
          "name": "snapshotId",
          "type": "uint256"
        }
      ],
      "name": "totalSupplyAt",
      "outputs": [
        {
          "internalType": "uint256",
          "name": "",
          "type": "uint256"
        }
      ],
      "stateMutability": "view",
      "type": "function"
    },
    {
      "inputs": [
        {
          "internalType": "uint256",
          "name": "_couponDate",
          "type": "uint256"
        }
      ],
      "name": "totalSupplyAtCoupon",
      "outputs": [
        {
          "internalType": "uint256",
          "name": "",
          "type": "uint256"
        }
      ],
      "stateMutability": "view",
      "type": "function"
    },
    {
      "inputs": [
        {
          "internalType": "address",
          "name": "",
          "type": "address"
        },
        {
          "internalType": "uint256",
          "name": "",
          "type": "uint256"
        }
      ],
      "name": "transfer",
      "outputs": [
        {
          "internalType": "bool",
          "name": "",
          "type": "bool"
        }
      ],
      "stateMutability": "nonpayable",
      "type": "function"
    },
    {
      "inputs": [
        {
          "internalType": "address",
          "name": "from_",
          "type": "address"
        },
        {
          "internalType": "address",
          "name": "to_",
          "type": "address"
        },
        {
          "internalType": "uint256",
          "name": "amount_",
          "type": "uint256"
        }
      ],
      "name": "transferFrom",
      "outputs": [
        {
          "internalType": "bool",
          "name": "",
          "type": "bool"
        }
      ],
      "stateMutability": "nonpayable",
      "type": "function"
    }
  ],
  "bytecode": "0x6080604052602480546001600160a01b031916301790553480156200002357600080fd5b506040516200755f3803806200755f833981016040819052620000469162000b90565b8a8a6200005560003362000279565b620000706000805160206200753f8339815191528062000289565b600280546001600160a01b03191633908117909155620000a1906000805160206200753f8339815191529062000279565b620000dc7ff698af62c65280e4949bceec64b760f3b7738217cbc536cdfc4c9463676b05c26000805160206200753f83398151915262000289565b620001177f6ba6f588bcdc2df8426603a466c98ab15e79f7fb7f37b53581ce39c1d01b72496000805160206200753f83398151915262000289565b620001527fd7aa2ddfa4e381128202bf365b7e0a176f2fca6cdf2f23c2b0a6f439376958906000805160206200753f83398151915262000289565b600862000160838262000d0b565b5060096200016f828262000d0b565b50601991506200018290508c8262000d0b565b50601a620001918b8262000d0b565b50601b899055601c889055601d879055601e869055601f859055602084815560218490558251620001c99160229190850190620009c6565b506023819055620001d9620002d4565b6018805460ff1916905560405133907f9c99cfc2b1740648876aee40ef245ae7527339df99966fd618b900e61bc76e759062000219908e908e9062000e05565b60405180910390a260185460405133917fda2010acfda7a262372331cb3b57e3f648f63eb009a423a2b5602cfa4f9bff51916200026091601991601a9160ff169062000ebc565b60405180910390a2505050505050505050505062000fac565b6200028582826200039c565b5050565b600082815260208190526040808220600101805490849055905190918391839186917fbd79b86ffe0ab8e8776151514217cd7cacd52c909f66475c3af44e129f0b00ff9190a4505050565b6000620002e142620003c7565b506022549091506000908190831015620003715760228054849081106200030c576200030c62000f15565b6000918252602090912001546022549092506200032b84600162000f41565b1015620003675760226200034184600162000f41565b8154811062000354576200035462000f15565b9060005260206000200154905062000379565b5060215462000379565b505060215460005b602354620003969083906200038f908262000f41565b8362000466565b50505050565b620003a88282620004bd565b6000828152600160205260409020620003c290826200055d565b505050565b60008060005b60225481101562000458578360196009018281548110620003f257620003f262000f15565b9060005260206000200154036200040d579360019350915050565b836019600901828154811062000427576200042762000f15565b9060005260206000200154111562000443579360009350915050565b806200044f8162000f57565b915050620003cd565b505060225492600092509050565b6000601154841462000485576200047f8484846200057d565b620004b3565b60105462000495906000620007e8565b8214620004b357620004b3601154600f54846200057d60201b60201c565b5060019392505050565b6000828152602081815260408083206001600160a01b038516845290915290205460ff1662000285576000828152602081815260408083206001600160a01b03851684529091529020805460ff19166001179055620005193390565b6001600160a01b0316816001600160a01b0316837f2f8788117e7eff1d82e926ec794901d17c78024a50270940304540a733656f0d60405160405180910390a45050565b600062000574836001600160a01b0384166200082f565b90505b92915050565b60006200058b8382620007e8565b905083811115620006095760405162461bcd60e51b815260206004820152603360248201527f746865207265636f726420646174652063616e6e6f742062652061667465722060448201527f74686520736574746c656d656e7420646174650000000000000000000000000060648201526084015b60405180910390fd5b8115806200061657508382115b6200068a5760405162461bcd60e51b815260206004820152603c60248201527f696e76616c6964206e6578742064617465207768656e2073657474696e67207460448201527f68652063757272656e7420736e617073686f74206461746574696d6500000000606482015260840162000600565b6000620006988582620007e8565b9050828015620006b157620006ae8186620007e8565b90505b6000828152600e602052604090205415620007205760405162461bcd60e51b815260206004820152602860248201527f44617465206f6620636f75706f6e206f72206d6174757269747920616c726561604482015267323c903a30b5b2b760c11b606482015260840162000600565b844210620007975760405162461bcd60e51b815260206004820152603d60248201527f796f75206861766520746f20646566696e652061206e657720706572696f642060448201527f656e64696e67206166746572207468652063757272656e742074696d65000000606482015260840162000600565b620007a162000881565b50600f859055601182905560108190556040518190869084907f4d1d74d5cbfc13e02ef05af3a30d8721e87a00d20bc3dc42198917139944def390600090a4505050505050565b600080620007fa620151808562000f73565b905062000808818562000f96565b915062000819620151808462000f73565b905062000827818362000f41565b949350505050565b6000818152600183016020526040812054620008785750815460018181018455600084815260208082209093018490558454848252828601909352604090209190915562000577565b50600062000577565b600080600f54118015620008a457506011546000908152600e6020526040902054155b8015620008b35750600f544210155b1562000951576000620008c562000957565b6011546000908152600e60205260409020819055601054909150620008ec57600062000902565b62000902601054600f54620007e860201b60201c565b600f81905562000914906000620007e8565b6011819055601054600f54604051919290917f4d1d74d5cbfc13e02ef05af3a30d8721e87a00d20bc3dc42198917139944def390600090a4919050565b50600090565b600062000968600d80546001019055565b600062000974620009b5565b90507f8030e83b04d87bef53480e26263266d6ca66863aa8506aca6f2559d18aa1cb6781604051620009a891815260200190565b60405180910390a1919050565b6000620009c1600d5490565b905090565b82805482825590600052602060002090810192821562000a04579160200282015b8281111562000a04578251825591602001919060010190620009e7565b5062000a1292915062000a16565b5090565b5b8082111562000a12576000815560010162000a17565b634e487b7160e01b600052604160045260246000fd5b604051601f8201601f191681016001600160401b038111828210171562000a6e5762000a6e62000a2d565b604052919050565b60005b8381101562000a9357818101518382015260200162000a79565b50506000910152565b600082601f83011262000aae57600080fd5b81516001600160401b0381111562000aca5762000aca62000a2d565b62000adf601f8201601f191660200162000a43565b81815284602083860101111562000af557600080fd5b6200082782602083016020870162000a76565b600082601f83011262000b1a57600080fd5b815160206001600160401b0382111562000b385762000b3862000a2d565b8160051b62000b4982820162000a43565b928352848101820192828101908785111562000b6457600080fd5b83870192505b8483101562000b855782518252918301919083019062000b6a565b979650505050505050565b60008060008060008060008060008060006101608c8e03121562000bb357600080fd5b8b516001600160401b0381111562000bca57600080fd5b62000bd88e828f0162000a9c565b60208e0151909c5090506001600160401b0381111562000bf757600080fd5b62000c058e828f0162000a9c565b9a505060408c0151985060608c0151975060808c0151965060a08c0151955060c08c0151945060e08c015193506101008c015192506101208c015160018060401b0381111562000c5457600080fd5b62000c628e828f0162000b08565b9250506101408c015190509295989b509295989b9093969950565b600181811c9082168062000c9257607f821691505b60208210810362000cb357634e487b7160e01b600052602260045260246000fd5b50919050565b601f821115620003c257600081815260208120601f850160051c8101602086101562000ce25750805b601f850160051c820191505b8181101562000d035782815560010162000cee565b505050505050565b81516001600160401b0381111562000d275762000d2762000a2d565b62000d3f8162000d38845462000c7d565b8462000cb9565b602080601f83116001811462000d77576000841562000d5e5750858301515b600019600386901b1c1916600185901b17855562000d03565b600085815260208120601f198616915b8281101562000da85788860151825594840194600190910190840162000d87565b508582101562000dc75787850151600019600388901b60f8161c191681555b5050505050600190811b01905550565b6000815180845262000df181602086016020860162000a76565b601f01601f19169290920160200192915050565b60408152600062000e1a604083018562000dd7565b828103602084015262000e2e818562000dd7565b95945050505050565b6000815462000e468162000c7d565b80855260206001838116801562000e66576001811462000e815762000eb1565b60ff1985168884015283151560051b88018301955062000eb1565b866000528260002060005b8581101562000ea95781548a820186015290830190840162000e8c565b890184019650505b505050505092915050565b60608152600062000ed1606083018662000e37565b828103602084015262000ee5818662000e37565b9150506005831062000f0757634e487b7160e01b600052602160045260246000fd5b826040830152949350505050565b634e487b7160e01b600052603260045260246000fd5b634e487b7160e01b600052601160045260246000fd5b8082018082111562000577576200057762000f2b565b60006001820162000f6c5762000f6c62000f2b565b5060010190565b60008262000f9157634e487b7160e01b600052601260045260246000fd5b500690565b8181038181111562000577576200057762000f2b565b6165838062000fbc6000396000f3fe608060405234801561001057600080fd5b506004361061050e5760003560e01c806391d14854116102a4578063ca15c87311610172578063d8eab9a5116100d9578063e3965d5411610092578063e3965d5414610c6d578063e5bf6dc814610c80578063eeb4cee914610c88578063f60d9ea114610c90578063f690c6c514610ca3578063f6c788b214610cb657600080fd5b8063d8eab9a514610be0578063d9a7997814610bf3578063dc16722b14610c06578063dd62ed3e14610c0e578063e09d1f9714610c47578063e336c59014610c5a57600080fd5b8063d4cdda911161012b578063d4cdda9114610b6c578063d547741f14610b81578063d58c80b414610b94578063d5c0beeb14610ba7578063d614284a14610bba578063d696fb0b14610bcd57600080fd5b8063ca15c87314610b10578063cc80473c14610b23578063cf5b362814610b36578063d0a2f2c414610b49578063d1ec6de814610b51578063d46be60814610b6457600080fd5b8063a7f2f6ec11610216578063b90c1dbb116101cf578063b90c1dbb14610a02578063c1f4250b14610a0a578063c2faae5914610a1d578063c41251a114610a25578063c47f002714610a38578063c7725d1b14610a4b57600080fd5b8063a7f2f6ec1461099b578063a9059cbb146109a3578063ab62b444146109b6578063abc2cf2a146109c9578063ac8f75c1146109dc578063aed054d5146109ef57600080fd5b8063a0712d6811610268578063a0712d6814610934578063a196218314610947578063a217fddf1461095a578063a28f78f814610962578063a457c2d714610975578063a55234b81461098857600080fd5b806391d14854146108eb57806393c39393146108fe57806395d89b4114610911578063981b24d0146109195780639ef986de1461092c57600080fd5b806339027f7c116103e15780636f2ddb5f11610353578063806ba1001161030c578063806ba1001461084d5780638784ff18146108705780638865f1e2146108815780638e1305de146108965780638f92f490146108a95780639010d07c146108d857600080fd5b80636f2ddb5f146107cd57806370a08231146107e057806371c41f8a146107f35780637469538a146108065780637cc7bcce146108195780637dc355051461083957600080fd5b806342966c68116103a557806342966c68146107595780634361f92a1461076c5780634e0b0dcf1461077f5780634ee2cd7e146107925780635ab6f71b146107a557806363896d19146107b857600080fd5b806339027f7c1461070e57806339509351146107165780633bf2a9f4146107295780633e4be6391461073e5780633e7e87131461074657600080fd5b8063222ca340116104855780632f9628661161043e5780632f962866146106825780633052974c146106ad578063313ce567146106c057806333a8ad21146106d557806335c80c8c146106e857806336568abe146106fb57600080fd5b8063222ca3401461060957806323b872dd1461061c578063248a9ca31461062f5780632682ac91146106525780632877d473146106675780632f2ff15d1461066f57600080fd5b806307b2d9e3116104d757806307b2d9e31461058b578063095ea7b3146105ac57806317559df0146105bf57806318160ddd146105d25780631c67a363146105da578063200d2ed2146105ef57600080fd5b8062a9303d1461051357806301ffc9a71461052857806304b8c4711461055057806306ec8ca61461056357806306fdde0314610576575b600080fd5b61052661052136600461587b565b610cd6565b005b61053b610536366004615896565b610cf1565b60405190151581526020015b60405180910390f35b61052661055e36600461587b565b610d1c565b6105266105713660046158c0565b61103a565b61057e611058565b6040516105479190615929565b61059e61059936600461593c565b6110ed565b604051908152602001610547565b61053b6105ba36600461593c565b61111d565b6105266105cd366004615a33565b61115e565b60075461059e565b61059e6000805160206164ce83398151915281565b6018546105fc9060ff1681565b6040516105479190615ade565b61052661061736600461587b565b6112f1565b61053b61062a366004615af1565b611309565b61059e61063d3660046158c0565b60009081526020819052604090206001015490565b61059e60008051602061650e83398151915281565b60205461059e565b61052661067d366004615b2d565b61156e565b600454610695906001600160a01b031681565b6040516001600160a01b039091168152602001610547565b6105266106bb366004615b59565b6116a3565b60005b60405160ff9091168152602001610547565b6105266106e3366004615b7b565b611766565b61053b6106f636600461587b565b611ae1565b610526610709366004615b2d565b611afb565b601e5461059e565b61053b61072436600461593c565b611b75565b61059e6000805160206164ae83398151915281565b610526611bc0565b6105266107543660046158c0565b611d15565b6105266107673660046158c0565b611e7f565b61053b61077a36600461587b565b611f39565b61052661078d366004615ba7565b611f53565b61059e6107a036600461593c565b611f93565b600254610695906001600160a01b031681565b6107c0611fdc565b6040516105479190615c17565b61053b6107db36600461587b565b61221b565b61059e6107ee36600461587b565b612240565b61053b6108013660046158c0565b61225b565b6105266108143660046158c0565b612295565b61082c6108273660046158c0565b61256c565b6040516105479190615cd7565b6002546106c390600160a01b900460ff1681565b61053b61085b3660046158c0565b60136020526000908152604090205460ff1681565b6024546001600160a01b0316610695565b61059e60008051602061652e83398151915281565b6105266108a436600461587b565b61272d565b6106956108b736600461587b565b6001600160a01b039081166000908152601660205260409020600201541690565b6106956108e6366004615b59565b612745565b61053b6108f9366004615b2d565b61275d565b61052661090c3660046158c0565b612786565b61057e6127bf565b61059e6109273660046158c0565b6127d1565b600f5461059e565b6105266109423660046158c0565b6127fc565b61059e61095536600461587b565b61286e565b61059e600081565b61052661097036600461587b565b61289f565b61053b61098336600461593c565b6128b7565b61053b61099636600461587b565b612902565b601d5461059e565b61053b6109b136600461593c565b61291c565b6105266109c4366004615d99565b61295e565b61053b6109d736600461587b565b612dcd565b6105266109ea366004615b7b565b6130c2565b602454610695906001600160a01b031681565b601f5461059e565b610526610a1836600461587b565b6133bb565b61053b6133d3565b61053b610a3336600461587b565b6133f7565b610526610a46366004615ba7565b61341c565b610af8610a593660046158c0565b60156020908152600091825260409182902080546001820154600283015460038401546004850154600586015460068701546007880154600889015460098a01548c51608081018e52600a8c01548152600b8c01549c81019c909c52600c8b01549c8c019c909c52600d8a015460608c0152600e909901546001600160a01b039889169b97909816999598949793969295919490939092919060ff168c565b6040516105479c9b9a99989796959493929190615e5e565b61059e610b1e3660046158c0565b61345c565b610526610b3136600461587b565b613473565b61059e610b443660046158c0565b61348b565b61082c6134b7565b610526610b5f36600461587b565b613518565b610526613686565b61053b610b7a3660046158c0565b6021541490565b610526610b8f366004615b2d565b613783565b610526610ba23660046158c0565b61388d565b610526610bb536600461587b565b613952565b610526610bc83660046158c0565b613b43565b610526610bdb3660046158c0565b613bb2565b610526610bee3660046158c0565b613c1e565b610526610c01366004615ef6565b613c57565b610526613d6f565b61059e610c1c366004615f44565b6001600160a01b03918216600090815260066020908152604080832093909416825291909152205490565b610526610c55366004615b7b565b613eb6565b600354610695906001600160a01b031681565b61053b610c7b36600461587b565b61424b565b60115461059e565b60105461059e565b610526610c9e36600461587b565b614265565b610526610cb136600461587b565b61427d565b61059e610cc436600461587b565b60146020526000908152604090205481565b610cee6000805160206164ae8339815191528261156e565b50565b60006001600160e01b03198216635a05180f60e01b1480610d165750610d1682614295565b92915050565b610d3460008051602061652e8339815191523361275d565b610d595760405162461bcd60e51b8152600401610d5090615f6e565b60405180910390fd5b6002546001600160a01b0390811690821603610dc35760405162461bcd60e51b8152602060048201526024808201527f4e65772061646d696e206973207468652073616d652061732063757272656e74604482015263206f6e6560e01b6064820152608401610d50565b6001600160a01b038116158015610de65750600254600160a01b900460ff166001145b15610e26576002805460ff60a01b19169055600480546001600160a01b0319908116909155600380549091166001600160a01b0392909216919091179055565b6001600160a01b038116610e965760405162461bcd60e51b815260206004820152603160248201527f5468652070726f706f736564206e65772061646d696e2063616e6e6f7420626560448201527020746865207a65726f206164647265737360781b6064820152608401610d50565b600254600160a01b900460ff16600003610eee576002805460ff60a01b1916600160a01b179055600480546001600160a01b03199081163317909155600380546001600160a01b039390931692909116919091179055565b600254600160a01b900460ff16600103610cee576003546001600160a01b03828116911614610f475760048054336001600160a01b031991821617909155600380549091166001600160a01b0392909216919091179055565b600454336001600160a01b0390911603610fa35760405162461bcd60e51b815260206004820152601a60248201527f546869732043414b2068617320616c726561647920766f7465640000000000006044820152606401610d50565b600254610fbb906000906001600160a01b03166142ca565b600354610fd3906000906001600160a01b0316611695565b60038054600280546001600160a81b0319166001600160a01b038316908117909155600480546001600160a01b03199081169091559091169091556040517f7ce7ec0b50378fb6c0186ffb5f48325f6593fcb4ca4386f21861af3129188f5c90600090a250565b60008051602061652e833981519152611052816142ec565b50601c55565b60606019600001805461106a90615f9a565b80601f016020809104026020016040519081016040528092919081815260200182805461109690615f9a565b80156110e35780601f106110b8576101008083540402835291602001916110e3565b820191906000526020600020905b8154815290600101906020018083116110c657829003601f168201915b5050505050905090565b6000818152600e602052604081205480156111145761110c8482611f93565b915050610d16565b61110c84612240565b60405162461bcd60e51b8152602060048201526013602482015272185c1c1c9bdd99481a5cc8191a5cd8589b1959606a1b6044820152600090606401610d50565b61117660008051602061652e8339815191523361275d565b6111925760405162461bcd60e51b8152600401610d5090615f6e565b602254156112c3578260196009016000815481106111b2576111b2615fce565b9060005260206000200154116112295760405162461bcd60e51b815260206004820152603660248201527f43616e6e6f742073657420612069737375616e636520646174652061667465726044820152752074686520666972737420636f75706f6e206461746560501b6064820152608401610d50565b6022805483919061123c90600190615ffa565b8154811061124c5761124c615fce565b9060005260206000200154106112c35760405162461bcd60e51b815260206004820152603660248201527f43616e6e6f74207365742061206d617475726974792064617465206265666f726044820152756520746865206c61737420636f75706f6e206461746560501b6064820152608401610d50565b60196112cf898261605b565b50601b96909655601c94909455601d92909255601e5560205560215560235550565b610cee6000805160206164ce83398151915282613783565b600061132360008051602061652e8339815191523361275d565b1561133b576113338484846142f6565b506001611567565b6113443361221b565b6113605760405162461bcd60e51b8152600401610d509061611b565b600460185460ff16600481111561137957611379615aaa565b036113e25760405162461bcd60e51b815260206004820152603360248201527f4e6f207472616e736665722063616e20626520646f6e65207768656e20746865604482015272103932b3b4b9ba32b91034b990233937bd32b760691b6064820152608401610d50565b600160185460ff1660048111156113fb576113fb615aaa565b14801561141b575061141b60008051602061650e8339815191528461275d565b801561143457506024546001600160a01b038581169116145b1561148a576018805460ff19166002179055611452836000806144a5565b60185460405133916000805160206164ee8339815191529161147d91601991601a9160ff16906161cd565b60405180910390a261155c565b611493836133f7565b15156001146114e45760405162461bcd60e51b815260206004820152601b60248201527f546865207265636569766572206973206e6f7420616c6c6f77656400000000006044820152606401610d50565b6114ed846133f7565b151560011480611510575061151060008051602061650e8339815191528561275d565b61155c5760405162461bcd60e51b815260206004820152601960248201527f5468652073656e646572206973206e6f7420616c6c6f776564000000000000006044820152606401610d50565b6113338484846142f6565b9392505050565b8161158b5760405162461bcd60e51b8152600401610d509061620c565b60008051602061652e8339815191528203611631576115b860008051602061652e8339815191523361275d565b806115c957506115c960003361275d565b61162c5760405162461bcd60e51b815260206004820152602e60248201527f43616c6c6572206d7573742062652043414b206f722041444d494e20746f207360448201526d657420616e6f746865722043414b60901b6064820152608401610d50565b611695565b61164960008051602061652e8339815191523361275d565b6116955760405162461bcd60e51b815260206004820181905260248201527f43616c6c6572206d7573742062652043414b20746f20736574206120726f6c656044820152606401610d50565b61169f828261453d565b5050565b6116ac3361221b565b6116c85760405162461bcd60e51b8152600401610d509061611b565b816116d682620d2f00616250565b116117535760405162461bcd60e51b815260206004820152604160248201527f496e636f6e73697374656e74207265636f72642064617465206d6f726520746860448201527f616e2031302064617973206265666f726520736574746c656d656e74206461746064820152606560f81b608482015260a401610d50565b61169f82826117618561455f565b6145f4565b61177e60008051602061652e8339815191523361275d565b8061179c575061179c60008051602061650e8339815191523361275d565b806117ab57506117ab336133f7565b806117ba57506117ba3361221b565b6117d65760405162461bcd60e51b8152600401610d5090616263565b600083815260156020908152604080832081516101808101835281546001600160a01b039081168252600183015416818501526002820154818401526003820154606080830191909152600480840154608080850191909152600585015460a0850152600685015460c0850152600785015460e08501526008850154610100850152600985015461012085015285519081018652600a8501548152600b85015496810196909652600c84015494860194909452600d83015490850152610140810193909352600e810154909161016084019160ff16908111156118bb576118bb615aaa565b60048111156118cc576118cc615aaa565b9052509050600181610160015160048111156118ea576118ea615aaa565b146119075760405162461bcd60e51b8152600401610d5090616292565b8060c0015160028460405160200161192191815260200190565b60408051601f198184030181529082905261193b916162d6565b602060405180830381855afa158015611958573d6000803e3d6000fd5b5050506040513d601f19601f8201168201806040525081019061197b91906162f2565b146119c85760405162461bcd60e51b815260206004820152601c60248201527f496e76616c696420666f7263652072656c6561736520736563726574000000006044820152606401610d50565b8061012001514211611a2d5760405162461bcd60e51b815260206004820152602860248201527f43616e6e6f7420666f7263652072656c65617365206265666f7265207061796d604482015267656e74206461746560c01b6064820152608401610d50565b600361016082015260408082015182516001600160a01b031660009081526014602052918220805491929091611a64908490615ffa565b9091555050600084815260156020908152604091829020600a8101859055600d0185905582519083015191830151611a9c9290611309565b508060800151847f2089944216aac981761c066b1d0353ceb806269186ef8e9045b9b1b9483699c06003604051611ad39190615ade565b60405180910390a350505050565b6000610d166000805160206164ce8339815191528361275d565b6001600160a01b0381163314611b6b5760405162461bcd60e51b815260206004820152602f60248201527f416363657373436f6e74726f6c3a2063616e206f6e6c792072656e6f756e636560448201526e103937b632b9903337b91039b2b63360891b6064820152608401610d50565b61169f82826142ca565b60405162461bcd60e51b815260206004820152601d60248201527f696e637265617365416c6c6f77616e63652069732064697361626c65640000006044820152600090606401610d50565b611bd860008051602061652e8339815191523361275d565b611bf45760405162461bcd60e51b8152600401610d5090615f6e565b600260185460ff166004811115611c0d57611c0d615aaa565b03611c2c57601880546004919060ff19166001835b0217905550611ce0565b600460185460ff166004811115611c4557611c45615aaa565b03611c5e57601880546002919060ff1916600183611c22565b60405162461bcd60e51b815260206004820152604b60248201527f43616e6e6f7420467265657a65202f20556e667265657a65207468652072656760448201527f69737465722061732074686520737461747573206973206e6f7420497373756560648201526a321037b910233937bd32b760a91b608482015260a401610d50565b60185460405133916000805160206164ee83398151915291611d0b91601991601a9160ff16906161cd565b60405180910390a2565b611d2d60008051602061652e8339815191523361275d565b611d495760405162461bcd60e51b8152600401610d5090615f6e565b600080611d5583614841565b915091508015611e7a57611d68836148d4565b611dbf5760405162461bcd60e51b815260206004820152602260248201527f5468697320636f75706f6e20646174652063616e6e6f742062652064656c6574604482015261195960f21b6064820152608401610d50565b602254611dce90600190615ffa565b821015611e4b57815b602254611de690600190615ffa565b811015611e49576022611dfa826001616250565b81548110611e0a57611e0a615fce565b906000526020600020015460196009018281548110611e2b57611e2b615fce565b60009182526020909120015580611e418161630b565b915050611dd7565b505b6022805480611e5c57611e5c616324565b60019003818190600052602060002001600090559055611e7a6148fe565b505050565b611e9760008051602061652e8339815191523361275d565b611eb35760405162461bcd60e51b8152600401610d5090615f6e565b611ebb6149ac565b50602454611ed2906001600160a01b031682614a21565b602454611ee7906001600160a01b0316612240565b158015611ef45750600754155b15610cee576018805460ff1916600390811790915560405133916000805160206164ee83398151915291611f2e91601991601a91906161cd565b60405180910390a250565b6000610d1660008051602061652e8339815191528361275d565b611f6b60008051602061652e8339815191523361275d565b611f875760405162461bcd60e51b8152600401610d5090615f6e565b601a61169f828261605b565b6001600160a01b0382166000908152600a6020526040812081908190611fba908590614b61565b9150915081611fd157611fcc85612240565b611fd3565b805b95945050505050565b61203c60405180610160016040528060608152602001606081526020016000815260200160008019168152602001600081526020016000815260200160008152602001600081526020016000815260200160608152602001600081525090565b60196040518061016001604052908160008201805461205a90615f9a565b80601f016020809104026020016040519081016040528092919081815260200182805461208690615f9a565b80156120d35780601f106120a8576101008083540402835291602001916120d3565b820191906000526020600020905b8154815290600101906020018083116120b657829003601f168201915b505050505081526020016001820180546120ec90615f9a565b80601f016020809104026020016040519081016040528092919081815260200182805461211890615f9a565b80156121655780601f1061213a57610100808354040283529160200191612165565b820191906000526020600020905b81548152906001019060200180831161214857829003601f168201915b50505050508152602001600282015481526020016003820154815260200160048201548152602001600582015481526020016006820154815260200160078201548152602001600882015481526020016009820180548060200260200160405190810160405280929190818152602001828054801561220357602002820191906000526020600020905b8154815260200190600101908083116121ef575b50505050508152602001600a82015481525050905090565b6000806122278361286e565b60009081526013602052604090205460ff169392505050565b6001600160a01b031660009081526005602052604090205490565b60008061226783614841565b91505080156122795750600192915050565b60215483900361228c5750600192915050565b50600092915050565b6122ad60008051602061652e8339815191523361275d565b6122c95760405162461bcd60e51b8152600401610d5090615f6e565b60205481116123405760405162461bcd60e51b815260206004820152603e60248201527f43616e6e6f7420736574206120636f75706f6e206461746520736d616c6c657260448201527f206f7220657175616c20746f207468652069737375616e6365206461746500006064820152608401610d50565b60215481106123b75760405162461bcd60e51b815260206004820152603e60248201527f43616e6e6f7420736574206120636f75706f6e2064617465206772656174657260448201527f206f7220657175616c20746f20746865206d61747572697479206461746500006064820152608401610d50565b6000806123c383614841565b9150915080611e7a576123d583614c57565b6124345760405162461bcd60e51b815260206004820152602a60248201527f43616e6e6f7420696e73657274207468697320646174652c20697420697320696044820152691b881d1a19481c185cdd60b21b6064820152608401610d50565b6022541561252e5760228054819061244e90600190615ffa565b8154811061245e5761245e615fce565b600091825260208083209091015483546001810185559383529120909101556022546003116125065760225460009061249990600390615ffa565b90505b8281106125045760228054829081106124b7576124b7615fce565b60009182526020909120015460226124d0836001616250565b815481106124e0576124e0615fce565b600091825260209091200155801561250457806124fc8161633a565b91505061249c565b505b826019600901838154811061251d5761251d615fce565b600091825260209091200155612564565b602280546001810182556000919091527f61035b26e3e9eee00e0d72fd1ee8ddca6894550dca6916ea2ac6baa90d11e510018390555b611e7a6148fe565b60175460609060009067ffffffffffffffff81111561258d5761258d615966565b6040519080825280602002602001820160405280156125b6578160200160208202803683370190505b5090506000805b60175481101561267b5760006125fa601783815481106125df576125df615fce565b6000918252602090912001546001600160a01b0316876110ed565b1115612669576017818154811061261357612613615fce565b9060005260206000200160009054906101000a90046001600160a01b031683838151811061264357612643615fce565b6001600160a01b0390921660209283029190910190910152816126658161630b565b9250505b806126738161630b565b9150506125bd565b5060008167ffffffffffffffff81111561269757612697615966565b6040519080825280602002602001820160405280156126c0578160200160208202803683370190505b50905060005b82811015612724578381815181106126e0576126e0615fce565b60200260200101518282815181106126fa576126fa615fce565b6001600160a01b03909216602092830291909101909101528061271c8161630b565b9150506126c6565b50949350505050565b610cee60008051602061652e83398151915282613783565b60008281526001602052604081206115679083614c6c565b6000918252602082815260408084206001600160a01b0393909316845291905290205460ff1690565b61279e60008051602061652e8339815191523361275d565b6127ba5760405162461bcd60e51b8152600401610d5090615f6e565b601f55565b60606019600101805461106a90615f9a565b60008060006127e184600b614b61565b91509150816127f2576007546127f4565b805b949350505050565b61281460008051602061652e8339815191523361275d565b6128305760405162461bcd60e51b8152600401610d5090615f6e565b6024546001600160a01b03166128585760405162461bcd60e51b8152600401610d5090616351565b602454610cee906001600160a01b031682614c78565b60408051603f833b908101601f19168201909252818152600091808360208401863c50805160209091012092915050565b610cee60008051602061652e8339815191528261156e565b60405162461bcd60e51b815260206004820152601d60248201527f6465637265617365416c6c6f77616e63652069732064697361626c65640000006044820152600090606401610d50565b6000610d1660008051602061650e8339815191528361275d565b60405162461bcd60e51b81526020600482015260146024820152731d1c985b9cd9995c881a5cc8191a5cd8589b195960621b6044820152600090606401610d50565b61297660008051602061652e8339815191523361275d565b80612994575061299460008051602061650e8339815191523361275d565b806129a357506129a3336133f7565b806129b257506129b23361221b565b6129ce5760405162461bcd60e51b8152600401610d5090616263565b60608101516000908152601560205260408120600e015460ff16908160048111156129fb576129fb615aaa565b14612a3b5760405162461bcd60e51b815260206004820152601060248201526f131bd8dac8185b1c9958591e481cd95d60821b6044820152606401610d50565b60008261016001516004811115612a5457612a54615aaa565b14612a925760405162461bcd60e51b815260206004820152600e60248201526d496e76616c69642073746174757360901b6044820152606401610d50565b81516001600160a01b031615801590612ab7575060208201516001600160a01b031615155b612af55760405162461bcd60e51b815260206004820152600f60248201526e496e76616c6964206164647265737360881b6044820152606401610d50565b8161012001518261010001511115612b3f5760405162461bcd60e51b815260206004820152600d60248201526c496e76616c696420646174657360981b6044820152606401610d50565b6000826040015111612b845760405162461bcd60e51b815260206004820152600e60248201526d125b9d985b1a5908185b5bdd5b9d60921b6044820152606401610d50565b81516001600160a01b0316600090815260146020526040908190205490830151612bae9190616250565b8251612bb990612240565b1015612bfe5760405162461bcd60e51b8152602060048201526014602482015273496e73756666696369656e742062616c616e636560601b6044820152606401610d50565b42826101000151118015612c1c575081610100015182610120015110155b612c585760405162461bcd60e51b815260206004820152600d60248201526c496e76616c696420646174657360981b6044820152606401610d50565b60408083015183516001600160a01b031660009081526014602052918220805491929091612c87908490616250565b909155505060608281018051600090815260156020908152604091829020865181546001600160a01b03199081166001600160a01b0392831617835583890151600180850180549093169190931617905583880151600283015593516003820155608087015160048083019190915560a0880151600583015560c0880151600683015560e08801516007830155610100880151600883015561012088015160098301556101408801518051600a84015592830151600b83015592820151600c820155930151600d840155610160850151600e840180548795949293919260ff19909116918490811115612d7c57612d7c615aaa565b02179055505050608082015160608301516101608401516040517fd31c125177f0903f650e8515327fc08ce105de44664e68b42644a3b2f28b60df91612dc191615ade565b60405180910390a35050565b6000612dd83361221b565b612df45760405162461bcd60e51b8152600401610d509061611b565b612dfd826133f7565b1515600114612e4e5760405162461bcd60e51b815260206004820152601f60248201527f54686520696e766573746f72206973206e6f742077686974656c6973746564006044820152606401610d50565b6000306001600160a01b031663e5bf6dc86040518163ffffffff1660e01b8152600401602060405180830381865afa158015612e8e573d6000803e3d6000fd5b505050506040513d601f19601f82011682018060405250810190612eb291906162f2565b602154909150811480612ec3575080155b8015612f2f5750306001600160a01b0316639ef986de6040518163ffffffff1660e01b8152600401602060405180830381865afa158015612f08573d6000803e3d6000fd5b505050506040513d601f19601f82011682018060405250810190612f2c91906162f2565b42115b612fc75760405162461bcd60e51b815260206004820152605e60248201527f72657475726e696e67207468652062616c616e636520746f207468652070726960448201527f6d6172792069737375616e63652063616e206f6e6c7920626520646f6e65206160648201527f6674657220746865206d6174757269747920637574206f66662074696d650000608482015260a401610d50565b6040516370a0823160e01b81526001600160a01b038416600482015260009030906370a0823190602401602060405180830381865afa15801561300e573d6000803e3d6000fd5b505050506040513d601f19601f8201168201806040525081019061303291906162f2565b9050600081116130935760405162461bcd60e51b815260206004820152602660248201527f6e6f2062616c616e636520746f2072657475726e20666f72207468697320696e6044820152653b32b9ba37b960d11b6064820152608401610d50565b61309b6149ac565b506130b8846130b26024546001600160a01b031690565b836142f6565b5060019392505050565b6130da60008051602061652e8339815191523361275d565b806130f857506130f860008051602061650e8339815191523361275d565b806131075750613107336133f7565b8061311657506131163361221b565b6131325760405162461bcd60e51b8152600401610d5090616263565b600083815260156020908152604080832081516101808101835281546001600160a01b039081168252600183015416818501526002820154818401526003820154606080830191909152600480840154608080850191909152600585015460a0850152600685015460c0850152600785015460e08501526008850154610100850152600985015461012085015285519081018652600a8501548152600b85015496810196909652600c84015494860194909452600d83015490850152610140810193909352600e810154909161016084019160ff169081111561321757613217615aaa565b600481111561322857613228615aaa565b90525090506001816101600151600481111561324657613246615aaa565b146132635760405162461bcd60e51b8152600401610d5090616292565b8060a0015160028460405160200161327d91815260200190565b60408051601f1981840301815290829052613297916162d6565b602060405180830381855afa1580156132b4573d6000803e3d6000fd5b5050506040513d601f19601f820116820180604052508101906132d791906162f2565b146133155760405162461bcd60e51b815260206004820152600e60248201526d125b9d985b1a59081cd958dc995d60921b6044820152606401610d50565b600261016082015260408082015182516001600160a01b03166000908152601460205291822080549192909161334c908490615ffa565b9091555050600084815260156020908152604091829020600a8101859055600b01859055825190830151918301516133849290611309565b508060800151847f2089944216aac981761c066b1d0353ceb806269186ef8e9045b9b1b9483699c06002604051611ad39190615ade565b610cee60008051602061650e83398151915282613783565b6000806133df3361286e565b60009081526013602052604090205460ff1692915050565b6001600160a01b0316600090815260166020526040902054600160a01b900460ff1690565b61343460008051602061652e8339815191523361275d565b6134505760405162461bcd60e51b8152600401610d5090615f6e565b601961169f828261605b565b6000818152600160205260408120610d1690614d45565b610cee60008051602061650e8339815191528261156e565b6000818152600e602052604081205480156134a957611567816127d1565b600754611567565b50919050565b606060178054806020026020016040519081016040528092919081815260200182805480156110e357602002820191906000526020600020905b81546001600160a01b031681526001909101906020018083116134f1575050505050905090565b6001600160a01b03811661356e5760405162461bcd60e51b815260206004820152601f60248201527f696e766573746f7220616464726573732063616e6e6f74206265207a65726f006044820152606401610d50565b6001600160a01b0381811660009081526016602052604090206002015416156135a560008051602061652e8339815191523361275d565b156136235780156135f85760405162461bcd60e51b815260206004820152601d60248201527f696e766573746f72206d757374206265207365742075702066697273740000006044820152606401610d50565b506001600160a01b03166000908152601660205260409020805460ff60a01b1916600160a01b179055565b61363b6000805160206164ce8339815191523361275d565b61367c5760405162461bcd60e51b815260206004820152601260248201527110d85b1b195c881b5d5cdd0818994810d4d560721b6044820152606401610d50565b61169f8233614d4f565b61369e60008051602061652e8339815191523361275d565b6136ba5760405162461bcd60e51b8152600401610d5090615f6e565b600160185460ff1660048111156136d3576136d3615aaa565b1461372a5760405162461bcd60e51b815260206004820152602160248201527f52656769737465722073686f756c6420626520696e20526561647920737461746044820152606560f81b6064820152608401610d50565b602454601b54613743916001600160a01b031690614a21565b601880546000919060ff19166001835b021790555060185460405133916000805160206164ee83398151915291611d0b91601991601a9160ff16906161cd565b816137a05760405162461bcd60e51b8152600401610d509061620c565b60008051602061652e833981519152820361381d576137c060003361275d565b6138185760405162461bcd60e51b8152602060048201526024808201527f43616c6c6572206d7573742062652041444d494e20746f2072656d6f766520616044820152632043414b60e01b6064820152608401610d50565b611b6b565b61383560008051602061652e8339815191523361275d565b611b6b5760405162461bcd60e51b815260206004820152602360248201527f43616c6c6572206d7573742062652043414b20746f2072656d6f7665206120726044820152626f6c6560e81b6064820152608401610d50565b6138a560008051602061652e8339815191523361275d565b6138c15760405162461bcd60e51b8152600401610d5090615f6e565b600060185460ff1660048111156138da576138da615aaa565b1461394d5760405162461bcd60e51b815260206004820152603a60248201527f6c6966656379636c652076696f6c6174696f6e202d206f6e6c7920616c6c6f7760448201527f6564207768656e2073746174757320697320696e2064726166740000000000006064820152608401610d50565b601b55565b6001600160a01b0381166139a85760405162461bcd60e51b815260206004820152601f60248201527f696e766573746f7220616464726573732063616e6e6f74206265207a65726f006044820152606401610d50565b6139c060008051602061652e8339815191523361275d565b15613a53576001600160a01b0381811660009081526016602052604090206002015416613a2f5760405162461bcd60e51b815260206004820152601d60248201527f696e766573746f72206d757374206265207365742075702066697273740000006044820152606401610d50565b6001600160a01b03166000908152601660205260409020805460ff60a01b19169055565b613a6b6000805160206164ce8339815191523361275d565b613aac5760405162461bcd60e51b815260206004820152601260248201527110d85b1b195c881b5d5cdd0818994810d4d560721b6044820152606401610d50565b6001600160a01b03818116600090815260166020526040902060020154163314613ae85760405162461bcd60e51b8152600401610d5090616397565b6001600160a01b038116600081815260166020908152604091829020805460ff60a01b1916905590519182527ffeae65559f65b7c3f804001ac3371fbb83cf05e8344bc2b66588084bfe9250a891015b60405180910390a150565b613b4b614e41565b613b675760405162461bcd60e51b8152600401610d5090615f6e565b60008181526013602052604090819020805460ff19166001179055517fbaf2f827de189827a9b5ea8781dbbffcad675a367dccaad8b9ada866795598d790613b389083815260200190565b613bba614e41565b613bd65760405162461bcd60e51b8152600401610d5090615f6e565b60008181526013602052604090819020805460ff19169055517f2876b9bd97a638025f28a0d50cb5f3cd9e5c0b85624fb7ee15267149452c2d7490613b389083815260200190565b613c3660008051602061652e8339815191523361275d565b613c525760405162461bcd60e51b8152600401610d5090615f6e565b602055565b613c6f60008051602061652e8339815191523361275d565b80613c8d5750613c8d60008051602061650e8339815191523361275d565b80613cab5750613cab6000805160206164ce8339815191523361275d565b80613cc95750613cc96000805160206164ae8339815191523361275d565b613d2c5760405162461bcd60e51b815260206004820152602e60248201527f5468652063616c6c6572206d7573742068617665206120726f6c6520696e207460448201526d3432903a3930b739b0b1ba34b7b760911b6064820152608401610d50565b816001600160a01b0316336001600160a01b03167fa923df1773651806246e73e1e43342c4845d608ad54e2606d3c1a50124d66e7183604051612dc19190615929565b613d8760008051602061652e8339815191523361275d565b613da35760405162461bcd60e51b8152600401610d5090615f6e565b600060185460ff166004811115613dbc57613dbc615aaa565b14613e135760405162461bcd60e51b815260206004820152602160248201527f52656769737465722073686f756c6420626520696e20447261667420737461746044820152606560f81b6064820152608401610d50565b601b54613e625760405162461bcd60e51b815260206004820152601e60248201527f657870656374656420737570706c792063616e6e6f74206265207a65726f00006044820152606401610d50565b6024546001600160a01b0316613e8a5760405162461bcd60e51b8152600401610d5090616351565b602454601b54613ea3916001600160a01b031690614c78565b601880546001919060ff19168280613753565b613ece60008051602061652e8339815191523361275d565b80613eec5750613eec60008051602061650e8339815191523361275d565b80613efb5750613efb336133f7565b80613f0a5750613f0a3361221b565b613f265760405162461bcd60e51b8152600401610d5090616263565b600083815260156020908152604080832081516101808101835281546001600160a01b039081168252600183015416818501526002820154818401526003820154606080830191909152600480840154608080850191909152600585015460a0850152600685015460c0850152600785015460e08501526008850154610100850152600985015461012085015285519081018652600a8501548152600b85015496810196909652600c84015494860194909452600d83015490850152610140810193909352600e810154909161016084019160ff169081111561400b5761400b615aaa565b600481111561401c5761401c615aaa565b90525090506001816101600151600481111561403a5761403a615aaa565b146140575760405162461bcd60e51b8152600401610d5090616292565b61406f60008051602061652e8339815191523361275d565b8061407e575080610100015142115b6140db5760405162461bcd60e51b815260206004820152602860248201527f43616e6e6f7420666f7263652063616e63656c206265666f72652064656c6976604482015267657279206461746560c01b6064820152608401610d50565b6140f360008051602061652e8339815191523361275d565b8061416f57508060e0015160028460405160200161411391815260200190565b60408051601f198184030181529082905261412d916162d6565b602060405180830381855afa15801561414a573d6000803e3d6000fd5b5050506040513d601f19601f8201168201806040525081019061416d91906162f2565b145b6141bb5760405162461bcd60e51b815260206004820152601c60248201527f496e76616c696420666f7263652072656c6561736520736563726574000000006044820152606401610d50565b600461016082015260408082015182516001600160a01b0316600090815260146020529182208054919290916141f2908490615ffa565b909155505060008481526015602052604090819020600a8101849055600d018490556080820151905185907f1a8cba02f5d013fea67ada9f32246816eef8d429321e769eb3bdb1a0ccc7a28490611ad390600490615ade565b6000610d166000805160206164ae8339815191528361275d565b610cee6000805160206164ae83398151915282613783565b610cee6000805160206164ce8339815191528261156e565b60006001600160e01b03198216637965db0b60e01b1480610d1657506301ffc9a760e01b6001600160e01b0319831614610d16565b6142d48282614e60565b6000828152600160205260409020611e7a9082614ec5565b610cee8133614eda565b6001600160a01b03831661435a5760405162461bcd60e51b815260206004820152602560248201527f45524332303a207472616e736665722066726f6d20746865207a65726f206164604482015264647265737360d81b6064820152608401610d50565b6001600160a01b0382166143bc5760405162461bcd60e51b815260206004820152602360248201527f45524332303a207472616e7366657220746f20746865207a65726f206164647260448201526265737360e81b6064820152608401610d50565b6143c7838383614f33565b6001600160a01b0383166000908152600560205260409020548181101561443f5760405162461bcd60e51b815260206004820152602660248201527f45524332303a207472616e7366657220616d6f756e7420657863656564732062604482015265616c616e636560d01b6064820152608401610d50565b6001600160a01b0380851660008181526005602052604080822086860390559286168082529083902080548601905591517fddf252ad1be2c89b69c2b068fc378daa952ba7f163c4a11628f55a4df523b3ef90611ad39086815260200190565b50505050565b6017805460018082019092557fc624b66cc0138b8fabc209247f72d758e1cf3343756d543badbf24212bed8c15810180546001600160a01b03199081166001600160a01b039788169081179092556000828152601660205260409020938401929092558254600284018054909316959096169490941790556001600160a81b0319909316909117600160a01b91151591909102179055565b614547828261500f565b6000828152600160205260409020611e7a9082615093565b6000805b60225481101561228c57826019600901828154811061458457614584615fce565b9060005260206000200154036145e2576022546145a2826001616250565b10156145d85760226145b5826001616250565b815481106145c5576145c5615fce565b9060005260206000200154915050919050565b5050602154919050565b806145ec8161630b565b915050614563565b60006146018360006150a8565b90508381111561466f5760405162461bcd60e51b815260206004820152603360248201527f746865207265636f726420646174652063616e6e6f742062652061667465722060448201527274686520736574746c656d656e74206461746560681b6064820152608401610d50565b81158061467b57508382115b6146ed5760405162461bcd60e51b815260206004820152603c60248201527f696e76616c6964206e6578742064617465207768656e2073657474696e67207460448201527f68652063757272656e7420736e617073686f74206461746574696d65000000006064820152608401610d50565b60006146fa8560006150a8565b90508280156147105761470d81866150a8565b90505b6000828152600e60205260409020541561477d5760405162461bcd60e51b815260206004820152602860248201527f44617465206f6620636f75706f6e206f72206d6174757269747920616c726561604482015267323c903a30b5b2b760c11b6064820152608401610d50565b8442106147f25760405162461bcd60e51b815260206004820152603d60248201527f796f75206861766520746f20646566696e652061206e657720706572696f642060448201527f656e64696e67206166746572207468652063757272656e742074696d650000006064820152608401610d50565b6147fa6150df565b50600f859055601182905560108190556040518190869084907f4d1d74d5cbfc13e02ef05af3a30d8721e87a00d20bc3dc42198917139944def390600090a4505050505050565b60008060005b6022548110156148c657836019600901828154811061486857614868615fce565b906000526020600020015403614882579360019350915050565b836019600901828154811061489957614899615fce565b906000526020600020015411156148b4579360009350915050565b806148be8161630b565b915050614847565b505060225492600092509050565b60006148e14260006150a8565b82118015610d165750506000908152600e60205260409020541590565b600061490942614841565b50602254909150600090819083101561498b57602280548490811061493057614930615fce565b60009182526020909120015460225490925061494d846001616250565b1015614982576022614960846001616250565b8154811061497057614970615fce565b90600052602060002001549050614993565b50602154614993565b505060215460005b60235461449f9083906149a69082616250565b836151a4565b60125460009060ff1615614a0d5760405162461bcd60e51b815260206004820152602260248201527f666f72636520666c616720616c7265616479207365742c20636865636b20636f604482015261646560f01b6064820152608401610d50565b506012805460ff1916600190811790915590565b6001600160a01b038216614a815760405162461bcd60e51b815260206004820152602160248201527f45524332303a206275726e2066726f6d20746865207a65726f206164647265736044820152607360f81b6064820152608401610d50565b614a8d82600083614f33565b6001600160a01b03821660009081526005602052604090205481811015614b015760405162461bcd60e51b815260206004820152602260248201527f45524332303a206275726e20616d6f756e7420657863656564732062616c616e604482015261636560f01b6064820152608401610d50565b6001600160a01b03831660008181526005602090815260408083208686039055600780548790039055518581529192917fddf252ad1be2c89b69c2b068fc378daa952ba7f163c4a11628f55a4df523b3ef910160405180910390a3505050565b60008060008411614bad5760405162461bcd60e51b815260206004820152601660248201527504552433230536e617073686f743a20696420697320360541b6044820152606401610d50565b614bb56151e1565b841115614c045760405162461bcd60e51b815260206004820152601d60248201527f4552433230536e617073686f743a206e6f6e6578697374656e742069640000006044820152606401610d50565b6000614c1084866151ec565b84549091508103614c28576000809250925050614c50565b6001846001018281548110614c3f57614c3f615fce565b906000526020600020015492509250505b9250929050565b6000614c644260006150a8565b909111919050565b6000611567838361528d565b6001600160a01b038216614cce5760405162461bcd60e51b815260206004820152601f60248201527f45524332303a206d696e7420746f20746865207a65726f2061646472657373006044820152606401610d50565b614cda60008383614f33565b8060076000828254614cec9190616250565b90915550506001600160a01b0382166000818152600560209081526040808320805486019055518481527fddf252ad1be2c89b69c2b068fc378daa952ba7f163c4a11628f55a4df523b3ef910160405180910390a35050565b6000610d16825490565b614d58826133f7565b15614d61575050565b6001600160a01b0382811660009081526016602052604090206002015416158015614d9757614d92838360016144a5565b614e00565b6001600160a01b03838116600090815260166020526040902060020154811690831614614dd65760405162461bcd60e51b8152600401610d5090616397565b6001600160a01b0383166000908152601660205260409020805460ff60a01b1916600160a01b1790555b6040516001600160a01b03841681527ff96a35a7272aecca4e6ac04b9ecbc33e3c2655f1fa104a4604d8f50370e6beb39060200160405180910390a1505050565b6000614e5b60008051602061652e8339815191523361275d565b905090565b614e6a828261275d565b1561169f576000828152602081815260408083206001600160a01b0385168085529252808320805460ff1916905551339285917ff6391f5c32d9c69d2a47ea670b442974b53935d1edc7fd64eb21e047a839171b9190a45050565b6000611567836001600160a01b0384166152b7565b614ee4828261275d565b61169f57614ef1816153aa565b614efc8360206153bc565b604051602001614f0d9291906163e3565b60408051601f198184030181529082905262461bcd60e51b8252610d5091600401615929565b600360185460ff166004811115614f4c57614f4c615aaa565b03614f925760405162461bcd60e51b81526020600482015260166024820152751d1a1948149959da5cdd195c881a5cc818db1bdcd95960521b6044820152606401610d50565b6001600160a01b038316600090815260146020526040902054614fb6908290616250565b614fbf84612240565b10156150045760405162461bcd60e51b8152602060048201526014602482015273496e73756666696369656e742062616c616e636560601b6044820152606401610d50565b611e7a838383615558565b615019828261275d565b61169f576000828152602081815260408083206001600160a01b03851684529091529020805460ff1916600117905561504f3390565b6001600160a01b0316816001600160a01b0316837f2f8788117e7eff1d82e926ec794901d17c78024a50270940304540a733656f0d60405160405180910390a45050565b6000611567836001600160a01b03841661567d565b6000806150b8620151808561646e565b90506150c48185615ffa565b91506150d3620151808461646e565b90506127f48183616250565b600080600f5411801561510157506011546000908152600e6020526040902054155b801561510f5750600f544210155b1561519e57600061511e6156cc565b6011546000908152600e60205260409020819055601054909150615143576000615151565b615151601054600f546150a8565b600f8190556151619060006150a8565b6011819055601054600f54604051919290917f4d1d74d5cbfc13e02ef05af3a30d8721e87a00d20bc3dc42198917139944def390600090a4919050565b50600090565b600060115484146151bf576151ba8484846145f4565b6130b8565b6151cc60105460006150a8565b82146130b8576130b8601154600f54846145f4565b6000614e5b600d5490565b815460009081036151ff57506000610d16565b82546000905b808210156152495760006152198383615726565b9050846152268783615741565b54111561523557809150615243565b615240816001616250565b92505b50615205565b60008211801561526c57508361526986615264600186615ffa565b615741565b54145b156152855761527c600183615ffa565b92505050610d16565b509050610d16565b60008260000182815481106152a4576152a4615fce565b9060005260206000200154905092915050565b600081815260018301602052604081205480156153a05760006152db600183615ffa565b85549091506000906152ef90600190615ffa565b905081811461535457600086600001828154811061530f5761530f615fce565b906000526020600020015490508087600001848154811061533257615332615fce565b6000918252602080832090910192909255918252600188019052604090208390555b855486908061536557615365616324565b600190038181906000526020600020016000905590558560010160008681526020019081526020016000206000905560019350505050610d16565b6000915050610d16565b6060610d166001600160a01b03831660145b606060006153cb836002616482565b6153d6906002616250565b67ffffffffffffffff8111156153ee576153ee615966565b6040519080825280601f01601f191660200182016040528015615418576020820181803683370190505b509050600360fc1b8160008151811061543357615433615fce565b60200101906001600160f81b031916908160001a905350600f60fb1b8160018151811061546257615462615fce565b60200101906001600160f81b031916908160001a9053506000615486846002616482565b615491906001616250565b90505b6001811115615509576f181899199a1a9b1b9c1cb0b131b232b360811b85600f16601081106154c5576154c5615fce565b1a60f81b8282815181106154db576154db615fce565b60200101906001600160f81b031916908160001a90535060049490941c936155028161633a565b9050615494565b5083156115675760405162461bcd60e51b815260206004820181905260248201527f537472696e67733a20686578206c656e67746820696e73756666696369656e746044820152606401610d50565b60125460ff1615615572576012805460ff19169055615669565b6000600f54116156025760405162461bcd60e51b815260206004820152604f60248201527f746865207265676973746572206973206c6f636b65642062656361757365206e60448201527f6f20636f75706f6e206973207072657061726564206f7220746865206d61747560648201526e1c9a5d1e481a5cc81c995858da1959608a1b608482015260a401610d50565b600f544210615669576000601054116156695760405162461bcd60e51b8152602060048201526024808201527f746865206d61747572697479206375742d6f66662074696d65206861732070616044820152631cdcd95960e21b6064820152608401610d50565b6156716150df565b50611e7a838383615752565b60008181526001830160205260408120546156c457508154600181810184556000848152602080822090930184905584548482528286019093526040902091909155610d16565b506000610d16565b60006156dc600d80546001019055565b60006156e66151e1565b90507f8030e83b04d87bef53480e26263266d6ca66863aa8506aca6f2559d18aa1cb678160405161571991815260200190565b60405180910390a1919050565b60006157356002848418616499565b61156790848416616250565b6000828152602081208201806127f4565b6001600160a01b0383166157715761576982615796565b611e7a6157c0565b6001600160a01b0382166157885761576983615796565b61579183615796565b611e7a825b6001600160a01b0381166000908152600a60205260409020610cee906157bb83612240565b6157d0565b6157ce600b6157bb60075490565b565b60006157da6151e1565b9050806157e68461581a565b1015611e7a578254600180820185556000858152602080822090930193909355938401805494850181558252902090910155565b8054600090810361582d57506000919050565b8154829061583d90600190615ffa565b8154811061584d5761584d615fce565b90600052602060002001549050919050565b919050565b80356001600160a01b038116811461585f57600080fd5b60006020828403121561588d57600080fd5b61156782615864565b6000602082840312156158a857600080fd5b81356001600160e01b03198116811461156757600080fd5b6000602082840312156158d257600080fd5b5035919050565b60005b838110156158f45781810151838201526020016158dc565b50506000910152565b600081518084526159158160208601602086016158d9565b601f01601f19169290920160200192915050565b60208152600061156760208301846158fd565b6000806040838503121561594f57600080fd5b61595883615864565b946020939093013593505050565b634e487b7160e01b600052604160045260246000fd5b604051610180810167ffffffffffffffff811182821017156159a0576159a0615966565b60405290565b600082601f8301126159b757600080fd5b813567ffffffffffffffff808211156159d2576159d2615966565b604051601f8301601f19908116603f011681019082821181831017156159fa576159fa615966565b81604052838152866020858801011115615a1357600080fd5b836020870160208301376000602085830101528094505050505092915050565b600080600080600080600080610100898b031215615a5057600080fd5b883567ffffffffffffffff811115615a6757600080fd5b615a738b828c016159a6565b9b60208b01359b5060408b01359a60608101359a506080810135995060a0810135985060c0810135975060e0013595509350505050565b634e487b7160e01b600052602160045260246000fd5b60058110610cee57634e487b7160e01b600052602160045260246000fd5b60208101615aeb83615ac0565b91905290565b600080600060608486031215615b0657600080fd5b615b0f84615864565b9250615b1d60208501615864565b9150604084013590509250925092565b60008060408385031215615b4057600080fd5b82359150615b5060208401615864565b90509250929050565b60008060408385031215615b6c57600080fd5b50508035926020909101359150565b600080600060608486031215615b9057600080fd5b505081359360208301359350604090920135919050565b600060208284031215615bb957600080fd5b813567ffffffffffffffff811115615bd057600080fd5b6127f4848285016159a6565b600081518084526020808501945080840160005b83811015615c0c57815187529582019590820190600101615bf0565b509495945050505050565b6020815260008251610160806020850152615c366101808501836158fd565b91506020850151601f1980868503016040870152615c5484836158fd565b93506040870151606087015260608701516080870152608087015160a087015260a087015160c087015260c087015160e087015260e08701519150610100828188015280880151925050610120828188015280880151925050610140818786030181880152615cc38584615bdc565b970151959092019490945250929392505050565b6020808252825182820181905260009190848201906040850190845b81811015615d185783516001600160a01b031683529284019291840191600101615cf3565b50909695505050505050565b600060808284031215615d3657600080fd5b6040516080810181811067ffffffffffffffff82111715615d5957615d59615966565b8060405250809150823581526020830135602082015260408301356040820152606083013560608201525092915050565b80356005811061585f57600080fd5b60006101e08284031215615dac57600080fd5b615db461597c565b615dbd83615864565b8152615dcb60208401615864565b602082015260408301356040820152606083013560608201526080830135608082015260a083013560a082015260c083013560c082015260e083013560e0820152610100808401358183015250610120808401358183015250610140615e3385828601615d24565b90820152615e446101c08401615d8a565b6101608201529392505050565b615e5a81615ac0565b9052565b60006101e08201905060018060a01b03808f168352808e166020840152508b60408301528a60608301528960808301528860a08301528760c08301528660e0830152856101008301528461012083015283516101408301526020840151610160830152604084015161018083015260608401516101a0830152615ee56101c0830184615e51565b9d9c50505050505050505050505050565b60008060408385031215615f0957600080fd5b615f1283615864565b9150602083013567ffffffffffffffff811115615f2e57600080fd5b615f3a858286016159a6565b9150509250929050565b60008060408385031215615f5757600080fd5b615f6083615864565b9150615b5060208401615864565b60208082526012908201527143616c6c6572206d7573742062652043414b60701b604082015260600190565b600181811c90821680615fae57607f821691505b6020821081036134b157634e487b7160e01b600052602260045260246000fd5b634e487b7160e01b600052603260045260246000fd5b634e487b7160e01b600052601160045260246000fd5b81810381811115610d1657610d16615fe4565b601f821115611e7a57600081815260208120601f850160051c810160208610156160345750805b601f850160051c820191505b8181101561605357828155600101616040565b505050505050565b815167ffffffffffffffff81111561607557616075615966565b616089816160838454615f9a565b8461600d565b602080601f8311600181146160be57600084156160a65750858301515b600019600386901b1c1916600185901b178555616053565b600085815260208120601f198616915b828110156160ed578886015182559484019460019091019084016160ce565b508582101561610b5787850151600019600388901b60f8161c191681555b5050505050600190811b01905550565b6020808252818101527f5468697320636f6e7472616374206973206e6f742077686974656c6973746564604082015260600190565b6000815461615d81615f9a565b80855260206001838116801561617a5760018114616194576161c2565b60ff1985168884015283151560051b8801830195506161c2565b866000528260002060005b858110156161ba5781548a820186015290830190840161619f565b890184019650505b505050505092915050565b6060815260006161e06060830186616150565b82810360208401526161f28186616150565b9150506161fe83615ac0565b826040830152949350505050565b60208082526024908201527f5573652066756e6374696f6e206368616e676541646d696e526f6c6520696e736040820152631d19585960e21b606082015260800190565b80820180821115610d1657610d16615fe4565b60208082526015908201527410d85b1b195c881b9bdd08185d5d1a1bdc9a5e9959605a1b604082015260600190565b60208082526024908201527f4173736574206e6f74206c6f636b6564206f7220616c72656164792072656c65604082015263185cd95960e21b606082015260800190565b600082516162e88184602087016158d9565b9190910192915050565b60006020828403121561630457600080fd5b5051919050565b60006001820161631d5761631d615fe4565b5060010190565b634e487b7160e01b600052603160045260246000fd5b60008161634957616349615fe4565b506000190190565b60208082526026908201527f596f75206d7573742073657420746865206d696e74207265636569766572206160408201526564647265737360d01b606082015260800190565b6020808252602c908201527f6f6e6c792074686520637573746f6469616e2063616e20646973616c6c6f772060408201526b3a34329034b73b32b9ba37b960a11b606082015260800190565b7f416363657373436f6e74726f6c3a206163636f756e742000000000000000000081526000835161641b8160178501602088016158d9565b7001034b99036b4b9b9b4b733903937b6329607d1b601791840191820152835161644c8160288401602088016158d9565b01602801949350505050565b634e487b7160e01b600052601260045260246000fd5b60008261647d5761647d616458565b500690565b8082028115828204841417610d1657610d16615fe4565b6000826164a8576164a8616458565b50049056fed7aa2ddfa4e381128202bf365b7e0a176f2fca6cdf2f23c2b0a6f439376958906ba6f588bcdc2df8426603a466c98ab15e79f7fb7f37b53581ce39c1d01b7249da2010acfda7a262372331cb3b57e3f648f63eb009a423a2b5602cfa4f9bff51f698af62c65280e4949bceec64b760f3b7738217cbc536cdfc4c9463676b05c2a75205b8583660bdad375c0ccde11af17668d76a408a9a5e739251b0f7c59870a2646970667358221220788d714ef570f4a27cb7ff9c9f0f492887aededb5da8885be6396a3ed46ecf0b64736f6c63430008130033a75205b8583660bdad375c0ccde11af17668d76a408a9a5e739251b0f7c59870",
  "linkReferences": {},
  "deployedLinkReferences": {}
}