{
  "_format": "hh-sol-artifact-1",
  "contractName": "EnumerableSetUintMock",
  "sourceName": "contracts/data/EnumerableSetUintMock.sol",
  "abi": [
    {
      "inputs": [],
      "name": "EnumerableSet__IndexOutOfBounds",
      "type": "error"
    },
    {
      "inputs": [
        {
          "internalType": "uint256",
          "name": "value",
          "type": "uint256"
        }
      ],
      "name": "add",
      "outputs": [
        {
          "internalType": "bool",
          "name": "",
          "type": "bool"
        }
      ],
      "stateMutability": "nonpayable",
      "type": "function"
    },
    {
      "inputs": [
        {
          "internalType": "uint256",
          "name": "index",
          "type": "uint256"
        }
      ],
      "name": "at",
      "outputs": [
        {
          "internalType": "uint256",
          "name": "",
          "type": "uint256"
        }
      ],
      "stateMutability": "view",
      "type": "function"
    },
    {
      "inputs": [
        {
          "internalType": "uint256",
          "name": "value",
          "type": "uint256"
        }
      ],
      "name": "contains",
      "outputs": [
        {
          "internalType": "bool",
          "name": "",
          "type": "bool"
        }
      ],
      "stateMutability": "view",
      "type": "function"
    },
    {
      "inputs": [
        {
          "internalType": "uint256",
          "name": "value",
          "type": "uint256"
        }
      ],
      "name": "indexOf",
      "outputs": [
        {
          "internalType": "uint256",
          "name": "",
          "type": "uint256"
        }
      ],
      "stateMutability": "view",
      "type": "function"
    },
    {
      "inputs": [],
      "name": "length",
      "outputs": [
        {
          "internalType": "uint256",
          "name": "",
          "type": "uint256"
        }
      ],
      "stateMutability": "view",
      "type": "function"
    },
    {
      "inputs": [
        {
          "internalType": "uint256",
          "name": "value",
          "type": "uint256"
        }
      ],
      "name": "remove",
      "outputs": [
        {
          "internalType": "bool",
          "name": "",
          "type": "bool"
        }
      ],
      "stateMutability": "nonpayable",
      "type": "function"
    },
    {
      "inputs": [],
      "name": "toArray",
      "outputs": [
        {
          "internalType": "uint256[]",
          "name": "",
          "type": "uint256[]"
        }
      ],
      "stateMutability": "view",
      "type": "function"
    }
  ],
  "bytecode": "0x608060405234801561000f575f80fd5b506104408061001d5f395ff3fe608060405234801561000f575f80fd5b506004361061007a575f3560e01c8063908ff30311610058578063908ff303146100cf57806391ac7e65146100e4578063c34052e0146100f7578063e0886f901461010a575f80fd5b80631003e2d21461007e5780631f7b6d32146100a65780634cc82215146100bc575b5f80fd5b61009161008c366004610388565b61011d565b60405190151581526020015b60405180910390f35b6100ae61012e565b60405190815260200161009d565b6100916100ca366004610388565b61013d565b6100d7610148565b60405161009d919061039f565b6100ae6100f2366004610388565b610153565b610091610105366004610388565b61015e565b6100ae610118366004610388565b610169565b5f6101288183610174565b92915050565b5f6101385f610186565b905090565b5f610128818361018f565b60606101385f61019a565b5f61012881836101f4565b5f610128818361020c565b5f6101288183610223565b5f61017f838361022e565b9392505050565b5f610128825490565b5f61017f838361026f565b805460408051602080840282018101909252828152606092849283929183918301828280156101e657602002820191905f5260205f20905b8154815260200190600101908083116101d2575b505050505092505050919050565b5f8181526001830160205260408120545f190161017f565b5f818152600183016020526040812054151561017f565b5f61017f8383610327565b5f81815260018301602052604081205461012857508154600180820184555f8481526020808220909301849055845493815293810190915260409092205590565b5f81815260018301602052604081205480156103205783545f9085905f19810190811061029e5761029e6103e2565b905f5260205f200154905080855f0160018403815481106102c1576102c16103e2565b5f9182526020808320909101929092559182526001860190526040902081905583548490806102f2576102f26103f6565b600190038181905f5260205f20015f90559055836001015f8481526020019081526020015f205f9055600191505b5092915050565b81545f908210610363576040517fe637bf3b00000000000000000000000000000000000000000000000000000000815260040160405180910390fd5b825f018281548110610377576103776103e2565b905f5260205f200154905092915050565b5f60208284031215610398575f80fd5b5035919050565b602080825282518282018190525f9190848201906040850190845b818110156103d6578351835292840192918401916001016103ba565b50909695505050505050565b634e487b7160e01b5f52603260045260245ffd5b634e487b7160e01b5f52603160045260245ffdfea264697066735822122036791b71d8cc514743ffa216ca531d866f2c37e1f23012ca63789748f3c0c6ca64736f6c63430008140033",
  "linkReferences": {},
  "deployedLinkReferences": {}
}