{
  "_format": "hh-sol-artifact-1",
  "contractName": "RegisterRoleManagement",
  "sourceName": "contracts/register/role/RegisterRoleManagement.sol",
  "abi": [
    {
      "inputs": [],
      "name": "EnumerableSet__IndexOutOfBounds",
      "type": "error"
    },
    {
      "anonymous": false,
      "inputs": [
        {
          "indexed": true,
          "internalType": "address",
          "name": "_addressForNewAdmin",
          "type": "address"
        }
      ],
      "name": "AdminChanged",
      "type": "event"
    },
    {
      "anonymous": false,
      "inputs": [
        {
          "indexed": false,
          "internalType": "uint64",
          "name": "version",
          "type": "uint64"
        }
      ],
      "name": "Initialized",
      "type": "event"
    },
    {
      "anonymous": false,
      "inputs": [
        {
          "indexed": true,
          "internalType": "bytes32",
          "name": "role",
          "type": "bytes32"
        },
        {
          "indexed": true,
          "internalType": "bytes32",
          "name": "previousAdminRole",
          "type": "bytes32"
        },
        {
          "indexed": true,
          "internalType": "bytes32",
          "name": "newAdminRole",
          "type": "bytes32"
        }
      ],
      "name": "RoleAdminChanged",
      "type": "event"
    },
    {
      "anonymous": false,
      "inputs": [
        {
          "indexed": true,
          "internalType": "bytes32",
          "name": "role",
          "type": "bytes32"
        },
        {
          "indexed": true,
          "internalType": "address",
          "name": "account",
          "type": "address"
        },
        {
          "indexed": true,
          "internalType": "address",
          "name": "sender",
          "type": "address"
        }
      ],
      "name": "RoleGranted",
      "type": "event"
    },
    {
      "anonymous": false,
      "inputs": [
        {
          "indexed": true,
          "internalType": "bytes32",
          "name": "role",
          "type": "bytes32"
        },
        {
          "indexed": true,
          "internalType": "address",
          "name": "account",
          "type": "address"
        },
        {
          "indexed": true,
          "internalType": "address",
          "name": "sender",
          "type": "address"
        }
      ],
      "name": "RoleRevoked",
      "type": "event"
    },
    {
      "inputs": [],
      "name": "BND_ROLE",
      "outputs": [
        {
          "internalType": "bytes32",
          "name": "",
          "type": "bytes32"
        }
      ],
      "stateMutability": "view",
      "type": "function"
    },
    {
      "inputs": [],
      "name": "CAK_ROLE",
      "outputs": [
        {
          "internalType": "bytes32",
          "name": "",
          "type": "bytes32"
        }
      ],
      "stateMutability": "view",
      "type": "function"
    },
    {
      "inputs": [],
      "name": "CST_ROLE",
      "outputs": [
        {
          "internalType": "bytes32",
          "name": "",
          "type": "bytes32"
        }
      ],
      "stateMutability": "view",
      "type": "function"
    },
    {
      "inputs": [],
      "name": "PAY_ROLE",
      "outputs": [
        {
          "internalType": "bytes32",
          "name": "",
          "type": "bytes32"
        }
      ],
      "stateMutability": "view",
      "type": "function"
    },
    {
      "inputs": [],
      "name": "addressForNewAdmin",
      "outputs": [
        {
          "internalType": "address",
          "name": "",
          "type": "address"
        }
      ],
      "stateMutability": "view",
      "type": "function"
    },
    {
      "inputs": [
        {
          "internalType": "address",
          "name": "account",
          "type": "address"
        }
      ],
      "name": "changeAdminRole",
      "outputs": [],
      "stateMutability": "nonpayable",
      "type": "function"
    },
    {
      "inputs": [],
      "name": "firstVoterForNewAdmin",
      "outputs": [
        {
          "internalType": "address",
          "name": "",
          "type": "address"
        }
      ],
      "stateMutability": "view",
      "type": "function"
    },
    {
      "inputs": [
        {
          "internalType": "bytes32",
          "name": "role",
          "type": "bytes32"
        }
      ],
      "name": "getRoleAdmin",
      "outputs": [
        {
          "internalType": "bytes32",
          "name": "",
          "type": "bytes32"
        }
      ],
      "stateMutability": "view",
      "type": "function"
    },
    {
      "inputs": [
        {
          "internalType": "bytes32",
          "name": "role",
          "type": "bytes32"
        },
        {
          "internalType": "uint256",
          "name": "index",
          "type": "uint256"
        }
      ],
      "name": "getRoleMember",
      "outputs": [
        {
          "internalType": "address",
          "name": "",
          "type": "address"
        }
      ],
      "stateMutability": "view",
      "type": "function"
    },
    {
      "inputs": [
        {
          "internalType": "bytes32",
          "name": "role",
          "type": "bytes32"
        }
      ],
      "name": "getRoleMemberCount",
      "outputs": [
        {
          "internalType": "uint256",
          "name": "",
          "type": "uint256"
        }
      ],
      "stateMutability": "view",
      "type": "function"
    },
    {
      "inputs": [
        {
          "internalType": "address",
          "name": "bndAddress_",
          "type": "address"
        }
      ],
      "name": "grantBndRole",
      "outputs": [],
      "stateMutability": "nonpayable",
      "type": "function"
    },
    {
      "inputs": [
        {
          "internalType": "address",
          "name": "cakAddress_",
          "type": "address"
        }
      ],
      "name": "grantCakRole",
      "outputs": [],
      "stateMutability": "nonpayable",
      "type": "function"
    },
    {
      "inputs": [
        {
          "internalType": "address",
          "name": "cstAddress_",
          "type": "address"
        }
      ],
      "name": "grantCstRole",
      "outputs": [],
      "stateMutability": "nonpayable",
      "type": "function"
    },
    {
      "inputs": [
        {
          "internalType": "address",
          "name": "payAddress_",
          "type": "address"
        }
      ],
      "name": "grantPayRole",
      "outputs": [],
      "stateMutability": "nonpayable",
      "type": "function"
    },
    {
      "inputs": [
        {
          "internalType": "bytes32",
          "name": "role",
          "type": "bytes32"
        },
        {
          "internalType": "address",
          "name": "account",
          "type": "address"
        }
      ],
      "name": "grantRole",
      "outputs": [],
      "stateMutability": "nonpayable",
      "type": "function"
    },
    {
      "inputs": [
        {
          "internalType": "bytes32",
          "name": "role",
          "type": "bytes32"
        },
        {
          "internalType": "address",
          "name": "account",
          "type": "address"
        }
      ],
      "name": "hasRole",
      "outputs": [
        {
          "internalType": "bool",
          "name": "",
          "type": "bool"
        }
      ],
      "stateMutability": "view",
      "type": "function"
    },
    {
      "inputs": [
        {
          "internalType": "address",
          "name": "account",
          "type": "address"
        }
      ],
      "name": "isBnD",
      "outputs": [
        {
          "internalType": "bool",
          "name": "",
          "type": "bool"
        }
      ],
      "stateMutability": "view",
      "type": "function"
    },
    {
      "inputs": [
        {
          "internalType": "address",
          "name": "account",
          "type": "address"
        }
      ],
      "name": "isCAK",
      "outputs": [
        {
          "internalType": "bool",
          "name": "",
          "type": "bool"
        }
      ],
      "stateMutability": "view",
      "type": "function"
    },
    {
      "inputs": [
        {
          "internalType": "address",
          "name": "account",
          "type": "address"
        }
      ],
      "name": "isCustodian",
      "outputs": [
        {
          "internalType": "bool",
          "name": "",
          "type": "bool"
        }
      ],
      "stateMutability": "view",
      "type": "function"
    },
    {
      "inputs": [
        {
          "internalType": "address",
          "name": "account",
          "type": "address"
        }
      ],
      "name": "isPay",
      "outputs": [
        {
          "internalType": "bool",
          "name": "",
          "type": "bool"
        }
      ],
      "stateMutability": "view",
      "type": "function"
    },
    {
      "inputs": [],
      "name": "registerAdmin",
      "outputs": [
        {
          "internalType": "address",
          "name": "",
          "type": "address"
        }
      ],
      "stateMutability": "view",
      "type": "function"
    },
    {
      "inputs": [
        {
          "internalType": "bytes32",
          "name": "role",
          "type": "bytes32"
        }
      ],
      "name": "renounceRole",
      "outputs": [],
      "stateMutability": "nonpayable",
      "type": "function"
    },
    {
      "inputs": [
        {
          "internalType": "address",
          "name": "bndAddress_",
          "type": "address"
        }
      ],
      "name": "revokeBndRole",
      "outputs": [],
      "stateMutability": "nonpayable",
      "type": "function"
    },
    {
      "inputs": [
        {
          "internalType": "address",
          "name": "cakAddress_",
          "type": "address"
        }
      ],
      "name": "revokeCakRole",
      "outputs": [],
      "stateMutability": "nonpayable",
      "type": "function"
    },
    {
      "inputs": [
        {
          "internalType": "address",
          "name": "cstAddress_",
          "type": "address"
        }
      ],
      "name": "revokeCstRole",
      "outputs": [],
      "stateMutability": "nonpayable",
      "type": "function"
    },
    {
      "inputs": [
        {
          "internalType": "address",
          "name": "payAddress_",
          "type": "address"
        }
      ],
      "name": "revokePayRole",
      "outputs": [],
      "stateMutability": "nonpayable",
      "type": "function"
    },
    {
      "inputs": [
        {
          "internalType": "bytes32",
          "name": "role",
          "type": "bytes32"
        },
        {
          "internalType": "address",
          "name": "account",
          "type": "address"
        }
      ],
      "name": "revokeRole",
      "outputs": [],
      "stateMutability": "nonpayable",
      "type": "function"
    },
    {
      "inputs": [],
      "name": "votesForNewAdmin",
      "outputs": [
        {
          "internalType": "uint8",
          "name": "",
          "type": "uint8"
        }
      ],
      "stateMutability": "view",
      "type": "function"
    }
  ],
  "bytecode": "0x608060405234801561000f575f80fd5b5061136d8061001d5f395ff3fe608060405234801561000f575f80fd5b50600436106101ba575f3560e01c80638e1305de116100f3578063c1f4250b11610093578063d547741f1161006e578063d547741f1461041d578063e3965d5414610430578063f60d9ea114610443578063f690c6c514610456575f80fd5b8063c1f4250b146103e4578063ca15c873146103f7578063cc80473c1461040a575f80fd5b8063a28f78f8116100ce578063a28f78f814610378578063a55234b81461038b578063a5ce24721461039e578063aa39403d146103a6575f80fd5b80638e1305de1461033f5780639010d07c1461035257806391d1485414610365575f80fd5b80632f2ff15d1161015e5780634361f92a116101395780634361f92a146102ea5780635ab6f71b146102fd5780638865f1e2146103055780638bb9c5bf1461032c575f80fd5b80632f2ff15d1461028d57806335c80c8c146102a05780633bf2a9f4146102c3575f80fd5b80631c67a363116101995780631c67a3631461020b578063222ca34014610240578063248a9ca3146102535780632682ac9114610266575f80fd5b8062a9303d146101be57806304b8c471146101d357806306cb3750146101e6575b5f80fd5b6101d16101cc366004611295565b610469565b005b6101d16101e1366004611295565b610475565b6101ee61047e565b6040516001600160a01b0390911681526020015b60405180910390f35b6102327f6ba6f588bcdc2df8426603a466c98ab15e79f7fb7f37b53581ce39c1d01b724981565b604051908152602001610202565b6101d161024e366004611295565b6104b5565b6102326102613660046112ae565b6104be565b6102327ff698af62c65280e4949bceec64b760f3b7738217cbc536cdfc4c9463676b05c281565b6101d161029b3660046112c5565b6104f5565b6102b36102ae366004611295565b610503565b6040519015158152602001610202565b6102327fd7aa2ddfa4e381128202bf365b7e0a176f2fca6cdf2f23c2b0a6f4393769589081565b6102b36102f8366004611295565b61050d565b6101ee610517565b6102327fa75205b8583660bdad375c0ccde11af17668d76a408a9a5e739251b0f7c5987081565b6101d161033a3660046112ae565b610549565b6101d161034d366004611295565b610552565b6101ee6103603660046112ef565b61055b565b6102b36103733660046112c5565b61056d565b6101d1610386366004611295565b610578565b6102b3610399366004611295565b610581565b6101ee61058b565b7fe40b5d020f846aaa1a692b46598f2e6c6d0a32cf717c27c286e348cc2a7d305054600160a01b900460ff1660405160ff9091168152602001610202565b6101d16103f2366004611295565b6105bd565b6102326104053660046112ae565b6105c6565b6101d1610418366004611295565b6105d0565b6101d161042b3660046112c5565b6105d9565b6102b361043e366004611295565b6105e3565b6101d1610451366004611295565b6105ed565b6101d1610464366004611295565b6105f6565b610472816105ff565b50565b61047281610629565b5f6104b07fe40b5d020f846aaa1a692b46598f2e6c6d0a32cf717c27c286e348cc2a7d3050546001600160a01b031690565b905090565b61047281610a0b565b5f8181527f2e59e4c2e927cdddbb64e181e0668d9a0fa70dd88f94d999cd87d5496a20da6260205260408120600201545b92915050565b6104ff8282610a35565b5050565b5f6104ef82610be6565b5f6104ef82610c11565b5f6104b07fe40b5d020f846aaa1a692b46598f2e6c6d0a32cf717c27c286e348cc2a7d304e546001600160a01b031690565b61047281610c3c565b61047281610c46565b5f6105668383610c70565b9392505050565b5f6105668383610ca6565b61047281610cdc565b5f6104ef82610d06565b5f6104b07fe40b5d020f846aaa1a692b46598f2e6c6d0a32cf717c27c286e348cc2a7d304f546001600160a01b031690565b61047281610d31565b5f6104ef82610d5b565b61047281610d90565b6104ff8282610dba565b5f6104ef82610f60565b61047281610f8b565b61047281610fb5565b6104727fd7aa2ddfa4e381128202bf365b7e0a176f2fca6cdf2f23c2b0a6f4393769589082610a35565b7fe40b5d020f846aaa1a692b46598f2e6c6d0a32cf717c27c286e348cc2a7d304e6106747fa75205b8583660bdad375c0ccde11af17668d76a408a9a5e739251b0f7c5987033610ca6565b6106c55760405162461bcd60e51b815260206004820152601260248201527f43616c6c6572206d7573742062652043414b000000000000000000000000000060448201526064015b60405180910390fd5b80546001600160a01b03908116908316036107475760405162461bcd60e51b8152602060048201526024808201527f4e65772061646d696e206973207468652073616d652061732063757272656e7460448201527f206f6e650000000000000000000000000000000000000000000000000000000060648201526084016106bc565b6001600160a01b03821615801561076c57506002810154600160a01b900460ff166001145b156107c15760028101805474ffffffffffffffffffffffffffffffffffffffffff19169055600101805473ffffffffffffffffffffffffffffffffffffffff19166001600160a01b0392909216919091179055565b6001600160a01b03821661083d5760405162461bcd60e51b815260206004820152603160248201527f5468652070726f706f736564206e65772061646d696e2063616e6e6f7420626560448201527f20746865207a65726f206164647265737300000000000000000000000000000060648201526084016106bc565b6002810154600160a01b900460ff165f036108cb576002810180547fffffffffffffffffffffff00ffffffffffffffffffffffffffffffffffffffff16600160a01b1790556108893390565b60028201805473ffffffffffffffffffffffffffffffffffffffff199081166001600160a01b0393841617909155600190920180549092169216919091179055565b6002810154600160a01b900460ff166001036104ff5760018101546001600160a01b038381169116146108fe5733610889565b6002810154336001600160a01b039091160361095c5760405162461bcd60e51b815260206004820152601a60248201527f546869732043414b2068617320616c726561647920766f74656400000000000060448201526064016106bc565b8054610972905f906001600160a01b0316610fdf565b600181015461098b905f906001600160a01b03166104f5565b60018101805482546001600160a01b03821673ffffffffffffffffffffffffffffffffffffffff199182168117855560028501805474ffffffffffffffffffffffffffffffffffffffffff1916905591169091556040517f7ce7ec0b50378fb6c0186ffb5f48325f6593fcb4ca4386f21861af3129188f5c905f90a25050565b6104727f6ba6f588bcdc2df8426603a466c98ab15e79f7fb7f37b53581ce39c1d01b724982610dba565b81610a935760405162461bcd60e51b8152602060048201526024808201527f5573652066756e6374696f6e206368616e676541646d696e526f6c6520696e736044820152631d19585960e21b60648201526084016106bc565b610bdc565b7fa75205b8583660bdad375c0ccde11af17668d76a408a9a5e739251b0f7c598708203610b6657610ae47fa75205b8583660bdad375c0ccde11af17668d76a408a9a5e739251b0f7c5987033610ca6565b80610af45750610af45f33610ca6565b610a8e5760405162461bcd60e51b815260206004820152602e60248201527f43616c6c6572206d7573742062652043414b206f722041444d494e20746f207360448201527f657420616e6f746865722043414b00000000000000000000000000000000000060648201526084016106bc565b610b907fa75205b8583660bdad375c0ccde11af17668d76a408a9a5e739251b0f7c5987033610ca6565b610bdc5760405162461bcd60e51b815260206004820181905260248201527f43616c6c6572206d7573742062652043414b20746f20736574206120726f6c6560448201526064016106bc565b6104ff8282611051565b5f6104ef7f6ba6f588bcdc2df8426603a466c98ab15e79f7fb7f37b53581ce39c1d01b724983610ca6565b5f6104ef7fa75205b8583660bdad375c0ccde11af17668d76a408a9a5e739251b0f7c5987083610ca6565b6104728133610dba565b6104727fa75205b8583660bdad375c0ccde11af17668d76a408a9a5e739251b0f7c5987082610dba565b5f8281527f2e59e4c2e927cdddbb64e181e0668d9a0fa70dd88f94d999cd87d5496a20da626020526040812061056690836110c3565b5f8281527f2e59e4c2e927cdddbb64e181e0668d9a0fa70dd88f94d999cd87d5496a20da626020526040812061056690836110ce565b6104727fa75205b8583660bdad375c0ccde11af17668d76a408a9a5e739251b0f7c5987082610a35565b5f6104ef7ff698af62c65280e4949bceec64b760f3b7738217cbc536cdfc4c9463676b05c283610ca6565b6104727ff698af62c65280e4949bceec64b760f3b7738217cbc536cdfc4c9463676b05c282610dba565b5f8181527f2e59e4c2e927cdddbb64e181e0668d9a0fa70dd88f94d999cd87d5496a20da62602052604081206104ef906110ef565b6104727ff698af62c65280e4949bceec64b760f3b7738217cbc536cdfc4c9463676b05c282610a35565b81610e135760405162461bcd60e51b8152602060048201526024808201527f5573652066756e6374696f6e206368616e676541646d696e526f6c6520696e736044820152631d19585960e21b60648201526084016106bc565b7fa75205b8583660bdad375c0ccde11af17668d76a408a9a5e739251b0f7c598708203610eba57610e445f33610ca6565b610eb55760405162461bcd60e51b8152602060048201526024808201527f43616c6c6572206d7573742062652041444d494e20746f2072656d6f7665206160448201527f2043414b0000000000000000000000000000000000000000000000000000000060648201526084016106bc565b610f56565b610ee47fa75205b8583660bdad375c0ccde11af17668d76a408a9a5e739251b0f7c5987033610ca6565b610f565760405162461bcd60e51b815260206004820152602360248201527f43616c6c6572206d7573742062652043414b20746f2072656d6f76652061207260448201527f6f6c65000000000000000000000000000000000000000000000000000000000060648201526084016106bc565b6104ff8282610fdf565b5f6104ef7fd7aa2ddfa4e381128202bf365b7e0a176f2fca6cdf2f23c2b0a6f4393769589083610ca6565b6104727fd7aa2ddfa4e381128202bf365b7e0a176f2fca6cdf2f23c2b0a6f4393769589082610dba565b6104727f6ba6f588bcdc2df8426603a466c98ab15e79f7fb7f37b53581ce39c1d01b724982610a35565b5f8281527f2e59e4c2e927cdddbb64e181e0668d9a0fa70dd88f94d999cd87d5496a20da626020526040902061101590826110f8565b5060405133906001600160a01b0383169084907ff6391f5c32d9c69d2a47ea670b442974b53935d1edc7fd64eb21e047a839171b905f90a45050565b5f8281527f2e59e4c2e927cdddbb64e181e0668d9a0fa70dd88f94d999cd87d5496a20da6260205260409020611087908261110c565b5060405133906001600160a01b0383169084907f2f8788117e7eff1d82e926ec794901d17c78024a50270940304540a733656f0d905f90a45050565b5f6105668383611120565b6001600160a01b0381165f9081526001830160205260408120541515610566565b5f6104ef825490565b5f610566836001600160a01b038416611181565b5f610566836001600160a01b038416611239565b81545f90821061115c576040517fe637bf3b00000000000000000000000000000000000000000000000000000000815260040160405180910390fd5b825f0182815481106111705761117061130f565b905f5260205f200154905092915050565b5f81815260018301602052604081205480156112325783545f9085905f1981019081106111b0576111b061130f565b905f5260205f200154905080855f0160018403815481106111d3576111d361130f565b5f91825260208083209091019290925591825260018601905260409020819055835484908061120457611204611323565b600190038181905f5260205f20015f90559055836001015f8481526020019081526020015f205f9055600191505b5092915050565b5f8181526001830160205260408120546104ef57508154600180820184555f8481526020808220909301849055845493815293810190915260409092205590565b80356001600160a01b0381168114611290575f80fd5b919050565b5f602082840312156112a5575f80fd5b6105668261127a565b5f602082840312156112be575f80fd5b5035919050565b5f80604083850312156112d6575f80fd5b823591506112e66020840161127a565b90509250929050565b5f8060408385031215611300575f80fd5b50508035926020909101359150565b634e487b7160e01b5f52603260045260245ffd5b634e487b7160e01b5f52603160045260245ffdfea2646970667358221220737ca7f22911c16b925c3069d1d4e41a09c6766270922e9367738c5410b9ba5d64736f6c63430008140033",
  "linkReferences": {},
  "deployedLinkReferences": {}
}