{
  "_format": "hh-sol-artifact-1",
  "contractName": "RegisterMetadataStorage",
  "sourceName": "contracts/register/metadata/RegisterMetadataStorage.sol",
  "abi": [
    {
      "inputs": [],
      "name": "BND_ROLE",
      "outputs": [
        {
          "internalType": "bytes32",
          "name": "",
          "type": "bytes32"
        }
      ],
      "stateMutability": "view",
      "type": "function"
    },
    {
      "inputs": [],
      "name": "CAK_ROLE",
      "outputs": [
        {
          "internalType": "bytes32",
          "name": "",
          "type": "bytes32"
        }
      ],
      "stateMutability": "view",
      "type": "function"
    },
    {
      "inputs": [],
      "name": "CST_ROLE",
      "outputs": [
        {
          "internalType": "bytes32",
          "name": "",
          "type": "bytes32"
        }
      ],
      "stateMutability": "view",
      "type": "function"
    },
    {
      "inputs": [],
      "name": "PAY_ROLE",
      "outputs": [
        {
          "internalType": "bytes32",
          "name": "",
          "type": "bytes32"
        }
      ],
      "stateMutability": "view",
      "type": "function"
    }
  ],
  "bytecode": "0x61013d610035600b8282823980515f1a60731461002957634e487b7160e01b5f525f60045260245ffd5b305f52607381538281f3fe7300000000000000000000000000000000000000003014608060405260043610610055575f3560e01c80631c67a363146100595780632682ac91146100925780633bf2a9f4146100b95780638865f1e2146100e0575b5f80fd5b6100807f6ba6f588bcdc2df8426603a466c98ab15e79f7fb7f37b53581ce39c1d01b724981565b60405190815260200160405180910390f35b6100807ff698af62c65280e4949bceec64b760f3b7738217cbc536cdfc4c9463676b05c281565b6100807fd7aa2ddfa4e381128202bf365b7e0a176f2fca6cdf2f23c2b0a6f4393769589081565b6100807fa75205b8583660bdad375c0ccde11af17668d76a408a9a5e739251b0f7c598708156fea2646970667358221220a80f5b5dac227dd1c1a77e2130d4c9ccfc9b6d2495c361add2338725226bbcae64736f6c63430008140033",
  "linkReferences": {},
  "deployedLinkReferences": {}
}