{
  "_format": "hh-sol-artifact-1",
  "contractName": "UintUtilsMock",
  "sourceName": "contracts/utils/UintUtilsMock.sol",
  "abi": [
    {
      "inputs": [],
      "name": "UintUtils__InsufficientHexLength",
      "type": "error"
    },
    {
      "inputs": [
        {
          "internalType": "uint256",
          "name": "a",
          "type": "uint256"
        },
        {
          "internalType": "int256",
          "name": "b",
          "type": "int256"
        }
      ],
      "name": "add",
      "outputs": [
        {
          "internalType": "uint256",
          "name": "",
          "type": "uint256"
        }
      ],
      "stateMutability": "pure",
      "type": "function"
    },
    {
      "inputs": [
        {
          "internalType": "uint256",
          "name": "a",
          "type": "uint256"
        },
        {
          "internalType": "int256",
          "name": "b",
          "type": "int256"
        }
      ],
      "name": "sub",
      "outputs": [
        {
          "internalType": "uint256",
          "name": "",
          "type": "uint256"
        }
      ],
      "stateMutability": "pure",
      "type": "function"
    },
    {
      "inputs": [
        {
          "internalType": "uint256",
          "name": "value",
          "type": "uint256"
        },
        {
          "internalType": "uint256",
          "name": "length",
          "type": "uint256"
        }
      ],
      "name": "toHexString",
      "outputs": [
        {
          "internalType": "string",
          "name": "",
          "type": "string"
        }
      ],
      "stateMutability": "pure",
      "type": "function"
    },
    {
      "inputs": [
        {
          "internalType": "uint256",
          "name": "value",
          "type": "uint256"
        }
      ],
      "name": "toHexString",
      "outputs": [
        {
          "internalType": "string",
          "name": "",
          "type": "string"
        }
      ],
      "stateMutability": "pure",
      "type": "function"
    },
    {
      "inputs": [
        {
          "internalType": "uint256",
          "name": "number",
          "type": "uint256"
        }
      ],
      "name": "toString",
      "outputs": [
        {
          "internalType": "string",
          "name": "",
          "type": "string"
        }
      ],
      "stateMutability": "pure",
      "type": "function"
    }
  ],
  "bytecode": "0x608060405234801561000f575f80fd5b5061062d8061001d5f395ff3fe608060405234801561000f575f80fd5b5060043610610064575f3560e01c80636900a3ae1161004d5780636900a3ae146100ae578063784cfccd146100c15780638fba8d5c146100d4575f80fd5b80632835a36d1461006857806363e1cbea1461008e575b5f80fd5b61007b610076366004610474565b6100e7565b6040519081526020015b60405180910390f35b6100a161009c366004610474565b6100fb565b6040516100859190610494565b6100a16100bc3660046104df565b610107565b61007b6100cf366004610474565b610112565b6100a16100e23660046104df565b61011d565b5f6100f28383610128565b90505b92915050565b60606100f28383610151565b60606100f5826102e0565b5f6100f283836103e5565b60606100f582610409565b5f80821261013f5761013a828461050a565b6100f2565b6100f28361014c8461051d565b6103e5565b60605f61015f836002610553565b61016a90600261050a565b67ffffffffffffffff8111156101825761018261056a565b6040519080825280601f01601f1916602001820160405280156101ac576020820181803683370190505b509050600360fc1b815f815181106101c6576101c661057e565b60200101906001600160f81b03191690815f1a9053507f7800000000000000000000000000000000000000000000000000000000000000816001815181106102105761021061057e565b60200101906001600160f81b03191690815f1a905350600160028402015b60018111156102a7577f303132333435363738396162636465660000000000000000000000000000000085600f166010811061026c5761026c61057e565b1a60f81b8282815181106102825761028261057e565b60200101906001600160f81b03191690815f1a90535060049490941c935f190161022e565b5083156100f2576040517fc913478500000000000000000000000000000000000000000000000000000000815260040160405180910390fd5b6060815f036103065750506040805180820190915260018152600360fc1b602082015290565b815f5b811561032f578061031981610592565b91506103289050600a836105be565b9150610309565b5f8167ffffffffffffffff8111156103495761034961056a565b6040519080825280601f01601f191660200182016040528015610373576020820181803683370190505b5090505b84156103dd576103886001836105d1565b9150610395600a866105e4565b6103a090603061050a565b60f81b8183815181106103b5576103b561057e565b60200101906001600160f81b03191690815f1a9053506103d6600a866105be565b9450610377565b949350505050565b5f8082126103f75761013a82846105d1565b6100f2836104048461051d565b610128565b6060815f0361044b57505060408051808201909152600481527f3078303000000000000000000000000000000000000000000000000000000000602082015290565b5f825b80156104625760019091019060081c61044e565b5061046d8382610151565b9392505050565b5f8060408385031215610485575f80fd5b50508035926020909101359150565b5f6020808352835180828501525f5b818110156104bf578581018301518582016040015282016104a3565b505f604082860101526040601f19601f8301168501019250505092915050565b5f602082840312156104ef575f80fd5b5035919050565b634e487b7160e01b5f52601160045260245ffd5b808201808211156100f5576100f56104f6565b5f7f8000000000000000000000000000000000000000000000000000000000000000820361054d5761054d6104f6565b505f0390565b80820281158282048414176100f5576100f56104f6565b634e487b7160e01b5f52604160045260245ffd5b634e487b7160e01b5f52603260045260245ffd5b5f600182016105a3576105a36104f6565b5060010190565b634e487b7160e01b5f52601260045260245ffd5b5f826105cc576105cc6105aa565b500490565b818103818111156100f5576100f56104f6565b5f826105f2576105f26105aa565b50069056fea2646970667358221220b0d6b3d7486fc5768ac1532840985f8b32b90606bda3e37a6dc464635946a56c64736f6c63430008140033",
  "linkReferences": {},
  "deployedLinkReferences": {}
}