{
  "_format": "hh-sol-artifact-1",
  "contractName": "Register",
  "sourceName": "src/Register.sol",
  "abi": [
    {
      "inputs": [
        {
          "internalType": "string",
          "name": "name_",
          "type": "string"
        },
        {
          "internalType": "string",
          "name": "isin_",
          "type": "string"
        },
        {
          "internalType": "uint256",
          "name": "expectedSupply_",
          "type": "uint256"
        },
        {
          "internalType": "bytes32",
          "name": "currency_",
          "type": "bytes32"
        },
        {
          "internalType": "uint256",
          "name": "unitVal_",
          "type": "uint256"
        },
        {
          "internalType": "uint256",
          "name": "couponRate_",
          "type": "uint256"
        },
        {
          "internalType": "uint256",
          "name": "creationDate_",
          "type": "uint256"
        },
        {
          "internalType": "uint256",
          "name": "issuanceDate_",
          "type": "uint256"
        },
        {
          "internalType": "uint256",
          "name": "maturityDate_",
          "type": "uint256"
        },
        {
          "internalType": "uint256[]",
          "name": "couponDates_",
          "type": "uint256[]"
        },
        {
          "internalType": "uint256",
          "name": "cutofftime_",
          "type": "uint256"
        }
      ],
      "stateMutability": "nonpayable",
      "type": "constructor"
    },
    {
      "anonymous": false,
      "inputs": [
        {
          "indexed": true,
          "internalType": "address",
          "name": "_addressForNewAdmin",
          "type": "address"
        }
      ],
      "name": "AdminChanged",
      "type": "event"
    },
    {
      "anonymous": false,
      "inputs": [
        {
          "indexed": true,
          "internalType": "address",
          "name": "owner",
          "type": "address"
        },
        {
          "indexed": true,
          "internalType": "address",
          "name": "spender",
          "type": "address"
        },
        {
          "indexed": false,
          "internalType": "uint256",
          "name": "value",
          "type": "uint256"
        }
      ],
      "name": "Approval",
      "type": "event"
    },
    {
      "anonymous": false,
      "inputs": [
        {
          "indexed": false,
          "internalType": "bytes32",
          "name": "contractHash",
          "type": "bytes32"
        }
      ],
      "name": "DisableContract",
      "type": "event"
    },
    {
      "anonymous": false,
      "inputs": [
        {
          "indexed": false,
          "internalType": "address",
          "name": "investor",
          "type": "address"
        }
      ],
      "name": "DisableInvestor",
      "type": "event"
    },
    {
      "anonymous": false,
      "inputs": [
        {
          "indexed": false,
          "internalType": "bytes32",
          "name": "contractHash",
          "type": "bytes32"
        }
      ],
      "name": "EnableContract",
      "type": "event"
    },
    {
      "anonymous": false,
      "inputs": [
        {
          "indexed": false,
          "internalType": "address",
          "name": "investor",
          "type": "address"
        }
      ],
      "name": "EnableInvestor",
      "type": "event"
    },
    {
      "anonymous": false,
      "inputs": [
        {
          "indexed": true,
          "internalType": "address",
          "name": "creator",
          "type": "address"
        },
        {
          "indexed": false,
          "internalType": "string",
          "name": "name",
          "type": "string"
        },
        {
          "indexed": false,
          "internalType": "string",
          "name": "isin",
          "type": "string"
        }
      ],
      "name": "NewBondDrafted",
      "type": "event"
    },
    {
      "anonymous": false,
      "inputs": [
        {
          "indexed": true,
          "internalType": "address",
          "name": "sender",
          "type": "address"
        },
        {
          "indexed": true,
          "internalType": "address",
          "name": "target",
          "type": "address"
        },
        {
          "indexed": false,
          "internalType": "string",
          "name": "message",
          "type": "string"
        }
      ],
      "name": "PublicMessage",
      "type": "event"
    },
    {
      "anonymous": false,
      "inputs": [
        {
          "indexed": true,
          "internalType": "address",
          "name": "emiter",
          "type": "address"
        },
        {
          "indexed": false,
          "internalType": "string",
          "name": "name",
          "type": "string"
        },
        {
          "indexed": false,
          "internalType": "string",
          "name": "isin",
          "type": "string"
        },
        {
          "indexed": false,
          "internalType": "enum IRegister.Status",
          "name": "status",
          "type": "uint8"
        }
      ],
      "name": "RegisterStatusChanged",
      "type": "event"
    },
    {
      "anonymous": false,
      "inputs": [
        {
          "indexed": true,
          "internalType": "bytes32",
          "name": "role",
          "type": "bytes32"
        },
        {
          "indexed": true,
          "internalType": "bytes32",
          "name": "previousAdminRole",
          "type": "bytes32"
        },
        {
          "indexed": true,
          "internalType": "bytes32",
          "name": "newAdminRole",
          "type": "bytes32"
        }
      ],
      "name": "RoleAdminChanged",
      "type": "event"
    },
    {
      "anonymous": false,
      "inputs": [
        {
          "indexed": true,
          "internalType": "bytes32",
          "name": "role",
          "type": "bytes32"
        },
        {
          "indexed": true,
          "internalType": "address",
          "name": "account",
          "type": "address"
        },
        {
          "indexed": true,
          "internalType": "address",
          "name": "sender",
          "type": "address"
        }
      ],
      "name": "RoleGranted",
      "type": "event"
    },
    {
      "anonymous": false,
      "inputs": [
        {
          "indexed": true,
          "internalType": "bytes32",
          "name": "role",
          "type": "bytes32"
        },
        {
          "indexed": true,
          "internalType": "address",
          "name": "account",
          "type": "address"
        },
        {
          "indexed": true,
          "internalType": "address",
          "name": "sender",
          "type": "address"
        }
      ],
      "name": "RoleRevoked",
      "type": "event"
    },
    {
      "anonymous": false,
      "inputs": [
        {
          "indexed": false,
          "internalType": "uint256",
          "name": "id",
          "type": "uint256"
        }
      ],
      "name": "Snapshot",
      "type": "event"
    },
    {
      "anonymous": false,
      "inputs": [
        {
          "indexed": true,
          "internalType": "uint256",
          "name": "couponDate",
          "type": "uint256"
        },
        {
          "indexed": true,
          "internalType": "uint256",
          "name": "currentTimestamp",
          "type": "uint256"
        },
        {
          "indexed": true,
          "internalType": "uint256",
          "name": "nextTimestamp",
          "type": "uint256"
        }
      ],
      "name": "SnapshotTimestampChange",
      "type": "event"
    },
    {
      "anonymous": false,
      "inputs": [
        {
          "indexed": true,
          "internalType": "address",
          "name": "from",
          "type": "address"
        },
        {
          "indexed": true,
          "internalType": "address",
          "name": "to",
          "type": "address"
        },
        {
          "indexed": false,
          "internalType": "uint256",
          "name": "value",
          "type": "uint256"
        }
      ],
      "name": "Transfer",
      "type": "event"
    },
    {
      "anonymous": false,
      "inputs": [
        {
          "indexed": true,
          "internalType": "address",
          "name": "toBeAdded",
          "type": "address"
        }
      ],
      "name": "WalletAddedToWhitelist",
      "type": "event"
    },
    {
      "anonymous": false,
      "inputs": [
        {
          "indexed": true,
          "internalType": "address",
          "name": "toBeDeleted",
          "type": "address"
        }
      ],
      "name": "WalletDeletedFromWhitelist",
      "type": "event"
    },
    {
      "inputs": [],
      "name": "BND_ROLE",
      "outputs": [
        {
          "internalType": "bytes32",
          "name": "",
          "type": "bytes32"
        }
      ],
      "stateMutability": "view",
      "type": "function"
    },
    {
      "inputs": [],
      "name": "CAK_ROLE",
      "outputs": [
        {
          "internalType": "bytes32",
          "name": "",
          "type": "bytes32"
        }
      ],
      "stateMutability": "view",
      "type": "function"
    },
    {
      "inputs": [],
      "name": "CST_ROLE",
      "outputs": [
        {
          "internalType": "bytes32",
          "name": "",
          "type": "bytes32"
        }
      ],
      "stateMutability": "view",
      "type": "function"
    },
    {
      "inputs": [],
      "name": "DEFAULT_ADMIN_ROLE",
      "outputs": [
        {
          "internalType": "bytes32",
          "name": "",
          "type": "bytes32"
        }
      ],
      "stateMutability": "view",
      "type": "function"
    },
    {
      "inputs": [],
      "name": "PAY_ROLE",
      "outputs": [
        {
          "internalType": "bytes32",
          "name": "",
          "type": "bytes32"
        }
      ],
      "stateMutability": "view",
      "type": "function"
    },
    {
      "inputs": [],
      "name": "_addressForNewAdmin",
      "outputs": [
        {
          "internalType": "address",
          "name": "",
          "type": "address"
        }
      ],
      "stateMutability": "view",
      "type": "function"
    },
    {
      "inputs": [
        {
          "internalType": "bytes32",
          "name": "",
          "type": "bytes32"
        }
      ],
      "name": "_contractsAllowed",
      "outputs": [
        {
          "internalType": "bool",
          "name": "",
          "type": "bool"
        }
      ],
      "stateMutability": "view",
      "type": "function"
    },
    {
      "inputs": [],
      "name": "_firstVoterForNewAdmin",
      "outputs": [
        {
          "internalType": "address",
          "name": "",
          "type": "address"
        }
      ],
      "stateMutability": "view",
      "type": "function"
    },
    {
      "inputs": [],
      "name": "_primaryIssuanceAccount",
      "outputs": [
        {
          "internalType": "address",
          "name": "",
          "type": "address"
        }
      ],
      "stateMutability": "view",
      "type": "function"
    },
    {
      "inputs": [],
      "name": "_votesForNewAdmin",
      "outputs": [
        {
          "internalType": "uint8",
          "name": "",
          "type": "uint8"
        }
      ],
      "stateMutability": "view",
      "type": "function"
    },
    {
      "inputs": [
        {
          "internalType": "uint256",
          "name": "date",
          "type": "uint256"
        }
      ],
      "name": "addCouponDate",
      "outputs": [],
      "stateMutability": "nonpayable",
      "type": "function"
    },
    {
      "inputs": [
        {
          "internalType": "address",
          "name": "owner",
          "type": "address"
        },
        {
          "internalType": "address",
          "name": "spender",
          "type": "address"
        }
      ],
      "name": "allowance",
      "outputs": [
        {
          "internalType": "uint256",
          "name": "",
          "type": "uint256"
        }
      ],
      "stateMutability": "view",
      "type": "function"
    },
    {
      "inputs": [
        {
          "internalType": "address",
          "name": "",
          "type": "address"
        },
        {
          "internalType": "uint256",
          "name": "",
          "type": "uint256"
        }
      ],
      "name": "approve",
      "outputs": [
        {
          "internalType": "bool",
          "name": "",
          "type": "bool"
        }
      ],
      "stateMutability": "nonpayable",
      "type": "function"
    },
    {
      "inputs": [
        {
          "internalType": "address",
          "name": "addr_",
          "type": "address"
        }
      ],
      "name": "atReturningHash",
      "outputs": [
        {
          "internalType": "bytes32",
          "name": "hash",
          "type": "bytes32"
        }
      ],
      "stateMutability": "view",
      "type": "function"
    },
    {
      "inputs": [
        {
          "internalType": "address",
          "name": "account",
          "type": "address"
        }
      ],
      "name": "balanceOf",
      "outputs": [
        {
          "internalType": "uint256",
          "name": "",
          "type": "uint256"
        }
      ],
      "stateMutability": "view",
      "type": "function"
    },
    {
      "inputs": [
        {
          "internalType": "address",
          "name": "account",
          "type": "address"
        },
        {
          "internalType": "uint256",
          "name": "snapshotId",
          "type": "uint256"
        }
      ],
      "name": "balanceOfAt",
      "outputs": [
        {
          "internalType": "uint256",
          "name": "",
          "type": "uint256"
        }
      ],
      "stateMutability": "view",
      "type": "function"
    },
    {
      "inputs": [
        {
          "internalType": "address",
          "name": "account",
          "type": "address"
        },
        {
          "internalType": "uint256",
          "name": "_couponDate",
          "type": "uint256"
        }
      ],
      "name": "balanceOfCoupon",
      "outputs": [
        {
          "internalType": "uint256",
          "name": "",
          "type": "uint256"
        }
      ],
      "stateMutability": "view",
      "type": "function"
    },
    {
      "inputs": [
        {
          "internalType": "uint256",
          "name": "amount_",
          "type": "uint256"
        }
      ],
      "name": "burn",
      "outputs": [],
      "stateMutability": "nonpayable",
      "type": "function"
    },
    {
      "inputs": [
        {
          "internalType": "address",
          "name": "account_",
          "type": "address"
        }
      ],
      "name": "changeAdminRole",
      "outputs": [],
      "stateMutability": "nonpayable",
      "type": "function"
    },
    {
      "inputs": [
        {
          "internalType": "uint256",
          "name": "_couponDate",
          "type": "uint256"
        }
      ],
      "name": "checkIfCouponDateExists",
      "outputs": [
        {
          "internalType": "bool",
          "name": "",
          "type": "bool"
        }
      ],
      "stateMutability": "view",
      "type": "function"
    },
    {
      "inputs": [
        {
          "internalType": "uint256",
          "name": "_maturityDate",
          "type": "uint256"
        }
      ],
      "name": "checkIfMaturityDateExists",
      "outputs": [
        {
          "internalType": "bool",
          "name": "",
          "type": "bool"
        }
      ],
      "stateMutability": "view",
      "type": "function"
    },
    {
      "inputs": [],
      "name": "currentCouponDate",
      "outputs": [
        {
          "internalType": "uint256",
          "name": "",
          "type": "uint256"
        }
      ],
      "stateMutability": "view",
      "type": "function"
    },
    {
      "inputs": [],
      "name": "currentSnapshotDatetime",
      "outputs": [
        {
          "internalType": "uint256",
          "name": "",
          "type": "uint256"
        }
      ],
      "stateMutability": "view",
      "type": "function"
    },
    {
      "inputs": [],
      "name": "decimals",
      "outputs": [
        {
          "internalType": "uint8",
          "name": "",
          "type": "uint8"
        }
      ],
      "stateMutability": "view",
      "type": "function"
    },
    {
      "inputs": [
        {
          "internalType": "address",
          "name": "",
          "type": "address"
        },
        {
          "internalType": "uint256",
          "name": "",
          "type": "uint256"
        }
      ],
      "name": "decreaseAllowance",
      "outputs": [
        {
          "internalType": "bool",
          "name": "",
          "type": "bool"
        }
      ],
      "stateMutability": "nonpayable",
      "type": "function"
    },
    {
      "inputs": [
        {
          "internalType": "uint256",
          "name": "date",
          "type": "uint256"
        }
      ],
      "name": "delCouponDate",
      "outputs": [],
      "stateMutability": "nonpayable",
      "type": "function"
    },
    {
      "inputs": [
        {
          "internalType": "bytes32",
          "name": "contractHash_",
          "type": "bytes32"
        }
      ],
      "name": "disableContractFromWhitelist",
      "outputs": [],
      "stateMutability": "nonpayable",
      "type": "function"
    },
    {
      "inputs": [
        {
          "internalType": "address",
          "name": "investor_",
          "type": "address"
        }
      ],
      "name": "disableInvestorFromWhitelist",
      "outputs": [],
      "stateMutability": "nonpayable",
      "type": "function"
    },
    {
      "inputs": [
        {
          "internalType": "bytes32",
          "name": "contractHash_",
          "type": "bytes32"
        }
      ],
      "name": "enableContractToWhitelist",
      "outputs": [],
      "stateMutability": "nonpayable",
      "type": "function"
    },
    {
      "inputs": [
        {
          "internalType": "address",
          "name": "investor_",
          "type": "address"
        }
      ],
      "name": "enableInvestorToWhitelist",
      "outputs": [],
      "stateMutability": "nonpayable",
      "type": "function"
    },
    {
      "inputs": [],
      "name": "getAllInvestors",
      "outputs": [
        {
          "internalType": "address[]",
          "name": "",
          "type": "address[]"
        }
      ],
      "stateMutability": "view",
      "type": "function"
    },
    {
      "inputs": [],
      "name": "getBondCouponRate",
      "outputs": [
        {
          "internalType": "uint256",
          "name": "",
          "type": "uint256"
        }
      ],
      "stateMutability": "view",
      "type": "function"
    },
    {
      "inputs": [],
      "name": "getBondData",
      "outputs": [
        {
          "components": [
            {
              "internalType": "string",
              "name": "name",
              "type": "string"
            },
            {
              "internalType": "string",
              "name": "isin",
              "type": "string"
            },
            {
              "internalType": "uint256",
              "name": "expectedSupply",
              "type": "uint256"
            },
            {
              "internalType": "bytes32",
              "name": "currency",
              "type": "bytes32"
            },
            {
              "internalType": "uint256",
              "name": "unitValue",
              "type": "uint256"
            },
            {
              "internalType": "uint256",
              "name": "couponRate",
              "type": "uint256"
            },
            {
              "internalType": "uint256",
              "name": "creationDate",
              "type": "uint256"
            },
            {
              "internalType": "uint256",
              "name": "issuanceDate",
              "type": "uint256"
            },
            {
              "internalType": "uint256",
              "name": "maturityDate",
              "type": "uint256"
            },
            {
              "internalType": "uint256[]",
              "name": "couponDates",
              "type": "uint256[]"
            },
            {
              "internalType": "uint256",
              "name": "cutOffTime",
              "type": "uint256"
            }
          ],
          "internalType": "struct IRegisterMetadata.BondData",
          "name": "",
          "type": "tuple"
        }
      ],
      "stateMutability": "view",
      "type": "function"
    },
    {
      "inputs": [],
      "name": "getBondUnitValue",
      "outputs": [
        {
          "internalType": "uint256",
          "name": "",
          "type": "uint256"
        }
      ],
      "stateMutability": "view",
      "type": "function"
    },
    {
      "inputs": [],
      "name": "getCreationDate",
      "outputs": [
        {
          "internalType": "uint256",
          "name": "",
          "type": "uint256"
        }
      ],
      "stateMutability": "view",
      "type": "function"
    },
    {
      "inputs": [
        {
          "internalType": "uint256",
          "name": "CouponDate",
          "type": "uint256"
        }
      ],
      "name": "getInvestorListAtCoupon",
      "outputs": [
        {
          "internalType": "address[]",
          "name": "",
          "type": "address[]"
        }
      ],
      "stateMutability": "view",
      "type": "function"
    },
    {
      "inputs": [],
      "name": "getIssuanceDate",
      "outputs": [
        {
          "internalType": "uint256",
          "name": "",
          "type": "uint256"
        }
      ],
      "stateMutability": "view",
      "type": "function"
    },
    {
      "inputs": [
        {
          "internalType": "bytes32",
          "name": "role",
          "type": "bytes32"
        }
      ],
      "name": "getRoleAdmin",
      "outputs": [
        {
          "internalType": "bytes32",
          "name": "",
          "type": "bytes32"
        }
      ],
      "stateMutability": "view",
      "type": "function"
    },
    {
      "inputs": [
        {
          "internalType": "bytes32",
          "name": "role",
          "type": "bytes32"
        },
        {
          "internalType": "uint256",
          "name": "index",
          "type": "uint256"
        }
      ],
      "name": "getRoleMember",
      "outputs": [
        {
          "internalType": "address",
          "name": "",
          "type": "address"
        }
      ],
      "stateMutability": "view",
      "type": "function"
    },
    {
      "inputs": [
        {
          "internalType": "bytes32",
          "name": "role",
          "type": "bytes32"
        }
      ],
      "name": "getRoleMemberCount",
      "outputs": [
        {
          "internalType": "uint256",
          "name": "",
          "type": "uint256"
        }
      ],
      "stateMutability": "view",
      "type": "function"
    },
    {
      "inputs": [
        {
          "internalType": "address",
          "name": "bndAddress_",
          "type": "address"
        }
      ],
      "name": "grantBndRole",
      "outputs": [],
      "stateMutability": "nonpayable",
      "type": "function"
    },
    {
      "inputs": [
        {
          "internalType": "address",
          "name": "cakAddress_",
          "type": "address"
        }
      ],
      "name": "grantCakRole",
      "outputs": [],
      "stateMutability": "nonpayable",
      "type": "function"
    },
    {
      "inputs": [
        {
          "internalType": "address",
          "name": "cstAddress_",
          "type": "address"
        }
      ],
      "name": "grantCstRole",
      "outputs": [],
      "stateMutability": "nonpayable",
      "type": "function"
    },
    {
      "inputs": [
        {
          "internalType": "address",
          "name": "payAddress_",
          "type": "address"
        }
      ],
      "name": "grantPayRole",
      "outputs": [],
      "stateMutability": "nonpayable",
      "type": "function"
    },
    {
      "inputs": [
        {
          "internalType": "bytes32",
          "name": "role",
          "type": "bytes32"
        },
        {
          "internalType": "address",
          "name": "account",
          "type": "address"
        }
      ],
      "name": "grantRole",
      "outputs": [],
      "stateMutability": "nonpayable",
      "type": "function"
    },
    {
      "inputs": [
        {
          "internalType": "bytes32",
          "name": "role",
          "type": "bytes32"
        },
        {
          "internalType": "address",
          "name": "account",
          "type": "address"
        }
      ],
      "name": "hasRole",
      "outputs": [
        {
          "internalType": "bool",
          "name": "",
          "type": "bool"
        }
      ],
      "stateMutability": "view",
      "type": "function"
    },
    {
      "inputs": [
        {
          "internalType": "address",
          "name": "",
          "type": "address"
        },
        {
          "internalType": "uint256",
          "name": "",
          "type": "uint256"
        }
      ],
      "name": "increaseAllowance",
      "outputs": [
        {
          "internalType": "bool",
          "name": "",
          "type": "bool"
        }
      ],
      "stateMutability": "nonpayable",
      "type": "function"
    },
    {
      "inputs": [
        {
          "internalType": "address",
          "name": "investor",
          "type": "address"
        }
      ],
      "name": "investorCustodian",
      "outputs": [
        {
          "internalType": "address",
          "name": "",
          "type": "address"
        }
      ],
      "stateMutability": "view",
      "type": "function"
    },
    {
      "inputs": [
        {
          "internalType": "address",
          "name": "investor",
          "type": "address"
        }
      ],
      "name": "investorsAllowed",
      "outputs": [
        {
          "internalType": "bool",
          "name": "",
          "type": "bool"
        }
      ],
      "stateMutability": "view",
      "type": "function"
    },
    {
      "inputs": [
        {
          "internalType": "address",
          "name": "account",
          "type": "address"
        }
      ],
      "name": "isBnD",
      "outputs": [
        {
          "internalType": "bool",
          "name": "",
          "type": "bool"
        }
      ],
      "stateMutability": "view",
      "type": "function"
    },
    {
      "inputs": [
        {
          "internalType": "address",
          "name": "account",
          "type": "address"
        }
      ],
      "name": "isCAK",
      "outputs": [
        {
          "internalType": "bool",
          "name": "",
          "type": "bool"
        }
      ],
      "stateMutability": "view",
      "type": "function"
    },
    {
      "inputs": [],
      "name": "isCallerApprovedSmartContract",
      "outputs": [
        {
          "internalType": "bool",
          "name": "",
          "type": "bool"
        }
      ],
      "stateMutability": "view",
      "type": "function"
    },
    {
      "inputs": [
        {
          "internalType": "address",
          "name": "contractAddress_",
          "type": "address"
        }
      ],
      "name": "isContractAllowed",
      "outputs": [
        {
          "internalType": "bool",
          "name": "",
          "type": "bool"
        }
      ],
      "stateMutability": "view",
      "type": "function"
    },
    {
      "inputs": [
        {
          "internalType": "address",
          "name": "account",
          "type": "address"
        }
      ],
      "name": "isCustodian",
      "outputs": [
        {
          "internalType": "bool",
          "name": "",
          "type": "bool"
        }
      ],
      "stateMutability": "view",
      "type": "function"
    },
    {
      "inputs": [
        {
          "internalType": "address",
          "name": "account",
          "type": "address"
        }
      ],
      "name": "isPay",
      "outputs": [
        {
          "internalType": "bool",
          "name": "",
          "type": "bool"
        }
      ],
      "stateMutability": "view",
      "type": "function"
    },
    {
      "inputs": [],
      "name": "makeReady",
      "outputs": [],
      "stateMutability": "nonpayable",
      "type": "function"
    },
    {
      "inputs": [
        {
          "internalType": "uint256",
          "name": "amount_",
          "type": "uint256"
        }
      ],
      "name": "mint",
      "outputs": [],
      "stateMutability": "nonpayable",
      "type": "function"
    },
    {
      "inputs": [],
      "name": "name",
      "outputs": [
        {
          "internalType": "string",
          "name": "",
          "type": "string"
        }
      ],
      "stateMutability": "view",
      "type": "function"
    },
    {
      "inputs": [],
      "name": "nextSnapshotDatetime",
      "outputs": [
        {
          "internalType": "uint256",
          "name": "",
          "type": "uint256"
        }
      ],
      "stateMutability": "view",
      "type": "function"
    },
    {
      "inputs": [],
      "name": "primaryIssuanceAccount",
      "outputs": [
        {
          "internalType": "address",
          "name": "",
          "type": "address"
        }
      ],
      "stateMutability": "view",
      "type": "function"
    },
    {
      "inputs": [
        {
          "internalType": "address",
          "name": "to",
          "type": "address"
        },
        {
          "internalType": "string",
          "name": "message",
          "type": "string"
        }
      ],
      "name": "publicMessage",
      "outputs": [],
      "stateMutability": "nonpayable",
      "type": "function"
    },
    {
      "inputs": [],
      "name": "registerAdmin",
      "outputs": [
        {
          "internalType": "address",
          "name": "",
          "type": "address"
        }
      ],
      "stateMutability": "view",
      "type": "function"
    },
    {
      "inputs": [
        {
          "internalType": "bytes32",
          "name": "role",
          "type": "bytes32"
        },
        {
          "internalType": "address",
          "name": "account",
          "type": "address"
        }
      ],
      "name": "renounceRole",
      "outputs": [],
      "stateMutability": "nonpayable",
      "type": "function"
    },
    {
      "inputs": [
        {
          "internalType": "address",
          "name": "investor",
          "type": "address"
        }
      ],
      "name": "returnBalanceToPrimaryIssuanceAccount",
      "outputs": [
        {
          "internalType": "bool",
          "name": "",
          "type": "bool"
        }
      ],
      "stateMutability": "nonpayable",
      "type": "function"
    },
    {
      "inputs": [],
      "name": "revertReady",
      "outputs": [],
      "stateMutability": "nonpayable",
      "type": "function"
    },
    {
      "inputs": [
        {
          "internalType": "address",
          "name": "bndAddress_",
          "type": "address"
        }
      ],
      "name": "revokeBndRole",
      "outputs": [],
      "stateMutability": "nonpayable",
      "type": "function"
    },
    {
      "inputs": [
        {
          "internalType": "address",
          "name": "cakAddress_",
          "type": "address"
        }
      ],
      "name": "revokeCakRole",
      "outputs": [],
      "stateMutability": "nonpayable",
      "type": "function"
    },
    {
      "inputs": [
        {
          "internalType": "address",
          "name": "cstAddress_",
          "type": "address"
        }
      ],
      "name": "revokeCstRole",
      "outputs": [],
      "stateMutability": "nonpayable",
      "type": "function"
    },
    {
      "inputs": [
        {
          "internalType": "address",
          "name": "payAddress_",
          "type": "address"
        }
      ],
      "name": "revokePayRole",
      "outputs": [],
      "stateMutability": "nonpayable",
      "type": "function"
    },
    {
      "inputs": [
        {
          "internalType": "bytes32",
          "name": "role",
          "type": "bytes32"
        },
        {
          "internalType": "address",
          "name": "account",
          "type": "address"
        }
      ],
      "name": "revokeRole",
      "outputs": [],
      "stateMutability": "nonpayable",
      "type": "function"
    },
    {
      "inputs": [
        {
          "internalType": "string",
          "name": "name_",
          "type": "string"
        },
        {
          "internalType": "uint256",
          "name": "expectedSupply_",
          "type": "uint256"
        },
        {
          "internalType": "bytes32",
          "name": "currency_",
          "type": "bytes32"
        },
        {
          "internalType": "uint256",
          "name": "unitVal_",
          "type": "uint256"
        },
        {
          "internalType": "uint256",
          "name": "couponRate_",
          "type": "uint256"
        },
        {
          "internalType": "uint256",
          "name": "issuanceDate_",
          "type": "uint256"
        },
        {
          "internalType": "uint256",
          "name": "maturityDate_",
          "type": "uint256"
        },
        {
          "internalType": "uint256",
          "name": "cutofftime_",
          "type": "uint256"
        }
      ],
      "name": "setBondData",
      "outputs": [],
      "stateMutability": "nonpayable",
      "type": "function"
    },
    {
      "inputs": [
        {
          "internalType": "uint256",
          "name": "creationDate_",
          "type": "uint256"
        }
      ],
      "name": "setCreationDate",
      "outputs": [],
      "stateMutability": "nonpayable",
      "type": "function"
    },
    {
      "inputs": [
        {
          "internalType": "bytes32",
          "name": "currency_",
          "type": "bytes32"
        }
      ],
      "name": "setCurrency",
      "outputs": [],
      "stateMutability": "nonpayable",
      "type": "function"
    },
    {
      "inputs": [
        {
          "internalType": "uint256",
          "name": "couponDate_",
          "type": "uint256"
        },
        {
          "internalType": "uint256",
          "name": "recordDatetime_",
          "type": "uint256"
        }
      ],
      "name": "setCurrentCouponDate",
      "outputs": [],
      "stateMutability": "nonpayable",
      "type": "function"
    },
    {
      "inputs": [
        {
          "internalType": "uint256",
          "name": "expectedSupply_",
          "type": "uint256"
        }
      ],
      "name": "setExpectedSupply",
      "outputs": [],
      "stateMutability": "nonpayable",
      "type": "function"
    },
    {
      "inputs": [
        {
          "internalType": "string",
          "name": "isinSymbol_",
          "type": "string"
        }
      ],
      "name": "setIsinSymbol",
      "outputs": [],
      "stateMutability": "nonpayable",
      "type": "function"
    },
    {
      "inputs": [
        {
          "internalType": "uint256",
          "name": "issuanceDate_",
          "type": "uint256"
        }
      ],
      "name": "setIssuanceDate",
      "outputs": [],
      "stateMutability": "nonpayable",
      "type": "function"
    },
    {
      "inputs": [
        {
          "internalType": "string",
          "name": "name_",
          "type": "string"
        }
      ],
      "name": "setName",
      "outputs": [],
      "stateMutability": "nonpayable",
      "type": "function"
    },
    {
      "inputs": [],
      "name": "status",
      "outputs": [
        {
          "internalType": "enum IRegister.Status",
          "name": "",
          "type": "uint8"
        }
      ],
      "stateMutability": "view",
      "type": "function"
    },
    {
      "inputs": [
        {
          "internalType": "bytes4",
          "name": "interfaceId",
          "type": "bytes4"
        }
      ],
      "name": "supportsInterface",
      "outputs": [
        {
          "internalType": "bool",
          "name": "",
          "type": "bool"
        }
      ],
      "stateMutability": "view",
      "type": "function"
    },
    {
      "inputs": [],
      "name": "symbol",
      "outputs": [
        {
          "internalType": "string",
          "name": "",
          "type": "string"
        }
      ],
      "stateMutability": "view",
      "type": "function"
    },
    {
      "inputs": [],
      "name": "toggleFrozen",
      "outputs": [],
      "stateMutability": "nonpayable",
      "type": "function"
    },
    {
      "inputs": [],
      "name": "totalSupply",
      "outputs": [
        {
          "internalType": "uint256",
          "name": "",
          "type": "uint256"
        }
      ],
      "stateMutability": "view",
      "type": "function"
    },
    {
      "inputs": [
        {
          "internalType": "uint256",
          "name": "snapshotId",
          "type": "uint256"
        }
      ],
      "name": "totalSupplyAt",
      "outputs": [
        {
          "internalType": "uint256",
          "name": "",
          "type": "uint256"
        }
      ],
      "stateMutability": "view",
      "type": "function"
    },
    {
      "inputs": [
        {
          "internalType": "uint256",
          "name": "_couponDate",
          "type": "uint256"
        }
      ],
      "name": "totalSupplyAtCoupon",
      "outputs": [
        {
          "internalType": "uint256",
          "name": "",
          "type": "uint256"
        }
      ],
      "stateMutability": "view",
      "type": "function"
    },
    {
      "inputs": [
        {
          "internalType": "address",
          "name": "",
          "type": "address"
        },
        {
          "internalType": "uint256",
          "name": "",
          "type": "uint256"
        }
      ],
      "name": "transfer",
      "outputs": [
        {
          "internalType": "bool",
          "name": "",
          "type": "bool"
        }
      ],
      "stateMutability": "nonpayable",
      "type": "function"
    },
    {
      "inputs": [
        {
          "internalType": "address",
          "name": "from_",
          "type": "address"
        },
        {
          "internalType": "address",
          "name": "to_",
          "type": "address"
        },
        {
          "internalType": "uint256",
          "name": "amount_",
          "type": "uint256"
        }
      ],
      "name": "transferFrom",
      "outputs": [
        {
          "internalType": "bool",
          "name": "",
          "type": "bool"
        }
      ],
      "stateMutability": "nonpayable",
      "type": "function"
    }
  ],
  "bytecode": "0x6080604052602280546001600160a01b031916301790553480156200002357600080fd5b506040516200628438038062006284833981016040819052620000469162000b90565b8a8a6200005560003362000279565b62000070600080516020620062648339815191528062000289565b600280546001600160a01b03191633908117909155620000a190600080516020620062648339815191529062000279565b620000dc7ff698af62c65280e4949bceec64b760f3b7738217cbc536cdfc4c9463676b05c26000805160206200626483398151915262000289565b620001177f6ba6f588bcdc2df8426603a466c98ab15e79f7fb7f37b53581ce39c1d01b72496000805160206200626483398151915262000289565b620001527fd7aa2ddfa4e381128202bf365b7e0a176f2fca6cdf2f23c2b0a6f439376958906000805160206200626483398151915262000289565b600862000160838262000d0b565b5060096200016f828262000d0b565b50601791506200018290508c8262000d0b565b506018620001918b8262000d0b565b506019899055601a889055601b879055601c869055601d859055601e849055601f8390558151620001c99060209081850190620009c6565b506021819055620001d9620002d4565b6016805460ff1916905560405133907f9c99cfc2b1740648876aee40ef245ae7527339df99966fd618b900e61bc76e759062000219908e908e9062000e05565b60405180910390a260165460405133917fda2010acfda7a262372331cb3b57e3f648f63eb009a423a2b5602cfa4f9bff5191620002609160179160189160ff169062000ebc565b60405180910390a2505050505050505050505062000fac565b6200028582826200039c565b5050565b600082815260208190526040808220600101805490849055905190918391839186917fbd79b86ffe0ab8e8776151514217cd7cacd52c909f66475c3af44e129f0b00ff9190a4505050565b6000620002e142620003c7565b506020549091506000908190831015620003715760208054849081106200030c576200030c62000f15565b6000918252602091829020015490549092506200032b84600162000f41565b1015620003675760206200034184600162000f41565b8154811062000354576200035462000f15565b9060005260206000200154905062000379565b50601f5462000379565b5050601f5460005b602154620003969083906200038f908262000f41565b8362000466565b50505050565b620003a88282620004bd565b6000828152600160205260409020620003c290826200055d565b505050565b60008060005b60205481101562000458578360176009018281548110620003f257620003f262000f15565b9060005260206000200154036200040d579360019350915050565b836017600901828154811062000427576200042762000f15565b9060005260206000200154111562000443579360009350915050565b806200044f8162000f57565b915050620003cd565b505060205492600092509050565b6000601154841462000485576200047f8484846200057d565b620004b3565b60105462000495906000620007e8565b8214620004b357620004b3601154600f54846200057d60201b60201c565b5060019392505050565b6000828152602081815260408083206001600160a01b038516845290915290205460ff1662000285576000828152602081815260408083206001600160a01b03851684529091529020805460ff19166001179055620005193390565b6001600160a01b0316816001600160a01b0316837f2f8788117e7eff1d82e926ec794901d17c78024a50270940304540a733656f0d60405160405180910390a45050565b600062000574836001600160a01b0384166200082f565b90505b92915050565b60006200058b8382620007e8565b905083811115620006095760405162461bcd60e51b815260206004820152603360248201527f746865207265636f726420646174652063616e6e6f742062652061667465722060448201527f74686520736574746c656d656e7420646174650000000000000000000000000060648201526084015b60405180910390fd5b8115806200061657508382115b6200068a5760405162461bcd60e51b815260206004820152603c60248201527f696e76616c6964206e6578742064617465207768656e2073657474696e67207460448201527f68652063757272656e7420736e617073686f74206461746574696d6500000000606482015260840162000600565b6000620006988582620007e8565b9050828015620006b157620006ae8186620007e8565b90505b6000828152600e602052604090205415620007205760405162461bcd60e51b815260206004820152602860248201527f44617465206f6620636f75706f6e206f72206d6174757269747920616c726561604482015267323c903a30b5b2b760c11b606482015260840162000600565b844210620007975760405162461bcd60e51b815260206004820152603d60248201527f796f75206861766520746f20646566696e652061206e657720706572696f642060448201527f656e64696e67206166746572207468652063757272656e742074696d65000000606482015260840162000600565b620007a162000881565b50600f859055601182905560108190556040518190869084907f4d1d74d5cbfc13e02ef05af3a30d8721e87a00d20bc3dc42198917139944def390600090a4505050505050565b600080620007fa620151808562000f73565b905062000808818562000f96565b915062000819620151808462000f73565b905062000827818362000f41565b949350505050565b6000818152600183016020526040812054620008785750815460018181018455600084815260208082209093018490558454848252828601909352604090209190915562000577565b50600062000577565b600080600f54118015620008a457506011546000908152600e6020526040902054155b8015620008b35750600f544210155b1562000951576000620008c562000957565b6011546000908152600e60205260409020819055601054909150620008ec57600062000902565b62000902601054600f54620007e860201b60201c565b600f81905562000914906000620007e8565b6011819055601054600f54604051919290917f4d1d74d5cbfc13e02ef05af3a30d8721e87a00d20bc3dc42198917139944def390600090a4919050565b50600090565b600062000968600d80546001019055565b600062000974620009b5565b90507f8030e83b04d87bef53480e26263266d6ca66863aa8506aca6f2559d18aa1cb6781604051620009a891815260200190565b60405180910390a1919050565b6000620009c1600d5490565b905090565b82805482825590600052602060002090810192821562000a04579160200282015b8281111562000a04578251825591602001919060010190620009e7565b5062000a1292915062000a16565b5090565b5b8082111562000a12576000815560010162000a17565b634e487b7160e01b600052604160045260246000fd5b604051601f8201601f191681016001600160401b038111828210171562000a6e5762000a6e62000a2d565b604052919050565b60005b8381101562000a9357818101518382015260200162000a79565b50506000910152565b600082601f83011262000aae57600080fd5b81516001600160401b0381111562000aca5762000aca62000a2d565b62000adf601f8201601f191660200162000a43565b81815284602083860101111562000af557600080fd5b6200082782602083016020870162000a76565b600082601f83011262000b1a57600080fd5b815160206001600160401b0382111562000b385762000b3862000a2d565b8160051b62000b4982820162000a43565b928352848101820192828101908785111562000b6457600080fd5b83870192505b8483101562000b855782518252918301919083019062000b6a565b979650505050505050565b60008060008060008060008060008060006101608c8e03121562000bb357600080fd5b8b516001600160401b0381111562000bca57600080fd5b62000bd88e828f0162000a9c565b60208e0151909c5090506001600160401b0381111562000bf757600080fd5b62000c058e828f0162000a9c565b9a505060408c0151985060608c0151975060808c0151965060a08c0151955060c08c0151945060e08c015193506101008c015192506101208c015160018060401b0381111562000c5457600080fd5b62000c628e828f0162000b08565b9250506101408c015190509295989b509295989b9093969950565b600181811c9082168062000c9257607f821691505b60208210810362000cb357634e487b7160e01b600052602260045260246000fd5b50919050565b601f821115620003c257600081815260208120601f850160051c8101602086101562000ce25750805b601f850160051c820191505b8181101562000d035782815560010162000cee565b505050505050565b81516001600160401b0381111562000d275762000d2762000a2d565b62000d3f8162000d38845462000c7d565b8462000cb9565b602080601f83116001811462000d77576000841562000d5e5750858301515b600019600386901b1c1916600185901b17855562000d03565b600085815260208120601f198616915b8281101562000da85788860151825594840194600190910190840162000d87565b508582101562000dc75787850151600019600388901b60f8161c191681555b5050505050600190811b01905550565b6000815180845262000df181602086016020860162000a76565b601f01601f19169290920160200192915050565b60408152600062000e1a604083018562000dd7565b828103602084015262000e2e818562000dd7565b95945050505050565b6000815462000e468162000c7d565b80855260206001838116801562000e66576001811462000e815762000eb1565b60ff1985168884015283151560051b88018301955062000eb1565b866000528260002060005b8581101562000ea95781548a820186015290830190840162000e8c565b890184019650505b505050505092915050565b60608152600062000ed1606083018662000e37565b828103602084015262000ee5818662000e37565b9150506005831062000f0757634e487b7160e01b600052602160045260246000fd5b826040830152949350505050565b634e487b7160e01b600052603260045260246000fd5b634e487b7160e01b600052601160045260246000fd5b8082018082111562000577576200057762000f2b565b60006001820162000f6c5762000f6c62000f2b565b5060010190565b60008262000f9157634e487b7160e01b600052601260045260246000fd5b500690565b8181038181111562000577576200057762000f2b565b6152a88062000fbc6000396000f3fe608060405234801561001057600080fd5b50600436106104cc5760003560e01c80638f92f49011610283578063ca15c8731161015c578063d696fb0b116100ce578063e336c59011610092578063e336c59014610b1d578063e3965d5414610b30578063e5bf6dc814610b43578063eeb4cee914610b4b578063f60d9ea114610b53578063f690c6c514610b6657600080fd5b8063d696fb0b14610aa3578063d8eab9a514610ab6578063d9a7997814610ac9578063dc16722b14610adc578063dd62ed3e14610ae457600080fd5b8063d46be60811610120578063d46be60814610a3a578063d4cdda9114610a42578063d547741f14610a57578063d58c80b414610a6a578063d5c0beeb14610a7d578063d614284a14610a9057600080fd5b8063ca15c873146109e6578063cc80473c146109f9578063cf5b362814610a0c578063d0a2f2c414610a1f578063d1ec6de814610a2757600080fd5b8063a457c2d7116101f5578063aed054d5116101b9578063aed054d51461098a578063b90c1dbb1461099d578063c1f4250b146109a5578063c2faae59146109b8578063c41251a1146109c0578063c47f0027146109d357600080fd5b8063a457c2d714610936578063a55234b814610949578063a7f2f6ec1461095c578063a9059cbb14610964578063abc2cf2a1461097757600080fd5b8063981b24d011610247578063981b24d0146108da5780639ef986de146108ed578063a0712d68146108f5578063a196218314610908578063a217fddf1461091b578063a28f78f81461092357600080fd5b80638f92f4901461086a5780639010d07c1461089957806391d14854146108ac57806393c39393146108bf57806395d89b41146108d257600080fd5b806336568abe116103b557806363896d19116103275780637cc7bcce116102eb5780637cc7bcce146107da5780637dc35505146107fa578063806ba1001461080e5780638784ff18146108315780638865f1e2146108425780638e1305de1461085757600080fd5b806363896d19146107635780636f2ddb5f1461077857806370a082311461078b57806371c41f8a146107b45780637469538a146107c757600080fd5b80633e7e8713116103795780633e7e8713146106f157806342966c68146107045780634361f92a146107175780634e0b0dcf1461072a5780634ee2cd7e1461073d5780635ab6f71b1461075057600080fd5b806336568abe146106a657806339027f7c146106b957806339509351146106c15780633bf2a9f4146106d45780633e4be639146106e957600080fd5b8063200d2ed21161044e5780632877d473116104125780632877d473146106255780632f2ff15d1461062d5780632f962866146106405780633052974c1461066b578063313ce5671461067e57806335c80c8c1461069357600080fd5b8063200d2ed2146105ad578063222ca340146105c757806323b872dd146105da578063248a9ca3146105ed5780632682ac911461061057600080fd5b806307b2d9e31161049557806307b2d9e314610549578063095ea7b31461056a57806317559df01461057d57806318160ddd146105905780631c67a3631461059857600080fd5b8062a9303d146104d157806301ffc9a7146104e657806304b8c4711461050e57806306ec8ca61461052157806306fdde0314610534575b600080fd5b6104e46104df366004614862565b610b79565b005b6104f96104f436600461487d565b610b94565b60405190151581526020015b60405180910390f35b6104e461051c366004614862565b610bbf565b6104e461052f3660046148a7565b610edd565b61053c610efb565b6040516105059190614910565b61055c610557366004614923565b610f90565b604051908152602001610505565b6104f9610578366004614923565b610fd5565b6104e461058b3660046149f0565b611016565b60075461055c565b61055c6000805160206151f383398151915281565b6016546105ba9060ff1681565b6040516105059190614a9f565b6104e46105d5366004614862565b6111a9565b6104f96105e8366004614aad565b6111c1565b61055c6105fb3660046148a7565b60009081526020819052604090206001015490565b61055c60008051602061523383398151915281565b601e5461055c565b6104e461063b366004614ae9565b611426565b600454610653906001600160a01b031681565b6040516001600160a01b039091168152602001610505565b6104e4610679366004614b15565b61155b565b60005b60405160ff9091168152602001610505565b6104f96106a1366004614862565b61161e565b6104e46106b4366004614ae9565b611638565b601c5461055c565b6104f96106cf366004614923565b6116b2565b61055c6000805160206151d383398151915281565b6104e46116fd565b6104e46106ff3660046148a7565b611852565b6104e46107123660046148a7565b6119bc565b6104f9610725366004614862565b611a7c565b6104e4610738366004614b37565b611a96565b61055c61074b366004614923565b611ad6565b600254610653906001600160a01b031681565b61076b611b2f565b6040516105059190614ba7565b6104f9610786366004614862565b611d6e565b61055c610799366004614862565b6001600160a01b031660009081526005602052604090205490565b6104f96107c23660046148a7565b611d93565b6104e46107d53660046148a7565b611dcd565b6107ed6107e83660046148a7565b6120a4565b6040516105059190614c67565b60025461068190600160a01b900460ff1681565b6104f961081c3660046148a7565b60136020526000908152604090205460ff1681565b6022546001600160a01b0316610653565b61055c60008051602061525383398151915281565b6104e4610865366004614862565b612265565b610653610878366004614862565b6001600160a01b039081166000908152601460205260409020600201541690565b6106536108a7366004614b15565b61227d565b6104f96108ba366004614ae9565b612295565b6104e46108cd3660046148a7565b6122be565b61053c6122f7565b61055c6108e83660046148a7565b612309565b600f5461055c565b6104e46109033660046148a7565b612334565b61055c610916366004614862565b6123a6565b61055c600081565b6104e4610931366004614862565b6123d7565b6104f9610944366004614923565b6123ef565b6104f9610957366004614862565b61243a565b601b5461055c565b6104f9610972366004614923565b612454565b6104f9610985366004614862565b612496565b602254610653906001600160a01b031681565b601d5461055c565b6104e46109b3366004614862565b61278b565b6104f96127a3565b6104f96109ce366004614862565b6127c7565b6104e46109e1366004614b37565b6127ec565b61055c6109f43660046148a7565b61282c565b6104e4610a07366004614862565b612843565b61055c610a1a3660046148a7565b61285b565b6107ed612887565b6104e4610a35366004614862565b6128e8565b6104e4612a56565b6104f9610a503660046148a7565b601f541490565b6104e4610a65366004614ae9565b612b53565b6104e4610a783660046148a7565b612c5d565b6104e4610a8b366004614862565b612d22565b6104e4610a9e3660046148a7565b612f13565b6104e4610ab13660046148a7565b612f82565b6104e4610ac43660046148a7565b612fee565b6104e4610ad7366004614cb4565b613027565b6104e461314b565b61055c610af2366004614d02565b6001600160a01b03918216600090815260066020908152604080832093909416825291909152205490565b600354610653906001600160a01b031681565b6104f9610b3e366004614862565b613292565b60115461055c565b60105461055c565b6104e4610b61366004614862565b6132ac565b6104e4610b74366004614862565b6132c4565b610b916000805160206151d383398151915282611426565b50565b60006001600160e01b03198216635a05180f60e01b1480610bb95750610bb9826132dc565b92915050565b610bd760008051602061525383398151915233612295565b610bfc5760405162461bcd60e51b8152600401610bf390614d2c565b60405180910390fd5b6002546001600160a01b0390811690821603610c665760405162461bcd60e51b8152602060048201526024808201527f4e65772061646d696e206973207468652073616d652061732063757272656e74604482015263206f6e6560e01b6064820152608401610bf3565b6001600160a01b038116158015610c895750600254600160a01b900460ff166001145b15610cc9576002805460ff60a01b19169055600480546001600160a01b0319908116909155600380549091166001600160a01b0392909216919091179055565b6001600160a01b038116610d395760405162461bcd60e51b815260206004820152603160248201527f5468652070726f706f736564206e65772061646d696e2063616e6e6f7420626560448201527020746865207a65726f206164647265737360781b6064820152608401610bf3565b600254600160a01b900460ff16600003610d91576002805460ff60a01b1916600160a01b179055600480546001600160a01b03199081163317909155600380546001600160a01b039390931692909116919091179055565b600254600160a01b900460ff16600103610b91576003546001600160a01b03828116911614610dea5760048054336001600160a01b031991821617909155600380549091166001600160a01b0392909216919091179055565b600454336001600160a01b0390911603610e465760405162461bcd60e51b815260206004820152601a60248201527f546869732043414b2068617320616c726561647920766f7465640000000000006044820152606401610bf3565b600254610e5e906000906001600160a01b0316613311565b600354610e76906000906001600160a01b031661154d565b60038054600280546001600160a81b0319166001600160a01b038316908117909155600480546001600160a01b03199081169091559091169091556040517f7ce7ec0b50378fb6c0186ffb5f48325f6593fcb4ca4386f21861af3129188f5c90600090a250565b600080516020615253833981519152610ef581613333565b50601a55565b606060176000018054610f0d90614d58565b80601f0160208091040260200160405190810160405280929190818152602001828054610f3990614d58565b8015610f865780601f10610f5b57610100808354040283529160200191610f86565b820191906000526020600020905b815481529060010190602001808311610f6957829003601f168201915b5050505050905090565b6000818152600e60205260408120548015610fb757610faf8482611ad6565b915050610bb9565b6001600160a01b038416600090815260056020526040902054610faf565b60405162461bcd60e51b8152602060048201526013602482015272185c1c1c9bdd99481a5cc8191a5cd8589b1959606a1b6044820152600090606401610bf3565b61102e60008051602061525383398151915233612295565b61104a5760405162461bcd60e51b8152600401610bf390614d2c565b6020541561117b5782601760090160008154811061106a5761106a614d8c565b9060005260206000200154116110e15760405162461bcd60e51b815260206004820152603660248201527f43616e6e6f742073657420612069737375616e636520646174652061667465726044820152752074686520666972737420636f75706f6e206461746560501b6064820152608401610bf3565b602080548391906110f490600190614db8565b8154811061110457611104614d8c565b90600052602060002001541061117b5760405162461bcd60e51b815260206004820152603660248201527f43616e6e6f74207365742061206d617475726974792064617465206265666f726044820152756520746865206c61737420636f75706f6e206461746560501b6064820152608401610bf3565b60176111878982614e19565b50601996909655601a94909455601b92909255601c55601e55601f5560215550565b610b916000805160206151f383398151915282612b53565b60006111db60008051602061525383398151915233612295565b156111f3576111eb84848461333d565b50600161141f565b6111fc33611d6e565b6112185760405162461bcd60e51b8152600401610bf390614ed9565b600460165460ff16600481111561123157611231614a67565b0361129a5760405162461bcd60e51b815260206004820152603360248201527f4e6f207472616e736665722063616e20626520646f6e65207768656e20746865604482015272103932b3b4b9ba32b91034b990233937bd32b760691b6064820152608401610bf3565b600160165460ff1660048111156112b3576112b3614a67565b1480156112d357506112d360008051602061523383398151915284612295565b80156112ec57506022546001600160a01b038581169116145b15611342576016805460ff1916600217905561130a836000806134f5565b6016546040513391600080516020615213833981519152916113359160179160189160ff1690614f8b565b60405180910390a2611414565b61134b836127c7565b151560011461139c5760405162461bcd60e51b815260206004820152601b60248201527f546865207265636569766572206973206e6f7420616c6c6f77656400000000006044820152606401610bf3565b6113a5846127c7565b1515600114806113c857506113c860008051602061523383398151915285612295565b6114145760405162461bcd60e51b815260206004820152601960248201527f5468652073656e646572206973206e6f7420616c6c6f776564000000000000006044820152606401610bf3565b6111eb84848461333d565b9392505050565b816114435760405162461bcd60e51b8152600401610bf390614fc0565b60008051602061525383398151915282036114e95761147060008051602061525383398151915233612295565b806114815750611481600033612295565b6114e45760405162461bcd60e51b815260206004820152602e60248201527f43616c6c6572206d7573742062652043414b206f722041444d494e20746f207360448201526d657420616e6f746865722043414b60901b6064820152608401610bf3565b61154d565b61150160008051602061525383398151915233612295565b61154d5760405162461bcd60e51b815260206004820181905260248201527f43616c6c6572206d7573742062652043414b20746f20736574206120726f6c656044820152606401610bf3565b611557828261358d565b5050565b61156433611d6e565b6115805760405162461bcd60e51b8152600401610bf390614ed9565b8161158e82620d2f00615004565b1161160b5760405162461bcd60e51b815260206004820152604160248201527f496e636f6e73697374656e74207265636f72642064617465206d6f726520746860448201527f616e2031302064617973206265666f726520736574746c656d656e74206461746064820152606560f81b608482015260a401610bf3565b6115578282611619856135af565b613644565b6000610bb96000805160206151f383398151915283612295565b6001600160a01b03811633146116a85760405162461bcd60e51b815260206004820152602f60248201527f416363657373436f6e74726f6c3a2063616e206f6e6c792072656e6f756e636560448201526e103937b632b9903337b91039b2b63360891b6064820152608401610bf3565b6115578282613311565b60405162461bcd60e51b815260206004820152601d60248201527f696e637265617365416c6c6f77616e63652069732064697361626c65640000006044820152600090606401610bf3565b61171560008051602061525383398151915233612295565b6117315760405162461bcd60e51b8152600401610bf390614d2c565b600260165460ff16600481111561174a5761174a614a67565b0361176957601680546004919060ff19166001835b021790555061181d565b600460165460ff16600481111561178257611782614a67565b0361179b57601680546002919060ff191660018361175f565b60405162461bcd60e51b815260206004820152604b60248201527f43616e6e6f7420467265657a65202f20556e667265657a65207468652072656760448201527f69737465722061732074686520737461747573206973206e6f7420497373756560648201526a321037b910233937bd32b760a91b608482015260a401610bf3565b6016546040513391600080516020615213833981519152916118489160179160189160ff1690614f8b565b60405180910390a2565b61186a60008051602061525383398151915233612295565b6118865760405162461bcd60e51b8152600401610bf390614d2c565b60008061189283613891565b9150915080156119b7576118a583613924565b6118fc5760405162461bcd60e51b815260206004820152602260248201527f5468697320636f75706f6e20646174652063616e6e6f742062652064656c6574604482015261195960f21b6064820152608401610bf3565b60205461190b90600190614db8565b82101561198857815b60205461192390600190614db8565b811015611986576020611937826001615004565b8154811061194757611947614d8c565b90600052602060002001546017600901828154811061196857611968614d8c565b6000918252602090912001558061197e81615017565b915050611914565b505b602080548061199957611999615030565b600190038181906000526020600020016000905590556119b761394e565b505050565b6119d460008051602061525383398151915233612295565b6119f05760405162461bcd60e51b8152600401610bf390614d2c565b6119f86139fc565b50602254611a0f906001600160a01b031682613a71565b6022546001600160a01b0316600090815260056020526040902054158015611a375750600754155b15610b91576016805460ff19166003908117909155604051339160008051602061521383398151915291611a719160179160189190614f8b565b60405180910390a250565b6000610bb960008051602061525383398151915283612295565b611aae60008051602061525383398151915233612295565b611aca5760405162461bcd60e51b8152600401610bf390614d2c565b60186115578282614e19565b6001600160a01b0382166000908152600a6020526040812081908190611afd908590613bb1565b9150915081611b24576001600160a01b038516600090815260056020526040902054611b26565b805b95945050505050565b611b8f60405180610160016040528060608152602001606081526020016000815260200160008019168152602001600081526020016000815260200160008152602001600081526020016000815260200160608152602001600081525090565b601760405180610160016040529081600082018054611bad90614d58565b80601f0160208091040260200160405190810160405280929190818152602001828054611bd990614d58565b8015611c265780601f10611bfb57610100808354040283529160200191611c26565b820191906000526020600020905b815481529060010190602001808311611c0957829003601f168201915b50505050508152602001600182018054611c3f90614d58565b80601f0160208091040260200160405190810160405280929190818152602001828054611c6b90614d58565b8015611cb85780601f10611c8d57610100808354040283529160200191611cb8565b820191906000526020600020905b815481529060010190602001808311611c9b57829003601f168201915b505050505081526020016002820154815260200160038201548152602001600482015481526020016005820154815260200160068201548152602001600782015481526020016008820154815260200160098201805480602002602001604051908101604052809291908181526020018280548015611d5657602002820191906000526020600020905b815481526020019060010190808311611d42575b50505050508152602001600a82015481525050905090565b600080611d7a836123a6565b60009081526013602052604090205460ff169392505050565b600080611d9f83613891565b9150508015611db15750600192915050565b601f54839003611dc45750600192915050565b50600092915050565b611de560008051602061525383398151915233612295565b611e015760405162461bcd60e51b8152600401610bf390614d2c565b601e548111611e785760405162461bcd60e51b815260206004820152603e60248201527f43616e6e6f7420736574206120636f75706f6e206461746520736d616c6c657260448201527f206f7220657175616c20746f207468652069737375616e6365206461746500006064820152608401610bf3565b601f548110611eef5760405162461bcd60e51b815260206004820152603e60248201527f43616e6e6f7420736574206120636f75706f6e2064617465206772656174657260448201527f206f7220657175616c20746f20746865206d61747572697479206461746500006064820152608401610bf3565b600080611efb83613891565b91509150806119b757611f0d83613ca7565b611f6c5760405162461bcd60e51b815260206004820152602a60248201527f43616e6e6f7420696e73657274207468697320646174652c20697420697320696044820152691b881d1a19481c185cdd60b21b6064820152608401610bf3565b6020541561206657602080548190611f8690600190614db8565b81548110611f9657611f96614d8c565b6000918252602080832090910154835460018101855593835291819020909201555460031161203e57602054600090611fd190600390614db8565b90505b82811061203c576020805482908110611fef57611fef614d8c565b6000918252602091829020015490612008836001615004565b8154811061201857612018614d8c565b600091825260209091200155801561203c578061203481615046565b915050611fd4565b505b826017600901838154811061205557612055614d8c565b60009182526020909120015561209c565b602080546001810182556000919091527fc97bfaf2f8ee708c303a06d134f5ecd8389ae0432af62dc132a24118292866bb018390555b6119b761394e565b60155460609060009067ffffffffffffffff8111156120c5576120c561494d565b6040519080825280602002602001820160405280156120ee578160200160208202803683370190505b5090506000805b6015548110156121b35760006121326015838154811061211757612117614d8c565b6000918252602090912001546001600160a01b031687610f90565b11156121a1576015818154811061214b5761214b614d8c565b9060005260206000200160009054906101000a90046001600160a01b031683838151811061217b5761217b614d8c565b6001600160a01b03909216602092830291909101909101528161219d81615017565b9250505b806121ab81615017565b9150506120f5565b5060008167ffffffffffffffff8111156121cf576121cf61494d565b6040519080825280602002602001820160405280156121f8578160200160208202803683370190505b50905060005b8281101561225c5783818151811061221857612218614d8c565b602002602001015182828151811061223257612232614d8c565b6001600160a01b03909216602092830291909101909101528061225481615017565b9150506121fe565b50949350505050565b610b9160008051602061525383398151915282612b53565b600082815260016020526040812061141f9083613cbc565b6000918252602082815260408084206001600160a01b0393909316845291905290205460ff1690565b6122d660008051602061525383398151915233612295565b6122f25760405162461bcd60e51b8152600401610bf390614d2c565b601d55565b606060176001018054610f0d90614d58565b600080600061231984600b613bb1565b915091508161232a5760075461232c565b805b949350505050565b61234c60008051602061525383398151915233612295565b6123685760405162461bcd60e51b8152600401610bf390614d2c565b6022546001600160a01b03166123905760405162461bcd60e51b8152600401610bf39061505d565b602254610b91906001600160a01b031682613cc8565b60408051603f833b908101601f19168201909252818152600091808360208401863c50805160209091012092915050565b610b9160008051602061525383398151915282611426565b60405162461bcd60e51b815260206004820152601d60248201527f6465637265617365416c6c6f77616e63652069732064697361626c65640000006044820152600090606401610bf3565b6000610bb960008051602061523383398151915283612295565b60405162461bcd60e51b81526020600482015260146024820152731d1c985b9cd9995c881a5cc8191a5cd8589b195960621b6044820152600090606401610bf3565b60006124a133611d6e565b6124bd5760405162461bcd60e51b8152600401610bf390614ed9565b6124c6826127c7565b15156001146125175760405162461bcd60e51b815260206004820152601f60248201527f54686520696e766573746f72206973206e6f742077686974656c6973746564006044820152606401610bf3565b6000306001600160a01b031663e5bf6dc86040518163ffffffff1660e01b8152600401602060405180830381865afa158015612557573d6000803e3d6000fd5b505050506040513d601f19601f8201168201806040525081019061257b91906150a3565b601f5490915081148061258c575080155b80156125f85750306001600160a01b0316639ef986de6040518163ffffffff1660e01b8152600401602060405180830381865afa1580156125d1573d6000803e3d6000fd5b505050506040513d601f19601f820116820180604052508101906125f591906150a3565b42115b6126905760405162461bcd60e51b815260206004820152605e60248201527f72657475726e696e67207468652062616c616e636520746f207468652070726960448201527f6d6172792069737375616e63652063616e206f6e6c7920626520646f6e65206160648201527f6674657220746865206d6174757269747920637574206f66662074696d650000608482015260a401610bf3565b6040516370a0823160e01b81526001600160a01b038416600482015260009030906370a0823190602401602060405180830381865afa1580156126d7573d6000803e3d6000fd5b505050506040513d601f19601f820116820180604052508101906126fb91906150a3565b90506000811161275c5760405162461bcd60e51b815260206004820152602660248201527f6e6f2062616c616e636520746f2072657475726e20666f72207468697320696e6044820152653b32b9ba37b960d11b6064820152608401610bf3565b6127646139fc565b506127818461277b6022546001600160a01b031690565b8361333d565b5060019392505050565b610b9160008051602061523383398151915282612b53565b6000806127af336123a6565b60009081526013602052604090205460ff1692915050565b6001600160a01b0316600090815260146020526040902054600160a01b900460ff1690565b61280460008051602061525383398151915233612295565b6128205760405162461bcd60e51b8152600401610bf390614d2c565b60176115578282614e19565b6000818152600160205260408120610bb990613d95565b610b9160008051602061523383398151915282611426565b6000818152600e602052604081205480156128795761141f81612309565b60075461141f565b50919050565b60606015805480602002602001604051908101604052809291908181526020018280548015610f8657602002820191906000526020600020905b81546001600160a01b031681526001909101906020018083116128c1575050505050905090565b6001600160a01b03811661293e5760405162461bcd60e51b815260206004820152601f60248201527f696e766573746f7220616464726573732063616e6e6f74206265207a65726f006044820152606401610bf3565b6001600160a01b03818116600090815260146020526040902060020154161561297560008051602061525383398151915233612295565b156129f35780156129c85760405162461bcd60e51b815260206004820152601d60248201527f696e766573746f72206d757374206265207365742075702066697273740000006044820152606401610bf3565b506001600160a01b03166000908152601460205260409020805460ff60a01b1916600160a01b179055565b612a0b6000805160206151f383398151915233612295565b612a4c5760405162461bcd60e51b815260206004820152601260248201527110d85b1b195c881b5d5cdd0818994810d4d560721b6044820152606401610bf3565b6115578233613d9f565b612a6e60008051602061525383398151915233612295565b612a8a5760405162461bcd60e51b8152600401610bf390614d2c565b600160165460ff166004811115612aa357612aa3614a67565b14612afa5760405162461bcd60e51b815260206004820152602160248201527f52656769737465722073686f756c6420626520696e20526561647920737461746044820152606560f81b6064820152608401610bf3565b602254601954612b13916001600160a01b031690613a71565b601680546000919060ff19166001835b02179055506016546040513391600080516020615213833981519152916118489160179160189160ff1690614f8b565b81612b705760405162461bcd60e51b8152600401610bf390614fc0565b6000805160206152538339815191528203612bed57612b90600033612295565b612be85760405162461bcd60e51b8152602060048201526024808201527f43616c6c6572206d7573742062652041444d494e20746f2072656d6f766520616044820152632043414b60e01b6064820152608401610bf3565b6116a8565b612c0560008051602061525383398151915233612295565b6116a85760405162461bcd60e51b815260206004820152602360248201527f43616c6c6572206d7573742062652043414b20746f2072656d6f7665206120726044820152626f6c6560e81b6064820152608401610bf3565b612c7560008051602061525383398151915233612295565b612c915760405162461bcd60e51b8152600401610bf390614d2c565b600060165460ff166004811115612caa57612caa614a67565b14612d1d5760405162461bcd60e51b815260206004820152603a60248201527f6c6966656379636c652076696f6c6174696f6e202d206f6e6c7920616c6c6f7760448201527f6564207768656e2073746174757320697320696e2064726166740000000000006064820152608401610bf3565b601955565b6001600160a01b038116612d785760405162461bcd60e51b815260206004820152601f60248201527f696e766573746f7220616464726573732063616e6e6f74206265207a65726f006044820152606401610bf3565b612d9060008051602061525383398151915233612295565b15612e23576001600160a01b0381811660009081526014602052604090206002015416612dff5760405162461bcd60e51b815260206004820152601d60248201527f696e766573746f72206d757374206265207365742075702066697273740000006044820152606401610bf3565b6001600160a01b03166000908152601460205260409020805460ff60a01b19169055565b612e3b6000805160206151f383398151915233612295565b612e7c5760405162461bcd60e51b815260206004820152601260248201527110d85b1b195c881b5d5cdd0818994810d4d560721b6044820152606401610bf3565b6001600160a01b03818116600090815260146020526040902060020154163314612eb85760405162461bcd60e51b8152600401610bf3906150bc565b6001600160a01b038116600081815260146020908152604091829020805460ff60a01b1916905590519182527ffeae65559f65b7c3f804001ac3371fbb83cf05e8344bc2b66588084bfe9250a891015b60405180910390a150565b612f1b613e91565b612f375760405162461bcd60e51b8152600401610bf390614d2c565b60008181526013602052604090819020805460ff19166001179055517fbaf2f827de189827a9b5ea8781dbbffcad675a367dccaad8b9ada866795598d790612f089083815260200190565b612f8a613e91565b612fa65760405162461bcd60e51b8152600401610bf390614d2c565b60008181526013602052604090819020805460ff19169055517f2876b9bd97a638025f28a0d50cb5f3cd9e5c0b85624fb7ee15267149452c2d7490612f089083815260200190565b61300660008051602061525383398151915233612295565b6130225760405162461bcd60e51b8152600401610bf390614d2c565b601e55565b61303f60008051602061525383398151915233612295565b8061305d575061305d60008051602061523383398151915233612295565b8061307b575061307b6000805160206151f383398151915233612295565b8061309957506130996000805160206151d383398151915233612295565b6130fc5760405162461bcd60e51b815260206004820152602e60248201527f5468652063616c6c6572206d7573742068617665206120726f6c6520696e207460448201526d3432903a3930b739b0b1ba34b7b760911b6064820152608401610bf3565b816001600160a01b0316336001600160a01b03167fa923df1773651806246e73e1e43342c4845d608ad54e2606d3c1a50124d66e718360405161313f9190614910565b60405180910390a35050565b61316360008051602061525383398151915233612295565b61317f5760405162461bcd60e51b8152600401610bf390614d2c565b600060165460ff16600481111561319857613198614a67565b146131ef5760405162461bcd60e51b815260206004820152602160248201527f52656769737465722073686f756c6420626520696e20447261667420737461746044820152606560f81b6064820152608401610bf3565b60195461323e5760405162461bcd60e51b815260206004820152601e60248201527f657870656374656420737570706c792063616e6e6f74206265207a65726f00006044820152606401610bf3565b6022546001600160a01b03166132665760405162461bcd60e51b8152600401610bf39061505d565b60225460195461327f916001600160a01b031690613cc8565b601680546001919060ff19168280612b23565b6000610bb96000805160206151d383398151915283612295565b610b916000805160206151d383398151915282612b53565b610b916000805160206151f383398151915282611426565b60006001600160e01b03198216637965db0b60e01b1480610bb957506301ffc9a760e01b6001600160e01b0319831614610bb9565b61331b8282613eb0565b60008281526001602052604090206119b79082613f15565b610b918133613f2a565b6001600160a01b0383166133a15760405162461bcd60e51b815260206004820152602560248201527f45524332303a207472616e736665722066726f6d20746865207a65726f206164604482015264647265737360d81b6064820152608401610bf3565b6001600160a01b0382166134035760405162461bcd60e51b815260206004820152602360248201527f45524332303a207472616e7366657220746f20746865207a65726f206164647260448201526265737360e81b6064820152608401610bf3565b61340e838383613f83565b6001600160a01b038316600090815260056020526040902054818110156134865760405162461bcd60e51b815260206004820152602660248201527f45524332303a207472616e7366657220616d6f756e7420657863656564732062604482015265616c616e636560d01b6064820152608401610bf3565b6001600160a01b0380851660008181526005602052604080822086860390559286168082529083902080548601905591517fddf252ad1be2c89b69c2b068fc378daa952ba7f163c4a11628f55a4df523b3ef906134e69086815260200190565b60405180910390a35b50505050565b6015805460018082019092557f55f448fdea98c4d29eb340757ef0a66cd03dbb9538908a6a81d96026b71ec475810180546001600160a01b03199081166001600160a01b039788169081179092556000828152601460205260409020938401929092558254600284018054909316959096169490941790556001600160a81b0319909316909117600160a01b91151591909102179055565b6135978282613fed565b60008281526001602052604090206119b79082614071565b6000805b602054811015611dc45782601760090182815481106135d4576135d4614d8c565b906000526020600020015403613632576020546135f2826001615004565b1015613628576020613605826001615004565b8154811061361557613615614d8c565b9060005260206000200154915050919050565b5050601f54919050565b8061363c81615017565b9150506135b3565b6000613651836000614086565b9050838111156136bf5760405162461bcd60e51b815260206004820152603360248201527f746865207265636f726420646174652063616e6e6f742062652061667465722060448201527274686520736574746c656d656e74206461746560681b6064820152608401610bf3565b8115806136cb57508382115b61373d5760405162461bcd60e51b815260206004820152603c60248201527f696e76616c6964206e6578742064617465207768656e2073657474696e67207460448201527f68652063757272656e7420736e617073686f74206461746574696d65000000006064820152608401610bf3565b600061374a856000614086565b90508280156137605761375d8186614086565b90505b6000828152600e6020526040902054156137cd5760405162461bcd60e51b815260206004820152602860248201527f44617465206f6620636f75706f6e206f72206d6174757269747920616c726561604482015267323c903a30b5b2b760c11b6064820152608401610bf3565b8442106138425760405162461bcd60e51b815260206004820152603d60248201527f796f75206861766520746f20646566696e652061206e657720706572696f642060448201527f656e64696e67206166746572207468652063757272656e742074696d650000006064820152608401610bf3565b61384a6140bd565b50600f859055601182905560108190556040518190869084907f4d1d74d5cbfc13e02ef05af3a30d8721e87a00d20bc3dc42198917139944def390600090a4505050505050565b60008060005b6020548110156139165783601760090182815481106138b8576138b8614d8c565b9060005260206000200154036138d2579360019350915050565b83601760090182815481106138e9576138e9614d8c565b90600052602060002001541115613904579360009350915050565b8061390e81615017565b915050613897565b505060205492600092509050565b6000613931426000614086565b82118015610bb95750506000908152600e60205260409020541590565b600061395942613891565b5060205490915060009081908310156139db57602080548490811061398057613980614d8c565b60009182526020918290200154905490925061399d846001615004565b10156139d25760206139b0846001615004565b815481106139c0576139c0614d8c565b906000526020600020015490506139e3565b50601f546139e3565b5050601f5460005b6021546134ef9083906139f69082615004565b83614182565b60125460009060ff1615613a5d5760405162461bcd60e51b815260206004820152602260248201527f666f72636520666c616720616c7265616479207365742c20636865636b20636f604482015261646560f01b6064820152608401610bf3565b506012805460ff1916600190811790915590565b6001600160a01b038216613ad15760405162461bcd60e51b815260206004820152602160248201527f45524332303a206275726e2066726f6d20746865207a65726f206164647265736044820152607360f81b6064820152608401610bf3565b613add82600083613f83565b6001600160a01b03821660009081526005602052604090205481811015613b515760405162461bcd60e51b815260206004820152602260248201527f45524332303a206275726e20616d6f756e7420657863656564732062616c616e604482015261636560f01b6064820152608401610bf3565b6001600160a01b03831660008181526005602090815260408083208686039055600780548790039055518581529192917fddf252ad1be2c89b69c2b068fc378daa952ba7f163c4a11628f55a4df523b3ef910160405180910390a3505050565b60008060008411613bfd5760405162461bcd60e51b815260206004820152601660248201527504552433230536e617073686f743a20696420697320360541b6044820152606401610bf3565b613c056141bf565b841115613c545760405162461bcd60e51b815260206004820152601d60248201527f4552433230536e617073686f743a206e6f6e6578697374656e742069640000006044820152606401610bf3565b6000613c6084866141ca565b84549091508103613c78576000809250925050613ca0565b6001846001018281548110613c8f57613c8f614d8c565b906000526020600020015492509250505b9250929050565b6000613cb4426000614086565b909111919050565b600061141f838361426b565b6001600160a01b038216613d1e5760405162461bcd60e51b815260206004820152601f60248201527f45524332303a206d696e7420746f20746865207a65726f2061646472657373006044820152606401610bf3565b613d2a60008383613f83565b8060076000828254613d3c9190615004565b90915550506001600160a01b0382166000818152600560209081526040808320805486019055518481527fddf252ad1be2c89b69c2b068fc378daa952ba7f163c4a11628f55a4df523b3ef910160405180910390a35050565b6000610bb9825490565b613da8826127c7565b15613db1575050565b6001600160a01b0382811660009081526014602052604090206002015416158015613de757613de2838360016134f5565b613e50565b6001600160a01b03838116600090815260146020526040902060020154811690831614613e265760405162461bcd60e51b8152600401610bf3906150bc565b6001600160a01b0383166000908152601460205260409020805460ff60a01b1916600160a01b1790555b6040516001600160a01b03841681527ff96a35a7272aecca4e6ac04b9ecbc33e3c2655f1fa104a4604d8f50370e6beb39060200160405180910390a1505050565b6000613eab60008051602061525383398151915233612295565b905090565b613eba8282612295565b15611557576000828152602081815260408083206001600160a01b0385168085529252808320805460ff1916905551339285917ff6391f5c32d9c69d2a47ea670b442974b53935d1edc7fd64eb21e047a839171b9190a45050565b600061141f836001600160a01b038416614295565b613f348282612295565b61155757613f4181614388565b613f4c83602061439a565b604051602001613f5d929190615108565b60408051601f198184030181529082905262461bcd60e51b8252610bf391600401614910565b600360165460ff166004811115613f9c57613f9c614a67565b03613fe25760405162461bcd60e51b81526020600482015260166024820152751d1a1948149959da5cdd195c881a5cc818db1bdcd95960521b6044820152606401610bf3565b6119b7838383614536565b613ff78282612295565b611557576000828152602081815260408083206001600160a01b03851684529091529020805460ff1916600117905561402d3390565b6001600160a01b0316816001600160a01b0316837f2f8788117e7eff1d82e926ec794901d17c78024a50270940304540a733656f0d60405160405180910390a45050565b600061141f836001600160a01b03841661465b565b6000806140966201518085615193565b90506140a28185614db8565b91506140b16201518084615193565b905061232c8183615004565b600080600f541180156140df57506011546000908152600e6020526040902054155b80156140ed5750600f544210155b1561417c5760006140fc6146aa565b6011546000908152600e6020526040902081905560105490915061412157600061412f565b61412f601054600f54614086565b600f81905561413f906000614086565b6011819055601054600f54604051919290917f4d1d74d5cbfc13e02ef05af3a30d8721e87a00d20bc3dc42198917139944def390600090a4919050565b50600090565b6000601154841461419d57614198848484613644565b612781565b6141aa6010546000614086565b821461278157612781601154600f5484613644565b6000613eab600d5490565b815460009081036141dd57506000610bb9565b82546000905b808210156142275760006141f78383614704565b905084614204878361471f565b54111561421357809150614221565b61421e816001615004565b92505b506141e3565b60008211801561424a57508361424786614242600186614db8565b61471f565b54145b156142635761425a600183614db8565b92505050610bb9565b509050610bb9565b600082600001828154811061428257614282614d8c565b9060005260206000200154905092915050565b6000818152600183016020526040812054801561437e5760006142b9600183614db8565b85549091506000906142cd90600190614db8565b90508181146143325760008660000182815481106142ed576142ed614d8c565b906000526020600020015490508087600001848154811061431057614310614d8c565b6000918252602080832090910192909255918252600188019052604090208390555b855486908061434357614343615030565b600190038181906000526020600020016000905590558560010160008681526020019081526020016000206000905560019350505050610bb9565b6000915050610bb9565b6060610bb96001600160a01b03831660145b606060006143a98360026151a7565b6143b4906002615004565b67ffffffffffffffff8111156143cc576143cc61494d565b6040519080825280601f01601f1916602001820160405280156143f6576020820181803683370190505b509050600360fc1b8160008151811061441157614411614d8c565b60200101906001600160f81b031916908160001a905350600f60fb1b8160018151811061444057614440614d8c565b60200101906001600160f81b031916908160001a90535060006144648460026151a7565b61446f906001615004565b90505b60018111156144e7576f181899199a1a9b1b9c1cb0b131b232b360811b85600f16601081106144a3576144a3614d8c565b1a60f81b8282815181106144b9576144b9614d8c565b60200101906001600160f81b031916908160001a90535060049490941c936144e081615046565b9050614472565b50831561141f5760405162461bcd60e51b815260206004820181905260248201527f537472696e67733a20686578206c656e67746820696e73756666696369656e746044820152606401610bf3565b60125460ff1615614550576012805460ff19169055614647565b6000600f54116145e05760405162461bcd60e51b815260206004820152604f60248201527f746865207265676973746572206973206c6f636b65642062656361757365206e60448201527f6f20636f75706f6e206973207072657061726564206f7220746865206d61747560648201526e1c9a5d1e481a5cc81c995858da1959608a1b608482015260a401610bf3565b600f544210614647576000601054116146475760405162461bcd60e51b8152602060048201526024808201527f746865206d61747572697479206375742d6f66662074696d65206861732070616044820152631cdcd95960e21b6064820152608401610bf3565b61464f6140bd565b506119b7838383614730565b60008181526001830160205260408120546146a257508154600181810184556000848152602080822090930184905584548482528286019093526040902091909155610bb9565b506000610bb9565b60006146ba600d80546001019055565b60006146c46141bf565b90507f8030e83b04d87bef53480e26263266d6ca66863aa8506aca6f2559d18aa1cb67816040516146f791815260200190565b60405180910390a1919050565b600061471360028484186151be565b61141f90848416615004565b60008281526020812082018061232c565b6001600160a01b03831661474f5761474782614774565b6119b76147a7565b6001600160a01b0382166147665761474783614774565b61476f83614774565b6119b7825b6001600160a01b0381166000908152600a60209081526040808320600590925290912054610b9191906147b7565b6147b7565b6147b5600b6147a260075490565b565b60006147c16141bf565b9050806147cd84614801565b10156119b7578254600180820185556000858152602080822090930193909355938401805494850181558252902090910155565b8054600090810361481457506000919050565b8154829061482490600190614db8565b8154811061483457614834614d8c565b90600052602060002001549050919050565b919050565b80356001600160a01b038116811461484657600080fd5b60006020828403121561487457600080fd5b61141f8261484b565b60006020828403121561488f57600080fd5b81356001600160e01b03198116811461141f57600080fd5b6000602082840312156148b957600080fd5b5035919050565b60005b838110156148db5781810151838201526020016148c3565b50506000910152565b600081518084526148fc8160208601602086016148c0565b601f01601f19169290920160200192915050565b60208152600061141f60208301846148e4565b6000806040838503121561493657600080fd5b61493f8361484b565b946020939093013593505050565b634e487b7160e01b600052604160045260246000fd5b600082601f83011261497457600080fd5b813567ffffffffffffffff8082111561498f5761498f61494d565b604051601f8301601f19908116603f011681019082821181831017156149b7576149b761494d565b816040528381528660208588010111156149d057600080fd5b836020870160208301376000602085830101528094505050505092915050565b600080600080600080600080610100898b031215614a0d57600080fd5b883567ffffffffffffffff811115614a2457600080fd5b614a308b828c01614963565b9b60208b01359b5060408b01359a60608101359a506080810135995060a0810135985060c0810135975060e0013595509350505050565b634e487b7160e01b600052602160045260246000fd5b60058110614a9b57634e487b7160e01b600052602160045260246000fd5b9052565b60208101610bb98284614a7d565b600080600060608486031215614ac257600080fd5b614acb8461484b565b9250614ad96020850161484b565b9150604084013590509250925092565b60008060408385031215614afc57600080fd5b82359150614b0c6020840161484b565b90509250929050565b60008060408385031215614b2857600080fd5b50508035926020909101359150565b600060208284031215614b4957600080fd5b813567ffffffffffffffff811115614b6057600080fd5b61232c84828501614963565b600081518084526020808501945080840160005b83811015614b9c57815187529582019590820190600101614b80565b509495945050505050565b6020815260008251610160806020850152614bc66101808501836148e4565b91506020850151601f1980868503016040870152614be484836148e4565b93506040870151606087015260608701516080870152608087015160a087015260a087015160c087015260c087015160e087015260e08701519150610100828188015280880151925050610120828188015280880151925050610140818786030181880152614c538584614b6c565b970151959092019490945250929392505050565b6020808252825182820181905260009190848201906040850190845b81811015614ca85783516001600160a01b031683529284019291840191600101614c83565b50909695505050505050565b60008060408385031215614cc757600080fd5b614cd08361484b565b9150602083013567ffffffffffffffff811115614cec57600080fd5b614cf885828601614963565b9150509250929050565b60008060408385031215614d1557600080fd5b614d1e8361484b565b9150614b0c6020840161484b565b60208082526012908201527143616c6c6572206d7573742062652043414b60701b604082015260600190565b600181811c90821680614d6c57607f821691505b60208210810361288157634e487b7160e01b600052602260045260246000fd5b634e487b7160e01b600052603260045260246000fd5b634e487b7160e01b600052601160045260246000fd5b81810381811115610bb957610bb9614da2565b601f8211156119b757600081815260208120601f850160051c81016020861015614df25750805b601f850160051c820191505b81811015614e1157828155600101614dfe565b505050505050565b815167ffffffffffffffff811115614e3357614e3361494d565b614e4781614e418454614d58565b84614dcb565b602080601f831160018114614e7c5760008415614e645750858301515b600019600386901b1c1916600185901b178555614e11565b600085815260208120601f198616915b82811015614eab57888601518255948401946001909101908401614e8c565b5085821015614ec95787850151600019600388901b60f8161c191681555b5050505050600190811b01905550565b6020808252818101527f5468697320636f6e7472616374206973206e6f742077686974656c6973746564604082015260600190565b60008154614f1b81614d58565b808552602060018381168015614f385760018114614f5257614f80565b60ff1985168884015283151560051b880183019550614f80565b866000528260002060005b85811015614f785781548a8201860152908301908401614f5d565b890184019650505b505050505092915050565b606081526000614f9e6060830186614f0e565b8281036020840152614fb08186614f0e565b91505061232c6040830184614a7d565b60208082526024908201527f5573652066756e6374696f6e206368616e676541646d696e526f6c6520696e736040820152631d19585960e21b606082015260800190565b80820180821115610bb957610bb9614da2565b60006001820161502957615029614da2565b5060010190565b634e487b7160e01b600052603160045260246000fd5b60008161505557615055614da2565b506000190190565b60208082526026908201527f596f75206d7573742073657420746865206d696e74207265636569766572206160408201526564647265737360d01b606082015260800190565b6000602082840312156150b557600080fd5b5051919050565b6020808252602c908201527f6f6e6c792074686520637573746f6469616e2063616e20646973616c6c6f772060408201526b3a34329034b73b32b9ba37b960a11b606082015260800190565b7f416363657373436f6e74726f6c3a206163636f756e74200000000000000000008152600083516151408160178501602088016148c0565b7001034b99036b4b9b9b4b733903937b6329607d1b60179184019182015283516151718160288401602088016148c0565b01602801949350505050565b634e487b7160e01b600052601260045260246000fd5b6000826151a2576151a261517d565b500690565b8082028115828204841417610bb957610bb9614da2565b6000826151cd576151cd61517d565b50049056fed7aa2ddfa4e381128202bf365b7e0a176f2fca6cdf2f23c2b0a6f439376958906ba6f588bcdc2df8426603a466c98ab15e79f7fb7f37b53581ce39c1d01b7249da2010acfda7a262372331cb3b57e3f648f63eb009a423a2b5602cfa4f9bff51f698af62c65280e4949bceec64b760f3b7738217cbc536cdfc4c9463676b05c2a75205b8583660bdad375c0ccde11af17668d76a408a9a5e739251b0f7c59870a26469706673582212208b2b712e83953b7fe8d084fc1e6faf4d5744f91c40cdc8c113a1883ba5b5c07064736f6c63430008130033a75205b8583660bdad375c0ccde11af17668d76a408a9a5e739251b0f7c59870",
  "linkReferences": {},
  "deployedLinkReferences": {}
}