{
  "_format": "hh-sol-artifact-1",
  "contractName": "PrimaryIssuance",
  "sourceName": "contracts/trade/issuance/PrimaryIssuance.sol",
  "abi": [
    {
      "inputs": [],
      "name": "ERC20Base__ApproveFromZeroAddress",
      "type": "error"
    },
    {
      "inputs": [],
      "name": "ERC20Base__ApproveToZeroAddress",
      "type": "error"
    },
    {
      "inputs": [],
      "name": "ERC20Base__BurnExceedsBalance",
      "type": "error"
    },
    {
      "inputs": [],
      "name": "ERC20Base__BurnFromZeroAddress",
      "type": "error"
    },
    {
      "inputs": [],
      "name": "ERC20Base__InsufficientAllowance",
      "type": "error"
    },
    {
      "inputs": [],
      "name": "ERC20Base__MintToZeroAddress",
      "type": "error"
    },
    {
      "inputs": [],
      "name": "ERC20Base__TransferExceedsBalance",
      "type": "error"
    },
    {
      "inputs": [],
      "name": "ERC20Base__TransferFromZeroAddress",
      "type": "error"
    },
    {
      "inputs": [],
      "name": "ERC20Base__TransferToZeroAddress",
      "type": "error"
    },
    {
      "inputs": [],
      "name": "ERC20Snapshot__SnapshotIdDoesNotExists",
      "type": "error"
    },
    {
      "inputs": [],
      "name": "ERC20Snapshot__SnapshotIdIsZero",
      "type": "error"
    },
    {
      "inputs": [],
      "name": "EnumerableSet__IndexOutOfBounds",
      "type": "error"
    },
    {
      "inputs": [],
      "name": "ReentrancyGuard__ReentrantCall",
      "type": "error"
    },
    {
      "inputs": [],
      "name": "UintUtils__InsufficientHexLength",
      "type": "error"
    },
    {
      "anonymous": false,
      "inputs": [
        {
          "indexed": true,
          "internalType": "address",
          "name": "_addressForNewAdmin",
          "type": "address"
        }
      ],
      "name": "AdminChanged",
      "type": "event"
    },
    {
      "anonymous": false,
      "inputs": [
        {
          "indexed": true,
          "internalType": "address",
          "name": "owner",
          "type": "address"
        },
        {
          "indexed": true,
          "internalType": "address",
          "name": "spender",
          "type": "address"
        },
        {
          "indexed": false,
          "internalType": "uint256",
          "name": "value",
          "type": "uint256"
        }
      ],
      "name": "Approval",
      "type": "event"
    },
    {
      "anonymous": false,
      "inputs": [
        {
          "indexed": false,
          "internalType": "bytes32",
          "name": "contractHash",
          "type": "bytes32"
        }
      ],
      "name": "DisableContract",
      "type": "event"
    },
    {
      "anonymous": false,
      "inputs": [
        {
          "indexed": false,
          "internalType": "address",
          "name": "investor",
          "type": "address"
        }
      ],
      "name": "DisableInvestor",
      "type": "event"
    },
    {
      "anonymous": false,
      "inputs": [
        {
          "indexed": false,
          "internalType": "bytes32",
          "name": "contractHash",
          "type": "bytes32"
        }
      ],
      "name": "EnableContract",
      "type": "event"
    },
    {
      "anonymous": false,
      "inputs": [
        {
          "indexed": false,
          "internalType": "address",
          "name": "investor",
          "type": "address"
        }
      ],
      "name": "EnableInvestor",
      "type": "event"
    },
    {
      "anonymous": false,
      "inputs": [
        {
          "indexed": false,
          "internalType": "uint64",
          "name": "version",
          "type": "uint64"
        }
      ],
      "name": "Initialized",
      "type": "event"
    },
    {
      "anonymous": false,
      "inputs": [
        {
          "indexed": true,
          "internalType": "address",
          "name": "creator",
          "type": "address"
        },
        {
          "indexed": false,
          "internalType": "string",
          "name": "name",
          "type": "string"
        },
        {
          "indexed": false,
          "internalType": "string",
          "name": "isin",
          "type": "string"
        }
      ],
      "name": "NewBondDrafted",
      "type": "event"
    },
    {
      "anonymous": false,
      "inputs": [
        {
          "indexed": true,
          "internalType": "address",
          "name": "seller",
          "type": "address"
        },
        {
          "indexed": true,
          "internalType": "address",
          "name": "buyer",
          "type": "address"
        },
        {
          "indexed": true,
          "internalType": "enum ITradeInternal.TradeStatus",
          "name": "status",
          "type": "uint8"
        },
        {
          "indexed": false,
          "internalType": "uint256",
          "name": "quantity",
          "type": "uint256"
        }
      ],
      "name": "NotifyTrade",
      "type": "event"
    },
    {
      "anonymous": false,
      "inputs": [
        {
          "indexed": false,
          "internalType": "address",
          "name": "contractAddress",
          "type": "address"
        }
      ],
      "name": "PrimaryIssuanceCreated",
      "type": "event"
    },
    {
      "anonymous": false,
      "inputs": [
        {
          "indexed": true,
          "internalType": "address",
          "name": "sender",
          "type": "address"
        },
        {
          "indexed": true,
          "internalType": "address",
          "name": "target",
          "type": "address"
        },
        {
          "indexed": false,
          "internalType": "string",
          "name": "message",
          "type": "string"
        }
      ],
      "name": "PublicMessage",
      "type": "event"
    },
    {
      "anonymous": false,
      "inputs": [
        {
          "indexed": true,
          "internalType": "address",
          "name": "emiter",
          "type": "address"
        },
        {
          "indexed": false,
          "internalType": "string",
          "name": "name",
          "type": "string"
        },
        {
          "indexed": false,
          "internalType": "string",
          "name": "isin",
          "type": "string"
        },
        {
          "indexed": false,
          "internalType": "enum IRegisterMetadataInternal.Status",
          "name": "status",
          "type": "uint8"
        }
      ],
      "name": "RegisterStatusChanged",
      "type": "event"
    },
    {
      "anonymous": false,
      "inputs": [
        {
          "indexed": true,
          "internalType": "bytes32",
          "name": "role",
          "type": "bytes32"
        },
        {
          "indexed": true,
          "internalType": "bytes32",
          "name": "previousAdminRole",
          "type": "bytes32"
        },
        {
          "indexed": true,
          "internalType": "bytes32",
          "name": "newAdminRole",
          "type": "bytes32"
        }
      ],
      "name": "RoleAdminChanged",
      "type": "event"
    },
    {
      "anonymous": false,
      "inputs": [
        {
          "indexed": true,
          "internalType": "bytes32",
          "name": "role",
          "type": "bytes32"
        },
        {
          "indexed": true,
          "internalType": "address",
          "name": "account",
          "type": "address"
        },
        {
          "indexed": true,
          "internalType": "address",
          "name": "sender",
          "type": "address"
        }
      ],
      "name": "RoleGranted",
      "type": "event"
    },
    {
      "anonymous": false,
      "inputs": [
        {
          "indexed": true,
          "internalType": "bytes32",
          "name": "role",
          "type": "bytes32"
        },
        {
          "indexed": true,
          "internalType": "address",
          "name": "account",
          "type": "address"
        },
        {
          "indexed": true,
          "internalType": "address",
          "name": "sender",
          "type": "address"
        }
      ],
      "name": "RoleRevoked",
      "type": "event"
    },
    {
      "anonymous": false,
      "inputs": [
        {
          "indexed": false,
          "internalType": "uint256",
          "name": "id",
          "type": "uint256"
        }
      ],
      "name": "Snapshot",
      "type": "event"
    },
    {
      "anonymous": false,
      "inputs": [
        {
          "indexed": true,
          "internalType": "uint256",
          "name": "couponDate",
          "type": "uint256"
        },
        {
          "indexed": true,
          "internalType": "uint256",
          "name": "currentTimestamp",
          "type": "uint256"
        },
        {
          "indexed": true,
          "internalType": "uint256",
          "name": "nextTimestamp",
          "type": "uint256"
        }
      ],
      "name": "SnapshotTimestampChange",
      "type": "event"
    },
    {
      "anonymous": false,
      "inputs": [
        {
          "indexed": true,
          "internalType": "address",
          "name": "from",
          "type": "address"
        },
        {
          "indexed": true,
          "internalType": "address",
          "name": "to",
          "type": "address"
        },
        {
          "indexed": false,
          "internalType": "uint256",
          "name": "value",
          "type": "uint256"
        }
      ],
      "name": "Transfer",
      "type": "event"
    },
    {
      "anonymous": false,
      "inputs": [
        {
          "indexed": true,
          "internalType": "address",
          "name": "toBeAdded",
          "type": "address"
        }
      ],
      "name": "WalletAddedToWhitelist",
      "type": "event"
    },
    {
      "anonymous": false,
      "inputs": [
        {
          "indexed": true,
          "internalType": "address",
          "name": "toBeDeleted",
          "type": "address"
        }
      ],
      "name": "WalletDeletedFromWhitelist",
      "type": "event"
    },
    {
      "inputs": [],
      "name": "BND_ROLE",
      "outputs": [
        {
          "internalType": "bytes32",
          "name": "",
          "type": "bytes32"
        }
      ],
      "stateMutability": "view",
      "type": "function"
    },
    {
      "inputs": [],
      "name": "CAK_ROLE",
      "outputs": [
        {
          "internalType": "bytes32",
          "name": "",
          "type": "bytes32"
        }
      ],
      "stateMutability": "view",
      "type": "function"
    },
    {
      "inputs": [],
      "name": "CST_ROLE",
      "outputs": [
        {
          "internalType": "bytes32",
          "name": "",
          "type": "bytes32"
        }
      ],
      "stateMutability": "view",
      "type": "function"
    },
    {
      "inputs": [],
      "name": "PAY_ROLE",
      "outputs": [
        {
          "internalType": "bytes32",
          "name": "",
          "type": "bytes32"
        }
      ],
      "stateMutability": "view",
      "type": "function"
    },
    {
      "inputs": [],
      "name": "_account",
      "outputs": [
        {
          "internalType": "address",
          "name": "",
          "type": "address"
        }
      ],
      "stateMutability": "view",
      "type": "function"
    },
    {
      "inputs": [],
      "name": "_offerPrice",
      "outputs": [
        {
          "internalType": "uint256",
          "name": "",
          "type": "uint256"
        }
      ],
      "stateMutability": "view",
      "type": "function"
    },
    {
      "inputs": [],
      "name": "_register",
      "outputs": [
        {
          "internalType": "contract IRegister",
          "name": "",
          "type": "address"
        }
      ],
      "stateMutability": "view",
      "type": "function"
    },
    {
      "inputs": [
        {
          "internalType": "uint256",
          "name": "_couponDate",
          "type": "uint256"
        }
      ],
      "name": "_totalSupplyAtCoupon",
      "outputs": [
        {
          "internalType": "uint256",
          "name": "",
          "type": "uint256"
        }
      ],
      "stateMutability": "view",
      "type": "function"
    },
    {
      "inputs": [],
      "name": "account",
      "outputs": [
        {
          "internalType": "address",
          "name": "",
          "type": "address"
        }
      ],
      "stateMutability": "view",
      "type": "function"
    },
    {
      "inputs": [
        {
          "internalType": "address",
          "name": "holder",
          "type": "address"
        },
        {
          "internalType": "address",
          "name": "spender",
          "type": "address"
        }
      ],
      "name": "allowance",
      "outputs": [
        {
          "internalType": "uint256",
          "name": "",
          "type": "uint256"
        }
      ],
      "stateMutability": "view",
      "type": "function"
    },
    {
      "inputs": [
        {
          "internalType": "address",
          "name": "spender",
          "type": "address"
        },
        {
          "internalType": "uint256",
          "name": "amount",
          "type": "uint256"
        }
      ],
      "name": "approve",
      "outputs": [
        {
          "internalType": "bool",
          "name": "",
          "type": "bool"
        }
      ],
      "stateMutability": "nonpayable",
      "type": "function"
    },
    {
      "inputs": [
        {
          "internalType": "address",
          "name": "account",
          "type": "address"
        }
      ],
      "name": "balanceOf",
      "outputs": [
        {
          "internalType": "uint256",
          "name": "",
          "type": "uint256"
        }
      ],
      "stateMutability": "view",
      "type": "function"
    },
    {
      "inputs": [
        {
          "internalType": "address",
          "name": "account",
          "type": "address"
        },
        {
          "internalType": "uint256",
          "name": "snapshotId",
          "type": "uint256"
        }
      ],
      "name": "balanceOfAt",
      "outputs": [
        {
          "internalType": "uint256",
          "name": "",
          "type": "uint256"
        }
      ],
      "stateMutability": "view",
      "type": "function"
    },
    {
      "inputs": [],
      "name": "buyerAccount",
      "outputs": [
        {
          "internalType": "address",
          "name": "",
          "type": "address"
        }
      ],
      "stateMutability": "view",
      "type": "function"
    },
    {
      "inputs": [],
      "name": "decimals",
      "outputs": [
        {
          "internalType": "uint8",
          "name": "",
          "type": "uint8"
        }
      ],
      "stateMutability": "view",
      "type": "function"
    },
    {
      "inputs": [],
      "name": "getDetails",
      "outputs": [
        {
          "components": [
            {
              "internalType": "uint256",
              "name": "quantity",
              "type": "uint256"
            },
            {
              "internalType": "address",
              "name": "buyer",
              "type": "address"
            },
            {
              "internalType": "uint256",
              "name": "tradeDate",
              "type": "uint256"
            },
            {
              "internalType": "uint256",
              "name": "valueDate",
              "type": "uint256"
            },
            {
              "internalType": "uint256",
              "name": "price",
              "type": "uint256"
            }
          ],
          "internalType": "struct ITradeInternal.TradeDetail",
          "name": "",
          "type": "tuple"
        }
      ],
      "stateMutability": "view",
      "type": "function"
    },
    {
      "inputs": [
        {
          "internalType": "bytes32",
          "name": "role",
          "type": "bytes32"
        }
      ],
      "name": "getRoleAdmin",
      "outputs": [
        {
          "internalType": "bytes32",
          "name": "",
          "type": "bytes32"
        }
      ],
      "stateMutability": "view",
      "type": "function"
    },
    {
      "inputs": [
        {
          "internalType": "bytes32",
          "name": "role",
          "type": "bytes32"
        },
        {
          "internalType": "uint256",
          "name": "index",
          "type": "uint256"
        }
      ],
      "name": "getRoleMember",
      "outputs": [
        {
          "internalType": "address",
          "name": "",
          "type": "address"
        }
      ],
      "stateMutability": "view",
      "type": "function"
    },
    {
      "inputs": [
        {
          "internalType": "bytes32",
          "name": "role",
          "type": "bytes32"
        }
      ],
      "name": "getRoleMemberCount",
      "outputs": [
        {
          "internalType": "uint256",
          "name": "",
          "type": "uint256"
        }
      ],
      "stateMutability": "view",
      "type": "function"
    },
    {
      "inputs": [
        {
          "internalType": "bytes32",
          "name": "role",
          "type": "bytes32"
        },
        {
          "internalType": "address",
          "name": "account",
          "type": "address"
        }
      ],
      "name": "grantRole",
      "outputs": [],
      "stateMutability": "nonpayable",
      "type": "function"
    },
    {
      "inputs": [
        {
          "internalType": "bytes32",
          "name": "role",
          "type": "bytes32"
        },
        {
          "internalType": "address",
          "name": "account",
          "type": "address"
        }
      ],
      "name": "hasRole",
      "outputs": [
        {
          "internalType": "bool",
          "name": "",
          "type": "bool"
        }
      ],
      "stateMutability": "view",
      "type": "function"
    },
    {
      "inputs": [
        {
          "internalType": "address",
          "name": "forwarder",
          "type": "address"
        }
      ],
      "name": "isTrustedForwarder",
      "outputs": [
        {
          "internalType": "bool",
          "name": "",
          "type": "bool"
        }
      ],
      "stateMutability": "view",
      "type": "function"
    },
    {
      "inputs": [],
      "name": "name",
      "outputs": [
        {
          "internalType": "string",
          "name": "",
          "type": "string"
        }
      ],
      "stateMutability": "view",
      "type": "function"
    },
    {
      "inputs": [],
      "name": "offerPrice",
      "outputs": [
        {
          "internalType": "uint256",
          "name": "",
          "type": "uint256"
        }
      ],
      "stateMutability": "view",
      "type": "function"
    },
    {
      "inputs": [],
      "name": "paymentID",
      "outputs": [
        {
          "internalType": "bytes8",
          "name": "",
          "type": "bytes8"
        }
      ],
      "stateMutability": "view",
      "type": "function"
    },
    {
      "inputs": [],
      "name": "primaryIssuanceAccount",
      "outputs": [
        {
          "internalType": "address",
          "name": "",
          "type": "address"
        }
      ],
      "stateMutability": "view",
      "type": "function"
    },
    {
      "inputs": [],
      "name": "register",
      "outputs": [
        {
          "internalType": "contract IRegister",
          "name": "",
          "type": "address"
        }
      ],
      "stateMutability": "view",
      "type": "function"
    },
    {
      "inputs": [],
      "name": "reject",
      "outputs": [],
      "stateMutability": "nonpayable",
      "type": "function"
    },
    {
      "inputs": [
        {
          "internalType": "bytes32",
          "name": "role",
          "type": "bytes32"
        }
      ],
      "name": "renounceRole",
      "outputs": [],
      "stateMutability": "nonpayable",
      "type": "function"
    },
    {
      "inputs": [
        {
          "internalType": "bytes32",
          "name": "role",
          "type": "bytes32"
        },
        {
          "internalType": "address",
          "name": "account",
          "type": "address"
        }
      ],
      "name": "revokeRole",
      "outputs": [],
      "stateMutability": "nonpayable",
      "type": "function"
    },
    {
      "inputs": [],
      "name": "sellerAccount",
      "outputs": [
        {
          "internalType": "address",
          "name": "",
          "type": "address"
        }
      ],
      "stateMutability": "view",
      "type": "function"
    },
    {
      "inputs": [],
      "name": "status",
      "outputs": [
        {
          "internalType": "enum ITradeInternal.TradeStatus",
          "name": "",
          "type": "uint8"
        }
      ],
      "stateMutability": "view",
      "type": "function"
    },
    {
      "inputs": [],
      "name": "symbol",
      "outputs": [
        {
          "internalType": "string",
          "name": "",
          "type": "string"
        }
      ],
      "stateMutability": "view",
      "type": "function"
    },
    {
      "inputs": [],
      "name": "totalSupply",
      "outputs": [
        {
          "internalType": "uint256",
          "name": "",
          "type": "uint256"
        }
      ],
      "stateMutability": "view",
      "type": "function"
    },
    {
      "inputs": [
        {
          "internalType": "uint256",
          "name": "snapshotId",
          "type": "uint256"
        }
      ],
      "name": "totalSupplyAt",
      "outputs": [
        {
          "internalType": "uint256",
          "name": "",
          "type": "uint256"
        }
      ],
      "stateMutability": "view",
      "type": "function"
    },
    {
      "inputs": [
        {
          "internalType": "address",
          "name": "recipient",
          "type": "address"
        },
        {
          "internalType": "uint256",
          "name": "amount",
          "type": "uint256"
        }
      ],
      "name": "transfer",
      "outputs": [
        {
          "internalType": "bool",
          "name": "",
          "type": "bool"
        }
      ],
      "stateMutability": "nonpayable",
      "type": "function"
    },
    {
      "inputs": [
        {
          "internalType": "address",
          "name": "holder",
          "type": "address"
        },
        {
          "internalType": "address",
          "name": "recipient",
          "type": "address"
        },
        {
          "internalType": "uint256",
          "name": "amount",
          "type": "uint256"
        }
      ],
      "name": "transferFrom",
      "outputs": [
        {
          "internalType": "bool",
          "name": "",
          "type": "bool"
        }
      ],
      "stateMutability": "nonpayable",
      "type": "function"
    },
    {
      "inputs": [],
      "name": "trustedForwarder",
      "outputs": [
        {
          "internalType": "address",
          "name": "",
          "type": "address"
        }
      ],
      "stateMutability": "view",
      "type": "function"
    },
    {
      "inputs": [],
      "name": "validate",
      "outputs": [],
      "stateMutability": "nonpayable",
      "type": "function"
    }
  ],
  "bytecode": "0x608060405234801561000f575f80fd5b50612e788061001d5f395ff3fe608060405234801561000f575f80fd5b506004361061029d575f3560e01c80634ee2cd7e116101715780639010d07c116100d2578063ca15c87311610088578063d84ffb411161006e578063d84ffb41146105a4578063dd62ed3e146105d7578063fbbf93a0146105ea575f80fd5b8063ca15c8731461057e578063d547741f14610591575f80fd5b806395d89b41116100b857806395d89b4114610550578063981b24d014610558578063a9059cbb1461056b575f80fd5b80639010d07c1461052a57806391d148541461053d575f80fd5b806370a08231116101275780638784ff181161010d5780638784ff18146104e85780638865f1e2146104f05780638bb9c5bf14610517575f80fd5b806370a08231146104c55780637da0a877146104d8575f80fd5b80635dab2420116101575780635dab2420146104875780636901f668146104bd578063696cd82c14610318575f80fd5b80634ee2cd7e14610497578063572b6c05146104aa575f80fd5b80632682ac911161021b5780633bf2a9f4116101d157806341b5ff72116101b757806341b5ff7214610460578063489147d7146104875780634dc415de1461048f575f80fd5b80633bf2a9f4146104265780633e0abded1461044d575f80fd5b8063313ce56711610201578063313ce567146103e05780633610aca1146103ee5780633bf19e291461041e575f80fd5b80632682ac91146103a45780632f2ff15d146103cb575f80fd5b80631aa3a00811610270578063200d2ed211610256578063200d2ed21461034557806323b872dd1461037e578063248a9ca314610391575f80fd5b80631aa3a008146103185780631c67a3631461031e575f80fd5b806306fdde03146102a1578063095ea7b3146102bf57806310547851146102e257806318160ddd14610302575b5f80fd5b6102a961063c565b6040516102b69190612a64565b60405180910390f35b6102d26102cd366004612ab1565b61064b565b60405190151581526020016102b6565b6102ea610667565b6040516001600160a01b0390911681526020016102b6565b61030a610699565b6040519081526020016102b6565b306102ea565b61030a7f6ba6f588bcdc2df8426603a466c98ab15e79f7fb7f37b53581ce39c1d01b724981565b7f8c1a510dd229d20456028b268298a0983b173203dde4af17997d240f180ec9e654600160a01b900460ff166040516102b69190612aed565b6102d261038c366004612b07565b6106c2565b61030a61039f366004612b40565b6106d8565b61030a7ff698af62c65280e4949bceec64b760f3b7738217cbc536cdfc4c9463676b05c281565b6103de6103d9366004612b57565b61070d565b005b6040515f81526020016102b6565b7f8c1a510dd229d20456028b268298a0983b173203dde4af17997d240f180ec9e3546001600160a01b03166102ea565b61030a610755565b61030a7fd7aa2ddfa4e381128202bf365b7e0a176f2fca6cdf2f23c2b0a6f4393769589081565b61030a61045b366004612b40565b61077e565b7f8c1a510dd229d20456028b268298a0983b173203dde4af17997d240f180ec9e55461030a565b6102ea6107eb565b6103de61081d565b61030a6104a5366004612ab1565b610827565b6102d26104b8366004612b81565b610832565b6103de610848565b61030a6104d3366004612b81565b610850565b5f546001600160a01b03166102ea565b6102ea61088c565b61030a7fa75205b8583660bdad375c0ccde11af17668d76a408a9a5e739251b0f7c5987081565b6103de610525366004612b40565b6108be565b6102ea610538366004612b9a565b6108ca565b6102d261054b366004612b57565b6108d5565b6102a96108e0565b61030a610566366004612b40565b6108ea565b6102d2610579366004612ab1565b6108f4565b61030a61058c366004612b40565b610907565b6103de61059f366004612b57565b610911565b6040517fffffffffffffffff0000000000000000000000000000000000000000000000003060c01b1681526020016102b6565b61030a6105e5366004612bba565b610954565b6105f261099f565b6040516102b691905f60a082019050825182526001600160a01b03602084015116602083015260408301516040830152606083015160608301526080830151608083015292915050565b60606106466109dd565b905090565b5f61065e610657610ab0565b8484610ab9565b90505b92915050565b5f6106467f8c1a510dd229d20456028b268298a0983b173203dde4af17997d240f180ec9e6546001600160a01b031690565b5f6106467fbbbdc1476a0878f2ef9a893c81f5b6f6ea1b3acaf18ff47ccb69cd4267d50c885490565b5f6106ce848484610bbf565b90505b9392505050565b5f8181527f2e59e4c2e927cdddbb64e181e0668d9a0fa70dd88f94d999cd87d5496a20da626020526040812060020154610661565b5f8281527f2e59e4c2e927cdddbb64e181e0668d9a0fa70dd88f94d999cd87d5496a20da6260205260409020600201546107468161104a565b610750838361105b565b505050565b5f6106467f8c1a510dd229d20456028b268298a0983b173203dde4af17997d240f180ec9e55490565b5f8181527f82e3548f398f9e7cce2049e6d440fc95dbd73177a40ca0c3ab538364268d38136020819052604082205480156107c4576107bc81611216565b949350505050565b7fbbbdc1476a0878f2ef9a893c81f5b6f6ea1b3acaf18ff47ccb69cd4267d50c88546107bc565b5f6106467f8c1a510dd229d20456028b268298a0983b173203dde4af17997d240f180ec9e3546001600160a01b031690565b610825611273565b565b5f61065e8383611418565b5f80546001600160a01b03838116911614610661565b6108256114ad565b6001600160a01b0381165f9081527fbbbdc1476a0878f2ef9a893c81f5b6f6ea1b3acaf18ff47ccb69cd4267d50c866020526040812054610661565b5f6106467f92772e537111f1c0e21a798208f79a3cb145ed385207d668c0a82bb719db43c2546001600160a01b031690565b6108c78161185b565b50565b5f61065e838361186c565b5f61065e83836118a2565b60606106466118d8565b5f61066182611216565b5f61065e610900610ab0565b8484611929565b5f61066182611abf565b5f8281527f2e59e4c2e927cdddbb64e181e0668d9a0fa70dd88f94d999cd87d5496a20da62602052604090206002015461094a8161104a565b6107508383611af4565b6001600160a01b038083165f9081527fbbbdc1476a0878f2ef9a893c81f5b6f6ea1b3acaf18ff47ccb69cd4267d50c876020908152604080832093851683529290529081205461065e565b6109d56040518060a001604052805f81526020015f6001600160a01b031681526020015f81526020015f81526020015f81525090565b610646611c9e565b7f92772e537111f1c0e21a798208f79a3cb145ed385207d668c0a82bb719db43b780546060917f92772e537111f1c0e21a798208f79a3cb145ed385207d668c0a82bb719db43b691610a2e90612be2565b80601f0160208091040260200160405190810160405280929190818152602001828054610a5a90612be2565b8015610aa55780601f10610a7c57610100808354040283529160200191610aa5565b820191905f5260205f20905b815481529060010190602001808311610a8857829003601f168201915b505050505091505090565b5f610646611dc5565b5f6001600160a01b038416610afa576040517f5a68b7ab00000000000000000000000000000000000000000000000000000000815260040160405180910390fd5b6001600160a01b038316610b3a576040517fc524160000000000000000000000000000000000000000000000000000000000815260040160405180910390fd5b6001600160a01b038481165f8181527fbbbdc1476a0878f2ef9a893c81f5b6f6ea1b3acaf18ff47ccb69cd4267d50c876020908152604080832094881680845294825291829020869055815186815291517f8c5be1e5ebec7d5bd14f71427d1e84f3dd0314c0f7b2291e5b200ac8c7c3b9259281900390910190a35060019392505050565b5f7f92772e537111f1c0e21a798208f79a3cb145ed385207d668c0a82bb719db43b6610c127fa75205b8583660bdad375c0ccde11af17668d76a408a9a5e739251b0f7c59870610c0d610ab0565b6118a2565b15610c2d57610c22858585611929565b5060019150506106d1565b610c3d610c38610ab0565b611dce565b610c8e5760405162461bcd60e51b815260206004820181905260248201527f5468697320636f6e7472616374206973206e6f742077686974656c697374656460448201526064015b60405180910390fd5b6004815460ff166004811115610ca657610ca6612ad9565b03610d195760405162461bcd60e51b815260206004820152603360248201527f4e6f207472616e736665722063616e20626520646f6e65207768656e2074686560448201527f2072656769737465722069732046726f7a656e000000000000000000000000006064820152608401610c85565b6001815460ff166004811115610d3157610d31612ad9565b148015610d635750610d637ff698af62c65280e4949bceec64b760f3b7738217cbc536cdfc4c9463676b05c2856118a2565b8015610d7e5750600c8101546001600160a01b038681169116145b15610edf578054600260ff19909116811782557f92772e537111f1c0e21a798208f79a3cb145ed385207d668c0a82bb719db43c4805460018181019092557f85557345690608b4957b188f871bab8ded927f8a43545ebad43d0b58c8dda445810180546001600160a01b0389167fffffffffffffffffffffffff000000000000000000000000000000000000000091821681179092555f8281527f92772e537111f1c0e21a798208f79a3cb145ed385207d668c0a82bb719db43c36020526040902093840192909255825493830180549092169091557fffffffffffffffffffffff0000000000000000000000000000000000000000009092169091179055610e85610ab0565b81546040516001600160a01b0392909216917fda2010acfda7a262372331cb3b57e3f648f63eb009a423a2b5602cfa4f9bff5191610ed2916001860191600287019160ff90911690612cb9565b60405180910390a261103f565b610f26846001600160a01b03165f9081527f92772e537111f1c0e21a798208f79a3cb145ed385207d668c0a82bb719db43c36020526040902054600160a01b900460ff1690565b1515600114610f775760405162461bcd60e51b815260206004820152601b60248201527f546865207265636569766572206973206e6f7420616c6c6f77656400000000006044820152606401610c85565b610fbe856001600160a01b03165f9081527f92772e537111f1c0e21a798208f79a3cb145ed385207d668c0a82bb719db43c36020526040902054600160a01b900460ff1690565b151560011480610ff35750610ff37ff698af62c65280e4949bceec64b760f3b7738217cbc536cdfc4c9463676b05c2866118a2565b61103f5760405162461bcd60e51b815260206004820152601960248201527f5468652073656e646572206973206e6f7420616c6c6f776564000000000000006044820152606401610c85565b610c22858585611929565b6108c781611056610ab0565b611e13565b816110b95760405162461bcd60e51b8152602060048201526024808201527f5573652066756e6374696f6e206368616e676541646d696e526f6c6520696e736044820152631d19585960e21b6064820152608401610c85565b611208565b7fa75205b8583660bdad375c0ccde11af17668d76a408a9a5e739251b0f7c5987082036111905761110c7fa75205b8583660bdad375c0ccde11af17668d76a408a9a5e739251b0f7c59870610c0d610ab0565b8061111e575061111e5f610c0d610ab0565b6110b45760405162461bcd60e51b815260206004820152602e60248201527f43616c6c6572206d7573742062652043414b206f722041444d494e20746f207360448201527f657420616e6f746865722043414b0000000000000000000000000000000000006064820152608401610c85565b6111bc7fa75205b8583660bdad375c0ccde11af17668d76a408a9a5e739251b0f7c59870610c0d610ab0565b6112085760405162461bcd60e51b815260206004820181905260248201527f43616c6c6572206d7573742062652043414b20746f20736574206120726f6c656044820152606401610c85565b6112128282611e75565b5050565b5f8080611243847fcd7a55ef023eb5931cc022a9bdc64cb5b46c3a6e53bcaa84915eea6084f1c7b5611ef8565b91509150816106d1577fbbbdc1476a0878f2ef9a893c81f5b6f6ea1b3acaf18ff47ccb69cd4267d50c88546107bc565b7f8c1a510dd229d20456028b268298a0983b173203dde4af17997d240f180ec9e3547f8c1a510dd229d20456028b268298a0983b173203dde4af17997d240f180ec9e2906001600160a01b03166112c8610ab0565b6001600160a01b0316146113445760405162461bcd60e51b815260206004820152602360248201527f6f6e6c79207468652062656e6566696369617279204226442063616e2072657660448201527f65727400000000000000000000000000000000000000000000000000000000006064820152608401610c85565b60048101805460ff60a01b1981167402000000000000000000000000000000000000000017918290556001600160a01b03165f9081527fbbbdc1476a0878f2ef9a893c81f5b6f6ea1b3acaf18ff47ccb69cd4267d50c8660205260409020546002830155600160a01b900460ff1660058111156113c3576113c3612ad9565b6001820154600483015460028401546040519081526001600160a01b0392831692909116907fb04efa95c2e317d8afba4237350a971f1ce59ef6fbbf2eb3f1a7e3f3f106a8f49060200160405180910390a450565b5f808061145d847fcd7a55ef023eb5931cc022a9bdc64cb5b46c3a6e53bcaa84915eea6084f1c7b46001600160a01b0388165f90815260209190915260409020611ef8565b91509150816114a2576001600160a01b0385165f9081527fbbbdc1476a0878f2ef9a893c81f5b6f6ea1b3acaf18ff47ccb69cd4267d50c8660205260409020546114a4565b805b95945050505050565b7f85e1ca0cb738650ceae09b8e7a40cba718d04131dd54b748289da0a916d2f32154600203611508576040517fbb6b8f9a00000000000000000000000000000000000000000000000000000000815260040160405180910390fd5b61153160027f85e1ca0cb738650ceae09b8e7a40cba718d04131dd54b748289da0a916d2f32155565b7f8c1a510dd229d20456028b268298a0983b173203dde4af17997d240f180ec9e261156261155d610ab0565b612001565b6115ae5760405162461bcd60e51b815260206004820152601460248201527f53656e646572206d7573742062652061204226440000000000000000000000006044820152606401610c85565b60018101546001600160a01b03166115c4610ab0565b6001600160a01b0316146116405760405162461bcd60e51b815260206004820152602860248201527f6f6e6c79207468652062656e6566696369617279204226442073686f756c642060448201527f66696e616c697a650000000000000000000000000000000000000000000000006064820152608401610c85565b60036004820154600160a01b900460ff16600581111561166257611662612ad9565b1415801561168f5750600480820154600160a01b900460ff16600581111561168c5761168c612ad9565b14155b6117015760405162461bcd60e51b815260206004820152603160248201527f546865207072696d61727920636f6e74726163742073686f756c64206265206960448201527f6e20696e697469617465642073746174650000000000000000000000000000006064820152608401610c85565b60048101546001600160a01b03165f9081527fbbbdc1476a0878f2ef9a893c81f5b6f6ea1b3acaf18ff47ccb69cd4267d50c86602052604090205460028201819055156118315760048101546001820154600283015461176e926001600160a01b03908116921690610bbf565b6117ba5760405162461bcd60e51b815260206004820152601760248201527f746865207472616e7366657220686173206661696c65640000000000000000006044820152606401610c85565b6004810180547403000000000000000000000000000000000000000060ff60a01b19821617909155600182015460028301546040519081526003926001600160a01b039283169216907fb04efa95c2e317d8afba4237350a971f1ce59ef6fbbf2eb3f1a7e3f3f106a8f49060200160405180910390a45b5061082560017f85e1ca0cb738650ceae09b8e7a40cba718d04131dd54b748289da0a916d2f32155565b6108c781611867610ab0565b611af4565b5f8281527f2e59e4c2e927cdddbb64e181e0668d9a0fa70dd88f94d999cd87d5496a20da626020526040812061065e908361202c565b5f8281527f2e59e4c2e927cdddbb64e181e0668d9a0fa70dd88f94d999cd87d5496a20da626020526040812061065e9083612037565b7f92772e537111f1c0e21a798208f79a3cb145ed385207d668c0a82bb719db43b880546060917f92772e537111f1c0e21a798208f79a3cb145ed385207d668c0a82bb719db43b691610a2e90612be2565b5f6001600160a01b03841661196a576040517f68551d5f00000000000000000000000000000000000000000000000000000000815260040160405180910390fd5b6001600160a01b0383166119aa576040517f8289914400000000000000000000000000000000000000000000000000000000815260040160405180910390fd5b6119b5848484612058565b6001600160a01b0384165f9081527fbbbdc1476a0878f2ef9a893c81f5b6f6ea1b3acaf18ff47ccb69cd4267d50c86602081905260409091205480841115611a29576040517f7183160b00000000000000000000000000000000000000000000000000000000815260040160405180910390fd5b6001600160a01b038087165f90815260208490526040808220878503905591871681529081208054869290611a5f908490612d12565b92505081905550846001600160a01b0316866001600160a01b03167fddf252ad1be2c89b69c2b068fc378daa952ba7f163c4a11628f55a4df523b3ef86604051611aab91815260200190565b60405180910390a350600195945050505050565b5f8181527f2e59e4c2e927cdddbb64e181e0668d9a0fa70dd88f94d999cd87d5496a20da6260205260408120610661906121f1565b81611b4d5760405162461bcd60e51b8152602060048201526024808201527f5573652066756e6374696f6e206368616e676541646d696e526f6c6520696e736044820152631d19585960e21b6064820152608401610c85565b7fa75205b8583660bdad375c0ccde11af17668d76a408a9a5e739251b0f7c598708203611bf657611b805f610c0d610ab0565b611bf15760405162461bcd60e51b8152602060048201526024808201527f43616c6c6572206d7573742062652041444d494e20746f2072656d6f7665206160448201527f2043414b000000000000000000000000000000000000000000000000000000006064820152608401610c85565b611c94565b611c227fa75205b8583660bdad375c0ccde11af17668d76a408a9a5e739251b0f7c59870610c0d610ab0565b611c945760405162461bcd60e51b815260206004820152602360248201527f43616c6c6572206d7573742062652043414b20746f2072656d6f76652061207260448201527f6f6c6500000000000000000000000000000000000000000000000000000000006064820152608401610c85565b61121282826121fa565b611cd46040518060a001604052805f81526020015f6001600160a01b031681526020015f81526020015f81526020015f81525090565b6040805160a0810182527f8c1a510dd229d20456028b268298a0983b173203dde4af17997d240f180ec9e45481527f8c1a510dd229d20456028b268298a0983b173203dde4af17997d240f180ec9e3546001600160a01b031660208201527f8c1a510dd229d20456028b268298a0983b173203dde4af17997d240f180ec9e2915f91908101611d817f92772e537111f1c0e21a798208f79a3cb145ed385207d668c0a82bb719db43bd5490565b8152602001611dae7f92772e537111f1c0e21a798208f79a3cb145ed385207d668c0a82bb719db43be5490565b815260200183600301548152509050809250505090565b5f61064661227d565b5f7fad23b20a8d3b04b57ac5eefbd00cb491b7ef4801d0b23a5da6c241252ca912ce81611dfa846122af565b5f90815260209290925250604090205460ff1692915050565b611e1d82826118a2565b61121257611e33816001600160a01b03166122df565b611e3e8360206122f1565b604051602001611e4f929190612d25565b60408051601f198184030181529082905262461bcd60e51b8252610c8591600401612a64565b5f8281527f2e59e4c2e927cdddbb64e181e0668d9a0fa70dd88f94d999cd87d5496a20da6260205260409020611eab908261249c565b50611eb4610ab0565b6001600160a01b0316816001600160a01b0316837f2f8788117e7eff1d82e926ec794901d17c78024a50270940304540a733656f0d60405160405180910390a45050565b5f80835f03611f33576040517f6e6ae24700000000000000000000000000000000000000000000000000000000815260040160405180910390fd5b7fcd7a55ef023eb5931cc022a9bdc64cb5b46c3a6e53bcaa84915eea6084f1c7b7547fcd7a55ef023eb5931cc022a9bdc64cb5b46c3a6e53bcaa84915eea6084f1c7b490851115611fb0576040517f3609372a00000000000000000000000000000000000000000000000000000000815260040160405180910390fd5b5f611fbb85876124b0565b85549091508103611fd3575f80935093505050611ffa565b6001856001018281548110611fea57611fea612da5565b905f5260205f2001549350935050505b9250929050565b5f6106617ff698af62c65280e4949bceec64b760f3b7738217cbc536cdfc4c9463676b05c2836118a2565b5f61065e8383612552565b6001600160a01b0381165f908152600183016020526040812054151561065e565b7f82e3548f398f9e7cce2049e6d440fc95dbd73177a40ca0c3ab538364268d3817547f82e3548f398f9e7cce2049e6d440fc95dbd73177a40ca0c3ab538364268d38139060ff16156120b55760048101805460ff191690556121d7565b5f8160010154116121545760405162461bcd60e51b815260206004820152604f60248201527f746865207265676973746572206973206c6f636b65642062656361757365206e60448201527f6f20636f75706f6e206973207072657061726564206f7220746865206d61747560648201527f7269747920697320726561636865640000000000000000000000000000000000608482015260a401610c85565b806001015442106121d7575f8160020154116121d75760405162461bcd60e51b8152602060048201526024808201527f746865206d61747572697479206375742d6f66662074696d652068617320706160448201527f73736564000000000000000000000000000000000000000000000000000000006064820152608401610c85565b6121df6125b3565b506121eb8484846126c9565b50505050565b5f610661825490565b5f8281527f2e59e4c2e927cdddbb64e181e0668d9a0fa70dd88f94d999cd87d5496a20da62602052604090206122309082612711565b50612239610ab0565b6001600160a01b0316816001600160a01b0316837ff6391f5c32d9c69d2a47ea670b442974b53935d1edc7fd64eb21e047a839171b60405160405180910390a45050565b5f80546001600160a01b031633148015612298575060143610155b156122aa575060131936013560601c90565b503390565b60408051603f833b908101601f191682019092528181525f91808360208401863c50805160209091012092915050565b60606106616001600160a01b03831660145b60605f6122ff836002612db9565b61230a906002612d12565b67ffffffffffffffff81111561232257612322612dd0565b6040519080825280601f01601f19166020018201604052801561234c576020820181803683370190505b5090507f3000000000000000000000000000000000000000000000000000000000000000815f8151811061238257612382612da5565b60200101906001600160f81b03191690815f1a9053507f7800000000000000000000000000000000000000000000000000000000000000816001815181106123cc576123cc612da5565b60200101906001600160f81b03191690815f1a905350600160028402015b6001811115612463577f303132333435363738396162636465660000000000000000000000000000000085600f166010811061242857612428612da5565b1a60f81b82828151811061243e5761243e612da5565b60200101906001600160f81b03191690815f1a90535060049490941c935f19016123ea565b50831561065e576040517fc913478500000000000000000000000000000000000000000000000000000000815260040160405180910390fd5b5f61065e836001600160a01b038416612725565b81545f9081036124c157505f610661565b82545f905b80821015612512575f81831682841860011c019050848682815481106124ee576124ee612da5565b905f5260205f20015411156125055780915061250c565b8060010192505b506124c6565b5f8211801561253d57508385600184038154811061253257612532612da5565b905f5260205f200154145b61254757816114a4565b505f19019392505050565b81545f90821061258e576040517fe637bf3b00000000000000000000000000000000000000000000000000000000815260040160405180910390fd5b825f0182815481106125a2576125a2612da5565b905f5260205f200154905092915050565b7f82e3548f398f9e7cce2049e6d440fc95dbd73177a40ca0c3ab538364268d3814545f907f82e3548f398f9e7cce2049e6d440fc95dbd73177a40ca0c3ab538364268d38139015801590612617575060038101545f90815260208290526040902054155b8015612627575080600101544210155b156126c2575f612635612766565b60038301545f908152602084905260409020819055600283015490915061265c575f61266e565b61266e826002015483600101546127fb565b6001830181905561267f905f6127fb565b6003830181905560028301546001840154604051919290917f4d1d74d5cbfc13e02ef05af3a30d8721e87a00d20bc3dc42198917139944def3905f90a492915050565b5f91505090565b6001600160a01b0383166126e8576126e082612831565b6107506128a1565b6001600160a01b0382166126ff576126e083612831565b61270882612831565b61075083612831565b5f61065e836001600160a01b0384166128ed565b5f81815260018301602052604081205461066157508154600180820184555f8481526020808220909301849055845493815293810190915260409092205590565b7fcd7a55ef023eb5931cc022a9bdc64cb5b46c3a6e53bcaa84915eea6084f1c7b780545f917fcd7a55ef023eb5931cc022a9bdc64cb5b46c3a6e53bcaa84915eea6084f1c7b49190836127b883612de4565b909155505060038101546040518181527f8030e83b04d87bef53480e26263266d6ca66863aa8506aca6f2559d18aa1cb679060200160405180910390a192915050565b5f8061280a6201518085612dfc565b90506128168185612e1b565b91506128256201518084612dfc565b90506107bc8183612d12565b6001600160a01b0381165f9081527fcd7a55ef023eb5931cc022a9bdc64cb5b46c3a6e53bcaa84915eea6084f1c7b4602090815260408083207fbbbdc1476a0878f2ef9a893c81f5b6f6ea1b3acaf18ff47ccb69cd4267d50c86909252909120546108c791906129a5565b6129a5565b6108257fcd7a55ef023eb5931cc022a9bdc64cb5b46c3a6e53bcaa84915eea6084f1c7b561289c7fbbbdc1476a0878f2ef9a893c81f5b6f6ea1b3acaf18ff47ccb69cd4267d50c885490565b5f818152600183016020526040812054801561299e5783545f9085905f19810190811061291c5761291c612da5565b905f5260205f200154905080855f01600184038154811061293f5761293f612da5565b5f91825260208083209091019290925591825260018601905260409020819055835484908061297057612970612e2e565b600190038181905f5260205f20015f90559055836001015f8481526020019081526020015f205f9055600191505b5092915050565b7fcd7a55ef023eb5931cc022a9bdc64cb5b46c3a6e53bcaa84915eea6084f1c7b754806129d184612a04565b1015610750578254600180820185555f858152602080822090930193909355938401805494850181558252902090910155565b80545f9015612a3b5781548290612a1d90600190612e1b565b81548110612a2d57612a2d612da5565b905f5260205f200154610661565b5f92915050565b5f5b83811015612a5c578181015183820152602001612a44565b50505f910152565b602081525f8251806020840152612a82816040850160208701612a42565b601f01601f19169190910160400192915050565b80356001600160a01b0381168114612aac575f80fd5b919050565b5f8060408385031215612ac2575f80fd5b612acb83612a96565b946020939093013593505050565b634e487b7160e01b5f52602160045260245ffd5b6020810160068310612b0157612b01612ad9565b91905290565b5f805f60608486031215612b19575f80fd5b612b2284612a96565b9250612b3060208501612a96565b9150604084013590509250925092565b5f60208284031215612b50575f80fd5b5035919050565b5f8060408385031215612b68575f80fd5b82359150612b7860208401612a96565b90509250929050565b5f60208284031215612b91575f80fd5b61065e82612a96565b5f8060408385031215612bab575f80fd5b50508035926020909101359150565b5f8060408385031215612bcb575f80fd5b612bd483612a96565b9150612b7860208401612a96565b600181811c90821680612bf657607f821691505b602082108103612c1457634e487b7160e01b5f52602260045260245ffd5b50919050565b80545f90600181811c9080831680612c3357607f831692505b60208084108203612c5257634e487b7160e01b5f52602260045260245ffd5b83885260208801828015612c6d5760018114612c8357612cac565b60ff198716825285151560051b82019750612cac565b5f898152602090205f5b87811015612ca657815484820152908601908401612c8d565b83019850505b5050505050505092915050565b606081525f612ccb6060830186612c1a565b8281036020840152612cdd8186612c1a565b91505060058310612cf057612cf0612ad9565b826040830152949350505050565b634e487b7160e01b5f52601160045260245ffd5b8082018082111561066157610661612cfe565b7f416363657373436f6e74726f6c3a206163636f756e742000000000000000000081525f8351612d5c816017850160208801612a42565b7f206973206d697373696e6720726f6c65200000000000000000000000000000006017918401918201528351612d99816028840160208801612a42565b01602801949350505050565b634e487b7160e01b5f52603260045260245ffd5b808202811582820484141761066157610661612cfe565b634e487b7160e01b5f52604160045260245ffd5b5f60018201612df557612df5612cfe565b5060010190565b5f82612e1657634e487b7160e01b5f52601260045260245ffd5b500690565b8181038181111561066157610661612cfe565b634e487b7160e01b5f52603160045260245ffdfea26469706673582212201be082fd9669547961ac2a425fa4c4990b86d1654daa0fb96b1fc69b202a8ded64736f6c63430008140033",
  "linkReferences": {},
  "deployedLinkReferences": {}
}