{
  "_format": "hh-sol-artifact-1",
  "contractName": "EnumerableSetBytes32Mock",
  "sourceName": "contracts/data/EnumerableSetBytes32Mock.sol",
  "abi": [
    {
      "inputs": [],
      "name": "EnumerableSet__IndexOutOfBounds",
      "type": "error"
    },
    {
      "inputs": [
        {
          "internalType": "bytes32",
          "name": "value",
          "type": "bytes32"
        }
      ],
      "name": "add",
      "outputs": [
        {
          "internalType": "bool",
          "name": "",
          "type": "bool"
        }
      ],
      "stateMutability": "nonpayable",
      "type": "function"
    },
    {
      "inputs": [
        {
          "internalType": "uint256",
          "name": "index",
          "type": "uint256"
        }
      ],
      "name": "at",
      "outputs": [
        {
          "internalType": "bytes32",
          "name": "",
          "type": "bytes32"
        }
      ],
      "stateMutability": "view",
      "type": "function"
    },
    {
      "inputs": [
        {
          "internalType": "bytes32",
          "name": "value",
          "type": "bytes32"
        }
      ],
      "name": "contains",
      "outputs": [
        {
          "internalType": "bool",
          "name": "",
          "type": "bool"
        }
      ],
      "stateMutability": "view",
      "type": "function"
    },
    {
      "inputs": [
        {
          "internalType": "bytes32",
          "name": "value",
          "type": "bytes32"
        }
      ],
      "name": "indexOf",
      "outputs": [
        {
          "internalType": "uint256",
          "name": "",
          "type": "uint256"
        }
      ],
      "stateMutability": "view",
      "type": "function"
    },
    {
      "inputs": [],
      "name": "length",
      "outputs": [
        {
          "internalType": "uint256",
          "name": "",
          "type": "uint256"
        }
      ],
      "stateMutability": "view",
      "type": "function"
    },
    {
      "inputs": [
        {
          "internalType": "bytes32",
          "name": "value",
          "type": "bytes32"
        }
      ],
      "name": "remove",
      "outputs": [
        {
          "internalType": "bool",
          "name": "",
          "type": "bool"
        }
      ],
      "stateMutability": "nonpayable",
      "type": "function"
    },
    {
      "inputs": [],
      "name": "toArray",
      "outputs": [
        {
          "internalType": "bytes32[]",
          "name": "",
          "type": "bytes32[]"
        }
      ],
      "stateMutability": "view",
      "type": "function"
    }
  ],
  "bytecode": "0x608060405234801561000f575f80fd5b506104388061001d5f395ff3fe608060405234801561000f575f80fd5b506004361061007a575f3560e01c80636f4ce56a116100585780636f4ce56a146100cf578063908ff303146100e257806395bc2673146100f7578063e0886f901461010a575f80fd5b80631d1a696d1461007e5780631f7b6d32146100a6578063446bffba146100bc575b5f80fd5b61009161008c366004610380565b61011d565b60405190151581526020015b60405180910390f35b6100ae61012e565b60405190815260200161009d565b6100916100ca366004610380565b61013d565b6100ae6100dd366004610380565b610148565b6100ea610153565b60405161009d9190610397565b610091610105366004610380565b61015e565b6100ae610118366004610380565b610169565b5f6101288183610174565b92915050565b5f6101385f61018e565b905090565b5f6101288183610197565b5f61012881836101a2565b60606101385f6101ba565b5f6101288183610210565b5f610128818361021b565b5f81815260018301602052604081205415155b9392505050565b5f610128825490565b5f6101878383610226565b5f8181526001830160205260408120545f1901610187565b805460408051602080840282018101909252828152606092909184919083018282801561020457602002820191905f5260205f20905b8154815260200190600101908083116101f0575b50505050509050919050565b5f6101878383610267565b5f610187838361031f565b5f81815260018301602052604081205461012857508154600180820184555f8481526020808220909301849055845493815293810190915260409092205590565b5f81815260018301602052604081205480156103185783545f9085905f198101908110610296576102966103da565b905f5260205f200154905080855f0160018403815481106102b9576102b96103da565b5f9182526020808320909101929092559182526001860190526040902081905583548490806102ea576102ea6103ee565b600190038181905f5260205f20015f90559055836001015f8481526020019081526020015f205f9055600191505b5092915050565b81545f90821061035b576040517fe637bf3b00000000000000000000000000000000000000000000000000000000815260040160405180910390fd5b825f01828154811061036f5761036f6103da565b905f5260205f200154905092915050565b5f60208284031215610390575f80fd5b5035919050565b602080825282518282018190525f9190848201906040850190845b818110156103ce578351835292840192918401916001016103b2565b50909695505050505050565b634e487b7160e01b5f52603260045260245ffd5b634e487b7160e01b5f52603160045260245ffdfea26469706673582212204e9129f7ba5d92b4911bcc5aa0308e1e28e51431f12da739e17cdecf1ee3a15e64736f6c63430008140033",
  "linkReferences": {},
  "deployedLinkReferences": {}
}