{
  "_format": "hh-sol-artifact-1",
  "contractName": "InvestorManagement",
  "sourceName": "contracts/register/investors/InvestorManagement.sol",
  "abi": [
    {
      "inputs": [],
      "name": "EnumerableSet__IndexOutOfBounds",
      "type": "error"
    },
    {
      "inputs": [],
      "name": "UintUtils__InsufficientHexLength",
      "type": "error"
    },
    {
      "anonymous": false,
      "inputs": [
        {
          "indexed": true,
          "internalType": "address",
          "name": "_addressForNewAdmin",
          "type": "address"
        }
      ],
      "name": "AdminChanged",
      "type": "event"
    },
    {
      "anonymous": false,
      "inputs": [
        {
          "indexed": false,
          "internalType": "address",
          "name": "investor",
          "type": "address"
        }
      ],
      "name": "DisableInvestor",
      "type": "event"
    },
    {
      "anonymous": false,
      "inputs": [
        {
          "indexed": false,
          "internalType": "address",
          "name": "investor",
          "type": "address"
        }
      ],
      "name": "EnableInvestor",
      "type": "event"
    },
    {
      "anonymous": false,
      "inputs": [
        {
          "indexed": false,
          "internalType": "uint64",
          "name": "version",
          "type": "uint64"
        }
      ],
      "name": "Initialized",
      "type": "event"
    },
    {
      "anonymous": false,
      "inputs": [
        {
          "indexed": true,
          "internalType": "bytes32",
          "name": "role",
          "type": "bytes32"
        },
        {
          "indexed": true,
          "internalType": "bytes32",
          "name": "previousAdminRole",
          "type": "bytes32"
        },
        {
          "indexed": true,
          "internalType": "bytes32",
          "name": "newAdminRole",
          "type": "bytes32"
        }
      ],
      "name": "RoleAdminChanged",
      "type": "event"
    },
    {
      "anonymous": false,
      "inputs": [
        {
          "indexed": true,
          "internalType": "bytes32",
          "name": "role",
          "type": "bytes32"
        },
        {
          "indexed": true,
          "internalType": "address",
          "name": "account",
          "type": "address"
        },
        {
          "indexed": true,
          "internalType": "address",
          "name": "sender",
          "type": "address"
        }
      ],
      "name": "RoleGranted",
      "type": "event"
    },
    {
      "anonymous": false,
      "inputs": [
        {
          "indexed": true,
          "internalType": "bytes32",
          "name": "role",
          "type": "bytes32"
        },
        {
          "indexed": true,
          "internalType": "address",
          "name": "account",
          "type": "address"
        },
        {
          "indexed": true,
          "internalType": "address",
          "name": "sender",
          "type": "address"
        }
      ],
      "name": "RoleRevoked",
      "type": "event"
    },
    {
      "anonymous": false,
      "inputs": [
        {
          "indexed": true,
          "internalType": "address",
          "name": "toBeAdded",
          "type": "address"
        }
      ],
      "name": "WalletAddedToWhitelist",
      "type": "event"
    },
    {
      "anonymous": false,
      "inputs": [
        {
          "indexed": true,
          "internalType": "address",
          "name": "toBeDeleted",
          "type": "address"
        }
      ],
      "name": "WalletDeletedFromWhitelist",
      "type": "event"
    },
    {
      "inputs": [],
      "name": "BND_ROLE",
      "outputs": [
        {
          "internalType": "bytes32",
          "name": "",
          "type": "bytes32"
        }
      ],
      "stateMutability": "view",
      "type": "function"
    },
    {
      "inputs": [],
      "name": "CAK_ROLE",
      "outputs": [
        {
          "internalType": "bytes32",
          "name": "",
          "type": "bytes32"
        }
      ],
      "stateMutability": "view",
      "type": "function"
    },
    {
      "inputs": [],
      "name": "CST_ROLE",
      "outputs": [
        {
          "internalType": "bytes32",
          "name": "",
          "type": "bytes32"
        }
      ],
      "stateMutability": "view",
      "type": "function"
    },
    {
      "inputs": [],
      "name": "PAY_ROLE",
      "outputs": [
        {
          "internalType": "bytes32",
          "name": "",
          "type": "bytes32"
        }
      ],
      "stateMutability": "view",
      "type": "function"
    },
    {
      "inputs": [
        {
          "internalType": "address",
          "name": "investor_",
          "type": "address"
        }
      ],
      "name": "disableInvestorFromWhitelist",
      "outputs": [],
      "stateMutability": "nonpayable",
      "type": "function"
    },
    {
      "inputs": [
        {
          "internalType": "address",
          "name": "investor_",
          "type": "address"
        }
      ],
      "name": "enableInvestorToWhitelist",
      "outputs": [],
      "stateMutability": "nonpayable",
      "type": "function"
    },
    {
      "inputs": [],
      "name": "getAllInvestors",
      "outputs": [
        {
          "internalType": "address[]",
          "name": "",
          "type": "address[]"
        }
      ],
      "stateMutability": "view",
      "type": "function"
    },
    {
      "inputs": [
        {
          "internalType": "bytes32",
          "name": "role",
          "type": "bytes32"
        }
      ],
      "name": "getRoleAdmin",
      "outputs": [
        {
          "internalType": "bytes32",
          "name": "",
          "type": "bytes32"
        }
      ],
      "stateMutability": "view",
      "type": "function"
    },
    {
      "inputs": [
        {
          "internalType": "bytes32",
          "name": "role",
          "type": "bytes32"
        },
        {
          "internalType": "uint256",
          "name": "index",
          "type": "uint256"
        }
      ],
      "name": "getRoleMember",
      "outputs": [
        {
          "internalType": "address",
          "name": "",
          "type": "address"
        }
      ],
      "stateMutability": "view",
      "type": "function"
    },
    {
      "inputs": [
        {
          "internalType": "bytes32",
          "name": "role",
          "type": "bytes32"
        }
      ],
      "name": "getRoleMemberCount",
      "outputs": [
        {
          "internalType": "uint256",
          "name": "",
          "type": "uint256"
        }
      ],
      "stateMutability": "view",
      "type": "function"
    },
    {
      "inputs": [
        {
          "internalType": "bytes32",
          "name": "role",
          "type": "bytes32"
        },
        {
          "internalType": "address",
          "name": "account",
          "type": "address"
        }
      ],
      "name": "grantRole",
      "outputs": [],
      "stateMutability": "nonpayable",
      "type": "function"
    },
    {
      "inputs": [
        {
          "internalType": "bytes32",
          "name": "role",
          "type": "bytes32"
        },
        {
          "internalType": "address",
          "name": "account",
          "type": "address"
        }
      ],
      "name": "hasRole",
      "outputs": [
        {
          "internalType": "bool",
          "name": "",
          "type": "bool"
        }
      ],
      "stateMutability": "view",
      "type": "function"
    },
    {
      "inputs": [
        {
          "internalType": "address",
          "name": "investor",
          "type": "address"
        }
      ],
      "name": "investorCustodian",
      "outputs": [
        {
          "internalType": "address",
          "name": "",
          "type": "address"
        }
      ],
      "stateMutability": "view",
      "type": "function"
    },
    {
      "inputs": [
        {
          "internalType": "address",
          "name": "investor",
          "type": "address"
        }
      ],
      "name": "investorsAllowed",
      "outputs": [
        {
          "internalType": "bool",
          "name": "",
          "type": "bool"
        }
      ],
      "stateMutability": "view",
      "type": "function"
    },
    {
      "inputs": [
        {
          "internalType": "bytes32",
          "name": "role",
          "type": "bytes32"
        }
      ],
      "name": "renounceRole",
      "outputs": [],
      "stateMutability": "nonpayable",
      "type": "function"
    },
    {
      "inputs": [
        {
          "internalType": "bytes32",
          "name": "role",
          "type": "bytes32"
        },
        {
          "internalType": "address",
          "name": "account",
          "type": "address"
        }
      ],
      "name": "revokeRole",
      "outputs": [],
      "stateMutability": "nonpayable",
      "type": "function"
    }
  ],
  "bytecode": "0x608060405234801561000f575f80fd5b506116e98061001d5f395ff3fe608060405234801561000f575f80fd5b50600436106100fb575f3560e01c80639010d07c11610093578063d0a2f2c411610063578063d0a2f2c414610270578063d1ec6de814610285578063d547741f14610298578063d5c0beeb146102ab575f80fd5b80639010d07c1461021457806391d1485414610227578063c41251a11461024a578063ca15c8731461025d575f80fd5b80633bf2a9f4116100ce5780633bf2a9f4146101885780638865f1e2146101af5780638bb9c5bf146101d65780638f92f490146101e9575f80fd5b80631c67a363146100ff578063248a9ca3146101395780632682ac911461014c5780632f2ff15d14610173575b5f80fd5b6101267f6ba6f588bcdc2df8426603a466c98ab15e79f7fb7f37b53581ce39c1d01b724981565b6040519081526020015b60405180910390f35b610126610147366004611484565b6102be565b6101267ff698af62c65280e4949bceec64b760f3b7738217cbc536cdfc4c9463676b05c281565b6101866101813660046114b6565b6102f5565b005b6101267fd7aa2ddfa4e381128202bf365b7e0a176f2fca6cdf2f23c2b0a6f4393769589081565b6101267fa75205b8583660bdad375c0ccde11af17668d76a408a9a5e739251b0f7c5987081565b6101866101e4366004611484565b61033d565b6101fc6101f73660046114e0565b610349565b6040516001600160a01b039091168152602001610130565b6101fc6102223660046114f9565b61038c565b61023a6102353660046114b6565b61039e565b6040519015158152602001610130565b61023a6102583660046114e0565b6103a9565b61012661026b366004611484565b6103ef565b6102786103f9565b6040516101309190611519565b6101866102933660046114e0565b610408565b6101866102a63660046114b6565b610411565b6101866102b93660046114e0565b610454565b5f8181527f2e59e4c2e927cdddbb64e181e0668d9a0fa70dd88f94d999cd87d5496a20da6260205260408120600201545b92915050565b5f8281527f2e59e4c2e927cdddbb64e181e0668d9a0fa70dd88f94d999cd87d5496a20da62602052604090206002015461032e8161045d565b6103388383610467565b505050565b61034681610621565b50565b6001600160a01b038082165f9081527f332cf6b129284e49df93f4be38bb1959bb5fa7d7d0ce3d4ad668f566f35f6fd560205260408120600201549091166102ef565b5f610397838361062b565b9392505050565b5f6103978383610661565b6001600160a01b0381165f9081527f332cf6b129284e49df93f4be38bb1959bb5fa7d7d0ce3d4ad668f566f35f6fd56020526040812054600160a01b900460ff166102ef565b5f6102ef82610697565b60606104036106cc565b905090565b6103468161074d565b5f8281527f2e59e4c2e927cdddbb64e181e0668d9a0fa70dd88f94d999cd87d5496a20da62602052604090206002015461044a8161045d565b6103388383610911565b61034681610ab7565b6103468133610d44565b816104ca5760405162461bcd60e51b8152602060048201526024808201527f5573652066756e6374696f6e206368616e676541646d696e526f6c6520696e736044820152631d19585960e21b60648201526084015b60405180910390fd5b610613565b7fa75205b8583660bdad375c0ccde11af17668d76a408a9a5e739251b0f7c59870820361059d5761051b7fa75205b8583660bdad375c0ccde11af17668d76a408a9a5e739251b0f7c5987033610661565b8061052b575061052b5f33610661565b6104c55760405162461bcd60e51b815260206004820152602e60248201527f43616c6c6572206d7573742062652043414b206f722041444d494e20746f207360448201527f657420616e6f746865722043414b00000000000000000000000000000000000060648201526084016104bc565b6105c77fa75205b8583660bdad375c0ccde11af17668d76a408a9a5e739251b0f7c5987033610661565b6106135760405162461bcd60e51b815260206004820181905260248201527f43616c6c6572206d7573742062652043414b20746f20736574206120726f6c6560448201526064016104bc565b61061d8282610da6565b5050565b6103468133610911565b5f8281527f2e59e4c2e927cdddbb64e181e0668d9a0fa70dd88f94d999cd87d5496a20da62602052604081206103979083610e18565b5f8281527f2e59e4c2e927cdddbb64e181e0668d9a0fa70dd88f94d999cd87d5496a20da62602052604081206103979083610e23565b5f8181527f2e59e4c2e927cdddbb64e181e0668d9a0fa70dd88f94d999cd87d5496a20da62602052604081206102ef90610e44565b60605f7f332cf6b129284e49df93f4be38bb1959bb5fa7d7d0ce3d4ad668f566f35f6fd480546040805160208084028201810190925282815292935083919083018282801561074257602002820191905f5260205f20905b81546001600160a01b03168152600190910190602001808311610724575b505050505091505090565b7f332cf6b129284e49df93f4be38bb1959bb5fa7d7d0ce3d4ad668f566f35f6fd46001600160a01b0382166107c45760405162461bcd60e51b815260206004820152601f60248201527f696e766573746f7220616464726573732063616e6e6f74206265207a65726f0060448201526064016104bc565b6001600160a01b038281165f908152600183016020526040902060020154161561080e7fa75205b8583660bdad375c0ccde11af17668d76a408a9a5e739251b0f7c5987033610661565b156108915780156108615760405162461bcd60e51b815260206004820152601d60248201527f696e766573746f72206d7573742062652073657420757020666972737400000060448201526064016104bc565b506001600160a01b039091165f90815260019190910160205260409020805460ff60a01b1916600160a01b179055565b6108bb7f6ba6f588bcdc2df8426603a466c98ab15e79f7fb7f37b53581ce39c1d01b724933610661565b6109075760405162461bcd60e51b815260206004820152601260248201527f43616c6c6572206d75737420626520435354000000000000000000000000000060448201526064016104bc565b6103388333610e4d565b8161096a5760405162461bcd60e51b8152602060048201526024808201527f5573652066756e6374696f6e206368616e676541646d696e526f6c6520696e736044820152631d19585960e21b60648201526084016104bc565b7fa75205b8583660bdad375c0ccde11af17668d76a408a9a5e739251b0f7c598708203610a115761099b5f33610661565b610a0c5760405162461bcd60e51b8152602060048201526024808201527f43616c6c6572206d7573742062652041444d494e20746f2072656d6f7665206160448201527f2043414b0000000000000000000000000000000000000000000000000000000060648201526084016104bc565b610aad565b610a3b7fa75205b8583660bdad375c0ccde11af17668d76a408a9a5e739251b0f7c5987033610661565b610aad5760405162461bcd60e51b815260206004820152602360248201527f43616c6c6572206d7573742062652043414b20746f2072656d6f76652061207260448201527f6f6c65000000000000000000000000000000000000000000000000000000000060648201526084016104bc565b61061d82826110d3565b7f332cf6b129284e49df93f4be38bb1959bb5fa7d7d0ce3d4ad668f566f35f6fd46001600160a01b038216610b2e5760405162461bcd60e51b815260206004820152601f60248201527f696e766573746f7220616464726573732063616e6e6f74206265207a65726f0060448201526064016104bc565b610b587fa75205b8583660bdad375c0ccde11af17668d76a408a9a5e739251b0f7c5987033610661565b15610bf0576001600160a01b038281165f90815260018301602052604090206002015416610bc85760405162461bcd60e51b815260206004820152601d60248201527f696e766573746f72206d7573742062652073657420757020666972737400000060448201526064016104bc565b6001600160a01b039091165f908152600190910160205260409020805460ff60a01b19169055565b610c1a7f6ba6f588bcdc2df8426603a466c98ab15e79f7fb7f37b53581ce39c1d01b724933610661565b610c665760405162461bcd60e51b815260206004820152601260248201527f43616c6c6572206d75737420626520435354000000000000000000000000000060448201526064016104bc565b6001600160a01b038281165f908152600183016020526040902060020154163314610ce85760405162461bcd60e51b815260206004820152602c60248201527f6f6e6c792074686520637573746f6469616e2063616e20646973616c6c6f772060448201526b3a34329034b73b32b9ba37b960a11b60648201526084016104bc565b6001600160a01b0382165f818152600183016020908152604091829020805460ff60a01b1916905590519182527ffeae65559f65b7c3f804001ac3371fbb83cf05e8344bc2b66588084bfe9250a8910160405180910390a15050565b610d4e8282610661565b61061d57610d64816001600160a01b0316611145565b610d6f836020611157565b604051602001610d80929190611587565b60408051601f198184030181529082905262461bcd60e51b82526104bc91600401611607565b5f8281527f2e59e4c2e927cdddbb64e181e0668d9a0fa70dd88f94d999cd87d5496a20da6260205260409020610ddc9082611302565b5060405133906001600160a01b0383169084907f2f8788117e7eff1d82e926ec794901d17c78024a50270940304540a733656f0d905f90a45050565b5f6103978383611316565b6001600160a01b0381165f9081526001830160205260408120541515610397565b5f6102ef825490565b7f332cf6b129284e49df93f4be38bb1959bb5fa7d7d0ce3d4ad668f566f35f6fd4610eb5836001600160a01b03165f9081527f332cf6b129284e49df93f4be38bb1959bb5fa7d7d0ce3d4ad668f566f35f6fd56020526040902054600160a01b900460ff1690565b15610ebf57505050565b6001600160a01b038381165f90815260018301602052604090206002015416158015610fe1577f332cf6b129284e49df93f4be38bb1959bb5fa7d7d0ce3d4ad668f566f35f6fd4805460018082019092557f3b5a704516de56a4fa30eb29b0bf899a47de4e07d715ffde30cee9d593da4416810180547fffffffffffffffffffffffff00000000000000000000000000000000000000009081166001600160a01b038981169182179093555f8181527f332cf6b129284e49df93f4be38bb1959bb5fa7d7d0ce3d4ad668f566f35f6fd5602052604090209485019390935583546002850180549092169288169290921790557fffffffffffffffffffffff0000000000000000000000000000000000000000001617600160a01b179055611091565b6001600160a01b038481165f9081526001840160205260409020600201548116908416146110665760405162461bcd60e51b815260206004820152602c60248201527f6f6e6c792074686520637573746f6469616e2063616e20646973616c6c6f772060448201526b3a34329034b73b32b9ba37b960a11b60648201526084016104bc565b6001600160a01b0384165f9081526001830160205260409020805460ff60a01b1916600160a01b1790555b6040516001600160a01b03851681527ff96a35a7272aecca4e6ac04b9ecbc33e3c2655f1fa104a4604d8f50370e6beb39060200160405180910390a150505050565b5f8281527f2e59e4c2e927cdddbb64e181e0668d9a0fa70dd88f94d999cd87d5496a20da62602052604090206111099082611377565b5060405133906001600160a01b0383169084907ff6391f5c32d9c69d2a47ea670b442974b53935d1edc7fd64eb21e047a839171b905f90a45050565b60606102ef6001600160a01b03831660145b60605f61116583600261164d565b611170906002611664565b67ffffffffffffffff81111561118857611188611677565b6040519080825280601f01601f1916602001820160405280156111b2576020820181803683370190505b5090507f3000000000000000000000000000000000000000000000000000000000000000815f815181106111e8576111e861168b565b60200101906001600160f81b03191690815f1a9053507f7800000000000000000000000000000000000000000000000000000000000000816001815181106112325761123261168b565b60200101906001600160f81b03191690815f1a905350600160028402015b60018111156112c9577f303132333435363738396162636465660000000000000000000000000000000085600f166010811061128e5761128e61168b565b1a60f81b8282815181106112a4576112a461168b565b60200101906001600160f81b03191690815f1a90535060049490941c935f1901611250565b508315610397576040517fc913478500000000000000000000000000000000000000000000000000000000815260040160405180910390fd5b5f610397836001600160a01b03841661138b565b81545f908210611352576040517fe637bf3b00000000000000000000000000000000000000000000000000000000815260040160405180910390fd5b825f0182815481106113665761136661168b565b905f5260205f200154905092915050565b5f610397836001600160a01b0384166113cc565b5f8181526001830160205260408120546102ef57508154600180820184555f8481526020808220909301849055845493815293810190915260409092205590565b5f818152600183016020526040812054801561147d5783545f9085905f1981019081106113fb576113fb61168b565b905f5260205f200154905080855f01600184038154811061141e5761141e61168b565b5f91825260208083209091019290925591825260018601905260409020819055835484908061144f5761144f61169f565b600190038181905f5260205f20015f90559055836001015f8481526020019081526020015f205f9055600191505b5092915050565b5f60208284031215611494575f80fd5b5035919050565b80356001600160a01b03811681146114b1575f80fd5b919050565b5f80604083850312156114c7575f80fd5b823591506114d76020840161149b565b90509250929050565b5f602082840312156114f0575f80fd5b6103978261149b565b5f806040838503121561150a575f80fd5b50508035926020909101359150565b602080825282518282018190525f9190848201906040850190845b818110156115595783516001600160a01b031683529284019291840191600101611534565b50909695505050505050565b5f5b8381101561157f578181015183820152602001611567565b50505f910152565b7f416363657373436f6e74726f6c3a206163636f756e742000000000000000000081525f83516115be816017850160208801611565565b7f206973206d697373696e6720726f6c652000000000000000000000000000000060179184019182015283516115fb816028840160208801611565565b01602801949350505050565b602081525f8251806020840152611625816040850160208701611565565b601f01601f19169190910160400192915050565b634e487b7160e01b5f52601160045260245ffd5b80820281158282048414176102ef576102ef611639565b808201808211156102ef576102ef611639565b634e487b7160e01b5f52604160045260245ffd5b634e487b7160e01b5f52603260045260245ffd5b634e487b7160e01b5f52603160045260245ffdfea264697066735822122056a898dd31a9563a25239e9e0968bc76af3fbac925c7e29458400d8fafdd267064736f6c63430008140033",
  "linkReferences": {},
  "deployedLinkReferences": {}
}