{
  "_format": "hh-sol-artifact-1",
  "contractName": "InvestorManagementInternal",
  "sourceName": "contracts/register/investors/InvestorManagementInternal.sol",
  "abi": [
    {
      "inputs": [],
      "name": "EnumerableSet__IndexOutOfBounds",
      "type": "error"
    },
    {
      "inputs": [],
      "name": "UintUtils__InsufficientHexLength",
      "type": "error"
    },
    {
      "anonymous": false,
      "inputs": [
        {
          "indexed": true,
          "internalType": "address",
          "name": "_addressForNewAdmin",
          "type": "address"
        }
      ],
      "name": "AdminChanged",
      "type": "event"
    },
    {
      "anonymous": false,
      "inputs": [
        {
          "indexed": false,
          "internalType": "address",
          "name": "investor",
          "type": "address"
        }
      ],
      "name": "DisableInvestor",
      "type": "event"
    },
    {
      "anonymous": false,
      "inputs": [
        {
          "indexed": false,
          "internalType": "address",
          "name": "investor",
          "type": "address"
        }
      ],
      "name": "EnableInvestor",
      "type": "event"
    },
    {
      "anonymous": false,
      "inputs": [
        {
          "indexed": false,
          "internalType": "uint64",
          "name": "version",
          "type": "uint64"
        }
      ],
      "name": "Initialized",
      "type": "event"
    },
    {
      "anonymous": false,
      "inputs": [
        {
          "indexed": true,
          "internalType": "bytes32",
          "name": "role",
          "type": "bytes32"
        },
        {
          "indexed": true,
          "internalType": "bytes32",
          "name": "previousAdminRole",
          "type": "bytes32"
        },
        {
          "indexed": true,
          "internalType": "bytes32",
          "name": "newAdminRole",
          "type": "bytes32"
        }
      ],
      "name": "RoleAdminChanged",
      "type": "event"
    },
    {
      "anonymous": false,
      "inputs": [
        {
          "indexed": true,
          "internalType": "bytes32",
          "name": "role",
          "type": "bytes32"
        },
        {
          "indexed": true,
          "internalType": "address",
          "name": "account",
          "type": "address"
        },
        {
          "indexed": true,
          "internalType": "address",
          "name": "sender",
          "type": "address"
        }
      ],
      "name": "RoleGranted",
      "type": "event"
    },
    {
      "anonymous": false,
      "inputs": [
        {
          "indexed": true,
          "internalType": "bytes32",
          "name": "role",
          "type": "bytes32"
        },
        {
          "indexed": true,
          "internalType": "address",
          "name": "account",
          "type": "address"
        },
        {
          "indexed": true,
          "internalType": "address",
          "name": "sender",
          "type": "address"
        }
      ],
      "name": "RoleRevoked",
      "type": "event"
    },
    {
      "anonymous": false,
      "inputs": [
        {
          "indexed": true,
          "internalType": "address",
          "name": "toBeAdded",
          "type": "address"
        }
      ],
      "name": "WalletAddedToWhitelist",
      "type": "event"
    },
    {
      "anonymous": false,
      "inputs": [
        {
          "indexed": true,
          "internalType": "address",
          "name": "toBeDeleted",
          "type": "address"
        }
      ],
      "name": "WalletDeletedFromWhitelist",
      "type": "event"
    },
    {
      "inputs": [],
      "name": "BND_ROLE",
      "outputs": [
        {
          "internalType": "bytes32",
          "name": "",
          "type": "bytes32"
        }
      ],
      "stateMutability": "view",
      "type": "function"
    },
    {
      "inputs": [],
      "name": "CAK_ROLE",
      "outputs": [
        {
          "internalType": "bytes32",
          "name": "",
          "type": "bytes32"
        }
      ],
      "stateMutability": "view",
      "type": "function"
    },
    {
      "inputs": [],
      "name": "CST_ROLE",
      "outputs": [
        {
          "internalType": "bytes32",
          "name": "",
          "type": "bytes32"
        }
      ],
      "stateMutability": "view",
      "type": "function"
    },
    {
      "inputs": [],
      "name": "PAY_ROLE",
      "outputs": [
        {
          "internalType": "bytes32",
          "name": "",
          "type": "bytes32"
        }
      ],
      "stateMutability": "view",
      "type": "function"
    },
    {
      "inputs": [
        {
          "internalType": "bytes32",
          "name": "role",
          "type": "bytes32"
        }
      ],
      "name": "getRoleAdmin",
      "outputs": [
        {
          "internalType": "bytes32",
          "name": "",
          "type": "bytes32"
        }
      ],
      "stateMutability": "view",
      "type": "function"
    },
    {
      "inputs": [
        {
          "internalType": "bytes32",
          "name": "role",
          "type": "bytes32"
        },
        {
          "internalType": "uint256",
          "name": "index",
          "type": "uint256"
        }
      ],
      "name": "getRoleMember",
      "outputs": [
        {
          "internalType": "address",
          "name": "",
          "type": "address"
        }
      ],
      "stateMutability": "view",
      "type": "function"
    },
    {
      "inputs": [
        {
          "internalType": "bytes32",
          "name": "role",
          "type": "bytes32"
        }
      ],
      "name": "getRoleMemberCount",
      "outputs": [
        {
          "internalType": "uint256",
          "name": "",
          "type": "uint256"
        }
      ],
      "stateMutability": "view",
      "type": "function"
    },
    {
      "inputs": [
        {
          "internalType": "bytes32",
          "name": "role",
          "type": "bytes32"
        },
        {
          "internalType": "address",
          "name": "account",
          "type": "address"
        }
      ],
      "name": "grantRole",
      "outputs": [],
      "stateMutability": "nonpayable",
      "type": "function"
    },
    {
      "inputs": [
        {
          "internalType": "bytes32",
          "name": "role",
          "type": "bytes32"
        },
        {
          "internalType": "address",
          "name": "account",
          "type": "address"
        }
      ],
      "name": "hasRole",
      "outputs": [
        {
          "internalType": "bool",
          "name": "",
          "type": "bool"
        }
      ],
      "stateMutability": "view",
      "type": "function"
    },
    {
      "inputs": [
        {
          "internalType": "bytes32",
          "name": "role",
          "type": "bytes32"
        }
      ],
      "name": "renounceRole",
      "outputs": [],
      "stateMutability": "nonpayable",
      "type": "function"
    },
    {
      "inputs": [
        {
          "internalType": "bytes32",
          "name": "role",
          "type": "bytes32"
        },
        {
          "internalType": "address",
          "name": "account",
          "type": "address"
        }
      ],
      "name": "revokeRole",
      "outputs": [],
      "stateMutability": "nonpayable",
      "type": "function"
    }
  ],
  "bytecode": "0x608060405234801561000f575f80fd5b50610dde8061001d5f395ff3fe608060405234801561000f575f80fd5b50600436106100c4575f3560e01c80638865f1e21161007d57806391d148541161005857806391d14854146101dd578063ca15c87314610200578063d547741f14610213575f80fd5b80638865f1e2146101785780638bb9c5bf1461019f5780639010d07c146101b2575f80fd5b80632682ac91116100ad5780632682ac91146101155780632f2ff15d1461013c5780633bf2a9f414610151575f80fd5b80631c67a363146100c8578063248a9ca314610102575b5f80fd5b6100ef7f6ba6f588bcdc2df8426603a466c98ab15e79f7fb7f37b53581ce39c1d01b724981565b6040519081526020015b60405180910390f35b6100ef610110366004610bea565b610226565b6100ef7ff698af62c65280e4949bceec64b760f3b7738217cbc536cdfc4c9463676b05c281565b61014f61014a366004610c01565b61025d565b005b6100ef7fd7aa2ddfa4e381128202bf365b7e0a176f2fca6cdf2f23c2b0a6f4393769589081565b6100ef7fa75205b8583660bdad375c0ccde11af17668d76a408a9a5e739251b0f7c5987081565b61014f6101ad366004610bea565b6102a5565b6101c56101c0366004610c3a565b6102b1565b6040516001600160a01b0390911681526020016100f9565b6101f06101eb366004610c01565b6102c3565b60405190151581526020016100f9565b6100ef61020e366004610bea565b6102ce565b61014f610221366004610c01565b6102d8565b5f8181527f2e59e4c2e927cdddbb64e181e0668d9a0fa70dd88f94d999cd87d5496a20da6260205260408120600201545b92915050565b5f8281527f2e59e4c2e927cdddbb64e181e0668d9a0fa70dd88f94d999cd87d5496a20da6260205260409020600201546102968161031b565b6102a08383610325565b505050565b6102ae816104df565b50565b5f6102bc83836104e9565b9392505050565b5f6102bc838361051f565b5f61025782610555565b5f8281527f2e59e4c2e927cdddbb64e181e0668d9a0fa70dd88f94d999cd87d5496a20da6260205260409020600201546103118161031b565b6102a0838361058a565b6102ae8133610730565b816103885760405162461bcd60e51b8152602060048201526024808201527f5573652066756e6374696f6e206368616e676541646d696e526f6c6520696e736044820152631d19585960e21b60648201526084015b60405180910390fd5b6104d1565b7fa75205b8583660bdad375c0ccde11af17668d76a408a9a5e739251b0f7c59870820361045b576103d97fa75205b8583660bdad375c0ccde11af17668d76a408a9a5e739251b0f7c598703361051f565b806103e957506103e95f3361051f565b6103835760405162461bcd60e51b815260206004820152602e60248201527f43616c6c6572206d7573742062652043414b206f722041444d494e20746f207360448201527f657420616e6f746865722043414b000000000000000000000000000000000000606482015260840161037a565b6104857fa75205b8583660bdad375c0ccde11af17668d76a408a9a5e739251b0f7c598703361051f565b6104d15760405162461bcd60e51b815260206004820181905260248201527f43616c6c6572206d7573742062652043414b20746f20736574206120726f6c65604482015260640161037a565b6104db8282610792565b5050565b6102ae813361058a565b5f8281527f2e59e4c2e927cdddbb64e181e0668d9a0fa70dd88f94d999cd87d5496a20da62602052604081206102bc9083610804565b5f8281527f2e59e4c2e927cdddbb64e181e0668d9a0fa70dd88f94d999cd87d5496a20da62602052604081206102bc908361080f565b5f8181527f2e59e4c2e927cdddbb64e181e0668d9a0fa70dd88f94d999cd87d5496a20da626020526040812061025790610830565b816105e35760405162461bcd60e51b8152602060048201526024808201527f5573652066756e6374696f6e206368616e676541646d696e526f6c6520696e736044820152631d19585960e21b606482015260840161037a565b7fa75205b8583660bdad375c0ccde11af17668d76a408a9a5e739251b0f7c59870820361068a576106145f3361051f565b6106855760405162461bcd60e51b8152602060048201526024808201527f43616c6c6572206d7573742062652041444d494e20746f2072656d6f7665206160448201527f2043414b00000000000000000000000000000000000000000000000000000000606482015260840161037a565b610726565b6106b47fa75205b8583660bdad375c0ccde11af17668d76a408a9a5e739251b0f7c598703361051f565b6107265760405162461bcd60e51b815260206004820152602360248201527f43616c6c6572206d7573742062652043414b20746f2072656d6f76652061207260448201527f6f6c650000000000000000000000000000000000000000000000000000000000606482015260840161037a565b6104db8282610839565b61073a828261051f565b6104db57610750816001600160a01b03166108ab565b61075b8360206108bd565b60405160200161076c929190610c7c565b60408051601f198184030181529082905262461bcd60e51b825261037a91600401610cfc565b5f8281527f2e59e4c2e927cdddbb64e181e0668d9a0fa70dd88f94d999cd87d5496a20da62602052604090206107c89082610a68565b5060405133906001600160a01b0383169084907f2f8788117e7eff1d82e926ec794901d17c78024a50270940304540a733656f0d905f90a45050565b5f6102bc8383610a7c565b6001600160a01b0381165f90815260018301602052604081205415156102bc565b5f610257825490565b5f8281527f2e59e4c2e927cdddbb64e181e0668d9a0fa70dd88f94d999cd87d5496a20da626020526040902061086f9082610add565b5060405133906001600160a01b0383169084907ff6391f5c32d9c69d2a47ea670b442974b53935d1edc7fd64eb21e047a839171b905f90a45050565b60606102576001600160a01b03831660145b60605f6108cb836002610d42565b6108d6906002610d59565b67ffffffffffffffff8111156108ee576108ee610d6c565b6040519080825280601f01601f191660200182016040528015610918576020820181803683370190505b5090507f3000000000000000000000000000000000000000000000000000000000000000815f8151811061094e5761094e610d80565b60200101906001600160f81b03191690815f1a9053507f78000000000000000000000000000000000000000000000000000000000000008160018151811061099857610998610d80565b60200101906001600160f81b03191690815f1a905350600160028402015b6001811115610a2f577f303132333435363738396162636465660000000000000000000000000000000085600f16601081106109f4576109f4610d80565b1a60f81b828281518110610a0a57610a0a610d80565b60200101906001600160f81b03191690815f1a90535060049490941c935f19016109b6565b5083156102bc576040517fc913478500000000000000000000000000000000000000000000000000000000815260040160405180910390fd5b5f6102bc836001600160a01b038416610af1565b81545f908210610ab8576040517fe637bf3b00000000000000000000000000000000000000000000000000000000815260040160405180910390fd5b825f018281548110610acc57610acc610d80565b905f5260205f200154905092915050565b5f6102bc836001600160a01b038416610b32565b5f81815260018301602052604081205461025757508154600180820184555f8481526020808220909301849055845493815293810190915260409092205590565b5f8181526001830160205260408120548015610be35783545f9085905f198101908110610b6157610b61610d80565b905f5260205f200154905080855f016001840381548110610b8457610b84610d80565b5f918252602080832090910192909255918252600186019052604090208190558354849080610bb557610bb5610d94565b600190038181905f5260205f20015f90559055836001015f8481526020019081526020015f205f9055600191505b5092915050565b5f60208284031215610bfa575f80fd5b5035919050565b5f8060408385031215610c12575f80fd5b8235915060208301356001600160a01b0381168114610c2f575f80fd5b809150509250929050565b5f8060408385031215610c4b575f80fd5b50508035926020909101359150565b5f5b83811015610c74578181015183820152602001610c5c565b50505f910152565b7f416363657373436f6e74726f6c3a206163636f756e742000000000000000000081525f8351610cb3816017850160208801610c5a565b7f206973206d697373696e6720726f6c65200000000000000000000000000000006017918401918201528351610cf0816028840160208801610c5a565b01602801949350505050565b602081525f8251806020840152610d1a816040850160208701610c5a565b601f01601f19169190910160400192915050565b634e487b7160e01b5f52601160045260245ffd5b808202811582820484141761025757610257610d2e565b8082018082111561025757610257610d2e565b634e487b7160e01b5f52604160045260245ffd5b634e487b7160e01b5f52603260045260245ffd5b634e487b7160e01b5f52603160045260245ffdfea264697066735822122084f04e0a53ab71275e36d318f15a955549450cc668699c53ceb0bd27617372c764736f6c63430008140033",
  "linkReferences": {},
  "deployedLinkReferences": {}
}