{
  "_format": "hh-sol-artifact-1",
  "contractName": "ECDSAMock",
  "sourceName": "contracts/cryptography/ECDSAMock.sol",
  "abi": [
    {
      "inputs": [],
      "name": "ECDSA__InvalidS",
      "type": "error"
    },
    {
      "inputs": [],
      "name": "ECDSA__InvalidSignature",
      "type": "error"
    },
    {
      "inputs": [],
      "name": "ECDSA__InvalidSignatureLength",
      "type": "error"
    },
    {
      "inputs": [],
      "name": "ECDSA__InvalidV",
      "type": "error"
    },
    {
      "inputs": [
        {
          "internalType": "bytes32",
          "name": "hash",
          "type": "bytes32"
        },
        {
          "internalType": "bytes",
          "name": "signature",
          "type": "bytes"
        }
      ],
      "name": "recover",
      "outputs": [
        {
          "internalType": "address",
          "name": "",
          "type": "address"
        }
      ],
      "stateMutability": "pure",
      "type": "function"
    },
    {
      "inputs": [
        {
          "internalType": "bytes32",
          "name": "hash",
          "type": "bytes32"
        },
        {
          "internalType": "uint8",
          "name": "v",
          "type": "uint8"
        },
        {
          "internalType": "bytes32",
          "name": "r",
          "type": "bytes32"
        },
        {
          "internalType": "bytes32",
          "name": "s",
          "type": "bytes32"
        }
      ],
      "name": "recover",
      "outputs": [
        {
          "internalType": "address",
          "name": "",
          "type": "address"
        }
      ],
      "stateMutability": "pure",
      "type": "function"
    },
    {
      "inputs": [
        {
          "internalType": "bytes32",
          "name": "hash",
          "type": "bytes32"
        }
      ],
      "name": "toEthSignedMessageHash",
      "outputs": [
        {
          "internalType": "bytes32",
          "name": "",
          "type": "bytes32"
        }
      ],
      "stateMutability": "pure",
      "type": "function"
    }
  ],
  "bytecode": "0x608060405234801561000f575f80fd5b5061045f8061001d5f395ff3fe608060405234801561000f575f80fd5b506004361061003f575f3560e01c806319045a2514610043578063918a15cf14610080578063c2bf17b0146100a1575b5f80fd5b61005661005136600461031e565b6100b4565b60405173ffffffffffffffffffffffffffffffffffffffff90911681526020015b60405180910390f35b61009361008e3660046103d3565b6100c6565b604051908152602001610077565b6100566100af3660046103ea565b610123565b5f6100bf8383610139565b9392505050565b5f61011d826040517f19457468657265756d205369676e6564204d6573736167653a0a3332000000006020820152603c81018290525f90605c01604051602081830303815290604052805190602001209050919050565b92915050565b5f6101308585858561019c565b95945050505050565b5f8151604114610175576040517f4fc237b800000000000000000000000000000000000000000000000000000000815260040160405180910390fd5b6020820151604083015160608401515f1a6101928682858561019c565b9695505050505050565b5f7f7fffffffffffffffffffffffffffffff5d576e7357a4501ddfe92f46681b20a08211156101f7576040517fe4a61add00000000000000000000000000000000000000000000000000000000815260040160405180910390fd5b8360ff16601b1415801561020f57508360ff16601c14155b15610246576040517facd54a9000000000000000000000000000000000000000000000000000000000815260040160405180910390fd5b604080515f8082526020820180845288905260ff871692820192909252606081018590526080810184905260019060a0016020604051602081039080840390855afa158015610297573d5f803e3d5ffd5b5050604051601f19015191505073ffffffffffffffffffffffffffffffffffffffff8116610130576040517f8fe7664e00000000000000000000000000000000000000000000000000000000815260040160405180910390fd5b7f4e487b71000000000000000000000000000000000000000000000000000000005f52604160045260245ffd5b5f806040838503121561032f575f80fd5b82359150602083013567ffffffffffffffff8082111561034d575f80fd5b818501915085601f830112610360575f80fd5b813581811115610372576103726102f1565b604051601f8201601f19908116603f0116810190838211818310171561039a5761039a6102f1565b816040528281528860208487010111156103b2575f80fd5b826020860160208301375f6020848301015280955050505050509250929050565b5f602082840312156103e3575f80fd5b5035919050565b5f805f80608085870312156103fd575f80fd5b84359350602085013560ff81168114610414575f80fd5b9396939550505050604082013591606001359056fea2646970667358221220d62a3f6273862394edcda4e41fcc093bd6190dc6b8588213d54d52f7af94b22964736f6c63430008140033",
  "linkReferences": {},
  "deployedLinkReferences": {}
}