{
  "_format": "hh-sol-artifact-1",
  "contractName": "SmartContractAccessManagement",
  "sourceName": "src/SmartContractAccessManagement.sol",
  "abi": [
    {
      "anonymous": false,
      "inputs": [
        {
          "indexed": false,
          "internalType": "bytes32",
          "name": "contractHash",
          "type": "bytes32"
        }
      ],
      "name": "DisableContract",
      "type": "event"
    },
    {
      "anonymous": false,
      "inputs": [
        {
          "indexed": false,
          "internalType": "bytes32",
          "name": "contractHash",
          "type": "bytes32"
        }
      ],
      "name": "EnableContract",
      "type": "event"
    },
    {
      "inputs": [
        {
          "internalType": "bytes32",
          "name": "",
          "type": "bytes32"
        }
      ],
      "name": "_contractsAllowed",
      "outputs": [
        {
          "internalType": "bool",
          "name": "",
          "type": "bool"
        }
      ],
      "stateMutability": "view",
      "type": "function"
    },
    {
      "inputs": [
        {
          "internalType": "address",
          "name": "addr_",
          "type": "address"
        }
      ],
      "name": "atReturningHash",
      "outputs": [
        {
          "internalType": "bytes32",
          "name": "hash",
          "type": "bytes32"
        }
      ],
      "stateMutability": "view",
      "type": "function"
    },
    {
      "inputs": [
        {
          "internalType": "bytes32",
          "name": "contractHash_",
          "type": "bytes32"
        }
      ],
      "name": "disableContractFromWhitelist",
      "outputs": [],
      "stateMutability": "nonpayable",
      "type": "function"
    },
    {
      "inputs": [
        {
          "internalType": "bytes32",
          "name": "contractHash_",
          "type": "bytes32"
        }
      ],
      "name": "enableContractToWhitelist",
      "outputs": [],
      "stateMutability": "nonpayable",
      "type": "function"
    },
    {
      "inputs": [],
      "name": "isCallerApprovedSmartContract",
      "outputs": [
        {
          "internalType": "bool",
          "name": "",
          "type": "bool"
        }
      ],
      "stateMutability": "view",
      "type": "function"
    },
    {
      "inputs": [
        {
          "internalType": "address",
          "name": "contractAddress_",
          "type": "address"
        }
      ],
      "name": "isContractAllowed",
      "outputs": [
        {
          "internalType": "bool",
          "name": "",
          "type": "bool"
        }
      ],
      "stateMutability": "view",
      "type": "function"
    }
  ],
  "bytecode": "0x608060405234801561001057600080fd5b50610297806100206000396000f3fe608060405234801561001057600080fd5b50600436106100625760003560e01c80636f2ddb5f14610067578063806ba1001461008f578063a1962183146100b2578063c2faae59146100d3578063d614284a146100db578063d696fb0b146100f0575b600080fd5b61007a610075366004610218565b610103565b60405190151581526020015b60405180910390f35b61007a61009d366004610248565b60006020819052908152604090205460ff1681565b6100c56100c0366004610218565b610128565b604051908152602001610086565b61007a610159565b6100ee6100e9366004610248565b61017d565b005b6100ee6100fe366004610248565b6101d3565b60008061010f83610128565b60009081526020819052604090205460ff169392505050565b60408051603f833b908101601f19168201909252818152600091808360208401863c50805160209091012092915050565b60008061016533610128565b60009081526020819052604090205460ff1692915050565b60008181526020819052604090819020805460ff19166001179055517fbaf2f827de189827a9b5ea8781dbbffcad675a367dccaad8b9ada866795598d7906101c89083815260200190565b60405180910390a150565b60008181526020818152604091829020805460ff1916905590518281527f2876b9bd97a638025f28a0d50cb5f3cd9e5c0b85624fb7ee15267149452c2d7491016101c8565b60006020828403121561022a57600080fd5b81356001600160a01b038116811461024157600080fd5b9392505050565b60006020828403121561025a57600080fd5b503591905056fea2646970667358221220fe437c5a76d8c50df2f1517611eb3602f945ff6c7f0853dcebf6f3f4d64db72e64736f6c63430008130033",
  "linkReferences": {},
  "deployedLinkReferences": {}
}