{
  "_format": "hh-sol-artifact-1",
  "contractName": "BinaryHeapUintMock",
  "sourceName": "contracts/data/BinaryHeapUintMock.sol",
  "abi": [
    {
      "inputs": [
        {
          "internalType": "uint256",
          "name": "value",
          "type": "uint256"
        }
      ],
      "name": "add",
      "outputs": [
        {
          "internalType": "bool",
          "name": "",
          "type": "bool"
        }
      ],
      "stateMutability": "nonpayable",
      "type": "function"
    },
    {
      "inputs": [
        {
          "internalType": "uint256",
          "name": "index",
          "type": "uint256"
        }
      ],
      "name": "at",
      "outputs": [
        {
          "internalType": "uint256",
          "name": "",
          "type": "uint256"
        }
      ],
      "stateMutability": "view",
      "type": "function"
    },
    {
      "inputs": [
        {
          "internalType": "uint256",
          "name": "value",
          "type": "uint256"
        }
      ],
      "name": "contains",
      "outputs": [
        {
          "internalType": "bool",
          "name": "",
          "type": "bool"
        }
      ],
      "stateMutability": "view",
      "type": "function"
    },
    {
      "inputs": [
        {
          "internalType": "uint256",
          "name": "value",
          "type": "uint256"
        }
      ],
      "name": "indexOf",
      "outputs": [
        {
          "internalType": "uint256",
          "name": "",
          "type": "uint256"
        }
      ],
      "stateMutability": "view",
      "type": "function"
    },
    {
      "inputs": [],
      "name": "length",
      "outputs": [
        {
          "internalType": "uint256",
          "name": "",
          "type": "uint256"
        }
      ],
      "stateMutability": "view",
      "type": "function"
    },
    {
      "inputs": [
        {
          "internalType": "uint256",
          "name": "value",
          "type": "uint256"
        }
      ],
      "name": "remove",
      "outputs": [
        {
          "internalType": "bool",
          "name": "",
          "type": "bool"
        }
      ],
      "stateMutability": "nonpayable",
      "type": "function"
    },
    {
      "inputs": [],
      "name": "root",
      "outputs": [
        {
          "internalType": "uint256",
          "name": "",
          "type": "uint256"
        }
      ],
      "stateMutability": "view",
      "type": "function"
    },
    {
      "inputs": [],
      "name": "toArray",
      "outputs": [
        {
          "internalType": "uint256[]",
          "name": "",
          "type": "uint256[]"
        }
      ],
      "stateMutability": "view",
      "type": "function"
    }
  ],
  "bytecode": "0x608060405234801561000f575f80fd5b506105b68061001d5f395ff3fe608060405234801561000f575f80fd5b5060043610610085575f3560e01c806391ac7e651161005857806391ac7e65146100ef578063c34052e014610102578063e0886f9014610115578063ebf0c71714610128575f80fd5b80631003e2d2146100895780631f7b6d32146100b15780634cc82215146100c7578063908ff303146100da575b5f80fd5b61009c6100973660046104fe565b610130565b60405190151581526020015b60405180910390f35b6100b9610141565b6040519081526020016100a8565b61009c6100d53660046104fe565b610150565b6100e261015b565b6040516100a89190610515565b6100b96100fd3660046104fe565b610166565b61009c6101103660046104fe565b610171565b6100b96101233660046104fe565b61017c565b6100b9610187565b5f61013b8183610191565b92915050565b5f61014b5f6101a3565b905090565b5f61013b81836101ac565b606061014b5f6101b7565b5f61013b8183610211565b5f61013b8183610229565b5f61013b8183610240565b5f61014b5f61024b565b5f61019c8383610255565b9392505050565b5f61013b825490565b5f61019c83836102a1565b8054604080516020808402820181019092528281526060928492839291839183018282801561020357602002820191905f5260205f20905b8154815260200190600101908083116101ef575b505050505092505050919050565b5f8181526001830160205260408120545f190161019c565b5f818152600183016020526040812054151561019c565b5f61019c838361032b565b5f61013b82610351565b5f81815260018301602052604081205461013b5782546001810184555f848152602090200182905582545f8381526001850160205260409020556102988361035c565b50600192915050565b5f8181526001830160205260408120541561013b575f8281526001840160205260408120545f190190506102e0848260016102da885490565b0361038a565b83548490806102f1576102f1610558565b5f828152602080822083015f1990810183905590920190925584825260018601905260408120556103218461035c565b5060019392505050565b5f825f0182815481106103405761034061056c565b905f5260205f200154905092915050565b5f61013b825f61032b565b5f610365825490565b9050600281045b8015610385575f1901610380838383610436565b61036c565b505050565b825483905f908290859081106103a2576103a261056c565b905f5260205f20015490505f8284815481106103c0576103c061056c565b905f5260205f200154905080828487815481106103df576103df61056c565b905f5260205f20015f8688815481106103fa576103fa61056c565b5f918252602080832090910194909455939091555082825260019097019096526040808720805493885290872080549290975255909355505050565b8083600182811b81179081018582108015610484575082828154811061045e5761045e61056c565b905f5260205f2001548385815481106104795761047961056c565b905f5260205f200154105b1561048d578193505b85811080156104cf57508281815481106104a9576104a961056c565b905f5260205f2001548385815481106104c4576104c461056c565b905f5260205f200154105b156104d8578093505b50508282146104f7576104ec85848461038a565b6104f7858584610436565b5050505050565b5f6020828403121561050e575f80fd5b5035919050565b602080825282518282018190525f9190848201906040850190845b8181101561054c57835183529284019291840191600101610530565b50909695505050505050565b634e487b7160e01b5f52603160045260245ffd5b634e487b7160e01b5f52603260045260245ffdfea26469706673582212204d741788a2946ed3675f0dbdec568f886e624320515ad7e4547894cb681b60de64736f6c63430008140033",
  "linkReferences": {},
  "deployedLinkReferences": {}
}