{
  "_format": "hh-sol-artifact-1",
  "contractName": "CouponSnapshotManagement",
  "sourceName": "contracts/register/snapshot/CouponSnapshotManagement.sol",
  "abi": [
    {
      "inputs": [],
      "name": "ERC20Base__ApproveFromZeroAddress",
      "type": "error"
    },
    {
      "inputs": [],
      "name": "ERC20Base__ApproveToZeroAddress",
      "type": "error"
    },
    {
      "inputs": [],
      "name": "ERC20Base__BurnExceedsBalance",
      "type": "error"
    },
    {
      "inputs": [],
      "name": "ERC20Base__BurnFromZeroAddress",
      "type": "error"
    },
    {
      "inputs": [],
      "name": "ERC20Base__InsufficientAllowance",
      "type": "error"
    },
    {
      "inputs": [],
      "name": "ERC20Base__MintToZeroAddress",
      "type": "error"
    },
    {
      "inputs": [],
      "name": "ERC20Base__TransferExceedsBalance",
      "type": "error"
    },
    {
      "inputs": [],
      "name": "ERC20Base__TransferFromZeroAddress",
      "type": "error"
    },
    {
      "inputs": [],
      "name": "ERC20Base__TransferToZeroAddress",
      "type": "error"
    },
    {
      "inputs": [],
      "name": "ERC20Snapshot__SnapshotIdDoesNotExists",
      "type": "error"
    },
    {
      "inputs": [],
      "name": "ERC20Snapshot__SnapshotIdIsZero",
      "type": "error"
    },
    {
      "inputs": [],
      "name": "EnumerableSet__IndexOutOfBounds",
      "type": "error"
    },
    {
      "inputs": [],
      "name": "ReentrancyGuard__ReentrantCall",
      "type": "error"
    },
    {
      "inputs": [],
      "name": "UintUtils__InsufficientHexLength",
      "type": "error"
    },
    {
      "anonymous": false,
      "inputs": [
        {
          "indexed": true,
          "internalType": "address",
          "name": "_addressForNewAdmin",
          "type": "address"
        }
      ],
      "name": "AdminChanged",
      "type": "event"
    },
    {
      "anonymous": false,
      "inputs": [
        {
          "indexed": true,
          "internalType": "address",
          "name": "owner",
          "type": "address"
        },
        {
          "indexed": true,
          "internalType": "address",
          "name": "spender",
          "type": "address"
        },
        {
          "indexed": false,
          "internalType": "uint256",
          "name": "value",
          "type": "uint256"
        }
      ],
      "name": "Approval",
      "type": "event"
    },
    {
      "anonymous": false,
      "inputs": [
        {
          "indexed": true,
          "internalType": "bytes32",
          "name": "transactionID",
          "type": "bytes32"
        },
        {
          "indexed": true,
          "internalType": "bytes32",
          "name": "paymentID",
          "type": "bytes32"
        },
        {
          "indexed": false,
          "internalType": "enum ICouponSnapshotManagementInternal.LockStatus",
          "name": "status",
          "type": "uint8"
        }
      ],
      "name": "AssetLocked",
      "type": "event"
    },
    {
      "anonymous": false,
      "inputs": [
        {
          "indexed": true,
          "internalType": "bytes32",
          "name": "transactionID",
          "type": "bytes32"
        },
        {
          "indexed": true,
          "internalType": "bytes32",
          "name": "paymentID",
          "type": "bytes32"
        },
        {
          "indexed": false,
          "internalType": "enum ICouponSnapshotManagementInternal.LockStatus",
          "name": "status",
          "type": "uint8"
        }
      ],
      "name": "AssetReleased",
      "type": "event"
    },
    {
      "anonymous": false,
      "inputs": [
        {
          "indexed": false,
          "internalType": "bytes32",
          "name": "contractHash",
          "type": "bytes32"
        }
      ],
      "name": "DisableContract",
      "type": "event"
    },
    {
      "anonymous": false,
      "inputs": [
        {
          "indexed": false,
          "internalType": "address",
          "name": "investor",
          "type": "address"
        }
      ],
      "name": "DisableInvestor",
      "type": "event"
    },
    {
      "anonymous": false,
      "inputs": [
        {
          "indexed": false,
          "internalType": "bytes32",
          "name": "contractHash",
          "type": "bytes32"
        }
      ],
      "name": "EnableContract",
      "type": "event"
    },
    {
      "anonymous": false,
      "inputs": [
        {
          "indexed": false,
          "internalType": "address",
          "name": "investor",
          "type": "address"
        }
      ],
      "name": "EnableInvestor",
      "type": "event"
    },
    {
      "anonymous": false,
      "inputs": [
        {
          "indexed": false,
          "internalType": "uint64",
          "name": "version",
          "type": "uint64"
        }
      ],
      "name": "Initialized",
      "type": "event"
    },
    {
      "anonymous": false,
      "inputs": [
        {
          "indexed": true,
          "internalType": "bytes32",
          "name": "transactionID",
          "type": "bytes32"
        },
        {
          "indexed": true,
          "internalType": "bytes32",
          "name": "paymentID",
          "type": "bytes32"
        },
        {
          "indexed": false,
          "internalType": "enum ICouponSnapshotManagementInternal.LockStatus",
          "name": "status",
          "type": "uint8"
        }
      ],
      "name": "LockCancelled",
      "type": "event"
    },
    {
      "anonymous": false,
      "inputs": [
        {
          "indexed": true,
          "internalType": "bytes32",
          "name": "transactionID",
          "type": "bytes32"
        },
        {
          "indexed": true,
          "internalType": "bytes32",
          "name": "paymentID",
          "type": "bytes32"
        },
        {
          "indexed": false,
          "internalType": "enum ICouponSnapshotManagementInternal.LockStatus",
          "name": "status",
          "type": "uint8"
        }
      ],
      "name": "LockSet",
      "type": "event"
    },
    {
      "anonymous": false,
      "inputs": [
        {
          "indexed": true,
          "internalType": "address",
          "name": "creator",
          "type": "address"
        },
        {
          "indexed": false,
          "internalType": "string",
          "name": "name",
          "type": "string"
        },
        {
          "indexed": false,
          "internalType": "string",
          "name": "isin",
          "type": "string"
        }
      ],
      "name": "NewBondDrafted",
      "type": "event"
    },
    {
      "anonymous": false,
      "inputs": [
        {
          "indexed": true,
          "internalType": "address",
          "name": "sender",
          "type": "address"
        },
        {
          "indexed": true,
          "internalType": "address",
          "name": "target",
          "type": "address"
        },
        {
          "indexed": false,
          "internalType": "string",
          "name": "message",
          "type": "string"
        }
      ],
      "name": "PublicMessage",
      "type": "event"
    },
    {
      "anonymous": false,
      "inputs": [
        {
          "indexed": true,
          "internalType": "address",
          "name": "emiter",
          "type": "address"
        },
        {
          "indexed": false,
          "internalType": "string",
          "name": "name",
          "type": "string"
        },
        {
          "indexed": false,
          "internalType": "string",
          "name": "isin",
          "type": "string"
        },
        {
          "indexed": false,
          "internalType": "enum IRegisterMetadataInternal.Status",
          "name": "status",
          "type": "uint8"
        }
      ],
      "name": "RegisterStatusChanged",
      "type": "event"
    },
    {
      "anonymous": false,
      "inputs": [
        {
          "indexed": true,
          "internalType": "bytes32",
          "name": "role",
          "type": "bytes32"
        },
        {
          "indexed": true,
          "internalType": "bytes32",
          "name": "previousAdminRole",
          "type": "bytes32"
        },
        {
          "indexed": true,
          "internalType": "bytes32",
          "name": "newAdminRole",
          "type": "bytes32"
        }
      ],
      "name": "RoleAdminChanged",
      "type": "event"
    },
    {
      "anonymous": false,
      "inputs": [
        {
          "indexed": true,
          "internalType": "bytes32",
          "name": "role",
          "type": "bytes32"
        },
        {
          "indexed": true,
          "internalType": "address",
          "name": "account",
          "type": "address"
        },
        {
          "indexed": true,
          "internalType": "address",
          "name": "sender",
          "type": "address"
        }
      ],
      "name": "RoleGranted",
      "type": "event"
    },
    {
      "anonymous": false,
      "inputs": [
        {
          "indexed": true,
          "internalType": "bytes32",
          "name": "role",
          "type": "bytes32"
        },
        {
          "indexed": true,
          "internalType": "address",
          "name": "account",
          "type": "address"
        },
        {
          "indexed": true,
          "internalType": "address",
          "name": "sender",
          "type": "address"
        }
      ],
      "name": "RoleRevoked",
      "type": "event"
    },
    {
      "anonymous": false,
      "inputs": [
        {
          "indexed": false,
          "internalType": "uint256",
          "name": "id",
          "type": "uint256"
        }
      ],
      "name": "Snapshot",
      "type": "event"
    },
    {
      "anonymous": false,
      "inputs": [
        {
          "indexed": true,
          "internalType": "uint256",
          "name": "couponDate",
          "type": "uint256"
        },
        {
          "indexed": true,
          "internalType": "uint256",
          "name": "currentTimestamp",
          "type": "uint256"
        },
        {
          "indexed": true,
          "internalType": "uint256",
          "name": "nextTimestamp",
          "type": "uint256"
        }
      ],
      "name": "SnapshotTimestampChange",
      "type": "event"
    },
    {
      "anonymous": false,
      "inputs": [
        {
          "indexed": true,
          "internalType": "address",
          "name": "from",
          "type": "address"
        },
        {
          "indexed": true,
          "internalType": "address",
          "name": "to",
          "type": "address"
        },
        {
          "indexed": false,
          "internalType": "uint256",
          "name": "value",
          "type": "uint256"
        }
      ],
      "name": "Transfer",
      "type": "event"
    },
    {
      "anonymous": false,
      "inputs": [
        {
          "indexed": true,
          "internalType": "address",
          "name": "toBeAdded",
          "type": "address"
        }
      ],
      "name": "WalletAddedToWhitelist",
      "type": "event"
    },
    {
      "anonymous": false,
      "inputs": [
        {
          "indexed": true,
          "internalType": "address",
          "name": "toBeDeleted",
          "type": "address"
        }
      ],
      "name": "WalletDeletedFromWhitelist",
      "type": "event"
    },
    {
      "inputs": [],
      "name": "BND_ROLE",
      "outputs": [
        {
          "internalType": "bytes32",
          "name": "",
          "type": "bytes32"
        }
      ],
      "stateMutability": "view",
      "type": "function"
    },
    {
      "inputs": [],
      "name": "CAK_ROLE",
      "outputs": [
        {
          "internalType": "bytes32",
          "name": "",
          "type": "bytes32"
        }
      ],
      "stateMutability": "view",
      "type": "function"
    },
    {
      "inputs": [],
      "name": "CST_ROLE",
      "outputs": [
        {
          "internalType": "bytes32",
          "name": "",
          "type": "bytes32"
        }
      ],
      "stateMutability": "view",
      "type": "function"
    },
    {
      "inputs": [],
      "name": "PAY_ROLE",
      "outputs": [
        {
          "internalType": "bytes32",
          "name": "",
          "type": "bytes32"
        }
      ],
      "stateMutability": "view",
      "type": "function"
    },
    {
      "inputs": [
        {
          "internalType": "uint256",
          "name": "_couponDate",
          "type": "uint256"
        }
      ],
      "name": "_totalSupplyAtCoupon",
      "outputs": [
        {
          "internalType": "uint256",
          "name": "",
          "type": "uint256"
        }
      ],
      "stateMutability": "view",
      "type": "function"
    },
    {
      "inputs": [
        {
          "internalType": "address",
          "name": "holder",
          "type": "address"
        },
        {
          "internalType": "address",
          "name": "spender",
          "type": "address"
        }
      ],
      "name": "allowance",
      "outputs": [
        {
          "internalType": "uint256",
          "name": "",
          "type": "uint256"
        }
      ],
      "stateMutability": "view",
      "type": "function"
    },
    {
      "inputs": [
        {
          "internalType": "address",
          "name": "",
          "type": "address"
        },
        {
          "internalType": "uint256",
          "name": "",
          "type": "uint256"
        }
      ],
      "name": "approve",
      "outputs": [
        {
          "internalType": "bool",
          "name": "",
          "type": "bool"
        }
      ],
      "stateMutability": "nonpayable",
      "type": "function"
    },
    {
      "inputs": [
        {
          "internalType": "address",
          "name": "account",
          "type": "address"
        }
      ],
      "name": "balanceOf",
      "outputs": [
        {
          "internalType": "uint256",
          "name": "",
          "type": "uint256"
        }
      ],
      "stateMutability": "view",
      "type": "function"
    },
    {
      "inputs": [
        {
          "internalType": "address",
          "name": "account",
          "type": "address"
        },
        {
          "internalType": "uint256",
          "name": "snapshotId",
          "type": "uint256"
        }
      ],
      "name": "balanceOfAt",
      "outputs": [
        {
          "internalType": "uint256",
          "name": "",
          "type": "uint256"
        }
      ],
      "stateMutability": "view",
      "type": "function"
    },
    {
      "inputs": [
        {
          "internalType": "address",
          "name": "account",
          "type": "address"
        },
        {
          "internalType": "uint256",
          "name": "_couponDate",
          "type": "uint256"
        }
      ],
      "name": "balanceOfCoupon",
      "outputs": [
        {
          "internalType": "uint256",
          "name": "",
          "type": "uint256"
        }
      ],
      "stateMutability": "view",
      "type": "function"
    },
    {
      "inputs": [
        {
          "internalType": "uint256",
          "name": "amount_",
          "type": "uint256"
        }
      ],
      "name": "burn",
      "outputs": [],
      "stateMutability": "nonpayable",
      "type": "function"
    },
    {
      "inputs": [],
      "name": "currentCouponDate",
      "outputs": [
        {
          "internalType": "uint256",
          "name": "",
          "type": "uint256"
        }
      ],
      "stateMutability": "view",
      "type": "function"
    },
    {
      "inputs": [],
      "name": "currentSnapshotDatetime",
      "outputs": [
        {
          "internalType": "uint256",
          "name": "",
          "type": "uint256"
        }
      ],
      "stateMutability": "view",
      "type": "function"
    },
    {
      "inputs": [],
      "name": "decimals",
      "outputs": [
        {
          "internalType": "uint8",
          "name": "",
          "type": "uint8"
        }
      ],
      "stateMutability": "view",
      "type": "function"
    },
    {
      "inputs": [
        {
          "internalType": "address",
          "name": "",
          "type": "address"
        },
        {
          "internalType": "uint256",
          "name": "",
          "type": "uint256"
        }
      ],
      "name": "decreaseAllowance",
      "outputs": [
        {
          "internalType": "bool",
          "name": "",
          "type": "bool"
        }
      ],
      "stateMutability": "nonpayable",
      "type": "function"
    },
    {
      "inputs": [
        {
          "internalType": "address",
          "name": "_from",
          "type": "address"
        },
        {
          "internalType": "address",
          "name": "_to",
          "type": "address"
        },
        {
          "internalType": "bytes32",
          "name": "_secretCancel",
          "type": "bytes32"
        },
        {
          "internalType": "bytes32",
          "name": "_paymentProof",
          "type": "bytes32"
        }
      ],
      "name": "forceCancel",
      "outputs": [],
      "stateMutability": "nonpayable",
      "type": "function"
    },
    {
      "inputs": [
        {
          "internalType": "address",
          "name": "_from",
          "type": "address"
        },
        {
          "internalType": "address",
          "name": "_to",
          "type": "address"
        },
        {
          "internalType": "bytes32",
          "name": "_secretRelease",
          "type": "bytes32"
        },
        {
          "internalType": "bytes32",
          "name": "_paymentProof",
          "type": "bytes32"
        }
      ],
      "name": "forceRelease",
      "outputs": [],
      "stateMutability": "nonpayable",
      "type": "function"
    },
    {
      "inputs": [
        {
          "internalType": "uint256",
          "name": "CouponDate",
          "type": "uint256"
        }
      ],
      "name": "getInvestorListAtCoupon",
      "outputs": [
        {
          "internalType": "address[]",
          "name": "",
          "type": "address[]"
        }
      ],
      "stateMutability": "view",
      "type": "function"
    },
    {
      "inputs": [
        {
          "internalType": "bytes32",
          "name": "role",
          "type": "bytes32"
        }
      ],
      "name": "getRoleAdmin",
      "outputs": [
        {
          "internalType": "bytes32",
          "name": "",
          "type": "bytes32"
        }
      ],
      "stateMutability": "view",
      "type": "function"
    },
    {
      "inputs": [
        {
          "internalType": "bytes32",
          "name": "role",
          "type": "bytes32"
        },
        {
          "internalType": "uint256",
          "name": "index",
          "type": "uint256"
        }
      ],
      "name": "getRoleMember",
      "outputs": [
        {
          "internalType": "address",
          "name": "",
          "type": "address"
        }
      ],
      "stateMutability": "view",
      "type": "function"
    },
    {
      "inputs": [
        {
          "internalType": "bytes32",
          "name": "role",
          "type": "bytes32"
        }
      ],
      "name": "getRoleMemberCount",
      "outputs": [
        {
          "internalType": "uint256",
          "name": "",
          "type": "uint256"
        }
      ],
      "stateMutability": "view",
      "type": "function"
    },
    {
      "inputs": [
        {
          "internalType": "bytes32",
          "name": "role",
          "type": "bytes32"
        },
        {
          "internalType": "address",
          "name": "account",
          "type": "address"
        }
      ],
      "name": "grantRole",
      "outputs": [],
      "stateMutability": "nonpayable",
      "type": "function"
    },
    {
      "inputs": [
        {
          "internalType": "bytes32",
          "name": "role",
          "type": "bytes32"
        },
        {
          "internalType": "address",
          "name": "account",
          "type": "address"
        }
      ],
      "name": "hasRole",
      "outputs": [
        {
          "internalType": "bool",
          "name": "",
          "type": "bool"
        }
      ],
      "stateMutability": "view",
      "type": "function"
    },
    {
      "inputs": [
        {
          "internalType": "address",
          "name": "",
          "type": "address"
        },
        {
          "internalType": "uint256",
          "name": "",
          "type": "uint256"
        }
      ],
      "name": "increaseAllowance",
      "outputs": [
        {
          "internalType": "bool",
          "name": "",
          "type": "bool"
        }
      ],
      "stateMutability": "nonpayable",
      "type": "function"
    },
    {
      "inputs": [
        {
          "internalType": "address",
          "name": "forwarder",
          "type": "address"
        }
      ],
      "name": "isTrustedForwarder",
      "outputs": [
        {
          "internalType": "bool",
          "name": "",
          "type": "bool"
        }
      ],
      "stateMutability": "view",
      "type": "function"
    },
    {
      "inputs": [
        {
          "internalType": "uint256",
          "name": "amount_",
          "type": "uint256"
        }
      ],
      "name": "mint",
      "outputs": [],
      "stateMutability": "nonpayable",
      "type": "function"
    },
    {
      "inputs": [],
      "name": "name",
      "outputs": [
        {
          "internalType": "string",
          "name": "",
          "type": "string"
        }
      ],
      "stateMutability": "view",
      "type": "function"
    },
    {
      "inputs": [],
      "name": "nextSnapshotDatetime",
      "outputs": [
        {
          "internalType": "uint256",
          "name": "",
          "type": "uint256"
        }
      ],
      "stateMutability": "view",
      "type": "function"
    },
    {
      "inputs": [
        {
          "internalType": "address",
          "name": "_from",
          "type": "address"
        },
        {
          "internalType": "address",
          "name": "_to",
          "type": "address"
        },
        {
          "internalType": "bytes32",
          "name": "_secret",
          "type": "bytes32"
        },
        {
          "internalType": "bytes32",
          "name": "_paymentProof",
          "type": "bytes32"
        }
      ],
      "name": "release",
      "outputs": [],
      "stateMutability": "nonpayable",
      "type": "function"
    },
    {
      "inputs": [
        {
          "internalType": "bytes32",
          "name": "role",
          "type": "bytes32"
        }
      ],
      "name": "renounceRole",
      "outputs": [],
      "stateMutability": "nonpayable",
      "type": "function"
    },
    {
      "inputs": [
        {
          "internalType": "bytes32",
          "name": "role",
          "type": "bytes32"
        },
        {
          "internalType": "address",
          "name": "account",
          "type": "address"
        }
      ],
      "name": "revokeRole",
      "outputs": [],
      "stateMutability": "nonpayable",
      "type": "function"
    },
    {
      "inputs": [
        {
          "components": [
            {
              "internalType": "address",
              "name": "seller",
              "type": "address"
            },
            {
              "internalType": "address",
              "name": "buyer",
              "type": "address"
            },
            {
              "internalType": "uint256",
              "name": "amount",
              "type": "uint256"
            },
            {
              "internalType": "bytes32",
              "name": "transactionID",
              "type": "bytes32"
            },
            {
              "internalType": "bytes32",
              "name": "paymentID",
              "type": "bytes32"
            },
            {
              "internalType": "bytes32",
              "name": "signature",
              "type": "bytes32"
            },
            {
              "internalType": "bytes32",
              "name": "hashlock",
              "type": "bytes32"
            },
            {
              "internalType": "bytes32",
              "name": "hashRelease",
              "type": "bytes32"
            },
            {
              "internalType": "bytes32",
              "name": "hashCancel",
              "type": "bytes32"
            },
            {
              "internalType": "uint256",
              "name": "paymentDate",
              "type": "uint256"
            },
            {
              "internalType": "uint256",
              "name": "deliveryDate",
              "type": "uint256"
            },
            {
              "internalType": "enum ICouponSnapshotManagementInternal.LockStatus",
              "name": "status",
              "type": "uint8"
            }
          ],
          "internalType": "struct ICouponSnapshotManagementInternal.LockInfo",
          "name": "_lockInfo",
          "type": "tuple"
        }
      ],
      "name": "setLock",
      "outputs": [],
      "stateMutability": "nonpayable",
      "type": "function"
    },
    {
      "inputs": [],
      "name": "symbol",
      "outputs": [
        {
          "internalType": "string",
          "name": "",
          "type": "string"
        }
      ],
      "stateMutability": "view",
      "type": "function"
    },
    {
      "inputs": [],
      "name": "totalSupply",
      "outputs": [
        {
          "internalType": "uint256",
          "name": "",
          "type": "uint256"
        }
      ],
      "stateMutability": "view",
      "type": "function"
    },
    {
      "inputs": [
        {
          "internalType": "uint256",
          "name": "snapshotId",
          "type": "uint256"
        }
      ],
      "name": "totalSupplyAt",
      "outputs": [
        {
          "internalType": "uint256",
          "name": "",
          "type": "uint256"
        }
      ],
      "stateMutability": "view",
      "type": "function"
    },
    {
      "inputs": [
        {
          "internalType": "uint256",
          "name": "_couponDate",
          "type": "uint256"
        }
      ],
      "name": "totalSupplyAtCoupon",
      "outputs": [
        {
          "internalType": "uint256",
          "name": "",
          "type": "uint256"
        }
      ],
      "stateMutability": "view",
      "type": "function"
    },
    {
      "inputs": [
        {
          "internalType": "address",
          "name": "",
          "type": "address"
        },
        {
          "internalType": "uint256",
          "name": "",
          "type": "uint256"
        }
      ],
      "name": "transfer",
      "outputs": [
        {
          "internalType": "bool",
          "name": "",
          "type": "bool"
        }
      ],
      "stateMutability": "nonpayable",
      "type": "function"
    },
    {
      "inputs": [
        {
          "internalType": "address",
          "name": "from_",
          "type": "address"
        },
        {
          "internalType": "address",
          "name": "to_",
          "type": "address"
        },
        {
          "internalType": "uint256",
          "name": "amount_",
          "type": "uint256"
        }
      ],
      "name": "transferFrom",
      "outputs": [
        {
          "internalType": "bool",
          "name": "",
          "type": "bool"
        }
      ],
      "stateMutability": "nonpayable",
      "type": "function"
    },
    {
      "inputs": [],
      "name": "trustedForwarder",
      "outputs": [
        {
          "internalType": "address",
          "name": "",
          "type": "address"
        }
      ],
      "stateMutability": "view",
      "type": "function"
    }
  ],
  "bytecode": "0x608060405234801561000f575f80fd5b50613d2d8061001d5f395ff3fe608060405234801561000f575f80fd5b506004361061029d575f3560e01c80637da0a87711610171578063a9059cbb116100d2578063d291aa1511610088578063dd62ed3e1161006e578063dd62ed3e146105b9578063e5bf6dc8146105cc578063eeb4cee9146105d4575f80fd5b8063d291aa1514610593578063d547741f146105a6575f80fd5b8063c1986484116100b8578063c19864841461055a578063ca15c8731461056d578063cf5b362814610580575f80fd5b8063a9059cbb14610534578063bb398ff114610547575f80fd5b806395d89b41116101275780639ef986de1161010d5780639ef986de14610506578063a0712d681461050e578063a457c2d714610521575f80fd5b806395d89b41146104eb578063981b24d0146104f3575f80fd5b80638bb9c5bf116101575780638bb9c5bf146104b25780639010d07c146104c557806391d14854146104d8575f80fd5b80637da0a8771461047a5780638865f1e21461049e575f80fd5b80632f2ff15d1161021b57806342966c68116101d1578063572b6c05116101b7578063572b6c051461043457806370a08231146104475780637cc7bcce1461045a575f80fd5b806342966c681461040e5780634ee2cd7e14610421575f80fd5b8063395093511161020157806339509351146103c15780633bf2a9f4146103d45780633e0abded146103fb575f80fd5b80632f2ff15d14610394578063313ce567146103a7575f80fd5b80631c67a36311610270578063248a9ca311610256578063248a9ca3146103455780632682ac9114610358578063287669281461037f575f80fd5b80631c67a3631461030b57806323b872dd14610332575f80fd5b806306fdde03146102a157806307b2d9e3146102bf578063095ea7b3146102e057806318160ddd14610303575b5f80fd5b6102a96105dc565b6040516102b6919061373c565b60405180910390f35b6102d26102cd366004613789565b6105eb565b6040519081526020016102b6565b6102f36102ee366004613789565b6105ff565b60405190151581526020016102b6565b6102d261064e565b6102d27f6ba6f588bcdc2df8426603a466c98ab15e79f7fb7f37b53581ce39c1d01b724981565b6102f36103403660046137b1565b610677565b6102d26103533660046137ea565b61068d565b6102d27ff698af62c65280e4949bceec64b760f3b7738217cbc536cdfc4c9463676b05c281565b61039261038d366004613859565b6106c2565b005b6103926103a2366004613907565b6106ce565b6103af610716565b60405160ff90911681526020016102b6565b6102f36103cf366004613789565b610742565b6102d27fd7aa2ddfa4e381128202bf365b7e0a176f2fca6cdf2f23c2b0a6f4393769589081565b6102d26104093660046137ea565b61078c565b61039261041c3660046137ea565b610819565b6102d261042f366004613789565b61082a565b6102f3610442366004613931565b610835565b6102d2610455366004613931565b61084b565b61046d6104683660046137ea565b610887565b6040516102b6919061394a565b5f546001600160a01b03165b6040516001600160a01b0390911681526020016102b6565b6102d25f80516020613cd883398151915281565b6103926104c03660046137ea565b610892565b6104866104d3366004613996565b61089b565b6102f36104e6366004613907565b6108a6565b6102a96108b1565b6102d26105013660046137ea565b6108bb565b6102d26108c5565b61039261051c3660046137ea565b6108ee565b6102f361052f366004613789565b6108f7565b6102f3610542366004613789565b610941565b6103926105553660046139b6565b61098b565b6103926105683660046139b6565b61099d565b6102d261057b3660046137ea565b6109a9565b6102d261058e3660046137ea565b6109b3565b6103926105a13660046139b6565b6109bd565b6103926105b4366004613907565b6109c9565b6102d26105c73660046139f5565b610a0c565b6102d2610a57565b6102d2610a80565b60606105e6610aa9565b905090565b5f6105f68383610b58565b90505b92915050565b60405162461bcd60e51b815260206004820152601360248201527f617070726f76652069732064697361626c65640000000000000000000000000060448201525f906064015b60405180910390fd5b5f6105e67fbbbdc1476a0878f2ef9a893c81f5b6f6ea1b3acaf18ff47ccb69cd4267d50c885490565b5f610683848484610bfc565b90505b9392505050565b5f8181527f2e59e4c2e927cdddbb64e181e0668d9a0fa70dd88f94d999cd87d5496a20da6260205260408120600201546105f9565b6106cb81611056565b50565b5f8281527f2e59e4c2e927cdddbb64e181e0668d9a0fa70dd88f94d999cd87d5496a20da6260205260409020600201546107078161169b565b61071183836116ac565b505050565b5f6105e67f8c998f45074727a62053813302c526655913012298b223f931495bf68495bf685460ff1690565b60405162461bcd60e51b815260206004820152601d60248201527f696e637265617365416c6c6f77616e63652069732064697361626c656400000060448201525f90606401610645565b5f8181527f95d8298a3d25370298f52eb5e4c2caa68ca2492c02741ad9ada9443a021d759160205260408120547f95d8298a3d25370298f52eb5e4c2caa68ca2492c02741ad9ada9443a021d758d9080156107f2576107ea81611833565b949350505050565b7fbbbdc1476a0878f2ef9a893c81f5b6f6ea1b3acaf18ff47ccb69cd4267d50c88546107ea565b6106cb610824611890565b82611899565b5f6105f683836119d3565b5f80546001600160a01b038381169116146105f9565b6001600160a01b0381165f9081527fbbbdc1476a0878f2ef9a893c81f5b6f6ea1b3acaf18ff47ccb69cd4267d50c8660205260408120546105f9565b60606105f982611a68565b6106cb81611c43565b5f6105f68383611c54565b5f6105f68383611c8a565b60606105e6611cc0565b5f6105f982611833565b5f6105e67f95d8298a3d25370298f52eb5e4c2caa68ca2492c02741ad9ada9443a021d758d5490565b6106cb81611cf1565b60405162461bcd60e51b815260206004820152601d60248201527f6465637265617365416c6c6f77616e63652069732064697361626c656400000060448201525f90606401610645565b60405162461bcd60e51b815260206004820152601460248201527f7472616e736665722069732064697361626c656400000000000000000000000060448201525f90606401610645565b61099784848484611e2d565b50505050565b61099784848484612224565b5f6105f98261258e565b5f6105f98261078c565b610997848484846109bd565b5f8281527f2e59e4c2e927cdddbb64e181e0668d9a0fa70dd88f94d999cd87d5496a20da626020526040902060020154610a028161169b565b61071183836125c3565b6001600160a01b038083165f9081527fbbbdc1476a0878f2ef9a893c81f5b6f6ea1b3acaf18ff47ccb69cd4267d50c87602090815260408083209385168352929052908120546105f6565b5f6105e67f95d8298a3d25370298f52eb5e4c2caa68ca2492c02741ad9ada9443a021d758f5490565b5f6105e67f95d8298a3d25370298f52eb5e4c2caa68ca2492c02741ad9ada9443a021d758e5490565b60607f8c998f45074727a62053813302c526655913012298b223f931495bf68495bf668054610ad790613a1d565b80601f0160208091040260200160405190810160405280929190818152602001828054610b0390613a1d565b8015610b4e5780601f10610b2557610100808354040283529160200191610b4e565b820191905f5260205f20905b815481529060010190602001808311610b3157829003601f168201915b5050505050905090565b5f8181527f95d8298a3d25370298f52eb5e4c2caa68ca2492c02741ad9ada9443a021d759160205260408120547f95d8298a3d25370298f52eb5e4c2caa68ca2492c02741ad9ada9443a021d758d908015610bc057610bb785826119d3565b925050506105f9565b6001600160a01b0385165f9081527fbbbdc1476a0878f2ef9a893c81f5b6f6ea1b3acaf18ff47ccb69cd4267d50c866020526040902054610bb7565b5f7fe02854d75ca0f6b56099fb1e1546a75ef76f441f4e6082f2e3cbb1e8dc5591a0610c355f80516020613cd883398151915233611c8a565b15610c5057610c45858585612747565b506001915050610686565b610c59336128dd565b610ca55760405162461bcd60e51b815260206004820181905260248201527f5468697320636f6e7472616374206973206e6f742077686974656c69737465646044820152606401610645565b6004815460ff166004811115610cbd57610cbd613a55565b03610d305760405162461bcd60e51b815260206004820152603360248201527f4e6f207472616e736665722063616e20626520646f6e65207768656e2074686560448201527f2072656769737465722069732046726f7a656e000000000000000000000000006064820152608401610645565b6001815460ff166004811115610d4857610d48613a55565b148015610d7a5750610d7a7ff698af62c65280e4949bceec64b760f3b7738217cbc536cdfc4c9463676b05c285611c8a565b8015610d955750600c8101546001600160a01b038681169116145b15610eeb578054600260ff19909116811782557f332cf6b129284e49df93f4be38bb1959bb5fa7d7d0ce3d4ad668f566f35f6fd4805460018181019092557f3b5a704516de56a4fa30eb29b0bf899a47de4e07d715ffde30cee9d593da4416810180546001600160a01b03891673ffffffffffffffffffffffffffffffffffffffff1991821681179092555f8281527f332cf6b129284e49df93f4be38bb1959bb5fa7d7d0ce3d4ad668f566f35f6fd56020526040902093840192909255825493830180549092169091557fffffffffffffffffffffff0000000000000000000000000000000000000000009092169091179055610e91611890565b81546040516001600160a01b0392909216917fda2010acfda7a262372331cb3b57e3f648f63eb009a423a2b5602cfa4f9bff5191610ede916001860191600287019160ff90911690613b24565b60405180910390a261104b565b610f32846001600160a01b03165f9081527f332cf6b129284e49df93f4be38bb1959bb5fa7d7d0ce3d4ad668f566f35f6fd56020526040902054600160a01b900460ff1690565b1515600114610f835760405162461bcd60e51b815260206004820152601b60248201527f546865207265636569766572206973206e6f7420616c6c6f77656400000000006044820152606401610645565b610fca856001600160a01b03165f9081527f332cf6b129284e49df93f4be38bb1959bb5fa7d7d0ce3d4ad668f566f35f6fd56020526040902054600160a01b900460ff1690565b151560011480610fff5750610fff7ff698af62c65280e4949bceec64b760f3b7738217cbc536cdfc4c9463676b05c286611c8a565b61104b5760405162461bcd60e51b815260206004820152601960248201527f5468652073656e646572206973206e6f7420616c6c6f776564000000000000006044820152606401610645565b610c45858585612747565b61106d5f80516020613cd883398151915233611c8a565b8061109d575061109d7ff698af62c65280e4949bceec64b760f3b7738217cbc536cdfc4c9463676b05c233611c8a565b806110ac57506110ac336128dd565b6110f85760405162461bcd60e51b815260206004820152601560248201527f43616c6c6572206e6f7420617574686f72697a656400000000000000000000006044820152606401610645565b80516001600160a01b039081165f9081527f95d8298a3d25370298f52eb5e4c2caa68ca2492c02741ad9ada9443a021d759260209081526040808320828601519094168352929052908120600b01547f95d8298a3d25370298f52eb5e4c2caa68ca2492c02741ad9ada9443a021d758d9160ff9091169081600481111561118157611181613a55565b146111ce5760405162461bcd60e51b815260206004820152601060248201527f4c6f636b20616c726561647920736574000000000000000000000000000000006044820152606401610645565b5f83610160015160048111156111e6576111e6613a55565b146112335760405162461bcd60e51b815260206004820152600e60248201527f496e76616c6964207374617475730000000000000000000000000000000000006044820152606401610645565b82516001600160a01b031615801590611258575060208301516001600160a01b031615155b6112a45760405162461bcd60e51b815260206004820152600f60248201527f496e76616c6964206164647265737300000000000000000000000000000000006044820152606401610645565b6112ef83602001516001600160a01b03165f9081527f332cf6b129284e49df93f4be38bb1959bb5fa7d7d0ce3d4ad668f566f35f6fd56020526040902054600160a01b900460ff1690565b15156001146113405760405162461bcd60e51b815260206004820152601b60248201527f546865207265636569766572206973206e6f7420616c6c6f77656400000000006044820152606401610645565b82516001600160a01b03165f9081527f332cf6b129284e49df93f4be38bb1959bb5fa7d7d0ce3d4ad668f566f35f6fd56020526040902054600160a01b900460ff161515600114806113ba57506113ba7ff698af62c65280e4949bceec64b760f3b7738217cbc536cdfc4c9463676b05c2845f0151611c8a565b6114065760405162461bcd60e51b815260206004820152601960248201527f5468652073656e646572206973206e6f7420616c6c6f776564000000000000006044820152606401610645565b5f8360400151116114595760405162461bcd60e51b815260206004820152600e60248201527f496e76616c696420616d6f756e740000000000000000000000000000000000006044820152606401610645565b6040830151835161149d906001600160a01b03165f9081527fbbbdc1476a0878f2ef9a893c81f5b6f6ea1b3acaf18ff47ccb69cd4267d50c86602052604090205490565b10156114eb5760405162461bcd60e51b815260206004820152601460248201527f496e73756666696369656e742062616c616e63650000000000000000000000006044820152606401610645565b42836101200151118015611509575082610120015183610140015110155b6115555760405162461bcd60e51b815260206004820152600d60248201527f496e76616c6964206461746573000000000000000000000000000000000000006044820152606401610645565b82516001600160a01b039081165f9081526005808501602090815260408084208289018051871686529252928390208751815490861673ffffffffffffffffffffffffffffffffffffffff1991821617825591516001808301805492909716919093161790945591860151600284015560608601516003840155608086015160048085019190915560a08701519184019190915560c0860151600684015560e0860151600784015561010086015160088401556101208601516009840155610140860151600a840155610160860151600b840180548895949293919260ff1990911691849081111561164957611649613a55565b02179055505050608083015160608401516101608501516040517f944dac77f7294ab12da54f588cbde82ed827b0d3c617cfcdec3fe3ec8be9c7c39161168e91613b62565b60405180910390a3505050565b6106cb816116a7611890565b612922565b8161170a5760405162461bcd60e51b8152602060048201526024808201527f5573652066756e6374696f6e206368616e676541646d696e526f6c6520696e736044820152631d19585960e21b6064820152608401610645565b611825565b5f80516020613cd883398151915282036117c05761173c5f80516020613cd8833981519152611737611890565b611c8a565b8061174e575061174e5f611737611890565b6117055760405162461bcd60e51b815260206004820152602e60248201527f43616c6c6572206d7573742062652043414b206f722041444d494e20746f207360448201527f657420616e6f746865722043414b0000000000000000000000000000000000006064820152608401610645565b6117d95f80516020613cd8833981519152611737611890565b6118255760405162461bcd60e51b815260206004820181905260248201527f43616c6c6572206d7573742062652043414b20746f20736574206120726f6c656044820152606401610645565b61182f8282612984565b5050565b5f8080611860847fcd7a55ef023eb5931cc022a9bdc64cb5b46c3a6e53bcaa84915eea6084f1c7b5612a07565b9150915081610686577fbbbdc1476a0878f2ef9a893c81f5b6f6ea1b3acaf18ff47ccb69cd4267d50c88546107ea565b5f6105e6612b10565b6001600160a01b0382166118d9576040517ff1e2c4ee00000000000000000000000000000000000000000000000000000000815260040160405180910390fd5b6118e4825f83612b42565b6001600160a01b0382165f9081527fbbbdc1476a0878f2ef9a893c81f5b6f6ea1b3acaf18ff47ccb69cd4267d50c86602081905260409091205480831115611958576040517fb1d35b2300000000000000000000000000000000000000000000000000000000815260040160405180910390fd5b6001600160a01b0384165f9081526020839052604081208483039055600283018054859290611988908490613b89565b90915550506040518381525f906001600160a01b038616907fddf252ad1be2c89b69c2b068fc378daa952ba7f163c4a11628f55a4df523b3ef9060200160405180910390a350505050565b5f8080611a18847fcd7a55ef023eb5931cc022a9bdc64cb5b46c3a6e53bcaa84915eea6084f1c7b46001600160a01b0388165f90815260209190915260409020612a07565b9150915081611a5d576001600160a01b0385165f9081527fbbbdc1476a0878f2ef9a893c81f5b6f6ea1b3acaf18ff47ccb69cd4267d50c866020526040902054611a5f565b805b95945050505050565b7f332cf6b129284e49df93f4be38bb1959bb5fa7d7d0ce3d4ad668f566f35f6fd48054606091905f9067ffffffffffffffff811115611aa957611aa9613801565b604051908082528060200260200182016040528015611ad2578160200160208202803683370190505b5090505f805b8354811015611b92575f611b13855f018381548110611af957611af9613b9c565b5f918252602090912001546001600160a01b031688610b58565b1115611b8057835f018181548110611b2d57611b2d613b9c565b905f5260205f20015f9054906101000a90046001600160a01b0316838381518110611b5a57611b5a613b9c565b6001600160a01b039092166020928302919091019091015281611b7c81613bb0565b9250505b80611b8a81613bb0565b915050611ad8565b505f8167ffffffffffffffff811115611bad57611bad613801565b604051908082528060200260200182016040528015611bd6578160200160208202803683370190505b5090505f5b82811015611c3957838181518110611bf557611bf5613b9c565b6020026020010151828281518110611c0f57611c0f613b9c565b6001600160a01b039092166020928302919091019091015280611c3181613bb0565b915050611bdb565b5095945050505050565b6106cb81611c4f611890565b6125c3565b5f8281527f2e59e4c2e927cdddbb64e181e0668d9a0fa70dd88f94d999cd87d5496a20da62602052604081206105f69083612de7565b5f8281527f2e59e4c2e927cdddbb64e181e0668d9a0fa70dd88f94d999cd87d5496a20da62602052604081206105f69083612df2565b60607f8c998f45074727a62053813302c526655913012298b223f931495bf68495bf666001018054610ad790613a1d565b611d0a5f80516020613cd8833981519152611737611890565b611d565760405162461bcd60e51b815260206004820152601260248201527f43616c6c6572206d7573742062652043414b00000000000000000000000000006044820152606401610645565b7fe02854d75ca0f6b56099fb1e1546a75ef76f441f4e6082f2e3cbb1e8dc5591ac547fe02854d75ca0f6b56099fb1e1546a75ef76f441f4e6082f2e3cbb1e8dc5591a0906001600160a01b0316611e155760405162461bcd60e51b815260206004820152602660248201527f596f75206d7573742073657420746865206d696e74207265636569766572206160448201527f64647265737300000000000000000000000000000000000000000000000000006064820152608401610645565b600c81015461182f906001600160a01b031683612e13565b611e445f80516020613cd883398151915233611c8a565b80611e745750611e747ff698af62c65280e4949bceec64b760f3b7738217cbc536cdfc4c9463676b05c233611c8a565b80611e835750611e83336128dd565b611ecf5760405162461bcd60e51b815260206004820152601560248201527f43616c6c6572206e6f7420617574686f72697a656400000000000000000000006044820152606401610645565b6001600160a01b038481165f9081527f95d8298a3d25370298f52eb5e4c2caa68ca2492c02741ad9ada9443a021d75926020908152604080832087851684528252808320815161018081018352815486168152600182015490951692850192909252600282015490840152600381015460608401526004808201546080850152600582015460a0850152600682015460c0850152600782015460e085015260088201546101008501526009820154610120850152600a820154610140850152600b8201547f95d8298a3d25370298f52eb5e4c2caa68ca2492c02741ad9ada9443a021d758d94929161016084019160ff1690811115611fd057611fd0613a55565b6004811115611fe157611fe1613a55565b905250905060018161016001516004811115611fff57611fff613a55565b146120585760405162461bcd60e51b8152602060048201526024808201527f4173736574206e6f74206c6f636b6564206f7220616c72656164792072656c65604482015263185cd95960e21b6064820152608401610645565b80610120015142116120d25760405162461bcd60e51b815260206004820152602860248201527f43616e6e6f7420666f7263652072656c65617365206265666f7265207061796d60448201527f656e7420646174650000000000000000000000000000000000000000000000006064820152608401610645565b8060e001516002856040516020016120ec91815260200190565b60408051601f198184030181529082905261210691613bc8565b602060405180830381855afa158015612121573d5f803e3d5ffd5b5050506040513d601f19601f820116820180604052508101906121449190613be3565b146121915760405162461bcd60e51b815260206004820152601c60248201527f496e76616c696420666f7263652072656c6561736520736563726574000000006044820152606401610645565b60036101608201819052506080810180515f90815260068401602090815260408083208790559251825290829020600301869055825190830151918301516121d99290610bfc565b50806080015181606001517f2089944216aac981761c066b1d0353ceb806269186ef8e9045b9b1b9483699c060036040516122149190613b62565b60405180910390a3505050505050565b61223b5f80516020613cd883398151915233611c8a565b8061226b575061226b7ff698af62c65280e4949bceec64b760f3b7738217cbc536cdfc4c9463676b05c233611c8a565b8061227a575061227a336128dd565b6122c65760405162461bcd60e51b815260206004820152601560248201527f43616c6c6572206e6f7420617574686f72697a656400000000000000000000006044820152606401610645565b6001600160a01b038481165f9081527f95d8298a3d25370298f52eb5e4c2caa68ca2492c02741ad9ada9443a021d75926020908152604080832087851684528252808320815161018081018352815486168152600182015490951692850192909252600282015490840152600381015460608401526004808201546080850152600582015460a0850152600682015460c0850152600782015460e085015260088201546101008501526009820154610120850152600a820154610140850152600b8201547f95d8298a3d25370298f52eb5e4c2caa68ca2492c02741ad9ada9443a021d758d94929161016084019160ff16908111156123c7576123c7613a55565b60048111156123d8576123d8613a55565b9052509050600181610160015160048111156123f6576123f6613a55565b1461244f5760405162461bcd60e51b8152602060048201526024808201527f4173736574206e6f74206c6f636b6564206f7220616c72656164792072656c65604482015263185cd95960e21b6064820152608401610645565b8060c0015160028560405160200161246991815260200190565b60408051601f198184030181529082905261248391613bc8565b602060405180830381855afa15801561249e573d5f803e3d5ffd5b5050506040513d601f19601f820116820180604052508101906124c19190613be3565b1461250e5760405162461bcd60e51b815260206004820152600e60248201527f496e76616c6964207365637265740000000000000000000000000000000000006044820152606401610645565b60026101608201526080810180515f90815260068401602090815260408083208790559251825290829020600101869055825190830151918301516125539290610bfc565b50806080015181606001517f2089944216aac981761c066b1d0353ceb806269186ef8e9045b9b1b9483699c060026040516122149190613b62565b5f8181527f2e59e4c2e927cdddbb64e181e0668d9a0fa70dd88f94d999cd87d5496a20da62602052604081206105f990612f20565b8161261c5760405162461bcd60e51b8152602060048201526024808201527f5573652066756e6374696f6e206368616e676541646d696e526f6c6520696e736044820152631d19585960e21b6064820152608401610645565b5f80516020613cd883398151915282036126b25761263c5f611737611890565b6126ad5760405162461bcd60e51b8152602060048201526024808201527f43616c6c6572206d7573742062652041444d494e20746f2072656d6f7665206160448201527f2043414b000000000000000000000000000000000000000000000000000000006064820152608401610645565b61273d565b6126cb5f80516020613cd8833981519152611737611890565b61273d5760405162461bcd60e51b815260206004820152602360248201527f43616c6c6572206d7573742062652043414b20746f2072656d6f76652061207260448201527f6f6c6500000000000000000000000000000000000000000000000000000000006064820152608401610645565b61182f8282612f29565b5f6001600160a01b038416612788576040517f68551d5f00000000000000000000000000000000000000000000000000000000815260040160405180910390fd5b6001600160a01b0383166127c8576040517f8289914400000000000000000000000000000000000000000000000000000000815260040160405180910390fd5b6127d3848484612b42565b6001600160a01b0384165f9081527fbbbdc1476a0878f2ef9a893c81f5b6f6ea1b3acaf18ff47ccb69cd4267d50c86602081905260409091205480841115612847576040517f7183160b00000000000000000000000000000000000000000000000000000000815260040160405180910390fd5b6001600160a01b038087165f9081526020849052604080822087850390559187168152908120805486929061287d908490613bfa565b92505081905550846001600160a01b0316866001600160a01b03167fddf252ad1be2c89b69c2b068fc378daa952ba7f163c4a11628f55a4df523b3ef866040516128c991815260200190565b60405180910390a350600195945050505050565b5f7f3ab46f175c5f1d1c97765e87ec0d68e6241fafc1b077d060ce0c29744cd3616d8161290984612fac565b5f90815260209290925250604090205460ff1692915050565b61292c8282611c8a565b61182f57612942816001600160a01b0316612fdc565b61294d836020612fee565b60405160200161295e929190613c0d565b60408051601f198184030181529082905262461bcd60e51b82526106459160040161373c565b5f8281527f2e59e4c2e927cdddbb64e181e0668d9a0fa70dd88f94d999cd87d5496a20da62602052604090206129ba9082613199565b506129c3611890565b6001600160a01b0316816001600160a01b0316837f2f8788117e7eff1d82e926ec794901d17c78024a50270940304540a733656f0d60405160405180910390a45050565b5f80835f03612a42576040517f6e6ae24700000000000000000000000000000000000000000000000000000000815260040160405180910390fd5b7fcd7a55ef023eb5931cc022a9bdc64cb5b46c3a6e53bcaa84915eea6084f1c7b7547fcd7a55ef023eb5931cc022a9bdc64cb5b46c3a6e53bcaa84915eea6084f1c7b490851115612abf576040517f3609372a00000000000000000000000000000000000000000000000000000000815260040160405180910390fd5b5f612aca85876131ad565b85549091508103612ae2575f80935093505050612b09565b6001856001018281548110612af957612af9613b9c565b905f5260205f2001549350935050505b9250929050565b5f80546001600160a01b031633148015612b2b575060143610155b15612b3d575060131936013560601c90565b503390565b60037fe02854d75ca0f6b56099fb1e1546a75ef76f441f4e6082f2e3cbb1e8dc5591a05460ff166004811115612b7a57612b7a613a55565b03612bc75760405162461bcd60e51b815260206004820152601660248201527f74686520526567697374657220697320636c6f736564000000000000000000006044820152606401610645565b6001600160a01b038381165f9081527f95d8298a3d25370298f52eb5e4c2caa68ca2492c02741ad9ada9443a021d759260209081526040808320938616835292905220600b01547f95d8298a3d25370298f52eb5e4c2caa68ca2492c02741ad9ada9443a021d758d9060ff166001816004811115612c4757612c47613a55565b03612c945760405162461bcd60e51b815260206004820152600f60248201527f4173736574206973206c6f636b656400000000000000000000000000000000006044820152606401610645565b600382015460ff1615612cb25760038201805460ff19169055612dcc565b8154612d4c5760405162461bcd60e51b815260206004820152604f60248201527f746865207265676973746572206973206c6f636b65642062656361757365206e60448201527f6f20636f75706f6e206973207072657061726564206f7220746865206d61747560648201527f7269747920697320726561636865640000000000000000000000000000000000608482015260a401610645565b81544210612dcc575f826001015411612dcc5760405162461bcd60e51b8152602060048201526024808201527f746865206d61747572697479206375742d6f66662074696d652068617320706160448201527f73736564000000000000000000000000000000000000000000000000000000006064820152608401610645565b612dd461324f565b50612de085858561333e565b5050505050565b5f6105f68383613386565b6001600160a01b0381165f90815260018301602052604081205415156105f6565b6001600160a01b038216612e53576040517fda007acd00000000000000000000000000000000000000000000000000000000815260040160405180910390fd5b612e5e5f8383612b42565b7fbbbdc1476a0878f2ef9a893c81f5b6f6ea1b3acaf18ff47ccb69cd4267d50c8880547fbbbdc1476a0878f2ef9a893c81f5b6f6ea1b3acaf18ff47ccb69cd4267d50c869183915f90612eb2908490613bfa565b90915550506001600160a01b0383165f9081526020829052604081208054849290612ede908490613bfa565b90915550506040518281526001600160a01b038416905f907fddf252ad1be2c89b69c2b068fc378daa952ba7f163c4a11628f55a4df523b3ef9060200161168e565b5f6105f9825490565b5f8281527f2e59e4c2e927cdddbb64e181e0668d9a0fa70dd88f94d999cd87d5496a20da6260205260409020612f5f90826133e7565b50612f68611890565b6001600160a01b0316816001600160a01b0316837ff6391f5c32d9c69d2a47ea670b442974b53935d1edc7fd64eb21e047a839171b60405160405180910390a45050565b60408051603f833b908101601f191682019092528181525f91808360208401863c50805160209091012092915050565b60606105f96001600160a01b03831660145b60605f612ffc836002613c8d565b613007906002613bfa565b67ffffffffffffffff81111561301f5761301f613801565b6040519080825280601f01601f191660200182016040528015613049576020820181803683370190505b5090507f3000000000000000000000000000000000000000000000000000000000000000815f8151811061307f5761307f613b9c565b60200101906001600160f81b03191690815f1a9053507f7800000000000000000000000000000000000000000000000000000000000000816001815181106130c9576130c9613b9c565b60200101906001600160f81b03191690815f1a905350600160028402015b6001811115613160577f303132333435363738396162636465660000000000000000000000000000000085600f166010811061312557613125613b9c565b1a60f81b82828151811061313b5761313b613b9c565b60200101906001600160f81b03191690815f1a90535060049490941c935f19016130e7565b5083156105f6576040517fc913478500000000000000000000000000000000000000000000000000000000815260040160405180910390fd5b5f6105f6836001600160a01b0384166133fb565b81545f9081036131be57505f6105f9565b82545f905b8082101561320f575f81831682841860011c019050848682815481106131eb576131eb613b9c565b905f5260205f200154111561320257809150613209565b8060010192505b506131c3565b5f8211801561323a57508385600184038154811061322f5761322f613b9c565b905f5260205f200154145b6132445781611a5f565b505f19019392505050565b7f95d8298a3d25370298f52eb5e4c2caa68ca2492c02741ad9ada9443a021d758d80545f919015801590613295575060028101545f908152600482016020526040902054155b80156132a2575080544210155b15613337575f6132b061343c565b60028301545f908152600484016020526040902081905560018301549091506132d9575f6132ea565b6132ea8260010154835f01546134d1565b8083556132f7905f6134d1565b6002830181905560018301548354604051919290917f4d1d74d5cbfc13e02ef05af3a30d8721e87a00d20bc3dc42198917139944def3905f90a492915050565b5f91505090565b6001600160a01b03831661335d5761335582613507565b610711613577565b6001600160a01b0382166133745761335583613507565b61337d82613507565b61071183613507565b81545f9082106133c2576040517fe637bf3b00000000000000000000000000000000000000000000000000000000815260040160405180910390fd5b825f0182815481106133d6576133d6613b9c565b905f5260205f200154905092915050565b5f6105f6836001600160a01b0384166135c5565b5f8181526001830160205260408120546105f957508154600180820184555f8481526020808220909301849055845493815293810190915260409092205590565b7fcd7a55ef023eb5931cc022a9bdc64cb5b46c3a6e53bcaa84915eea6084f1c7b780545f917fcd7a55ef023eb5931cc022a9bdc64cb5b46c3a6e53bcaa84915eea6084f1c7b491908361348e83613bb0565b909155505060038101546040518181527f8030e83b04d87bef53480e26263266d6ca66863aa8506aca6f2559d18aa1cb679060200160405180910390a192915050565b5f806134e06201518085613ca4565b90506134ec8185613b89565b91506134fb6201518084613ca4565b90506107ea8183613bfa565b6001600160a01b0381165f9081527fcd7a55ef023eb5931cc022a9bdc64cb5b46c3a6e53bcaa84915eea6084f1c7b4602090815260408083207fbbbdc1476a0878f2ef9a893c81f5b6f6ea1b3acaf18ff47ccb69cd4267d50c86909252909120546106cb919061367d565b61367d565b6135c37fcd7a55ef023eb5931cc022a9bdc64cb5b46c3a6e53bcaa84915eea6084f1c7b56135727fbbbdc1476a0878f2ef9a893c81f5b6f6ea1b3acaf18ff47ccb69cd4267d50c885490565b565b5f81815260018301602052604081205480156136765783545f9085905f1981019081106135f4576135f4613b9c565b905f5260205f200154905080855f01600184038154811061361757613617613b9c565b5f91825260208083209091019290925591825260018601905260409020819055835484908061364857613648613cc3565b600190038181905f5260205f20015f90559055836001015f8481526020019081526020015f205f9055600191505b5092915050565b7fcd7a55ef023eb5931cc022a9bdc64cb5b46c3a6e53bcaa84915eea6084f1c7b754806136a9846136dc565b1015610711578254600180820185555f858152602080822090930193909355938401805494850181558252902090910155565b80545f901561371357815482906136f590600190613b89565b8154811061370557613705613b9c565b905f5260205f2001546105f9565b5f92915050565b5f5b8381101561373457818101518382015260200161371c565b50505f910152565b602081525f825180602084015261375a81604085016020870161371a565b601f01601f19169190910160400192915050565b80356001600160a01b0381168114613784575f80fd5b919050565b5f806040838503121561379a575f80fd5b6137a38361376e565b946020939093013593505050565b5f805f606084860312156137c3575f80fd5b6137cc8461376e565b92506137da6020850161376e565b9150604084013590509250925092565b5f602082840312156137fa575f80fd5b5035919050565b634e487b7160e01b5f52604160045260245ffd5b604051610180810167ffffffffffffffff8111828210171561384557634e487b7160e01b5f52604160045260245ffd5b60405290565b803560058110613784575f80fd5b5f610180828403121561386a575f80fd5b613872613815565b61387b8361376e565b81526138896020840161376e565b602082015260408301356040820152606083013560608201526080830135608082015260a083013560a082015260c083013560c082015260e083013560e08201526101008084013581830152506101208084013581830152506101408084013581830152506101606138fc81850161384b565b908201529392505050565b5f8060408385031215613918575f80fd5b823591506139286020840161376e565b90509250929050565b5f60208284031215613941575f80fd5b6105f68261376e565b602080825282518282018190525f9190848201906040850190845b8181101561398a5783516001600160a01b031683529284019291840191600101613965565b50909695505050505050565b5f80604083850312156139a7575f80fd5b50508035926020909101359150565b5f805f80608085870312156139c9575f80fd5b6139d28561376e565b93506139e06020860161376e565b93969395505050506040820135916060013590565b5f8060408385031215613a06575f80fd5b613a0f8361376e565b91506139286020840161376e565b600181811c90821680613a3157607f821691505b602082108103613a4f57634e487b7160e01b5f52602260045260245ffd5b50919050565b634e487b7160e01b5f52602160045260245ffd5b80545f90600181811c9080831680613a8257607f831692505b60208084108203613aa157634e487b7160e01b5f52602260045260245ffd5b83885260208801828015613abc5760018114613ad257613afb565b60ff198716825285151560051b82019750613afb565b5f898152602090205f5b87811015613af557815484820152908601908401613adc565b83019850505b5050505050505092915050565b600581106106cb57634e487b7160e01b5f52602160045260245ffd5b606081525f613b366060830186613a69565b8281036020840152613b488186613a69565b915050613b5483613b08565b826040830152949350505050565b60208101613b6f83613b08565b91905290565b634e487b7160e01b5f52601160045260245ffd5b818103818111156105f9576105f9613b75565b634e487b7160e01b5f52603260045260245ffd5b5f60018201613bc157613bc1613b75565b5060010190565b5f8251613bd981846020870161371a565b9190910192915050565b5f60208284031215613bf3575f80fd5b5051919050565b808201808211156105f9576105f9613b75565b7f416363657373436f6e74726f6c3a206163636f756e742000000000000000000081525f8351613c4481601785016020880161371a565b7f206973206d697373696e6720726f6c65200000000000000000000000000000006017918401918201528351613c8181602884016020880161371a565b01602801949350505050565b80820281158282048414176105f9576105f9613b75565b5f82613cbe57634e487b7160e01b5f52601260045260245ffd5b500690565b634e487b7160e01b5f52603160045260245ffdfea75205b8583660bdad375c0ccde11af17668d76a408a9a5e739251b0f7c59870a26469706673582212205469c1a48da0b3510e5ba4fc6d895c0d4c929305f7ced90fe2b5dd2791e2dfc864736f6c63430008140033",
  "linkReferences": {},
  "deployedLinkReferences": {}
}