{
  "_format": "hh-sol-artifact-1",
  "contractName": "CouponSnapshotManagement",
  "sourceName": "contracts/register/snapshot/CouponSnapshotManagement.sol",
  "abi": [
    {
      "inputs": [],
      "name": "ERC20Base__ApproveFromZeroAddress",
      "type": "error"
    },
    {
      "inputs": [],
      "name": "ERC20Base__ApproveToZeroAddress",
      "type": "error"
    },
    {
      "inputs": [],
      "name": "ERC20Base__BurnExceedsBalance",
      "type": "error"
    },
    {
      "inputs": [],
      "name": "ERC20Base__BurnFromZeroAddress",
      "type": "error"
    },
    {
      "inputs": [],
      "name": "ERC20Base__InsufficientAllowance",
      "type": "error"
    },
    {
      "inputs": [],
      "name": "ERC20Base__MintToZeroAddress",
      "type": "error"
    },
    {
      "inputs": [],
      "name": "ERC20Base__TransferExceedsBalance",
      "type": "error"
    },
    {
      "inputs": [],
      "name": "ERC20Base__TransferFromZeroAddress",
      "type": "error"
    },
    {
      "inputs": [],
      "name": "ERC20Base__TransferToZeroAddress",
      "type": "error"
    },
    {
      "inputs": [],
      "name": "ERC20Snapshot__SnapshotIdDoesNotExists",
      "type": "error"
    },
    {
      "inputs": [],
      "name": "ERC20Snapshot__SnapshotIdIsZero",
      "type": "error"
    },
    {
      "inputs": [],
      "name": "EnumerableSet__IndexOutOfBounds",
      "type": "error"
    },
    {
      "inputs": [],
      "name": "ReentrancyGuard__ReentrantCall",
      "type": "error"
    },
    {
      "inputs": [],
      "name": "UintUtils__InsufficientHexLength",
      "type": "error"
    },
    {
      "anonymous": false,
      "inputs": [
        {
          "indexed": true,
          "internalType": "address",
          "name": "_addressForNewAdmin",
          "type": "address"
        }
      ],
      "name": "AdminChanged",
      "type": "event"
    },
    {
      "anonymous": false,
      "inputs": [
        {
          "indexed": true,
          "internalType": "address",
          "name": "owner",
          "type": "address"
        },
        {
          "indexed": true,
          "internalType": "address",
          "name": "spender",
          "type": "address"
        },
        {
          "indexed": false,
          "internalType": "uint256",
          "name": "value",
          "type": "uint256"
        }
      ],
      "name": "Approval",
      "type": "event"
    },
    {
      "anonymous": false,
      "inputs": [
        {
          "indexed": true,
          "internalType": "bytes32",
          "name": "txId",
          "type": "bytes32"
        },
        {
          "indexed": true,
          "internalType": "address",
          "name": "from",
          "type": "address"
        },
        {
          "indexed": true,
          "internalType": "address",
          "name": "to",
          "type": "address"
        },
        {
          "indexed": false,
          "internalType": "bytes32",
          "name": "hL",
          "type": "bytes32"
        },
        {
          "indexed": false,
          "internalType": "enum ICouponSnapshotManagementInternal.LStatus",
          "name": "status",
          "type": "uint8"
        }
      ],
      "name": "AssetHTLC",
      "type": "event"
    },
    {
      "anonymous": false,
      "inputs": [
        {
          "indexed": false,
          "internalType": "bytes32",
          "name": "contractHash",
          "type": "bytes32"
        }
      ],
      "name": "DisableContract",
      "type": "event"
    },
    {
      "anonymous": false,
      "inputs": [
        {
          "indexed": false,
          "internalType": "address",
          "name": "investor",
          "type": "address"
        }
      ],
      "name": "DisableInvestor",
      "type": "event"
    },
    {
      "anonymous": false,
      "inputs": [
        {
          "indexed": false,
          "internalType": "bytes32",
          "name": "contractHash",
          "type": "bytes32"
        }
      ],
      "name": "EnableContract",
      "type": "event"
    },
    {
      "anonymous": false,
      "inputs": [
        {
          "indexed": false,
          "internalType": "address",
          "name": "investor",
          "type": "address"
        }
      ],
      "name": "EnableInvestor",
      "type": "event"
    },
    {
      "anonymous": false,
      "inputs": [
        {
          "indexed": false,
          "internalType": "uint64",
          "name": "version",
          "type": "uint64"
        }
      ],
      "name": "Initialized",
      "type": "event"
    },
    {
      "anonymous": false,
      "inputs": [
        {
          "indexed": true,
          "internalType": "address",
          "name": "creator",
          "type": "address"
        },
        {
          "indexed": false,
          "internalType": "string",
          "name": "name",
          "type": "string"
        },
        {
          "indexed": false,
          "internalType": "string",
          "name": "isin",
          "type": "string"
        }
      ],
      "name": "NewBondDrafted",
      "type": "event"
    },
    {
      "anonymous": false,
      "inputs": [
        {
          "indexed": true,
          "internalType": "address",
          "name": "sender",
          "type": "address"
        },
        {
          "indexed": true,
          "internalType": "address",
          "name": "target",
          "type": "address"
        },
        {
          "indexed": false,
          "internalType": "string",
          "name": "message",
          "type": "string"
        }
      ],
      "name": "PublicMessage",
      "type": "event"
    },
    {
      "anonymous": false,
      "inputs": [
        {
          "indexed": true,
          "internalType": "address",
          "name": "emiter",
          "type": "address"
        },
        {
          "indexed": false,
          "internalType": "string",
          "name": "name",
          "type": "string"
        },
        {
          "indexed": false,
          "internalType": "string",
          "name": "isin",
          "type": "string"
        },
        {
          "indexed": false,
          "internalType": "enum IRegisterMetadataInternal.Status",
          "name": "status",
          "type": "uint8"
        }
      ],
      "name": "RegisterStatusChanged",
      "type": "event"
    },
    {
      "anonymous": false,
      "inputs": [
        {
          "indexed": true,
          "internalType": "bytes32",
          "name": "role",
          "type": "bytes32"
        },
        {
          "indexed": true,
          "internalType": "bytes32",
          "name": "previousAdminRole",
          "type": "bytes32"
        },
        {
          "indexed": true,
          "internalType": "bytes32",
          "name": "newAdminRole",
          "type": "bytes32"
        }
      ],
      "name": "RoleAdminChanged",
      "type": "event"
    },
    {
      "anonymous": false,
      "inputs": [
        {
          "indexed": true,
          "internalType": "bytes32",
          "name": "role",
          "type": "bytes32"
        },
        {
          "indexed": true,
          "internalType": "address",
          "name": "account",
          "type": "address"
        },
        {
          "indexed": true,
          "internalType": "address",
          "name": "sender",
          "type": "address"
        }
      ],
      "name": "RoleGranted",
      "type": "event"
    },
    {
      "anonymous": false,
      "inputs": [
        {
          "indexed": true,
          "internalType": "bytes32",
          "name": "role",
          "type": "bytes32"
        },
        {
          "indexed": true,
          "internalType": "address",
          "name": "account",
          "type": "address"
        },
        {
          "indexed": true,
          "internalType": "address",
          "name": "sender",
          "type": "address"
        }
      ],
      "name": "RoleRevoked",
      "type": "event"
    },
    {
      "anonymous": false,
      "inputs": [
        {
          "indexed": false,
          "internalType": "uint256",
          "name": "id",
          "type": "uint256"
        }
      ],
      "name": "Snapshot",
      "type": "event"
    },
    {
      "anonymous": false,
      "inputs": [
        {
          "indexed": true,
          "internalType": "uint256",
          "name": "couponDate",
          "type": "uint256"
        },
        {
          "indexed": true,
          "internalType": "uint256",
          "name": "currentTimestamp",
          "type": "uint256"
        },
        {
          "indexed": true,
          "internalType": "uint256",
          "name": "nextTimestamp",
          "type": "uint256"
        }
      ],
      "name": "SnapshotTimestampChange",
      "type": "event"
    },
    {
      "anonymous": false,
      "inputs": [
        {
          "indexed": true,
          "internalType": "address",
          "name": "from",
          "type": "address"
        },
        {
          "indexed": true,
          "internalType": "address",
          "name": "to",
          "type": "address"
        },
        {
          "indexed": false,
          "internalType": "uint256",
          "name": "value",
          "type": "uint256"
        }
      ],
      "name": "Transfer",
      "type": "event"
    },
    {
      "anonymous": false,
      "inputs": [
        {
          "indexed": true,
          "internalType": "address",
          "name": "toBeAdded",
          "type": "address"
        }
      ],
      "name": "WalletAddedToWhitelist",
      "type": "event"
    },
    {
      "anonymous": false,
      "inputs": [
        {
          "indexed": true,
          "internalType": "address",
          "name": "toBeDeleted",
          "type": "address"
        }
      ],
      "name": "WalletDeletedFromWhitelist",
      "type": "event"
    },
    {
      "inputs": [],
      "name": "BND_ROLE",
      "outputs": [
        {
          "internalType": "bytes32",
          "name": "",
          "type": "bytes32"
        }
      ],
      "stateMutability": "view",
      "type": "function"
    },
    {
      "inputs": [],
      "name": "CAK_ROLE",
      "outputs": [
        {
          "internalType": "bytes32",
          "name": "",
          "type": "bytes32"
        }
      ],
      "stateMutability": "view",
      "type": "function"
    },
    {
      "inputs": [],
      "name": "CST_ROLE",
      "outputs": [
        {
          "internalType": "bytes32",
          "name": "",
          "type": "bytes32"
        }
      ],
      "stateMutability": "view",
      "type": "function"
    },
    {
      "inputs": [],
      "name": "PAY_ROLE",
      "outputs": [
        {
          "internalType": "bytes32",
          "name": "",
          "type": "bytes32"
        }
      ],
      "stateMutability": "view",
      "type": "function"
    },
    {
      "inputs": [
        {
          "internalType": "uint256",
          "name": "_couponDate",
          "type": "uint256"
        }
      ],
      "name": "_totalSupplyAtCoupon",
      "outputs": [
        {
          "internalType": "uint256",
          "name": "",
          "type": "uint256"
        }
      ],
      "stateMutability": "view",
      "type": "function"
    },
    {
      "inputs": [
        {
          "internalType": "address",
          "name": "holder",
          "type": "address"
        },
        {
          "internalType": "address",
          "name": "spender",
          "type": "address"
        }
      ],
      "name": "allowance",
      "outputs": [
        {
          "internalType": "uint256",
          "name": "",
          "type": "uint256"
        }
      ],
      "stateMutability": "view",
      "type": "function"
    },
    {
      "inputs": [
        {
          "internalType": "address",
          "name": "",
          "type": "address"
        },
        {
          "internalType": "uint256",
          "name": "",
          "type": "uint256"
        }
      ],
      "name": "approve",
      "outputs": [
        {
          "internalType": "bool",
          "name": "",
          "type": "bool"
        }
      ],
      "stateMutability": "nonpayable",
      "type": "function"
    },
    {
      "inputs": [
        {
          "internalType": "address",
          "name": "account",
          "type": "address"
        }
      ],
      "name": "balanceOf",
      "outputs": [
        {
          "internalType": "uint256",
          "name": "",
          "type": "uint256"
        }
      ],
      "stateMutability": "view",
      "type": "function"
    },
    {
      "inputs": [
        {
          "internalType": "address",
          "name": "account",
          "type": "address"
        },
        {
          "internalType": "uint256",
          "name": "snapshotId",
          "type": "uint256"
        }
      ],
      "name": "balanceOfAt",
      "outputs": [
        {
          "internalType": "uint256",
          "name": "",
          "type": "uint256"
        }
      ],
      "stateMutability": "view",
      "type": "function"
    },
    {
      "inputs": [
        {
          "internalType": "address",
          "name": "account",
          "type": "address"
        },
        {
          "internalType": "uint256",
          "name": "_couponDate",
          "type": "uint256"
        }
      ],
      "name": "balanceOfCoupon",
      "outputs": [
        {
          "internalType": "uint256",
          "name": "",
          "type": "uint256"
        }
      ],
      "stateMutability": "view",
      "type": "function"
    },
    {
      "inputs": [
        {
          "internalType": "uint256",
          "name": "amount_",
          "type": "uint256"
        }
      ],
      "name": "burn",
      "outputs": [],
      "stateMutability": "nonpayable",
      "type": "function"
    },
    {
      "inputs": [],
      "name": "currentCouponDate",
      "outputs": [
        {
          "internalType": "uint256",
          "name": "",
          "type": "uint256"
        }
      ],
      "stateMutability": "view",
      "type": "function"
    },
    {
      "inputs": [],
      "name": "currentSnapshotDatetime",
      "outputs": [
        {
          "internalType": "uint256",
          "name": "",
          "type": "uint256"
        }
      ],
      "stateMutability": "view",
      "type": "function"
    },
    {
      "inputs": [],
      "name": "decimals",
      "outputs": [
        {
          "internalType": "uint8",
          "name": "",
          "type": "uint8"
        }
      ],
      "stateMutability": "view",
      "type": "function"
    },
    {
      "inputs": [
        {
          "internalType": "address",
          "name": "",
          "type": "address"
        },
        {
          "internalType": "uint256",
          "name": "",
          "type": "uint256"
        }
      ],
      "name": "decreaseAllowance",
      "outputs": [
        {
          "internalType": "bool",
          "name": "",
          "type": "bool"
        }
      ],
      "stateMutability": "nonpayable",
      "type": "function"
    },
    {
      "inputs": [
        {
          "internalType": "uint256",
          "name": "CouponDate",
          "type": "uint256"
        }
      ],
      "name": "getInvestorListAtCoupon",
      "outputs": [
        {
          "internalType": "address[]",
          "name": "",
          "type": "address[]"
        }
      ],
      "stateMutability": "view",
      "type": "function"
    },
    {
      "inputs": [
        {
          "internalType": "bytes32",
          "name": "role",
          "type": "bytes32"
        }
      ],
      "name": "getRoleAdmin",
      "outputs": [
        {
          "internalType": "bytes32",
          "name": "",
          "type": "bytes32"
        }
      ],
      "stateMutability": "view",
      "type": "function"
    },
    {
      "inputs": [
        {
          "internalType": "bytes32",
          "name": "role",
          "type": "bytes32"
        },
        {
          "internalType": "uint256",
          "name": "index",
          "type": "uint256"
        }
      ],
      "name": "getRoleMember",
      "outputs": [
        {
          "internalType": "address",
          "name": "",
          "type": "address"
        }
      ],
      "stateMutability": "view",
      "type": "function"
    },
    {
      "inputs": [
        {
          "internalType": "bytes32",
          "name": "role",
          "type": "bytes32"
        }
      ],
      "name": "getRoleMemberCount",
      "outputs": [
        {
          "internalType": "uint256",
          "name": "",
          "type": "uint256"
        }
      ],
      "stateMutability": "view",
      "type": "function"
    },
    {
      "inputs": [
        {
          "internalType": "bytes32",
          "name": "role",
          "type": "bytes32"
        },
        {
          "internalType": "address",
          "name": "account",
          "type": "address"
        }
      ],
      "name": "grantRole",
      "outputs": [],
      "stateMutability": "nonpayable",
      "type": "function"
    },
    {
      "inputs": [
        {
          "internalType": "bytes32",
          "name": "role",
          "type": "bytes32"
        },
        {
          "internalType": "address",
          "name": "account",
          "type": "address"
        }
      ],
      "name": "hasRole",
      "outputs": [
        {
          "internalType": "bool",
          "name": "",
          "type": "bool"
        }
      ],
      "stateMutability": "view",
      "type": "function"
    },
    {
      "inputs": [
        {
          "internalType": "address",
          "name": "",
          "type": "address"
        },
        {
          "internalType": "uint256",
          "name": "",
          "type": "uint256"
        }
      ],
      "name": "increaseAllowance",
      "outputs": [
        {
          "internalType": "bool",
          "name": "",
          "type": "bool"
        }
      ],
      "stateMutability": "nonpayable",
      "type": "function"
    },
    {
      "inputs": [
        {
          "internalType": "address",
          "name": "forwarder",
          "type": "address"
        }
      ],
      "name": "isTrustedForwarder",
      "outputs": [
        {
          "internalType": "bool",
          "name": "",
          "type": "bool"
        }
      ],
      "stateMutability": "view",
      "type": "function"
    },
    {
      "inputs": [
        {
          "internalType": "address",
          "name": "from",
          "type": "address"
        },
        {
          "internalType": "address",
          "name": "to",
          "type": "address"
        },
        {
          "internalType": "uint256",
          "name": "amount",
          "type": "uint256"
        },
        {
          "internalType": "bytes32",
          "name": "txId",
          "type": "bytes32"
        },
        {
          "internalType": "bytes32",
          "name": "hL",
          "type": "bytes32"
        },
        {
          "internalType": "bytes32",
          "name": "hR",
          "type": "bytes32"
        },
        {
          "internalType": "bytes32",
          "name": "hC",
          "type": "bytes32"
        },
        {
          "internalType": "uint256",
          "name": "pDate",
          "type": "uint256"
        },
        {
          "internalType": "uint256",
          "name": "dDate",
          "type": "uint256"
        },
        {
          "internalType": "bytes32",
          "name": "proof",
          "type": "bytes32"
        }
      ],
      "name": "lock",
      "outputs": [],
      "stateMutability": "nonpayable",
      "type": "function"
    },
    {
      "inputs": [
        {
          "internalType": "uint256",
          "name": "amount_",
          "type": "uint256"
        }
      ],
      "name": "mint",
      "outputs": [],
      "stateMutability": "nonpayable",
      "type": "function"
    },
    {
      "inputs": [],
      "name": "name",
      "outputs": [
        {
          "internalType": "string",
          "name": "",
          "type": "string"
        }
      ],
      "stateMutability": "view",
      "type": "function"
    },
    {
      "inputs": [],
      "name": "nextSnapshotDatetime",
      "outputs": [
        {
          "internalType": "uint256",
          "name": "",
          "type": "uint256"
        }
      ],
      "stateMutability": "view",
      "type": "function"
    },
    {
      "inputs": [
        {
          "internalType": "bytes32",
          "name": "txId",
          "type": "bytes32"
        },
        {
          "internalType": "bytes32",
          "name": "secret",
          "type": "bytes32"
        },
        {
          "internalType": "bytes32",
          "name": "proof",
          "type": "bytes32"
        },
        {
          "internalType": "enum ICouponSnapshotManagementInternal.LStatus",
          "name": "status_",
          "type": "uint8"
        }
      ],
      "name": "release",
      "outputs": [],
      "stateMutability": "nonpayable",
      "type": "function"
    },
    {
      "inputs": [
        {
          "internalType": "bytes32",
          "name": "role",
          "type": "bytes32"
        }
      ],
      "name": "renounceRole",
      "outputs": [],
      "stateMutability": "nonpayable",
      "type": "function"
    },
    {
      "inputs": [
        {
          "internalType": "bytes32",
          "name": "role",
          "type": "bytes32"
        },
        {
          "internalType": "address",
          "name": "account",
          "type": "address"
        }
      ],
      "name": "revokeRole",
      "outputs": [],
      "stateMutability": "nonpayable",
      "type": "function"
    },
    {
      "inputs": [],
      "name": "symbol",
      "outputs": [
        {
          "internalType": "string",
          "name": "",
          "type": "string"
        }
      ],
      "stateMutability": "view",
      "type": "function"
    },
    {
      "inputs": [],
      "name": "totalSupply",
      "outputs": [
        {
          "internalType": "uint256",
          "name": "",
          "type": "uint256"
        }
      ],
      "stateMutability": "view",
      "type": "function"
    },
    {
      "inputs": [
        {
          "internalType": "uint256",
          "name": "snapshotId",
          "type": "uint256"
        }
      ],
      "name": "totalSupplyAt",
      "outputs": [
        {
          "internalType": "uint256",
          "name": "",
          "type": "uint256"
        }
      ],
      "stateMutability": "view",
      "type": "function"
    },
    {
      "inputs": [
        {
          "internalType": "uint256",
          "name": "_couponDate",
          "type": "uint256"
        }
      ],
      "name": "totalSupplyAtCoupon",
      "outputs": [
        {
          "internalType": "uint256",
          "name": "",
          "type": "uint256"
        }
      ],
      "stateMutability": "view",
      "type": "function"
    },
    {
      "inputs": [
        {
          "internalType": "address",
          "name": "",
          "type": "address"
        },
        {
          "internalType": "uint256",
          "name": "",
          "type": "uint256"
        }
      ],
      "name": "transfer",
      "outputs": [
        {
          "internalType": "bool",
          "name": "",
          "type": "bool"
        }
      ],
      "stateMutability": "nonpayable",
      "type": "function"
    },
    {
      "inputs": [
        {
          "internalType": "address",
          "name": "from_",
          "type": "address"
        },
        {
          "internalType": "address",
          "name": "to_",
          "type": "address"
        },
        {
          "internalType": "uint256",
          "name": "amount_",
          "type": "uint256"
        }
      ],
      "name": "transferFrom",
      "outputs": [
        {
          "internalType": "bool",
          "name": "",
          "type": "bool"
        }
      ],
      "stateMutability": "nonpayable",
      "type": "function"
    },
    {
      "inputs": [],
      "name": "trustedForwarder",
      "outputs": [
        {
          "internalType": "address",
          "name": "",
          "type": "address"
        }
      ],
      "stateMutability": "view",
      "type": "function"
    }
  ],
  "bytecode": "0x608060405234801561000f575f80fd5b506137088061001d5f395ff3fe608060405234801561000f575f80fd5b5060043610610269575f3560e01c80637c5d728a116101575780639ef986de116100d2578063cf5b362811610088578063dd62ed3e1161006e578063dd62ed3e14610572578063e5bf6dc814610585578063eeb4cee91461058d575f80fd5b8063cf5b36281461054c578063d547741f1461055f575f80fd5b8063a457c2d7116100b8578063a457c2d714610513578063a9059cbb14610526578063ca15c87314610539575f80fd5b80639ef986de146104f8578063a0712d6814610500575f80fd5b80638bb9c5bf1161012757806391d148541161010d57806391d14854146104ca57806395d89b41146104dd578063981b24d0146104e5575f80fd5b80638bb9c5bf146104a45780639010d07c146104b7575f80fd5b80637c5d728a146104265780637cc7bcce146104395780637da0a877146104595780638865f1e21461047d575f80fd5b80632f2ff15d116101e75780633e0abded116101b75780634ee2cd7e1161019d5780634ee2cd7e146103ed578063572b6c051461040057806370a0823114610413575f80fd5b80633e0abded146103c757806342966c68146103da575f80fd5b80632f2ff15d14610360578063313ce56714610373578063395093511461038d5780633bf2a9f4146103a0575f80fd5b806318160ddd1161023c57806323b872dd1161022257806323b872dd14610313578063248a9ca3146103265780632682ac9114610339575f80fd5b806318160ddd146102e45780631c67a363146102ec575f80fd5b806306fdde031461026d578063074790791461028b57806307b2d9e3146102a0578063095ea7b3146102c1575b5f80fd5b610275610595565b60405161028291906131a9565b60405180910390f35b61029e6102993660046131f6565b6105a4565b005b6102b36102ae36600461326a565b6105c2565b604051908152602001610282565b6102d46102cf36600461326a565b6105d6565b6040519015158152602001610282565b6102b3610625565b6102b37f6ba6f588bcdc2df8426603a466c98ab15e79f7fb7f37b53581ce39c1d01b724981565b6102d4610321366004613292565b61064e565b6102b36103343660046132cb565b610664565b6102b37ff698af62c65280e4949bceec64b760f3b7738217cbc536cdfc4c9463676b05c281565b61029e61036e3660046132e2565b610699565b61037b6106e1565b60405160ff9091168152602001610282565b6102d461039b36600461326a565b61070d565b6102b37fd7aa2ddfa4e381128202bf365b7e0a176f2fca6cdf2f23c2b0a6f4393769589081565b6102b36103d53660046132cb565b610757565b61029e6103e83660046132cb565b6107e4565b6102b36103fb36600461326a565b6107f8565b6102d461040e36600461330c565b610803565b6102b361042136600461330c565b610819565b61029e610434366004613325565b610855565b61044c6104473660046132cb565b610867565b6040516102829190613366565b5f546001600160a01b03165b6040516001600160a01b039091168152602001610282565b6102b37fa75205b8583660bdad375c0ccde11af17668d76a408a9a5e739251b0f7c5987081565b61029e6104b23660046132cb565b610872565b6104656104c53660046133b2565b61087b565b6102d46104d83660046132e2565b610886565b610275610891565b6102b36104f33660046132cb565b61089b565b6102b36108a5565b61029e61050e3660046132cb565b6108ce565b6102d461052136600461326a565b6108d7565b6102d461053436600461326a565b610921565b6102b36105473660046132cb565b61096b565b6102b361055a3660046132cb565b610975565b61029e61056d3660046132e2565b61097f565b6102b36105803660046133d2565b6109c2565b6102b3610a0d565b6102b3610a36565b606061059f610a5f565b905090565b6105b68a8a8a8a8a8a8a8a8a8a610b0e565b50505050505050505050565b5f6105cd8383610efe565b90505b92915050565b60405162461bcd60e51b815260206004820152601360248201527f617070726f76652069732064697361626c65640000000000000000000000000060448201525f906064015b60405180910390fd5b5f61059f7fbbbdc1476a0878f2ef9a893c81f5b6f6ea1b3acaf18ff47ccb69cd4267d50c885490565b5f61065a848484610fa2565b90505b9392505050565b5f8181527f2e59e4c2e927cdddbb64e181e0668d9a0fa70dd88f94d999cd87d5496a20da6260205260408120600201546105d0565b5f8281527f2e59e4c2e927cdddbb64e181e0668d9a0fa70dd88f94d999cd87d5496a20da6260205260409020600201546106d28161140f565b6106dc8383611420565b505050565b5f61059f7f8c998f45074727a62053813302c526655913012298b223f931495bf68495bf685460ff1690565b60405162461bcd60e51b815260206004820152601d60248201527f696e637265617365416c6c6f77616e63652069732064697361626c656400000060448201525f9060640161061c565b5f8181527f95d8298a3d25370298f52eb5e4c2caa68ca2492c02741ad9ada9443a021d759160205260408120547f95d8298a3d25370298f52eb5e4c2caa68ca2492c02741ad9ada9443a021d758d9080156107bd576107b5816115e0565b949350505050565b7fbbbdc1476a0878f2ef9a893c81f5b6f6ea1b3acaf18ff47ccb69cd4267d50c88546107b5565b6107f56107ef61163d565b82611646565b50565b5f6105cd8383611780565b5f80546001600160a01b038381169116146105d0565b6001600160a01b0381165f9081527fbbbdc1476a0878f2ef9a893c81f5b6f6ea1b3acaf18ff47ccb69cd4267d50c8660205260408120546105d0565b61086184848484611815565b50505050565b60606105d082611bec565b6107f581611dc7565b5f6105cd8383611dd8565b5f6105cd8383611e0e565b606061059f611e44565b5f6105d0826115e0565b5f61059f7f95d8298a3d25370298f52eb5e4c2caa68ca2492c02741ad9ada9443a021d758d5490565b6107f581611e75565b60405162461bcd60e51b815260206004820152601d60248201527f6465637265617365416c6c6f77616e63652069732064697361626c656400000060448201525f9060640161061c565b60405162461bcd60e51b815260206004820152601460248201527f7472616e736665722069732064697361626c656400000000000000000000000060448201525f9060640161061c565b5f6105d082611fc4565b5f6105d082610757565b5f8281527f2e59e4c2e927cdddbb64e181e0668d9a0fa70dd88f94d999cd87d5496a20da6260205260409020600201546109b88161140f565b6106dc8383611ff9565b6001600160a01b038083165f9081527fbbbdc1476a0878f2ef9a893c81f5b6f6ea1b3acaf18ff47ccb69cd4267d50c87602090815260408083209385168352929052908120546105cd565b5f61059f7f95d8298a3d25370298f52eb5e4c2caa68ca2492c02741ad9ada9443a021d758f5490565b5f61059f7f95d8298a3d25370298f52eb5e4c2caa68ca2492c02741ad9ada9443a021d758e5490565b60607f8c998f45074727a62053813302c526655913012298b223f931495bf68495bf668054610a8d906133fa565b80601f0160208091040260200160405190810160405280929190818152602001828054610ab9906133fa565b8015610b045780601f10610adb57610100808354040283529160200191610b04565b820191905f5260205f20905b815481529060010190602001808311610ae757829003601f168201915b5050505050905090565b610b387fa75205b8583660bdad375c0ccde11af17668d76a408a9a5e739251b0f7c5987033611e0e565b80610b685750610b687ff698af62c65280e4949bceec64b760f3b7738217cbc536cdfc4c9463676b05c233611e0e565b80610ba75750335f9081527f332cf6b129284e49df93f4be38bb1959bb5fa7d7d0ce3d4ad668f566f35f6fd56020526040902054600160a01b900460ff165b80610bb65750610bb6336121a3565b610bf25760405162461bcd60e51b815260206004820152600d60248201526c1058d8d95cdcc811195b9a5959609a1b604482015260640161061c565b5f8781527f95d8298a3d25370298f52eb5e4c2caa68ca2492c02741ad9ada9443a021d759360205260408120600a01547f95d8298a3d25370298f52eb5e4c2caa68ca2492c02741ad9ada9443a021d758d9160ff90911690816004811115610c5c57610c5c613432565b148015610cc257506001600160a01b038c165f908152600583016020526040902054610c88908b61345a565b6001600160a01b038d165f9081527fbbbdc1476a0878f2ef9a893c81f5b6f6ea1b3acaf18ff47ccb69cd4267d50c86602052604090205410155b8015610ccd57504285115b8015610cd95750848410155b610d255760405162461bcd60e51b815260206004820152600c60248201527f496e76616c696420646174650000000000000000000000000000000000000000604482015260640161061c565b6001600160a01b038c165f908152600583016020526040812080548c9290610d4e90849061345a565b925050819055506040518061016001604052808d6001600160a01b031681526020018c6001600160a01b031681526020018b81526020018a815260200189815260200188815260200187815260200186815260200185815260200184815260200160016004811115610dc257610dc2613432565b90525f8a815260068085016020908152604092839020845181546001600160a01b0391821673ffffffffffffffffffffffffffffffffffffffff199182161783559286015160018084018054929093169190941617905592840151600284015560608401516003840155608084015160048085019190915560a0850151600585015560c08501519284019290925560e0840151600784015561010084015160088401556101208401516009840155610140840151600a840180549193909260ff1990921691908490811115610e9957610e99613432565b02179055509050508a6001600160a01b03168c6001600160a01b03168a7f04534360b58fb9f50d72d53f647fb2bba1ea9367c2dfebc1a40179968b6e043b8b6001604051610ee8929190613489565b60405180910390a4505050505050505050505050565b5f8181527f95d8298a3d25370298f52eb5e4c2caa68ca2492c02741ad9ada9443a021d759160205260408120547f95d8298a3d25370298f52eb5e4c2caa68ca2492c02741ad9ada9443a021d758d908015610f6657610f5d8582611780565b925050506105d0565b6001600160a01b0385165f9081527fbbbdc1476a0878f2ef9a893c81f5b6f6ea1b3acaf18ff47ccb69cd4267d50c866020526040902054610f5d565b5f7fe02854d75ca0f6b56099fb1e1546a75ef76f441f4e6082f2e3cbb1e8dc5591a0610fee7fa75205b8583660bdad375c0ccde11af17668d76a408a9a5e739251b0f7c5987033611e0e565b1561100957610ffe8585856121e8565b50600191505061065d565b611012336121a3565b61105e5760405162461bcd60e51b815260206004820181905260248201527f5468697320636f6e7472616374206973206e6f742077686974656c6973746564604482015260640161061c565b6004815460ff16600481111561107657611076613432565b036110e95760405162461bcd60e51b815260206004820152603360248201527f4e6f207472616e736665722063616e20626520646f6e65207768656e2074686560448201527f2072656769737465722069732046726f7a656e00000000000000000000000000606482015260840161061c565b6001815460ff16600481111561110157611101613432565b14801561113357506111337ff698af62c65280e4949bceec64b760f3b7738217cbc536cdfc4c9463676b05c285611e0e565b801561114e5750600c8101546001600160a01b038681169116145b156112a4578054600260ff19909116811782557f332cf6b129284e49df93f4be38bb1959bb5fa7d7d0ce3d4ad668f566f35f6fd4805460018181019092557f3b5a704516de56a4fa30eb29b0bf899a47de4e07d715ffde30cee9d593da4416810180546001600160a01b03891673ffffffffffffffffffffffffffffffffffffffff1991821681179092555f8281527f332cf6b129284e49df93f4be38bb1959bb5fa7d7d0ce3d4ad668f566f35f6fd56020526040902093840192909255825493830180549092169091557fffffffffffffffffffffff000000000000000000000000000000000000000000909216909117905561124a61163d565b81546040516001600160a01b0392909216917fda2010acfda7a262372331cb3b57e3f648f63eb009a423a2b5602cfa4f9bff5191611297916001860191600287019160ff90911690613545565b60405180910390a2611404565b6112eb846001600160a01b03165f9081527f332cf6b129284e49df93f4be38bb1959bb5fa7d7d0ce3d4ad668f566f35f6fd56020526040902054600160a01b900460ff1690565b151560011461133c5760405162461bcd60e51b815260206004820152601b60248201527f546865207265636569766572206973206e6f7420616c6c6f7765640000000000604482015260640161061c565b611383856001600160a01b03165f9081527f332cf6b129284e49df93f4be38bb1959bb5fa7d7d0ce3d4ad668f566f35f6fd56020526040902054600160a01b900460ff1690565b1515600114806113b857506113b87ff698af62c65280e4949bceec64b760f3b7738217cbc536cdfc4c9463676b05c286611e0e565b6114045760405162461bcd60e51b815260206004820152601960248201527f5468652073656e646572206973206e6f7420616c6c6f77656400000000000000604482015260640161061c565b610ffe8585856121e8565b6107f58161141b61163d565b61237e565b8161147e5760405162461bcd60e51b8152602060048201526024808201527f5573652066756e6374696f6e206368616e676541646d696e526f6c6520696e736044820152631d19585960e21b606482015260840161061c565b6115d2565b7fa75205b8583660bdad375c0ccde11af17668d76a408a9a5e739251b0f7c59870820361155a576114d67fa75205b8583660bdad375c0ccde11af17668d76a408a9a5e739251b0f7c598706114d161163d565b611e0e565b806114e857506114e85f6114d161163d565b6114795760405162461bcd60e51b815260206004820152602e60248201527f43616c6c6572206d7573742062652043414b206f722041444d494e20746f207360448201527f657420616e6f746865722043414b000000000000000000000000000000000000606482015260840161061c565b6115867fa75205b8583660bdad375c0ccde11af17668d76a408a9a5e739251b0f7c598706114d161163d565b6115d25760405162461bcd60e51b815260206004820181905260248201527f43616c6c6572206d7573742062652043414b20746f20736574206120726f6c65604482015260640161061c565b6115dc82826123e0565b5050565b5f808061160d847fcd7a55ef023eb5931cc022a9bdc64cb5b46c3a6e53bcaa84915eea6084f1c7b5612463565b915091508161065d577fbbbdc1476a0878f2ef9a893c81f5b6f6ea1b3acaf18ff47ccb69cd4267d50c88546107b5565b5f61059f61256c565b6001600160a01b038216611686576040517ff1e2c4ee00000000000000000000000000000000000000000000000000000000815260040160405180910390fd5b611691825f8361259e565b6001600160a01b0382165f9081527fbbbdc1476a0878f2ef9a893c81f5b6f6ea1b3acaf18ff47ccb69cd4267d50c86602081905260409091205480831115611705576040517fb1d35b2300000000000000000000000000000000000000000000000000000000815260040160405180910390fd5b6001600160a01b0384165f9081526020839052604081208483039055600283018054859290611735908490613583565b90915550506040518381525f906001600160a01b038616907fddf252ad1be2c89b69c2b068fc378daa952ba7f163c4a11628f55a4df523b3ef9060200160405180910390a350505050565b5f80806117c5847fcd7a55ef023eb5931cc022a9bdc64cb5b46c3a6e53bcaa84915eea6084f1c7b46001600160a01b0388165f90815260209190915260409020612463565b915091508161180a576001600160a01b0385165f9081527fbbbdc1476a0878f2ef9a893c81f5b6f6ea1b3acaf18ff47ccb69cd4267d50c86602052604090205461180c565b805b95945050505050565b61183f7fa75205b8583660bdad375c0ccde11af17668d76a408a9a5e739251b0f7c5987033611e0e565b8061186f575061186f7ff698af62c65280e4949bceec64b760f3b7738217cbc536cdfc4c9463676b05c233611e0e565b806118ae5750335f9081527f332cf6b129284e49df93f4be38bb1959bb5fa7d7d0ce3d4ad668f566f35f6fd56020526040902054600160a01b900460ff165b806118bd57506118bd336121a3565b6118f95760405162461bcd60e51b815260206004820152600d60248201526c1058d8d95cdcc811195b9a5959609a1b604482015260640161061c565b5f8481527f95d8298a3d25370298f52eb5e4c2caa68ca2492c02741ad9ada9443a021d759360205260409020600a8101547f95d8298a3d25370298f52eb5e4c2caa68ca2492c02741ad9ada9443a021d758d919060019060ff16600481111561196457611964613432565b146119b15760405162461bcd60e51b815260206004820152600e60248201527f496e76616c696420537461747573000000000000000000000000000000000000604482015260640161061c565b5f8060028560048111156119c7576119c7613432565b036119d957505060048101545f611a29565b60038560048111156119ed576119ed613432565b03611a0357505060058101546008820154611a29565b6004856004811115611a1757611a17613432565b03611a29575050600681015460078201545b81600288604051602001611a3f91815260200190565b60408051601f1981840301815290829052611a5991613596565b602060405180830381855afa158015611a74573d5f803e3d5ffd5b5050506040513d601f19601f82011682018060405250810190611a9791906135b1565b148015611aa357508042115b611aef5760405162461bcd60e51b815260206004820152600e60248201527f496e76616c696420536563726574000000000000000000000000000000000000604482015260640161061c565b600a8301805486919060ff19166001836004811115611b1057611b10613432565b021790555060098301869055600283015483546001600160a01b03165f90815260058601602052604081208054909190611b4b908490613583565b9091555060049050856004811115611b6557611b65613432565b14611b8f57825460018401546002850154611b8d926001600160a01b039081169216906121e8565b505b600183015483546040516001600160a01b0392831692909116908a907f04534360b58fb9f50d72d53f647fb2bba1ea9367c2dfebc1a40179968b6e043b90611bda908c908b90613489565b60405180910390a45050505050505050565b7f332cf6b129284e49df93f4be38bb1959bb5fa7d7d0ce3d4ad668f566f35f6fd48054606091905f9067ffffffffffffffff811115611c2d57611c2d6135c8565b604051908082528060200260200182016040528015611c56578160200160208202803683370190505b5090505f805b8354811015611d16575f611c97855f018381548110611c7d57611c7d6135dc565b5f918252602090912001546001600160a01b031688610efe565b1115611d0457835f018181548110611cb157611cb16135dc565b905f5260205f20015f9054906101000a90046001600160a01b0316838381518110611cde57611cde6135dc565b6001600160a01b039092166020928302919091019091015281611d00816135f0565b9250505b80611d0e816135f0565b915050611c5c565b505f8167ffffffffffffffff811115611d3157611d316135c8565b604051908082528060200260200182016040528015611d5a578160200160208202803683370190505b5090505f5b82811015611dbd57838181518110611d7957611d796135dc565b6020026020010151828281518110611d9357611d936135dc565b6001600160a01b039092166020928302919091019091015280611db5816135f0565b915050611d5f565b5095945050505050565b6107f581611dd361163d565b611ff9565b5f8281527f2e59e4c2e927cdddbb64e181e0668d9a0fa70dd88f94d999cd87d5496a20da62602052604081206105cd908361284c565b5f8281527f2e59e4c2e927cdddbb64e181e0668d9a0fa70dd88f94d999cd87d5496a20da62602052604081206105cd9083612857565b60607f8c998f45074727a62053813302c526655913012298b223f931495bf68495bf666001018054610a8d906133fa565b611ea17fa75205b8583660bdad375c0ccde11af17668d76a408a9a5e739251b0f7c598706114d161163d565b611eed5760405162461bcd60e51b815260206004820152601260248201527f43616c6c6572206d7573742062652043414b0000000000000000000000000000604482015260640161061c565b7fe02854d75ca0f6b56099fb1e1546a75ef76f441f4e6082f2e3cbb1e8dc5591ac547fe02854d75ca0f6b56099fb1e1546a75ef76f441f4e6082f2e3cbb1e8dc5591a0906001600160a01b0316611fac5760405162461bcd60e51b815260206004820152602660248201527f596f75206d7573742073657420746865206d696e74207265636569766572206160448201527f6464726573730000000000000000000000000000000000000000000000000000606482015260840161061c565b600c8101546115dc906001600160a01b031683612878565b5f8181527f2e59e4c2e927cdddbb64e181e0668d9a0fa70dd88f94d999cd87d5496a20da62602052604081206105d09061298d565b816120525760405162461bcd60e51b8152602060048201526024808201527f5573652066756e6374696f6e206368616e676541646d696e526f6c6520696e736044820152631d19585960e21b606482015260840161061c565b7fa75205b8583660bdad375c0ccde11af17668d76a408a9a5e739251b0f7c5987082036120fb576120855f6114d161163d565b6120f65760405162461bcd60e51b8152602060048201526024808201527f43616c6c6572206d7573742062652041444d494e20746f2072656d6f7665206160448201527f2043414b00000000000000000000000000000000000000000000000000000000606482015260840161061c565b612199565b6121277fa75205b8583660bdad375c0ccde11af17668d76a408a9a5e739251b0f7c598706114d161163d565b6121995760405162461bcd60e51b815260206004820152602360248201527f43616c6c6572206d7573742062652043414b20746f2072656d6f76652061207260448201527f6f6c650000000000000000000000000000000000000000000000000000000000606482015260840161061c565b6115dc8282612996565b5f7f3ab46f175c5f1d1c97765e87ec0d68e6241fafc1b077d060ce0c29744cd3616d816121cf84612a19565b5f90815260209290925250604090205460ff1692915050565b5f6001600160a01b038416612229576040517f68551d5f00000000000000000000000000000000000000000000000000000000815260040160405180910390fd5b6001600160a01b038316612269576040517f8289914400000000000000000000000000000000000000000000000000000000815260040160405180910390fd5b61227484848461259e565b6001600160a01b0384165f9081527fbbbdc1476a0878f2ef9a893c81f5b6f6ea1b3acaf18ff47ccb69cd4267d50c866020819052604090912054808411156122e8576040517f7183160b00000000000000000000000000000000000000000000000000000000815260040160405180910390fd5b6001600160a01b038087165f9081526020849052604080822087850390559187168152908120805486929061231e90849061345a565b92505081905550846001600160a01b0316866001600160a01b03167fddf252ad1be2c89b69c2b068fc378daa952ba7f163c4a11628f55a4df523b3ef8660405161236a91815260200190565b60405180910390a350600195945050505050565b6123888282611e0e565b6115dc5761239e816001600160a01b0316612a49565b6123a9836020612a5b565b6040516020016123ba929190613608565b60408051601f198184030181529082905262461bcd60e51b825261061c916004016131a9565b5f8281527f2e59e4c2e927cdddbb64e181e0668d9a0fa70dd88f94d999cd87d5496a20da62602052604090206124169082612c06565b5061241f61163d565b6001600160a01b0316816001600160a01b0316837f2f8788117e7eff1d82e926ec794901d17c78024a50270940304540a733656f0d60405160405180910390a45050565b5f80835f0361249e576040517f6e6ae24700000000000000000000000000000000000000000000000000000000815260040160405180910390fd5b7fcd7a55ef023eb5931cc022a9bdc64cb5b46c3a6e53bcaa84915eea6084f1c7b7547fcd7a55ef023eb5931cc022a9bdc64cb5b46c3a6e53bcaa84915eea6084f1c7b49085111561251b576040517f3609372a00000000000000000000000000000000000000000000000000000000815260040160405180910390fd5b5f6125268587612c1a565b8554909150810361253e575f80935093505050612565565b6001856001018281548110612555576125556135dc565b905f5260205f2001549350935050505b9250929050565b5f80546001600160a01b031633148015612587575060143610155b15612599575060131936013560601c90565b503390565b60037fe02854d75ca0f6b56099fb1e1546a75ef76f441f4e6082f2e3cbb1e8dc5591a05460ff1660048111156125d6576125d6613432565b036126235760405162461bcd60e51b815260206004820152601660248201527f74686520526567697374657220697320636c6f73656400000000000000000000604482015260640161061c565b7f95d8298a3d25370298f52eb5e4c2caa68ca2492c02741ad9ada9443a021d758d6001600160a01b03841615806126b457506001600160a01b0384165f90815260058201602052604090205461267a90839061345a565b6001600160a01b0385165f9081527fbbbdc1476a0878f2ef9a893c81f5b6f6ea1b3acaf18ff47ccb69cd4267d50c86602052604090205410155b6127005760405162461bcd60e51b815260206004820152600c60248201527f4173736574204c6f636b65640000000000000000000000000000000000000000604482015260640161061c565b600381015460ff161561271e5760038101805460ff19169055612838565b80546127b85760405162461bcd60e51b815260206004820152604f60248201527f746865207265676973746572206973206c6f636b65642062656361757365206e60448201527f6f20636f75706f6e206973207072657061726564206f7220746865206d61747560648201527f7269747920697320726561636865640000000000000000000000000000000000608482015260a40161061c565b80544210612838575f8160010154116128385760405162461bcd60e51b8152602060048201526024808201527f746865206d61747572697479206375742d6f66662074696d652068617320706160448201527f7373656400000000000000000000000000000000000000000000000000000000606482015260840161061c565b612840612cbc565b50610861848484612dab565b5f6105cd8383612df3565b6001600160a01b0381165f90815260018301602052604081205415156105cd565b6001600160a01b0382166128b8576040517fda007acd00000000000000000000000000000000000000000000000000000000815260040160405180910390fd5b6128c35f838361259e565b7fbbbdc1476a0878f2ef9a893c81f5b6f6ea1b3acaf18ff47ccb69cd4267d50c8880547fbbbdc1476a0878f2ef9a893c81f5b6f6ea1b3acaf18ff47ccb69cd4267d50c869183915f9061291790849061345a565b90915550506001600160a01b0383165f908152602082905260408120805484929061294390849061345a565b90915550506040518281526001600160a01b038416905f907fddf252ad1be2c89b69c2b068fc378daa952ba7f163c4a11628f55a4df523b3ef9060200160405180910390a3505050565b5f6105d0825490565b5f8281527f2e59e4c2e927cdddbb64e181e0668d9a0fa70dd88f94d999cd87d5496a20da62602052604090206129cc9082612e54565b506129d561163d565b6001600160a01b0316816001600160a01b0316837ff6391f5c32d9c69d2a47ea670b442974b53935d1edc7fd64eb21e047a839171b60405160405180910390a45050565b60408051603f833b908101601f191682019092528181525f91808360208401863c50805160209091012092915050565b60606105d06001600160a01b03831660145b60605f612a69836002613688565b612a7490600261345a565b67ffffffffffffffff811115612a8c57612a8c6135c8565b6040519080825280601f01601f191660200182016040528015612ab6576020820181803683370190505b5090507f3000000000000000000000000000000000000000000000000000000000000000815f81518110612aec57612aec6135dc565b60200101906001600160f81b03191690815f1a9053507f780000000000000000000000000000000000000000000000000000000000000081600181518110612b3657612b366135dc565b60200101906001600160f81b03191690815f1a905350600160028402015b6001811115612bcd577f303132333435363738396162636465660000000000000000000000000000000085600f1660108110612b9257612b926135dc565b1a60f81b828281518110612ba857612ba86135dc565b60200101906001600160f81b03191690815f1a90535060049490941c935f1901612b54565b5083156105cd576040517fc913478500000000000000000000000000000000000000000000000000000000815260040160405180910390fd5b5f6105cd836001600160a01b038416612e68565b81545f908103612c2b57505f6105d0565b82545f905b80821015612c7c575f81831682841860011c01905084868281548110612c5857612c586135dc565b905f5260205f2001541115612c6f57809150612c76565b8060010192505b50612c30565b5f82118015612ca7575083856001840381548110612c9c57612c9c6135dc565b905f5260205f200154145b612cb1578161180c565b505f19019392505050565b7f95d8298a3d25370298f52eb5e4c2caa68ca2492c02741ad9ada9443a021d758d80545f919015801590612d02575060028101545f908152600482016020526040902054155b8015612d0f575080544210155b15612da4575f612d1d612ea9565b60028301545f90815260048401602052604090208190556001830154909150612d46575f612d57565b612d578260010154835f0154612f3e565b808355612d64905f612f3e565b6002830181905560018301548354604051919290917f4d1d74d5cbfc13e02ef05af3a30d8721e87a00d20bc3dc42198917139944def3905f90a492915050565b5f91505090565b6001600160a01b038316612dca57612dc282612f74565b6106dc612fe4565b6001600160a01b038216612de157612dc283612f74565b612dea82612f74565b6106dc83612f74565b81545f908210612e2f576040517fe637bf3b00000000000000000000000000000000000000000000000000000000815260040160405180910390fd5b825f018281548110612e4357612e436135dc565b905f5260205f200154905092915050565b5f6105cd836001600160a01b038416613032565b5f8181526001830160205260408120546105d057508154600180820184555f8481526020808220909301849055845493815293810190915260409092205590565b7fcd7a55ef023eb5931cc022a9bdc64cb5b46c3a6e53bcaa84915eea6084f1c7b780545f917fcd7a55ef023eb5931cc022a9bdc64cb5b46c3a6e53bcaa84915eea6084f1c7b4919083612efb836135f0565b909155505060038101546040518181527f8030e83b04d87bef53480e26263266d6ca66863aa8506aca6f2559d18aa1cb679060200160405180910390a192915050565b5f80612f4d620151808561369f565b9050612f598185613583565b9150612f68620151808461369f565b90506107b5818361345a565b6001600160a01b0381165f9081527fcd7a55ef023eb5931cc022a9bdc64cb5b46c3a6e53bcaa84915eea6084f1c7b4602090815260408083207fbbbdc1476a0878f2ef9a893c81f5b6f6ea1b3acaf18ff47ccb69cd4267d50c86909252909120546107f591906130ea565b6130ea565b6130307fcd7a55ef023eb5931cc022a9bdc64cb5b46c3a6e53bcaa84915eea6084f1c7b5612fdf7fbbbdc1476a0878f2ef9a893c81f5b6f6ea1b3acaf18ff47ccb69cd4267d50c885490565b565b5f81815260018301602052604081205480156130e35783545f9085905f198101908110613061576130616135dc565b905f5260205f200154905080855f016001840381548110613084576130846135dc565b5f9182526020808320909101929092559182526001860190526040902081905583548490806130b5576130b56136be565b600190038181905f5260205f20015f90559055836001015f8481526020019081526020015f205f9055600191505b5092915050565b7fcd7a55ef023eb5931cc022a9bdc64cb5b46c3a6e53bcaa84915eea6084f1c7b7548061311684613149565b10156106dc578254600180820185555f858152602080822090930193909355938401805494850181558252902090910155565b80545f9015613180578154829061316290600190613583565b81548110613172576131726135dc565b905f5260205f2001546105d0565b5f92915050565b5f5b838110156131a1578181015183820152602001613189565b50505f910152565b602081525f82518060208401526131c7816040850160208701613187565b601f01601f19169190910160400192915050565b80356001600160a01b03811681146131f1575f80fd5b919050565b5f805f805f805f805f806101408b8d031215613210575f80fd5b6132198b6131db565b995061322760208c016131db565b999c999b505050506040880135976060810135976080820135975060a0820135965060c0820135955060e082013594506101008201359350610120909101359150565b5f806040838503121561327b575f80fd5b613284836131db565b946020939093013593505050565b5f805f606084860312156132a4575f80fd5b6132ad846131db565b92506132bb602085016131db565b9150604084013590509250925092565b5f602082840312156132db575f80fd5b5035919050565b5f80604083850312156132f3575f80fd5b82359150613303602084016131db565b90509250929050565b5f6020828403121561331c575f80fd5b6105cd826131db565b5f805f8060808587031215613338575f80fd5b84359350602085013592506040850135915060608501356005811061335b575f80fd5b939692955090935050565b602080825282518282018190525f9190848201906040850190845b818110156133a65783516001600160a01b031683529284019291840191600101613381565b50909695505050505050565b5f80604083850312156133c3575f80fd5b50508035926020909101359150565b5f80604083850312156133e3575f80fd5b6133ec836131db565b9150613303602084016131db565b600181811c9082168061340e57607f821691505b60208210810361342c57634e487b7160e01b5f52602260045260245ffd5b50919050565b634e487b7160e01b5f52602160045260245ffd5b634e487b7160e01b5f52601160045260245ffd5b808201808211156105d0576105d0613446565b600581106107f557634e487b7160e01b5f52602160045260245ffd5b828152604081016134998361346d565b8260208301529392505050565b80545f90600181811c90808316806134bf57607f831692505b602080841082036134de57634e487b7160e01b5f52602260045260245ffd5b838852602088018280156134f9576001811461350f57613538565b60ff198716825285151560051b82019750613538565b5f898152602090205f5b8781101561353257815484820152908601908401613519565b83019850505b5050505050505092915050565b606081525f61355760608301866134a6565b828103602084015261356981866134a6565b9150506135758361346d565b826040830152949350505050565b818103818111156105d0576105d0613446565b5f82516135a7818460208701613187565b9190910192915050565b5f602082840312156135c1575f80fd5b5051919050565b634e487b7160e01b5f52604160045260245ffd5b634e487b7160e01b5f52603260045260245ffd5b5f6001820161360157613601613446565b5060010190565b7f416363657373436f6e74726f6c3a206163636f756e742000000000000000000081525f835161363f816017850160208801613187565b7f206973206d697373696e6720726f6c6520000000000000000000000000000000601791840191820152835161367c816028840160208801613187565b01602801949350505050565b80820281158282048414176105d0576105d0613446565b5f826136b957634e487b7160e01b5f52601260045260245ffd5b500690565b634e487b7160e01b5f52603160045260245ffdfea2646970667358221220c3745ce2b49a86f24fe41d8e7068a4fb6b6ea00b84d10498a6e34949f9d2fd6f64736f6c63430008140033",
  "linkReferences": {},
  "deployedLinkReferences": {}
}