{
  "_format": "hh-sol-artifact-1",
  "contractName": "EnumerableSetAddressMock",
  "sourceName": "contracts/data/EnumerableSetAddressMock.sol",
  "abi": [
    {
      "inputs": [],
      "name": "EnumerableSet__IndexOutOfBounds",
      "type": "error"
    },
    {
      "inputs": [
        {
          "internalType": "address",
          "name": "value",
          "type": "address"
        }
      ],
      "name": "add",
      "outputs": [
        {
          "internalType": "bool",
          "name": "",
          "type": "bool"
        }
      ],
      "stateMutability": "nonpayable",
      "type": "function"
    },
    {
      "inputs": [
        {
          "internalType": "uint256",
          "name": "index",
          "type": "uint256"
        }
      ],
      "name": "at",
      "outputs": [
        {
          "internalType": "address",
          "name": "",
          "type": "address"
        }
      ],
      "stateMutability": "view",
      "type": "function"
    },
    {
      "inputs": [
        {
          "internalType": "address",
          "name": "value",
          "type": "address"
        }
      ],
      "name": "contains",
      "outputs": [
        {
          "internalType": "bool",
          "name": "",
          "type": "bool"
        }
      ],
      "stateMutability": "view",
      "type": "function"
    },
    {
      "inputs": [
        {
          "internalType": "address",
          "name": "value",
          "type": "address"
        }
      ],
      "name": "indexOf",
      "outputs": [
        {
          "internalType": "uint256",
          "name": "",
          "type": "uint256"
        }
      ],
      "stateMutability": "view",
      "type": "function"
    },
    {
      "inputs": [],
      "name": "length",
      "outputs": [
        {
          "internalType": "uint256",
          "name": "",
          "type": "uint256"
        }
      ],
      "stateMutability": "view",
      "type": "function"
    },
    {
      "inputs": [
        {
          "internalType": "address",
          "name": "value",
          "type": "address"
        }
      ],
      "name": "remove",
      "outputs": [
        {
          "internalType": "bool",
          "name": "",
          "type": "bool"
        }
      ],
      "stateMutability": "nonpayable",
      "type": "function"
    },
    {
      "inputs": [],
      "name": "toArray",
      "outputs": [
        {
          "internalType": "address[]",
          "name": "",
          "type": "address[]"
        }
      ],
      "stateMutability": "view",
      "type": "function"
    }
  ],
  "bytecode": "0x608060405234801561000f575f80fd5b506104b78061001d5f395ff3fe608060405234801561000f575f80fd5b506004361061007a575f3560e01c80635dbe47e8116100585780635dbe47e8146100cf578063908ff303146100e2578063e0886f90146100f7578063fd6aad2514610122575f80fd5b80630a3b0a4f1461007e5780631f7b6d32146100a657806329092d0e146100bc575b5f80fd5b61009161008c3660046103d0565b610135565b60405190151581526020015b60405180910390f35b6100ae610146565b60405190815260200161009d565b6100916100ca3660046103d0565b610155565b6100916100dd3660046103d0565b610160565b6100ea61016b565b60405161009d91906103f6565b61010a610105366004610442565b610176565b6040516001600160a01b03909116815260200161009d565b6100ae6101303660046103d0565b610181565b5f610140818361018c565b92915050565b5f6101505f6101a7565b905090565b5f61014081836101b0565b5f61014081836101c4565b60606101505f6101e5565b5f6101408183610249565b5f6101408183610254565b5f6101a0836001600160a01b038416610276565b9392505050565b5f610140825490565b5f6101a0836001600160a01b0384166102b7565b6001600160a01b0381165f90815260018301602052604081205415156101a0565b8054604080516020808402820181019092528281526060928492839291839183018282801561023b57602002820191905f5260205f20905b81546001600160a01b0316815260019091019060200180831161021d575b505050505092505050919050565b5f6101a0838361036f565b6001600160a01b0381165f9081526001830160205260408120545f19016101a0565b5f81815260018301602052604081205461014057508154600180820184555f8481526020808220909301849055845493815293810190915260409092205590565b5f81815260018301602052604081205480156103685783545f9085905f1981019081106102e6576102e6610459565b905f5260205f200154905080855f01600184038154811061030957610309610459565b5f91825260208083209091019290925591825260018601905260409020819055835484908061033a5761033a61046d565b600190038181905f5260205f20015f90559055836001015f8481526020019081526020015f205f9055600191505b5092915050565b81545f9082106103ab576040517fe637bf3b00000000000000000000000000000000000000000000000000000000815260040160405180910390fd5b825f0182815481106103bf576103bf610459565b905f5260205f200154905092915050565b5f602082840312156103e0575f80fd5b81356001600160a01b03811681146101a0575f80fd5b602080825282518282018190525f9190848201906040850190845b818110156104365783516001600160a01b031683529284019291840191600101610411565b50909695505050505050565b5f60208284031215610452575f80fd5b5035919050565b634e487b7160e01b5f52603260045260245ffd5b634e487b7160e01b5f52603160045260245ffdfea2646970667358221220ee36d1373cbd3b219e90016c349de9430c5efb6c9b9b97ef1b5117e925a6b44c64736f6c63430008140033",
  "linkReferences": {},
  "deployedLinkReferences": {}
}