{
  "_format": "hh-sol-artifact-1",
  "contractName": "AddressUtilsMock",
  "sourceName": "contracts/utils/AddressUtilsMock.sol",
  "abi": [
    {
      "inputs": [],
      "name": "AddressUtils__InsufficientBalance",
      "type": "error"
    },
    {
      "inputs": [],
      "name": "AddressUtils__NotContract",
      "type": "error"
    },
    {
      "inputs": [],
      "name": "AddressUtils__SendValueFailed",
      "type": "error"
    },
    {
      "inputs": [],
      "name": "UintUtils__InsufficientHexLength",
      "type": "error"
    },
    {
      "inputs": [
        {
          "internalType": "address",
          "name": "target",
          "type": "address"
        },
        {
          "internalType": "bytes",
          "name": "data",
          "type": "bytes"
        },
        {
          "internalType": "string",
          "name": "error",
          "type": "string"
        }
      ],
      "name": "functionCall",
      "outputs": [
        {
          "internalType": "bytes",
          "name": "",
          "type": "bytes"
        }
      ],
      "stateMutability": "nonpayable",
      "type": "function"
    },
    {
      "inputs": [
        {
          "internalType": "address",
          "name": "target",
          "type": "address"
        },
        {
          "internalType": "bytes",
          "name": "data",
          "type": "bytes"
        }
      ],
      "name": "functionCall",
      "outputs": [
        {
          "internalType": "bytes",
          "name": "",
          "type": "bytes"
        }
      ],
      "stateMutability": "nonpayable",
      "type": "function"
    },
    {
      "inputs": [
        {
          "internalType": "address",
          "name": "target",
          "type": "address"
        },
        {
          "internalType": "bytes",
          "name": "data",
          "type": "bytes"
        },
        {
          "internalType": "uint256",
          "name": "value",
          "type": "uint256"
        }
      ],
      "name": "functionCallWithValue",
      "outputs": [
        {
          "internalType": "bytes",
          "name": "",
          "type": "bytes"
        }
      ],
      "stateMutability": "nonpayable",
      "type": "function"
    },
    {
      "inputs": [
        {
          "internalType": "address",
          "name": "target",
          "type": "address"
        },
        {
          "internalType": "bytes",
          "name": "data",
          "type": "bytes"
        },
        {
          "internalType": "uint256",
          "name": "value",
          "type": "uint256"
        },
        {
          "internalType": "string",
          "name": "error",
          "type": "string"
        }
      ],
      "name": "functionCallWithValue",
      "outputs": [
        {
          "internalType": "bytes",
          "name": "",
          "type": "bytes"
        }
      ],
      "stateMutability": "nonpayable",
      "type": "function"
    },
    {
      "inputs": [
        {
          "internalType": "address",
          "name": "account",
          "type": "address"
        }
      ],
      "name": "isContract",
      "outputs": [
        {
          "internalType": "bool",
          "name": "",
          "type": "bool"
        }
      ],
      "stateMutability": "view",
      "type": "function"
    },
    {
      "inputs": [
        {
          "internalType": "address payable",
          "name": "account",
          "type": "address"
        },
        {
          "internalType": "uint256",
          "name": "amount",
          "type": "uint256"
        }
      ],
      "name": "sendValue",
      "outputs": [],
      "stateMutability": "nonpayable",
      "type": "function"
    },
    {
      "inputs": [
        {
          "internalType": "address",
          "name": "account",
          "type": "address"
        }
      ],
      "name": "toString",
      "outputs": [
        {
          "internalType": "string",
          "name": "",
          "type": "string"
        }
      ],
      "stateMutability": "pure",
      "type": "function"
    }
  ],
  "bytecode": "0x608060405234801561000f575f80fd5b506109928061001d5f395ff3fe608060405234801561000f575f80fd5b506004361061007a575f3560e01c80632a011594116100585780632a011594146100db57806356ca623e146100ee578063a0b5ffb014610101578063d525ab8a14610114575f80fd5b8063162790551461007e578063241b5886146100a657806324a084df146100c6575b5f80fd5b61009161008c3660046105cf565b610127565b60405190151581526020015b60405180910390f35b6100b96100b4366004610687565b61013c565b60405161009d9190610745565b6100d96100d4366004610757565b61015a565b005b6100b96100e9366004610781565b610171565b6100b96100fc3660046105cf565b610187565b6100b961010f3660046107d6565b61019b565b6100b9610122366004610823565b6101b7565b5f6001600160a01b0382163b15155b92915050565b60606101526001600160a01b03851684846101d7565b949350505050565b61016d6001600160a01b038316826101e5565b5050565b60606101526001600160a01b0385168484610273565b6060610136826001600160a01b0316610299565b60606101b06001600160a01b038416836102af565b9392505050565b60606101ce6001600160a01b0386168585856102d4565b95945050505050565b606061015284845f85610318565b5f826001600160a01b0316826040515f6040518083038185875af1925050503d805f811461022e576040519150601f19603f3d011682016040523d82523d5f602084013e610233565b606091505b505090508061026e576040517fc6d73c5500000000000000000000000000000000000000000000000000000000815260040160405180910390fd5b505050565b60606101528484846040518060600160405280602e815260200161090c602e91396102d4565b60606101366001600160a01b038316601461040d565b60606101b0838360405180606001604052806023815260200161093a602391396101d7565b606047831115610310576040517fc052e61b00000000000000000000000000000000000000000000000000000000815260040160405180910390fd5b6101ce858585855b6060843b610352576040517f89c35afc00000000000000000000000000000000000000000000000000000000815260040160405180910390fd5b5f80866001600160a01b0316858760405161036d919061089e565b5f6040518083038185875af1925050503d805f81146103a7576040519150601f19603f3d011682016040523d82523d5f602084013e6103ac565b606091505b509150915081156103c05791506101529050565b8051156103d05780518082602001fd5b836040517f08c379a00000000000000000000000000000000000000000000000000000000081526004016104049190610745565b60405180910390fd5b60605f61041b8360026108cd565b6104269060026108e4565b67ffffffffffffffff81111561043e5761043e6105ea565b6040519080825280601f01601f191660200182016040528015610468576020820181803683370190505b5090507f3000000000000000000000000000000000000000000000000000000000000000815f8151811061049e5761049e6108f7565b60200101906001600160f81b03191690815f1a9053507f7800000000000000000000000000000000000000000000000000000000000000816001815181106104e8576104e86108f7565b60200101906001600160f81b03191690815f1a905350600160028402015b600181111561057f577f303132333435363738396162636465660000000000000000000000000000000085600f1660108110610544576105446108f7565b1a60f81b82828151811061055a5761055a6108f7565b60200101906001600160f81b03191690815f1a90535060049490941c935f1901610506565b5083156101b0576040517fc913478500000000000000000000000000000000000000000000000000000000815260040160405180910390fd5b6001600160a01b03811681146105cc575f80fd5b50565b5f602082840312156105df575f80fd5b81356101b0816105b8565b634e487b7160e01b5f52604160045260245ffd5b5f82601f83011261060d575f80fd5b813567ffffffffffffffff80821115610628576106286105ea565b604051601f8301601f19908116603f01168101908282118183101715610650576106506105ea565b81604052838152866020858801011115610668575f80fd5b836020870160208301375f602085830101528094505050505092915050565b5f805f60608486031215610699575f80fd5b83356106a4816105b8565b9250602084013567ffffffffffffffff808211156106c0575f80fd5b6106cc878388016105fe565b935060408601359150808211156106e1575f80fd5b506106ee868287016105fe565b9150509250925092565b5f5b838110156107125781810151838201526020016106fa565b50505f910152565b5f81518084526107318160208601602086016106f8565b601f01601f19169290920160200192915050565b602081525f6101b0602083018461071a565b5f8060408385031215610768575f80fd5b8235610773816105b8565b946020939093013593505050565b5f805f60608486031215610793575f80fd5b833561079e816105b8565b9250602084013567ffffffffffffffff8111156107b9575f80fd5b6107c5868287016105fe565b925050604084013590509250925092565b5f80604083850312156107e7575f80fd5b82356107f2816105b8565b9150602083013567ffffffffffffffff81111561080d575f80fd5b610819858286016105fe565b9150509250929050565b5f805f8060808587031215610836575f80fd5b8435610841816105b8565b9350602085013567ffffffffffffffff8082111561085d575f80fd5b610869888389016105fe565b9450604087013593506060870135915080821115610885575f80fd5b50610892878288016105fe565b91505092959194509250565b5f82516108af8184602087016106f8565b9190910192915050565b634e487b7160e01b5f52601160045260245ffd5b8082028115828204841417610136576101366108b9565b80820180821115610136576101366108b9565b634e487b7160e01b5f52603260045260245ffdfe416464726573735574696c733a206661696c6564206c6f772d6c6576656c2063616c6c20776974682076616c7565416464726573735574696c733a206661696c6564206c6f772d6c6576656c2063616c6ca2646970667358221220e95af5be516154709e26e2abd352e5d1be0fb6578cdddfaffa19652a3d885fef64736f6c63430008140033",
  "linkReferences": {},
  "deployedLinkReferences": {}
}