{
  "_format": "hh-sol-artifact-1",
  "contractName": "EnumerableMapAddressToAddressMock",
  "sourceName": "contracts/data/EnumerableMapAddressToAddressMock.sol",
  "abi": [
    {
      "inputs": [],
      "name": "EnumerableMap__IndexOutOfBounds",
      "type": "error"
    },
    {
      "inputs": [],
      "name": "EnumerableMap__NonExistentKey",
      "type": "error"
    },
    {
      "inputs": [
        {
          "internalType": "uint256",
          "name": "index",
          "type": "uint256"
        }
      ],
      "name": "at",
      "outputs": [
        {
          "internalType": "address",
          "name": "",
          "type": "address"
        },
        {
          "internalType": "address",
          "name": "",
          "type": "address"
        }
      ],
      "stateMutability": "view",
      "type": "function"
    },
    {
      "inputs": [
        {
          "internalType": "address",
          "name": "key",
          "type": "address"
        }
      ],
      "name": "contains",
      "outputs": [
        {
          "internalType": "bool",
          "name": "",
          "type": "bool"
        }
      ],
      "stateMutability": "view",
      "type": "function"
    },
    {
      "inputs": [
        {
          "internalType": "address",
          "name": "key",
          "type": "address"
        }
      ],
      "name": "get",
      "outputs": [
        {
          "internalType": "address",
          "name": "",
          "type": "address"
        }
      ],
      "stateMutability": "view",
      "type": "function"
    },
    {
      "inputs": [],
      "name": "keys",
      "outputs": [
        {
          "internalType": "address[]",
          "name": "keysOut",
          "type": "address[]"
        }
      ],
      "stateMutability": "view",
      "type": "function"
    },
    {
      "inputs": [],
      "name": "length",
      "outputs": [
        {
          "internalType": "uint256",
          "name": "",
          "type": "uint256"
        }
      ],
      "stateMutability": "view",
      "type": "function"
    },
    {
      "inputs": [
        {
          "internalType": "address",
          "name": "key",
          "type": "address"
        }
      ],
      "name": "remove",
      "outputs": [
        {
          "internalType": "bool",
          "name": "",
          "type": "bool"
        }
      ],
      "stateMutability": "nonpayable",
      "type": "function"
    },
    {
      "inputs": [
        {
          "internalType": "address",
          "name": "key",
          "type": "address"
        },
        {
          "internalType": "address",
          "name": "value",
          "type": "address"
        }
      ],
      "name": "set",
      "outputs": [
        {
          "internalType": "bool",
          "name": "",
          "type": "bool"
        }
      ],
      "stateMutability": "nonpayable",
      "type": "function"
    },
    {
      "inputs": [],
      "name": "toArray",
      "outputs": [
        {
          "internalType": "address[]",
          "name": "keysOut",
          "type": "address[]"
        },
        {
          "internalType": "address[]",
          "name": "valuesOut",
          "type": "address[]"
        }
      ],
      "stateMutability": "view",
      "type": "function"
    },
    {
      "inputs": [],
      "name": "values",
      "outputs": [
        {
          "internalType": "address[]",
          "name": "valuesOut",
          "type": "address[]"
        }
      ],
      "stateMutability": "view",
      "type": "function"
    }
  ],
  "bytecode": "0x608060405234801561000f575f80fd5b5061092a8061001d5f395ff3fe608060405234801561000f575f80fd5b506004361061009f575f3560e01c806389675cac11610072578063971217b711610058578063971217b714610132578063c2bc2efc1461013a578063e0886f9014610165575f80fd5b806389675cac14610109578063908ff3031461011c575f80fd5b80631f7b6d32146100a357806329092d0e146100be578063307540f6146100e15780635dbe47e8146100f6575b5f80fd5b6100ab610198565b6040519081526020015b60405180910390f35b6100d16100cc3660046107d6565b6101a7565b60405190151581526020016100b5565b6100e96101b8565b6040516100b59190610831565b6100d16101043660046107d6565b6101c3565b6100d1610117366004610843565b6101ce565b6101246101e1565b6040516100b5929190610874565b6100e96101f6565b61014d6101483660046107d6565b610201565b6040516001600160a01b0390911681526020016100b5565b6101786101733660046108a1565b61020c565b604080516001600160a01b039384168152929091166020830152016100b5565b5f6101a25f610221565b905090565b5f6101b2818361022a565b92915050565b60606101a25f61023e565b5f6101b281836102f0565b5f6101da818484610311565b9392505050565b6060806101ed5f610331565b90939092509050565b60606101a25f61047a565b5f6101b28183610526565b5f80610218818461053a565b91509150915091565b5f6101b2825490565b5f6101da836001600160a01b038416610555565b80546060908067ffffffffffffffff81111561025c5761025c6108b8565b604051908082528060200260200182016040528015610285578160200160208202803683370190505b5091505f5b818110156102e95783548490829081106102a6576102a66108cc565b905f5260205f2090600202015f01545f1c8382815181106102c9576102c96108cc565b6001600160a01b039092166020928302919091019091015260010161028a565b5050919050565b6001600160a01b0381165f90815260018301602052604081205415156101da565b5f610329846001600160a01b03808616908516610633565b949350505050565b805460609081908067ffffffffffffffff811115610351576103516108b8565b60405190808252806020026020018201604052801561037a578160200160208202803683370190505b5092508067ffffffffffffffff811115610396576103966108b8565b6040519080825280602002602001820160405280156103bf578160200160208202803683370190505b5091505f5b818110156104735784548590829081106103e0576103e06108cc565b905f5260205f2090600202015f01545f1c848281518110610403576104036108cc565b6001600160a01b0390921660209283029190910190910152845485908290811061042f5761042f6108cc565b905f5260205f209060020201600101545f1c838281518110610453576104536108cc565b6001600160a01b03909216602092830291909101909101526001016103c4565b5050915091565b80546060908067ffffffffffffffff811115610498576104986108b8565b6040519080825280602002602001820160405280156104c1578160200160208202803683370190505b5091505f5b818110156102e95783548490829081106104e2576104e26108cc565b905f5260205f209060020201600101545f1c838281518110610506576105066108cc565b6001600160a01b03909216602092830291909101909101526001016104c6565b5f6101da836001600160a01b0384166106cc565b5f8080806105488686610745565b9097909650945050505050565b5f818152600183016020526040812054801561062a5783545f9085905f198101908110610584576105846108cc565b905f5260205f209060020201905080855f0160018403815481106105aa576105aa6108cc565b5f9182526020808320845460029093020191825560019384015491840191909155925481529086019091526040902081905583548490806105ed576105ed6108e0565b5f828152602080822060025f1990940193840201828155600190810183905592909355858152868201909252604082209190915591506101b29050565b5f9150506101b2565b5f82815260018401602052604081205480820361069857505060408051808201825283815260208082018481528654600181810189555f89815284812095516002909302909501918255915190820155865486845281880190925292909120556101da565b82855f0160018303815481106106b0576106b06108cc565b905f5260205f209060020201600101819055505f9150506101da565b5f818152600183016020526040812054808203610715576040517ff551fb1400000000000000000000000000000000000000000000000000000000815260040160405180910390fd5b835f01600182038154811061072c5761072c6108cc565b905f5260205f2090600202016001015491505092915050565b81545f9081908310610783576040517f117ec13800000000000000000000000000000000000000000000000000000000815260040160405180910390fd5b5f845f018481548110610798576107986108cc565b905f5260205f2090600202019050805f0154816001015492509250509250929050565b80356001600160a01b03811681146107d1575f80fd5b919050565b5f602082840312156107e6575f80fd5b6101da826107bb565b5f8151808452602080850194508084015f5b838110156108265781516001600160a01b031687529582019590820190600101610801565b509495945050505050565b602081525f6101da60208301846107ef565b5f8060408385031215610854575f80fd5b61085d836107bb565b915061086b602084016107bb565b90509250929050565b604081525f61088660408301856107ef565b828103602084015261089881856107ef565b95945050505050565b5f602082840312156108b1575f80fd5b5035919050565b634e487b7160e01b5f52604160045260245ffd5b634e487b7160e01b5f52603260045260245ffd5b634e487b7160e01b5f52603160045260245ffdfea26469706673582212201091205b98c2292bcb40efbd806212834556f4360f0d8a072ebf1b9204b8c9bb64736f6c63430008140033",
  "linkReferences": {},
  "deployedLinkReferences": {}
}