{
  "_format": "hh-sol-artifact-1",
  "contractName": "ERC2771Context",
  "sourceName": "contracts/metatx/ERC2771Context.sol",
  "abi": [
    {
      "anonymous": false,
      "inputs": [
        {
          "indexed": false,
          "internalType": "uint64",
          "name": "version",
          "type": "uint64"
        }
      ],
      "name": "Initialized",
      "type": "event"
    },
    {
      "inputs": [
        {
          "internalType": "address",
          "name": "forwarder",
          "type": "address"
        }
      ],
      "name": "isTrustedForwarder",
      "outputs": [
        {
          "internalType": "bool",
          "name": "",
          "type": "bool"
        }
      ],
      "stateMutability": "view",
      "type": "function"
    },
    {
      "inputs": [],
      "name": "trustedForwarder",
      "outputs": [
        {
          "internalType": "address",
          "name": "",
          "type": "address"
        }
      ],
      "stateMutability": "view",
      "type": "function"
    }
  ],
  "bytecode": "0x608060405234801561000f575f80fd5b506101088061001d5f395ff3fe6080604052348015600e575f80fd5b50600436106030575f3560e01c8063572b6c051460345780637da0a877146074575b5f80fd5b605f603f366004609a565b5f5473ffffffffffffffffffffffffffffffffffffffff90811691161490565b60405190151581526020015b60405180910390f35b5f5460405173ffffffffffffffffffffffffffffffffffffffff9091168152602001606b565b5f6020828403121560a9575f80fd5b813573ffffffffffffffffffffffffffffffffffffffff8116811460cb575f80fd5b939250505056fea2646970667358221220f3e8500984e2f91d2cdfe13f6d7578f0295ce806e7e9c94053a0829954650c7764736f6c63430008140033",
  "linkReferences": {},
  "deployedLinkReferences": {}
}