{
  "_format": "hh-sol-artifact-1",
  "contractName": "RegisterMetadata",
  "sourceName": "contracts/register/metadata/RegisterMetadata.sol",
  "abi": [
    {
      "inputs": [],
      "name": "ERC20Base__ApproveFromZeroAddress",
      "type": "error"
    },
    {
      "inputs": [],
      "name": "ERC20Base__ApproveToZeroAddress",
      "type": "error"
    },
    {
      "inputs": [],
      "name": "ERC20Base__BurnExceedsBalance",
      "type": "error"
    },
    {
      "inputs": [],
      "name": "ERC20Base__BurnFromZeroAddress",
      "type": "error"
    },
    {
      "inputs": [],
      "name": "ERC20Base__InsufficientAllowance",
      "type": "error"
    },
    {
      "inputs": [],
      "name": "ERC20Base__MintToZeroAddress",
      "type": "error"
    },
    {
      "inputs": [],
      "name": "ERC20Base__TransferExceedsBalance",
      "type": "error"
    },
    {
      "inputs": [],
      "name": "ERC20Base__TransferFromZeroAddress",
      "type": "error"
    },
    {
      "inputs": [],
      "name": "ERC20Base__TransferToZeroAddress",
      "type": "error"
    },
    {
      "inputs": [],
      "name": "ERC20Snapshot__SnapshotIdDoesNotExists",
      "type": "error"
    },
    {
      "inputs": [],
      "name": "ERC20Snapshot__SnapshotIdIsZero",
      "type": "error"
    },
    {
      "inputs": [],
      "name": "EnumerableSet__IndexOutOfBounds",
      "type": "error"
    },
    {
      "inputs": [],
      "name": "ReentrancyGuard__ReentrantCall",
      "type": "error"
    },
    {
      "inputs": [],
      "name": "UintUtils__InsufficientHexLength",
      "type": "error"
    },
    {
      "anonymous": false,
      "inputs": [
        {
          "indexed": true,
          "internalType": "address",
          "name": "_addressForNewAdmin",
          "type": "address"
        }
      ],
      "name": "AdminChanged",
      "type": "event"
    },
    {
      "anonymous": false,
      "inputs": [
        {
          "indexed": true,
          "internalType": "address",
          "name": "owner",
          "type": "address"
        },
        {
          "indexed": true,
          "internalType": "address",
          "name": "spender",
          "type": "address"
        },
        {
          "indexed": false,
          "internalType": "uint256",
          "name": "value",
          "type": "uint256"
        }
      ],
      "name": "Approval",
      "type": "event"
    },
    {
      "anonymous": false,
      "inputs": [
        {
          "indexed": false,
          "internalType": "bytes32",
          "name": "contractHash",
          "type": "bytes32"
        }
      ],
      "name": "DisableContract",
      "type": "event"
    },
    {
      "anonymous": false,
      "inputs": [
        {
          "indexed": false,
          "internalType": "address",
          "name": "investor",
          "type": "address"
        }
      ],
      "name": "DisableInvestor",
      "type": "event"
    },
    {
      "anonymous": false,
      "inputs": [
        {
          "indexed": false,
          "internalType": "bytes32",
          "name": "contractHash",
          "type": "bytes32"
        }
      ],
      "name": "EnableContract",
      "type": "event"
    },
    {
      "anonymous": false,
      "inputs": [
        {
          "indexed": false,
          "internalType": "address",
          "name": "investor",
          "type": "address"
        }
      ],
      "name": "EnableInvestor",
      "type": "event"
    },
    {
      "anonymous": false,
      "inputs": [
        {
          "indexed": false,
          "internalType": "uint64",
          "name": "version",
          "type": "uint64"
        }
      ],
      "name": "Initialized",
      "type": "event"
    },
    {
      "anonymous": false,
      "inputs": [
        {
          "indexed": true,
          "internalType": "address",
          "name": "creator",
          "type": "address"
        },
        {
          "indexed": false,
          "internalType": "string",
          "name": "name",
          "type": "string"
        },
        {
          "indexed": false,
          "internalType": "string",
          "name": "isin",
          "type": "string"
        }
      ],
      "name": "NewBondDrafted",
      "type": "event"
    },
    {
      "anonymous": false,
      "inputs": [
        {
          "indexed": true,
          "internalType": "address",
          "name": "sender",
          "type": "address"
        },
        {
          "indexed": true,
          "internalType": "address",
          "name": "target",
          "type": "address"
        },
        {
          "indexed": false,
          "internalType": "string",
          "name": "message",
          "type": "string"
        }
      ],
      "name": "PublicMessage",
      "type": "event"
    },
    {
      "anonymous": false,
      "inputs": [
        {
          "indexed": true,
          "internalType": "address",
          "name": "emiter",
          "type": "address"
        },
        {
          "indexed": false,
          "internalType": "string",
          "name": "name",
          "type": "string"
        },
        {
          "indexed": false,
          "internalType": "string",
          "name": "isin",
          "type": "string"
        },
        {
          "indexed": false,
          "internalType": "enum IRegisterMetadataInternal.Status",
          "name": "status",
          "type": "uint8"
        }
      ],
      "name": "RegisterStatusChanged",
      "type": "event"
    },
    {
      "anonymous": false,
      "inputs": [
        {
          "indexed": true,
          "internalType": "bytes32",
          "name": "role",
          "type": "bytes32"
        },
        {
          "indexed": true,
          "internalType": "bytes32",
          "name": "previousAdminRole",
          "type": "bytes32"
        },
        {
          "indexed": true,
          "internalType": "bytes32",
          "name": "newAdminRole",
          "type": "bytes32"
        }
      ],
      "name": "RoleAdminChanged",
      "type": "event"
    },
    {
      "anonymous": false,
      "inputs": [
        {
          "indexed": true,
          "internalType": "bytes32",
          "name": "role",
          "type": "bytes32"
        },
        {
          "indexed": true,
          "internalType": "address",
          "name": "account",
          "type": "address"
        },
        {
          "indexed": true,
          "internalType": "address",
          "name": "sender",
          "type": "address"
        }
      ],
      "name": "RoleGranted",
      "type": "event"
    },
    {
      "anonymous": false,
      "inputs": [
        {
          "indexed": true,
          "internalType": "bytes32",
          "name": "role",
          "type": "bytes32"
        },
        {
          "indexed": true,
          "internalType": "address",
          "name": "account",
          "type": "address"
        },
        {
          "indexed": true,
          "internalType": "address",
          "name": "sender",
          "type": "address"
        }
      ],
      "name": "RoleRevoked",
      "type": "event"
    },
    {
      "anonymous": false,
      "inputs": [
        {
          "indexed": false,
          "internalType": "uint256",
          "name": "id",
          "type": "uint256"
        }
      ],
      "name": "Snapshot",
      "type": "event"
    },
    {
      "anonymous": false,
      "inputs": [
        {
          "indexed": true,
          "internalType": "uint256",
          "name": "couponDate",
          "type": "uint256"
        },
        {
          "indexed": true,
          "internalType": "uint256",
          "name": "currentTimestamp",
          "type": "uint256"
        },
        {
          "indexed": true,
          "internalType": "uint256",
          "name": "nextTimestamp",
          "type": "uint256"
        }
      ],
      "name": "SnapshotTimestampChange",
      "type": "event"
    },
    {
      "anonymous": false,
      "inputs": [
        {
          "indexed": true,
          "internalType": "address",
          "name": "from",
          "type": "address"
        },
        {
          "indexed": true,
          "internalType": "address",
          "name": "to",
          "type": "address"
        },
        {
          "indexed": false,
          "internalType": "uint256",
          "name": "value",
          "type": "uint256"
        }
      ],
      "name": "Transfer",
      "type": "event"
    },
    {
      "anonymous": false,
      "inputs": [
        {
          "indexed": true,
          "internalType": "address",
          "name": "toBeAdded",
          "type": "address"
        }
      ],
      "name": "WalletAddedToWhitelist",
      "type": "event"
    },
    {
      "anonymous": false,
      "inputs": [
        {
          "indexed": true,
          "internalType": "address",
          "name": "toBeDeleted",
          "type": "address"
        }
      ],
      "name": "WalletDeletedFromWhitelist",
      "type": "event"
    },
    {
      "inputs": [],
      "name": "BND_ROLE",
      "outputs": [
        {
          "internalType": "bytes32",
          "name": "",
          "type": "bytes32"
        }
      ],
      "stateMutability": "view",
      "type": "function"
    },
    {
      "inputs": [],
      "name": "CAK_ROLE",
      "outputs": [
        {
          "internalType": "bytes32",
          "name": "",
          "type": "bytes32"
        }
      ],
      "stateMutability": "view",
      "type": "function"
    },
    {
      "inputs": [],
      "name": "CST_ROLE",
      "outputs": [
        {
          "internalType": "bytes32",
          "name": "",
          "type": "bytes32"
        }
      ],
      "stateMutability": "view",
      "type": "function"
    },
    {
      "inputs": [],
      "name": "PAY_ROLE",
      "outputs": [
        {
          "internalType": "bytes32",
          "name": "",
          "type": "bytes32"
        }
      ],
      "stateMutability": "view",
      "type": "function"
    },
    {
      "inputs": [
        {
          "internalType": "uint256",
          "name": "_couponDate",
          "type": "uint256"
        }
      ],
      "name": "_totalSupplyAtCoupon",
      "outputs": [
        {
          "internalType": "uint256",
          "name": "",
          "type": "uint256"
        }
      ],
      "stateMutability": "view",
      "type": "function"
    },
    {
      "inputs": [
        {
          "internalType": "uint256",
          "name": "date",
          "type": "uint256"
        }
      ],
      "name": "addCouponDate",
      "outputs": [],
      "stateMutability": "nonpayable",
      "type": "function"
    },
    {
      "inputs": [
        {
          "internalType": "address",
          "name": "holder",
          "type": "address"
        },
        {
          "internalType": "address",
          "name": "spender",
          "type": "address"
        }
      ],
      "name": "allowance",
      "outputs": [
        {
          "internalType": "uint256",
          "name": "",
          "type": "uint256"
        }
      ],
      "stateMutability": "view",
      "type": "function"
    },
    {
      "inputs": [
        {
          "internalType": "address",
          "name": "spender",
          "type": "address"
        },
        {
          "internalType": "uint256",
          "name": "amount",
          "type": "uint256"
        }
      ],
      "name": "approve",
      "outputs": [
        {
          "internalType": "bool",
          "name": "",
          "type": "bool"
        }
      ],
      "stateMutability": "nonpayable",
      "type": "function"
    },
    {
      "inputs": [
        {
          "internalType": "address",
          "name": "account",
          "type": "address"
        }
      ],
      "name": "balanceOf",
      "outputs": [
        {
          "internalType": "uint256",
          "name": "",
          "type": "uint256"
        }
      ],
      "stateMutability": "view",
      "type": "function"
    },
    {
      "inputs": [
        {
          "internalType": "address",
          "name": "account",
          "type": "address"
        },
        {
          "internalType": "uint256",
          "name": "snapshotId",
          "type": "uint256"
        }
      ],
      "name": "balanceOfAt",
      "outputs": [
        {
          "internalType": "uint256",
          "name": "",
          "type": "uint256"
        }
      ],
      "stateMutability": "view",
      "type": "function"
    },
    {
      "inputs": [
        {
          "internalType": "uint256",
          "name": "_couponDate",
          "type": "uint256"
        }
      ],
      "name": "checkIfCouponDateExists",
      "outputs": [
        {
          "internalType": "bool",
          "name": "",
          "type": "bool"
        }
      ],
      "stateMutability": "view",
      "type": "function"
    },
    {
      "inputs": [
        {
          "internalType": "uint256",
          "name": "_maturityDate",
          "type": "uint256"
        }
      ],
      "name": "checkIfMaturityDateExists",
      "outputs": [
        {
          "internalType": "bool",
          "name": "",
          "type": "bool"
        }
      ],
      "stateMutability": "view",
      "type": "function"
    },
    {
      "inputs": [],
      "name": "decimals",
      "outputs": [
        {
          "internalType": "uint8",
          "name": "",
          "type": "uint8"
        }
      ],
      "stateMutability": "view",
      "type": "function"
    },
    {
      "inputs": [
        {
          "internalType": "address",
          "name": "spender",
          "type": "address"
        },
        {
          "internalType": "uint256",
          "name": "subtractedValue",
          "type": "uint256"
        }
      ],
      "name": "decreaseAllowance",
      "outputs": [
        {
          "internalType": "bool",
          "name": "",
          "type": "bool"
        }
      ],
      "stateMutability": "nonpayable",
      "type": "function"
    },
    {
      "inputs": [
        {
          "internalType": "uint256",
          "name": "date",
          "type": "uint256"
        }
      ],
      "name": "delCouponDate",
      "outputs": [],
      "stateMutability": "nonpayable",
      "type": "function"
    },
    {
      "inputs": [],
      "name": "getBondCouponRate",
      "outputs": [
        {
          "internalType": "uint256",
          "name": "",
          "type": "uint256"
        }
      ],
      "stateMutability": "view",
      "type": "function"
    },
    {
      "inputs": [],
      "name": "getBondData",
      "outputs": [
        {
          "components": [
            {
              "internalType": "string",
              "name": "name",
              "type": "string"
            },
            {
              "internalType": "string",
              "name": "isin",
              "type": "string"
            },
            {
              "internalType": "uint256",
              "name": "expectedSupply",
              "type": "uint256"
            },
            {
              "internalType": "bytes32",
              "name": "currency",
              "type": "bytes32"
            },
            {
              "internalType": "uint256",
              "name": "unitValue",
              "type": "uint256"
            },
            {
              "internalType": "uint256",
              "name": "couponRate",
              "type": "uint256"
            },
            {
              "internalType": "uint256",
              "name": "creationDate",
              "type": "uint256"
            },
            {
              "internalType": "uint256",
              "name": "issuanceDate",
              "type": "uint256"
            },
            {
              "internalType": "uint256",
              "name": "maturityDate",
              "type": "uint256"
            },
            {
              "internalType": "uint256[]",
              "name": "couponDates",
              "type": "uint256[]"
            },
            {
              "internalType": "uint256",
              "name": "cutOffTime",
              "type": "uint256"
            }
          ],
          "internalType": "struct IRegisterMetadataInternal.BondData",
          "name": "",
          "type": "tuple"
        }
      ],
      "stateMutability": "view",
      "type": "function"
    },
    {
      "inputs": [],
      "name": "getBondUnitValue",
      "outputs": [
        {
          "internalType": "uint256",
          "name": "",
          "type": "uint256"
        }
      ],
      "stateMutability": "view",
      "type": "function"
    },
    {
      "inputs": [],
      "name": "getCreationDate",
      "outputs": [
        {
          "internalType": "uint256",
          "name": "",
          "type": "uint256"
        }
      ],
      "stateMutability": "view",
      "type": "function"
    },
    {
      "inputs": [],
      "name": "getIssuanceDate",
      "outputs": [
        {
          "internalType": "uint256",
          "name": "",
          "type": "uint256"
        }
      ],
      "stateMutability": "view",
      "type": "function"
    },
    {
      "inputs": [
        {
          "internalType": "bytes32",
          "name": "role",
          "type": "bytes32"
        }
      ],
      "name": "getRoleAdmin",
      "outputs": [
        {
          "internalType": "bytes32",
          "name": "",
          "type": "bytes32"
        }
      ],
      "stateMutability": "view",
      "type": "function"
    },
    {
      "inputs": [
        {
          "internalType": "bytes32",
          "name": "role",
          "type": "bytes32"
        },
        {
          "internalType": "uint256",
          "name": "index",
          "type": "uint256"
        }
      ],
      "name": "getRoleMember",
      "outputs": [
        {
          "internalType": "address",
          "name": "",
          "type": "address"
        }
      ],
      "stateMutability": "view",
      "type": "function"
    },
    {
      "inputs": [
        {
          "internalType": "bytes32",
          "name": "role",
          "type": "bytes32"
        }
      ],
      "name": "getRoleMemberCount",
      "outputs": [
        {
          "internalType": "uint256",
          "name": "",
          "type": "uint256"
        }
      ],
      "stateMutability": "view",
      "type": "function"
    },
    {
      "inputs": [
        {
          "internalType": "bytes32",
          "name": "role",
          "type": "bytes32"
        },
        {
          "internalType": "address",
          "name": "account",
          "type": "address"
        }
      ],
      "name": "grantRole",
      "outputs": [],
      "stateMutability": "nonpayable",
      "type": "function"
    },
    {
      "inputs": [
        {
          "internalType": "bytes32",
          "name": "role",
          "type": "bytes32"
        },
        {
          "internalType": "address",
          "name": "account",
          "type": "address"
        }
      ],
      "name": "hasRole",
      "outputs": [
        {
          "internalType": "bool",
          "name": "",
          "type": "bool"
        }
      ],
      "stateMutability": "view",
      "type": "function"
    },
    {
      "inputs": [
        {
          "internalType": "address",
          "name": "spender",
          "type": "address"
        },
        {
          "internalType": "uint256",
          "name": "addedValue",
          "type": "uint256"
        }
      ],
      "name": "increaseAllowance",
      "outputs": [
        {
          "internalType": "bool",
          "name": "",
          "type": "bool"
        }
      ],
      "stateMutability": "nonpayable",
      "type": "function"
    },
    {
      "inputs": [
        {
          "internalType": "address",
          "name": "forwarder",
          "type": "address"
        }
      ],
      "name": "isTrustedForwarder",
      "outputs": [
        {
          "internalType": "bool",
          "name": "",
          "type": "bool"
        }
      ],
      "stateMutability": "view",
      "type": "function"
    },
    {
      "inputs": [],
      "name": "makeReady",
      "outputs": [],
      "stateMutability": "nonpayable",
      "type": "function"
    },
    {
      "inputs": [],
      "name": "name",
      "outputs": [
        {
          "internalType": "string",
          "name": "",
          "type": "string"
        }
      ],
      "stateMutability": "view",
      "type": "function"
    },
    {
      "inputs": [],
      "name": "primaryIssuanceAccount",
      "outputs": [
        {
          "internalType": "address",
          "name": "",
          "type": "address"
        }
      ],
      "stateMutability": "view",
      "type": "function"
    },
    {
      "inputs": [
        {
          "internalType": "address",
          "name": "to",
          "type": "address"
        },
        {
          "internalType": "string",
          "name": "message",
          "type": "string"
        }
      ],
      "name": "publicMessage",
      "outputs": [],
      "stateMutability": "nonpayable",
      "type": "function"
    },
    {
      "inputs": [
        {
          "internalType": "bytes32",
          "name": "role",
          "type": "bytes32"
        }
      ],
      "name": "renounceRole",
      "outputs": [],
      "stateMutability": "nonpayable",
      "type": "function"
    },
    {
      "inputs": [
        {
          "internalType": "address",
          "name": "investor",
          "type": "address"
        }
      ],
      "name": "returnBalanceToPrimaryIssuanceAccount",
      "outputs": [
        {
          "internalType": "bool",
          "name": "",
          "type": "bool"
        }
      ],
      "stateMutability": "nonpayable",
      "type": "function"
    },
    {
      "inputs": [],
      "name": "revertReady",
      "outputs": [],
      "stateMutability": "nonpayable",
      "type": "function"
    },
    {
      "inputs": [
        {
          "internalType": "bytes32",
          "name": "role",
          "type": "bytes32"
        },
        {
          "internalType": "address",
          "name": "account",
          "type": "address"
        }
      ],
      "name": "revokeRole",
      "outputs": [],
      "stateMutability": "nonpayable",
      "type": "function"
    },
    {
      "inputs": [
        {
          "internalType": "string",
          "name": "name_",
          "type": "string"
        },
        {
          "internalType": "uint256",
          "name": "expectedSupply_",
          "type": "uint256"
        },
        {
          "internalType": "bytes32",
          "name": "currency_",
          "type": "bytes32"
        },
        {
          "internalType": "uint256",
          "name": "unitVal_",
          "type": "uint256"
        },
        {
          "internalType": "uint256",
          "name": "couponRate_",
          "type": "uint256"
        },
        {
          "internalType": "uint256",
          "name": "issuanceDate_",
          "type": "uint256"
        },
        {
          "internalType": "uint256",
          "name": "maturityDate_",
          "type": "uint256"
        },
        {
          "internalType": "uint256",
          "name": "cutOffTime_",
          "type": "uint256"
        }
      ],
      "name": "setBondData",
      "outputs": [],
      "stateMutability": "nonpayable",
      "type": "function"
    },
    {
      "inputs": [
        {
          "internalType": "uint256",
          "name": "creationDate",
          "type": "uint256"
        }
      ],
      "name": "setCreationDate",
      "outputs": [],
      "stateMutability": "nonpayable",
      "type": "function"
    },
    {
      "inputs": [
        {
          "internalType": "bytes32",
          "name": "currency",
          "type": "bytes32"
        }
      ],
      "name": "setCurrency",
      "outputs": [],
      "stateMutability": "nonpayable",
      "type": "function"
    },
    {
      "inputs": [
        {
          "internalType": "uint256",
          "name": "couponDate_",
          "type": "uint256"
        },
        {
          "internalType": "uint256",
          "name": "recordDatetime_",
          "type": "uint256"
        }
      ],
      "name": "setCurrentCouponDate",
      "outputs": [],
      "stateMutability": "nonpayable",
      "type": "function"
    },
    {
      "inputs": [
        {
          "internalType": "uint256",
          "name": "expectedSupply",
          "type": "uint256"
        }
      ],
      "name": "setExpectedSupply",
      "outputs": [],
      "stateMutability": "nonpayable",
      "type": "function"
    },
    {
      "inputs": [
        {
          "internalType": "string",
          "name": "isinSymbol",
          "type": "string"
        }
      ],
      "name": "setIsinSymbol",
      "outputs": [],
      "stateMutability": "nonpayable",
      "type": "function"
    },
    {
      "inputs": [
        {
          "internalType": "uint256",
          "name": "issuanceDate",
          "type": "uint256"
        }
      ],
      "name": "setIssuanceDate",
      "outputs": [],
      "stateMutability": "nonpayable",
      "type": "function"
    },
    {
      "inputs": [
        {
          "internalType": "string",
          "name": "name_",
          "type": "string"
        }
      ],
      "name": "setName",
      "outputs": [],
      "stateMutability": "nonpayable",
      "type": "function"
    },
    {
      "inputs": [],
      "name": "status",
      "outputs": [
        {
          "internalType": "enum IRegisterMetadataInternal.Status",
          "name": "",
          "type": "uint8"
        }
      ],
      "stateMutability": "view",
      "type": "function"
    },
    {
      "inputs": [],
      "name": "symbol",
      "outputs": [
        {
          "internalType": "string",
          "name": "",
          "type": "string"
        }
      ],
      "stateMutability": "view",
      "type": "function"
    },
    {
      "inputs": [],
      "name": "toggleFrozen",
      "outputs": [],
      "stateMutability": "nonpayable",
      "type": "function"
    },
    {
      "inputs": [],
      "name": "totalSupply",
      "outputs": [
        {
          "internalType": "uint256",
          "name": "",
          "type": "uint256"
        }
      ],
      "stateMutability": "view",
      "type": "function"
    },
    {
      "inputs": [
        {
          "internalType": "uint256",
          "name": "snapshotId",
          "type": "uint256"
        }
      ],
      "name": "totalSupplyAt",
      "outputs": [
        {
          "internalType": "uint256",
          "name": "",
          "type": "uint256"
        }
      ],
      "stateMutability": "view",
      "type": "function"
    },
    {
      "inputs": [
        {
          "internalType": "address",
          "name": "recipient",
          "type": "address"
        },
        {
          "internalType": "uint256",
          "name": "amount",
          "type": "uint256"
        }
      ],
      "name": "transfer",
      "outputs": [
        {
          "internalType": "bool",
          "name": "",
          "type": "bool"
        }
      ],
      "stateMutability": "nonpayable",
      "type": "function"
    },
    {
      "inputs": [
        {
          "internalType": "address",
          "name": "holder",
          "type": "address"
        },
        {
          "internalType": "address",
          "name": "recipient",
          "type": "address"
        },
        {
          "internalType": "uint256",
          "name": "amount",
          "type": "uint256"
        }
      ],
      "name": "transferFrom",
      "outputs": [
        {
          "internalType": "bool",
          "name": "",
          "type": "bool"
        }
      ],
      "stateMutability": "nonpayable",
      "type": "function"
    },
    {
      "inputs": [],
      "name": "trustedForwarder",
      "outputs": [
        {
          "internalType": "address",
          "name": "",
          "type": "address"
        }
      ],
      "stateMutability": "view",
      "type": "function"
    }
  ],
  "bytecode": "0x608060405234801561000f575f80fd5b50614e938061001d5f395ff3fe608060405234801561000f575f80fd5b5060043610610330575f3560e01c806371c41f8a116101b3578063a9059cbb116100f3578063d4cdda911161009e578063d8eab9a511610079578063d8eab9a5146106d2578063d9a79978146106e5578063dc16722b146106f8578063dd62ed3e14610700575f80fd5b8063d4cdda9114610699578063d547741f146106ac578063d58c80b4146106bf575f80fd5b8063c47f0027116100ce578063c47f00271461066b578063ca15c8731461067e578063d46be60814610691575f80fd5b8063a9059cbb1461063d578063abc2cf2a14610650578063b90c1dbb14610663575f80fd5b80639010d07c1161015e57806395d89b411161013957806395d89b4114610607578063981b24d01461060f578063a457c2d714610622578063a7f2f6ec14610635575f80fd5b80639010d07c146105ce57806391d14854146105e157806393c39393146105f4575f80fd5b80638784ff181161018e5780638784ff181461059f5780638865f1e2146105a75780638bb9c5bf146105bb575f80fd5b806371c41f8a146105555780637469538a146105685780637da0a8771461057b575f80fd5b80633052974c1161027e5780633e4be639116102295780634ee2cd7e116102045780634ee2cd7e14610507578063572b6c051461051a57806363896d191461052d57806370a0823114610542575f80fd5b80633e4be639146104d95780633e7e8713146104e15780634e0b0dcf146104f4575f80fd5b80633950935111610259578063395093511461048c5780633bf2a9f41461049f5780633e0abded146104c6575f80fd5b80633052974c14610457578063313ce5671461046a57806339027f7c14610484575f80fd5b8063200d2ed2116102de5780632682ac91116102b95780632682ac91146104155780632877d4731461043c5780632f2ff15d14610444575f80fd5b8063200d2ed2146103da57806323b872dd146103ef578063248a9ca314610402575f80fd5b806317559df01161030e57806317559df01461038a57806318160ddd1461039d5780631c67a363146103b3575f80fd5b806306ec8ca61461033457806306fdde0314610349578063095ea7b314610367575b5f80fd5b610347610342366004614691565b610713565b005b61035161071f565b60405161035e91906146f5565b60405180910390f35b61037a610375366004614722565b61072e565b604051901515815260200161035e565b6103476103983660046147e7565b61074a565b6103a5610764565b60405190815260200161035e565b6103a57f6ba6f588bcdc2df8426603a466c98ab15e79f7fb7f37b53581ce39c1d01b724981565b6103e261078d565b60405161035e919061488c565b61037a6103fd36600461489a565b6107a6565b6103a5610410366004614691565b6107bc565b6103a57ff698af62c65280e4949bceec64b760f3b7738217cbc536cdfc4c9463676b05c281565b6103a56107f1565b6103476104523660046148d3565b61081a565b6103476104653660046148fd565b610862565b610472610870565b60405160ff909116815260200161035e565b6103a561089c565b61037a61049a366004614722565b6108c5565b6103a57fd7aa2ddfa4e381128202bf365b7e0a176f2fca6cdf2f23c2b0a6f4393769589081565b6103a56104d4366004614691565b6108d0565b61034761095d565b6103476104ef366004614691565b610967565b61034761050236600461491d565b610970565b6103a5610515366004614722565b610979565b61037a61052836600461494f565b610984565b61053561099a565b60405161035e91906149a1565b6103a561055036600461494f565b6109fa565b61037a610563366004614691565b610a36565b610347610576366004614691565b610a40565b5f546001600160a01b03165b6040516001600160a01b03909116815260200161035e565b610587610a49565b6103a55f80516020614e1e83398151915281565b6103476105c9366004614691565b610a7b565b6105876105dc3660046148fd565b610a84565b61037a6105ef3660046148d3565b610a8f565b610347610602366004614691565b610a9a565b610351610aa3565b6103a561061d366004614691565b610aad565b61037a610630366004614722565b610ab7565b6103a5610ac2565b61037a61064b366004614722565b610aeb565b61037a61065e36600461494f565b610afe565b6103a5610b08565b61034761067936600461491d565b610b31565b6103a561068c366004614691565b610b3a565b610347610b44565b61037a6106a7366004614691565b610b4c565b6103476106ba3660046148d3565b610b77565b6103476106cd366004614691565b610bba565b6103476106e0366004614691565b610bc3565b6103476106f3366004614a60565b610bcc565b610347610bd6565b6103a561070e366004614aab565b610bde565b61071c81610c29565b50565b6060610729610cb1565b905090565b5f61074161073a610d60565b8484610d69565b90505b92915050565b61075a8888888888888888610e6f565b5050505050505050565b5f6107297fbbbdc1476a0878f2ef9a893c81f5b6f6ea1b3acaf18ff47ccb69cd4267d50c885490565b5f6107295f80516020614e3e8339815191525460ff1690565b5f6107b2848484611079565b90505b9392505050565b5f8181527f2e59e4c2e927cdddbb64e181e0668d9a0fa70dd88f94d999cd87d5496a20da626020526040812060020154610744565b5f6107297fe02854d75ca0f6b56099fb1e1546a75ef76f441f4e6082f2e3cbb1e8dc5591a85490565b5f8281527f2e59e4c2e927cdddbb64e181e0668d9a0fa70dd88f94d999cd87d5496a20da626020526040902060020154610853816114cb565b61085d83836114dc565b505050565b61086c828261165a565b5050565b5f6107297f8c998f45074727a62053813302c526655913012298b223f931495bf68495bf685460ff1690565b5f6107297fe02854d75ca0f6b56099fb1e1546a75ef76f441f4e6082f2e3cbb1e8dc5591a65490565b5f6107418383611754565b5f8181527f95d8298a3d25370298f52eb5e4c2caa68ca2492c02741ad9ada9443a021d759160205260408120547f95d8298a3d25370298f52eb5e4c2caa68ca2492c02741ad9ada9443a021d758d9080156109365761092e816117c7565b949350505050565b7fbbbdc1476a0878f2ef9a893c81f5b6f6ea1b3acaf18ff47ccb69cd4267d50c885461092e565b610965611824565b565b61071c816119e6565b61071c81611ba3565b5f6107418383611c36565b5f80546001600160a01b03838116911614610744565b6109f260405180610160016040528060608152602001606081526020015f81526020015f80191681526020015f81526020015f81526020015f81526020015f81526020015f8152602001606081526020015f81525090565b610729611ccb565b6001600160a01b0381165f9081527fbbbdc1476a0878f2ef9a893c81f5b6f6ea1b3acaf18ff47ccb69cd4267d50c866020526040812054610744565b5f61074482611f2c565b61071c81611f77565b5f6107297fe02854d75ca0f6b56099fb1e1546a75ef76f441f4e6082f2e3cbb1e8dc5591ac546001600160a01b031690565b61071c816122a3565b5f61074183836122b4565b5f61074183836122ea565b61071c81612320565b606061072961239e565b5f610744826117c7565b5f61074183836123cf565b5f6107297fe02854d75ca0f6b56099fb1e1546a75ef76f441f4e6082f2e3cbb1e8dc5591a55490565b5f610741610af7610d60565b8484612467565b5f610744826125fd565b5f6107297fe02854d75ca0f6b56099fb1e1546a75ef76f441f4e6082f2e3cbb1e8dc5591a75490565b61071c81612943565b5f610744826129d6565b610965612a0b565b5f610744827fe02854d75ca0f6b56099fb1e1546a75ef76f441f4e6082f2e3cbb1e8dc5591a9541490565b5f8281527f2e59e4c2e927cdddbb64e181e0668d9a0fa70dd88f94d999cd87d5496a20da626020526040902060020154610bb0816114cb565b61085d8383612b1a565b61071c81612c9e565b61071c81612d97565b61086c8282612e15565b610965612f8c565b6001600160a01b038083165f9081527fbbbdc1476a0878f2ef9a893c81f5b6f6ea1b3acaf18ff47ccb69cd4267d50c8760209081526040808320938516835292905290812054610741565b610c475f80516020614e1e833981519152610c42610d60565b6122ea565b610c8d5760405162461bcd60e51b815260206004820152601260248201527143616c6c6572206d7573742062652043414b60701b60448201526064015b60405180910390fd5b7fe02854d75ca0f6b56099fb1e1546a75ef76f441f4e6082f2e3cbb1e8dc5591a455565b60607f8c998f45074727a62053813302c526655913012298b223f931495bf68495bf668054610cdf90614ad3565b80601f0160208091040260200160405190810160405280929190818152602001828054610d0b90614ad3565b8015610d565780601f10610d2d57610100808354040283529160200191610d56565b820191905f5260205f20905b815481529060010190602001808311610d3957829003601f168201915b5050505050905090565b5f610729613162565b5f6001600160a01b038416610daa576040517f5a68b7ab00000000000000000000000000000000000000000000000000000000815260040160405180910390fd5b6001600160a01b038316610dea576040517fc524160000000000000000000000000000000000000000000000000000000000815260040160405180910390fd5b6001600160a01b038481165f8181527fbbbdc1476a0878f2ef9a893c81f5b6f6ea1b3acaf18ff47ccb69cd4267d50c876020908152604080832094881680845294825291829020869055815186815291517f8c5be1e5ebec7d5bd14f71427d1e84f3dd0314c0f7b2291e5b200ac8c7c3b9259281900390910190a35060019392505050565b610e885f80516020614e1e833981519152610c42610d60565b610ec95760405162461bcd60e51b815260206004820152601260248201527143616c6c6572206d7573742062652043414b60701b6044820152606401610c84565b7fe02854d75ca0f6b56099fb1e1546a75ef76f441f4e6082f2e3cbb1e8dc5591aa545f80516020614e3e8339815191529015611037576008810154600a820180545f90610f1857610f18614b0b565b905f5260205f20015411610f945760405162461bcd60e51b815260206004820152603660248201527f43616e6e6f742073657420612069737375616e6365206461746520616674657260448201527f2074686520666972737420636f75706f6e2064617465000000000000000000006064820152608401610c84565b6009810154600a82018054610fab90600190614b33565b81548110610fbb57610fbb614b0b565b905f5260205f200154106110375760405162461bcd60e51b815260206004820152603660248201527f43616e6e6f74207365742061206d617475726974792064617465206265666f7260448201527f6520746865206c61737420636f75706f6e2064617465000000000000000000006064820152608401610c84565b600181016110458a82614b93565b50600381019790975560048701959095556005860193909355600685019190915560088401556009830155600b9091015550565b5f5f80516020614e3e83398151915261109f5f80516020614e1e833981519152336122ea565b156110ba576110af858585612467565b5060019150506107b5565b6110c33361316b565b61110f5760405162461bcd60e51b815260206004820181905260248201527f5468697320636f6e7472616374206973206e6f742077686974656c69737465646044820152606401610c84565b6004815460ff16600481111561112757611127614858565b0361119a5760405162461bcd60e51b815260206004820152603360248201527f4e6f207472616e736665722063616e20626520646f6e65207768656e2074686560448201527f2072656769737465722069732046726f7a656e000000000000000000000000006064820152608401610c84565b6001815460ff1660048111156111b2576111b2614858565b1480156111e457506111e47ff698af62c65280e4949bceec64b760f3b7738217cbc536cdfc4c9463676b05c2856122ea565b80156111ff5750600c8101546001600160a01b038681169116145b15611360578054600260ff19909116811782557f332cf6b129284e49df93f4be38bb1959bb5fa7d7d0ce3d4ad668f566f35f6fd4805460018181019092557f3b5a704516de56a4fa30eb29b0bf899a47de4e07d715ffde30cee9d593da4416810180546001600160a01b0389167fffffffffffffffffffffffff000000000000000000000000000000000000000091821681179092555f8281527f332cf6b129284e49df93f4be38bb1959bb5fa7d7d0ce3d4ad668f566f35f6fd56020526040902093840192909255825493830180549092169091557fffffffffffffffffffffff0000000000000000000000000000000000000000009092169091179055611306610d60565b81546040516001600160a01b0392909216917fda2010acfda7a262372331cb3b57e3f648f63eb009a423a2b5602cfa4f9bff5191611353916001860191600287019160ff90911690614cc8565b60405180910390a26114c0565b6113a7846001600160a01b03165f9081527f332cf6b129284e49df93f4be38bb1959bb5fa7d7d0ce3d4ad668f566f35f6fd56020526040902054600160a01b900460ff1690565b15156001146113f85760405162461bcd60e51b815260206004820152601b60248201527f546865207265636569766572206973206e6f7420616c6c6f77656400000000006044820152606401610c84565b61143f856001600160a01b03165f9081527f332cf6b129284e49df93f4be38bb1959bb5fa7d7d0ce3d4ad668f566f35f6fd56020526040902054600160a01b900460ff1690565b15156001148061147457506114747ff698af62c65280e4949bceec64b760f3b7738217cbc536cdfc4c9463676b05c2866122ea565b6114c05760405162461bcd60e51b815260206004820152601960248201527f5468652073656e646572206973206e6f7420616c6c6f776564000000000000006044820152606401610c84565b6110af858585612467565b61071c816114d7610d60565b6131b0565b8161153a5760405162461bcd60e51b8152602060048201526024808201527f5573652066756e6374696f6e206368616e676541646d696e526f6c6520696e736044820152631d19585960e21b6064820152608401610c84565b611650565b5f80516020614e1e83398151915282036115eb576115675f80516020614e1e833981519152610c42610d60565b8061157957506115795f610c42610d60565b6115355760405162461bcd60e51b815260206004820152602e60248201527f43616c6c6572206d7573742062652043414b206f722041444d494e20746f207360448201527f657420616e6f746865722043414b0000000000000000000000000000000000006064820152608401610c84565b6116045f80516020614e1e833981519152610c42610d60565b6116505760405162461bcd60e51b815260206004820181905260248201527f43616c6c6572206d7573742062652043414b20746f20736574206120726f6c656044820152606401610c84565b61086c8282613212565b61166a611665610d60565b61316b565b6116b65760405162461bcd60e51b815260206004820181905260248201527f5468697320636f6e7472616374206973206e6f742077686974656c69737465646044820152606401610c84565b816116c482620d2f00614cfc565b116117415760405162461bcd60e51b815260206004820152604160248201527f496e636f6e73697374656e74207265636f72642064617465206d6f726520746860448201527f616e2031302064617973206265666f726520736574746c656d656e74206461746064820152606560f81b608482015260a401610c84565b61086c828261174f85613295565b61333d565b5f8061175e610d60565b6001600160a01b038181165f9081527fbbbdc1476a0878f2ef9a893c81f5b6f6ea1b3acaf18ff47ccb69cd4267d50c8760209081526040808320938916835292905220549091505f1981146117bc576117ba8286868401610d69565b505b506001949350505050565b5f80806117f4847fcd7a55ef023eb5931cc022a9bdc64cb5b46c3a6e53bcaa84915eea6084f1c7b56135c9565b91509150816107b5577fbbbdc1476a0878f2ef9a893c81f5b6f6ea1b3acaf18ff47ccb69cd4267d50c885461092e565b5f80516020614e3e83398151915261184b5f80516020614e1e833981519152610c42610d60565b61188c5760405162461bcd60e51b815260206004820152601260248201527143616c6c6572206d7573742062652043414b60701b6044820152606401610c84565b6002815460ff1660048111156118a4576118a4614858565b036118c2578054600490829060ff19166001835b0217905550611986565b6004815460ff1660048111156118da576118da614858565b036118f2578054600290829060ff19166001836118b8565b60405162461bcd60e51b815260206004820152604b60248201527f43616e6e6f7420467265657a65202f20556e667265657a65207468652072656760448201527f69737465722061732074686520737461747573206973206e6f7420497373756560648201527f64206f722046726f7a656e000000000000000000000000000000000000000000608482015260a401610c84565b61198e610d60565b81546040516001600160a01b0392909216917fda2010acfda7a262372331cb3b57e3f648f63eb009a423a2b5602cfa4f9bff51916119db916001860191600287019160ff90911690614cc8565b60405180910390a250565b6119ff5f80516020614e1e833981519152610c42610d60565b611a405760405162461bcd60e51b815260206004820152601260248201527143616c6c6572206d7573742062652043414b60701b6044820152606401610c84565b5f80516020614e3e8339815191525f80611a59846136d2565b915091508015611b9d57611a6c84613774565b611ade5760405162461bcd60e51b815260206004820152602260248201527f5468697320636f75706f6e20646174652063616e6e6f742062652064656c657460448201527f65640000000000000000000000000000000000000000000000000000000000006064820152608401610c84565b600a830154611aef90600190614b33565b821015611b6f57815b600a840154611b0990600190614b33565b811015611b6d57600a8401611b1f826001614cfc565b81548110611b2f57611b2f614b0b565b905f5260205f200154846001016009018281548110611b5057611b50614b0b565b5f9182526020909120015580611b6581614d0f565b915050611af8565b505b600a8301805480611b8257611b82614d27565b600190038181905f5260205f20015f90559055611b9d6137bd565b50505050565b611bbc5f80516020614e1e833981519152610c42610d60565b611bfd5760405162461bcd60e51b815260206004820152601260248201527143616c6c6572206d7573742062652043414b60701b6044820152606401610c84565b5f80516020614e3e8339815191527fe02854d75ca0f6b56099fb1e1546a75ef76f441f4e6082f2e3cbb1e8dc5591a261085d8382614b93565b5f8080611c7b847fcd7a55ef023eb5931cc022a9bdc64cb5b46c3a6e53bcaa84915eea6084f1c7b46001600160a01b0388165f908152602091909152604090206135c9565b9150915081611cc0576001600160a01b0385165f9081527fbbbdc1476a0878f2ef9a893c81f5b6f6ea1b3acaf18ff47ccb69cd4267d50c866020526040902054611cc2565b805b95945050505050565b611d2360405180610160016040528060608152602001606081526020015f81526020015f80191681526020015f81526020015f81526020015f81526020015f81526020015f8152602001606081526020015f81525090565b6040805161016081019091527fe02854d75ca0f6b56099fb1e1546a75ef76f441f4e6082f2e3cbb1e8dc5591a180545f80516020614e3e83398151915292919082908290611d7090614ad3565b80601f0160208091040260200160405190810160405280929190818152602001828054611d9c90614ad3565b8015611de75780601f10611dbe57610100808354040283529160200191611de7565b820191905f5260205f20905b815481529060010190602001808311611dca57829003601f168201915b50505050508152602001600182018054611e0090614ad3565b80601f0160208091040260200160405190810160405280929190818152602001828054611e2c90614ad3565b8015611e775780601f10611e4e57610100808354040283529160200191611e77565b820191905f5260205f20905b815481529060010190602001808311611e5a57829003601f168201915b505050505081526020016002820154815260200160038201548152602001600482015481526020016005820154815260200160068201548152602001600782015481526020016008820154815260200160098201805480602002602001604051908101604052809291908181526020018280548015611f1357602002820191905f5260205f20905b815481526020019060010190808311611eff575b50505050508152602001600a8201548152505091505090565b5f5f80516020614e3e83398151915281611f45846136d2565b9150508015611f58575060019392505050565b6009820154849003611f6e575060019392505050565b505f9392505050565b611f905f80516020614e1e833981519152610c42610d60565b611fd15760405162461bcd60e51b815260206004820152601260248201527143616c6c6572206d7573742062652043414b60701b6044820152606401610c84565b7fe02854d75ca0f6b56099fb1e1546a75ef76f441f4e6082f2e3cbb1e8dc5591a8545f80516020614e3e8339815191529082116120765760405162461bcd60e51b815260206004820152603e60248201527f43616e6e6f7420736574206120636f75706f6e206461746520736d616c6c657260448201527f206f7220657175616c20746f207468652069737375616e6365206461746500006064820152608401610c84565b600981015482106120ef5760405162461bcd60e51b815260206004820152603e60248201527f43616e6e6f7420736574206120636f75706f6e2064617465206772656174657260448201527f206f7220657175616c20746f20746865206d61747572697479206461746500006064820152608401610c84565b5f806120fa846136d2565b9150915080611b9d5761210c84613888565b61217e5760405162461bcd60e51b815260206004820152602a60248201527f43616e6e6f7420696e73657274207468697320646174652c206974206973206960448201527f6e207468652070617374000000000000000000000000000000000000000000006064820152608401610c84565b600a8301541561228157600a83018054819061219c90600190614b33565b815481106121ac576121ac614b0b565b5f9182526020808320909101548354600181018555938352912090910155600a83015460031161225857600a8301545f906121e990600390614b33565b90505b82811061225657600a840180548290811061220957612209614b0b565b5f91825260209091200154600a8501612223836001614cfc565b8154811061223357612233614b0b565b5f918252602090912001558015612256578061224e81614d3b565b9150506121ec565b505b8383600101600901838154811061227157612271614b0b565b5f9182526020909120015561229b565b600a830180546001810182555f9182526020909120018490555b611b9d6137bd565b61071c816122af610d60565b612b1a565b5f8281527f2e59e4c2e927cdddbb64e181e0668d9a0fa70dd88f94d999cd87d5496a20da6260205260408120610741908361389b565b5f8281527f2e59e4c2e927cdddbb64e181e0668d9a0fa70dd88f94d999cd87d5496a20da626020526040812061074190836138a6565b6123395f80516020614e1e833981519152610c42610d60565b61237a5760405162461bcd60e51b815260206004820152601260248201527143616c6c6572206d7573742062652043414b60701b6044820152606401610c84565b7fe02854d75ca0f6b56099fb1e1546a75ef76f441f4e6082f2e3cbb1e8dc5591a755565b60607f8c998f45074727a62053813302c526655913012298b223f931495bf68495bf666001018054610cdf90614ad3565b5f806123d9610d60565b6001600160a01b038181165f9081527fbbbdc1476a0878f2ef9a893c81f5b6f6ea1b3acaf18ff47ccb69cd4267d50c8760209081526040808320938916835292905220549091508084111561245a576040517f01c2999e00000000000000000000000000000000000000000000000000000000815260040160405180910390fd5b6117ba8286868403610d69565b5f6001600160a01b0384166124a8576040517f68551d5f00000000000000000000000000000000000000000000000000000000815260040160405180910390fd5b6001600160a01b0383166124e8576040517f8289914400000000000000000000000000000000000000000000000000000000815260040160405180910390fd5b6124f38484846138c7565b6001600160a01b0384165f9081527fbbbdc1476a0878f2ef9a893c81f5b6f6ea1b3acaf18ff47ccb69cd4267d50c86602081905260409091205480841115612567576040517f7183160b00000000000000000000000000000000000000000000000000000000815260040160405180910390fd5b6001600160a01b038087165f9081526020849052604080822087850390559187168152908120805486929061259d908490614cfc565b92505081905550846001600160a01b0316866001600160a01b03167fddf252ad1be2c89b69c2b068fc378daa952ba7f163c4a11628f55a4df523b3ef866040516125e991815260200190565b60405180910390a350600195945050505050565b5f5f80516020614e3e833981519152612617611665610d60565b6126635760405162461bcd60e51b815260206004820181905260248201527f5468697320636f6e7472616374206973206e6f742077686974656c69737465646044820152606401610c84565b6126aa836001600160a01b03165f9081527f332cf6b129284e49df93f4be38bb1959bb5fa7d7d0ce3d4ad668f566f35f6fd56020526040902054600160a01b900460ff1690565b15156001146126fb5760405162461bcd60e51b815260206004820152601f60248201527f54686520696e766573746f72206973206e6f742077686974656c6973746564006044820152606401610c84565b5f6127247f95d8298a3d25370298f52eb5e4c2caa68ca2492c02741ad9ada9443a021d758f5490565b6009830154909150811480612737575080155b801561276357507f95d8298a3d25370298f52eb5e4c2caa68ca2492c02741ad9ada9443a021d758d5442115b6127fb5760405162461bcd60e51b815260206004820152605e60248201527f72657475726e696e67207468652062616c616e636520746f207468652070726960448201527f6d6172792069737375616e63652063616e206f6e6c7920626520646f6e65206160648201527f6674657220746865206d6174757269747920637574206f66662074696d650000608482015260a401610c84565b6040517f70a082310000000000000000000000000000000000000000000000000000000081526001600160a01b03851660048201525f9030906370a0823190602401602060405180830381865afa158015612858573d5f803e3d5ffd5b505050506040513d601f19601f8201168201806040525081019061287c9190614d50565b90505f81116128f35760405162461bcd60e51b815260206004820152602660248201527f6e6f2062616c616e636520746f2072657475726e20666f72207468697320696e60448201527f766573746f7200000000000000000000000000000000000000000000000000006064820152608401610c84565b6128fb613ac4565b50612937856129317fe02854d75ca0f6b56099fb1e1546a75ef76f441f4e6082f2e3cbb1e8dc5591ac546001600160a01b031690565b83612467565b50600195945050505050565b61295c5f80516020614e1e833981519152610c42610d60565b61299d5760405162461bcd60e51b815260206004820152601260248201527143616c6c6572206d7573742062652043414b60701b6044820152606401610c84565b5f80516020614e3e8339815191527fe02854d75ca0f6b56099fb1e1546a75ef76f441f4e6082f2e3cbb1e8dc5591a161085d8382614b93565b5f8181527f2e59e4c2e927cdddbb64e181e0668d9a0fa70dd88f94d999cd87d5496a20da626020526040812061074490613b96565b5f80516020614e3e833981519152612a325f80516020614e1e833981519152610c42610d60565b612a735760405162461bcd60e51b815260206004820152601260248201527143616c6c6572206d7573742062652043414b60701b6044820152606401610c84565b6001815460ff166004811115612a8b57612a8b614858565b14612ae25760405162461bcd60e51b815260206004820152602160248201527f52656769737465722073686f756c6420626520696e20526561647920737461746044820152606560f81b6064820152608401610c84565b600c8101546003820154612aff916001600160a01b031690613b9f565b80545f90829060ff19166001835b021790555061198e610d60565b81612b735760405162461bcd60e51b8152602060048201526024808201527f5573652066756e6374696f6e206368616e676541646d696e526f6c6520696e736044820152631d19585960e21b6064820152608401610c84565b5f80516020614e1e8339815191528203612c0957612b935f610c42610d60565b612c045760405162461bcd60e51b8152602060048201526024808201527f43616c6c6572206d7573742062652041444d494e20746f2072656d6f7665206160448201527f2043414b000000000000000000000000000000000000000000000000000000006064820152608401610c84565b612c94565b612c225f80516020614e1e833981519152610c42610d60565b612c945760405162461bcd60e51b815260206004820152602360248201527f43616c6c6572206d7573742062652043414b20746f2072656d6f76652061207260448201527f6f6c6500000000000000000000000000000000000000000000000000000000006064820152608401610c84565b61086c8282613cd9565b612cb75f80516020614e1e833981519152610c42610d60565b612cf85760405162461bcd60e51b815260206004820152601260248201527143616c6c6572206d7573742062652043414b60701b6044820152606401610c84565b5f80516020614e3e83398151915280545f9060ff166004811115612d1e57612d1e614858565b14612d915760405162461bcd60e51b815260206004820152603a60248201527f6c6966656379636c652076696f6c6174696f6e202d206f6e6c7920616c6c6f7760448201527f6564207768656e2073746174757320697320696e2064726166740000000000006064820152608401610c84565b60030155565b612db05f80516020614e1e833981519152610c42610d60565b612df15760405162461bcd60e51b815260206004820152601260248201527143616c6c6572206d7573742062652043414b60701b6044820152606401610c84565b7fe02854d75ca0f6b56099fb1e1546a75ef76f441f4e6082f2e3cbb1e8dc5591a855565b612e2e5f80516020614e1e833981519152610c42610d60565b80612e605750612e607ff698af62c65280e4949bceec64b760f3b7738217cbc536cdfc4c9463676b05c2610c42610d60565b80612e925750612e927f6ba6f588bcdc2df8426603a466c98ab15e79f7fb7f37b53581ce39c1d01b7249610c42610d60565b80612ec45750612ec47fd7aa2ddfa4e381128202bf365b7e0a176f2fca6cdf2f23c2b0a6f43937695890610c42610d60565b612f365760405162461bcd60e51b815260206004820152602e60248201527f5468652063616c6c6572206d7573742068617665206120726f6c6520696e207460448201527f6865207472616e73616374696f6e0000000000000000000000000000000000006064820152608401610c84565b816001600160a01b0316612f48610d60565b6001600160a01b03167fa923df1773651806246e73e1e43342c4845d608ad54e2606d3c1a50124d66e7183604051612f8091906146f5565b60405180910390a35050565b5f80516020614e3e833981519152612fb35f80516020614e1e833981519152610c42610d60565b612ff45760405162461bcd60e51b815260206004820152601260248201527143616c6c6572206d7573742062652043414b60701b6044820152606401610c84565b5f815460ff16600481111561300b5761300b614858565b146130625760405162461bcd60e51b815260206004820152602160248201527f52656769737465722073686f756c6420626520696e20447261667420737461746044820152606560f81b6064820152608401610c84565b60038101546130b35760405162461bcd60e51b815260206004820152601e60248201527f657870656374656420737570706c792063616e6e6f74206265207a65726f00006044820152606401610c84565b600c8101546001600160a01b03166131335760405162461bcd60e51b815260206004820152602660248201527f596f75206d7573742073657420746865206d696e74207265636569766572206160448201527f64647265737300000000000000000000000000000000000000000000000000006064820152608401610c84565b600c8101546003820154613150916001600160a01b031690613d5c565b8054600190829060ff19168280612b0d565b5f610729613e71565b5f7f3ab46f175c5f1d1c97765e87ec0d68e6241fafc1b077d060ce0c29744cd3616d8161319784613ea3565b5f90815260209290925250604090205460ff1692915050565b6131ba82826122ea565b61086c576131d0816001600160a01b0316613ed3565b6131db836020613ee5565b6040516020016131ec929190614d67565b60408051601f198184030181529082905262461bcd60e51b8252610c84916004016146f5565b5f8281527f2e59e4c2e927cdddbb64e181e0668d9a0fa70dd88f94d999cd87d5496a20da62602052604090206132489082614090565b50613251610d60565b6001600160a01b0316816001600160a01b0316837f2f8788117e7eff1d82e926ec794901d17c78024a50270940304540a733656f0d60405160405180910390a45050565b5f5f80516020614e3e833981519152815b600a820154811015611f6e57838260010160090182815481106132cb576132cb614b0b565b905f5260205f2001540361332b57600a8201546132e9826001614cfc565b101561332057600a82016132fe826001614cfc565b8154811061330e5761330e614b0b565b905f5260205f20015492505050919050565b506009015492915050565b8061333581614d0f565b9150506132a6565b5f613348835f6140a4565b9050838111156133c05760405162461bcd60e51b815260206004820152603360248201527f746865207265636f726420646174652063616e6e6f742062652061667465722060448201527f74686520736574746c656d656e742064617465000000000000000000000000006064820152608401610c84565b8115806133cc57508382115b61343e5760405162461bcd60e51b815260206004820152603c60248201527f696e76616c6964206e6578742064617465207768656e2073657474696e67207460448201527f68652063757272656e7420736e617073686f74206461746574696d65000000006064820152608401610c84565b7f95d8298a3d25370298f52eb5e4c2caa68ca2492c02741ad9ada9443a021d758d5f61346a86826140a4565b90508380156134805761347d81876140a4565b90505b5f828152600484016020526040902054156135035760405162461bcd60e51b815260206004820152602860248201527f44617465206f6620636f75706f6e206f72206d6174757269747920616c72656160448201527f64792074616b656e0000000000000000000000000000000000000000000000006064820152608401610c84565b8542106135785760405162461bcd60e51b815260206004820152603d60248201527f796f75206861766520746f20646566696e652061206e657720706572696f642060448201527f656e64696e67206166746572207468652063757272656e742074696d650000006064820152608401610c84565b6135806140da565b5085835560028301829055600183018190556040518190879084907f4d1d74d5cbfc13e02ef05af3a30d8721e87a00d20bc3dc42198917139944def3905f90a450505050505050565b5f80835f03613604576040517f6e6ae24700000000000000000000000000000000000000000000000000000000815260040160405180910390fd5b7fcd7a55ef023eb5931cc022a9bdc64cb5b46c3a6e53bcaa84915eea6084f1c7b7547fcd7a55ef023eb5931cc022a9bdc64cb5b46c3a6e53bcaa84915eea6084f1c7b490851115613681576040517f3609372a00000000000000000000000000000000000000000000000000000000815260040160405180910390fd5b5f61368c85876141c9565b855490915081036136a4575f809350935050506136cb565b60018560010182815481106136bb576136bb614b0b565b905f5260205f2001549350935050505b9250929050565b5f805f80516020614e3e833981519152815b600a820154811015613766578482600101600901828154811061370957613709614b0b565b905f5260205f2001540361372257946001945092505050565b8482600101600901828154811061373b5761373b614b0b565b905f5260205f200154111561375457945f945092505050565b8061375e81614d0f565b9150506136e4565b50600a0154935f9350915050565b5f7f95d8298a3d25370298f52eb5e4c2caa68ca2492c02741ad9ada9443a021d758d6137a042836140a4565b831180156107b557505f9283526004016020525060409020541590565b5f80516020614e3e8339815191525f6137d5426136d2565b50600a8301549091505f90819083101561385d57600a84018054849081106137ff576137ff614b0b565b5f91825260209091200154600a85015490925061381d846001614cfc565b101561385257600a8401613832846001614cfc565b8154811061384257613842614b0b565b905f5260205f2001549050613866565b506009830154613866565b505060098201545f5b600b84015461388190839061387b9082614cfc565b8361426b565b5050505050565b5f613893425f6140a4565b909111919050565b5f61074183836142ed565b6001600160a01b0381165f9081526001830160205260408120541515610741565b60035f80516020614e3e8339815191525460ff1660048111156138ec576138ec614858565b036139395760405162461bcd60e51b815260206004820152601660248201527f74686520526567697374657220697320636c6f736564000000000000000000006044820152606401610c84565b7f95d8298a3d25370298f52eb5e4c2caa68ca2492c02741ad9ada9443a021d7590547f95d8298a3d25370298f52eb5e4c2caa68ca2492c02741ad9ada9443a021d758d9060ff16156139965760038101805460ff19169055613ab0565b8054613a305760405162461bcd60e51b815260206004820152604f60248201527f746865207265676973746572206973206c6f636b65642062656361757365206e60448201527f6f20636f75706f6e206973207072657061726564206f7220746865206d61747560648201527f7269747920697320726561636865640000000000000000000000000000000000608482015260a401610c84565b80544210613ab0575f816001015411613ab05760405162461bcd60e51b8152602060048201526024808201527f746865206d61747572697479206375742d6f66662074696d652068617320706160448201527f73736564000000000000000000000000000000000000000000000000000000006064820152608401610c84565b613ab86140da565b50611b9d84848461434e565b7f95d8298a3d25370298f52eb5e4c2caa68ca2492c02741ad9ada9443a021d7590545f907f95d8298a3d25370298f52eb5e4c2caa68ca2492c02741ad9ada9443a021d758d9060ff1615613b805760405162461bcd60e51b815260206004820152602260248201527f666f72636520666c616720616c7265616479207365742c20636865636b20636f60448201527f64650000000000000000000000000000000000000000000000000000000000006064820152608401610c84565b600301805460ff19166001908117909155919050565b5f610744825490565b6001600160a01b038216613bdf576040517ff1e2c4ee00000000000000000000000000000000000000000000000000000000815260040160405180910390fd5b613bea825f836138c7565b6001600160a01b0382165f9081527fbbbdc1476a0878f2ef9a893c81f5b6f6ea1b3acaf18ff47ccb69cd4267d50c86602081905260409091205480831115613c5e576040517fb1d35b2300000000000000000000000000000000000000000000000000000000815260040160405180910390fd5b6001600160a01b0384165f9081526020839052604081208483039055600283018054859290613c8e908490614b33565b90915550506040518381525f906001600160a01b038616907fddf252ad1be2c89b69c2b068fc378daa952ba7f163c4a11628f55a4df523b3ef9060200160405180910390a350505050565b5f8281527f2e59e4c2e927cdddbb64e181e0668d9a0fa70dd88f94d999cd87d5496a20da6260205260409020613d0f9082614396565b50613d18610d60565b6001600160a01b0316816001600160a01b0316837ff6391f5c32d9c69d2a47ea670b442974b53935d1edc7fd64eb21e047a839171b60405160405180910390a45050565b6001600160a01b038216613d9c576040517fda007acd00000000000000000000000000000000000000000000000000000000815260040160405180910390fd5b613da75f83836138c7565b7fbbbdc1476a0878f2ef9a893c81f5b6f6ea1b3acaf18ff47ccb69cd4267d50c8880547fbbbdc1476a0878f2ef9a893c81f5b6f6ea1b3acaf18ff47ccb69cd4267d50c869183915f90613dfb908490614cfc565b90915550506001600160a01b0383165f9081526020829052604081208054849290613e27908490614cfc565b90915550506040518281526001600160a01b038416905f907fddf252ad1be2c89b69c2b068fc378daa952ba7f163c4a11628f55a4df523b3ef9060200160405180910390a3505050565b5f80546001600160a01b031633148015613e8c575060143610155b15613e9e575060131936013560601c90565b503390565b60408051603f833b908101601f191682019092528181525f91808360208401863c50805160209091012092915050565b60606107446001600160a01b03831660145b60605f613ef3836002614de7565b613efe906002614cfc565b67ffffffffffffffff811115613f1657613f1661474a565b6040519080825280601f01601f191660200182016040528015613f40576020820181803683370190505b5090507f3000000000000000000000000000000000000000000000000000000000000000815f81518110613f7657613f76614b0b565b60200101906001600160f81b03191690815f1a9053507f780000000000000000000000000000000000000000000000000000000000000081600181518110613fc057613fc0614b0b565b60200101906001600160f81b03191690815f1a905350600160028402015b6001811115614057577f303132333435363738396162636465660000000000000000000000000000000085600f166010811061401c5761401c614b0b565b1a60f81b82828151811061403257614032614b0b565b60200101906001600160f81b03191690815f1a90535060049490941c935f1901613fde565b508315610741576040517fc913478500000000000000000000000000000000000000000000000000000000815260040160405180910390fd5b5f610741836001600160a01b0384166143aa565b5f806140b36201518085614dfe565b90506140bf8185614b33565b91506140ce6201518084614dfe565b905061092e8183614cfc565b7f95d8298a3d25370298f52eb5e4c2caa68ca2492c02741ad9ada9443a021d758d80545f919015801590614120575060028101545f908152600482016020526040902054155b801561412d575080544210155b156141c2575f61413b6143eb565b60028301545f90815260048401602052604090208190556001830154909150614164575f614175565b6141758260010154835f01546140a4565b808355614182905f6140a4565b6002830181905560018301548354604051919290917f4d1d74d5cbfc13e02ef05af3a30d8721e87a00d20bc3dc42198917139944def3905f90a492915050565b5f91505090565b81545f9081036141da57505f610744565b82545f905b8082101561422b575f81831682841860011c0190508486828154811061420757614207614b0b565b905f5260205f200154111561421e57809150614225565b8060010192505b506141df565b5f8211801561425657508385600184038154811061424b5761424b614b0b565b905f5260205f200154145b6142605781611cc2565b505f19019392505050565b7f95d8298a3d25370298f52eb5e4c2caa68ca2492c02741ad9ada9443a021d758f545f907f95d8298a3d25370298f52eb5e4c2caa68ca2492c02741ad9ada9443a021d758d9085146142c7576142c285858561333d565b6117bc565b6142d581600101545f6140a4565b83146117bc576117bc8160020154825f01548561333d565b81545f908210614329576040517fe637bf3b00000000000000000000000000000000000000000000000000000000815260040160405180910390fd5b825f01828154811061433d5761433d614b0b565b905f5260205f200154905092915050565b6001600160a01b03831661436d5761436582614480565b61085d6144f0565b6001600160a01b0382166143845761436583614480565b61438d82614480565b61085d83614480565b5f610741836001600160a01b03841661453c565b5f81815260018301602052604081205461074457508154600180820184555f8481526020808220909301849055845493815293810190915260409092205590565b7fcd7a55ef023eb5931cc022a9bdc64cb5b46c3a6e53bcaa84915eea6084f1c7b780545f917fcd7a55ef023eb5931cc022a9bdc64cb5b46c3a6e53bcaa84915eea6084f1c7b491908361443d83614d0f565b909155505060038101546040518181527f8030e83b04d87bef53480e26263266d6ca66863aa8506aca6f2559d18aa1cb679060200160405180910390a192915050565b6001600160a01b0381165f9081527fcd7a55ef023eb5931cc022a9bdc64cb5b46c3a6e53bcaa84915eea6084f1c7b4602090815260408083207fbbbdc1476a0878f2ef9a893c81f5b6f6ea1b3acaf18ff47ccb69cd4267d50c869092529091205461071c91906145f4565b6145f4565b6109657fcd7a55ef023eb5931cc022a9bdc64cb5b46c3a6e53bcaa84915eea6084f1c7b56144eb7fbbbdc1476a0878f2ef9a893c81f5b6f6ea1b3acaf18ff47ccb69cd4267d50c885490565b5f81815260018301602052604081205480156145ed5783545f9085905f19810190811061456b5761456b614b0b565b905f5260205f200154905080855f01600184038154811061458e5761458e614b0b565b5f9182526020808320909101929092559182526001860190526040902081905583548490806145bf576145bf614d27565b600190038181905f5260205f20015f90559055836001015f8481526020019081526020015f205f9055600191505b5092915050565b7fcd7a55ef023eb5931cc022a9bdc64cb5b46c3a6e53bcaa84915eea6084f1c7b7548061462084614653565b101561085d578254600180820185555f858152602080822090930193909355938401805494850181558252902090910155565b80545f901561468a578154829061466c90600190614b33565b8154811061467c5761467c614b0b565b905f5260205f200154610744565b5f92915050565b5f602082840312156146a1575f80fd5b5035919050565b5f5b838110156146c25781810151838201526020016146aa565b50505f910152565b5f81518084526146e18160208601602086016146a8565b601f01601f19169290920160200192915050565b602081525f61074160208301846146ca565b80356001600160a01b038116811461471d575f80fd5b919050565b5f8060408385031215614733575f80fd5b61473c83614707565b946020939093013593505050565b634e487b7160e01b5f52604160045260245ffd5b5f82601f83011261476d575f80fd5b813567ffffffffffffffff808211156147885761478861474a565b604051601f8301601f19908116603f011681019082821181831017156147b0576147b061474a565b816040528381528660208588010111156147c8575f80fd5b836020870160208301375f602085830101528094505050505092915050565b5f805f805f805f80610100898b0312156147ff575f80fd5b883567ffffffffffffffff811115614815575f80fd5b6148218b828c0161475e565b9b60208b01359b5060408b01359a60608101359a506080810135995060a0810135985060c0810135975060e0013595509350505050565b634e487b7160e01b5f52602160045260245ffd5b6005811061488857634e487b7160e01b5f52602160045260245ffd5b9052565b60208101610744828461486c565b5f805f606084860312156148ac575f80fd5b6148b584614707565b92506148c360208501614707565b9150604084013590509250925092565b5f80604083850312156148e4575f80fd5b823591506148f460208401614707565b90509250929050565b5f806040838503121561490e575f80fd5b50508035926020909101359150565b5f6020828403121561492d575f80fd5b813567ffffffffffffffff811115614943575f80fd5b61092e8482850161475e565b5f6020828403121561495f575f80fd5b61074182614707565b5f8151808452602080850194508084015f5b838110156149965781518752958201959082019060010161497a565b509495945050505050565b602081525f82516101608060208501526149bf6101808501836146ca565b91506020850151601f19808685030160408701526149dd84836146ca565b93506040870151606087015260608701516080870152608087015160a087015260a087015160c087015260c087015160e087015260e08701519150610100828188015280880151925050610120828188015280880151925050610140818786030181880152614a4c8584614968565b970151959092019490945250929392505050565b5f8060408385031215614a71575f80fd5b614a7a83614707565b9150602083013567ffffffffffffffff811115614a95575f80fd5b614aa18582860161475e565b9150509250929050565b5f8060408385031215614abc575f80fd5b614ac583614707565b91506148f460208401614707565b600181811c90821680614ae757607f821691505b602082108103614b0557634e487b7160e01b5f52602260045260245ffd5b50919050565b634e487b7160e01b5f52603260045260245ffd5b634e487b7160e01b5f52601160045260245ffd5b8181038181111561074457610744614b1f565b601f82111561085d575f81815260208120601f850160051c81016020861015614b6c5750805b601f850160051c820191505b81811015614b8b57828155600101614b78565b505050505050565b815167ffffffffffffffff811115614bad57614bad61474a565b614bc181614bbb8454614ad3565b84614b46565b602080601f831160018114614bf4575f8415614bdd5750858301515b5f19600386901b1c1916600185901b178555614b8b565b5f85815260208120601f198616915b82811015614c2257888601518255948401946001909101908401614c03565b5085821015614c3f57878501515f19600388901b60f8161c191681555b5050505050600190811b01905550565b5f8154614c5b81614ad3565b808552602060018381168015614c785760018114614c9257614cbd565b60ff1985168884015283151560051b880183019550614cbd565b865f52825f205f5b85811015614cb55781548a8201860152908301908401614c9a565b890184019650505b505050505092915050565b606081525f614cda6060830186614c4f565b8281036020840152614cec8186614c4f565b91505061092e604083018461486c565b8082018082111561074457610744614b1f565b5f60018201614d2057614d20614b1f565b5060010190565b634e487b7160e01b5f52603160045260245ffd5b5f81614d4957614d49614b1f565b505f190190565b5f60208284031215614d60575f80fd5b5051919050565b7f416363657373436f6e74726f6c3a206163636f756e742000000000000000000081525f8351614d9e8160178501602088016146a8565b7f206973206d697373696e6720726f6c65200000000000000000000000000000006017918401918201528351614ddb8160288401602088016146a8565b01602801949350505050565b808202811582820484141761074457610744614b1f565b5f82614e1857634e487b7160e01b5f52601260045260245ffd5b50069056fea75205b8583660bdad375c0ccde11af17668d76a408a9a5e739251b0f7c59870e02854d75ca0f6b56099fb1e1546a75ef76f441f4e6082f2e3cbb1e8dc5591a0a26469706673582212206db2a735023aaace0edf4fc0278b175be0260c9e934371b5d44a213273c81b0764736f6c63430008140033",
  "linkReferences": {},
  "deployedLinkReferences": {}
}