{
  "_format": "hh-sol-artifact-1",
  "contractName": "Redemption",
  "sourceName": "contracts/register/coupon/redemption/Redemption.sol",
  "abi": [
    {
      "inputs": [
        {
          "internalType": "address",
          "name": "_registerContract",
          "type": "address"
        },
        {
          "internalType": "uint256",
          "name": "_maturityDate",
          "type": "uint256"
        },
        {
          "internalType": "uint256",
          "name": "_nbDays",
          "type": "uint256"
        },
        {
          "internalType": "uint256",
          "name": "_recordDate",
          "type": "uint256"
        },
        {
          "internalType": "uint256",
          "name": "_cutOfTime",
          "type": "uint256"
        }
      ],
      "stateMutability": "nonpayable",
      "type": "constructor"
    },
    {
      "inputs": [],
      "name": "ReentrancyGuardReentrantCall",
      "type": "error"
    },
    {
      "anonymous": false,
      "inputs": [
        {
          "indexed": true,
          "internalType": "contract IRegister",
          "name": "register",
          "type": "address"
        },
        {
          "indexed": true,
          "internalType": "uint256",
          "name": "couponDate",
          "type": "uint256"
        },
        {
          "indexed": true,
          "internalType": "enum ICoupon.CouponStatus",
          "name": "status",
          "type": "uint8"
        }
      ],
      "name": "CouponChanged",
      "type": "event"
    },
    {
      "anonymous": false,
      "inputs": [
        {
          "indexed": true,
          "internalType": "contract IRegister",
          "name": "register",
          "type": "address"
        },
        {
          "indexed": true,
          "internalType": "uint256",
          "name": "couponDate",
          "type": "uint256"
        },
        {
          "indexed": true,
          "internalType": "address",
          "name": "investor",
          "type": "address"
        },
        {
          "indexed": false,
          "internalType": "enum ICoupon.PaymentStatus",
          "name": "status",
          "type": "uint8"
        },
        {
          "indexed": false,
          "internalType": "enum ICoupon.PaymentStatus",
          "name": "previousStatus",
          "type": "uint8"
        }
      ],
      "name": "CouponPaymentStatusChanged",
      "type": "event"
    },
    {
      "anonymous": false,
      "inputs": [
        {
          "indexed": true,
          "internalType": "contract IRegister",
          "name": "register",
          "type": "address"
        },
        {
          "indexed": true,
          "internalType": "uint256",
          "name": "couponDate",
          "type": "uint256"
        },
        {
          "indexed": true,
          "internalType": "enum ICoupon.CouponStatus",
          "name": "status",
          "type": "uint8"
        }
      ],
      "name": "RedemptionChanged",
      "type": "event"
    },
    {
      "anonymous": false,
      "inputs": [
        {
          "indexed": true,
          "internalType": "contract IRegister",
          "name": "register",
          "type": "address"
        },
        {
          "indexed": true,
          "internalType": "uint256",
          "name": "couponDate",
          "type": "uint256"
        },
        {
          "indexed": true,
          "internalType": "address",
          "name": "investor",
          "type": "address"
        },
        {
          "indexed": false,
          "internalType": "enum ICoupon.PaymentStatus",
          "name": "status",
          "type": "uint8"
        },
        {
          "indexed": false,
          "internalType": "enum ICoupon.PaymentStatus",
          "name": "previousStatus",
          "type": "uint8"
        }
      ],
      "name": "RedemptionPaymentStatusChanged",
      "type": "event"
    },
    {
      "inputs": [],
      "name": "couponDate",
      "outputs": [
        {
          "internalType": "uint256",
          "name": "",
          "type": "uint256"
        }
      ],
      "stateMutability": "view",
      "type": "function"
    },
    {
      "inputs": [],
      "name": "cutOfTime",
      "outputs": [
        {
          "internalType": "uint256",
          "name": "",
          "type": "uint256"
        }
      ],
      "stateMutability": "view",
      "type": "function"
    },
    {
      "inputs": [
        {
          "internalType": "address",
          "name": "_investor",
          "type": "address"
        }
      ],
      "name": "getInvestorPayments",
      "outputs": [
        {
          "internalType": "enum ICoupon.PaymentStatus",
          "name": "",
          "type": "uint8"
        }
      ],
      "stateMutability": "view",
      "type": "function"
    },
    {
      "inputs": [
        {
          "internalType": "address",
          "name": "_investor",
          "type": "address"
        }
      ],
      "name": "getInvestorRedemptionPayments",
      "outputs": [
        {
          "internalType": "enum ICoupon.PaymentStatus",
          "name": "",
          "type": "uint8"
        }
      ],
      "stateMutability": "view",
      "type": "function"
    },
    {
      "inputs": [
        {
          "internalType": "address",
          "name": "_investor",
          "type": "address"
        }
      ],
      "name": "getMaturityAmountForInvestor",
      "outputs": [
        {
          "internalType": "uint256",
          "name": "paymentAmount",
          "type": "uint256"
        }
      ],
      "stateMutability": "view",
      "type": "function"
    },
    {
      "inputs": [
        {
          "internalType": "address",
          "name": "_investor",
          "type": "address"
        }
      ],
      "name": "getPaymentAmountForInvestor",
      "outputs": [
        {
          "internalType": "uint256",
          "name": "paymentAmount",
          "type": "uint256"
        }
      ],
      "stateMutability": "view",
      "type": "function"
    },
    {
      "inputs": [],
      "name": "getTotalMaturityAmount",
      "outputs": [
        {
          "internalType": "uint256",
          "name": "paymentAmount",
          "type": "uint256"
        }
      ],
      "stateMutability": "view",
      "type": "function"
    },
    {
      "inputs": [],
      "name": "getTotalPaymentAmount",
      "outputs": [
        {
          "internalType": "uint256",
          "name": "paymentAmount",
          "type": "uint256"
        }
      ],
      "stateMutability": "view",
      "type": "function"
    },
    {
      "inputs": [
        {
          "internalType": "address",
          "name": "",
          "type": "address"
        }
      ],
      "name": "investorPayments",
      "outputs": [
        {
          "internalType": "enum ICoupon.PaymentStatus",
          "name": "",
          "type": "uint8"
        }
      ],
      "stateMutability": "view",
      "type": "function"
    },
    {
      "inputs": [
        {
          "internalType": "address",
          "name": "",
          "type": "address"
        }
      ],
      "name": "investorRedemptionPayments",
      "outputs": [
        {
          "internalType": "enum ICoupon.PaymentStatus",
          "name": "",
          "type": "uint8"
        }
      ],
      "stateMutability": "view",
      "type": "function"
    },
    {
      "inputs": [],
      "name": "nbDays",
      "outputs": [
        {
          "internalType": "uint256",
          "name": "",
          "type": "uint256"
        }
      ],
      "stateMutability": "view",
      "type": "function"
    },
    {
      "inputs": [],
      "name": "payingAgent",
      "outputs": [
        {
          "internalType": "address",
          "name": "",
          "type": "address"
        }
      ],
      "stateMutability": "view",
      "type": "function"
    },
    {
      "inputs": [
        {
          "internalType": "address",
          "name": "_investor",
          "type": "address"
        }
      ],
      "name": "paymentIdForInvest",
      "outputs": [
        {
          "internalType": "bytes8",
          "name": "",
          "type": "bytes8"
        }
      ],
      "stateMutability": "view",
      "type": "function"
    },
    {
      "inputs": [
        {
          "internalType": "address",
          "name": "_investor",
          "type": "address"
        }
      ],
      "name": "paymentIdRedemptionForInvest",
      "outputs": [
        {
          "internalType": "bytes8",
          "name": "",
          "type": "bytes8"
        }
      ],
      "stateMutability": "view",
      "type": "function"
    },
    {
      "inputs": [],
      "name": "recordDate",
      "outputs": [
        {
          "internalType": "uint256",
          "name": "",
          "type": "uint256"
        }
      ],
      "stateMutability": "view",
      "type": "function"
    },
    {
      "inputs": [],
      "name": "register",
      "outputs": [
        {
          "internalType": "contract IRegister",
          "name": "",
          "type": "address"
        }
      ],
      "stateMutability": "view",
      "type": "function"
    },
    {
      "inputs": [],
      "name": "rejectCoupon",
      "outputs": [],
      "stateMutability": "nonpayable",
      "type": "function"
    },
    {
      "inputs": [
        {
          "internalType": "uint256",
          "name": "_recordDate",
          "type": "uint256"
        },
        {
          "internalType": "uint256",
          "name": "_cutOfTime",
          "type": "uint256"
        }
      ],
      "name": "setCutOffTime",
      "outputs": [],
      "stateMutability": "nonpayable",
      "type": "function"
    },
    {
      "inputs": [],
      "name": "setDateAsCurrentCoupon",
      "outputs": [],
      "stateMutability": "nonpayable",
      "type": "function"
    },
    {
      "inputs": [
        {
          "internalType": "uint256",
          "name": "_nbDays",
          "type": "uint256"
        }
      ],
      "name": "setNbDays",
      "outputs": [],
      "stateMutability": "nonpayable",
      "type": "function"
    },
    {
      "inputs": [],
      "name": "status",
      "outputs": [
        {
          "internalType": "enum ICoupon.CouponStatus",
          "name": "",
          "type": "uint8"
        }
      ],
      "stateMutability": "view",
      "type": "function"
    },
    {
      "inputs": [
        {
          "internalType": "address",
          "name": "_investor",
          "type": "address"
        }
      ],
      "name": "toggleCouponPayment",
      "outputs": [],
      "stateMutability": "nonpayable",
      "type": "function"
    },
    {
      "inputs": [
        {
          "internalType": "address",
          "name": "_investor",
          "type": "address"
        }
      ],
      "name": "toggleRedemptionPayment",
      "outputs": [],
      "stateMutability": "nonpayable",
      "type": "function"
    }
  ],
  "bytecode": "0x608060405234801562000010575f80fd5b50604051620025ff380380620025ff8339810160408190526200003391620003d3565b60015f55600780546001600160a01b0387166001600160a01b0319918216811790925560088054909116821790556040516338e5975560e21b8152336004820152869186918691869186919063e3965d5490602401602060405180830381865afa158015620000a4573d5f803e3d5ffd5b505050506040513d601f19601f82011682018060405250810190620000ca919062000425565b6200012e5760405162461bcd60e51b815260206004820152602960248201527f53656e646572206d757374206265206120506179696e672063616c63756c61746044820152681a5bdb881859d95b9d60ba1b60648201526084015b60405180910390fd5b6007546040516338e20fc560e11b8152600481018690526001600160a01b03909116906371c41f8a906024016020604051808303815f875af115801562000177573d5f803e3d5ffd5b505050506040513d601f19601f820116820180604052508101906200019d919062000425565b620001eb5760405162461bcd60e51b815260206004820152601f60248201527f7468697320636f75706f6e4461746520646f6573206e6f742065786973747300604482015260640162000125565b600184905560028390556200020462015180836200044d565b6200021090836200046d565b6003556200022262015180826200044d565b6004908155600580546001600160a01b031916331790556008805460ff60a01b191690819055600160a01b900460ff169081111562000265576200026562000493565b6001546007546040516001600160a01b03909116907fee1a084aa36acdbc1c32f808f87c6ef8ae26d4ad59293c32244b1b72466bb760905f90a4505060075460405163d4cdda9160e01b8152600481018990526001600160a01b03909116935063d4cdda91925060240190506020604051808303815f875af1158015620002ee573d5f803e3d5ffd5b505050506040513d601f19601f8201168201806040525081019062000314919062000425565b6200036d5760405162461bcd60e51b815260206004820152602260248201527f74686973206d61747572697479204461746520646f6573206e6f742065786973604482015261747360f01b606482015260840162000125565b600854600160a01b900460ff1660048111156200038e576200038e62000493565b6001546007546040516001600160a01b03909116907f6f3decef32bc5575fa4154c177d28de83ad12af68ef61bf36ad7c5be081654df905f90a45050505050620004a7565b5f805f805f60a08688031215620003e8575f80fd5b85516001600160a01b0381168114620003ff575f80fd5b602087015160408801516060890151608090990151929a91995097965090945092505050565b5f6020828403121562000436575f80fd5b8151801515811462000446575f80fd5b9392505050565b5f826200046857634e487b7160e01b5f52601260045260245ffd5b500690565b818103818111156200048d57634e487b7160e01b5f52601160045260245ffd5b92915050565b634e487b7160e01b5f52602160045260245ffd5b61214a80620004b55f395ff3fe608060405234801561000f575f80fd5b5060043610610184575f3560e01c806384cd8c86116100dd578063d64c058711610088578063f4bcf20911610063578063f4bcf2091461038c578063f68a3ab414610394578063fd3b4442146103a7575f80fd5b8063d64c05871461033b578063d927a6061461034e578063e505222b14610379575f80fd5b8063b77fea01116100b8578063b77fea01146102fd578063c4fa96b014610310578063ccc5d7e914610319575f80fd5b806384cd8c86146102ca57806386d49f77146102ec5780639d5d5fa4146102f5575f80fd5b8063532e91cc1161013d5780636969a06f116101185780636969a06f1461029a57806369fb125e146102a45780637c610024146102b7575f80fd5b8063532e91cc146102305780635e4795a914610274578063683fffd514610287575f80fd5b8063200d2ed21161016d578063200d2ed2146101f057806323bfa0f01461021157806350cc453214610227575f80fd5b80631aa3a008146101885780631dd5fc63146101b8575b5f80fd5b60075461019b906001600160a01b031681565b6040516001600160a01b0390911681526020015b60405180910390f35b6101e36101c6366004611f6e565b6001600160a01b03165f908152600a602052604090205460ff1690565b6040516101af9190611fb8565b60085461020490600160a01b900460ff1681565b6040516101af9190611fcc565b6102196103b0565b6040519081526020016101af565b61021960035481565b61024361023e366004611f6e565b610551565b6040517fffffffffffffffff00000000000000000000000000000000000000000000000090911681526020016101af565b60055461019b906001600160a01b031681565b610219610295366004611f6e565b61059b565b6102a2610699565b005b6102196102b2366004611f6e565b610a62565b6102a26102c5366004611fe6565b610c08565b6101e36102d8366004611f6e565b600a6020525f908152604090205460ff1681565b61021960025481565b610219610d75565b6102a261030b366004611f6e565b610e77565b61021960015481565b6101e3610327366004611f6e565b60096020525f908152604090205460ff1681565b6102a2610349366004611f6e565b611689565b6101e361035c366004611f6e565b6001600160a01b03165f9081526009602052604090205460ff1690565b610243610387366004611f6e565b611be7565b6102a2611c3e565b6102a26103a2366004611ffd565b611d83565b61021960045481565b5f8060075f9054906101000a90046001600160a01b03166001600160a01b031663a7f2f6ec6040518163ffffffff1660e01b8152600401602060405180830381865afa158015610402573d5f803e3d5ffd5b505050506040513d601f19601f82011682018060405250810190610426919061201d565b90505f60075f9054906101000a90046001600160a01b03166001600160a01b03166339027f7c6040518163ffffffff1660e01b8152600401602060405180830381865afa158015610479573d5f803e3d5ffd5b505050506040513d601f19601f8201168201806040525081019061049d919061201d565b90505f60075f9054906101000a90046001600160a01b03166001600160a01b03166318160ddd6040518163ffffffff1660e01b8152600401602060405180830381865afa1580156104f0573d5f803e3d5ffd5b505050506040513d601f19601f82011682018060405250810190610514919061201d565b90505f61016860025484848761052a9190612048565b6105349190612048565b61053e9190612048565b6105489190612073565b95945050505050565b6040516bffffffffffffffffffffffff1930606090811b8216602084015283901b1660348201525f906048015b604051602081830303815290604052805190602001209050919050565b5f8060075f9054906101000a90046001600160a01b03166001600160a01b031663a7f2f6ec6040518163ffffffff1660e01b8152600401602060405180830381865afa1580156105ed573d5f803e3d5ffd5b505050506040513d601f19601f82011682018060405250810190610611919061201d565b6008546001546040516307b2d9e360e01b81526001600160a01b03878116600483015260248201929092529293505f929116906307b2d9e390604401602060405180830381865afa158015610668573d5f803e3d5ffd5b505050506040513d601f19601f8201168201806040525081019061068c919061201d565b90505f6105488284612048565b6106a1611f19565b6007546040516338e5975560e21b81523360048201526001600160a01b039091169063e3965d5490602401602060405180830381865afa1580156106e7573d5f803e3d5ffd5b505050506040513d601f19601f8201168201806040525081019061070b9190612086565b61076e5760405162461bcd60e51b815260206004820152602960248201527f53656e646572206d757374206265206120506179696e672063616c63756c61746044820152681a5bdb881859d95b9d60ba1b60648201526084015b60405180910390fd5b5f600854600160a01b900460ff16600481111561078d5761078d611f90565b1461080e5760405162461bcd60e51b8152602060048201526044602482018190527f54686520636f75706f6e20646174652063616e206265206d6f64696669656420908201527f6f6e6c792069662074686520636f6e74726163742073746174757320697320446064820152631c98599d60e21b608482015260a401610765565b6007546001546040517f71c41f8a0000000000000000000000000000000000000000000000000000000081526001600160a01b03909216916371c41f8a9161085c9160040190815260200190565b6020604051808303815f875af1158015610878573d5f803e3d5ffd5b505050506040513d601f19601f8201168201806040525081019061089c9190612086565b6108e85760405162461bcd60e51b815260206004820152601f60248201527f7468697320636f75706f6e4461746520646f6573206e6f7420657869737473006044820152606401610765565b6007546001546004546003546001600160a01b0390931692633052974c9291610910916120a5565b6040517fffffffff0000000000000000000000000000000000000000000000000000000060e085901b168152600481019290925260248201526044015f604051808303815f87803b158015610963575f80fd5b505af1158015610975573d5f803e3d5ffd5b5050505060085f9054906101000a90046001600160a01b03166001600160a01b0316639ef986de6040518163ffffffff1660e01b8152600401602060405180830381865afa1580156109c9573d5f803e3d5ffd5b505050506040513d601f19601f820116820180604052508101906109ed919061201d565b6006556008805460ff60a01b1916600160a01b90811791829055900460ff166004811115610a1d57610a1d611f90565b6001546007546040516001600160a01b03909116907fee1a084aa36acdbc1c32f808f87c6ef8ae26d4ad59293c32244b1b72466bb760905f90a4610a6060015f55565b565b5f8060075f9054906101000a90046001600160a01b03166001600160a01b031663a7f2f6ec6040518163ffffffff1660e01b8152600401602060405180830381865afa158015610ab4573d5f803e3d5ffd5b505050506040513d601f19601f82011682018060405250810190610ad8919061201d565b90505f60075f9054906101000a90046001600160a01b03166001600160a01b03166339027f7c6040518163ffffffff1660e01b8152600401602060405180830381865afa158015610b2b573d5f803e3d5ffd5b505050506040513d601f19601f82011682018060405250810190610b4f919061201d565b6008546001546040516307b2d9e360e01b81526001600160a01b03888116600483015260248201929092529293505f929116906307b2d9e390604401602060405180830381865afa158015610ba6573d5f803e3d5ffd5b505050506040513d601f19601f82011682018060405250810190610bca919061201d565b90505f610168600254848487610be09190612048565b610bea9190612048565b610bf49190612048565b610bfe9190612073565b9695505050505050565b6007546040516338e5975560e21b81523360048201526001600160a01b039091169063e3965d5490602401602060405180830381865afa158015610c4e573d5f803e3d5ffd5b505050506040513d601f19601f82011682018060405250810190610c729190612086565b610cd05760405162461bcd60e51b815260206004820152602960248201527f53656e646572206d757374206265206120506179696e672063616c63756c61746044820152681a5bdb881859d95b9d60ba1b6064820152608401610765565b5f600854600160a01b900460ff166004811115610cef57610cef611f90565b14610d705760405162461bcd60e51b8152602060048201526044602482018190527f54686520636f75706f6e20646174652063616e206265206d6f64696669656420908201527f6f6e6c792069662074686520636f6e74726163742073746174757320697320446064820152631c98599d60e21b608482015260a401610765565b600255565b5f8060075f9054906101000a90046001600160a01b03166001600160a01b031663a7f2f6ec6040518163ffffffff1660e01b8152600401602060405180830381865afa158015610dc7573d5f803e3d5ffd5b505050506040513d601f19601f82011682018060405250810190610deb919061201d565b90505f60075f9054906101000a90046001600160a01b03166001600160a01b03166318160ddd6040518163ffffffff1660e01b8152600401602060405180830381865afa158015610e3e573d5f803e3d5ffd5b505050506040513d601f19601f82011682018060405250810190610e62919061201d565b90505f610e6f8284612048565b949350505050565b610e7f611f19565b60075460405163c41251a160e01b81526001600160a01b0383811660048301529091169063c41251a190602401602060405180830381865afa158015610ec7573d5f803e3d5ffd5b505050506040513d601f19601f82011682018060405250810190610eeb9190612086565b610f375760405162461bcd60e51b815260206004820152601c60248201527f5468697320696e766573746f72206973206e6f7420616c6c6f776564000000006044820152606401610765565b6001600854600160a01b900460ff166004811115610f5757610f57611f90565b14610fca5760405162461bcd60e51b815260206004820152602c60248201527f54686520737461747573206f662074686520526564656d7074696f6e2073686f60448201527f756c6420626520526561647900000000000000000000000000000000000000006064820152608401610765565b6001600160a01b038181165f908152600a6020526040908190205460075491516321b0fc9560e11b815233600482015260ff909116929190911690634361f92a90602401602060405180830381865afa158015611029573d5f803e3d5ffd5b505050506040513d601f19601f8201168201806040525081019061104d9190612086565b1561136e576001600160a01b0382165f908152600a602052604081205460ff16600281111561107e5761107e611f90565b036112a05760065442116110fa5760405162461bcd60e51b815260206004820152602760248201527f746865206d6174757269747920637574206f662074696d6520686173206e6f7460448201527f20706173736564000000000000000000000000000000000000000000000000006064820152608401610765565b6001600160a01b038281165f818152600a6020526040808220805460ff1916600117905560075490517f70a082310000000000000000000000000000000000000000000000000000000081526004810193909352909216906370a0823190602401602060405180830381865afa158015611176573d5f803e3d5ffd5b505050506040513d601f19601f8201168201806040525081019061119a919061201d565b9050801561129a576007546040517fabc2cf2a0000000000000000000000000000000000000000000000000000000081526001600160a01b0385811660048301529091169063abc2cf2a906024016020604051808303815f875af1158015611204573d5f803e3d5ffd5b505050506040513d601f19601f820116820180604052508101906112289190612086565b61129a5760405162461bcd60e51b815260206004820152602260248201527f72657475726e2062616c616e636520657870656374656420627574206661696c60448201527f65640000000000000000000000000000000000000000000000000000000000006064820152608401610765565b50611619565b60016001600160a01b0383165f908152600a602052604090205460ff1660028111156112ce576112ce611f90565b036112fe576001600160a01b0382165f908152600a60205260408120805460ff19166001835b0217905550611619565b6040805162461bcd60e51b81526020600482015260248101919091527f54686520737461747573206f66207468697320696e766573746f72277320706160448201527f796d656e742073686f756c642062652050616964206f7220546f4265506169646064820152608401610765565b600754604051630d72032360e21b81523360048201526001600160a01b03909116906335c80c8c90602401602060405180830381865afa1580156113b4573d5f803e3d5ffd5b505050506040513d601f19601f820116820180604052508101906113d89190612086565b156115ab576007546040516308f92f4960e41b81526001600160a01b03848116600483015233921690638f92f49090602401602060405180830381865afa158015611425573d5f803e3d5ffd5b505050506040513d601f19601f8201168201806040525081019061144991906120b8565b6001600160a01b0316146114ae5760405162461bcd60e51b815260206004820152602660248201527f596f7520617265206e6f7420637573746f6469616e206f66207468697320696e6044820152653b32b9ba37b960d11b6064820152608401610765565b60016001600160a01b0383165f908152600a602052604090205460ff1660028111156114dc576114dc611f90565b03611508576001600160a01b0382165f908152600a60205260409020805460ff19166002179055611619565b60026001600160a01b0383165f908152600a602052604090205460ff16600281111561153657611536611f90565b03611563576001600160a01b0382165f908152600a6020526040902080546001919060ff191682806112f4565b60405162461bcd60e51b815260206004820152601d60248201527f496e76616c696420436f75706f6e207061796d656e74207374617475730000006044820152606401610765565b60405162461bcd60e51b815260206004820152603260248201527f73656e646572206d7573742062652043656e7472616c204163636f756e74204b60448201527f6565706572206f7220437573746f6469616e00000000000000000000000000006064820152608401610765565b6001546007546001600160a01b038085165f818152600a602052604090819020549051919493909216917f5015a18308d4635883292e9e27e8d94d9fc784749d47aa7f18d6f3ad2ad97e73916116749160ff169087906120d3565b60405180910390a45061168660015f55565b50565b60075460405163c41251a160e01b81526001600160a01b0383811660048301529091169063c41251a190602401602060405180830381865afa1580156116d1573d5f803e3d5ffd5b505050506040513d601f19601f820116820180604052508101906116f59190612086565b6117415760405162461bcd60e51b815260206004820152601c60248201527f5468697320696e766573746f72206973206e6f7420616c6c6f776564000000006044820152606401610765565b6001600854600160a01b900460ff16600481111561176157611761611f90565b146117d45760405162461bcd60e51b815260206004820152602860248201527f54686520737461747573206f662074686520636f75706f6e2073686f756c642060448201527f62652052656164790000000000000000000000000000000000000000000000006064820152608401610765565b6001600160a01b038181165f90815260096020526040908190205460075491516321b0fc9560e11b815233600482015260ff909116929190911690634361f92a90602401602060405180830381865afa158015611833573d5f803e3d5ffd5b505050506040513d601f19601f820116820180604052508101906118579190612086565b15611989576001600160a01b0382165f9081526009602052604081205460ff16600281111561188857611888611f90565b036119325760065442116119045760405162461bcd60e51b815260206004820152602560248201527f74686520636f75706f6e20637574206f662074696d6520686173206e6f74207060448201527f61737365640000000000000000000000000000000000000000000000000000006064820152608401610765565b6001600160a01b0382165f90815260096020526040902080546001919060ff191682805b0217905550611b80565b60016001600160a01b0383165f9081526009602052604090205460ff16600281111561196057611960611f90565b036112fe576001600160a01b0382165f908152600960205260409020805460ff19169055611b80565b600754604051630d72032360e21b81523360048201526001600160a01b03909116906335c80c8c90602401602060405180830381865afa1580156119cf573d5f803e3d5ffd5b505050506040513d601f19601f820116820180604052508101906119f39190612086565b156115ab576007546040516308f92f4960e41b81526001600160a01b03848116600483015233921690638f92f49090602401602060405180830381865afa158015611a40573d5f803e3d5ffd5b505050506040513d601f19601f82011682018060405250810190611a6491906120b8565b6001600160a01b031614611ac95760405162461bcd60e51b815260206004820152602660248201527f596f7520617265206e6f7420637573746f6469616e206f66207468697320696e6044820152653b32b9ba37b960d11b6064820152608401610765565b60016001600160a01b0383165f9081526009602052604090205460ff166002811115611af757611af7611f90565b03611b25576001600160a01b0382165f90815260096020526040902080546002919060ff1916600183611928565b60026001600160a01b0383165f9081526009602052604090205460ff166002811115611b5357611b53611f90565b03611563576001600160a01b0382165f90815260096020526040902080546001919060ff19168280611928565b6001546007546001600160a01b038085165f8181526009602052604090819020549051919493909216917f71a813fb36e2b43b4fcd5b541937f3501c4bb733759aa470d700efb9b7fd5b1491611bdb9160ff169087906120d3565b60405180910390a45050565b6040516bffffffffffffffffffffffff1930606090811b8216602084015283901b1660348201527f726564656d7074696f6e0000000000000000000000000000000000000000000060488201525f9060520161057e565b6007546040516338e5975560e21b81523360048201526001600160a01b039091169063e3965d5490602401602060405180830381865afa158015611c84573d5f803e3d5ffd5b505050506040513d601f19601f82011682018060405250810190611ca89190612086565b611d065760405162461bcd60e51b815260206004820152602960248201527f53656e646572206d757374206265206120506179696e672063616c63756c61746044820152681a5bdb881859d95b9d60ba1b6064820152608401610765565b6008805460ff60a01b1916740200000000000000000000000000000000000000001790819055600160a01b900460ff166004811115611d4757611d47611f90565b6001546007546040516001600160a01b03909116907fee1a084aa36acdbc1c32f808f87c6ef8ae26d4ad59293c32244b1b72466bb760905f90a4565b6007546040516338e5975560e21b81523360048201526001600160a01b039091169063e3965d5490602401602060405180830381865afa158015611dc9573d5f803e3d5ffd5b505050506040513d601f19601f82011682018060405250810190611ded9190612086565b611e4b5760405162461bcd60e51b815260206004820152602960248201527f53656e646572206d757374206265206120506179696e672063616c63756c61746044820152681a5bdb881859d95b9d60ba1b6064820152608401610765565b5f600854600160a01b900460ff166004811115611e6a57611e6a611f90565b14611eeb5760405162461bcd60e51b8152602060048201526044602482018190527f54686520636f75706f6e20646174652063616e206265206d6f64696669656420908201527f6f6e6c792069662074686520636f6e74726163742073746174757320697320446064820152631c98599d60e21b608482015260a401610765565b611ef862015180836120ee565b611f029083612101565b600355611f1262015180826120ee565b6004555050565b60025f5403611f54576040517f3ee5aeb500000000000000000000000000000000000000000000000000000000815260040160405180910390fd5b60025f55565b6001600160a01b0381168114611686575f80fd5b5f60208284031215611f7e575f80fd5b8135611f8981611f5a565b9392505050565b634e487b7160e01b5f52602160045260245ffd5b60038110611fb457611fb4611f90565b9052565b60208101611fc68284611fa4565b92915050565b6020810160058310611fe057611fe0611f90565b91905290565b5f60208284031215611ff6575f80fd5b5035919050565b5f806040838503121561200e575f80fd5b50508035926020909101359150565b5f6020828403121561202d575f80fd5b5051919050565b634e487b7160e01b5f52601160045260245ffd5b8082028115828204841417611fc657611fc6612034565b634e487b7160e01b5f52601260045260245ffd5b5f826120815761208161205f565b500490565b5f60208284031215612096575f80fd5b81518015158114611f89575f80fd5b80820180821115611fc657611fc6612034565b5f602082840312156120c8575f80fd5b8151611f8981611f5a565b604081016120e18285611fa4565b611f896020830184611fa4565b5f826120fc576120fc61205f565b500690565b81810381811115611fc657611fc661203456fea26469706673582212206c4ab1c2109d0621b8d7722e531773eae78bfc351e18029b87b5b6bee0e8083d64736f6c63430008140033",
  "linkReferences": {},
  "deployedLinkReferences": {}
}